:100000009EC700000C949128BBC70000B9C7000030
:10001000B7C70000B5C70000B3C70000B1C70000F4
:10002000AFC70000ADC70000ABC70000A9C7000004
:10003000A7C70000A5C70000A3C70000A1C7000014
:100040009FC700009DC700009BC7000099C7000024
:1000500097C7000095C7000093C700000C946E2856
:100060008FC700000C9409280C94352889C700001C
:1000700087C7000085C7000083C7000081C7000054
:100080007FC700007DC700007BC7000079C7000064
:1000900077C7000075C7000073C700000C9499284B
:1000A0006FC700006DC700006BC7000069C7000084
:1000B00067C7000065C7000063C7000061C7000094
:1000C0005FC700005DC700005BC7000059C70000A4
:1000D00057C7000055C7000053C7000051C70000B4
:1000E0004FC7000000002100240027002A002D0037
:1000F0003000330001010000040107010A01000083
:1001000020002300260029002C002F0032000001CF
:10011000000003010601090100002200250028005B
:100120002B002E00310034000201000005010801FF
:100130000B010102102020080810204010204080F0
:10014000020102010804020101020408102040809B
:100150008040201008040201800402018040201029
:100160000804020108040201010204081020408072
:100170000102040810204080050505050705080850
:100180000808020202020A0A080804040404010121
:100190000101010101010303030303030303040736
:1001A00007070C0C0C0C0C0C0C0C020202020606CD
:1001B0000606060606060B0B0B0B0B0B0B0B21267C
:1001C0000107000000006D65676161646B004552C6
:1001D000524F5200020F00000001010115D4A2008D
:1001E00012000000FFFFFFFFFFFFFFFFFFFFFFFF09
:1001F000FFFFFFFFFF00FF00FF00FF00FF00FF0009
:1002000040404000B80B04160D0E0F33280B504F22
:10021000525151FFFFFFFFFFFF00FF00FF00FF00F3
:100220000D0080000EFF000010FFFF000F0000FF18
:1002300009FF450000000000000000000000000071
:1002400000000000000000000000000000000000AE
:10025000000000000000000000000000000000009E
:10026000000000000000000000000000000000008E
:10027000000000000000000000000000000000007E
:10028000000000000000000000000000000000006E
:10029000000000000000000000000000000000005E
:1002A000000000000000000000000000000000004E
:1002B000000000000000000000000000000000FF3F
:1002C00000000080000000000080000000000080AE
:1002D000FF7F00000080FF7F00000080FF7F0000A4
:1002E0000080FF7F051400000000000000000000F7
:1002F00000000000000002000001010202000000F6
:1003000000000000030002020201010002010201DC
:10031000000302020100000002020201010000705D
:10032000000000002400000002000300000065003F
:1003300054FFEF0000FA80000B12820001030C3022
:10034000C30E8C8CE914D5400213710F8E3883F8DC
:10035000833000F883258EF8833000F883FFFFFF99
:10036000FF0FFEA9D6240004001A8279A100000024
:100370003CFFFF00000010000038836FA2003E0326
:10038000304000000002CAE3093E80000020000067
:1003900000000000004000000060000000000C00B1
:1003A00000000C186E000006920A16C0DFFFFF0264
:1003B00056FD8CD377FFE1C496E0C5BEAA000000CD
:1003C00000FFFF0B2B0000165700000359400000F0
:1003D0000000001DFA00026C1D000000003FFFDF5E
:1003E000EB003EB3B6000D227800002F3C00000069
:1003F00000001942B5000039A20000B365D90E9F74
:10040000C91DCF4C3430000000500000003BB67ACC
:10041000E80064000000C8000000000000100000B8
:10042000001000FA921000225E000D229F000100D1
:100430000000320000FF46000063D40000100000FE
:100440000004D6000004CC000004CC000000001022
:1004500072000000400000000000000000000600E4
:10046000020005000700000000006400000000001A
:1004700000000000050005006400200000000000EE
:100480000000000000000040000000030000000029
:1004900032F8980000FF650000830F0000FF9BFC0E
:1004A000000000000000000000000000000000004C
:1004B000000000000000000000000000000000003C
:1004C00000000000000000000000001000400000DC
:1004D00000000000060000B26A000200000001FBFC
:1004E000830068000000D9FC007CF1FF830000005D
:1004F0000000650000006403E800640028000000BC
:10050000250000000016A0000000001000000010F0
:1005100000002F0000000001F4000010000028007F
:1005200000FFFF4581FFFFFA72000000000000009D
:1005300000004400050005BAC6004778A20000008C
:10054000010000000000000600000000140000256B
:100550004D002F706D000005AE000C02D0000000B1
:1005600000000000000000000000000000001B0070
:100570000000000000000000000000000000640017
:100580000000080000000000000000000000000063
:10059000000000000000000000000000000000005B
:1005A000000000000000000000000000000000004B
:1005B000000000000000000000000000000000003B
:1005C000000000000000000000000000000000002B
:1005D00000000000000000000000000000001B0000
:1005E000000000000000000000000E000E00000AE5
:1005F000C70004000000000032FFFFFF9C00000B5A
:100600002B000000020000000100000064FFE50074
:1006100000000000000000000000000000000000DA
:100620000100000000000100000000000000018047
:10063000000001800000018000002426D30000009B
:100640000000000000000600100096003C000000C2
:10065000000000000000000000000000000C0A4E36
:1006600068CDCF770950166759C619CE82000000B1
:10067000000000000000000000000000000000007A
:10068000000000000017D7840003000000000000F5
:100690000000000000C7938F9D1E1B1C1900000066
:1006A000000000000000000000000000000000004A
:1006B0000000000000020318850000400000000058
:1006C00003000000030000000000000000400000E4
:1006D000000000000000000000000000000000001A
:1006E000000000000000000000000000000000000A
:1006F00000000000000000000000000000000000FA
:1007000000677DDF7E72902E554CF6E68800000073
:1007100000000000000000000000000000D8DCB471
:10072000B8B0D8B9ABF3F8FAB3B7BB8E9EAEF1321E
:10073000F51BF1B4B8B08097F1A9DFDFDFAADFDFE6
:10074000DFF2AAC5CDC7A90CC92C97F1A989264605
:1007500066B28999A92D557DB0B08AA8963656768D
:10076000F1BAA3B4B280C0B8A89711B28398BAA363
:10077000F0240844106418B2B9B49883F1A3295541
:100780007DBAB5B1A38393F0002850F5B2B6AA8321
:100790009328547CF1B9A3829361BAA2DADEDFDB3D
:1007A000819AB9AEF5606870F1DABAA2DFD9BAA25F
:1007B000FAB9A38292DB31BAA2D9BAA2F8DF85A432
:1007C000D0C1BBAD83C2C5C7B8A2DFDFDFBAA0DF2F
:1007D000DFDFD8D8F1B8AAB38DB4980D355DB2B6C5
:1007E000BAAF8C96198F9FA70E161EB49AB8AA8717
:1007F0002C547CBAA4B08AB691325676B28494A4B2
:10080000C808CDD8B8B4B0F19982A82D557D98A864
:100810000E161EA22C547C92A4F02C5078F184A8C1
:1008200098C4CDFCD80DDBA8FC2DF3D9BAA6F8DA14
:10083000BAA6DED8BAB2B68696A6D0F3C841DAA672
:10084000C8F8D8B0B4B882A892F52C548898F1357D
:10085000D9F418D8F1A2D0F8F9A884D9C7DFF8F8EC
:1008600083C5DADF69DF83C1D8F40114F1A8824EB1
:10087000A884F311D182F5D992289788F109F41C44
:100880001CD884A8F3C0F9D1D99782F129F40DD8E6
:10089000F3F9F9D1D982F4C203D8DEDF1AD8F1A274
:1008A000FAF9A88498D9C7DFF8F8F883C7DADF69BE
:1008B000DFF883C3D8F40114F198A8822EA884F33A
:1008C00011D182F5D992509788F109F41CD884A8E7
:1008D000F3C0F8F9D1D99782F149F40DD8F3F9F9B9
:1008E000D1D982F4C403D8DEDFD8F1AD8898CCA882
:1008F00009F9D98292A8F57CF1883ACF944A6E988A
:10090000DB6931DAADF2DEF9D88795A8F221D1DAC8
:10091000A5F9F417D9F1AE8ED0C0C3AE82C684C398
:10092000A88595C8A588F2C0F1F4010EF18E9EA8A5
:10093000C63E56F554F18872F40115F19845856E5E
:10094000F58E9E0488F142985A8E9E068869F401BD
:100950001CF1981E1108D0F504F11E97020298367A
:1009600025DBF9D985A5F3C1DA85A5F3DFD885950F
:10097000A8F309DAA5FAD88292A8F578F1881A8442
:100980009F26889821DAF41DF3D8879F39D1AFD9F3
:10099000DFDFFBF9F40CF3D8FAD0F8DAF9F9D0DF9D
:1009A000D9F9D8F40BD8F3879F39D1AFD9DFDFF469
:1009B0001DF3D8FAFCA869F9F9AFD0DADEFAD9F854
:1009C0008F9FA8F1CCF398DB45D9AFDFD0F8D8F1F1
:1009D0008F9FA8CAF38809DAAF8FCBF8D8F2AD970A
:1009E0008D0CD9A5DFF9BAA6F3FAF412F2D8950D59
:1009F000D1D9BAA6F3FADAA5F2C1BAA6F3DFD8F1D3
:100A0000BAB2B68696A6D0CAF349DAA6CBF8D8B061
:100A1000B4B8D8AD84F2C0DFF18FCBC3A8B2B6862C
:100A200096C8C1CBC3F3B0B48898A821DB718D9D63
:100A300071859521D9ADF2FAD88597A828D9F408FF
:100A4000D8F28D29DAF405D9F285A4C2F2D8A88D9E
:100A50009401D1D9F411F2D88721D8F40AD8F284BC
:100A600098A8C801D1D9F411D8F3A4C8BBAFD0F26B
:100A7000DEF8F8F8F8F8F8F8F8D8F1B8F6B5B9B043
:100A80008A95A3DE3CA3D9F8D85CA3D9F8D87CA377
:100A9000D9F8D8F8F9D1A5D9DFDAFAD8B18530F785
:100AA000D9DED8F830ADDADED8F2B48C99A32D5562
:100AB0007DA083DFDFDFB591A0F629D9FBD8A0FCAC
:100AC00029D9FAD8A0D051D9F8D8FC51D9F9D87978
:100AD000D9FBD8A0D0FC79D9FAD8A1F9F9F9F9F95C
:100AE000A0DADFDFDFD8A1F8F8F8F8F8ACDEF8AD6F
:100AF000DE8393AC2C547CF1A8DFDFDFF69D2CDA8B
:100B0000A0DFD9FADB2DF8D8A850DAA0D0DED9D0F2
:100B1000F8F8F8DB55F8D8A878DAA0D0DFD9D0FA01
:100B2000F8F8F8F8DB7DF8D89CA88CF530DB38D9DC
:100B3000D0DEDFA0D0DEDFD8A848DB58D9DFD0DE9A
:100B4000A0DFD0DED8A868DB70D9DFDFA0DFDFD878
:100B5000F1A888902C547C98A8D05C38D1DAF2AEF9
:100B60008CDFF9D8B087A8C1C1B188A8C6F9F9DA75
:100B700036D8A8F9DA36D8A8F9DA36D8A8F9DA36A4
:100B8000D8A8F9DA36D8F78D9DADF818DAF2AEDFCD
:100B9000D8F7ADFA30D9A4DEF9D8F2AEDEFAF9838F
:100BA000A7D9C3C5C7F1889BA77AADF7DEDFA4F844
:100BB000849408A797F300AEF29819A488C6A3946A
:100BC00088F632DFF28393DB09D9F2AADFD8D8AEF8
:100BD000F8F9D1DAF3A4DEA7F1889B7AD8F38494EC
:100BE000AE19F9DAAAF1DFD8A881C0C3C5C7A392AC
:100BF00083F628ADDED9F8D8A350ADD9F8D8A378BC
:100C0000ADD9F8D8F8F9D1A1DADEC3C5C7D8A1812A
:100C100094F818F2B089ACC3C5C7F1D8B8B4B0978E
:100C200086A8319B069907AB9728889BF00C201467
:100C300040B0B4B8F0A88A9A285078B79BA8295138
:100C400079247059446938644831F1BBAB88002C71
:100C5000547CF0B38BB8A804285078F1B088B497CE
:100C600026A85998BBABB38B02264666B0B8F08A6B
:100C70009CA82951798B2951798A2470598B205845
:100C8000718A4469388B3940688A6448318B3049AD
:100C90006088F1AC002C547CF08CA804285078F1CA
:100CA000889726A85998AC8C02264666F0899CA89D
:100CB000295179247059446938644831A988092038
:100CC0005970AB11384069A8193148608CA83C4173
:100CD0005C207C00F187981986A86E767EA9998899
:100CE0002D557DD8B1B5B9A3DFDFDFAED0DFAAD0F7
:100CF000DEF2ABF8F9D9B087C4AAF1DFDFBBAFDF12
:100D0000DFB9D8B1F1A3978E60DFB084F2C8F8F9EB
:100D1000D9DED89385F14AB183A308B5839A081028
:100D2000B79F10D8F1B0BAAEB08AC2B2B68E9EF1FB
:100D3000FBD9F41DD8F9D90CF1D8F8F8AD61D9AECA
:100D4000FBD8F40CF1D8F8F8AD19D9AEFBDFD8F424
:100D500016F1D8F8AD8D61D9F4F4ACF59C9C8DDF1B
:100D60002BBAB6AEFAF8F40BD8F1AED0F8AD51DA32
:100D7000AEFAF8F1D8B9B1B6A3839C08B9B1839A99
:100D8000B5AAC0FD3083B79F10B58B93F20202D194
:100D9000ABDADED8F1B080BAABC0C3B284C1C3D87D
:100DA000B1B9F38BA391B609B4D9ABDEB0879CB9C6
:100DB000A3DDF1B38B8B8B8B8BB087A3A3A3A3B2E3
:100DC0008BB69BF2A3A3A3A3A3A3A3A3A3A3F1B056
:100DD00087B59AA3F39BA3A3DCBAACDFB9A3A3A303
:100DE000A3A3A3A3A3A3A3A3A3A3A3A3A3D8D8D834
:100DF000BBB3B7F1AAF9DAFFD9809AAA28B48098D0
:100E0000A720B79787A86688F07951F1902C870CB6
:100E1000A781976293F0717160859401295179904F
:100E2000A5F1284C6C870C95188578A38390284CE5
:100E30006C886CD8F3A28200F210A8921980A2F2FA
:100E4000D926D8F188A84DD948D896A83980D93C58
:100E5000D89580A839A68698D92CDA87A72CD8A847
:100E6000899519A980D938D8A88939A980DA3CD8B8
:100E7000A82EA83990D90CD8A8953198D90CD8A803
:100E800009D9FFD801DAFFD89539A9DA26FFD89019
:100E9000A80D8999A810809821DA2ED88999A831AF
:100EA00080DA2ED8A886963180DA2ED8A8873180AD
:100EB000DA2ED8A88292F34180F1D92ED8A882F3F5
:100EC0001980F1D92ED882ACF3C0A28022F1A62ECF
:100ED000A72EA92298A829DAACDEFFD8A2F22AF11F
:100EE000A92E8292A8F23180A696F1D900AC8C9CF2
:100EF0000C30ACDED0DEFFD88C9CACD010ACDE80E9
:100F000092A2F24C82A8F1CAF235F19688A6D900D5
:100F1000D8F1FF0E0C0D0F08FFFF09050406070AA4
:100F20000B0F0C0D0E08FFFF09050406070A0B0E38
:100F30000C0D0F0809FFFF050406070A0B0011241A
:100F40001FBECFEFD1E2DEBFCDBF00E00CBF13E08C
:100F5000A0E0B2E0E8E4F4E600E00BBF02C00790D6
:100F60000D92A032B107D9F729E0A0E2B3E001C0A9
:100F70001D92A839B207E1F70E9434290C9422325D
:100F80003FC89B01FC018FB7F89471836083738322
:100F9000628375836483240F351F378326835187CB
:100FA0004087138612868FBF0895FC01A081B1810E
:100FB0006C93808191810196918380832681378112
:100FC0008217930721F484819581918380832FB7C1
:100FD000F894828593850196938782872FBF089521
:100FE000FC01A281B3818D91B383A28326813781D5
:100FF000A217B30721F424813581338322839FB75D
:10100000F8942285338521503109338722879FBF89
:1010100008950F931F93CF93DF93EC018C01060F7C
:10102000111DC017D10741F488EB8093C100DF91F7
:10103000CF911F910F91089569918CE899E0B5DFE8
:10104000F0CFCF93DF93FC01DA0186E0EB018883D8
:1010500085E0808315962C911597822F922F990FFA
:10106000990B97FD079653E0959587955A95E1F76B
:10107000828317962C911797822F922F990F990B95
:1010800091958195910997FD079643E095958795F0
:101090004A95E1F783831B962C911B97822F922F01
:1010A000990F990B97FD079633E0959587953A959B
:1010B000E1F7848319962C911997822F922F990F1B
:1010C000990B97FD079623E0959587952A95E1F76B
:1010D000858311969C9111979295917081818E7F55
:1010E000982B918311968C911197829582709D7F98
:1010F000892B818311969C919695969596959870DB
:10110000877F892B8183DF91CF9108950F931F9360
:10111000CF93DF93FC01DA018CE1EB01888384E05B
:101120008083CCE2D2E040E050E061E070E0242F28
:1011300009910F3F49F1CB0102C0880F991F0A9511
:10114000E2F78C018D919C9111970823192381E07E
:1011500090E0012B11F480E090E0022E02C0880F95
:10116000991F0A94E2F78B0102C0000F111F2A9504
:10117000E2F79801209530950181128120233123D7
:10118000822B932B928381834F5F5F4F4E305105AB
:1011900071F6CC91CF7088E0CB3020F4D0E0C9500C
:1011A000DD4F8881838380918B098F3119F08532DF
:1011B00009F07CC019969C91199795959054968347
:1011C0001A964D915C911B97440F452F441F550B68
:1011D00028ED31E0241B350B358B248B9DE797835D
:1011E000833219F08E3109F086C021E030E012968A
:1011F0009C911297933310F420E030E044E0220FEA
:10120000331F4A95E1F7418152814F7E242B352BC4
:101210003283218341E050E013969C9113979333DE
:1012200010F440E050E095E0440F551F9A95E1F727
:101230002F7D422B532B5283418312969C91129700
:10124000948713969C911397958715969C91159763
:101250009058948317962C911797205825831996A8
:101260009C911997905896831B969C911B97905828
:101270009783843209F066C015968C911597805833
:10128000868317968C9117978058878314968D9133
:101290009C911597958B848B16968D919C91978B2D
:1012A000868BDF91CF911F910F910895813219F0B4
:1012B000863209F095CF19969C911997905896838C
:1012C00021E030E01A964D915C911B974F3F5F47AC
:1012D00011F020E030E055E0220F331F5A95E1F77E
:1012E000418152814F7D242B352B328321831296ED
:1012F0009C91129774CF90E895832091A2032223AA
:10130000E1F09483843209F4B7CF803251F68091B2
:10131000F603818B8091F3039091F403982789273A
:101320009827938B828B8091F503848B8091EF03B8
:10133000858B8091F003868BB4CF1B969C911B9775
:101340009058DFCF8E3109F72095258390959783AC
:10135000A8CFDC011596EC91F0E0E258FD4F8081BA
:101360008F3F81F021E030E002C0220F331F8A95C9
:10137000E2F780914403909145032823392381E0CB
:10138000232B09F480E00895CF93DF9300D000D0A1
:101390000F920F92CDB7DEB7DC011B96EC911B9735
:1013A000EF3F91F41196ED91FC91129780819C9101
:1013B000892391E0811101C090E081E013962C9186
:1013C0009217B9F080E015C088E0E89FF001112481
:1013D000E35EF84F88E0DE01119601900D928A9548
:1013E000E1F74C815D8181E02E813F812417350733
:1013F00048F728960FB6F894DEBF0FBECDBFDF9139
:10140000CF910895FC01809101028830E9F0893084
:10141000F1F08EE992E0E581E80FF92FF11D80816E
:101420008F3F81F021E030E002C0220F331F8A9508
:10143000E2F780914603909147032823392381E006
:10144000232B09F480E008958EEA92E0E4CF8EE841
:1014500092E0E1CFCF93DF93EC018BED97E094DF47
:10146000882339F08FEF9FE79B878A87DF91CF91A1
:10147000089580E090E0F8CFCF93DF9300D00F92F3
:10148000CDB7DEB72FB7F89480919E0390919F035C
:10149000A091A003B091A1032FBF9C01AD0187E0F3
:1014A000220F331F441F551F8A95D1F7CA01B90176
:1014B0002DE730E040E050E00E94543129833A8328
:1014C0004B835C83CA01B9010F900F900F900F906E
:1014D000DF91CF910895CF93DF9300D00F92CDB7D6
:1014E000DEB73FB7F89480919E0390919F03A0913F
:1014F000A003B091A10326B5A89B05C02F3F19F00A
:101500000196A11DB11D3FBFBA2FA92F982F882783
:10151000820F911DA11DB11D9C01AD0162E0220F42
:10152000331F441F551F6A95D1F729833A834B8394
:101530005C83CA01B9010F900F900F900F90DF915B
:10154000CF910895CF92DF92EF92FF920F931F9366
:10155000CF93DF93EC016B01BA01A901F801C70138
:1015600020812630E0F4209771F000271127041B1A
:10157000150B601771073CF431962E0D3F2D311D70
:10158000D9011396CC93C114D10449F046175707DB
:1015900034F42081820F911DDC011396CC92DF91EF
:1015A000CF911F910F91FF90EF90DF90CF90089512
:1015B0008EBD00000DB407FEFDCF8EB50895EF92ED
:1015C000FF920F93DC01CB01642F70E0FB01E85820
:1015D000FE4F34916E5C7E4FFB016491E32FF0E08F
:1015E000EE0FFF1FEE2049F1E85EFE4FE590F4900C
:1015F00015962C93159714964C9314976C931196FB
:10160000EC9211971296FC92129713960C931397E3
:10161000FC01E05FFE4F80811A968C931A978FEF42
:101620001B968C931B9716961D921D921D921C92D1
:1016300019970F91FF90EF900895E250FF4FD6CF8A
:1016400090E0FC01EE5CFE4F2491FC01E858FE4F57
:10165000E491EE2389F0F0E0EE0FFF1FE85EFE4F0D
:10166000A591B4919FB7F8948C91611106C0E22FB7
:10167000E095E823EC939FBF0895822B8C93FBCFDA
:1016800090E0FC01EE5CFE4F2491FC01E858FE4F17
:10169000E491EE2361F0F0E0EE0FFF1FE250FF4F08
:1016A000A591B491EC91E22381E0E11101C080E0C9
:1016B000089520917B00982F987F277F922B9093FD
:1016C0007B008770806480937C0080917A008064C6
:1016D00080937A0080917A0086FDFCCF809178001B
:1016E00090917900089580917A0086FDFCCF81E089
:1016F000809304020895CF93DF9390E0FC01EE5CA9
:10170000FE4F249188589E4FFC0184918823D1F08C
:1017100090E0880F991FFC01EC51FF4FA591B49107
:10172000FC01E85EFE4FC591D491613071F49FB722
:10173000F8948C91209582238C9388812823288388
:101740009FBF7894DF91CF91089562509FB7623028
:1017500050F4F8943C91822F809583238C93888158
:10176000822B8883EDCFF8948C91822B8C93E8CFD9
:10177000CF92DF92EF92FF920F93CF93DF936B01A3
:101780007C01C42FD22F60E083E3B5DF62E082E307
:10179000B2DF60E084E3AFDF61E085E351DF60E06A
:1017A00085E3A9DFCC0FCC0FCC0FD111C4600111A0
:1017B000C062C11482E1D8068AE7E806F10448F560
:1017C000C11489E0D8068DE3E806F10420F580E82D
:1017D000C81684E8D8068EE1E806F104F0F480E447
:1017E000C81682E4D8068FE0E806F104C0F083E072
:1017F00091E08927982F96959C2B90659CBD8170D0
:101800008DBDDF91CF910F91FF90EF90DF90CF9042
:10181000089580E0EDCF81E0EBCF82E0E9CF84E076
:10182000E7CFCF92DF92EF92FF92E0E0F0E067E641
:1018300075E483E291E041E24093570024916227EE
:1018400028E030E06B017C0151E0C522DD24EE246C
:10185000FF249695879577956795CD28CE28CF2834
:1018600041F050E2652753E8752758EB85275DEE78
:101870009527215031092115310521F73196E032A4
:10188000F105D1F6FF90EF90DF90CF900895682F8B
:1018900085E3D6CE982F8D30D9F08230C8F0809174
:1018A000C707882321F02CEE290F223080F0809189
:1018B000C607882321F02DEC290F233040F08091BA
:1018C000C507811103C081E0923309F080E00895DB
:1018D00081E008950F931F93CF93DF9380913D0490
:1018E000811109C010925E0410923D04DF91CF91E6
:1018F0001F910F91089507EF13E0C0E08C2FC0DE19
:10190000F80181938F01CF5FC634C1F78091C4077E
:101910008F3F11F060E0EFDECBEFD7E000E010E0AA
:101920008091ED079091EE0708171907DCF68C817E
:101930009B852B81211103C062E09F3F09F061E08C
:10194000DADE0F5F1F4F2C96EBCF8F929F92AF92F4
:10195000BF92CF92DF92EF92FF920F931F93CF939C
:10196000DF9300D000D0CDB7DEB75C016D837E83FE
:101970008C018D809E80840E911C8D819E818815A6
:10198000990599F40F900F900F900F900F900F9072
:10199000DF91CF911F910F91FF90EF90DF90CF904B
:1019A000BF90AF909F908F9008958AE5A114B104E5
:1019B00011F0F8018081FCDDED81FE818193FE83D1
:1019C000ED831092870387DD6B017C018091870393
:1019D00081110FC080DD69837A838B839C83DC0156
:1019E000CB018C199D09AE09BF09C397A105B105AB
:1019F00068F30F5F1F4FC1CF0F931F93CF93DF93F8
:101A0000AC01FB0180818052990B880F880FDA01AD
:101A100014961C92149715968C9315978181805279
:101A2000990B880F880F16961C92169717968C9311
:101A30004581848195818095909550918B095A328A
:101A400078F0538151FF0CC05095507E62816695AD
:101A50006E73623109F448C06E3011F45093F00394
:101A6000542F56955695569561E056275170D52FAF
:101A7000D295DD0FD07EB0E0CB2F967D8C2B9D2BA9
:101A8000542F52955695577056275170152F110F98
:101A9000110F110F00E0802B912B9B7FE42F042E60
:101AA000000CFF0BE095F0955F2F551F5527551F34
:101AB000E0E0F0E0F52FFF0FFF0F8E2B9F2B9F77BD
:101AC0004695469546274170342F379533273795ED
:101AD00020E0822B932B9093450380934403DF9166
:101AE000CF911F910F9108955093F303B9CFFC014B
:101AF000DB018C91880F880F8058148285831196A2
:101B00008C911197880F880F8058168287831396BF
:101B10002C9113972F712E50330B37FF02C020E00A
:101B200030E031872087C901880F991F820F931FEA
:101B30008032910514F08FE190E04097880F880F74
:101B4000880F1086818714968D919C9115978095AA
:101B5000909590934503809344032091FE062223A1
:101B600071F01296EC91EF71EE50E695F0E0E259CB
:101B7000FD4F2081922B9093450380934403089559
:101B8000FC01DB018C918058990B1482858312969D
:101B90008C9112978058990B1682878311968C919D
:101BA00011978058990B1086818713968C91139703
:101BB0008058990B1286838714968C911497828390
:101BC00015968C911597838316968D919C9180958F
:101BD000909590934503809344030895FC01DB01A5
:101BE0008C918F738052990B9583848311968C917D
:101BF00011978F738052990B978386838C9190E015
:101C000023E0959587952A95E1F788719927119694
:101C10002C91119730E045E0359527954A95E1F7ED
:101C200026703327822B932B12962C911297221F0A
:101C30002227221F822B4097880F880F10868187CA
:101C400012968C9112978F718051990B880F880F83
:101C50001286838712969C91129796959695987105
:101C600013968C911397829586958770892B828322
:101C700013968C9113978F71838314968D919C91F9
:101C80008095909590934503809344030895FC01BB
:101C9000DB0112963C91129711968C9111978295C7
:101CA000869586709C919695969596959871892BB8
:101CB000932F991F9927991F892B13966C9113972E
:101CC00014969C91149790FF33C0262F20952F7166
:101CD000205E432F50E09FE330FF90E2981B892F56
:101CE00030E03583248390E097838683CA019595FD
:101CF0008795959587958871629566956770682B2D
:101D000070E071876087559547954F7050E0538715
:101D1000428714968D919C919827892798278095C2
:101D200090958D7C9376909345038093440308951A
:101D3000962F9F7120E2291BCCCFCF93DF93DC013C
:101D4000EB018A8190E0982F882788279F7068810F
:101D5000862B15969C938E9314978A8120E1829FFF
:101D6000C001112488279F706981862B17969C9348
:101D70008E9316978B8113968C938D8181FB992777
:101D800090F9592F5295550F550F507C40E0982FE0
:101D90009170F92FF295F07FE0E04E2B5F2B869546
:101DA000869591E089278170382F3295330F307EE8
:101DB00020E0422B532B5093450340934403DF9183
:101DC000CF910895FC01DB018D919C911197958332
:101DD000848312968D919C91139797838683149692
:101DE0008C9183830895FB01808190E0809590958C
:101DF00090934503809344030895DC01862F90E07F
:101E00006031F8F420918909222339F0693028F0F3
:101E100089519C4FFC018081089521E030E002C08F
:101E2000220F331F6A95E2F78D919C912823392365
:101E300081E0232B09F480E08295880F880F807C55
:101E400008952091BB083091BC08633170F0FC010B
:101E50007097EE0FFF1FEA0FFB1F81E04081518159
:101E60002417350758F080E009C0A80FB91F1E9746
:101E70004C9150E081E024173507ACF708957F922C
:101E80008F929F92AF92BF92CF92DF92EF92FF928A
:101E90000F931F93CF93DF93EC017B01742E852E5C
:101EA00087E088834BECC42E48E0D42E08E813E08A
:101EB000A12CB12CF60181916F01882369F130E9E1
:101EC000932E813011F020EB922E6A2D872D982DC4
:101ED00094DF8695F80190819817F1F0F60193A5AB
:101EE0004589F80180832B2D30E054E0B59EF00148
:101EF0001124EC0FFD1F592D52955F7051839929C4
:101F000092834383F9013196EE0FFF1FEE0FFF1FFF
:101F1000EC0FFD1F8083B3940F5F1F4FA39486E1E6
:101F2000A812C8CFBB0CBB0CB394F701B082DF91F1
:101F3000CF911F910F91FF90EF90DF90CF90BF90C6
:101F4000AF909F908F907F90089580E0A0DC81EE0D
:101F50002FDB81E09CCC80E09ADC82EE29DB81E003
:101F600096CC80E094DC80E523DB83E721DB81E015
:101F70008ECC0F931F93CF93DF93EC018C01060F50
:101F8000111DC017D10729F4DF91CF911F910F9137
:101F9000089589910DDBF5CFCF93DF93D82FC62F0E
:101FA00080E075DC8D2F806203DB8C2F01DB81E00C
:101FB000DF91CF916CCCEF92FF920F931F93CF9351
:101FC000DF93F82EE92EC62F8091FD06811109C0FE
:101FD000C0E08C2FDF91CF911F910F91FF90EF9078
:101FE00008951092FD0680E052DC8FEFE1DAD82FE1
:101FF00081E04DDC2D2F30E0359527952770332774
:102000002730310529F360E487E0C6DFC11109C03C
:1020100080E03DDC80E6CCDA80E0CADAC82F81E0DF
:1020200036DC80E034DC81E6C3DA0F2D1E2D802FF4
:102030008F198C1718F081E02ADCCBCFF801819141
:102040008F01B6DAF80131978083F1CFCF93DF9318
:1020500000D00F92CDB7DEB79C01DB010E94993111
:1020600069837A838B839C83AB01BC015F7766278E
:10207000772781E090E0A0E0B0E041155044610591
:10208000710519F480E090E0DC012EE0880F991FC3
:10209000AA1FBB1F2A95D1F729813A814B815C8108
:1020A000820F931FA41FB51F3FE0B595A795979585
:1020B00087953A95D1F70F900F900F900F90DF9181
:1020C000CF910895F89488E198E00FB6F894A89518
:1020D000809360000FBE90936000FFCF1F93CF935B
:1020E000DF93182FEB0180E0D2DB812F61DA88814A
:1020F0005FDA888381E0DF91CF911F91C8CBCF93C6
:10210000DF930F92CDB7DEB7BE016F5F7F4FE6DF83
:1021100089810F90DF91CF9108951F93CF93DF9323
:10212000182FD62FC72F80E0B2DB812F806240DAD4
:1021300064E08D2F9C2F1DDF81E0DF91CF911F91F7
:10214000A6CB85ED8093BC008FEF9FE72091BC006C
:1021500024FD03C010921A0703C001970097B1F73E
:102160000895CF93DF93DC01FA0184E1EB018883CA
:102170001C9211968C93119712968CE001900D92FF
:102180008A95E1F7DF91CF910895CF93282FCB0166
:10219000C42F4FEF5FE7C13238F080E047C04150B5
:1021A000510941155105C9F330911A073111F7CF83
:1021B00031E030931A07309319074FEF40936303D0
:1021C000109285034C0F4093840330938603309123
:1021D0008603220F232B20938603209118072223A6
:1021E00091F110921807209186032093BB002FEFE6
:1021F0003FE74091BC0043FD1BC025EC2093BC0091
:102200002FEF3FE740911A074130F9F02091850305
:102210002C1710F4C09185034C2F50E064E673E056
:102220000E94E13181E0CC2309F4B7CFCF9108952A
:10223000215031092115310509F4AFCF40918603B2
:102240004093BB00D6CF25EED9CF215031092115BF
:102250003105C1F6A2CFCF93C82F8FEF9FE7413250
:1022600028F080E040C001970097D9F320911A0729
:102270002111F9CF82E080931A0781E0809319073A
:102280008FEF80936303109285034093840350E0A3
:1022900084E693E00E94E1311092860380918603E8
:1022A000CC0FC82BC093860380911807882331F187
:1022B00010921807809186038093BB008FEF9FE7F1
:1022C0002091BC0023FD11C085EC8093BC008FEFF2
:1022D0009FE720911A07223099F09091630381E0E3
:1022E0009F3F09F0BECFCF9108950197009709F461
:1022F000B8CF209186032093BB00E2CF85EEE5CFD7
:102300000197009731F7ADCFEF92FF920F931F9394
:10231000CF93DF930F92CDB7DEB7182F6983E42EEA
:10232000F22E032F41E0BE016F5F7F4F94DF8823C1
:1023300071F04E2D6F2D702F812F27DF81700F9040
:10234000DF91CF911F910F91FF90EF90089580E062
:1023500090E0F4CF8F929F92AF92BF92CF92DF9294
:10236000EF92FF920F931F93CF93DF930F92CDB70E
:10237000DEB76C014A0189E0DB018C93F6013196EE
:1023800088E0DF011D928A95E9F786E0F6018083F7
:10239000A1E1B9E080E090E0A12C41E050E0BD90E7
:1023A0009C012F5F3F4FB11063C0C901203131053F
:1023B000B1F76A2D6983A0900F09B0901009D4017C
:1023C00014964D915C916091240970E080912309ED
:1023D00076018E010F5F1F4F950190E0B3D8F40195
:1023E000468157816091260970E080912509950109
:1023F00090E0A8D8D40118964D915C91609128097D
:1024000070E080912709950190E09CD8F401428505
:10241000538560912A0970E080912909950190E027
:1024200091D8A0900D09B0900E09D40112964C914C
:1024300050E06091210970E0950180E090E082D841
:10244000F401438150E06091220970E0950180E041
:1024500090E078D80F90DF91CF911F910F91FF906E
:10246000EF90DF90CF90BF90AF909F908F900895A6
:10247000BA0102C0660F771F8A95E2F7CB01F4011B
:102480006081718186239723892B09F48ECF61E0C7
:102490006A0DF601EA0DF11DB382C9012031310543
:1024A00009F488CF663009F485CFA62E78CF61E095
:1024B00084E3C6D861E083E3C3D8ACE0B7E011960B
:1024C000ED91FC91129780819C91892B808387EC00
:1024D00090E00197F1F700C000000895FF920F937C
:1024E0001F93CF93DF930F92CDB7DEB78983F62E7C
:1024F0008A0141E0BE016F5F7F4F82E5ACDE882339
:1025000051F08FEC92E00197F1F700C000004F2DE1
:10251000B80182E53ADE0F90DF91CF911F910F91C4
:10252000FF9008950F931F93CF93DF9300D000D0B7
:10253000CDB7DEB78E010F5F1F4F86E0F801119215
:102540008A95E9F7A80166E08AEFC8DF8FE193E09A
:102550000197F1F700C00000F801AE01495F5F4F3D
:102560008FEF90E02191922B8223E417F507D1F7AA
:10257000992379F08F3F69F099818E810F900F90A8
:102580000F900F900F900F90DF91CF911F910F91AF
:1025900008958FEF9FEFF2CFEF92FF920F931F936B
:1025A000CF93DF930F92CDB7DEB77C01062F81E08A
:1025B0008983E0910D07F0910E07908180910C07BF
:1025C00080958923808387EC90E00197F1F700C024
:1025D000000041E061E273E0CE010196B6D942E02D
:1025E00062E273E0C701B1D9109122031F3F61F489
:1025F00000E010E05CDFC8010F90DF91CF911F91E8
:102600000F91FF90EF900895809123038A3511F088
:102610008111EECF1F701F5F110F101B4EEF400F87
:1026200064E273E0C701029690D9112369F0602F2C
:1026300070E0CB01810F911D8197D4F66F5D7C4FC7
:10264000412F80E090E081D901E213E0D3CFCF9217
:10265000DF92EF92FF920F931F93CF93DF9300D0FF
:1026600000D0CDB7DEB78D839E83062F0E943C0A33
:102670006B017C0110E0602F8D819E818DDFFC015C
:10268000892BA9F01F5F8D819E818F5E924031F46E
:102690008181807F803F59F481E021C08D819E81BE
:1026A0008A5D924059F58181807F803FA9F78FE351
:1026B0009CE90197F1F700C000000E943C0A698381
:1026C0007A838B839C83DC01CB018C199D09AE0935
:1026D000BF098B3F9105A105B10568F280E00F901D
:1026E0000F900F900F900F900F90DF91CF911F914F
:1026F0000F91FF90EF90DF90CF9008951330B8F2D4
:10270000CBCFCF93DF93EC01809101028830A1F40D
:1027100068E08AED92E040DFFC0180E0309749F00C
:102720008181807F803F61F468E08AED92E08FDFF5
:1027300081E0DF91CF91089564E086ED92E0EBCFE8
:1027400023813481209530953093470320934603AD
:1027500080910102863009F45DC068F4843091F004
:10276000853089F1823071F0833011F781858A8359
:1027700082858B8307C0883009F463C08930D1F02B
:102780008730B1F685818058990B18868987268114
:102790008FE790E0AC01421B51091A864B872781D5
:1027A0002058330B1C822D832085821B91091E82A9
:1027B0008F83BECF85818058990B1C828D832681A3
:1027C0008FE790E0F2CF85818058990B1C828D8332
:1027D000868187FF05C0207F3093470320934603FF
:1027E000878187FF09C08091460390914703817FCD
:1027F00090934703809346038085803F08F498CFE9
:102800008091460390914703857F9093470380937F
:1028100046038ECF2581422F4058550B942F882791
:10282000368137FD09C027FF02C08FEF9FEF805828
:102830009F4F9D838C837CCF2138C8F781E090E047
:10284000F6CF1D821C821F821E8240858FE790E09A
:10285000841B9109188689878FEF9FE730FD02C09E
:1028600080E090E09B878A8763CF0F931F93CF937D
:10287000DF9300D000D0CDB7DEB78E839D838091EB
:1028800001028830E9F00E946B0A60934A0370935A
:102890004B0380934C0390934D038091480315E0C4
:1028A0008823D1F18E819D812CDF8111B9C0809167
:1028B00049038F5F80934903853008F03EC021C0F3
:1028C0000E946B0A69837A838B839C8380914A037D
:1028D00090914B03A0914C03B0914D0329813A8113
:1028E0004B815C81281B390B4A0B5B0BDA01C90158
:1028F00088389341A105B10530F6809149038111D3
:10290000C2CF0F900F900F900F900F900F90DF910C
:10291000CF911F910F9108958E819D81F2DE8FE9F5
:102920009FE00197F1F700C0000011501111F4CFA2
:102930008E819D81E6DE811103C010924803E1CFB4
:1029400068E08FEE92E083DE882361F065E08AEE36
:1029500092E07DDE68E082EE92E079DE68E08AED6A
:1029600092E075DE64E086ED92E016DE8C01DC011B
:1029700011968C91893709F583E08093010268E014
:102980008FEE92E064DE882391F080910102823024
:1029900091F5F801838194818095909587FF03C01C
:1029A00088E08093010268E08AED92E050DE81E0E9
:1029B000809348031092490375CF982F907F9037EA
:1029C00011F482E0DACF903511F484E0D6CF83326F
:1029D00011F485E0D2CF903E11F486E0CECF83365D
:1029E00011F487E0CACF823111F489E0C6CF903468
:1029F00031F681E0C2CF9CEF980F943028F468E064
:102A00008EEC92E024DECFCF893021F468E086ECB2
:102A100092E0F8CF833039F668E08EEB92E0F2CFA7
:102A2000109249036ECFCF93DF93CDB7DEB7C95174
:102A3000D1400FB6F894DEBF0FBECDBF49E151E0E3
:102A400064ED71E0CE0101960E94C43149E151E08C
:102A500061E070E0CE0101960E940132C75EDE4F58
:102A60000FB6F894DEBF0FBECDBFDF91CF910895B2
:102A7000EF92FF920F931F93CF93DF930F920F92DA
:102A8000CDB7DEB7082F142F732F8DB79EB79A835B
:102A9000898350E0CA010196EDB7FEB7E81BF90B38
:102AA0000FB6F894FEBF0FBEEDBF8DB79EB701966F
:102AB0007C016183622F01960E94E13141E0410F68
:102AC000B701802FC8DBE981FA810FB6F894FEBF09
:102AD0000FBEEDBF0F900F90DF91CF911F910F911F
:102AE000FF90EF900895EF92FF920F931F93CF9373
:102AF000DF930F92CDB7DEB780910D02811109C02F
:102B00008FEF0F90DF91CF911F910F91FF90EF907A
:102B100008951982A0910702B0910802E09109027C
:102B2000F0910A028E010F5F1F4F980141E051960C
:102B30006C9180819DDF7801882311F3A0910702B9
:102B4000B0910802E0910902F0910A02980141E077
:102B500015966C9180818CDF882391F2A0910702F9
:102B6000B0910802E0910902F0910A02980141E057
:102B700014966C9180817CDF882309F4C1CFE091A9
:102B80000702F09108026481E0910902F0910A02C3
:102B900080912402882309F455C08CE08983980130
:102BA00041E0808165DF882309F4AACF2FEF80E719
:102BB00092E0215080409040E1F700C0000080EC9E
:102BC000898380910D0280FF02C080EE8983A091ED
:102BD0000702B0910802E0910902F0910A02970100
:102BE00041E014966C91808143DF882309F488CFFB
:102BF00081E090911302911101C080E0880F8983D8
:102C0000A0910702B0910802E0910902F0910A0236
:102C1000970141E051966C9180812ADF882309F465
:102C20006FCF1982A0910702B0910802E0910902CA
:102C3000F0910A02970141E015966C91808118DFAE
:102C400081505FCF84E08983980141E0808110DF6B
:102C5000882309F455CF80911402811104C080911A
:102C60000D0280FD3FC080E48983A0910702B091EE
:102C70000802E0910902F0910A02970141E01496DE
:102C80006C918081F5DE882309F43ACF2FEF80E73D
:102C900092E0215080409040E1F700C0000081E0C8
:102CA00090911302911101C080E08983A0910702E5
:102CB000B0910802E0910902F0910A02970141E007
:102CC00051966C918081D4DE882309F419CFA091AC
:102CD0000702B0910802E0910902F0910A0222E194
:102CE00032E0A9CF80E6C0CFCF93DF930F92CDB76C
:102CF000DEB79C0180910D02811105C08FEF0F900E
:102D0000DF91CF91089581E02C3B310588F482E07A
:102D10002236310568F483E02A32310548F484E034
:102D20002431310528F486E02A30310508F085E0A9
:102D3000898390910E029817A9F0A0910702B09193
:102D40000802E0910902F0910A029E012F5F3F4FB5
:102D500041E012966C9180818BDE882379F2898123
:102D600080930E0280E0CBCFEF92FF920F931F93E0
:102D7000CF93DF930F920F92CDB7DEB7FC018B019B
:102D80007A0180910D0281110AC08FEF0F900F9090
:102D9000DF91CF911F910F91FF90EF9008959E2F9B
:102DA0008F2F9A838983A0910902B0910A029B0117
:102DB0002E0F311D18968D919C91199782179307AC
:102DC00020F3E0910702F09108029E012F5F3F4F30
:102DD00042E0638D8C914CDE8823B9F2A09107020A
:102DE000B0910802E0910902F0910A029701402F88
:102DF00058966C9180813CDE8150C8CFCF93DF9391
:102E00000F92CDB7DEB780910D02811105C08FEF13
:102E10000F90DF91CF91089588E1898380910B0213
:102E20008330C1F0A0910702B0910802E09109023D
:102E3000F0910A029E012F5F3F4F41E016966C9180
:102E4000808116DE882319F389818695869586957B
:102E500080930B0280E0DCCFCF93DF930F92CDB74E
:102E6000DEB780910D02811105C08FEF0F90DF91C9
:102E7000CF910895198280910C028823C1F0A0910E
:102E80000702B0910802E0910902F0910A029E0146
:102E90002F5F3F4F41E017966C918081E9DD8823D9
:102EA00021F3898186958695869580930C0280E032
:102EB000DDCF0F931F93CF93DF930F92CDB7DEB784
:102EC00080911402882309F45AC0A0910702B0919E
:102ED0000802E0910902F0910A028E010F5F1F4F74
:102EE000980141E014966C9180810EDA811107C03F
:102EF0008FEF0F90DF91CF911F910F9108958981EE
:102F000090910D0290FF3DC080628983A0910702DD
:102F1000B0910802E0910902F0910A02980141E0A3
:102F200014966C918081A4DD882311F38FED9EE2CD
:102F30000197F1F700C0000081E090912202911109
:102F400001C080E087958827879589839091230227
:102F5000992311F080638983A0910702B091080240
:102F6000E0910902F0910A02980141E057966C91B4
:102F700080817EDD882309F4BBCF1092140280E0AB
:102F8000B8CF8F7DC2CFCF93DF930F92CDB7DEB78F
:102F900069839E012F5F3F4F41E0682F82E568DD26
:102FA0000F90DF91CF910895CF92DF92EF92FF9231
:102FB0000F931F93CF93DF93CDB7DEB72E970FB646
:102FC000F894DEBF0FBECDBF7C018E010F5F1F4F97
:102FD00088E0F80111928A95E9F7809102029091B8
:102FE000030268018F3F9807A1F18B30984189F166
:102FF000A801609100028091430370DA882349F1AF
:10300000F80120910002200F312F311D8FEF90E049
:10301000E217F307D1F49923E1F08F3FD1F0E0916B
:103020004103F0914203309709F0CDC02E960FB6C0
:10303000F894DEBF0FBECDBFDF91CF911F910F91EE
:10304000FF90EF90DF90CF9008954191942B8423CF
:10305000DFCF68DA9C0190930302809302022F3F36
:103060003F4FB9F465E580EF8EDF95E39A95F1F770
:10307000000060E08BEF87DFE5E3EA95F1F7000001
:1030800051DA9093030280930202F5E3FA95F1F787
:103090000000809102029091030283319F4F71F4EE
:1030A00061E08BEF70DF85E38A95F1F7000065E55D
:1030B00080EF69DF95E39A95F1F7000010924303E2
:1030C00080910202909103028330910539F487E7E1
:1030D0009DE09093420380934103A8CF9C013E7FE3
:1030E00021303105C1F563E08EEF4DDFEFE1F3E014
:1030F0003197F1F700C0000063E08EEF44DF8FE10D
:1031000093E00197F1F700C0000063E08EEF3BDF32
:10311000EFE1F3E03197F1F700C00000AE01475F47
:103120005F4F66E08AEFDAD98FE193E00197F1F71C
:1031300000C000008D85833051F02EEE3DE086E02A
:103140003093420320934103809300026FCF20EC21
:103150003DE088E0F5CF009719F489E897E2B9CF10
:103160008330E1E09E0719F48CEF9CE0B2CF82310E
:10317000FFEF9F0719F48DE99EE0ABCF83312FEF6E
:10318000920719F482EE9EE0A4CF8330980719F4D9
:1031900087E49EE09ECF419759F483EF9EE09093A1
:1031A00042038093410385E08093430381E0CCCFC9
:1031B0008BE098E190930302809302021092420305
:1031C0001092410333CFB601C70119952FCF1F933A
:1031D000CF93DF930F92CDB7DEB7182F80912302E4
:1031E000811721F180E0111180E38983909114020D
:1031F000992311F08260898380912202882319F03B
:10320000898180688983A0910702B0910802E091CA
:103210000902F0910A029E012F5F3F4F41E057964D
:103220006C91808125DC8111109323020F90DF9136
:10323000CF911F910895EF92FF921F93CF93DF9349
:103240000F92CDB7DEB7182F8077811125C081E0AE
:10325000111180E08295880F880F807C8983A0916E
:103260000702B0910802E0910902F0910A02CE0132
:1032700001967C019C0141E055966C918081F8DBC0
:10328000970181110BC010920D020F90DF91CF9129
:103290001F91FF90EF90089581E0E0CF89818F7BAF
:1032A00080930F0216FB882780F991E08927880F09
:1032B000880F898315FD02C08260898314FD03C0D5
:1032C00089818160898313FD03C089818863898333
:1032D000A0910702B0910802E0910902F0910A0260
:1032E00041E056966C918081C3DB882361F2812F87
:1032F000877F882311F080E06ADF10930D0210921F
:1033000016029FEF20E782E0915020408040E1F7D5
:1033100000C00000BACFCF93DF930F92CDB7DEB7D6
:10332000909124029923F9F091E0811101C090E07D
:10333000990F9983A0910702B0910802E0910902C8
:10334000F0910A029E012F5F3F4F41E051966C9130
:1033500080818EDB882319F08981809313020F907E
:10336000DF91CF91089590910D029923C1F38823A5
:1033700021F0909113029111F2CF8983DBCF1F933B
:10338000CF93DF93D82F80912402811126C0C09162
:103390000D02CC2301F110911202CD23C093120231
:1033A000DD2371F081E0B7DF9EDB811112C081E087
:1033B000CD1301C080E08195DF91CF911F910895D9
:1033C00080911602882319F081E0A5DFF0CF80E01C
:1033D000FCCF109312028FEFEFCF80E0EDCF0F9371
:1033E0001F93CF93DF930F920F92CDB7DEB78C016F
:1033F00080910D02811108C08FEF0F900F90DF9127
:10340000CF911F910F910895809124028111F4CFE3
:1034100080911602882309F45DC0C801019788973E
:1034200008F040C081E0D3DE80E28983013049F5B5
:103430001A8285E090E058DC8A8120E4829FC001F6
:10344000112487608A83A0910702B0910802E0915D
:103450000902F0910A029E012F5F3F4F42E055960C
:103460006C91808105DB882351F088E080930D0208
:1034700010920F0281E08093160280E080DF80E0EE
:10348000BCCF063018F481E08A83D3CF053128F40D
:1034900082E08A838AE090E0CECF83E08A8384E171
:1034A00090E0C9CF80E093DE198287E08A83A09103
:1034B0000702B0910802E0910902F0910A029E0110
:1034C0002F5F3F4F42E055966C918081D1DA811198
:1034D00010921602B801093E83E0180760F168EE09
:1034E00073E008EE13E0C8010E942D31615069833A
:1034F000A0910702B0910802E0910902F0910A023E
:103500009E012F5F3F4F41E011966C918081B0DAB0
:10351000882309F471CF698170E06F5F7F4FC80124
:103520000E9441317093110260931002CB01969575
:103530008795DADBA4CF0430110598F664E070E0DB
:10354000D0CF7F928F929F92AF92BF92CF92DF9215
:10355000EF92FF920F931F93CF93DF93CDB7DEB718
:10356000C254D1400FB6F894DEBF0FBECDBF49E1C3
:1035700051E061E070E08E010F5F1F4FC8010E94B3
:10358000F1318D859E85AF85B889F02EC35CDE4F05
:103590001883CD53D1400897A105B10538F449E10E
:1035A00051E060E070E0C8010E94F13189859A85A0
:1035B000AB85BC858531944DA24AB105C9F049E17E
:1035C00051E064ED71E08F2DC35CDE4F9881CD53E7
:1035D000D1400E94C43149E151E061E070E08F2D9B
:1035E000C35CDE4F9881CD53D1400E940132B5C0FB
:1035F0008D859E85AF85B88987309105A105B10578
:1036000018F5C951DF4F1882C75ED040EA81F0E05B
:10361000E351FD4FE491E23021F48AA591E089273E
:103620008AA743E050E064EE72E0CE018F5E9E4FC9
:103630000E94C43144E250E060EC72E0CE0183515C
:103640009F4F0E94C43109C089309105A105B10581
:10365000E8F20D97A105B10520F38D859E85AF8514
:10366000B8898E309105A105B10508F05FC088A921
:10367000843030F4823008F457C081E088AB04C055
:103680008450823008F418AACD5EDE4F1882C351F0
:10369000D140CB5EDE4F1882C551D140CA5EDE4FAD
:1036A0001882C651D140CC5EDE4F1882C451D14041
:1036B000C95EDE4F1882C751D140C85EDE4F188206
:1036C000C851D1408A81843130F094E0980F94320F
:1036D00008F0D3C19A83C75EDE4F1882C951D1402A
:1036E000CF5EDE4F8881C151D1409AE0899F802D05
:1036F0001124CF5EDE4F8883C151D140CE5EDE4FB4
:103700008881C251D140899F802D1124CE5EDE4F29
:103710008883C251D14082E190E0A0E0B0E08D8783
:103720009E87AF87B88B57CF82E0A8CF8E309105A8
:10373000A105B10509F4A8CF8F309105A105B10508
:1037400009F4A7CF80319105A105B10509F4BACFDD
:103750004197A105B10509F4BECFEA81E0938B0939
:10376000898180938A09F0E0E351FD4F949181E0D3
:10377000913009F080E080938909949181E0923042
:1037800009F080E080938809E49181E0E33009F05A
:1037900080E08093870985B5826085BD85B58160AD
:1037A00085BD80916E00816080936E00C951DF4FAE
:1037B0008881C75ED040882309F462C10E94110C41
:1037C000C35CDE4F688379838A839B83CD53D1406A
:1037D0007E0146EDE41A4EEFF40AC851DF4F8881AE
:1037E0009981AA81BB81C85ED040F7018083918313
:1037F000A283B383C35CDE4F88819981AA81BB8198
:10380000CD53D140C65EDE4F88839983AA83BB83A4
:10381000CA51D1401092FD0660E088E00E947B0B07
:1038200060E085E30E947B0B00E020E040E060E088
:1038300074E284EF90E00E94B80B60E088E00E94A0
:10384000200B81E00E94470CAFE1BEE41197F1F735
:1038500000C0000061EF84E00E94CC0F62E083E0D2
:103860000E94CC0FBE01665C7E4F86E00E946E1007
:10387000C65CDE4F6881CA53D140697FC65CDE4FAB
:103880006883CA53D14086E00E94CC0F8DE10E942C
:103890007F10182F0E94B10F8DE10E947F100E2D16
:1038A000882341F0181302C00E94B10F60E08DE13F
:1038B0000E94CC0FBE01645C7E4F86E00E946E10B9
:1038C000C45CDE4F6881CC53D140677D6360C45CCB
:1038D000DE4F6883CC53D14086E00E94CC0FBE01FE
:1038E000665C7E4F86E00E946E10BE01665C7E4F75
:1038F00080E00E946E10C65CDE4F6881CA53D140E2
:103900006C60C65CDE4F6883CA53D14080E00E9481
:10391000CC0F6CE485E00E94CC0F8DE10E947F10FB
:10392000682F64608DE10E94CC0F8CE10E947F10B3
:10393000682F6F638CE10E94CC0F8DE10E947F1095
:10394000682F66608DE10E94CC0F8CE10E947F1091
:10395000682F63608CE10E94CC0F6FE381E00E94CE
:10396000CC0F60E787E00E94CC0F0E94AB0F0E9453
:10397000A50F60E787E00E94CC0FC65CDE4F18827F
:10398000CA53D140BE01665C7E4F80E00E946E103B
:10399000C65CDE4F1881CA53D1401C7860E088E0D5
:1039A0000E94200B612F636080E00E94CC0F61E0D9
:1039B00088E00E94200B602F7F2D8AE00E948D10EE
:1039C000602F7F2D80E10E948D1060E088E00E94D2
:1039D000200BBE01665E7E4F8BE00E948D1063E07F
:1039E00082E00E94CC0F61E088E00E94200B809171
:1039F0006900826080936900EC9A81E08093860977
:103A000080918B09893209F478C608F427C682E4CC
:103A1000FE01EB55FF4FABECB8E001900D928A959B
:103A2000E1F78FE39FE090932C0980932B0981E0CD
:103A30009D81923009F480E08093850988E5FE013C
:103A4000E35BFF4FADE2B9E001900D928A95E1F79B
:103A5000CE5BDE4F0FB6F894DEBF0FBECDBFDF9159
:103A6000CF911F910F91FF90EF90DF90CF90BF907B
:103A7000AF909F908F907F9008958B5F8A832BCE1D
:103A80004C8188EE93E0489F9001499F300D1124AE
:103A9000C901032E000CAA0BBB0B8093C70890939F
:103AA000C808A093C908B093CA088E818093C6083D
:103AB0008F818093C50880918809882309F468C0A4
:103AC000CD5EDE4F8881C351D14081708093C408A0
:103AD000C75EDE4F8881C951D1408093C3088823D7
:103AE000F1F0283EB3E03B070CF055C088EE93E0C0
:103AF000A0E0B0E08093C7089093C808A093C908DD
:103B0000B093CA08CF5EDE4F8881C151D140853065
:103B100030F485E0CF5EDE4F8883C151D140809183
:103B20007A00846080937A0080917A00826080932A
:103B30007A0080917A00816080937A0080917A0087
:103B4000806880937A008981823071F1833009F432
:103B5000E3C3813079F5C95EDE4F8881C751D1401A
:103B600098859093FF068093FE0684ED97E19093ED
:103B7000C2088093C10889EA99E09093C0088093B5
:103B8000BF088FEF9FEF90932B0280932A0212C001
:103B900080E090E09ACF213137420CF4B3CF80E13E
:103BA00097E2A0E0B0E0A6CF84EC99E09093C00843
:103BB0008093BF088981833061F08D81823049F420
:103BC00000E021E041E060E072E18AE790E00E94DD
:103BD000B80B20918709CB5EDE4F8881C551D1405B
:103BE0002111DFC39981913009F4DBC39B819130AE
:103BF00009F4D7C38111F9C3CA5EDE4F8881C6516B
:103C0000D1408111D0C33B812981313021F0809195
:103C10008709213011F481E090E081708093C7071B
:103C20008D81823009F4E9C381E0233009F080E01E
:103C300081708093C60781E0233009F480E080938F
:103C4000C507C451DF4F8881CC5ED0408093C40744
:103C50003093C30784E2FE01E351FF4FAFE9B7E0C1
:103C600001900D928A95E1F71092EE071092ED0700
:103C70000E94730B10929E0710929D0710921C07D2
:103C800010921B078F2CC35CDE4F9880CD53D14020
:103C9000CF2CD92C00E015E05AE1A52EBB24B3941B
:103CA000AC0EBD1EF3E0AF0EB11CD501E12F1D928D
:103CB000EA95E9F7C65EDE4F0883CA51D140D601C6
:103CC00090967C90B0918809CF5BDE4FB883C15449
:103CD000D140EFEF7E16C1F1D6019196EC90053000
:103CE00051F4CF5BDE4FB881C154D140BB2319F0F2
:103CF0008B81833081F561E0872D0E947B0BC45E50
:103D0000DE4FE882CC51D1408AEC870DC55EDE4F94
:103D10008883CB51D140A0919D07B0919E07CD01E2
:103D2000019690939E0780939D0743E0AA0FBB1FC7
:103D30004A95E1F7A35EB84F88E0FE01E65EFE4FCC
:103D400001900D928A95E1F70F5FE2E0CE0ED11C53
:103D5000063009F0AACFC451DF4F8881CC5ED04035
:103D60008F3F19F060E00E947B0BC12CD12C3CE00E
:103D7000732EA090ED07B090EE077A9CC0017B9C5B
:103D8000900D11248550984F2981223009F052C39B
:103D9000D40150961C911F3F09F480C095012F5FFC
:103DA0003F4F3093EE072093ED07BCE0CB16D104D4
:103DB00008F025C3A601485051094230510508F4C6
:103DC0001EC3CE5BDE4F1882C254D14000E00170AA
:103DD000E12C2C2D412F6F2DC35CDE4F7881CD530C
:103DE000D1400E94DF0A80918909882309F413C316
:103DF000CE5BDE4FF881C254D140FF2309F40BC3E0
:103E0000163308F408C38FA528E0829FC00111244F
:103E1000C45EDE4F188219821A82CC51D140C65E30
:103E2000DE4F1883CA51D14021E0CF5DDE4F288399
:103E3000C152D140C15EDE4F99838883CF51D140BA
:103E400061E0812F0E947B0B80919D0790919E07DE
:103E50002CE02A9DF0012B9DF00D1124E550F84F28
:103E600083871653C55EDE4F1883CB51D1409C012A
:103E70002F5F3F4F30939E0720939D0723E0880FCD
:103E8000991F2A95E1F7DC01A35EB84F88E0FE0197
:103E9000E65EFE4F01900D928A95E1F7CF5BDE4F13
:103EA0008881C154D140882381F07A9CF0017B9CA9
:103EB000F00D1124E550F84F8581823030F4CE5E4C
:103EC000DE4F8881C251D14082879FEFC91AD90A3B
:103ED000AFEF8A1A9A0AB0E1CB16D10409F049CFA4
:103EE000CF5BDE4FE881C154D140EE2309F4DDC140
:103EF0000B81013009F04FC388A98093E9077894BA
:103F000080E8C65EDE4F8883CA51D140A091070287
:103F1000B0910802E0910902F0910A029E01265E2A
:103F20003E4F41E055966C9180810E943815882360
:103F300009F46BC0FFEF29E648E1F1502040404012
:103F4000E1F700C00000C65EDE4F1882CA51D140C2
:103F5000A0910702B0910802E0910902F0910A02D3
:103F60009E01265E3E4F41E055966C9180810E94F5
:103F70003815882309F449C0109215028FEF8093F9
:103F80000D0280930B0280930C0280930E022FEFA0
:103F90003FEF30931102209310028093120280931E
:103FA000140200930F020093220210922302109237
:103FB000170210921602E8E1F2E08AE0DF011D929A
:103FC0008A95E9F710922402109225021092270296
:103FD000109226020E94FE16811117C00E942C1713
:103FE000811113C08AE290E00E94741681110DC005
:103FF00082E390E0F4D9811108C0C1D9811105C0D4
:104000000E945917811101C016D988E714D90E945E
:10401000FE160E942C1788E7B2D98091250200E095
:1040200010E096EFE92E9BE0F92E882309F416C2E2
:104030008CE0E8E0F3E0DE01A65EBE4F01900D9259
:104040008A95E1F7C65DDE4F1882CA52D14085E0FD
:10405000C55DDE4F8883CB52D140AE01465D5E4FD9
:1040600062E070E086E192E00E94B416811111C016
:10407000AE01465E5E4F6CE070E081EC9AE00E941B
:10408000B416811106C08EE190E09093D107809321
:10409000D00780912402813031F18091250288235C
:1040A00011F180E038D90E94591780912602909131
:1040B000270295D9C65EDE4F1882CA51D140E091E1
:1040C0000902F0910A029E01265E3E4F41E063E242
:1040D00080810E943815882331F081E0809324028A
:1040E0001AD90E94731582E0C65EDE4F8883CA51DA
:1040F000D1408AECC55EDE4F8883CB51D14083EE40
:10410000C45EDE4F8883CC51D14019E0C35EDE4FE0
:104110001883CD51D140AE01465E5E4F64E070E041
:1041200088E690E00E94B41683EAC65EDE4F88837C
:10413000CA51D140C55EDE4F8883CB51D140C45EA9
:10414000DE4F8883CC51D140C35EDE4F8883CD5192
:10415000D140C25EDE4F8883CE51D140C15EDE4F7A
:104160008883CF51D140C05EDE4F8883C052D1409A
:10417000CF5DDE4F8883C152D140CE5DDE4F888354
:10418000C252D140CD5DDE4F8883C352D140AE01D3
:10419000465E5E4F6AE070E087EA9AE00E94B416DD
:1041A00088EDC65EDE4F8883CA51D140AE01465EBF
:1041B0005E4F61E070E086EB9AE00E94B416E5E1A4
:1041C000F3E0DE01A65DBE4F01900D921A95E1F776
:1041D000AE01465D5E4F69E070E088EB94E00E94BE
:1041E000B41644E050E06BE870E0CE01865D9E4F6F
:1041F0000E94EA31AE01465D5E4F64E070E088E9FE
:104200009AE00E94B4160E94731580E2C65DDE4FEC
:104210008883CA52D14088E2C55DDE4F8883CB5285
:10422000D14080E3C45DDE4F8883CC52D14088E327
:10423000C35DDE4F8883CD52D140AE01465D5E4FF7
:1042400064E070E08EE99AE00E94B4160E94731553
:1042500088E190E09093CF078093CE070E9473157A
:1042600080E18093D2078EE794E29093E8078093F1
:10427000E707CB5EDE4F8881C551D1408111A4C1D3
:10428000CA5EDE4F8881C651D14081708093DA07C3
:1042900086E0FE01E55FFE4FA4EDB7E001900D92D0
:1042A0008A95E1F78CA58093D3078EA51092BD085F
:1042B0008093BE088DA590E09093BC088093BB08C6
:1042C000C09087092091ED073091EE0780912A0276
:1042D00090912B02D090C408E090EB07F090EC078F
:1042E00010E00CE0612F70E0621773070CF46FC1EF
:1042F000E092EB07F092EC0790932B0280932A0256
:104300003093EE072093ED0781E09A819D3009F00C
:1043100080E08093EA0774CB01E021E041E060E2B5
:1043200071EA87E090E00E94B80BEE24E39400E08D
:1043300020E04AE06F2DC35CDE4F7881CD53D14041
:104340008CE097E00E94DF0AE12C01E020E042E0EF
:104350006F2DC35CDE4F7881CD53D14080E097E074
:104360000E94DF0A60E08AE00E947B0B61E082E04D
:104370000E947B0BF89480916900836080936900B0
:10438000E89A78940E94571282E09AE09093C008CD
:104390008093BF0885E394E19093C2088093C1089D
:1043A000F0CB811122C0CA5EDE4F8881C651D14058
:1043B00010921A0791E09093190710921807589AD3
:1043C000599A9091B9009E7F9093B9009091B9004D
:1043D0009D7F9093B9008170882351F088E4809389
:1043E000B80085E48093BC000ECC81E090E0E0CF83
:1043F00088E12111F4CF82E1F2CF81E019CC01E014
:104400002D81213009F000E0E1E0CE5BDE4FE88352
:10441000C254D140DCCC7A9CF0017B9CF00D11247D
:10442000E550F84F638142E0461B642F812F0E94C4
:104430007B0B34CD95012F5F3F4F3093EE072093D8
:10444000ED07E12C00E02C2D40E06F2DC35CDE4F2A
:104450007881CD53D1400E94DF0A20CDF801E35E80
:10446000FC4FDE01A65EBE4FCD018C0D9D1D24913B
:104470002D9331968A179B07D1F7AE01465E5E4FAA
:10448000B601C8010E94B4168111D2CD80910D02EF
:10449000882309F4CDCD902F812FC65CDE4F998300
:1044A0008883CA53D140E0910902F0910A02208525
:1044B0003185C601800F911D2817390708F4B8CD42
:1044C000A0910702B09108029E01265C3E4F42E097
:1044D0005B966C9180810E943815882309F4A8CDE1
:1044E000A0910702B0910802E0910902F0910A023E
:1044F0009E01265D3E4F4C2D58966C9180810E9406
:104500008411882309F494CDA601BE01665D7E4F17
:10451000CE01865E9E4F0E94D431892B09F088CD52
:104520000C0D1D1D063FBBE01B0760F46701C01AA0
:10453000D10AE1E1CE16D10408F490CF80E1C82E73
:10454000D12C8CCF84E0C65CDE4F8883CA53D14027
:10455000C55CDE4F1882CB53D140A0910702B091C9
:104560000802E0910902F0910A029E01265C3E4F8A
:1045700042E05D966C9180810E943815882309F491
:1045800057CD81E08093250288EC90E0909327023C
:10459000809326024DCD023009F06BCEE12C00E075
:1045A00020E04BA56F2DC35CDE4F7881CD53D14009
:1045B0008BED97E00E94DF0A62E08091DF070E94A6
:1045C0007B0B8AE29AE051CE81E090E05ECE069FBE
:1045D000A001079F500D11244550584FDA01159640
:1045E000EC91E630F1F4CC20E1F0BCE0BB2EFA0116
:1045F000AFEEB7E001900D92BA94E1F72150310986
:104600006217730771F0029FF001039FF00D1124F0
:10461000E550F84FACE0BA2EDA0101900D92BA9451
:10462000E1F7069FA001079F500D11244550584FF8
:10463000FA016581611103C081601F5F53CE613053
:1046400029F48260DD20C9F37A01F7CF623011F4DA
:104650008460F3CF633089F78860EFCF883108F446
:104660004FC098EE980F9630B0F48AE1FE01F396B1
:10467000A1E1B9E001900D928A95E1F78EA5109223
:104680000F09809310098DA510920D0980930E09D2
:104690008AEA91E1C8C9843240F046E050E062E025
:1046A00073E08AE392E00E94C43180918B098E31DD
:1046B00049F48DE080932D028CE080932E0286E8F1
:1046C00098E0B1C9982F9D7F4EE050E06FE27FE007
:1046D000903271F04EE050E061E27FE08F3141F0C6
:1046E000813211F0863259F74EE050E063E17FE00D
:1046F0008CE292E00E94C431E2CF81E298E093C95B
:1047000081EB90E190C9CF93DF9300D00F92CDB7AA
:10471000DEB720E030E040E057E469837A838B83A2
:104720009C8369817A818B819C810E94933069830B
:104730007A838B839C8369817A818B819C810E949F
:104740003030CB010F900F900F900F90DF91CF91F1
:1047500008957F928F929F92AF92BF92CF92DF92F5
:10476000EF92FF920F931F93CF93DF9300D000D06F
:104770000F92CDB7DEB78C016E837F832E813F8190
:104780002817390771F480E090E2121613060CF432
:104790006DC080E090EA232B09F068C080E090E0D3
:1047A00065C0990F880B982F809590956801C82651
:1047B000D926C81AD90A8E819F81990F880B982F04
:1047C000809590952E813F8128273927A901481B84
:1047D000590B5A83498364EE77EF81EB9DE393DFB6
:1047E0008D83792E69EF7DE78CEA9EE38CDF7C0177
:1047F0008E819F819C01990F440B550B4801012E1E
:10480000000CAA08BB08A981BA81AC15BD050CF043
:1048100041C0D501C4016FE0880F991FAA1FBB1FBB
:104820006A95D1F789839A83AB83BC83BC01CD01A0
:104830000E94763149015A01C901990F880B982FBE
:1048400080959095BC0162277327681B790B8D8139
:10485000972D0E942610B4018E0D9F1D0E942610D8
:10486000AE81BF811A161B060CF0905827960FB622
:10487000F894DEBF0FBECDBFDF91CF911F910F9196
:10488000FF90EF90DF90CF90BF90AF909F908F9070
:104890007F900895DA01C9012FE0880F991FAA1FA0
:1048A000BB1F2A95D1F789839A83AB83BC83BC0154
:1048B000CD01A50194010E94763149015A01C90137
:1048C000990F880B982F80959095BC0168257925C4
:1048D000681B790B8D81972D0E942610B4018E0DD7
:1048E0009F1D0E9426109C0180E090E41016110686
:1048F00014F080E090EC821B930BB8CF7F928F92E4
:104900009F92AF92BF92CF92DF92EF92FF920F935E
:104910001F93CF93DF93CDB7DEB7EC970FB6F89424
:10492000DEBF0FBECDBF89AF9AAF10925203109277
:104930005103D090D207ED2CF12C809124028823D2
:1049400011F180910D028823F1F0A0910702B0913E
:104950000802E0910902F0910A029E012F5D3F4F8B
:1049600042E01C966C9180810E948411882359F04A
:1049700009A11AA11027012710270E151F0508F0FD
:1049800087C010925003C0905303D0905403E0901E
:104990005503F090560377E1F594E794D794C794C4
:1049A0007A95D1F7D0925403C09253038090570365
:1049B00090905803A0905903B0905A03E7E1B59442
:1049C000A79497948794EA95D1F790925603809292
:1049D000550340915B0350915C0360915D037091BE
:1049E0005E03F7E17595679557954795FA95D1F769
:1049F000509358034093570300915F031091600355
:104A00002091610330916203A7E1359527951795B1
:104A10000795AA95D1F710935A03009359038091F3
:104A2000E907009FF001019FF00DF00D1124813086
:104A300009F436C1823009F43AC28111C7C1449FDA
:104A4000C001459F900D900D11248E0F9F1F880F60
:104A5000991FE0E0F0E8E81BF90B489DD001499D63
:104A6000B00D589DB00D11240C9DC0010D9D900DF1
:104A70001C9D900D11249D01281B390BC901BF01FC
:104A8000880F991F66DE90934F0380934E039EC15B
:104A9000A0910902B0910A02E0910702F091080288
:104AA0008C9111962D913C913695279520173107C1
:104AB00080F49E012F5D3F4F41E063890E94841185
:104AC000882309F460CF89A184FF03C00E94731575
:104AD0005ACFA0910702B0910802E0910902F0912B
:104AE0000A029E012F5F3F4F4D2D1D966C918081D4
:104AF0000E948411882309F446CFC801B7010E949F
:104B00002D316150609350038091CE079091CF0773
:104B100084719927892B09F436CF89819A81AB81D9
:104B2000BC81BC01CD010E9492314B015C0180929D
:104B3000530390925403A0925503B09256038D8173
:104B40009E81AF81B885BC01CD010E9492316B017D
:104B50007C01C0925703D0925803E0925903F0921F
:104B60005A0389859A85AB85BC85BC01CD010E941D
:104B700092318B019C0100935B0310935C032093A3
:104B80005D0330935E038D859E85AF85B889BC013A
:104B9000CD010E949231462F572FBC0140935F03F5
:104BA000509360036093610370936203C501BB2758
:104BB00097FDB095AB2F8BA39CA3ADA3BEA3C7015C
:104BC000BB2797FDB095AB2F8FA398A7A9A7BAA72E
:104BD000C901BB2797FDB095AB2F8BA79CA7ADA7AD
:104BE000BEA7CB01BB2797FDB095AB2F8FA798AB86
:104BF000A9ABBAAB2BA13CA14DA15EA1CA01B901E1
:104C00000E941E316BA37CA38DA39EA32FA138A568
:104C100049A55AA5CA01B9010E941E316FA378A700
:104C200089A79AA7CBA0DCA0EDA0FEA0C60ED71E38
:104C3000E81EF91E2BA53CA54DA55EA5CA01B9012C
:104C40000E941E31C60ED71EE81EF91E2FA538A9D8
:104C500049A95AA9CA01B9010E941E316BA37CA3BC
:104C60008DA39EA3C60ED71EE81EF91E9FE0F91A5B
:104C7000A1E0CA16D104E104A2E0FA0638F00E94CD
:104C8000731510925203109251037DCE80915103FF
:104C9000909152039160909352038093510373CE8D
:104CA000089DC001099D900D189D900D11244C9DEB
:104CB00090014D9D300D5C9D300D11244C01821AE8
:104CC000930AB401C4010E9426108BA39FA3BC01C8
:104CD0000E9426108BA7792E682F792F0E9426100C
:104CE0008BAF9CAF60E670EB89E39DE30CDD6BA1BD
:104CF0007FA10E9426108FA798AB6AE27EEE87E321
:104D00009CE301DD8BAB9CAB6EEF7AEB87ED9CE314
:104D1000FADC6BA17FA10E9426108DAB9EAB66EAE8
:104D200079EB88EA9CE3EFDC7C0162E377E88AEFC9
:104D30009CE3E9DC6BA17FA10E9426108FAB98AFAA
:104D400063E87EEC86E39DE3DEDC5C016AEC79E9F6
:104D500089E99DE3D8DC6BA17FA10E9426108C011C
:104D60006AEA7AEA8AE29EE3CEDC6C016BA5772DD3
:104D70008FA598A9ABA9BCA98A1B9B0B0E942610E2
:104D80002DA93EA92E0D3F1D6BAD7CAD820F931F4B
:104D90000E9426107C016BA5772D8FA998AD8A0DF6
:104DA0009B1D0E9426108E0D9F1DC00ED11E6BA153
:104DB0007FA18C0D9D1D0E942610B4010E9426101B
:104DC000880E991E90924F0380924E0380914E035D
:104DD00090914F038A39B9E19B070CF487C089E9A8
:104DE00099E190934F0380934E0380914E039091ED
:104DF0004F0345E0489F9001499F300D1124809159
:104E0000D307882319F031952195310930934F0349
:104E100020934E033093EE032093ED03032E000CFA
:104E2000440B550B8091D6079091D707092E000CA3
:104E3000AA0BBB0B281B390B4A0B5B0BA091D407A9
:104E4000B091D5070E94BE316BA37CA38DA39EA316
:104E500020E034E040E050E00E947631DA01C90100
:104E60009058A109B1098115F0E89F07FFEFAF073E
:104E7000BF070CF042C080E090E8AFEFBFEFE9ADB4
:104E8000FAAD93878287EC960FB6F894DEBF0FBE1B
:104E9000CDBFDF91CF911F910F91FF90EF90DF90E9
:104EA000CF90BF90AF909F908F907F900895CC9CB3
:104EB000C001CD9C900D900D11248E0F9F1F880F67
:104EC000991FE0E0F0E8E81BF90B8C9CD0018D9C69
:104ED000B00D9C9CB00D1124049FC001059F900D46
:104EE000149F900D11248A0F9B1FC9CD8736964EB3
:104EF0000CF07BCF87E696EE74CF811520E8920701
:104F0000A105B1050CF4BBCF8FEF9FE7A0E0B0E0A7
:104F1000B6CF8F929F92AF92BF92CF92DF92EF92D5
:104F2000FF920F931F93CF93DF936C01EB01888166
:104F30008058990BF6011482858389818058990BDA
:104F4000168287838091FF068823E1F12D81822FCD
:104F500090E0EB80F4E0EF9E70011124AC0134E0AE
:104F6000559547953A95E1F743705527E42AF52A78
:104F70003FEFE31A31E0F30A0C81E4E00E9F800179
:104F80001124959587959595879583709927082B7A
:104F9000192B0F5F11408A81F4E08F9FC00111240B
:104FA0002295269526952370822BB8018F5F91401C
:104FB000D0DBF60191878087B801C701CADBF60113
:104FC000938782878D81982F90959170B92EB29496
:104FD00090EFB922A12C869591E089278170982EB7
:104FE0009294990C990C20EC9222812CA828B92833
:104FF000B0924503A0924403DF91CF911F910F918E
:10500000FF90EF90DF90CF90BF90AF909F908F90E8
:1050100008951F920F920FB60F9211240BB60F92A4
:105020002F933F934F935F936F937F938F939F93B0
:10503000AF93BF93EF93FF936091C60081EF96E02B
:105040000E94D507FF91EF91BF91AF919F918F91F2
:105050007F916F915F914F913F912F910F900BBE78
:105060000F900FBE0F901F9018951F920F920FB6C2
:105070000F9211240BB60F922F933F934F935F9390
:105080006F937F938F939F93AF93BF93EF93FF9310
:105090002FB7F89480919609909197092FBF892B8B
:1050A000C9F08CE899E00E94F0078093C600FF9158
:1050B000EF91BF91AF919F918F917F916F915F9190
:1050C0004F913F912F910F900BBE0F900FBE0F90FD
:1050D0001F90189588E98093C100E9CF1F921FB6F1
:1050E0001F9211248F939F93AF93BF9380919E0340
:1050F00090919F03A091A003B091A1030196A11DDF
:10510000B11D80939E0390939F03A093A003B0933F
:10511000A103BF91AF919F918F911F901FBE1F90D0
:1051200018958F9381E0809387038093FD068F917C
:1051300018951F920F920FB60F9211240BB60F9273
:105140002F933F934F935F936F937F938F939F938F
:10515000AF93BF93EF93FF938091B900887F88331B
:1051600009F463C0C8F58032A1F178F5883009F4FC
:1051700054C0B0F4882309F474C0FF91EF91BF913B
:10518000AF919F918F917F916F915F914F913F91DF
:105190002F910F900BBE0F900FBE0F901F90189580
:1051A0008031D9F1883149F790918503809184034A
:1051B000981750F5E091850381E08E0F8093850369
:1051C000F0E0EC59FC4F80812AC0883269F38033CB
:1051D000A1F68093630307C0803579F138F48034F9
:1051E000C1F1883451F60E94A110C7CF883529F645
:1051F000E091850381E08E0F809385038091BB0051
:10520000F0E0EC59FC4F8083809119078111EBCFBE
:1052100081E08093180784EA0BC080918603809315
:10522000BB0085EC8093BC00A8CF8093630385EC22
:105230008093BC0010921A07A0CFE091850381E013
:105240008E0F809385038091BB00F0E0EC59FC4FFA
:1052500080839091850380918403981710F385E8EB
:10526000E1CF10926303BFCFCDB7DEB7E4970FB69F
:10527000F894DEBF0FBECDBF0E94A11A81E090E07E
:105280009093C5008093C40086E08093C20082E0C2
:105290008093C00088E98093C100539A5A9A40E4F1
:1052A00050E061EB76E081EF96E00E94C10740E8B4
:1052B00050E061E376E08CE899E00E94C1077894C1
:1052C00019A610E01EA29E012F5F3F4F38A32F8F1B
:1052D0009FB7F8948091FB069FBF782E882309F42E
:1052E0006BC201E081EF96E00E94F007682F111178
:1052F00010C08E3709F48FC18D3709F48EC18737FE
:1053000011F4009306027A947110ECCF173001F774
:1053100054C1113009F483C1123009F013C18091D6
:105320008609882309F4B8C06E3308F069C0623377
:1053300009F490C0698381E08A830E94A50F0E94CE
:10534000AB0F0E943C0A6B017C0180E00E94470C7D
:105350008FEF0E94D80A182F81E00E94470C10FDA1
:105360000EC080E00E94470C89EA0E94D80A62E0E1
:10537000CE0101960E94B90F81E00E94470C81E0A6
:105380008093FD0660E083EA93E00E94DB0F182F14
:10539000882311F08C3001F560E387E00E94CC0F88
:1053A0000E943C0A69A37AA38BA39CA3DC01CB01D6
:1053B0008C199D09AE09BF09853F9140A105B10532
:1053C00020F288E08093A30346E050E06EEC71E0A9
:1053D00084EA93E0D9D717E01E8F88E78D8F61E0CC
:1053E000CE014D960E94090861E0CE014E960E94C2
:1053F0000908612F83EA93E00E94090810E068CF52
:1054000088E08093A303462F4E53550B22E3249F3D
:10541000B001259F700D112409E111E0061B170B47
:105420000233110514F002E310E0A80155276F5F65
:105430007F4F84EA93E0D5D711E0100F1D8F88E7E6
:10544000898361E0CE0101960E94090861E0CE01E6
:105450004D96CDCF88E08093A30366EC71E089EA96
:1054600093E09BD780E094E2A4EFB0E08093A403A4
:105470009093A503A093A603B093A7030E94110CD9
:105480006093C7037093C8038093C9039093CA03C2
:105490001092A80318E2D2CF88E08093A3036E3362
:1054A00008F0B1CF6233C9F26733B9F26C3359F403
:1054B0008CE0E3EEF3E0A4EAB3E001900D928A956C
:1054C000E1F71DE0BBCF6533B9F480918A098130E3
:1054D00051F480910202909103029093A50380936E
:1054E000A40313E0ABCF8330E1F7809101028093F6
:1054F000A4031092A503F5CF663339F48091050219
:105500008093A4030E946A0C99CF611197CF81E028
:105510008093A20348E050E06EEB71E084EA93E0F0
:1055200033D780918B0991EE980F923028F486E062
:105530008093A70319E082CF81528230D8F710926E
:10554000A703F8CF1330A1F48D3351F019ED812E5C
:1055500015E0912E893331F08DA3812C912C13C04D
:1055600051E059A78EA181508EA36DA314E0CBCE3C
:10557000143059F4BCE1B89FD0011124B8A7AFA3EF
:105580008A0E9B1E8AAB15E0BECE153009F0BBCE4D
:10559000EEA1E150EEA3F9A5FF2339F1EFA0F8A4A5
:1055A0002FEFE21AF20A8FA198A58F5F9F4F38D78D
:1055B000F8A6EFA24EA14111A6CE809186098E01D8
:1055C0000F5F1F4FDD24D394811136C08DA180332E
:1055D00009F081C09FEFA1EEB4E09150A040B0402F
:1055E000E1F700C000000E9462108114910421F0D4
:1055F000F40181934F01DECF3DA13B33D9F6809179
:10560000C4078F3FB9F291E0611101C090E0692FAA
:105610000E94200BCFCF11E076CE12E074CE8EA385
:1056200013E071CED092FD0660E0C4010E94DB0F52
:1056300060E387E00E94CC0FB80187E10E946E1002
:105640008981780184FFEECF60E387E00E94CC0F70
:1056500080E00E94470C89EA0E94D80A8DA10E942E
:10566000D80A80E00E94D80A8DA18B7F893391F4FB
:105670008AA90E94D80A59A55523E1F04CE150E0CF
:105680006FA178A56F5F7F4FC801ABD66CE1C801F1
:105690000E94B90F81E00E94470C81E08093FD06D3
:1056A00011E0B70187E10E946E10898184FF08C074
:1056B00019A68CCF6CE18FA198A587529A4FE8CF9D
:1056C0001093FD0660E0C4010E94DB0F60E387E0F9
:1056D0000E94CC0FE6CFEDA1E43309F442C098F567
:1056E000E133C1F1E33309F089CE8091860981115C
:1056F00085CE80913D04811181CE8FEF809305028C
:105700000E94730B00E010E0802F0E944A0C811170
:1057100011C062E0802F0E947B0BEFE8F1E031972F
:10572000F1F700C00000802F0E94400BF801E95003
:10573000FC4F80830F5F1F4F0634110529F781E06E
:1057400080933D045BCEFDA1FA3309F057CE0E9451
:10575000131554CE87E797E79093010880930008CC
:1057600042CF80918609811149CE80915E048111DA
:1057700045CE8FEF809305020E94730B0EE314E079
:10578000B6E3FB2E63E08F2D0E947B0B8FE891E048
:105790000197F1F700C000008AEC8F0D0E94590BB1
:1057A000D8018D939D938D01F394B6E4FB12EACF5B
:1057B00081E080935E0422CE80918609882309F4DB
:1057C0003FC06CE08DEC95E00E94DB0F4CE050E0B8
:1057D0006DEC75E081EC95E0E7D5892B09F478CD87
:1057E00080910602882309F473CDE0912B09F09192
:1057F0002C094DEC55E0BE01635E7F4F88E695E0D5
:1058000019950E943C0A1092060288E7898361E09C
:10581000CE0101960E94090861E0CE014D960E94DA
:1058200009086D8D88E695E00E9409088CE0EDEC92
:10583000F5E0A1ECB5E001900D928A95E1F748CD35
:1058400080918809882321F01092D8051092D705FD
:10585000E091C108F091C208309719F08DEC95E005
:10586000199580915E04882309F454C1AEE3EA2EB1
:10587000A4E0FA2E00E0802F0E94590BD7012D9151
:105880003D917D01821B930B97FF03C091958195FC
:1058900091094F970CF439C10A5C009305021092EC
:1058A0005E04872D90E02091ED073091EE0782177E
:1058B00093070CF491C28091C5088823A1F08091D0
:1058C000CD059091CE0520916705222309F437C3B9
:1058D00020916605222309F432C38F7C9460909353
:1058E000CE058093CD058091C608882309F44AC06F
:1058F0008091CD059091CE0520912A0230912B0206
:10590000822393239093CE058093CD056091D1059A
:105910007091D2052091BD083091BE0844275527CB
:10592000421B530B641775072CF484609093CE05CB
:105930008093CD05261737074CF48091CD059091C3
:10594000CE0588609093CE058093CD058091D305D8
:105950009091D405841795074CF44091CD05509152
:10596000CE0542605093CE054093CD0528173907E8
:105970004CF48091CD059091CE0581609093CE0539
:105980008093CD0580918809882311F18091DA07F1
:105990008823A9F09E012F5F3F4F42E062E18DE036
:1059A0000E948411882359F08091CD059091CE05F5
:1059B0009E702981922B9093CE058093CD05E09126
:1059C000E707F091E807309719F08DEC95E019950D
:1059D000809187098111B5C28091EA07811103C3C3
:1059E0000091C3080023C9F090916505809164057A
:1059F000891799F09093640580916305E82FF0E092
:105A0000EC59FB4F9083909163049F3F31F09F5F6F
:105A1000909363048F5F809363050E946B0A69A370
:105A20007AA38BA39CA380915F0490916004A091C2
:105A30006104B091620429A13AA14BA15CA1281B89
:105A4000390B4A0B5B0BDA01C9014091C708509131
:105A5000C8086091C9087091CA0884179507A607FD
:105A6000B70708F435CC0023A1F02091630422236A
:105A700081F0E0916305E21BFF0BEC59FB4F908135
:105A80008091CD059093CE058093CD052150209334
:105A900063040E946B0A60935F04709360048093B8
:105AA0006104909362048091850981118FCE0E94D8
:105AB000D80A80E00E94D80A80E00E94D80A80E0DC
:105AC0000E94D80A8DE2C82E89E0D82E99EDE92EE1
:105AD00095E0F92EA12CB12CD6016C911196BC91B8
