:100000009BC700000C94DC220C94C321B6C70000EF
:10001000B4C70000B2C70000B0C70000AEC7000000
:10002000ACC70000AAC70000A8C70000A6C7000010
:10003000A4C70000A2C70000A0C700009EC7000020
:100040009CC700009AC7000098C7000096C7000030
:1000500094C7000092C7000090C700000C941E22B5
:100060008CC700008AC7000088C7000086C7000050
:1000700084C7000082C7000080C700007EC7000060
:100080007CC700007AC7000078C7000076C7000070
:1000900074C7000072C7000070C700000C944122B2
:1000A0006CC700006AC7000068C7000066C7000090
:1000B00064C7000062C7000060C700005EC70000A0
:1000C0005CC700005AC7000058C7000056C70000B0
:1000D00054C7000052C7000050C700004EC70000C0
:1000E0004CC70000084AD73B3BCE016E84BCBFFD25
:1000F000C12F3D6C74319ABD56833DDA3D00C77FF8
:1001000011BED9E4BB4C3E916BAAAABE0000008090
:100110003F0000002100240027002A002D003000AD
:10012000330001010000040107010A010000220060
:10013000250028002B002E003100340002010000B1
:10014000050108010B010000200023002600290002
:100150002C002F00320000010000030106010901FC
:1001600001021020200808102040102040800201C9
:1001700002010804020101020408102040808040AE
:1001800020100804020180040201804020100804AD
:10019000020108040201010204081020408001024B
:1001A0000408102040800505050507050808080813
:1001B000020202020A0A08080404040401010101FF
:1001C00001010101030303030303030304070707FA
:1001D0000C0C0C0C0C0C0C0C02020202060606069F
:1001E000060606060B0B0B0B0B0B0B0BFF080F0C7D
:1001F0000000700000000024000000020003000066
:1002000000650054FFEF0000FA80000B128200012D
:10021000030C30C30E8C8CE914D5400213710F8E81
:100220003883F8833000F883258EF8833000F88314
:10023000FFFFFFFF0FFEA9D6240004001A8279A158
:100240000000003CFFFF00000010000038836FA298
:10025000003E03304000000002CAE3093E80000077
:1002600020000000000000004000000060000000CE
:10027000000C0000000C186E000006920A16C0DF89
:10028000FFFF0256FD8CD377FFE1C496E0C5BEAAFE
:1002900000000000FFFF0B2B000016570000035961
:1002A0004000000000001DFA00026C1D000000006C
:1002B0003FFFDFEB003EB3B6000D227800002F3C7D
:1002C00000000000001942B5000039A20000B3652B
:1002D000D90E9FC91DCF4C343000000050000000E3
:1002E0003BB67AE80064000000C80000000000008F
:1002F000100000001000FA921000225E000D229FF4
:100300000001000000320000FF46000063D400003E
:100310001000000004D6000004CC000004CC000053
:10032000000010720000004000000000000000000B
:100330000006000200050007000000000064000045
:10034000000000000000000500050064002000001F
:10035000000000000000000000004000000003005A
:1003600000000032F8980000FF650000830F0000D5
:10037000FF9BFC00000000000000000000000000E7
:10038000000000000000000000000000000000006D
:10039000000000000000000000000000000010004D
:1003A00040000000000000060000B26A00020000E9
:1003B0000001FB830068000000D9FC007CF1FF8392
:1003C0000000000000650000006403E800640028ED
:1003D000000000250000000016A000000000100032
:1003E00000001000002F0000000001F400001000C9
:1003F00000280000FFFF4581FFFFFA7200000000A7
:1004000000000000004400050005BAC6004778A2BD
:1004100000000001000000000000060000000014C1
:100420000000254D002F706D000005AE000C02D0BD
:1004300000000000000000000000000000000000BC
:10044000001B000000000000000000000000000091
:100450000064000000080000000000000000000030
:10046000000000000000000000000000000000008C
:10047000000000000000000000000000000000007C
:10048000000000000000000000000000000000006C
:10049000000000000000000000000000000000005C
:1004A000000000000000000000000000000000004C
:1004B000001B00000000000000000000000E000E05
:1004C00000000AC70004000000000032FFFFFF9C8C
:1004D00000000B2B0000000200000001000000647F
:1004E000FFE5000000000000000000000000000028
:1004F00000000001000000000001000000000000FA
:10050000000180000001800000018000002426D34B
:100510000000000000000000000600100096003CF3
:1005200000000000000000000000000000000000CB
:100530000C0A4E68CDCF770950166759C619CE827E
:1005400000000000000000000000000000000000AB
:10055000000000000000000017D784000300000026
:100560000000000000000000C7938F9D1E1B1C1997
:10057000000000000000000000000000000000007B
:100580000000000000000000020318850000400089
:100590000000000300000003000000000000000055
:1005A000400000000000000000000000000000000B
:1005B000000000000000000000000000000000003B
:1005C000000000000000000000000000000000002B
:1005D00000000000677DDF7E72902E554CF6E688A5
:1005E000000000000000000000000000000000000B
:1005F000D8DCB4B8B0D8B9ABF3F8FAB3B7BB8E9EB9
:10060000AEF132F51BF1B4B8B08097F1A9DFDFDFAE
:10061000AADFDFDFF2AAC5CDC7A90CC92C97F1A9C3
:1006200089264666B28999A92D557DB0B08AA896CB
:10063000365676F1BAA3B4B280C0B8A89711B28387
:1006400098BAA3F0240844106418B2B9B49883F19E
:10065000A329557DBAB5B1A38393F0002850F5B214
:10066000B6AA839328547CF1B9A3829361BAA2DA23
:10067000DEDFDB819AB9AEF5606870F1DABAA2DF2D
:10068000D9BAA2FAB9A38292DB31BAA2D9BAA2F836
:10069000DF85A4D0C1BBAD83C2C5C7B8A2DFDFDF91
:1006A000BAA0DFDFDFD8D8F1B8AAB38DB4980D3582
:1006B0005DB2B6BAAF8C96198F9FA70E161EB49A6C
:1006C000B8AA872C547CBAA4B08AB691325676B2B6
:1006D0008494A4C808CDD8B8B4B0F19982A82D5597
:1006E0007D98A80E161EA22C547C92A4F02C507853
:1006F000F184A898C4CDFCD80DDBA8FC2DF3D9BAA1
:10070000A6F8DABAA6DED8BAB2B68696A6D0F3C8EC
:1007100041DAA6C8F8D8B0B4B882A892F52C5488AB
:1007200098F135D9F418D8F1A2D0F8F9A884D9C72E
:10073000DFF8F883C5DADF69DF83C1D8F40114F18B
:10074000A8824EA884F311D182F5D992289788F116
:1007500009F41C1CD884A8F3C0F9D1D99782F129D7
:10076000F40DD8F3F9F9D1D982F4C203D8DEDF1A37
:10077000D8F1A2FAF9A88498D9C7DFF8F8F883C7A6
:10078000DADF69DFF883C3D8F40114F198A8822E68
:10079000A884F311D182F5D992509788F109F41CFD
:1007A000D884A8F3C0F8F9D1D99782F149F40DD8CB
:1007B000F3F9F9D1D982F4C403D8DEDFD8F1AD88DA
:1007C00098CCA809F9D98292A8F57CF1883ACF94FF
:1007D0004A6E98DB6931DAADF2DEF9D88795A8F276
:1007E00021D1DAA5F9F417D9F1AE8ED0C0C3AE820B
:1007F000C684C3A88595C8A588F2C0F1F4010EF19E
:100800008E9EA8C63E56F554F18872F40115F198F3
:1008100045856EF58E9E0488F142985A8E9E068814
:1008200069F4011CF1981E1108D0F504F11E97021D
:1008300002983625DBF9D985A5F3C1DA85A5F3DF62
:10084000D88595A8F309DAA5FAD88292A8F578F1A7
:10085000881A849F26889821DAF41DF3D8879F3957
:10086000D1AFD9DFDFFBF9F40CF3D8FAD0F8DAF91D
:10087000F9D0DFD9F9D8F40BD8F3879F39D1AFD9A4
:10088000DFDFF41DF3D8FAFCA869F9F9AFD0DADE9E
:10089000FAD9F88F9FA8F1CCF398DB45D9AFDFD018
:1008A000F8D8F18F9FA8CAF38809DAAF8FCBF8D8B0
:1008B000F2AD978D0CD9A5DFF9BAA6F3FAF412F2CE
:1008C000D8950DD1D9BAA6F3FADAA5F2C1BAA6F332
:1008D000DFD8F1BAB2B68696A6D0CAF349DAA6CB6B
:1008E000F8D8B0B4B8D8AD84F2C0DFF18FCBC3A8CC
:1008F000B2B68696C8C1CBC3F3B0B48898A821DB42
:10090000718D9D71859521D9ADF2FAD88597A8286A
:10091000D9F408D8F28D29DAF405D9F285A4C2F207
:10092000D8A88D9401D1D9F411F2D88721D8F40A2E
:10093000D8F28498A8C801D1D9F411D8F3A4C8BBBF
:10094000AFD0F2DEF8F8F8F8F8F8F8F8D8F1B8F621
:10095000B5B9B08A95A3DE3CA3D9F8D85CA3D9F881
:10096000D87CA3D9F8D8F8F9D1A5D9DFDAFAD8B16B
:100970008530F7D9DED8F830ADDADED8F2B48C990C
:10098000A32D557DA083DFDFDFB591A0F629D9FB2C
:10099000D8A0FC29D9FAD8A0D051D9F8D8FC51D97F
:1009A000F9D879D9FBD8A0D0FC79D9FAD8A1F9F92E
:1009B000F9F9F9A0DADFDFDFD8A1F8F8F8F8F8AC38
:1009C000DEF8ADDE8393AC2C547CF1A8DFDFDFF6DC
:1009D0009D2CDAA0DFD9FADB2DF8D8A850DAA0D008
:1009E000DED9D0F8F8F8DB55F8D8A878DAA0D0DF4F
:1009F000D9D0FAF8F8F8F8DB7DF8D89CA88CF53057
:100A0000DB38D9D0DEDFA0D0DEDFD8A848DB58D96C
:100A1000DFD0DEA0DFD0DED8A868DB70D9DFDFA0B2
:100A2000DFDFD8F1A888902C547C98A8D05C38D10E
:100A3000DAF2AE8CDFF9D8B087A8C1C1B188A8C6F8
:100A4000F9F9DA36D8A8F9DA36D8A8F9DA36D8A812
:100A5000F9DA36D8A8F9DA36D8F78D9DADF818DA74
:100A6000F2AEDFD8F7ADFA30D9A4DEF9D8F2AEDEB7
:100A7000FAF983A7D9C3C5C7F1889BA77AADF7DE7A
:100A8000DFA4F8849408A797F300AEF29819A4881D
:100A9000C6A39488F632DFF28393DB09D9F2AADF8A
:100AA000D8D8AEF8F9D1DAF3A4DEA7F1889B7AD8CA
:100AB000F38494AE19F9DAAAF1DFD8A881C0C3C5CE
:100AC000C7A39283F628ADDED9F8D8A350ADD9F8E4
:100AD000D8A378ADD9F8D8F8F9D1A1DADEC3C5C763
:100AE000D8A18194F818F2B089ACC3C5C7F1D8B8C1
:100AF000B4B09786A8319B069907AB9728889BF0DE
:100B00000C201440B0B4B8F0A88A9A285078B79B4B
:100B1000A8295179247059446938644831F1BBAB34
:100B200088002C547CF0B38BB8A804285078F1B01E
:100B300088B49726A85998BBABB38B02264666B0FB
:100B4000B8F08A9CA82951798B2951798A24705947
:100B50008B2058718A4469388B3940688A644831DF
:100B60008B30496088F1AC002C547CF08CA80428B0
:100B70005078F1889726A85998AC8C02264666F0E2
:100B8000899CA8295179247059446938644831A94D
:100B90008809205970AB11384069A8193148608C18
:100BA000A83C415C207C00F187981986A86E767E6F
:100BB000A999882D557DD8B1B5B9A3DFDFDFAED0B7
:100BC000DFAAD0DEF2ABF8F9D9B087C4AAF1DFDF33
:100BD000BBAFDFDFB9D8B1F1A3978E60DFB084F28D
:100BE000C8F8F9D9DED89385F14AB183A308B58353
:100BF0009A0810B79F10D8F1B0BAAEB08AC2B2B698
:100C00008E9EF1FBD9F41DD8F9D90CF1D8F8F8ADC6
:100C100061D9AEFBD8F40CF1D8F8F8AD19D9AEFB18
:100C2000DFD8F416F1D8F8AD8D61D9F4F4ACF59CA9
:100C30009C8DDF2BBAB6AEFAF8F40BD8F1AED0F833
:100C4000AD51DAAEFAF8F1D8B9B1B6A3839C08B9C0
:100C5000B1839AB5AAC0FD3083B79F10B58B93F2CC
:100C60000202D1ABDADED8F1B080BAABC0C3B28435
:100C7000C1C3D8B1B9F38BA391B609B4D9ABDEB077
:100C8000879CB9A3DDF1B38B8B8B8B8BB087A3A330
:100C9000A3A3B28BB69BF2A3A3A3A3A3A3A3A3A3D3
:100CA000A3F1B087B59AA3F39BA3A3DCBAACDFB9D9
:100CB000A3A3A3A3A3A3A3A3A3A3A3A3A3A3A3A304
:100CC000D8D8D8BBB3B7F1AAF9DAFFD9809AAA2845
:100CD000B48098A720B79787A86688F07951F190DB
:100CE0002C870CA781976293F0717160859401291C
:100CF000517990A5F1284C6C870C95188578A383C1
:100D000090284C6C886CD8F3A28200F210A892193B
:100D100080A2F2D926D8F188A84DD948D896A8390A
:100D200080D93CD89580A839A68698D92CDA87A78F
:100D30002CD8A8899519A980D938D8A88939A9802B
:100D4000DA3CD8A82EA83990D90CD8A8953198D9D2
:100D50000CD8A809D9FFD801DAFFD89539A9DA2625
:100D6000FFD890A80D8999A810809821DA2ED889EB
:100D700099A83180DA2ED8A886963180DA2ED8A8A4
:100D8000873180DA2ED8A88292F34180F1D92ED80B
:100D9000A882F31980F1D92ED882ACF3C0A28022A8
:100DA000F1A62EA72EA92298A829DAACDEFFD8A298
:100DB000F22AF1A92E8292A8F23180A696F1D900EA
:100DC000AC8C9C0C30ACDED0DEFFD88C9CACD01050
:100DD000ACDE8092A2F24C82A8F1CAF235F196887C
:100DE000A6D900D8F1FF0E0C0D0F08FFFF0905046E
:100DF00006070A0B0F0C0D0E08FFFF090504060776
:100E00000A0B0F0C0D0E0908FFFF050406070A0B5D
:100E100021260107000000006D65676161646B00B9
:100E20004552524F5200020F00000001010115D43B
:100E3000A2000E000000FFFFFFFFFFFFFFFFFFFF0C
:100E4000FFFFFFFFFFFFFF00FF00FF00FF00FF00AD
:100E5000FF0040404000B80B04160D0E0F33280B66
:100E6000504F525151FFFFFFFFFFFF00FF00FF00F7
:100E7000FF000D0080000EFF000010FFFF000F00BC
:100E800000FF09FF45000000000000000000000016
:100E90000000000000000000000000000000000052
:100EA0000000000000000000000000000000000042
:100EB0000000000000000000000000000000000032
:100EC0000000000000000000000000000000000022
:100ED0000000000000000000000000000000000012
:100EE0000000000000000000000000000000000002
:100EF00000000000000000000000000000000000F2
:100F000000000000000000000000000000000000E1
:100F100000FF0100008000800100008000800100CF
:100F2000008000000100008000000100008000003F
:100F3000010000800000051411241FBECFEFD1E294
:100F4000DEBFCDBF00E00CBF13E0A0E0B2E0E2EFF7
:100F5000FEE500E00BBF02C007900D92A031B10783
:100F6000D9F727E0A0E1B3E001C01D92AD3DB20783
:100F7000E1F70E94E2220C94772F42C8CF93DF93CF
:100F8000FC01DA0186E0EB01888385E08083159619
:100F90002C911597822F922F990F990B97FD0796F9
:100FA00053E0959587955A95E1F7828317962C9192
:100FB0001797822F922F990F990B919581959109EF
:100FC00097FD079643E0959587954A95E1F78383CA
:100FD0001B962C911B97822F922F990F990B97FD9F
:100FE000079633E0959587953A95E1F784831996AE
:100FF0002C911997822F922F990F990B97FD079695
:1010000023E0959587952A95E1F7858311969C9124
:1010100011979295917081818E7F982B9183119673
:101020008C911197829582709D7F892B8183119677
:101030009C919695969596959870877F892B81833C
:10104000DF91CF9108958F929F92AF92BF92CF92EE
:10105000DF92EF92FF920F931F93CF93DF93FC01E8
:10106000DA018CE1EB01888384E08083A090BB03EC
:1010700084E2C82E82E0D82E4F0190E080E061E04B
:1010800070E0B82EE60129916E012F3F09F44CC0A3
:10109000AB0102C0440F551F2A95E2F72D913C91F8
:1010A00011972423352341E02115310509F440E04F
:1010B0008B010B2C02C0000F111F0A94E2F7009560
:1010C0001095E180F280E022F12250E08A0102C016
:1010D000000F111FBA94E2F70E291F291283018312
:1010E0008A1510F50091CC060B3109F098C08430B8
:1010F00008F095C09C0124513E4FE9012881EB0185
:1011000002C0CC0FDD1F2A95E2F79E010D911C91C4
:10111000119720233123422B532B21E0452B09F437
:1011200020E02195E40128870196DFEF8D1A9D0AC2
:101130008E30910509F0A5CFCC91CF7088E0CB30EF
:1011400020F4D0E0C254DD4F888183831A962D911C
:101150003C911B978091CC068B3109F066C01996A3
:101160008C91199785958054868387EF91E02F3F66
:101170003F4711F484E891E0958B848B8DE787835A
:101180008091CC068F3119F08A3109F073C08181CA
:1011900092818F7E12962C911297233308F064C0AF
:1011A00030E020E0822B932B928381838F7D1396F6
:1011B0002C911397233308F05AC030E020E0822BA3
:1011C000932B9283818312968C9112978487139626
:1011D0008C911397858715968C91159780588483E9
:1011E00017969C9117979058958319968C911997FB
:1011F000805886831B968C91805887832091CC06DB
:101200002A31E1F1DF91CF911F910F91FF90EF9083
:10121000DF90CF90BF90AF909F908F90089541E066
:10122000232B09F440E0242F7CCF8D3119F080323C
:1012300009F0A6CF19968C911997805886838181E1
:1012400092818F7D2F3F3F4761F030E020E0822B7D
:10125000932B9283818312969C91129780E8891B2D
:101260008ECF20E230E0F3CF20E130E09BCF20E2D0
:1012700030E0A5CF80E884838583C4CF90959583A3
:1012800080958783BFCFEF92FF920F931F93CF93E9
:10129000DF9300D000D000D00F920F92CDB7DEB711
:1012A000E62FF0E0EE56FD4F80818F3F81F021E088
:1012B00030E002C0220F331F8A95E2F780911303BA
:1012C000909114032823392381E0232B09F480E033
:1012D0002B960FB6F894DEBF0FBECDBFDF91CF9136
:1012E0001F910F91FF90EF900895EF92FF920F934F
:1012F0001F93CF93DF9300D000D000D00F920F92B6
:10130000CDB7DEB7E982FA820B831C832D833E833F
:101310004F83588769877A878B87EA81FB81808131
:101320008E2191E009F490E081E02885921380E01D
:101330002B960FB6F894DEBF0FBECDBFDF91CF91D5
:101340001F910F91FF90EF900895EF92FF920F93EE
:101350001F93CF93DF9300D000D000D00F920F9255
:10136000CDB7DEB780E02B960FB6F894DEBF0FBE88
:10137000CDBFDF91CF911F910F91FF90EF90089516
:10138000CF93DF9300D00F92CDB7DEB72FB7F8948D
:101390008091840390918503A0918603B091870387
:1013A0002FBF9C01AD0187E0220F331F441F551F43
:1013B0008A95D1F7CA01B9012DE730E040E050E04D
:1013C0000E94A92ECA01B9010F900F900F900F90A3
:1013D000DF91CF910895CF92DF92EF92FF920F931A
:1013E0001F93CF93DF93EC016B01BA01A901F801C0
:1013F000C70120812630E0F4209771F000271127E3
:10140000041B150B601771073CF431962E0D3F2D10
:10141000311DD9011396CC93C114D10449F046175C
:10142000570734F42081820F911DDC011396CC9272
:10143000DF91CF911F910F91FF90EF90DF90CF90B0
:1014400008958F929F92AF92BF92CF92DF92EF92C8
:10145000FF920F931F93CF93DF930F92CDB7DEB719
:101460006C014A0189E0DB018C9386E0F601808300
:10147000EDEFF6E050E040E080E061E070E0919157
:101480009923A1F0D401AD90BC909B01042E02C021
:10149000220F331F0A94E2F72A213B21232B31F03C
:1014A000D601A80FB11D13969C938F5F4F5F5F4FBE
:1014B0004031510509F05EC08983A090B903B09016
:1014C000BA03F401448155816091100770E0809166
:1014D0000F0776018E010F5F1F4F950190E07BDFB4
:1014E000D40116964D915C916091120770E0809145
:1014F0001107950190E06FDFF401408551856091FF
:10150000140770E080911307950190E064DFD40127
:101510001A964D915C916091160770E080911507C5
:10152000950190E058DFA090B703B090B803F401A4
:10153000428150E060910D0770E0950190E080E0FD
:101540004ADFD40113964C9150E060910E0770E091
:10155000950190E080E03FDF0F90DF91CF911F91E8
:101560000F91FF90EF90DF90CF90BF90AF909F9042
:101570008F900895863009F082CF9ECF8F929F92F0
:10158000AF92BF92CF92DF92EF92FF920F931F9391
:10159000CF93DF9300D000D0CDB7DEB78D839E838D
:1015A00069837A83DA0187E0ED81FE8180836FE6CB
:1015B00077E04EE653E0CD01845A9F4F9C838B83A6
:1015C0006D0190E2C91AD10830E020E0F12CFB0156
:1015D0008191BF01882309F444C000EBE02E8130E3
:1015E00011F410E9E12E203108F075C08091CC068D
:1015F00090E081539D4FFC018081813009F05AC0F9
:10160000293008F457C0EB81FC8180818695FA016E
:101610009081981731F1FB0193A49589FA01808399
:10162000AF2CB12CF4E0FF9E80011124ED81FE81EE
:101630000E0F1F1F8E2C8294EFE08E22F801818204
:10164000E928E282938385010F5F1F4F000F111F6E
:10165000000F111FED81FE810E0F1F1FF801808307
:10166000F3942F5F3F4F4F5F5F4F8B819C810196BB
:101670009C838B8392E0C90ED11C2631310509F081
:10168000A6CFFF0CFF0CF394E981FA81F082269635
:101690000FB6F894DEBF0FBECDBFDF91CF911F9183
:1016A0000F91FF90EF90DF90CF90BF90AF909F9001
:1016B0008F9008950D911C91119781E090E0022E7A
:1016C00002C0880F991F0A94E2F780239123892B87
:1016D000C9F480E09BCF9091F70681E0233140F080
:1016E000F601008111819017110608F48FCFF1CF18
:1016F0000B811C810A561109F8011081911708F419
:1017000085CFE7CF80E482CFCF93DF9300D00F92D5
:10171000CDB7DEB7DB019C010E94EE2E69837A8390
:101720008B839C83DC01CB019F77AA27BB27811584
:101730009044A105B105D1F080E090E4A0E0B0E0D4
:1017400029813A814B815C81820F931FA41FB51FB1
:101750002FE0B595A795979587952A95D1F70F9086
:101760000F900F900F90DF91CF91089580E090E05F
:10177000DC01E6CF8EBD00000DB407FEFDCF8EB5B7
:101780000895CF93DF93DC01FC01359685E0EF01EE
:1017900019928A95E9F7862F90E0FC01EA55FE4FF1
:1017A0006491805A9E4FFC01849170E0660F771F10
:1017B000FB01EA5BFE4FC591D491FB01E45DFE4F56
:1017C000659174919091DB078C931296DC93CE9384
:1017D000119714967C936E93139717962C931797E3
:1017E00018964C9318971A969C931A97CD01DF91EF
:1017F000CF91089590E0FC01E05AFE4F2491FC0146
:10180000EA55FE4FE491EE2389F0F0E0EE0FFF1F62
:10181000E45DFE4FA591B4918FB7F894611107C0B4
:101820009C91E22FE095E923EC938FBF0895EC9112
:10183000E22BFACF90E0FC01E05AFE4F2491FC012C
:10184000EA55FE4FE491EE2359F0F0E0EE0FFF1F52
:10185000EA5BFE4FA591B491EC91E22381E009F49B
:1018600080E00895CF93DF93EC018091F506E2DFED
:1018700091E089274FEF5FE7849F9001859F300DAE
:1018800011243B872A87DF91CF91089520917B0017
:10189000982F987F277F922B90937B00877080648E
:1018A00080937C0080917A00806480937A0080919C
:1018B0007A0086FDFCCF80917800909179000895A0
:1018C00080917A0086FDFCCF81E080933E020895EE
:1018D000CF93DF9390E0FC01E05AFE4F24918A55AC
:1018E0009E4FFC0184918823D1F090E0880F991FCE
:1018F000FC01EE5EFE4FA591B491FC01E45DFE4F4C
:10190000C591D491613071F49FB7F8948C91209572
:1019100082238C938881282328839FBF7894DF912A
:10192000CF910895623051F49FB7F8943C91822F83
:10193000809583238C93E8812E2BEECF8FB7F8947C
:10194000EC912E2B2C938FBFE9CFCF92DF92EF92A9
:10195000FF921F93CF93DF936B017C01142FD22F43
:1019600060E083E3B5DF62E082E3B2DF60E084E35E
:10197000AFDF61E085E33EDF60E085E3A9DF1111C1
:10198000C8E0D111C460C11482E1D8068AE7E80634
:10199000F104C8F5C11489E0D8068DE3E806F10426
:1019A000A0F580E8C81684E8D8068EE1E806F104C0
:1019B00070F580E4C81682E4D8068FE0E806F104EA
:1019C00040F580E2C81681EAD80687E0E806F1040F
:1019D00010F580E9C81680EDD80683E0E806F1042A
:1019E000E0F487E091E08927982F96959C2B9065ED
:1019F0009CBD81708DBDDF91CF911F91FF90EF90C5
:101A0000DF90CF90089580E0EDCF81E0EBCF82E0D2
:101A1000E9CF83E0E7CF84E0E5CF85E0E3CFEAE7F5
:101A2000F0E0808184608083808182608083808117
:101A3000816080838081806880830895682F85E33A
:101A4000D9CE7F928F929F92AF92BF92CF92DF9228
:101A5000EF92FF920F931F93CF93DF93CDB7DEB733
:101A600068970FB6F894DEBF0FBECDBF1092850405
:101A70001092840425DF1092C1031092C0031092CB
:101A8000BF031092BE033BECC32E36E0D32E5601AB
:101A900000E04CE0942EAE014F5F5F4F7A01F701FA
:101AA000392D11923A95E9F70B83F50110A11F3FEB
:101AB000D1F1053061F4E091CC06F0E0E153FD4F47
:101AC0008081823021F48091CD06833061F5F5016B
:101AD00081A18D83163308F0165361E086E3810FF0
:101AE000F7DE90917B00812F8870977F892B898307
:101AF000177010641A838091C0039091C1039C01F8
:101B00002F5F3F4F3093C1032093C003989ED001B5
:101B1000999EB00D1124AE53BC4FF701892D019051
:101B20000D928A95E1F70F5FF2E0AF0EB11C06301F
:101B300009F0B5CF8091B6078F3F11F060E0C8DEA5
:101B400010E000E08BE0982EAA24A394B12C2CE0A6
:101B5000722E8090CB0632E08312AFC0F60160890E
:101B60006F3F09F46EC081E00C30110538F4980124
:101B7000285031092230310508F080E0F82FF1704B
:101B8000F88F80FF05C021E08091CF06813009F0F9
:101B900020E02170402FCE010D96F3DDE091CC06C0
:101BA000F0E0E153FD4F2081213009F067C0388D0E
:101BB000332309F463C0F60180888091F906F8E0C8
:101BC0008F9FC00111243D89F70147E011924A958A
:101BD000E9F78B822A87F50102C0EE0FFF1F3A95C5
:101BE000E2F7FC87EB8799878887F5E3F81510F40F
:101BF0003AEC830E61E086E3880D6ADE90917B000B
:101C0000882D8870977F892B8983882D87708064C1
:101C10008A838091C0039091C1039C012F5F3F4F45
:101C20003093C1032093C003789ED001799EB00DFC
:101C30001124AE53BC4FF701872D01900D928A9568
:101C4000E1F70F5F1F4FFFEFCF1ADF0A00311105D9
:101C500009F07FCF68960FB6F894DEBF0FBECDBFF8
:101C6000DF91CF911F910F91FF90EF90DF90CF9078
:101C7000BF90AF909F908F907F9008958C8988231C
:101C800011F088248394682DF601808921DE8091EB
:101C90008404909185049C012F5F3F4F309385040D
:101CA00020938404989ED001999EB00D1124A857CA
:101CB000BB4FFE013D96892DC0CF20E0402F60E054
:101CC000C7015FDD4B85E091CC06F0E0E153FD4FAD
:101CD0008081823029F40230110510F44091DC0734
:101CE00080918404909185049C012F5F3F4F309335
:101CF0008504209384044B87989ED001999EB00D53
:101D00001124A857BB4FF701D6CF982F8D30C9F0BB
:101D10008230B8F08091CD06813021F08091CB06E1
:101D2000813021F48CEE890F823058F08EEC890FCF
:101D3000843038F081E0983031F0923021F080E04A
:101D4000089581E0089508950F931F93CF93809194
:101D5000EE05882391F008EA15E0C0E08C2FD5DF6E
:101D6000811103C061E08C2FB3DD8C2F63DDF8019E
:101D700081938F01CF5FC63489F71092A705109227
:101D8000EE05CF911F910F915CCECF93DF93FC01B5
:101D9000DB018C918052990B880F880F1482858308
:101DA00011968C9111978052990B880F880F16828B
:101DB000878314964D915C9115974095509580912D
:101DC000CC06833290F013968C91139781FF0DC04F
:101DD0008095807E12969C91129796959E739A316B
:101DE00038F5E859FF4F923139F115968C91982FBB
:101DF00096959695969561E096279170D92FD295F4
:101E0000DD0FD07E90E0567D492B5D2B8295869527
:101E1000877086278170382F330F330F330F242FAD
:101E2000352B3093140320931303DF91CF91089542
:101E3000EC59FF4F9E31C9F68083D7CFFC01DB01FF
:101E40008C91880F880F80581482858311968C910D
:101E50001197880F880F80581682878313968C916C
:101E600013978F718E50990B97FD20C091878087B3
:101E700020853185C901880F991F820F931F8032F9
:101E80009105BCF491878087808591854097880F64
:101E9000880F880F1086818714968D919C9180956C
:101EA00090959093140380931303089511861086E0
:101EB000DFCF8FE190E0E6CFFC01DB018C91805811
:101EC000990B1482858312968C9112978058990BE6
:101ED0001682878311968C9111978058990B1086E2
:101EE000818713968C9113978058990B128683875C
:101EF00014968C911497828315968C9115978383F1
:101F000016968D919C918095909590931403809353
:101F100013030895FC01DB018C918F738052990BA0
:101F20009583848311968C9111978F738052990BAE
:101F3000978386838C9190E023E0959587952A95E9
:101F4000E1F78871992711962C91119730E045E0BF
:101F5000359527954A95E1F726703327822B932BE9
:101F600012962C911297221F2227221F822B409714
:101F70009187808712968C9112978F718051990B5F
:101F80009387828712968C91129786958695887191
:101F900013969C911397929596959770892B8283AF
:101FA00013968C9113978F71838314968D919C91C6
:101FB0008095909590931403809313030895DC010A
:101FC000FB0190818181829586958670292F2695C7
:101FD000269526952871822B2281221F2227221FD7
:101FE000822B990F990F905814961C92149715965E
:101FF0009C9315979181990F990F905816961C9262
:10200000169717969C9317979481238190FF3AC057
:1020100030E0209530952F713327205E3F4F199681
:102020003C932E931897082E000C990B228120FFC9
:1020300030C02FE330E0281B390B1B963C932E93C6
:102040001A97828186958695887193819295969547
:102050009770892B12968C931297828190E09595B8
:1020600087958F7013968C93848195819827892703
:102070009827809590958D7C937690931403809308
:1020800013030895922F9F7120E230E0291B31093C
:10209000C6CF20E230E0CFCFCF93DF93FC01EB013E
:1020A0008A8190E0982F882788279F706881862BE7
:1020B000958384838A8120E1829FC001112488272F
:1020C0009F706981862B978386838B8183838D8123
:1020D00081FB992790F9392F3295330F330F307CDC
:1020E00020E0982F9695969561E096279170B92FEC
:1020F000B295BB0FB07EA0E02A2B3B2B8170582FEE
:102100005295507F422F532B509314034093130347
:10211000DF91CF910895FC01DB018D919C91119786
:102120009583848312968D919C91139797838683D0
:1021300014968C9183830895FB018481958198275F
:102140008927982780959095909314038093130383
:10215000089580E073DC81EE0DDB81E06FCC80E0E0
:102160006DDC82EE07DB81E069CC80E067DC80E536
:1021700001DB83E7FFDA81E061CCCF9380E05EDCB6
:102180008FEFF8DAC82F81E059DC8C2FCF910895BA
:102190000F931F93CF93DF93EC018C01060F111D5A
:1021A000C017D10729F4DF91CF911F910F910895A6
:1021B0008991E0DAF5CFCF93DF93D82FC62F80E057
:1021C0003DDC8D2F8062D6DA8C2FD4DA81E0DF916E
:1021D000CF9134CCF89488E198E00FB6F894A895A4
:1021E000809360000FBE90936000FFCF1F93CF934A
:1021F000DF93182FD62FC72F80E020DC812F80623D
:10220000B9DA64E08D2F9C2FC3DF81E0DF91CF919D
:102210001F9114CC1F93CF93DF93182FEB0180E015
:102220000DDC812FA7DA8881A5DA888381E0DF9130
:10223000CF911F9103CCCF93DF930F92CDB7DEB731
:10224000BE016F5F7F4FE6DF89810F90DF91CF91F5
:102250000895FF920F931F93CF93DF93082FF92ECA
:1022600060E487E0A8DF80E0E9DB80E683DA80E0F5
:1022700081DA182F81E0E2DB80E0E0DB81E67ADAC8
:10228000C02FDF2D8C2F801B811750F081E0D6DB13
:10229000812F90E0DF91CF911F910F91FF900895D2
:1022A000899168DAFE0131978083ECCFFF920F931A
:1022B0001F93CF93DF93D82FC92FF62E072F142FFC
:1022C000109286055ADF282F30E035952795277024
:1022D0003327232BE1F48F2D902FBBDF60E487E0C1
:1022E0006ADF01E060E387E066DF80E0A7DB80EA89
:1022F00041DA612F8D2F9C2F4BDF81E09FDB802FF8
:1023000090E0DF91CF911F910F91FF90089500E031
:10231000E9CF85ED8093BC008FEF9FE72091BC0053
:1023200024FD03C01092AB0302C00197B9F70895D2
:10233000CF93DF93DC01FA0184E1EB0188831C92E7
:1023400011968C93119712968CE001900D928A95BC
:10235000E1F7DF91CF910895CF93282FCB01C42FC0
:102360004FEF5FE7C13228F080E045C0415051098E
:10237000D9F33091AB033111F9CF31E03093AB0396
:102380003093AA034FEF40934A0310926C034C0F13
:1023900040936B0330936D0330916D03220F232B19
:1023A00020936D032091A903222381F11092A903A8
:1023B00020916D032093BB002FEF3FE74091BC00BD
:1023C00043FD1BC025EC2093BC002FEF3FE740915D
:1023D000AB034130E9F020916C032C1710F4C0914D
:1023E0006C034C2F50E06BE473E00E94362F81E0C9
:1023F000CC2309F4B9CFCF9108952150310909F4C4
:10240000B3CF40916D034093BB00D8CF25EEDBCF17
:1024100021503109E1F6A8CFCF93C82F8FEF9FE766
:10242000413220F080E03FC00197E1F32091AB03FF
:102430002111FACF82E08093AB0381E08093AA035D
:102440008FEF80934A0310926C0340936B0350E02C
:102450008BE493E00E94362F10926D0380916D0300
:10246000CC0FC82BC0936D038091A903882329F159
:102470001092A90380916D038093BB008FEF9FE7BB
:102480002091BC0023FD11C085EC8093BC008FEF30
:102490009FE72091AB03223091F090914A0381E0B5
:1024A0009F3F09F0BFCFCF910895019709F4BACFAC
:1024B00020916D032093BB00E3CF85EEE6CF01971B
:1024C00041F7B0CFEF92FF920F931F93CF93DF931B
:1024D0000F92CDB7DEB7182F6983E42EF22E032FAB
:1024E00041E0BE016F5F7F4F97DF882371F04E2D73
:1024F0006F2D702F812F30DF81700F90DF91CF9182
:102500001F910F91FF90EF90089580E0F5CFA3E920
:10251000B3E01396ED91FC91149780819C91892BE7
:102520008083A8E8B3E01396ED91FC911497808125
:102530009C91892B8083AEE9B3E01396ED91FC91D9
:10254000149780819C91892B808380E58A95F1F78F
:102550000895CF92DF92EF92FF920F931F93CF9344
:10256000DF938C01EB016C017B01E40EF11CCE15B5
:10257000DF0549F4DF91CF911F910F91FF90EF900C
:10258000DF90CF9008958AE50115110589F0F601D5
:102590009081892F86958575990F9A7A892B982F26
:1025A000969596959373880F880F8C7C892B8295CE
:1025B000E1D8982F86958575990F9A7A892B982F4F
:1025C000969596959373880F880F8C7C892B8295AE
:1025D0008993F0E5FA95F1F78FEFC81AD80AC7CFBB
:1025E0000F931F93CF93DF938C01C62FE091A1032C
:1025F000F091A203908180919E038095892380832E
:10260000E0918B03F0918C039081809188038095F9
:1026100089238083E0919603F091970390818091C4
:10262000930380958923808380E58A95F1F743E0C1
:1026300065E173E0C8018DDF809116038F3F49F497
:10264000D0E0C0E064DFCE01DF91CF911F910F9108
:102650000895909117039A3511F09111F1CF8F7071
:10266000D82FDD0FC33039F04DEF4C0F68E173E028
:10267000C80103966EDFDD5F4D2F4C1BDC1761F048
:102680006C2F70E0CB01840F911D8197CCF66B5EAF
:102690007C4F90E080E05DDFC5E1D3E0D3CFCF9207
:1026A000DF92EF92FF920F931F93CF93DF9300D0AF
:1026B00000D0CDB7DEB78D839E83062F0E94C00960
:1026C0006B017C0110E0602F8D819E8189DFFC0110
:1026D000892B51F01F5F8D819E818A5B924059F555
:1026E0008181807F803F81F18FE39CE90197F1F741
:1026F00000C000000E94C00969837A838B839C8399
:10270000DC01CB018C199D09AE09BF098B3F9105F6
:10271000A105B105C0F280E026960FB6F894DEBFA1
:102720000FBECDBFDF91CF911F910F91FF90EF9022
:10273000DF90CF9008958D819E81865B924031F429
:102740008181807F803F81F281E0E6CF1330E0F726
:10275000CBCFCF93DF93EC0163E083EB92E040DFDC
:10276000FC01892B49F08181982F907F903F31F4B3
:1027700064E086EB92E093DF80E01FC02381348128
:102780009035F1F488E080933F028181823179F4C1
:1027900089E080933F0285818058990B1C828D834C
:1027A00046818FE790E0841B91091E828F8381818F
:1027B000807D803509F457C081E0DF91CF91089585
:1027C000833241F585E080933F0285818058990BE3
:1027D0001C828D83888199819F7B46814138B0F529
:1027E00050E040E0842B952B998388839F77478125
:1027F000413878F550E040E0842B952B998388830D
:102800009E7F4085413F40F550E040E0842B952B72
:10281000998388838181807F803E09F0B6CF86E0EE
:1028200080933F02858190E09D838C839681858192
:1028300097FD15C087FD8FE790E09D838C838C8189
:102840009D8180589F4F9D838C839FCF40E050E4B3
:10285000C9CF40E050E8D0CF40E051E0D7CF813839
:1028600058F781E8E9CF85818058990B18868987C8
:1028700046818FE790E0BC01641B71091A866B8763
:1028800047814058550B1C824D834085841B91091C
:102890001E828F838181893709F08ECF83898A8355
:1028A00084898B8380913F02843009F085CF8189B0
:1028B00090E09987888720953095222731704FEFD7
:1028C0005FE7249FC001259F900D349F900D112438
:1028D0009B878A8771CF1F93CF93DF93182FD92FB0
:1028E00080913F028A30A9F5C5E0812F9D2F31DF0D
:1028F0008FE99FE00197F1F700C00000C150A9F7F0
:10290000812F9D2F26DF882361F164E08AEB92E01E
:10291000C6DE882381F163E082EA92E061DEFC0199
:10292000892B49F08381833021F18130F1F4818159
:10293000823409F0C4E0C0933F0265E08EEA92E081
:10294000AEDE69E085EA92E0AADE64E086EB92E022
:10295000A6DE812F9D2FFDDE811103C08AE08093CA
:102960003F02DF91CF911F9108958C3021F7C3E092
:10297000E2CFC2E0E0CF81E080933F02EACFFF9256
:102980000F931F93CF93DF930F92CDB7DEB7898359
:10299000F62E8A0141E0BE016F5F7F4F82E53CDD8C
:1029A000882351F08FEC92E00197F1F700C000000E
:1029B0004F2DB80182E5D0DC0F90DF91CF911F91B0
:1029C0000F91FF900895CF93DF9300D000D0CDB743
:1029D000DEB7AE014F5F5F4F66E08AEFD0DFFE01EA
:1029E0003196AE01495F5F4F8FEF90E02191922BBE
:1029F00082234E175F07D1F7992369F08F3F59F073
:102A000099818E8126960FB6F894DEBF0FBECDBF9A
:102A1000DF91CF9108958FEF9FEFF4CFFF920F9347
:102A20001F93CF93DF9300D000D000D00F92CDB78B
:102A3000DEB76B837C838D839E832F8338874987A2
:102A40005A8781E08093860560E088E00E94680CE8
:102A500060E085E30E94680C20E040E060E074E202
:102A600084EF90E00E94A50C60E088E00E94FA0BE1
:102A700081E00E941E0D8FE19EE40197F1F700C0F6
:102A8000000061EF84E097DB62E083E094DB8E017D
:102A90000F5F1F4FB80186E0BDDB6981697F6983E5
:102AA00086E089DB8DE1C7DBF82E5FDB8DE1C3DBE0
:102AB000882331F0F81201C058DB60E08DE17BDB48
:102AC000BE016E5F7F4F86E0A5DB6A81677D636034
:102AD0006A8386E070DBB80186E09CDBB80180E0A9
:102AE00099DB69816C60698380E065DB6CE485E07B
:102AF00062DB8DE1A0DB682F64608DE15CDB8CE143
:102B00009ADB682F6F638CE156DB8DE194DB682FD5
:102B100066608DE150DB8CE18EDB682F63608CE1B9
:102B20004ADB6FE381E047DB60E787E044DB17DBEC
:102B300010DB1982B80180E06DDB89818C78898394
:102B400060E088E00E94FA0B6981626080E033DB1C
:102B500061E088E00E94FA0BBE016D5F7F4F8AE062
:102B600045DBBE016D5F7F4F80E140DB60E088E0C8
:102B70000E94FA0BBE01695F7F4F8BE037DB63E099
:102B800082E019DB61E088E00E94FA0B8091690025
:102B9000826080936900EC9A2A960FB6F894DEBFA3
:102BA0000FBECDBFDF91CF911F910F91FF90089580
:102BB000CF93DF9300D00F92CDB7DEB720E030E0A7
:102BC00040E057E469837A838B839C8369817A81AF
:102BD0008B819C810E94032E69837A838B839C83E3
:102BE00069817A818B819C810E94FE2CCB010F90A0
:102BF0000F900F900F90DF91CF9108958F929F9239
:102C0000AF92BF92CF92DF92EF92FF920F931F93FA
:102C1000CF93DF9300D000D00F920F92CDB7DEB7E5
:102C20008C016F8378872F8138852817390749F4FD
:102C300080E090EA121613060CF06CC080E090E27F
:102C400069C0990F880B982F809590959801282737
:102C50003927A901481B590B5E834D838F819885C5
:102C6000990F880B982F809590952F81388528276C
:102C70003927B901681B790B7A83698364EE77EF92
:102C800081EB9DE395DFD82EC92E69EF7DE78CEAB5
:102C90009EE38EDF7C018F8198859C01990F440B08
:102CA000550B4801012E000CAA08BB08A981BA8166
:102CB0006D817E81A617B7070CF03FC0D501C40116
:102CC0006FE0880F991FAA1FBB1F6A95D1F78983F0
:102CD0009A83AB83BC83BC01CD010E94CB2E4901FA
:102CE000C901990F880B982F80959095BC01622798
:102CF0007925681B790B8D2D9C2D0E94840BB401C6
:102D00008E0D9F1D0E94840BAF81B8851A161B067D
:102D10000CF0905828960FB6F894DEBF0FBECDBFCA
:102D2000DF91CF911F910F91FF90EF90DF90CF90A7
:102D3000BF90AF909F908F900895CA01B9012FE086
:102D4000660F771F881F991F2A95D1F769837A83A9
:102D50008B839C83A50194010E94CB2E4901C9015C
:102D6000990F880B982F80959095BC01682579253F
:102D7000681B790B8D2D9C2D0E94840BB4018E0D48
:102D80009F1D0E94840B9C0180E090E410161106A8
:102D900014F080E090EC821B930BBCCF7F928F925B
:102DA0009F92AF92BF92CF92DF92EF92FF920F93DA
:102DB0001F93CF93DF9300D000D00F920F92CDB727
:102DC000DEB78C016F837887AF81B8858C9180588E
:102DD000990BF8011482858312968C911297805872
:102DE000990B168287838091D206882309F4D5C077
:102DF00015967C901597872D90E01396EC9013977D
:102E0000F4E0EF9E900111247C0144E0F594E794F6
:102E10004A95E1F743E0E422FF24E22AF32A1496DC
:102E20002C9154E0259F90011124959587959595B7
:102E3000879583709927822B932B9C0150E040E06B
:102E400029833A834B835C83CA01B9010E94362EE1
:102E500020E030E84FEF53E469837A838B839C83CF
:102E600069817A818B819C810E949C2D4B018D838D
:102E70009E83AF81B88512968C91B4E08B9FC00180
:102E8000112472947694769463E0762287299C01CB
:102E900050E040E029833A834B835C83CA01B90147
:102EA0000E94362E20E030E84FEF53E469837A83A6
:102EB0008B839C8369817A818B819C810E949C2D6C
:102EC00094014D815E8169837A838B839C836981C0
:102ED0007A818B819C810E94C82B20EE3EE245E6E0
:102EE00052E469837A838B839C8369817A818B81A5
:102EF0009C810E94032E69837A838B839C836981E2
:102F00007A818B819C810E94052ED80119967C9331
:102F10006E931897970150E040E029833A834B83E2
:102F20005C83CA01B9010E94362E20E030E84FEFE1
:102F300053E469837A838B839C8369817A818B8153
:102F40009C810E949C2D94014D815E8169837A83CE
:102F50008B839C8369817A818B819C810E94C82BA1
:102F600020EE3EE245E652EC69837A838B839C83B4
:102F700069817A818B819C810E94032E69837A8387
:102F80008B839C8369817A818B819C810E94052E31
:102F9000D8011B967C936E931A97EF81F8858581F3
:102FA000982F90959170D92ED29490EFD922C12C60
:102FB000869591E089278170B82EB294BB0CBB0C2A
:102FC00020ECB222A12CCA28DB28D0921403C09294
:102FD000130328960FB6F894DEBF0FBECDBFDF9166
:102FE000CF911F910F91FF90EF90DF90CF90BF9006
:102FF000AF909F908F907F900895EF92FF920F93E4
:103000001F93CF93DF930F920F92CDB7DEB7082FA8
:10301000142F732F8DB79EB79A83898350E0CA010E
:103020000196EDB7FEB7E81BF90B0FB6F894FEBF9B
:103030000FBEEDBF8DB79EB701967C016183622FF5
:1030400001960E94362F41E0410FB701802FE4D94D
:10305000E981FA810FB6F894FEBF0FBEEDBF0F9065
:103060000F90DF91CF911F910F91FF90EF900895F6
:10307000EF92FF920F931F93CF93DF930F92CDB7F1
:10308000DEB780910702811109C08FEF0F90DF91A9
:10309000CF911F910F91FF90EF9008951982A09109
:1030A0000102B0910202E0910302F09104028E014C
:1030B0000F5F1F4F980141E051966C9180819DDF19
:1030C0007801882311F3A0910102B0910202E091EE
:1030D0000302F0910402980141E015966C91808101
:1030E0008CDF882391F2A0910102B0910202E0915D
:1030F0000302F0910402980141E014966C918081E2
:103100007CDF882309F4C1CFE0910102F091020233
:103110006481E0910302F091040280911E028823F1
:1031200009F457C08CE08983980141E0808165DF14
:10313000882309F4AACF2FEF80E792E02150804046
:103140009040E1F700C0000080EC89838091070285
:1031500080FF02C080EE8983A0910102B09102023B
:10316000E0910302F0910402970141E014966C9102
:10317000808143DF882309F488CF80910D02882362
:1031800031F182E08983A0910102B0910202E091C5
:103190000302F0910402970141E051966C91808105
:1031A0002CDF882309F471CF1982A0910102B0911C
:1031B0000202E0910302F0910402970141E01596AA
:1031C0006C9180811ADF91E0892781955FCF198208
:1031D000DACF84E08983980141E080810EDF882383
:1031E00009F453CF80910E02811104C0809107022F
:1031F00080FD3EC080E48983A0910102B09102026B
:10320000E0910302F0910402970141E014966C9161
:103210008081F3DE882309F438CF2FEF80E792E036
:10322000215080409040E1F700C0000080910D02E5
:10323000882301F181E08983A0910102B09102020B
:10324000E0910302F0910402970141E051966C91E4
:103250008081D3DE882309F418CFA0910102B091B8
:103260000202E0910302F09104022CE032E0A6CFCA
:1032700080E6C1CF1982E0CF8F929F92AF92BF922A
:10328000CF92DF92EF92FF920F931F93CF93DF9332
:10329000CDB7DEB7EA970FB6F894DEBF0FBECDBF4D
:1032A00089AF9AAF1092390310923803D090B603C9
:1032B000ED2CF12C80911E02882309F180910702E8
:1032C0008823E9F0A0910102B0910202E09103028B
:1032D000F09104029E012F5D3F4F42E01C966C91DD
:1032E0008081F0D8882359F009A11AA1102701275D
:1032F00010270E151F0508F0E5C0109237038091C6
:103300003803909139038115914009F069C36091A8
:103310003A0370913B0380913C0390913D030E94DE
:10332000382E20E030E040E054E36BA37CA38DA373
:103330009EA36BA17CA18DA19EA10E94032E6BA3D5
:103340007CA38DA39EA36BA17CA18DA19EA10E94B5
:10335000052E4B0170933B0360933A0360913E034B
:1033600070913F0380914003909141030E94382E59
:1033700020E030E040E054E36BA37CA38DA39EA348
:103380006BA17CA18DA19EA10E94032E6BA37CA3A7
:103390008DA39EA36BA17CA18DA19EA10E94052E51
:1033A0006BA37CA38DA39EA3EBA1FCA1F0933D0393
:1033B000E0933C0360914203709143038091440386
:1033C000909145030E94382E20E030E040E054E325
:1033D0006FA378A789A79AA76FA178A589A59AA5B1
:1033E0000E94032E6FA378A789A79AA76FA178A53B
:1033F00089A59AA50E94052E6B0170933F036093E7
:103400003E03609146037091470380914803909179
:1034100049030E94382E20E030E040E054E36FA3DF
:1034200078A789A79AA76FA178A589A59AA50E94D0
:10343000032E6FA378A789A79AA76FA178A589A55E
:103440009AA50E94052E8B0170934103609340035F
:103450008091FA06009FA001019F500D500D11248C
:10346000813009F40BC2823009F41AC381119BC266
:10347000CC9CC001CD9C900D900D1124840F951F04
:10348000880F991F60E070E8681B790B8BA19CA1E5
:10349000C89EA001C99E500DD89E500D1124089DB4
:1034A000C001099D900D189D900D1124DA01A81BF3
:1034B000B90BCD01880F991FA1DB90933603809340
:1034C000350371C2E0910302F0910402818192817F
:1034D0009695879580179107A8F4A0910102B09165
:1034E00002029E012F5D3F4F41E053966C91808117
:1034F0000E946212882309F402CF89A184FF02C0CE
:10350000B7DDFDCEA0910102B0910202E09103026D
:10351000F09104029E012F5F3F4F4D2D1D966C913F
:1035200080810E946212882309F4E9CEC801B701A4
:103530000E94822E615060933703E091B203F091B4
:10354000B303CF0184719927892B09F495C129818F
:103550003A814B815C81CA01B9010E94E72E4B017F
:103560005C0180923A0390923B03A0923C03B0929C
:103570003D038D819E81AF81B885BC01CD010E9444
:10358000E72E6B017C01C0923E03D0923F03E09294
:103590004003F092410329853A854B855C85CA0139
:1035A000B9010E94E72E8B019C0100934203109306
:1035B000430320934403309345038D859E85AF8557
:1035C000B889BC01CD010E94E72EAB01BC0140933C
:1035D0004603509347036093480370934903C50122
:1035E000BB2797FDB095AB2F8BA39CA3ADA3BEA328
:1035F000C701BB2797FDB095AB2F8FA398A7A9A7AD
:10360000BAA7C901BB2797FDB095AB2F8BA79CA785
:10361000ADA7BEA7CB01BB2797FDB095AB2F8FA75A
:1036200098ABA9ABBAAB2BA13CA14DA15EA1CA013D
:10363000B9010E94732E6BA37CA38DA39EA32FA11F
:1036400038A549A55AA5CA01B9010E94732E6FA3D6
:1036500078A789A79AA7CBA0DCA0EDA0FEA0C60EF4
:10366000D71EE81EF91E2BA53CA54DA55EA5CA01D7
:10367000B9010E94732EC60ED71EE81EF91E2FA593
:1036800038A949A95AA9CA01B9010E94732E6BA38E
:103690007CA38DA39EA3C60ED71EE81EF91E9FE035
:1036A000F91AA1E0CA16D104E104A2E0FA0630F04A
:1036B000DFDC109239031092380321CE8091380359
:1036C000909139039160909339038093380380E19E
:1036D000E6FF4DC0A1E0B0E0AC0FBD1FA80FB11DCB
:1036E0009C9121E0280FA1E0B0E0AC0FBD1FA20F1C
:1036F000B11D2C91392F309301002093000092E0EE
:10370000980FA1E0B0E0AC0FBD1FA90FB11D9C91B7
:1037100023E0280FA1E0B0E0AC0FBD1FA20FB11D48
:103720002C91392F309303002093020094E0980FDE
:10373000A1E0B0E0AC0FBD1FA90FB11D9C9125E029
:10374000280FA1E0B0E0AC0FBD1FA20FB11D2C915E
:10375000392F30930500209304008A5F20913803AD
:1037600030913903286030933903209338039F0147
:1037700020783170232B09F44DC0A1E0B0E0AC0FEC
:10378000BD1FA80FB11D9C9121E0280FA1E0B0E062
:10379000AC0FBD1FA20FB11D2C91392F309301002A
:1037A0002093000092E0980FA1E0B0E0AC0FBD1FA5
:1037B000A90FB11D9C9123E0280FA1E0B0E0AC0F50
:1037C000BD1FA20FB11D2C91392F30930300209300
:1037D000020094E0980FA1E0B0E0AC0FBD1FA90F6C
:1037E000B11D9C9125E0280FA1E0B0E0AC0FBD1FFA
:1037F000A20FB11D2C91392F3093050020930400A6
:103800008A5F209138033091390320673093390360
:1038100020933803E370FF27EF2B09F470CD01E00C
:1038200010E00C0F1D1F080F111DF801F38081819E
:1038300080FF0FC0E091AC03F091AD03309749F0E9
:103840006F2D67706F5F8F2D869586958695877033
:103850001995D80111968C9183FF51CDE091AE035B
:10386000F091AF03309709F44ACD8F2D829586955C
:1038700086958370199543CD80E02ACFEBA1FCA1FA
:103880000E9FC0010F9F900D1E9F900D1124C89C8C
:103890009001C99C300DD89C300D11247C01E21A96
:1038A000F30AB701C7010E94840B8C01BC010E947E
:1038B000840B5C01BC010E94840B6C0160E670EB20
:1038C00089E39DE375D9B8010E94840B8BA39CA367
:1038D0006AE27EEE87E39CE36BD98FA398A76EEF35
:1038E0007AEB87ED9CE364D9B8010E94840B8BA727
:1038F0009CA766EA79EB88EA9CE35AD98FA798AB34
:1039000062E377E88AEF9CE353D9B8010E94840B05
:103910008BAB9CAB63E87EEC86E39DE349D98DAB32
:103920009EAB6AEC79E989E99DE342D9B8010E942E
:10393000840B8FAB98AF6AEA7AEA8AE29EE338D9C1
:103940004C01B5018BA19CA12FA138A5821B930B23
:103950000E94840B2BA53CA54FA558A9240F351F09
:10396000B601820F931F0E94840B6C01B5018BA9D5
:103970009CA9ADA9BEA98A0F9B1F0E94840B8C0D28
:103980009D1DEFA9F8AD8E0E9F1EB801880D991DE3
:103990000E94840BB7010E94840BE80EF91EF0927E
:1039A0003603E092350380913503909136038A39CE
:1039B000A9E19A070CF495C089E999E1909336033F
:1039C00080933503209135033091360345E0429FC3
:1039D000C001439F900D11249093360380933503CB
:1039E00020913503309136038091F606882319F033
:1039F0003195219531093093360320933503309367
:103A0000450520934405032E000C440B550B809173
:103A1000D7079091D807092E000CAA0BBB0B281BC7
:103A2000390B4A0B5B0BA091D507B091D6070E94CA
:103A3000132F20E034E040E050E00E94CB2EDA016A
:103A4000C9019058A109B1098115E0E89E07EFEF7F
:103A5000AE07BE0724F480E090E8AFEFBFEF81151A
:103A6000F0E89F07A105B10524F08FEF9FE7A0E0E4
:103A7000B0E0E9ADFAAD93878287EA960FB6F89485
:103A8000DEBF0FBECDBFDF91CF911F910F91FF9091
:103A9000EF90DF90CF90BF90AF909F908F90089560
:103AA000889CC001899C900D900D1124840F951F56
:103AB000880F991F60E070E8681B790B8BA19CA1AF
:103AC000889DA001899D500D989D500D11240C9D3D
:103AD000C0010D9D900D1C9D900D1124840F951F0C
:103AE000E9CC8736964E0CF06DCF87E696EE66CF22
:103AF000CF93DF930F92CDB7DEB79C018091070281
:103B0000811105C08FEF0F90DF91CF91089581E073
:103B10002C3B310588F482E02236310568F483E0DD
:103B20002A32310548F484E02431310528F485E057
:103B30002A30310508F486E0898390910802898152
:103B40009817A9F0A0910102B0910202E09103023E
:103B5000F09104029E012F5F3F4F41E012966C915D
:103B600080814BDA882371F289818093080280E09A
:103B7000CACFEF92FF920F931F93CF93DF930F92D1
:103B80000F92CDB7DEB7FC018B017A01809107025D
:103B900081110AC08FEF0F900F90DF91CF911F918D
:103BA0000F91FF90EF9008959E2F8F2F9A83898316
:103BB000A0910302B09104029B012E0F311D1896B3
:103BC0008D919C9119978217930720F3E091010240
:103BD000F09102029E012F5F3F4F42E0638D8C9176
:103BE0000CDA8823B9F2A0910102B0910202E091AF
:103BF0000302F09104029701402F58966C91808146
:103C0000FCD991E089278195C6CFCF93DF930F929E
:103C1000CDB7DEB780910702811105C08FEF0F90FD
:103C2000DF91CF91089588E18983809105028330E7
:103C3000C1F0A0910102B0910202E0910302F09163
:103C400004029E012F5F3F4F41E016966C918081E8
:103C5000D4D9882319F38981869586958695809392
:103C6000050280E0DCCFCF93DF930F92CDB7DEB7B4
:103C700080910702811105C08FEF0F90DF91CF91E6
:103C800008951982809106028823C1F0A091010253
:103C9000B0910202E0910302F09104029E012F5FB5
:103CA0003F4F41E017966C918081A7D9882321F37B
:103CB00089818695869586958093060280E0DDCF82
:103CC0000F931F93CF93DF930F92CDB7DEB7809101
:103CD0000E02882309F458C0A0910102B09102029B
:103CE000E0910302F09104028E010F5F1F4F9801D3
:103CF00041E014966C9180810E946212811107C08C
:103D00008FEF0F90DF91CF911F910F9108958981CF
:103D10009091070290FF3AC080628983A0910102CE
:103D2000B0910202E0910302F0910402980141E097
:103D300014966C91808161D9882311F38FED9EE2F6
:103D40000197F1F700C0000080911C02882301F167
:103D500080E8898380911D02882319F0898180631E
:103D60008983A0910102B0910202E0910302F091D7
:103D70000402980141E057966C9180813ED98823D6
:103D800009F4BECF10920E0280E0BBCF8F7DC5CF6D
:103D90001982E0CFCF93DF930F92CDB7DEB769835F
:103DA0009E012F5F3F4F41E0682F82E526D90F909B
:103DB000DF91CF910895EF92FF920F931F93CF93CE
:103DC000DF93CDB7DEB768970FB6F894DEBF0FBEAE
:103DD000CDBF7C0180914002909141028F3F9807B6
:103DE00009F072C00E94E3149C01909341028093F9
:103DF00040022F3F3F4FC1F465E580EFCBDF85E305
:103E00008A95F1F7000060E08BEFC4DF95E39A95A7
:103E1000F1F700000E94E314909341028093400266
:103E200025E32A95F1F7000080914002909141022C
:103E300083319F4F71F461E08BEFACDF85E38A95AE
:103E4000F1F7000065E580EFA5DF95E39A95F1F7BE
:103E5000000080914002909141029E7F019709F0FD
:103E6000A8C063E08EEF96DF25E32A95F1F7000006
:103E7000AE01475F5F4F68E080E00E94BF148FE1B2
:103E800093E00197F1F700C00000AE014F5F5F4F74
:103E900068E080E00E94BF1448E050E0BE016F5F20
:103EA0007F4FCE0109960E94292F892BD9F58F8546
:103EB0009889892B09F074C08AE89FE090931203D7
:103EC0008093110386E073C08B30984109F48ACF48
:103ED0008E010F5E1F4FA8016091000280E00E94DA
:103EE000BF14B801882389F0F80180910002A8016D
:103EF000480F511D8FEF90E04E175F0779F499231B
:103F000009F470CF8F3F09F46DCFE0911103F09168
:103F10001203309779F1C70119952CC02191922B8A
:103F20008223EACF8FE193E00197F1F700C09FCFA2
:103F3000419709F051C08CE990E118C082312FEF10
:103F4000920759F158F4833021E0920719F1833038
:103F5000934009F041C08FED9FE008C083319F4F2F
:103F6000D9F58BE890E102C08EE19FE090931203B7
:103F70008093110368960FB6F894DEBF0FBECDBFD5
:103F8000DF91CF911F910F91FF90EF9008958EECEC
:103F900096E1ECCF85EC9EE0E9CF8CE490E1E6CFB2
:103FA0008CE59FE0909312038093110388E0809347
:103FB00000028091400290914102813021E09207FD
:103FC000C9F208F0BBCF8330910571F208F0B0CF91
:103FD0000097E9F2019771F28BE098E1909341022A
:103FE000809340021092120310921103C3CF1F93CB
:103FF000CF93DF930F92CDB7DEB7182F80911D02BC
:10400000811731F1112349F180E3898380910E02F8
:10401000882319F089818260898380911C0288231A
:1040200019F0898180688983A0910102B091020210
:10403000E0910302F09104029E012F5F3F4F41E0A7
:1040400057966C9180810E94FD17811110931D027B
:104050000F90DF91CF911F9108951982D7CFEF92E2
:10406000FF921F93CF93DF930F92CDB7DEB7182F38
:10407000807719F081E0898303C01123F9F0198258
:10408000A0910102B0910202E0910302F0910402BA
:10409000CE0101967C019C0141E055966C91808196
:1040A0000E94FD17970181110BC0109207020F901B
:1040B000DF91CF911F91FF90EF90089580E4DBCFC7
:1040C00089818F7B8093090216FF33C0198215FD09
:1040D00003C089818260898314FD03C08981816066
:1040E000898313FD03C0898188638983A0910102BC
:1040F000B0910202E0910302F091040241E0569671
:104100006C9180810E94FD17882379F2812F877F2F
:1041100011F080E06CDF10930702109210029FEF05
:1041200020E782E0915020408040E1F700C000008D
:10413000BECF84E08983CBCFCF93DF930F92CDB7EF
:10414000DEB790911E029923F1F0882341F182E0BD
:104150008983A0910102B0910202E0910302F091E3
:1041600004029E012F5F3F4F41E051966C91808188
:104170000E94FD17882319F0898180930D020F900A
:10418000DF91CF910895909107029923C1F388237D
:1041900031F080910D028111F2CF81E0D9CF1982E7
:1041A000D8CF1F93CF93DF93D82F80911E02C0E00A
:1041B000811120C0809107028823C1F010910C0268
:1041C0008D2380930C02C1E08D1301C0C0E0C19526
:1041D000809110028D2B61F081E0AEDFDD2351F084
:1041E0000E943818882331F010930C02CFEF02C0E0
:1041F00080E0A2DF8C2FDF91CF911F9108951F9354
:10420000CF93DF930F920F92CDB7DEB7182F8111A6
:104210001FC080E0ECDE198287E08A83A091010252
:10422000B0910202E0910302F09104029E012F5F1F
:104230003F4F42E055966C9180810E94FD1781119D
:10424000109210020F900F90DF91CF911F9108955F
:1042500081E0CDDE80E28983113049F51A8285E064
:1042600090E046DC8A8120E4829FC00111248760AF
:104270008A83A0910102B0910202E0910302F091C1
:1042800004029E012F5F3F4F42E055966C91808162
:104290000E94FD178823B1F288E0809307021092F4
:1042A000090281E08093100280E07BDFCBCF1630E3
:1042B00018F481E08A83D3CF153128F482E08A8311
:1042C0008AE090E0CECF83E08A8384E190E0C9CF9A
:1042D0000F931F93CF93DF930F92CDB7DEB78C016F
:1042E00080910702811107C08FEF0F90DF91CF916E
:1042F0001F910F91089580911E028111F5CF809139
:104300001002882351F0C8010197889720F4802F6C
:1043100076DF80E0EACF80E072DFB801093E13402B
:1043200010F068EE73E06430710510F464E070E042
:1043300008EE13E0C8010E94822E61506983A091AB
:104340000102B0910202E0910302F09104029E0189
:104350002F5F3F4F41E011966C9180810E94FD17C5
:10436000882309F4C1CF698170E06F5F7F4FC80176
:104370000E94962E70930B0260930A02CB019695D1
:104380008795B6DBC6CF1F920F920FB60F921124FE
:104390000BB60F922F933F934F935F936F937F933F
:1043A0008F939F93AF93BF93EF93FF93CF93DF933D
:1043B00000D00F92CDB7DEB783B78E7F83BFE4E620
:1043C000F0E0808180718083E5E6F0E08081807C90
:1043D00080830E940F0DE4E0FBE725913591459124
:1043E0005491E0E0FBE785919591A591B491898383
:1043F0009A83AB83BC83BC01CD010E940E15E9E614
:10440000F0E08081877F8083E9980F900F900F9074
:104410000F90DF91CF91FF91EF91BF91AF919F915D
:104420008F917F916F915F914F913F912F910F905D
:104430000BBE0F900FBE0F901F9018951F921FB6C6
:104440001F9211248F939F93AF93BF938091840306
:1044500090918503A0918603B09187030196A11DD9
:10446000B11D8093840390938503A0938603B0933A
:104470008703BF91AF919F918F911F901FBE1F9097
:1044800018951F920F920FB60F9211240BB60F9230
:104490002F933F934F935F936F937F938F939F934C
:1044A000AF93BF93EF93FF938091B900887F8833D8
:1044B00009F463C0C8F58032A1F178F5883009F4B9
:1044C00054C0B0F4882309F474C0FF91EF91BF91F8
:1044D000AF919F918F917F916F915F914F913F919C
:1044E0002F910F900BBE0F900FBE0F901F9018953D
:1044F0008031D9F1883149F790916C0380916B0339
:10450000981750F5E0916C0381E08E0F80936C0357
:10451000F0E0E55BFC4F80812AC0883269F380338C
:10452000A1F680934A0307C0803579F138F48034CE
:10453000C1F1883451F60E948911C7CF883529F618
:10454000E0916C0381E08E0F80936C038091BB003F
:10455000F0E0E55BFC4F80838091AA038111EBCFF3
:1045600081E08093A90384EA0BC080916D0380935E
:10457000BB0085EC8093BC00A8CF80934A0385ECF8
:104580008093BC001092AB03A0CFE0916C0381E05C
:104590008E0F80936C038091BB00F0E0E55BFC4FD5
:1045A000808390916C0380916B03981710F385E8DA
:1045B000E1CF10924A03BFCF8F9381E080938605AD
:1045C0008F911895CDB7DEB7CE54D1090FB6F894B8
:1045D000DEBF0FBECDBF42E151E061E070E08BEC89
:1045E00096E00E94462F8091D7069091D806A09120
:1045F000D906B091DA060897A105B10540F442E169
:1046000051E060E070E08BEC96E00E94462F8091D4
:10461000D3069091D406A091D506B091D6068531E7
:10462000944DA24AB105C9F042E151E066E27EE054
:104630008BEC96E00E94192F1092D7061092D806A4
:104640001092D9061092DA0642E450E06AEC7EE05D
:104650008FE697E00E94192F0CC08091D7069091A9
:10466000D806A091D906B091DA060297A105B10546
:1046700058F38091CC06873009F047C08FE08093D3
:10468000CC068091D7069091D806A091D906B0911A
:10469000DA060497A105B10540F448E550E062E769
:1046A0007EE087E197E00E94192F8091D7069091D4
:1046B000D806A091D906B091DA0686309105A105F9
:1046C000B10540F51092CE061092B107E091CC06EC
:1046D000F0E0E153FD4F8081823031F48091F406A7
:1046E00091E089278093F40642E050E066E37FE0A2
:1046F0008BED97E00E94192F44E250E062E17FE0E9
:1047000087EB97E00E94192F13C0883009F0B9CFCA
:104710008DE0B5CF86309105A105B105A9F28930AC
:104720009105A105B10590F20D97A105B105E0F243
:104730008091D7069091D806A091D906B091DA065B
:104740000E97A105B10520F58091FA06843038F462
:10475000823008F406C481E08093FA0605C08450D4
:10476000823010F41092FA068EE090E0A0E0B0E003
:104770008093D7069093D806A093D906B093DA0613
:1047800042E151E061E070E08BEC96E00E94562F30
:10479000789485B5826085BD85B5816085BD809141
:1047A0006E00816080936E001092B1070E940F0D21
:1047B0008091CB06823009F4D6C3833009F4D8C384
:1047C000813061F48BED9EE190933905809338053B
:1047D00083E499E090938704809386048091CB06CC
:1047E000833009F0F5C38091CD068130C9F4109271
:1047F000AB0381E08093AA031092A903589A599AB7
:104800008091B9008E7F8093B9008091B9008D7F2F
:104810008093B90088E18093B80085E48093BC0060
:104820000E94210DE091CC06F0E0E153FD4F808124
:10483000823009F0EBC11091CD06113009F0DEC3D2
:10484000789480E88983A0910102B0910202E091FE
:104850000302F09104029E012F5F3F4F41E0559605
:104860006C9180810E94FD17882309F463C03FEF9B
:1048700049E658E1315040405040E1F700C00000A7
:104880001982A0910102B0910202E0910302F0911D
:1048900004029E012F5F3F4F41E055966C9180814D
:1048A0000E94FD17882309F445C010920F028FEF74
:1048B000809307028093050280930602809308028A
:1048C0002FEF3FEF30930B0220930A0280930C02EC
:1048D00080930E021093090210931C0210921D0285
:1048E0001092110210921002E2E1F2E08AE0DF0180
:1048F0001D928A95E9F710921E0210921F021092E3
:1049000021021092200281D9811114C0ACD98111E9
:1049100011C08AE290E0ECD881110CC082E390E0F3
:10492000D7DC811107C03DDC811104C0C9D98111D8
:1049300001C095DB88E793DB68D995D988E731DC3E
:1049400080911F02811192C0F12CE12C26EFC22E22
:104950002BE0D22E86010E191F090131110510F02E
:1049600000E110E0F701E051FE4FDE011196CD01AC
:10497000800F911F8A179B0709F03CC3AE014F5F60
:104980005F4FB801C701F5D8811170C0809107024F
:10499000882309F46BC09E2D8F2D23969FAF8EAF79
:1049A0002397E0910302F091040220853185C8012C
:1049B0008E0D911D2817390708F458C0A0910102E7
:1049C000B09102029E012F5B3F4F42E05B966C91DB
:1049D00080810E94FD17882309F448C0A09101023C
:1049E000B0910202E0910302F09104029E012F5D5A
:1049F0003F4F402F58966C9180810E94621288230D
:104A0000A9F1A801BE016F5D7F4FCE0101960E9402
:104A1000292F892B59F5E00EF11EB6EFEB16BBE0FE
:104A2000FB0608F497CF84E022968FAF2297239657
:104A30001FAE2397A0910102B0910202E091030200
:104A4000F09104029E012F5B3F4F42E05D966C9116
:104A500080810E94FD17882349F081E080931F0226
:104A600088EC90E090932102809320028CE0E8EFA4
:104A7000F2E0DE01119601900D928A95E1F719A2FC
:104A800085E08AA38E010F5D1F4FA80162E070E0F0
:104A900086E192E06ED8811110C0AE014F5F5F4F8A
:104AA0006CE070E081EC9AE064D8811106C08EE180
:104AB00090E09093B5038093B40380911E028130FF
:104AC00009F180911F028823E9F080E035DBF8D8F6
:104AD0008091200290912102FBDB1982E091030278
:104AE000F09104029E012F5F3F4F41E063E280811D
:104AF0000E94FD17882331F081E080931E021CDBA9
:104B00000E94381882E089838AEC8A8383EE8B8343
:104B100089E0E82EEC82AE014F5F5F4F64E070E009
:104B200088E690E026D883EA89838A838B838C8306
:104B30008D838E838F83888789878A87AE014F5FB5
:104B40005F4F6AE070E087EA9AE013D898EDF92E9B
:104B5000F982AE014F5F5F4F61E070E086EB9AE053
:104B600008D8E5E0F3E0DE01919601900D92EA9419
:104B7000E1F7A80169E070E088EB94E00E94B91DBC
:104B8000F982AE014F5F5F4F61E070E080EB98E02B
:104B90000E94B91DF982AE014F5F5F4F61E070E086
:104BA0008DE397E00E94B91D44E050E06BE870E0AF
:104BB000C8010E943F2FA80164E070E088E99AE0F4
:104BC0000E94B91D0E94381880E289A388E28AA356
:104BD00080E38BA388E38CA3A80164E070E08EE9F6
:104BE0009AE00E94B91D0E94381888E190E09093E5
:104BF000B3038093B2030E94381880E18093B60318
:104C00008CE399E19093BD038093BC039091F806E7
:104C100010928204909383048091CC062CEE280F8E
:104C20002E3068F4263008F0F4C11092B903909346
:104C3000BA038091F7061092B7038093B803E4E0BB
:104C4000FBE72591359145915491E0E0FBE7859193
:104C50009591A591B491BC01CD010E940E150E94C1
:104C6000C00924966FAF249725967FAF2597269687
:104C70008FAF269727969FAF27972F961CAE1DAE16
:104C80001EAE1FAE2F970E94C0092B966CAF7DAF52
:104C90008EAF9FAF2B97DC01CB0127962CAD3DAD9E
:104CA0004EAD5FAD2797821B930BA40BB50B813CD8
:104CB0009742A940B10508F43DC00E94C00924965E
:104CC0006FAF249725967FAF259726968FAF2697AF
:104CD00027969FAF279710927A0060E088E00E94A5
:104CE000FA0B1982BE016F5F7F4F80E00E940A11AC
:104CF00069816D7F698380E00E94DB108091640090
:104D00008F6E80936400809165008F63809365004F
:104D100083B7817F846083BFF89482E08CBB8091ED
:104D20006900886080936900E99A83B7816083BFD6
:104D3000789488950E94C0092B966CAF7DAF8EAF9A
:104D40009FAF2B978091C7069091C806A091C90686
:104D5000B091CA062B964CAD5DAD6EAD7FAD2B9775
:104D6000481B590B6A0B7B0B8091CE0690E0B0E09C
:104D7000A0E084179507A607B70708F084CFE09155
:104D80003805F0913905309719F08BE596E01995C3
:104D90008091A705882309F473C107E815E0F12C79
:104DA0008F2D0E94460CD8012D913D918D01821BC3
:104DB000930B97FF03C09195819591090B970CF484
:104DC0005AC10E94210D86E38F0D809342021092FA
:104DD000A705D12C7BE0C72E88248394912C2D2D00
:104DE00030E08091840490918504281739070CF4F1
:104DF00096C28091D006882309F440C060915F0676
:104E00007091600680918204909183044427552715
:104E1000481B590B641775074CF420915B063091C1
:104E20005C06246030935C0620935B068617970728
:104E30004CF420915B0630915C06286030935C0650
:104E400020935B0660916106709162066417750796
:104E50004CF420915B0630915C06226030935C0636
:104E600020935B06861797074CF480915B06909120
:104E70005C06816090935C0680935B068091D1060E
:104E8000882381F080915B0690915C069C012073E1
:104E900033272033310531F48F7C946090935C0686
:104EA00080935B06E091CC06F0E0E153FD4F8081FA
:104EB000823049F4E091BC03F091BD03309719F0C2
:104EC0008BE596E019954CE650E06FEE75E08BE5CA
:104ED00096E0BFD7892B09F48AC20E94C00960936B
:104EE000C7067093C8068093C9069093CA064CE023
:104EF000BE016F5D7F4F8BE596E00E945611892BB6
:104F000009F098C28CE6EBE5F6E0AFEEB5E0019073
:104F10000D928A95E1F7C0905B06D0905C06F12C6B
:104F2000E12C2F962CAD3DAD4EAD5FAD2F97C21647
:104F3000D306E406F50671F00E94C00924966FAF0F
:104F4000249725967FAF259726968FAF269727968D
:104F50009FAF27972F96CCAEDDAEEEAEFFAE2F976C
:104F600092CE82E0F9CB0E94210D85E799E032CC08
:104F700021E041E060EA76E881E090E00E94A50C43
:104F800020E040E06AE08EE993E00E94C10B20E05F
:104F900040E063E383E993E00E94C10B20E040E03E
:104FA00064E388E893E00E94C10B60E08AE00E941D
:104FB000680C0E94871285EA99E090938704809399
:104FC00086048BE694E1909339058093380506CCEE
:104FD0008091CF06823041F421E041E060E072E14F
:104FE0008AE790E00E94A50C8091CB06813009F001
:104FF000FACBFDCB24912D933196BCCC123009F025
:1050000005CE62E08091F5060E94680C82E39CE088
:10501000F9CD803250F046E050E069EC72E082E376
:1050200092E007D786E08093BB038091CC068A315B
:1050300039F48DE0809325028CE080932602FFCD29
:10504000982F9D7F4EE050E062E07EE09C3179F049
:105050004EE050E064EF7DE08B3149F08D3119F086
:10506000803209F0ECCD4EE050E066EE7DE084E267
:1050700092E0DFD6E4CDF394B0E1FB1291CEA9CE5D
:105080008091EE058823E9F010E000E0802F0E9477
:10509000850E811110C0802F0E941A0CF801E8556E
:1050A000FA4F9081891739F00E94A40E00934202B2
:1050B0001092EE058ECE0F5F1F4F0634110531F7AB
:1050C00088CE4091C0035091C1034115510509F4A8
:1050D00057C080913E02811134C080917A0086FDD4
:1050E0004FC02091780080917900382F8091BE03C5
:1050F0009091BF036CE0689FF001699FF00D11244F
:10510000EE53FC4F6185611109C064816111D8C003
:105110003250B6E0220F331FBA95E1F76CE0689F7A
:10512000F001699FF00D1124EE53FC4F3683258367
:1051300001964817590709F4CAC09093BF0380939A
:10514000BE0310923E022091BE033091BF038CE05B
:10515000829FF001839FF00D1124EE53FC4FDE017E
:10516000119601900D928A95E1F7898180937B00D9
:105170008A8180937C0080917A00806480937A0099
:1051800010E00CE0A6E0EA2E812F012E000C990B16
:105190002091C0033091C103821793070CF019CE00
:1051A000089FF001099FF00D1124EE53FC4FDE0122
:1051B0001196802F01900D928A95E1F7FB80CF2CFC
:1051C000D12C8E819F814601880C991CF401E65CEC
:1051D000FA4F91838083FE9CF0011124E954F84F2B
:1051E000A480B5802E813F81032E000C440B550B0B
:1051F00082819381092E000CAA0BBB0B281B390B53
:105200004A0B5B0BA081B1810ED62B966CAF7DAFA4
:105210008EAF9FAF2B9720E034E040E050E0BBD54D
:10522000BA01A9015058610971094115F0E85F07F9
:10523000FFEF6F077F0724F440E050E86FEF7FEF48
:10524000411520E852076105710524F04FEF5FE733
:1052500060E070E0C5010B2C000CAA0BBB0B31E029
:105260003F1558F4E091CC06F0E0E153FD4F20816A
:10527000223091F5E4E0FE122FC0481759076A0763
:105280007B0714F440E050E88A858823D1F12E8111
:105290003F81888599858217930760F480915B062A
:1052A00090915C062B853C85822B932B90935C061A
:1052B00080935B06F601E954F94F40831F5F64CF8A
:1052C00060E072E0FB01E21BF30B9F0122CF109222
:1052D000BF031092BE0335CF481759076A077B07F3
:1052E0009CF6882799278A199B09092E000CAA0B7E
:1052F000BB0B84179507A607B70734F640E050E0CC
:10530000C3CFF1E0FF1530F4F401E55AF94F5183B2
:105310004083D4CFF601E55AF94F5283CFCFC29ED6
:10532000C001C39E900D112488579B4FFC01DE01E4
:1053300011962C2D01900D922A95E1F7DC0118961B
:10534000BC90189719967C9019971A96AC90E0919A
:105350008604F0918704E980FA800B811C812D81FD
:105360003E814F81588569857A858B851995E82E10
:105370000E94C0092B966CAF7DAF8EAF9FAF2B976D
:10538000AB01BC0147195109610971098A2D90E0EF
:10539000B0E0A0E084179507A607B70730F58401B1
:1053A0000B2C02C0000F111F0A94E2F7F12C809120
:1053B0005B0690915C0680239123E816F90611F0B4
:1053C0000E94C0090095109580915B0690915C0643
:1053D0000823192302C0EE0CFF1CBA94E2F7E02A5E
:1053E000F12AF0925C06E0925B06D394F8CC0E941E
:1053F000C0092B966CAF7DAF8EAF9FAF2B9780917E
:10540000C7069091C806A091C906B091CA062B960E
:105410002CAD3DAD4EAD5FAD2B97281B390B4A0B24
:105420005B0BDA01C90185369105A105B10508F0CC
:1054300054CD29CC89A19AA1992309F41AC190913C
:10544000B107992309F46DC08E3308F06AC0823326
:1054500009F467C08E010F5B1F4FD8018C9381E068
:1054600011968C930E94A9100E94AF100E94C0094F
:105470006B017C010E94BD1080FD0DC080E00E9488
:105480001E0D89EA0E94BA0B62E0C8010E94C81092
:1054900081E00E941E0D81E0809386058091860543
:1054A000811123C060E387E00E94DB100E94C009E5
:1054B0002B966CAF7DAF8EAF9FAF2B97DC01CB01EE
:1054C0008C199D09AE09BF09853F9140A105B10521
:1054D00088F288E08093460546E050E060E27EE096
:1054E00087E495E0A6D447E014C0109286050E9498
:1054F000BD1090E09595879587709927079791F251
:1055000086E495E00E942911482F882359F28C30B7
:1055100049F2BE016F5F7F4F86E495E00E9456110D
:10552000F1CC98E0909346058E33D8F08E53990BCA
:1055300022E3289FB001299F700D112402E111E0A0
:10554000061B170B0233110514F002E310E0A8014B
:1055500055276553794F87E495E088D441E0400FA3
:10556000D8CF823319F0873309F048C068E17EE074
:105570008CE495E067D480E094E2A4EFB0E08093FF
:10558000470590934805A0934905B0934A0587E6DF
:1055900095E4A3E2B1E0F0E0E0E041E2409357009F
:1055A0002491822728E030E06C017D0151E0C52282
:1055B000DD24EE24FF24B695A79597958795CD28F1
:1055C000CE28CF2841F050E2852753E8952758EBA5
:1055D000A5275DEEB5272150310931F73196E0322C
:1055E000F105E1F680935B0590935C05A0935D0562
:1055F000B0935E0510924B0549E18BCF8C3359F483
:105600008CE0EAE3F5E0A7E4B5E001900D928A951D
:10561000E1F74DE07ECF853399F44091CB064130E0
:1056200041F480914002809347051092480543E081
:1056300070CF4330E1F780913F028093470569CFF7
:10564000863341F480914202809347050E94A40E64
:1056500042E05FCF48E050E060E17EE087E495E023
:10566000E8D38091CC068F3110F410924A0549E0BE
:1056700050CF8D3369F46BA18CE1689FB001112488
:105680006F5F7F4F4DE150E0CE0184960FD43ACC4E
:10569000833309F446C068F4803349F0813309F05C
:1056A00031CC87E797E790930108809300080E9428
:1056B000EA10843389F08A3309F024CC42E151E0C6
:1056C00066E27EE08BEC96E0B4D342E151E061E02B
:1056D00070E08BEC96E0DACF8091B107811112CCAB
:1056E0008091A70581110ECC8FEF809342020E941A
:1056F000600C07E815E086E3F82E62E08F2D0E942B
:10570000680C8AEC8F0D0E94460CD8018D939D93F6
:105710008D01F394B6E4FB12F0CF81E08093A705EE
:10572000F1CB8091B1078111EDCB8091EE05811114
:10573000E9CB8FEF809342020E94600C10E000E002
:10574000802F0E94850E81110BC062E0802F0E9485
:10575000680C802F0E941A0CF801E855FA4F8083DC
:105760000F5F1F4F0634110559F781E08093EE0556
:10577000C9CBF5D058F080E891E009F49EEFF6D05F
:1057800028F040E851E059F45EEF09C0C0C028C1DC
:10579000E92FE07803D168F3092E052AC1F3261713
:1057A00037074807590738F00E2E07F8E02569F04B
:1057B000E025E0640AC0EF6307F8009407FADB0114
:1057C000B9019D01DC01CA01AD01EF9341D0D5D0F3
:1057D0000AD05F91552331F02BED3FE049E450FDB5
:1057E00049ECABC10895DF93DD27B92FBF7740E8BF
:1057F0005FE31616170648075B0710F4D92FF7D09A
:105800009F938F937F936F9394D1E4EEF0E082D0D7
:10581000B4D02F913F914F915F9134D1DD2349F066
:105820009058A2EA2AED3FE049EC5FE3D0785D278B
:1058300095D1DF91A2C09AD040F091D030F021F400
:105840005F3F19F05EC05111CCC061C0A7D098F382
:105850009923C9F35523B1F3951B550BBB27AA27F1
:1058600062177307840738F09F5F5F4F220F331F63
:10587000441FAA1FA9F333D00E2E3AF0E0E830D02F
:1058800091505040E695001CCAF729D0FE2F27D032
:10589000660F771F881FBB1F261737074807AB0700
:1058A000B0E809F0BB0B802DBF01FF2793585F4F75
:1058B0002AF09E3F510568F024C093C05F3FECF38F
:1058C000983EDCF3869577956795B795F7959F5F3A
:1058D000C9F7880F911D9695879597F90895E1E08E
:1058E000660F771F881FBB1F621773078407BA07ED
:1058F00020F0621B730B840BBA0BEE1F88F7E09548
:10590000089597F99F6780E870E060E008959FEF41
:1059100080EC0895DF93CF931F930F93FF92EF9244
:10592000DF927B018C01689405C0DA2EEF01AAD0CA
:10593000FE01E894A5912591359145915591AEF3DD
:10594000EF010CD1FE019701A801DA9479F7DF90FD
:10595000EF90FF900F911F91CF91DF910895002458
:105960000A941616170618060906089500240A94C4
:1059700012161306140605060895092E0394000C4A
:1059800011F4882352F0BB0F40F4BF2B11F460FFD9
:1059900004C06F5F7F4F8F4F9F4F089557FD905802
:1059A000440F551F59F05F3F71F04795880F97FBE3
:1059B000991F61F09F3F79F087950895121613069D
:1059C0001406551FF2CF4695F1DF08C016161706CC
:1059D0001806991FF1CF8695710561050894089501
:1059E000E894BB2766277727CB0197F908959B0199
:1059F000AC0160E070E080E89FE303C1D7DFA8F16D
:105A00009E57A8F1985160F039F1983070F5092E41
:105A10009927660F771F881F991F0A94D1F71CC01A
:105A2000BB27993F4CF4B111B1E0B62B672F782F0B
:105A30008827985FB1F708C0869577956795B795E1
:105A400008F4B1609395C1F7BB0F30F411F460FF17
:105A500003C06F5F7F4F8F4F3EF490958095709598
:105A600061957F4F8F4F9F4F08956894BACFB8CFFD
:105A700076DF28F07BDF18F0952309F042CF47CF7F
:105A80001124AFCF8BDFA0F3959FD1F3950F50E09A
:105A9000551F629FF001729FBB27F00DB11D639FE0
:105AA000AA27F00DB11DAA1F649F6627B00DA11D86
:105AB000661F829F2227B00DA11D621F739FB00D2C
:105AC000A11D621F839FA00D611D221F749F33279C
:105AD000A00D611D231F849F600D211D822F762F35
