:100000000C9486080C94A3080C94A3080C94A308E1
:100010000C94A3080C94A3080C94A3080C94A308B4
:100020000C94A3080C943F290C94DC260C94A12377
:100030000C94A3080C94A3080C94A3080C94A30894
:100040000C94A3080C94A3080C94A3080C94A30884
:100050000C94A3080C94A3080C94A3080C94912767
:100060000C94A3080C94A3080C94A3080C94A30864
:100070000C94A3080C94B4270C94A3080C94A30824
:100080000C94A3080C94A3080C94A3080C94A30844
:100090000C9426280C94A3080C94A3080C94A30891
:1000A0000C94A3080C94A3080C94A308036EDB36ED
:1000B0003D9A9999993DABAAAA2A3E000000803F3B
:1000C000084AD73B3BCE016E84BCBFFDC12F3D6CBF
:1000D00074319ABD56833DDA3D00C77F11BED9E425
:1000E000BB4C3E916BAAAABE000000803F072C7A51
:1000F000A5BA6CC590DA3B9365FC8BBC53F810FD38
:100100003C5692834DBD879D3AB63DCBC9BF5BBE81
:1001100073DA0FC93F001C0376006500720073009C
:1001200069006F006E002D0033002E0034002E0099
:100130003000000012034100720064007700690083
:1001400069006E006F0000001403730061006E0010
:100150006A006100790039003000300000000403BB
:100160000904FF080F0C00000000240027002A00EB
:100170002D003000070605040100080A0B0C0D09CC
:10018000000000002300260029002C002F00020F91
:1001900000010001010115D4A20000000000FFFFD2
:1001A000FFFFFFFFFFFFFFFFFFFFFFFFFFFFFF005E
:1001B000FF00FF00FF00FF00FF00404005B80B04F8
:1001C000160D0E0F33280B504F525151FFFFFFFFFA
:1001D000FFFFFFFFFFFFFFFFFF400D0E100F0900A5
:1001E000000000000000000000000000000000000F
:1001F000008000000000FF0000FFFF00FF00000083
:100200000045FF00000000000000000000000000AA
:1002100000000000000000000000000000000000DE
:1002200000000000000000000000000000000000CE
:1002300000000000000000000000000000000000BE
:100240000000000000000000FFFFFF00FFBF0000F3
:10025000FF00FF00000000000000000000000000A0
:10026000000000000000000000000000000000008E
:10027000000000000000000000000000000000007E
:10028000000000000000000000000000000000006E
:1002900000000000000000000000250028002B00E6
:1002A0002E003100040404040403040502020202C7
:1002B00004030202020206060606060604040202FF
:1002C00002040404080201104080401020408040D5
:1002D000800802040180402010020110801020409C
:1002E0004020000070000000002400000002000315
:1002F000000000650054FFEF0000FA80000B12823E
:100300000001030C30C30E8C8CE914D5400213712C
:100310000F8E3883F8833000F883258EF883300001
:10032000F883FFFFFFFF0FFEA9D6240004001A8206
:1003300079A10000003CFFFF00000010000038839E
:100340006FA2003E03304000000002CAE3093E8075
:1003500000002000000000000000400000006000DD
:100360000000000C0000000C186E000006920A1637
:10037000C0DFFFFF0256FD8CD377FFE1C496E0C5D6
:10038000BEAA00000000FFFF0B2B00001657000064
:1003900003594000000000001DFA00026C1D00001F
:1003A00000003FFFDFEB003EB3B6000D22780000F7
:1003B0002F3C00000000001942B5000039A20000E7
:1003C000B365D90E9FC91DCF4C34300000005000DA
:1003D00000003BB67AE80064000000C8000000009E
:1003E0000000100000001000FA921000225E000DC4
:1003F000229F0001000000320000FF46000063D48D
:1004000000001000000004D6000004CC000004CC62
:10041000000000001072000000400000000000001A
:100420000000000600020005000700000000006454
:10043000000000000000000000050005006400202E
:10044000000000000000000000000000400000006C
:10045000030000000032F8980000FF650000830FE1
:100460000000FF9BFC0000000000000000000000F6
:10047000000000000000000000000000000000007C
:10048000000000000000000000000000000000006C
:10049000100040000000000000060000B26A0002E8
:1004A00000000001FB830068000000D9FC007CF123
:1004B000FF830000000000650000006403E80064A2
:1004C0000028000000250000000016A00000000029
:1004D000100000001000002F0000000001F40000D8
:1004E000100000280000FFFF4581FFFFFA720000A6
:1004F000000000000000004400050005BAC60047E7
:1005000078A20000000100000000000006000000CA
:1005100000140000254D002F706D000005AE000C8A
:1005200002D00000000000000000000000000000F9
:100530000000001B000000000000000000000000A0
:10054000000000640000000800000000000000003F
:10055000000000000000000000000000000000009B
:10056000000000000000000000000000000000008B
:10057000000000000000000000000000000000007B
:10058000000000000000000000000000000000006B
:10059000000000000000000000000000000000005B
:1005A0000000001B00000000000000000000000E22
:1005B000000E00000AC70004000000000032FFFF28
:1005C000FF9C00000B2B0000000200000001000057
:1005D0000064FFE5000000000000000000000000D3
:1005E0000000000000010000000000010000000009
:1005F0000000000180000001800000018000002454
:1006000026D3000000000000000000060010009645
:10061000003C00000000000000000000000000009E
:1006200000000C0A4E68CDCF770950166759C619DD
:10063000CE8200000000000000000000000000006A
:100640000000000000000000000017D78400030035
:1006500000000000000000000000C7938F9D1E1BDB
:100660001C19000000000000000000000000000055
:1006700000000000000000000000020318850000D8
:100680004000000000030000000300000000000024
:10069000000040000000000000000000000000001A
:1006A000000000000000000000000000000000004A
:1006B000000000000000000000000000000000003A
:1006C000000000000000677DDF7E72902E554CF622
:1006D000E6880000000000000000000000000000AC
:1006E0000000D8DCB4B8B0D8B9ABF3F8FAB3B7BBF4
:1006F0008E9EAEF132F51BF1B4B8B08097F1A9DF50
:10070000DFDFAADFDFDFF2AAC5CDC7A90CC92C97AE
:10071000F1A989264666B28999A92D557DB0B08A7E
:10072000A896365676F1BAA3B4B280C0B8A897118D
:10073000B28398BAA3F0240844106418B2B9B498EC
:1007400083F1A329557DBAB5B1A38393F000285056
:10075000F5B2B6AA839328547CF1B9A3829361BA07
:10076000A2DADEDFDB819AB9AEF5606870F1DABA41
:10077000A2DFD9BAA2FAB9A38292DB31BAA2D9BA5E
:10078000A2F8DF85A4D0C1BBAD83C2C5C7B8A2DFC4
:10079000DFDFBAA0DFDFDFD8D8F1B8AAB38DB49815
:1007A0000D355DB2B6BAAF8C96198F9FA70E161E87
:1007B000B49AB8AA872C547CBAA4B08AB69132569F
:1007C00076B28494A4C808CDD8B8B4B0F19982A800
:1007D0002D557D98A80E161EA22C547C92A4F02CA8
:1007E0005078F184A898C4CDFCD80DDBA8FC2DF37B
:1007F000D9BAA6F8DABAA6DED8BAB2B68696A6D024
:10080000F3C841DAA6C8F8D8B0B4B882A892F52CDB
:10081000548898F135D9F418D8F1A2D0F8F9A88401
:10082000D9C7DFF8F883C5DADF69DF83C1D8F401FF
:1008300014F1A8824EA884F311D182F5D992289799
:1008400088F109F41C1CD884A8F3C0F9D1D9978287
:10085000F129F40DD8F3F9F9D1D982F4C203D8DE25
:10086000DF1AD8F1A2FAF9A88498D9C7DFF8F8F806
:1008700083C7DADF69DFF883C3D8F40114F198A8DD
:10088000822EA884F311D182F5D992509788F1096C
:10089000F41CD884A8F3C0F8F9D1D99782F149F4AF
:1008A0000DD8F3F9F9D1D982F4C403D8DEDFD8F139
:1008B000AD8898CCA809F9D98292A8F57CF1883A3C
:1008C000CF944A6E98DB6931DAADF2DEF9D88795BC
:1008D000A8F221D1DAA5F9F417D9F1AE8ED0C0C3B0
:1008E000AE82C684C3A88595C8A588F2C0F1F4017C
:1008F0000EF18E9EA8C63E56F554F18872F401158D
:10090000F19845856EF58E9E0488F142985A8E9E28
:10091000068869F4011CF1981E1108D0F504F11E37
:10092000970202983625DBF9D985A5F3C1DA85A5AA
:10093000F3DFD88595A8F309DAA5FAD88292A8F54D
:1009400078F1881A849F26889821DAF41DF3D887D5
:100950009F39D1AFD9DFDFFBF9F40CF3D8FAD0F827
:10096000DAF9F9D0DFD9F9D8F40BD8F3879F39D168
:10097000AFD9DFDFF41DF3D8FAFCA869F9F9AFD0DD
:10098000DADEFAD9F88F9FA8F1CCF398DB45D9AF1E
:10099000DFD0F8D8F18F9FA8CAF38809DAAF8FCBE0
:1009A000F8D8F2AD978D0CD9A5DFF9BAA6F3FAF411
:1009B00012F2D8950DD1D9BAA6F3FADAA5F2C1BAD6
:1009C000A6F3DFD8F1BAB2B68696A6D0CAF349DA52
:1009D000A6CBF8D8B0B4B8D8AD84F2C0DFF18FCBD5
:1009E000C3A8B2B68696C8C1CBC3F3B0B48898A8E2
:1009F00021DB718D9D71859521D9ADF2FAD885974E
:100A0000A828D9F408D8F28D29DAF405D9F285A4FA
:100A1000C2F2D8A88D9401D1D9F411F2D88721D887
:100A2000F40AD8F28498A8C801D1D9F411D8F3A453
:100A3000C8BBAFD0F2DEF8F8F8F8F8F8F8F8D8F15B
:100A4000B8F6B5B9B08A95A3DE3CA3D9F8D85CA3B3
:100A5000D9F8D87CA3D9F8D8F8F9D1A5D9DFDAFA32
:100A6000D8B18530F7D9DED8F830ADDADED8F2B4B7
:100A70008C99A32D557DA083DFDFDFB591A0F629EA
:100A8000D9FBD8A0FC29D9FAD8A0D051D9F8D8FCE4
:100A900051D9F9D879D9FBD8A0D0FC79D9FAD8A105
:100AA000F9F9F9F9F9A0DADFDFDFD8A1F8F8F8F8F9
:100AB000F8ACDEF8ADDE8393AC2C547CF1A8DFDF1C
:100AC000DFF69D2CDAA0DFD9FADB2DF8D8A850DAB2
:100AD000A0D0DED9D0F8F8F8DB55F8D8A878DAA09D
:100AE000D0DFD9D0FAF8F8F8F8DB7DF8D89CA88CDC
:100AF000F530DB38D9D0DEDFA0D0DEDFD8A848DB88
:100B000058D9DFD0DEA0DFD0DED8A868DB70D9DF0F
:100B1000DFA0DFDFD8F1A888902C547C98A8D05CA7
:100B200038D1DAF2AE8CDFF9D8B087A8C1C1B1886C
:100B3000A8C6F9F9DA36D8A8F9DA36D8A8F9DA3633
:100B4000D8A8F9DA36D8A8F9DA36D8F78D9DADF8F5
:100B500018DAF2AEDFD8F7ADFA30D9A4DEF9D8F260
:100B6000AEDEFAF983A7D9C3C5C7F1889BA77AADD2
:100B7000F7DEDFA4F8849408A797F300AEF2981983
:100B8000A488C6A39488F632DFF28393DB09D9F2F6
:100B9000AADFD8D8AEF8F9D1DAF3A4DEA7F1889BA2
:100BA0007AD8F38494AE19F9DAAAF1DFD8A881C013
:100BB000C3C5C7A39283F628ADDED9F8D8A350AD3C
:100BC000D9F8D8A378ADD9F8D8F8F9D1A1DADEC32D
:100BD000C5C7D8A18194F818F2B089ACC3C5C7F1D4
:100BE000D8B8B4B09786A8319B069907AB972888E8
:100BF0009BF00C201440B0B4B8F0A88A9A28507822
:100C0000B79BA8295179247059446938644831F157
:100C1000BBAB88002C547CF0B38BB8A80428507868
:100C2000F1B088B49726A85998BBABB38B0226467F
:100C300066B0B8F08A9CA82951798B2951798A2409
:100C400070598B2058718A4469388B3940688A649E
:100C500048318B30496088F1AC002C547CF08CA872
:100C600004285078F1889726A85998AC8C0226461B
:100C700066F0899CA82951792470594469386448E0
:100C800031A98809205970AB11384069A819314839
:100C9000608CA83C415C207C00F187981986A86E86
:100CA000767EA999882D557DD8B1B5B9A3DFDFDF50
:100CB000AED0DFAAD0DEF2ABF8F9D9B087C4AAF182
:100CC000DFDFBBAFDFDFB9D8B1F1A3978E60DFB054
:100CD00084F2C8F8F9D9DED89385F14AB183A30824
:100CE000B5839A0810B79F10D8F1B0BAAEB08AC2D7
:100CF000B2B68E9EF1FBD9F41DD8F9D90CF1D8F813
:100D0000F8AD61D9AEFBD8F40CF1D8F8F8AD19D92B
:100D1000AEFBDFD8F416F1D8F8AD8D61D9F4F4ACA0
:100D2000F59C9C8DDF2BBAB6AEFAF8F40BD8F1AE79
:100D3000D0F8AD51DAAEFAF8F1D8B9B1B6A3839CC8
:100D400008B9B1839AB5AAC0FD3083B79F10B58B9F
:100D500093F20202D1ABDADED8F1B080BAABC0C3F5
:100D6000B284C1C3D8B1B9F38BA391B609B4D9ABDE
:100D7000DEB0879CB9A3DDF1B38B8B8B8B8BB087F7
:100D8000A3A3A3A3B28BB69BF2A3A3A3A3A3A3A3E2
:100D9000A3A3A3F1B087B59AA3F39BA3A3DCBAAC3A
:100DA000DFB9A3A3A3A3A3A3A3A3A3A3A3A3A3A3C1
:100DB000A3A3D8D8D8BBB3B7F1AAF9DAFFD9809AE0
:100DC000AA28B48098A720B79787A86688F0795199
:100DD000F1902C870CA781976293F07171608594D4
:100DE0000129517990A5F1284C6C870C95188578CC
:100DF000A38390284C6C886CD8F3A28200F210A8D0
:100E0000921980A2F2D926D8F188A84DD948D8964F
:100E1000A83980D93CD89580A839A68698D92CDAEB
:100E200087A72CD8A8899519A980D938D8A8893935
:100E3000A980DA3CD8A82EA83990D90CD8A8953129
:100E400098D90CD8A809D9FFD801DAFFD89539A9C3
:100E5000DA26FFD890A80D8999A810809821DA2E5B
:100E6000D88999A83180DA2ED8A886963180DA2ED2
:100E7000D8A8873180DA2ED8A88292F34180F1D9A0
:100E80002ED8A882F31980F1D92ED882ACF3C0A253
:100E90008022F1A62EA72EA92298A829DAACDEFF7F
:100EA000D8A2F22AF1A92E8292A8F23180A696F158
:100EB000D900AC8C9C0C30ACDED0DEFFD88C9CAC66
:100EC000D010ACDE8092A2F24C82A8F1CAF235F1C9
:100ED0009688A6D900D8F1FF0E0C0D0F08FFFF0968
:100EE000050406070A0B0F0C0D0E08FFFF09050489
:100EF00006070A0B0F0C0D0E0908FFFF0504060775
:100F00000A0B6C656F6E6172646F00313630303081
:100F1000303030554C0061746D6567613332753423
:100F2000006172647769696E6F0076657273696FCC
:100F30006E2D332E342E300005010905A101150058
:100F40002501350045017501950D05091901290D8A
:100F500081029503810105012507463B0175049532
:100F60000165140939814265009501810126FF0060
:100F700046FF0009300931093209357508950481A9
:100F8000020600FF09200921092209230924092555
:100F90000926092709280929092A092B950C810204
:100FA0000A21269508B1020A2126910226FF03464E
:100FB000FF03092C092D092E092F751095048102B4
:100FC000C005010906A101050719E029E71500255B
:100FD00001750195088102950175088101050819BF
:100FE000012905950575019102950175039101157A
:100FF0000026FF000507190029FF950675088100E6
:10100000C012034D00530046005400310030003040
:101010000020005E014801340116010902BF0004EE
:101020000100207D080B02020202010009040200F7
:101030000102020100052400100104240206052417
:10104000060203070582030800FF09040300020AE1
:101050000000000705040220000507058302400088
:101060000509040100000101000009240100010933
:101070000001010904000002FF5D010009071101E0
:1010800000012289001421100100258114030303AB
:1010900004130208030300000007240100014100BB
:1010A00006240201010006240202020009240301B1
:1010B00003010201000924030204010101000905E2
:1010C0008103200001000005250101030905020339
:1010D0002000010000052501010192008228000185
:1010E00000022001100204004B070D0F0912BA1272
:1010F000BA12BA12BA12AD1BAD1B120100020000E7
:1011000000080912822822310102030111241FBEA6
:10111000CFEFDAE0DEBFCDBF12E0A0E0B1E0EAE65B
:10112000FDE602C005900D92A436B107D9F727E07D
:10113000A4E6B2E001C01D92A13BB207E1F70E9414
:1011400045290C94B3360C940000982F20E137E227
:10115000413230F081E008952150310909F458C03E
:101160008091B0078111F8CF22E02093B00721E0F1
:101170002093AF072FEF2093AE071092AD07409357
:10118000AC07362FACE8B7E0FB012E2F231B24174A
:1011900078F110928B0720918B07990F922B9093E7
:1011A0008B0790918A07913071F510928A07909180
:1011B0008B079093BB0020E137E29091BC0093FD38
:1011C0001AC095EC9093BC0020E137E29091B007F3
:1011D0009230D9F09091AE079F3F49F08091AE07D1
:1011E0008032C1F08091AE07803391F483E008959E
:1011F00021912D93CACF2150310951F090918B0745
:101200009093BB00DACF95EEDDCF21503109F1F696
:1012100084E0089582E00895982F842F20E137E23A
:10122000413228F080E0089521503109D9F34091EE
:10123000B0074111F9CF21E02093B0072093AF0709
:101240003FEF3093AE071092AD07380F3093AC07E5
:1012500020938B0720918B07990F922B90938B07EC
:1012600090918A07913069F510928A0790918B07C7
:101270009093BB0020E137E29091BC0093FD18C031
:1012800095EC9093BC0020E137E29091B00791304B
:10129000D1F09091AD07981710F48091AD072CE82C
:1012A00037E0FB01D9019A2F921B981780F008951F
:1012B0002150310909F4B6CF90918B079093BB0070
:1012C000DBCF95EEDECF21503109F9F6ABCF9D9102
:1012D0009193E9CF2091E4003091E50095E6A901D2
:1012E0002091EC00822F817020FF06C08091E800E1
:1012F00080FF06C080E008952091E80022FD19C01B
:101300008BB5882389F0853089F08091EB0085FDCD
:101310000FC02091E4003091E5004217530701F31C
:101320009150E9F684E0089582E0089583E00895FD
:1013300081E008958091820787FF11C08091E800C5
:1013400082FF06C08091E8008B778093E80003C09D
:101350008BB58111F3CF08958BB58823E1F380918C
:10136000E80080FFF9CF8091E8008E77EECF809380
:10137000E900EBEEF0E0808181608083EDEEF0E04B
:1013800010826093EC0040838091EE00881F8827D4
:10139000881F0895FC019081992311F1892F8F7086
:1013A000873000F5248142E0223008F046E0A18138
:1013B000B28168E070E020E06A177B0768F0229550
:1013C000207F422B638120E4629FB0011124991F8A
:1013D0009927991F692BCBCF2F5F660F771FECCF13
:1013E00081E0089580E00895FC01CB0120918807F9
:1013F000309189072617370790F0009729F420913C
:10140000E8002E772093E80040E0009751F4411166
:1014100008C08091E80082FF30C080E00895C901D3
:10142000F3CF2BB52223A1F12530A1F12091E800C3
:1014300023FD2CC02091E80022FDEBCF2091E80095
:1014400020FFE3CF3091F3002091F200009719F0D4
:101450002830310558F041E02830310509F040E0EE
:101460002091E8002E772093E800CFCF4191409360
:10147000F10001972F5F3F4FE9CF8BB5882341F0F3
:10148000853041F08091E80083FFC3CF81E008956B
:1014900082E0089583E008958EBD0DB407FEFDCF70
:1014A0000895CF93C82F8BB58430B9F4809139015A
:1014B00090913A01A0913B01B0913C01892B8A2B7C
:1014C0008B2B59F0809126018F708093E9008091D9
:1014D000E80085FF04C0C093F100CF91089590917A
:1014E000E8009E779093E800F5DE8823A1F3F5CF1E
:1014F000AF92BF92CF92DF92EF92FF920F931F9322
:10150000CF93DF93CDB7DEB72A970FB6F894DEBF3F
:101510000FBECDBF9C015B018A0160E876E050E020
:1015200040E080E0DB01DD90BD01DD2001F1F8014C
:10153000E40FF51F95899695FA01E859FD4FF08063
:10154000F916A9F09B96EC90B1E0DB1247C0992305
:1015500009F45BC0FF2009F45BC0E1E0F0E0EC0FB0
:10156000FD1FEE0DF11DF080F91608F490834F5F1A
:101570005F4F46315105B1F6BE016F5F7F4F90E07E
:101580005DE0FB014191BF01442369F0A4E08A9F23
:10159000F0011124E20FF31F5083192F106D1183F6
:1015A000428313828F5F9F5F9A3059F7B4E08B9F1D
:1015B000C0011124F501918380832A960FB6F89417
:1015C000DEBF0FBECDBFDF91CF911F910F91FF9076
:1015D000EF90DF90CF90BF90AF900895B0EBFB2ECF
:1015E000DB015596DC909083B4E08B9FF0011124D1
:1015F000E20FF31FCF2CC294AFE0CA22C082FE28B4
:10160000F182D28293838F5FB2CFA0E8FA2EE8CF27
:10161000B0E9FB2EE5CFCF92DF92FF920F931F939D
:10162000CF93DF93FC01DA018BE190E0EB0199832A
:101630008883F090770480E0C82E81E0D82E30E0D7
:1016400020E061E070E0E60189916E018F3F09F4CE
:1016500044C0AB0102C0440F551F8A95E2F78D913B
:101660009C9111974823592300811181CB01022EAF
:1016700002C0880F991F0A94E2F74115510509F439
:1016800057C0802B912B91838083922F2F1528F5A3
:1016900081E0452B09F480E04091BB054731B9F466
:1016A0009430A8F4A9014E595E4FEA019881AB012C
:1016B00002C0440F551F9A95E2F70D911C911197A6
:1016C00040235123482B81E0452B09F480E0AF01F2
:1016D000420F531F8195EA018F832F5F3F4F2E30BA
:1016E000310509F0B0CFCC91CF7088E0CB3020F439
:1016F000D0E0CA55DE4F888182831A962D913C91A5
:101700001B978091BB058731C1F419968C91805845
:10171000858387EF91E02F3F3F4711F484E891E004
:10172000948B838B8DE7868380E88383848352C088
:101730008095909580239123A6CF883111F08B312D
:10174000A9F419969C91199780E8891B858380815B
:1017500091812F3F3F4709F045C08062918380838C
:1017600012969C91129780E8891B86838091BB0515
:1017700085518230C8F68081918112962C91129702
:10178000233390F1806191838083808191811396CE
:101790002C911397233350F18062918380831296AA
:1017A0008C911297838713968C9113978487159643
:1017B0008C9115978058838317968C911797805832
:1017C000848319968C911997805885831B968C91E8
:1017D00080588683DF91CF911F910F91FF90DF900A
:1017E000CF9008958F7DBACF8F7ECDCF8F7DD5CF0F
:1017F000FC01DB0112968C91129790E0982F8827BC
:1018000088279F702C91822B9583848312968C91CC
:10181000129720E1829FC001112488279F701196A2
:101820002C911197822B9783868313968C91139713
:1018300083838081918115962C91159720FF17C085
:101840009061918380838081918115962C91159769
:1018500021FF0FC0906291838083808191811596D2
:101860002C9122FD08C090649183808308959F7E0F
:10187000E8CF9F7DF0CF9F7BF7CFFC01DB018D91FF
:101880009C9111979583848312968D919C911397C7
:101890009783868314968C91838308950F931F9367
:1018A000CF93DF93FC01AB01ADEEB1E030E020E07F
:1018B00061E070E08D918F3FC1F0C081D1818B01DB
:1018C00002C0000F111F8A95E2F7C8018B01022E9A
:1018D00002C0000F111F0A94E2F704231523012B05
:1018E00071F08C2B9D2B918380832F5F3F4F203194
:1018F000310501F7DF91CF911F910F9108958095E8
:1019000090958C239D23EFCFFC01DB018C91880FF8
:10191000880F80581482858311968C911197880FB7
:10192000880F80581682878313962C9113972F71F6
:101930002051330B322F2227330F330F319521954E
:1019400031093187208714966D917C91609570954F
:10195000CF01A4CFFC01DB018C918058990B14823C
:10196000858312968C9112978058990B16828783E3
:1019700011968C9111978058990B10868187139638
:101980008C9113978058990B1286838714968C91AB
:101990001497828315968C911597838316966D9173
:1019A0007C9160957095CF0179CF0F931F93CF9362
:1019B000DF93EC018B01FB0180818052990B880F32
:1019C000880F1C828D8381818052990B880F880F2C
:1019D0001E828F8364817581609570957E7FCE01B4
:1019E0005DDF8091BB058D31B8F0F801838181FF07
:1019F00013C0FE017596CE0185961192E817F9077E
:101A0000E1F7F80193819095907E828186958E739F
:101A10008A31C8F48231D9F088819981F801258111
:101A200023FD17C090649983888388819981F80188
:101A3000258125FD10C0906899838883DF91CF911F
:101A40001F910F9108958E3139F79D8FE5CF99A39E
:101A5000E3CF9F7BE8CF9F77EFCFDC01FB01808155
:101A60002181229526952670982F96959695969584
:101A70009871292B9281991F9927991F292B880FDB
:101A8000880F805814961C92149715968C9315976E
:101A90008181880F880F805816961C92169717968A
:101AA0008C9317979481338190FF38C0832F90E0F7
:101AB000809590958F719927809619969C938E9317
:101AC0001897022E000C330B828180FF2DC08FE30C
:101AD00090E0821B930B1B969C938E931A978281A6
:101AE0008695869588719381929596959770892BA6
:101AF00012968C931297828190E0959587958F70BE
:101B000013968C93139764817581762767277627C0
:101B1000609570956D7C7376CD01C0CE3F7180E28B
:101B200090E0831B9109C9CF80E290E0D2CFFB0106
:101B30006481758176276727762760957095AECE8C
:101B40009FB7F894E0916204F09163048081209142
:101B50006404822B8083E0915F04F09160048081B3
:101B600020916104822B8083E0916504F0916604EA
:101B7000808120916704822B80839FBF089590917C
:101B8000BC05913021F09091BA05913021F49EEF7F
:101B9000980F923078F09091BE05923021F090919C
:101BA000BA05933029F492EF980F81E0943008F051
:101BB00080E0089581E00895CF93DF9300D000D0B6
:101BC000CDB7DEB73FB7F894809153049091540499
:101BD000A0915504B091560426B5A89B05C02F3F8F
:101BE00019F00196A11DB11D3FBFBA2FA92F982F43
:101BF0008827820F911DA11DB11D9C01AD0162E0DE
:101C0000220F331F441F551F6A95D1F7CA01B9012E
:101C10000F900F900F900F90DF91CF910895CF927A
:101C2000DF92EF92FF92CF93DF9300D000D000D0ED
:101C3000CDB7DEB76B017C01BFDF6D837E83BCDF78
:101C400069837A838B839C8389819A812D813E81EC
:101C5000821B930B883E934090F381E0C81AD10811
:101C6000E108F1082D813E8128513C4F3E832D83B0
:101C7000C114D104E104F10411F726960FB6F894CB
:101C8000DEBF0FBECDBFDF91CF91FF90EF90DF9011
:101C9000CF900895CF93DF9390E0FC01ED53FD4F7B
:101CA00024918C559D4FFC0184918823D1F090E0C4
:101CB000880F991FFC01EA59FE4FA591B491FC01D0
:101CC000EA56FD4FC591D491613071F49FB7F894F5
:101CD0008C91209582238C938881282328839FBF11
:101CE0007894DF91CF910895623051F49FB7F894C2
:101CF0003C91822F809583238C93E8812E2BEECF0D
:101D00008FB7F894EC912E2B2C938FBFE9CFE82F4F
:101D1000F0E0EC58FE4FE49190917B008E2F880FFD
:101D2000880F80729F7D892B80937B00E770E06431
:101D3000E0937C0080917A00806480937A008091A7
:101D40007A0086FDFCCF809178009091790008950B
:101D5000CF93DF93CDB7DEB761970FB6F894DEBFB0
:101D60000FBECDBF8091F1029091F20221E1289F38
:101D7000F001299FF00D1124EB50FD4F81E1DE01B0
:101D8000119601900D928A95E1F7898180937B00ED
:101D90008A8180937C00EAE7F0E080818064808320
:101DA00061960FB6F894DEBF0FBECDBFDF91CF9125
:101DB00008958091F3029091F402892B39F01092EA
:101DC00082041092F2021092F102C2CF0895EF92B3
:101DD000FF920F931F93CF93DF93CDB7DEB7619739
:101DE0000FB6F894DEBF0FBECDBF9C016091C1035A
:101DF0007091C20380E017E000E48617170614F123
:101E000040E051E1642F042E000C770B8091F30227
:101E10009091F40268177907CCF12091F10230918A
:101E2000F2028217930709F06FC061960FB6F8941B
:101E3000DEBF0FBECDBFDF91CF911F910F91FF90FD
:101E4000EF90B7CF819FF0011124ED53FC4FA1819A
:101E5000B2819C91A6814081942345817901EA0E4B
:101E6000F11C94130FC0D9014D915C91119703801F
:101E7000F481E02D4E2B5F2B4D935C93F701058B86
:101E80008F5FBBCFD70155961C92FACF569FF001BA
:101E9000579FF00D1124EB50FD4FDE011196852F59
:101EA00001900D928A95E1F78A85EB818823C9F02C
:101EB0006E817F81888599858617970750F4D901AF
:101EC0008D919C9111976E857F85862B972B8D9395
:101ED0009C938E819F81E20FF32FF11D85A34F5FAD
:101EE00091CF8E2F90E06E817F81E23040F0880F9D
:101EF000991FF901E80FF91F71836083F0CF820FFA
:101F0000931FFC017283EBCF61960FB6F894DEBF8E
:101F10000FBECDBFDF91CF911F910F91FF90EF903A
:101F2000089590E0FC01ED53FD4F2491FC01EC5528
:101F3000FD4FE491EE2371F0F0E0EE0FFF1FE0584B
:101F4000FE4FA591B491EC91E22381E090E021F461
:101F500080E0089580E090E00895CF93DF93EC0156
:101F60008091E405DEDF892B39F090E080E09B87EB
:101F70008A87DF91CF9108958FEF9FE7F8CFEF9297
:101F8000FF920F931F93CF93DF930F92CDB7DEB7DE
:101F9000182F6983E42EF22E032F41E0BE016F5FFC
:101FA0007F4FD3D8811109C04E2D6F2D702F812FF7
:101FB00033D9982F81E0911180E00F90DF91CF917C
:101FC0001F910F91FF90EF90089585ED8093BC00D5
:101FD00080E197E22091BC0024FD04C01092B0077C
:101FE00081E008950197B1F780E008958091BB05E5
:101FF00099EE980F923038F08F3029F0982F9B7F10
:1020000081E0993009F480E0817008957F928F9289
:102010009F92AF92BF92CF92DF92EF92FF920F9377
:102020001F93CF93DF93CDB7DEB765970FB6F894C4
:10203000DEBF0FBECDBF1092C2031092C10381E07C
:102040008093820480917A00282F2074C22E86FD0E
:10205000F9CF1092F4021092F3021092F202109251
:10206000F1020AEB15E041E1B42ECE0101967C01AC
:10207000F7012B2D11922A95E9F7CB82F801D0A018
:10208000FFEFDF1609F441C025E0C21207C0AEDF42
:10209000811104C08091BC058330B9F5F80181A19C
:1020A0001A868D83F1E1FD1510F42EEED20EED2D82
:1020B000F0E0EC58FE4FD49061E082E18D0DEADD56
:1020C00090917B008D2D880F880F80729F7D892BCA
:1020D0008983ED2DE770E064EA838091F3029091AB
:1020E000F4029C012F5F3F4F3093F4022093F302E0
:1020F000B89ED001B99EB00D1124AB50BD4FF70171
:102100008B2D01900D928A95E1F7C3940E5F1F4FBE
:1021100046E0C412ADCF8091BA05823009F0A0C06C
:102120008AEC95E09D8B8C8B10E000E088248394F2
:10213000912CEC89FD898191FD8BEC8B8F3F09F40B
:1021400089C091E00C30110520F40830110509F028
:1021500090E091700B8B282F30E0F901ED53FD4F8B
:1021600044914A8BF901EC55FD4FE491F0E0EE0FFC
:10217000FF1FE058FE4FC590D4905401002E02C0BE
:10218000AA0CBB1C0A94E2F7992331F077247394CC
:102190002091BE05213009F0712CE72DE1707E2ED3
:1021A0002091BB0537EE320F323030F02C3121F068
:1021B0002C50223008F068C0992309F465C02091A2
:1021C0000506F8E02F9F90011124F70147E01192D6
:1021D0004A95E9F78B8391E09A87EA89EB87DD8658
:1021E000CC86BF86AE86788AFB89F98B39872887AB
:1021F000823108F08251E82FF0E0EC58FE4FD49085
:1022000061E082E18D0D46DD90917B008D2D880F80
:10221000880F80729F7D892B8983ED2DE770E064A4
:10222000EA838091F3029091F4029C012F5F3F4F6B
:102230003093F4022093F30221E1289FD001299FDB
:10224000B00D1124AB50BD4FF70181E101900D920B
:102250008A95E1F70F5F1F4F0031110509F069CF33
:1022600065960FB6F894DEBF0FBECDBFDF91CF915C
:102270001F910F91FF90EF90DF90CF90BF90AF90A4
:102280009F908F907F9095CD62E0711061E002DDAC
:102290002091C1033091C203C90101969093C203FA
:1022A0008093C10347E0429FF001439FF00D11244A
:1022B000ED53FC4F8A898083D282C182B482A3828B
:1022C00075829B899683C6CF21E030E030938A04E3
:1022D00020938904853309F45DC108F07BC08C31FB
:1022E00009F425C1F0F58C3009F406C1E8F4843016
:1022F00009F4F6C078F4823009F4ECC038F488238D
:1023000009F4DEC0813009F4E2C00895833009F495
:10231000E4C008958A3009F4E9C08B3009F4E9C0BB
:10232000863009F4E0C00895883109F4F4C078F4E7
:10233000863109F4EAC038F4843109F4E0C085310B
:1023400009F4E0C00895873109F4E2C008958A31A4
:1023500009F4E7C08B3109F4E7C0893109F4DEC024
:102360000895853209F4FEC0E8F4813209F4EEC024
:1023700078F48F3109F4E4C038F48D3109F4DAC00F
:102380008E3109F4DAC00895803209F4DCC0089572
:10239000833209F4E1C0843209F4E1C0823209F4E5
:1023A000D8C00895893209F4E9C050F4873209F49D
:1023B000DFC0883209F4DFC0863209F4D6C0089540
:1023C000833309F4E1C0843309F4E1C0823309F4B2
:1023D000D8C00895863409F41CC1C8F58E3309F4B9
:1023E000F4C0E8F48A3309F4E4C078F4883309F4DB
:1023F000DAC038F4863309F4D0C0873309F4D0C08A
:102400000895893309F4D2C008958C3309F4D7C0F4
:102410008D3309F4D7C08B3309F4CEC008958234CC
:1024200009F4DFC050F4803409F4D5C0813409F4D4
:10243000D5C08F3309F4CCC00895843409F4D7C0D3
:10244000853409F4DDC0833409F4CEC008958B359A
:1024500009F406C1E8F4833509F4F6C078F481354F
:1024600009F4ECC038F4873409F4DCC0803509F491
:10247000E2C00895823509F4E4C00895853509F471
:10248000E9C08A3509F4E9C0843509F4E0C008954B
:10249000873609F4FCC050F4853609F401C186364C
:1024A00009F4E4C08C3509F4DEC008958F3609F4D0
:1024B00009C1803709F4FDC08E3609F40CC10895B6
:1024C0008AEB95E0909386048093850408958BEBC6
:1024D00095E0F8CF8CEB95E0F5CF88EE95E0F2CF64
:1024E00089EE95E0EFCF8EEB95E0ECCF8FEB95E0AA
:1024F000E9CF80EC95E0E6CF81EC95E0E3CF8AEC84
:1025000095E0E0CF8BEC95E0DDCF8CEC95E0DACF79
:102510008DEC95E0D7CF8EEC95E0D4CF8FEC95E0A5
:10252000D1CF80ED95E0CECF81ED95E0CBCF82EDA0
:1025300095E0C8CF83ED95E0C5CF84ED95E0C2CF9F
:1025400085ED95E0BFCF86ED95E0BCCF87ED95E0BA
:10255000B9CF88ED95E0B6CF89ED95E0B3CF8AEDA0
:1025600095E0B0CF8CED95E0ADCF8EED95E0AACFA4
:1025700080EE95E0A7CF82EE95E0A4CF84EE95E0C3
:10258000A1CF8BEE95E09ECF8CEE95E09BCF8DEEAC
:1025900095E098CF8EEE95E095CF8FEE95E092CFB7
:1025A00080EF95E08FCF81EF95E08CCF82EF95E0C3
:1025B00089CF83EF95E086CF84EF95E083CF85EFD9
:1025C00095E080CF86EF95E07DCF87EF95E07ACFDD
:1025D00088EF95E077CF89EF95E074CF8AEF95E0AB
:1025E00071CF8BEF95E06ECF8CEF95E06BCF82E0F3
:1025F00090E090938A04809389048DEF95E062CFF8
:1026000082E090E090938A04809389048FEF95E0B4
:1026100059CF82E090E090938A048093890481E00E
:1026200096E050CF82E090E090938A0480938904F2
:1026300083E096E047CF8BED95E044CF8DED95E0BC
:1026400041CF8FED95E03ECF81EE95E03BCF83EE1D
:1026500095E038CF85EE95E035CF87EE95E032CF27
:1026600086EE95E02FCF85E096E02CCF8CE196E0CA
:10267000909386048093850486E690E09093880486
:102680008093870410928A0410928904089584E745
:1026900096E0909386048093850487E690E0EECFE1
:1026A00086E096E0909386048093850485E690E02A
:1026B000E5CF8CEA96E0909386048093850480E7CA
:1026C00090E0DCCF86E996E09093860480938504C1
:1026D0008FE690E0D3CF80E896E0909386048093D5
:1026E00085048EE690E0CACFF89488E198E00FB6B2
:1026F000F894A895809360000FBE90936000FFCF80
:10270000EF92FF920F931F93CF93DF93DC01CB01E6
:10271000BA01A901F8019701C081C630C0F4109731
:1027200061F000271127041B150B601771072CF4AB
:102730003196CE0DDF2DD11DAA83009741F04617AB
:1027400057072CF49081290F311DF9018283DF9105
:10275000CF911F910F91FF90EF9008958F929F92CC
:10276000AF92BF92CF92DF92EF92FF920F931F939F
:10277000CF93DF930F92CDB7DEB76C014A0188E0AB
:1027800090E0DB018D939C93EBEEF5E050E040E0B0
:1027900080E061E070E091919923A1F0D401AD90C7
:1027A000BC909B01042E02C0220F331F0A94E2F753
:1027B0002A213B21232B31F0D601A80FB11D1296FF
:1027C0009C938F5F4F5F5F4F4031510509F05EC0B2
:1027D0008983A0907E04B0907F04F40144815581E8
:1027E0006091FE0570E08091FD0576018E010F5F1E
:1027F0001F4F950190E084DFD40116964D915C91B6
:102800006091000670E08091FF05950190E078DF0F
:10281000F401408551856091020670E080910106C7
:10282000950190E06DDFD4011A964D915C91609115
:10283000040670E080910306950190E061DFA090AE
:102840007504B0907604F401428150E06091FB057C
:1028500070E0950190E080E053DFD40113964C9135
:1028600050E06091FC0570E0950190E080E048DF69
:102870000F90DF91CF911F910F91FF90EF90DF901C
:10288000CF90BF90AF909F908F900895863009F0C1
:1028900082CF9ECFFF920F931F93CF93DF930F9220
:1028A000CDB7DEB78983F62E8A0141E0BE016F5FA6
:1028B0007F4F82E50E94A50881110FC08FE193E050
:1028C0000197F1F700C000004F2DB80182E50E948A
:1028D0000C09982F81E0911180E00F90DF91CF914A
:1028E0001F910F91FF900895CF93DF9300D000D0F8
:1028F00000D0CDB7DEB7AE014F5F5F4F66E08AEF25
:10290000C9DF811119C0898190E0982F882792959D
:10291000907F2E81822B2D8130E0322F222722279B
:102920003F70822B932B26960FB6F894DEBF0FBE16
:10293000CDBFDF91CF9108958FEF9FEFF4CF9C0132
:10294000FB0190E080E0841708F008955AE5211516
:10295000310521F0D901A80FB91F5C915EBD0000BF
:102960000DB407FEFDCF5EB5519350E55A95F1F7D2
:102970000196E9CF0F931F93CF93DF938C01D62F4E
:102980009FB7F894E0916504F091660420818091EE
:10299000670480958223808380915E048CBD809142
:1029A0005C048DBD9FBF43E063E374E0C801C7DFF3
:1029B000809134048F3F49F4D0E0C0E0C1D8CE010B
:1029C000DF91CF911F910F910895909135049A3521
:1029D00011F09111F1CF8F70C82FCC0FD33039F097
:1029E0004DEF4D0F66E374E0C8010396A8DFCD5F9D
:1029F0004C2F4D1BCD1761F06D2F70E0CB01840F74
:102A0000911D8197CCF66D5C7B4F90E080E097DF65
:102A1000C3E3D4E0D3CF8F929F92AF92BF92CF9275
:102A2000DF92EF92FF920F931F93CF93DF9300D02B
:102A300000D000D0CDB7DEB78D839E83062F2FB791
:102A4000F8948091530490915404A0915504B0914E
:102A500056042FBF9C01AD0197E0220F331F441F86
:102A6000551F9A95D1F729833A834B835C83CA011A
:102A7000B9012DE730E040E050E00E941B366901CB
:102A80007A0110E02DE7822E912CA12CB12C602F21
:102A90008D819E816FDFFC01892B41F11F5F4D818C
:102AA0005E81495E5140C1F49181907F81E0903F09
:102AB000E9F426960FB6F894DEBF0FBECDBFDF91C6
:102AC000CF911F910F91FF90EF90DF90CF90BF902B
:102AD000AF909F908F9008952D813E81275D31406A
:102AE000A1F59181907F81E0903F19F76AE070E055
:102AF00080E090E094D82FB7F8948091530490919F
:102B00005404A0915504B09156042FBF9C01AD010F
:102B100087E0220F331F441F551F8A95D1F7298361
:102B20003A834B835C83CA01B901A50194010E94D9
:102B30001B362C193D094E095F092B3F3105410514
:102B4000510508F4A4CF80E0B4CF81E0133008F041
:102B5000B0CFCCCFEF92FF920F931F93CF93DF9321
:102B6000EC0163E081ED91E005DFFC01892B41F090
:102B70008181807F803F31F464E087ED91E04BDF1D
:102B800080E035C0E380F480E094F09480911A01F5
:102B9000A1EBB1E0843011F0A1ECB1E030E020E035
:102BA00001E010E08D918F3FC1F048815981B8015B
:102BB00002C0660F771F8A95E2F7CB01B801022E9B
:102BC00002C0660F771F0A94E2F76E217F21672B00
:102BD000A9F0842B952B998388832F5F3F4F203159
:102BE000310501F78181807D803579F081E0DF91C9
:102BF000CF911F910F91FF90EF9008958095909540
:102C00004823592359834883E8CF85818058990BFD
:102C10001886898726818FE790E0AC01421B510915
:102C20001A864B8727812058330B1C822D834085C1
:102C3000841B91091E828F8341814937D1F44389D6
:102C40004A8344894B8340911A01443091F441896D
:102C500050E059874887EE2451E0F5226FEF7FE777
:102C6000E69EA001E79E500DF69E500D11245B8755
:102C70004A874091BB054D3108F4B8CFDF01199662
:102C8000AE014B5E5F4F8F010B5E1F4FA017B10768
:102C900059F420582FA3805888A78985805889A780
:102CA0008B8580588AA7A2CF6D91FA016193AF01FD
:102CB000EDCF1F93CF93DF93182FD92FC0911A0117
:102CC000C53009F044C080915D0480935E0480911A
:102CD0005B0480935C04812F9D2F3CDF61E070E0FA
:102CE00080E090E00E940F0EC150A9F7812F9D2F28
:102CF00031DF8823A1F164E089EE91E08CDE882346
:102D0000C1F180915A0480935E04809159048093AC
:102D10005C0463E084ED91E02DDEFC01892B49F039
:102D20008381833021F18130F1F48181823409F093
:102D3000C4E0C0931A0165E084EE91E06CDE69E0C6
:102D40008BED91E068DE64E087ED91E064DE812F39
:102D50009D2F00DF811103C085E080931A01DF9170
:102D6000CF911F9108958C3021F7C3E0E2CFC2E0EC
:102D7000E0CF81E080931A01EACFCF93DF93DC01AB
:102D8000FA0184E190E0EB019983888311968C939A
:102D90001197129682E201900D928A95E1F7DF91E8
:102DA000CF91089548E051E060E070E08AEB95E053
:102DB0000C949C369F92AF92BF92CF92DF92EF928B
:102DC000FF920F931F93CF93DF9300D000D000D0DA
:102DD000CDB7DEB78D839E838B01DB018C9180584C
:102DE000990BED81FE811482858312968C91129746
:102DF0008058990B168287838091C105882309F436
:102E0000F6C01596DC9015978D2D90E01396EC90FA
:102E10001397F4E0EF9E900111247C0144E0F594B7
:102E2000E7944A95E1F743E0E422FF24E22AF32AFB
:102E300014962C9154E0259F900111249595879527
:102E40009595879583709927822B932B9C0150E051
:102E500040E029833A834B835C83CA01B9010E9415
:102E60007C3520E030E84FEF53E469837A838B832D
:102E70009C8369817A818B819C810E94CB34962EC0
:102E8000A72EB82EC92ED80112968C91B4E08B9F34
:102E9000C0011124D294D694D69463E0D6228D2911
:102EA0009C0150E040E029833A834B835C83CA0154
:102EB000B9010E947C3520E030E84FEF53E469838C
:102EC0007A838B839C8369817A818B819C810E9428
:102ED000CB34292D3A2D4B2D5C2D69837A838B833E
:102EE0009C8369817A818B819C810E94C13220E020
:102EF00030E044E353E469837A838B839C83698164
:102F00007A818B819C810E9423342BED3FE049E440
:102F100050E469837A838B839C8369817A818B8176
:102F20009C810E94303569837A838B839C8369817D
:102F30007A818B819C810E944B35AD81BE8119962F
:102F40007C936E931897970150E040E029833A8371
:102F50004B835C83CA01B9010E947C3520E030E8D4
:102F60004FEF53E469837A838B839C8369817A81F1
:102F70008B819C810E94CB34292D3A2D4B2D5C2DC9
:102F800069837A838B839C8369817A818B819C811D
:102F90000E94C132DC01CB01B05889839A83AB8394
:102FA000BC8320E030E044E353E4BC01CD010E9447
:102FB00023342BED3FE049E450E469837A838B832B
:102FC0009C8369817A818B819C810E9430356983E1
:102FD0007A838B839C8369817A818B819C810E9417
:102FE0004B35AD81BE811B967C936E931A97ED8114
:102FF000FE8180819181D80115962C9120FD21C000
:10300000906191838083AD81BE818D919C91119758
:10301000F801258121FD19C090628D939C9326961D
:103020000FB6F894DEBF0FBECDBFDF91CF911F91D9
:103030000F91FF90EF90DF90CF90BF90AF909F9057
:1030400008959F7EED81FE81DCCF9F7DAD81BE81A5
:10305000E4CFCF93DF9300D0CDB7DEB7962F6DB717
:103060007EB77A836983E42FF0E031966E1B7F0B85
:103070000FB6F8947EBF0FBE6DBF6F5F7F4FEDB789
:10308000FEB79183522FADB7BEB71296F9019E2FAE
:10309000951B941778F04F5F0E94A50829813A810B
:1030A0000FB6F8943EBF0FBE2DBF0F900F90DF916B
:1030B000CF91089591919D93EACFCF93DF930F9293
:1030C000CDB7DEB780916A01882309F45DC0A09175
:1030D0005D01B0915E01E0915F01F09160019E01A0
:1030E0002F5F3F4F41E014966C9180810E94BF0F8B
:1030F000882329F08FEF0F90DF91CF910895898178
:103100009091630190FF3CC080628983A0915D0132
:10311000B0915E01E0915F01F09160019E012F5F2F
:103120003F4F41E014966C91808193DF8111E2CF93
:103130008FED9EE20197F1F700C0000080917801C9
:10314000882301F180E8898380917901882319F02F
:10315000898180638983A0915D01B0915E01E091D6
:103160005F01F09160019E012F5F3F4F41E0579654
:103170006C9180816EDF8111BDCF10926A01BBCF4F
:103180008F7DC3CF1982E0CF80E0B5CFCF93DF939F
:103190000F92CDB7DEB780916301811105C08FEF2B
:1031A0000F90DF91CF910895198280916201882359
:1031B000C1F0A0915D01B0915E01E0915F01F091DD
:1031C00060019E012F5F3F4F41E017966C91808117
:1031D00040DF8111E4CF898186958695869580931D
:1031E000620180E0DDCFCF93DF930F92CDB7DEB7E2
:1031F00080916301811105C08FEF0F90DF91CF9116
:10320000089588E18983809161018330C1F0A091A4
:103210005D01B0915E01E0915F01F09160019E015E
:103220002F5F3F4F41E016966C91808112DF811134
:10323000E3CF89818695869586958093610180E0AC
:10324000DCCF0F931F93CF93DF93CDB7DEB72997D2
:103250000FB6F894DEBF0FBECDBF8C0180911B016D
:1032600090911C01019689F1AE014F5F5F4F68E0BC
:1032700080E010DB811129C0FE013196AE01475F6D
:103280005F4F9FEF2191822B92234E175F07D1F75B
:103290008823D9F09F3FC9F0E0915704F09158047A
:1032A000309709F09FC0F801828185A3838186A3AE
:1032B0008581805887A38781805880A78185805821
:1032C00081A78385805882A776C00EDB9C019093EE
:1032D0001C0180931B012F3F3F4FE9F4E5E3EA9582
:1032E000F1F7000085E589879E01275F3F4F41E0A8
:1032F00060EF82E5AEDEF5E3FA95F1F7000019869E
:103300009E01275F3F4F41E06BEF82E5A2DE25E3A0
:103310002A95F1F70000E8DA9C0190931C01809354
:103320001B013F7E2130314069F483E089879E0193
:10333000275F3F4F41E06EEF82E58BDEE5E3EA95E4
:10334000F1F7000080911B0190911C018130F1E1A7
:103350009F07E1F1A8F48330E1E09E0731F150F4DA
:103360000097B9F18130914089F110925804109280
:10337000570421C081319140C1F787E99DE017C012
:103380008231F0EF9F0759F150F48330E1E19E075D
:1033900019F18330914349F78DE29DE008C08331F4
:1033A000904F19F78DE39CE002C084E89CE0909375
:1033B00058048093570429960FB6F894DEBF0FBEC9
:1033C000CDBFDF91CF911F910F9108958AEA9CE0C4
:1033D000EECF8AED96E1EBCF85ED9CE0E8CF88EF6C
:1033E0009BE0E5CFBE016F5F7F4FC80109955BCFC2
:1033F000EF92FF920F931F93CF93DF9300D0CDB73F
:10340000DEB7FC018B017A018091630181110AC052
:103410008FEF0F900F90DF91CF911F910F91FF9041
:10342000EF9008959E2F8F2F9A838983A0915F013B
:10343000B0916001E60FF72FF11D18968D919C91C8
:1034400019978E179F0720F3E0915D01F0915E01BF
:103450009E012F5F3F4F42E0638D8C91FADD811119
:10346000D7CFA0915D01B0915E01E0915F01F09135
:1034700060019701402F58966C918081EADD91E0C0
:10348000811101C090E0892F8195C3CF1F93CF9305
:10349000DF930F92CDB7DEB7182F80917901811796
:1034A00069F1112349F180E3898380916A018823BE
:1034B00019F089818260898380917801882319F0CD
:1034C000898180688983A0915D01B0915E01E0915E
:1034D0005F01F09160019E012F5F3F4F41E05796E1
:1034E0006C918081B6DD81110BC0109379010F9032
:1034F000DF91CF911F9108951982D7CF80E0F7CF48
:103500008FEFF5CF1F93CF93DF930F92CDB7DEB739
:10351000182F807719F081E0898303C01123D9F037
:103520001982A0915D01B0915E01E0915F01F0917F
:1035300060019E012F5F3F4F41E055966C91808165
:1035400088DD882351F0109263018FEF0F90DF9197
:10355000CF911F91089580E4DFCF89818F7B809385
:10356000650116FF36C0198215FD03C0898182608E
:10357000898314FD03C089818160898313FD03C0A1
:10358000898188638983A0915D01B0915E01E0919A
:103590005F01F09160019E012F5F3F4F41E0569621
:1035A0006C91808156DD8111CECF812F877F11F004
:1035B00080E06CDF1093630110926C012FEF80E7C5
:1035C00092E0215080409040E1F700C0000080E090
:1035D000BDCF84E08983C8CFCF93DF930F92CDB75F
:1035E000DEB79C0180916301811105C08FEF0F90C0
:1035F000DF91CF91089581E02C3B310588F482E082
:103600002236310568F483E02A32310548F484E03B
:103610002431310528F485E02A30310508F486E0AC
:1036200089839091640189819817A9F0A0915D0127
:10363000B0915E01E0915F01F09160019E012F5F0A
:103640003F4F41E012966C91808103DD8111CECF16
:1036500089818093640180E0CACFCF93DF930F927A
:10366000CDB7DEB780916301811105C08FEF0F9058
:10367000DF91CF9108951982A0915D01B0915E0113
:10368000E0915F01F09160019E012F5F3F4F41E0AB
:1036900051966C918081DDDC8111E8CFA0915D01B4
:1036A000B0915E01E0915F01F09160019E012F5F9A
:1036B0003F4F41E015966C918081CBDC8111D6CFD4
:1036C000A0915D01B0915E01E0915F01F091600118
:1036D0009E012F5F3F4F41E014966C918081B9DCD1
:1036E0008111C4CFE0915D01F0915E016481E091B0
:1036F0005F01F091600180917A01882309F45FC035
:103700008CE089839E012F5F3F4F41E08081A1DCE7
:103710008111ACCF2FEF80E792E0215080409040A4
:10372000E1F700C0000080EC89838091630180FF95
:1037300002C080EE8983A0915D01B0915E01E091AD
:103740005F01F09160019E012F5F3F4F41E01496B1
:103750006C9180817EDC811189CF80916901882301
:1037600061F182E08983A0915D01B0915E01E091F9
:103770005F01F09160019E012F5F3F4F41E0519644
:103780006C91808166DC811171CF1982A0915D01FD
:10379000B0915E01E0915F01F09160019E012F5FA9
:1037A0003F4F41E015966C91808153DC91E081118F
:1037B00001C090E0892F81955ACF1982D4CF84E03F
:1037C00089839E012F5F3F4F41E0808142DC811160
:1037D0004DCF80916A01811104C08091630180FD09
:1037E00040C080E48983A0915D01B0915E01E091C9
:1037F0005F01F09160019E012F5F3F4F41E0149601
:103800006C91808126DC811131CF2FEF80E792E02F
:10381000215080409040E1F700C000008091690194
:10382000882309F181E08983A0915D01B0915E0157
:10383000E0915F01F09160019E012F5F3F4F41E0F9
:1038400051966C91808105DC811110CFA0915D01B2
:10385000B0915E01E0915F01F091600128E631E0F6
:10386000A0CF80E6BFCF1982DFCFCF93DF930F9237
:10387000CDB7DEB790917A019923E9F0882319F04A
:1038800082E0898301C01982A0915D01B0915E013F
:10389000E0915F01F09160019E012F5F3F4F41E099
:1038A00051966C918081D5DB882389F08FEF0F9042
:1038B000DF91CF910895909163019923B9F3882303
:1038C00011F380916901811105C081E0DACF89810E
:1038D0008093690180E0EBCF1F93CF93DF93D82FC4
:1038E00080917A01C0E081111FC08091630188231B
:1038F000B9F0109168018D2380936801C1E08D13A8
:1039000001C0C0E0C19580916C018D2B59F081E020
:10391000ACDFDD2349F0A1DE882331F0109368018C
:10392000CFEF02C080E0A1DF8C2FDF91CF911F91FC
:1039300008951F93CF93DF9300D0CDB7DEB7182F34
:10394000811122C080E0A2DD198287E08A83A091E4
:103950005D01B0915E01E0915F01F09160019E0117
:103960002F5F3F4F42E055966C91808172DB882338
:1039700039F08FEF0F900F90DF91CF911F91089545
:1039800010926C0180E0F6CF81E080DD80E28983D7
:10399000113041F51A8285E090E01EDE8A8120E434
:1039A000829FC001112487608A83A0915D01B0913C
:1039B0005E01E0915F01F09160019E012F5F3F4F3A
:1039C00042E055966C91808144DB8111D2CF88E032
:1039D000809363011092650181E080936C0180E027
:1039E0007BDFD0CF163018F481E08A83D4CF153135
:1039F00028F482E08A838AE090E0CFCF83E08A8354
:103A000084E190E0CACF0F931F93CF93DF930F927F
:103A1000CDB7DEB78C0180916301811107C08FEFB4
:103A20000F90DF91CF911F910F91089580917A01AE
:103A30008111F5CF80916C01882351F0C801019765
:103A4000889720F4802F75DF80E0EACF80E071DF77
:103A5000B801093E134010F068EE73E06430710560
:103A600010F464E070E008EE13E0C8010E94F43541
:103A700061506983A0915D01B0915E01E0915F01A9
:103A8000F09160019E012F5F3F4F41E011966C91D4
:103A90008081DFDA8111C3CF698170E06F5F7F4F72
:103AA000C8010E9408367093670160936601CB01DC
:103AB0009695879591DDC8CF7F928F929F92AF9216
:103AC000BF92CF92DF92EF92FF920F931F93CF930B
:103AD000DF93CDB7DEB7C654D1090FB6F894DEBF79
:103AE0000FBECDBF89AF9AAF8091AD02882309F494
:103AF000A6C01092AD021092800210927F02D09068
:103B00007204ED2CF12C80917A018111B7C08FEFF6
:103B10009AE0899F802D1124082E000C990B909318
:103B20007404809373041091E805E12FE695A4E0F6
:103B3000EA9FF0011124EB56FD4F20EE38EF42EAE8
:103B400056E460817181828193810E9423346BA34A
:103B50007CA38DA39EA36BA17CA18DA19EA10E949D
:103B60004B35462F572FBC0110FDE3C54093910202
:103B70005093920260939302709394024091910249
:103B80005091920260919302709194024115B0E8B5
:103B90005B076105710584F08FEF9FEFA0E0B0E057
:103BA000841B950BA60BB70B809391029093920206
:103BB000A0939302B09394026091E9057091EA0595
:103BC000072E000C880B990B009191021091920224
:103BD0002091930230919402600F711F821F931FF6
:103BE0006115E0E87E078105910524F06FEF7FE71E
:103BF00080E090E097FF03C060E070E0CB0160934D
:103C000091027093920280939302909394020E9487
:103C10007E359B01AC016BA37CA38DA39EA36BA1FE
:103C20007CA18DA19EA10E94E135882341F01092D4
:103C3000910210929202109293021092940280913B
:103C4000910290919202A9ADBAAD1B969C938E936E
:103C50001A97CA5BDF4F0FB6F894DEBF0FBECDBF19
:103C6000DF91CF911F910F91FF90EF90DF90CF9058
:103C7000BF90AF909F908F907F9008958091630147
:103C8000882309F4AEC2A0915D01B0915E01E0917C
:103C90005F01F09160019E012F5D3F4F42E01C9655
:103CA0006C9180810E94BF0F811199C209A11AA154
:103CB0001027012710270E151F0520F410927E02F1
:103CC0008CEF26CFE0915F01F091600181819281BC
:103CD0009695879580179107A8F4A0915D01B09102
:103CE0005E019E012F5D3F4F41E053966C918081B4
:103CF0000E94BF0F811171C289A184FF03C0ADDC96
:103D00008AEF06CFA0915D01B0915E01E0915F0165
:103D1000F09160019E012F5F3F4F4D2D1D966C91DC
:103D200080810E94BF0F282F811155C2C801B701A1
:103D30000E94F435615060937E02E0916E04F09130
:103D40006F04CF0184719927892B09F04CC2E6FFDB
:103D500039C0822F90E0A1E0B0E0AC0FBD1FA80FEA
:103D6000B91F3C91DE01A80FB91F12964C91532F39
:103D70005093010040930000DE01A80FB91F139675
:103D80003C91DE01A80FB91F14964C91532F50930C
:103D9000030040930200DE01A80FB91F15963C9165
:103DA000159716968C91932F90930500809304009D
:103DB0002A5F80917F0290918002886090938002B8
:103DC00080937F02E078F170EF2B81F1822F90E0F9
:103DD000E1E0F0E0EC0FFD1FE80FF91F3081FE017C
:103DE000E80FF91F22813093010020930000FE01AB
:103DF000E80FF91F3381FE01E80FF91F248130938A
:103E0000030020930200FE01E80FF91F258186813F
:103E1000922F909305008093040080917F029091EF
:103E2000800280679093800280937F0210927404D6
:103E300010927304609181027091820280918302DA
:103E4000909184020E947E3520E030E040E850E30B
:103E50006BA37CA38DA39EA36BA17CA18DA19EA12E
:103E60000E942334F62E072F182FA92E862F902F6D
:103E7000A12FBA2D8093810290938202A093830296
:103E8000B0938402609185027091860280918702CE
:103E9000909188020E947E3520E030E040E850E3B7
:103EA0006BA37CA38DA39EA36BA17CA18DA19EA1DE
:103EB0000E9423346FA77BAB8FAB98AFCB01AFA928
:103EC000B8AD8093850290938602A0938702B09349
:103ED00088026091890270918A0280918B02909190
:103EE0008C020E947E3520E030E040E850E36BA376
:103EF0007CA38DA39EA36BA17CA18DA19EA10E94FA
:103F00002334B62EC72ED82EE92E862F9C2DAD2D0C
:103F1000BE2D8093890290938A02A0938B02B09366
:103F20008C0260918D0270918E0280918F0290912F
:103F300090020E947E3520E030E040E850E36BA321
:103F40007CA38DA39EA36BA17CA18DA19EA10E94A9
:103F500023346BA3772E4C01862F972DD4018093A9
:103F60008D0290938E02A0938F02B0939002262F21
:103F7000372DA401FFA5FFA38BA988A79FA999A707
:103F8000A8ADAAA76FA178A589A59AA50E942334F8
:103F90006BA77CA78DA79EA72B2D3C2D4D2D5E2DAD
:103FA000FFA208A719A7AAA66FA178A589A59AA517
:103FB0000E9423349B01AC01BBA5BFA3ECA5E8A7DD
:103FC000FDA5F9A78EA58AA76FA178A589A59AA5B1
:103FD0000E94CB346BA77CA78DA79EA725EE32EF5E
:103FE0004FEF5EE36FA378A789A7AEA5AAA76FA13D
:103FF00078A589A59AA50E94DD3518160CF0B7C1E1
:104000002F2D302F412F5A2DBBA2CCA2DDA2EEA224
:104010006BA17CA18DA19EA10E94C1329B01AC012C
:104020006BA37CA38DA39EA36BA17CA18DA19EA15C
:104030000E94CC3460939D0270939E0280939F02F5
:104040009093A0028BED9FE0A9ECBFE380939902CF
:1040500090939A02A0939B02B0939C0210929502B7
:10406000109296021092970210929802E090950298
:10407000F090960200919702109198022BED3FE08C
:1040800049E450ECEBA2FCA20DA31EA36BA17CA102
:104090008DA19EA10E9447352BED3FE049E450E4FD
:1040A00087FFFFC26BA17CA18DA19EA10E94CC3491
:1040B0002BED3FE049E450E46BA37CA38DA39EA3CA
:1040C0006BA17CA18DA19EA10E94CC347B018C01AF
:1040D000A701B8014093950250939602609397020E
:1040E00070939802E0909902F0909A0200919B02DE
:1040F00010919C022BED3FE049E450ECEBA2FCA2B6
:104100000DA31EA36BA17CA18DA19EA10E9447358A
:104110002BED3FE049E450E487FFDBC26BA17CA1BB
:104120008DA19EA10E94CC342BED3FE049E450E4E8
:104130006BA37CA38DA39EA36BA17CA18DA19EA14B
:104140000E94CC347B018C01A701B80140939902F5
:1041500050939A0260939B0270939C02E0909D02A0
:10416000F0909E0200919F021091A0022BED3FE083
:1041700049E450ECEBA2FCA20DA31EA36BA17CA111
:104180008DA19EA10E9447352BED3FE049E450E40C
:1041900087FFB7C26BA17CA18DA19EA10E94CC34E8
:1041A0002BED3FE049E450E46BA37CA38DA39EA3D9
:1041B0006BA17CA18DA19EA10E94CC347B018C01BE
:1041C000A701B80140939D0250939E0260939F0205
:1041D0007093A002A8CC89EF9BCC8BEF99CC8DEF8C
:1041E00097CC8EEF95CC89819A81AB81BC81BC0143
:1041F000CD010E943D364B015C018092810290927C
:104200008202A0928302B09284028D819E81AF814E
:10421000B885BC01CD010E943D366B017C01C09286
:104220008502D0928602E0928702F0928802898508
:104230009A85AB85BC85BC01CD010E943D368B01C2
:104240009C010093890210938A0220938B02309381
:104250008C028D859E85AF85B889BC01CD010E94F9
:104260003D36AB01BC0140938D0250938E026093AA
:104270008F0270939002C501BB2797FDB095AB2FBD
:104280008BA39CA3ADA3BEA3C701BB2797FDB0958D
:10429000AB2F8FA398A7A9A7BAA7C901BB2797FDE2
:1042A000B095AB2F8FA798ABA9ABBAABCB01BB270F
:1042B00097FDB095AB2F8BAB9CABADABBEAB2BA141
:1042C0003CA14DA15EA1CA01B9010E94E5356BA3D5
:1042D0007CA38DA39EA32FA138A549A55AA5CA01E9
:1042E000B9010E94E5356FA378A789A79AA7CBA04B
:1042F000DCA0EDA0FEA0C60ED71EE81EF91E2FA55D
:1043000038A949A95AA9CA01B9010E94E535C60EC2
:10431000D71EE81EF91E2BA93CA94DA95EA9CA010A
:10432000B9010E94E5356BA37CA38DA39EA3C60EA5
:10433000D71EE81EF91E9FE0F91AA1E0CA16D104A3
:10434000E104A2E0FA0640F088D9109280021092AF
:104350007F028EEF9FEFE3CB80917F0290918002EE
:1043600091609093800280937F0220E1F0CC25EE53
:1043700032EF4FEF5EEBBBA5BFA3ECA5E8A7FDA511
:10438000F9A78EA58AA76FA178A589A59AA50E94ED
:10439000473587FF29C02F2D302F412F5A2DBBA223
:1043A000CCA2DDA2EEA26BA17CA18DA19EA10E9458
:1043B000C13220E030E040E050EC6BA37CA38DA341
:1043C0009EA36BA17CA18DA19EA10E94233460932A
:1043D0009D0270939E0280939F029093A0028BEDAA
:1043E0009FE0A9ECBFEB32CE2BA1372DA4019BA1FE
:1043F0009FA378A689A69AA66FA178A589A59AA554
:104400000E9423346BAF7CAF8DAF9EAF2F2D302F2A
:10441000412F5A2DFFA208A719A7AAA66FA178A518
:1044200089A59AA50E9423342BAD3CAD4DAD5EAD60
:104430006FA378A789A79AA76FA178A589A59AA540
:104440000E94CC349B01AC016FA378A789A79AA7DF
:104450006FA178A589A59AA50E94CC349B01AC01D7
:1044600060E070E080E89FE30E94CB346FAF21965C
:104470007FAF219722968FAF229723969FAF2397E6
:104480002FA53BA94FA958ADFFA208A719A7AAA617
:104490006FA178A589A59AA50E94233424966FAFB1
:1044A000249725967FAF259726968FAF2697279638
:1044B0009FAF27972BA1372DA401BFA2C8A6D9A6CD
:1044C000EAA66FA178A589A59AA50E9423349B012D
:1044D000AC012496AFAD2497AFA32596BFAD259729
:1044E000B8A72696EFAD2697E9A72796FFAD2797A1
:1044F000FAA76FA178A589A59AA50E94CC349B0143
:10450000AC016FA378A789A79AA76FA178A589A501
:104510009AA50E94CC342FAD21963FAD21972296CB
:104520004FAD229723965FAD23976FA378A789A7F6
:104530009AA76FA178A589A59AA50E94C132609318
:104540009D0270939E0280939F029093A0022BA5E0
:104550003CA54DA55EA58BA58FA39CA598A7ADA551
:10456000A9A7BEA5BAA76FA178A589A59AA50E94FB
:10457000CC346FA378A789A79AA76FA178A589A53E
:104580009AA50E949B326093990270939A0280933D
:104590009B0290939C022B2D3C2D4D2D5E2DBFA296
:1045A000C8A6D9A6EAA66FA178A589A59AA50E9452
:1045B00023342BAD3CAD4DAD5EAD6FA378A789A77D
:1045C0009AA76FA178A589A59AA50E94CC349B01D2
:1045D000AC016FA378A789A79AA76FA178A589A531
:1045E0009AA50E94CC349B01AC0160E070E080E8A9
:1045F0009FE30E94CB346BA77CA78DA79EA72B2D92
:104600003C2D4D2D5E2DEFA5EFA3FBA9F8A78FA99B
:1046100089A798AD9AA76FA178A589A59AA50E94A8
:104620002334B62EC72ED82EE92E2BA1372DA40168
:10463000FBA20CA31DA3AEA26BA17CA18DA19EA188
:104640000E9423349B01AC01BBA2CCA2DDA2EEA24E
:104650006BA17CA18DA19EA10E94CB349B01AC01DA
:104660006BA37CA38DA39EA36BA17CA18DA19EA116
:104670000E94CC342BA53CA54DA55EA56BA37CA3C5
:104680008DA39EA36BA17CA18DA19EA10E94C1328E
:10469000609395027093960280939702909398028C
:1046A000E5CCEBA2FCA20DA31EA36BA17CA18DA166
:1046B0009EA10E94DD3518160CF00ACD2BED3FE0CF
:1046C00049E450E46BA17CA18DA19EA10E94CB3452
:1046D000FDCCEBA2FCA20DA31EA36BA17CA18DA11E
:1046E0009EA10E94DD3518160CF02ECD2BED3FE07B
:1046F00049E450E46BA17CA18DA19EA10E94CB3422
:1047000021CDEBA2FCA20DA31EA36BA17CA18DA1C8
:104710009EA10E94DD3518160CF052CD2BED3FE026
:1047200049E450E46BA17CA18DA19EA10E94CB34F1
:1047300045CD70956095509541955F4F6F4F7F4F78
:1047400015CA1F920F920FB60F9211240F931F9349
:104750002F933F934F935F936F937F938F939F9389
:10476000AF93BF93CF93EF93FF93C091E900CF70C6
:104770009091EC00892F817090FD80E8C82B1092F9
:10478000E9008091F000877F8093F000789482E8C0
:1047900097E0FC0101962091F100208327E08A3800
:1047A0009207B9F780915C01843108F07AC080915A
:1047B00083078032D9F480918207807E803CB1F4F7
:1047C0008091860790918707049781F48091E80093
:1047D000877F8093E80068E270E089E192E00E94C0
:1047E000F4098091E8008B778093E8008091E800DD
:1047F00083FF16C02091250180918607909187073D
:104800002817190669F480918307823209F4EFC0F2
:1048100008F072C0803209F4B8C0813209F478C05F
:104820008091E80083FF11C09091820780918307F7
:10483000853009F4B5C108F006C1282F2D7F21303D
:1048400009F475C1882309F451C18091E80083FF00
:104850000AC08091E800877F8093E8008091EB0098
:1048600080628093EB001092E9008091F0008860F4
:104870008093F000CF70C093E900FF91EF91CF914A
:10488000BF91AF919F918F917F916F915F914F9168
:104890003F912F911F910F910F900FBE0F901F907E
:1048A0001895863108F4A2CF2091860730918707AA
:1048B000232B09F09BCF90918207913A09F096CF74
:1048C00090918307913009F091CF873111F08931B0
:1048D00069F486E0809320018091E800877F8093CF
:1048E000E80068E070E08DE191E079CF8D7F88315C
:1048F00099F710922001F0CF833209F091CF809187
:104900008207813209F08CCF8091E800877F38C020
:1049100080918207813A09F083CF8091E800877FF8
:104920008093E8008091E80080FFFCCF80913901FE
:1049300090913A01A0913B01B0913C018093F1002C
:10494000492F5A2F6B2F77274093F100AD0166272F
:1049500077274093F1008B2F9927AA27BB278093B5
:10496000F10080913D018093F10080913E018093A0
:10497000F10080913F018093F1008091E8008E77F3
:104980008093E8000E949A094BCF80918207813280
:1049900009F046CF8091E800877F8093E8008091FE
:1049A000E80082FF20C03091F1002091F100909149
:1049B000F1008091F1003093390120933A019093F6
:1049C0003B0180933C018091F10080933D018091F7
:1049D000F10080933E018091F10080933F0180912E
:1049E000E8008B77CDCF8BB58111D9CF19CF8091CE
:1049F0008207813209F014CF8091E800877F80938D
:104A0000E8000E949A09809184079091850780931D
:104A100035019093360180FD03CF8091390190914B
:104A20003A01A0913B01B0913C01803B9440A1052B
:104A3000B10509F0F5CE87E797E7909301088093D9
:104A400000080E947413883009F442C1893009F4C7
:104A50004CC1863009F0F9CE9058923008F0F5CE6E
:104A6000E0918407F09185078F2F99278330910576
:104A700009F412C108F0B4C08130910509F4C1C035
:104A8000029709F0E2CE4FEB50E06BE170E182EC6F
:104A900096E00E945D3680915C018D3108F4D6C0AD
:104AA00081E080931F0793E09093200710922107E5
:104AB00092E0909376079093680710920A0780938C
:104AC0001C0786E280931A070FEB10E08091E80044
:104AD000877F8093E800B80182EC96E00E94F40999
:104AE0008091E8008B778093E800AFCE903891F00A
:104AF000923809F0AACE809186078F70873008F02F
:104B0000A4CE8093E9008091EB0085FB882780F993
:104B10001092E9009091E800977F9093E8008093CD
:104B2000F1001092F1008091E8008E7721C0923060
:104B300009F08BCE90918407911115C09091860752
:104B40009F702FEF290F263008F07FCE9093E90059
:104B50002091EB0020FF07C0833079F48091EB00B7
:104B600080628093EB001092E9008091E800877FDB
:104B70008093E8000E949A0968CE8091EB008061E2
:104B80008093EB0021E030E001C0220F9A95EAF714
:104B90002093EA001092EA008091EB008860E1CF58
:104BA000911153CE109184071F778091E300807894
:104BB000812B8093E3008091E800877F8093E80059
:104BC0000E949A098091E80080FFFCCF8091E30069
:104BD00080688093E30082E0111183E08BBD35CEC5
:104BE000829709F032CE80915C0168E37FE009E8AA
:104BF00010E0843109F060C061EC7FE000E410E077
:104C00005BC042E150E06AEF70E182EC96E00E9406
:104C10005D3680915C0185518830A8F490E0880F62
:104C2000991FFC01E651FF4E259134913093CB063C
:104C30002093CA06FC01E652FF4E85919491909311
:104C4000CD068093CC0602E110E040CF843198F08D
:104C5000843131F480E490E090932B0780932A070D
:104C600083E080931F07109220071092210781E2B2
:104C70008093240729CF8E3038F48C3058F4893053
:104C800039F08093300720CF92EF980F9230C8F719
:104C900087E0F7CF88E0F5CFE430A0F4FF27EE0FF0
:104CA000FF1FED5EFF4E65917491FB018491082F0B
:104CB00010E0882309F4C9CDA80182EC96E00E9497
:104CC0005D3604CFEE3E09F0C0CD61E070E1EDCF7E
:104CD000903809F0BACD8091E800877F8093E80092
:104CE000809181078093F1001ECF9111AECD10917C
:104CF0008407123008F0A9CD8091E800877F809367
:104D0000E800109381070E949A09112311F084E0B2
:104D100005C08091E30087FDFACF81E08BBD8091D3
:104D20005C018D3198F110925B0182E08093540117
:104D30008093590181E591E00E94CA09882321F0FE
:104D400086E591E00E94CA09E5E3F1E08BE0DF012E
:104D50001D928A95E9F782E08093290180932E01C4
:104D600083E08093330186E291E00E94CA098823A0
:104D700009F46BCD8BE291E00E94CA09882309F403
:104D800064CD80E391E00E94CA095FCDEAE4F1E0DE
:104D900086E0DF011D928A95E9F781E08093490161
:104DA00084EF91E090934D0180934C0183E08093D8
:104DB000440181E491E0C6CF1F920F920FB60F928B
:104DC00011242F933F934F935F936F937F938F9310
:104DD0009F93AF93BF93EF93FF938091DA0080FF8F
:104DE00016C08091D80080FF12C08091DA008E7FBB
:104DF0008093DA008091D90080FF88C080E189BD6E
:104E000082E189BD09B400FEFDCF81E08BBD8091B8
:104E1000E10080FF16C08091E20080FF12C0809107
:104E2000E2008E7F8093E2008091E20080618093B7
:104E3000E2008091D80080628093D80019BC85E0A0
:104E40008BBD8091E10084FF26C08091E20084FF49
:104E500022C080E189BD82E189BD09B400FEFDCF99
:104E60008091D8008F7D8093D8008091E1008F7E63
:104E70008093E1008091E2008F7E8093E200809138
:104E8000E20081608093E20080918107882309F429
:104E900040C084E08BBD8091E10083FF26C08091FB
:104EA000E20083FF22C08091E100877F8093E100D0
:104EB00082E08BBD109281078091E1008E7F80930C
:104EC000E1008091E2008E7F8093E2008091E20019
:104ED00080618093E20042E060E080E00E94B709D8
:104EE0008091F00088608093F000FF91EF91BF9176
:104EF000AF919F918F917F916F915F914F913F9172
:104F00002F910F900FBE0F901F90189519BC1BBCCE
:104F10007ECF8091E30087FD02C081E0BBCF83E0BC
:104F2000B9CF1F921FB61F9211248F939F93AF93F7
:104F3000BF938091530490915404A0915504B09173
:104F400056040196A11DB11D8093530490935404FF
:104F5000A0935504B0935604BF91AF919F918F9148
:104F60001F901FBE1F9018951F920F920FB60F92A1
:104F700011242F933F934F935F936F937F938F935E
:104F80009F93AF93BF93EF93FF938091820481111E
:104F90004CC080917800909179004091F10250913D
:104FA000F20221E1249FF001259FF00D1124EB5026
:104FB000FD4F3185311117C04091F1025091F2023D
:104FC000249FF001259FF00D1124EB50FD4F24810B
:104FD000222319F0919581959109925026E0880F2E
:104FE000991F2A95E1F72091F1023091F202A9016F
:104FF0004F5F5F4F5093F2024093F10241E1429FB5
:10500000F001439FF00D1124EB50FD4F96838583F3
:105010002091F1023091F2028091F3029091F4021A
:105020002817390711F00E94A80EFF91EF91BF9148
:10503000AF919F918F917F916F915F914F913F9130
:105040002F910F900FBE0F901F9018951F920F92E7
:105050000FB60F9211242F933F934F935F936F934B
:105060007F938F939F93AF93BF93EF93FF93909111
:10507000B900892F887F803509F4BEC008F042C08E
:10508000803309F4B4C098F5883101F1D0F4883048
:1050900009F4A5C0803109F4A2C0882309F4ECC04A
:1050A000FF91EF91BF91AF919F918F917F916F9100
:1050B0005F914F913F912F910F900FBE0F901F90D6
:1050C0001895803209F493C0883251F79091AD075A
:1050D0008091AC07981778F5E091AD0781E08E0FCD
:1050E0008093AD07F0E0E457F84F80817AC08034B8
:1050F00009F48EC0883409F47CC0883389F6809323
:10510000AE076BC0803A09F49DC0B8F5803809F449
:1051100087C050F5803611F1D8F4883509F6E09152
:10512000AD0781E08E0F8093AD078091BB00F0E06A
:10513000E457F84F80838091AF0781115AC081E016
:1051400080938A0784EA8093BC001092B007A8CFAE
:10515000803721F0987E983609F0A2CF83E08093C3
:10516000B0071092F0023FC0803909F459C0987E10
:10517000983809F095CF85E837C0883BC9F048F5E5
:10518000883A19F0803B09F08BCF84E08093B00718
:105190001092CF021092CE02F0E0E0E009958091EB
:1051A000CE02811105C081E08093CE021092AE0242
:1051B000E091CF0281E08E0F8093CF02F0E0E255C4
:1051C000FD4F80818093BB009091CF028091CE02F1
:1051D00023C0907F903C09F063CF85ECB4CF8091E1
:1051E0008B078093BB0085EC8093BC0059CF8093E4
:1051F000AE070E94E50F54CFE091AD0781E08E0F1E
:105200008093AD078091BB00F0E0E457F84F8083B6
:105210009091AD078091AC07981708F0ACCFE3CF21
:105220008091F002803208F0A6CFE091F00281E098
:105230008E0F8093F0028091BB00F0E0E053FD4FB1
:105240008083D1CF85EC8093BC001092B007809111
:10525000F002803230F4E091F002F0E0E053FD4FD4
:1052600010826091F00270E080ED92E0F0E0E0E00A
:1052700009951092F00214CF1092AE07BACF8F9317
:1052800081E08093AD028F911895CDB7DEB7AA97D4
:105290000FB6F894DEBF0FBECDBF48E051E060E02E
:1052A00070E08AEB95E00E948C368091C205909167
:1052B000C305A091C405B091C5058531944DA24A9E
:1052C000B10581F048E051E06EE871E08AEB95E0CD
:1052D0000E945D3648E051E060E070E08AEB95E0C6
:1052E0000E949C368091C6059091C705A091C80583
:1052F000B091C9050297A105B10508F580E4809336
:1053000005064AE750E06AED71E086E096E00E940B
:105310005D3642E450E064E572E080E896E00E9489
:105320005D3682E090E0A0E0B0E08093C605909307
:10533000C705A093C805B093C9050E94D2168091F5
:10534000BB05873029F48FE08093BB050E94D216FD
:105350008091BB05883029F48DE08093BB050E94C5
:10536000D2168091BB0580935C01789480917A007D
:10537000846080937A0080917A00826080937A00C2
:1053800080917A00816080937A0080917A008068B1
:1053900080937A0084B5826084BD84B5816084BDC9
:1053A00085B5826085BD85B5816085BD80916E00C3
:1053B000816080936E0010928100809181008260F4
:1053C0008093810080918100816080938100809131
:1053D0008000816080938000809191008260809342
:1053E0009100809191008160809391008091900064
:1053F0008160809390008091C10084608093C1009F
:105400008091C10082608093C1008091C100816061
:105410008093C1008091C30081608093C30080911C
:10542000C00082608093C0008091C2008160809340
:10543000C20080917A00886080937A008091BA05DA
:10544000823009F47DC4833009F47FC4813031F4A3
:1054500081E299E190938104809380041092B007D7
:1054600081E08093AF0710928A07589A599A8091E9
:10547000B9008E7F8093B9008091B9008D7F8093B1
:10548000B90082E18093B80085E48093BC000E945B
:10549000F60F811146C21091BC05113009F042C5CA
:1054A00080E88983A0915D01B0915E01E0915F0188
:1054B000F09160019E012F5F3F4F41E055966C9146
:1054C00080810E94291881119FC46FEF79E688E1DD
:1054D000615070408040E1F700C000001982A09147
:1054E0005D01B0915E01E0915F01F09160019E016C
:1054F0002F5F3F4F41E055966C9180810E942918A3
:10550000811184C410926B018FEF809363018093AB
:10551000610180936201809364012FEF3FEF30932C
:105520006701209366018093680180936A0110935C
:105530006501109378011092790110926D0110921B
:105540006C01EEE6F1E08AE0DF011D928A95E9F751
:1055500010927A0110927B0110927D0110927C01D1
:105560000E94F31812EE811120C00E94C61811EE9D
:1055700081111BC08AE290E00E94EC1A10EE8111AA
:1055800014C082E390E00E94031D1FED81110DC045
:105590000E946C1C1EED811108C00E945D18182F1E
:1055A000811136C480E00E94821A812F110F990B5D
:1055B000909374048093730488E70E94821A009188
:1055C000730410917404080F111D87FD1A950E9431
:1055D000F318080F111D87FD1A950E94C618080FB1
:1055E000111D87FD1A95109374040093730488E7C6
:1055F0000E946C1C0091730410917404080F111D1B
:1056000087FD1A95109374040093730480917B01B5
:1056100099249A9481115FC0F12CE12CE6EFAE2E13
:10562000EBE0BE2E6501CE18DF08B1E1CB16D10448
:1056300018F070E1C72ED12CF701EE51FD4FDE01BD
:105640001196CD018C0D9D1D8A179B0709F0E2C3B1
:10565000AE014F5F5F4FB601C7010E94F819982E47
:1056600081110DC480916301882399F19E2D8F2DA6
:105670009AA789A7E0915F01F091600120853185AB
:10568000C6018E0D911D2817390718F1A0915D01F3
:10569000B0915E019E01275D3F4F42E05B966C91A9
:1056A00080810E942918811114C0A0915D01B091E0
:1056B0005E01E0915F01F09160019E01275E3F4F26
:1056C0004C2D58966C9180810E94BF0F882309F45D
:1056D000A5C36DEF962E090D111D97FC1A95109319
:1056E0007404009373048CE0E1E4F2E0DE011196AF
:1056F00001900D928A95E1F7198E8CE08A8FAE01A8
:10570000475E5F4F62E070E086E192E00E94F81928
:10571000882309F4BDC38FEF080F111D87FD1A956B
:10572000109374040093730480917A01813009F41A
:10573000E2C380917B018111BDC32FEF809173047F
:1057400090917404820F911D27FD9A959093740493
:105750008093730482E089838AEC8A8383EE8B834F
:1057600019E01C83AE014F5F5F4F64E070E088E694
:1057700090E00E94F81983EA89838A838B838C8363
:105780008D838E838F83888789878A87AE014F5F59
:105790005F4F6AE070E087EA9AE00E94F81988EDAE
:1057A0008983AE014F5F5F4F61E070E086EB9AE066
:1057B0000E94F819EEE4F2E0DE01599601900D9294
:1057C0001A95E1F7AE01475E5F4F69E070E088EB44
:1057D00094E00E94F81944E050E06BE870E0CE01DC
:1057E00049960E948536AE01475E5F4F64E070E0E7
:1057F00088E99AE00E94F8190E942D1B80E2898FA7
:1058000088E28A8F80E38B8F88E38C8FAE01475EBE
:105810005F4F64E070E08EE99AE00E94F8190E9400
:105820002D1B88E190E090936F0480936E040E949A
:105830002D1B80E180937204009173041091740415
:105840008BE0E8E5F2E0DE01119601900D928A9579
:10585000E1F7AE014F5F5F4F6BE070E082E89AE0E6
:105860000E94F819080F111D87FD1A9510937404F2
:10587000009373048091E40528EF280F243050F042
:1058800092EF980F943030F096EE980FF0E0E0E051
:10589000933010F4EBE6F0E03081243008F02DC3B3
:1058A00091E0682F6450770BAB0101C0990F4A95C6
:1058B000EAF7932B243050F032EF380F343030F0C9
:1058C00036EE380FF0E0E0E0333010F4EBE6F0E0D5
:1058D0009083243050F092EF980F943030F096EE91
:1058E000980FF0E0E0E0933010F4E8E6F0E090810B
:1058F000243050F022EF280F243030F026EE280F0D
:10590000F0E0E0E0233010F4E8E6F0E0916090830E
:1059100062E00E944A0E8CE59DE190937B048093A7
:105920007A048091BE05823001F586E18093790486
:1059300080E890E00FB6F894809361009093610046
:105940000FBE229A219A209A2A9A289A8CB58064AE
:105950008CBD8CB580618CBD8CB58C608CBD8DB5DB
:1059600081608DBD8CB583608CBD8091E705109200
:105970007E0480937F048091BB05873158F046E018
:1059800050E06DEF71E08EE091E00E945D3686E0C0
:10599000809377048091BB0597EE980F4EE050E01E
:1059A00064EF7EE0923070F04EE050E066EE7EE014
:1059B000873141F0883111F08B3141F44EE050E0F5
:1059C00068ED7EE080E091E00E945D368091BB054D
:1059D0008D3108F4BEC288E79AE090938E058093DB
:1059E0008D058091E70510927E0480937F0480915D
:1059F000E60510927504809376048091D8008F7E1E
:105A00008093D8008091D70081608093D70084E094
:105A100082BF81E0809378048091D8008E7F80934C
:105A2000D8001092E2001092DA001092E10080910A
:105A3000D8008F778093D8008091D80080688093B9
:105A4000D8008091D8008F7D8093D80019BC1BBCF2
:105A5000109281078091E0008B7F8093E00080911D
:105A6000D80081608093D80042E060E080E00E942E
:105A7000B7098091E1008E7F8093E1008091E20080
:105A800081608093E2008091E20088608093E20070
:105A90008091E0008E7F8093E0008091D80080614B
:105AA0008093D800789401E010E010929005109255
:105AB0008F05E0918004F09181048FE895E00995CD
:105AC0008091BF05882309F440C04091930550910F
:105AD000940580917E0490917F0466277727681B48
