:10000000C3C70000E9C70000E7C70000E5C700005C
:10001000E3C70000E1C70000DFC70000DDC7000044
:10002000DBC700000C94151D0C94281BD5C70000DD
:10003000D3C70000D1C70000CFC70000CDC7000064
:10004000CBC70000C9C70000C7C70000C5C7000074
:10005000C3C70000C1C70000BFC700000C94D91B74
:10006000BBC70000B9C70000B7C70000B5C7000094
:10007000B3C70000B1C70000AFC70000ADC70000A4
:10008000ABC70000A9C70000A7C70000A5C70000B4
:100090000C94FC1BA1C700009FC700009DC7000077
:1000A0009BC7000099C7000097C70000036EDB36AE
:1000B0003D9A9999993DABAAAA2A3E000000803F3B
:1000C000084AD73B3BCE016E84BCBFFDC12F3D6CBF
:1000D00074319ABD56833DDA3D00C77F11BED9E425
:1000E000BB4C3E916BAAAABE000000803F072C7A51
:1000F000A5BA6CC590DA3B9365FC8BBC53F810FD38
:100100003C5692834DBD879D3AB63DCBC9BF5BBE81
:1001100073DA0FC93F000000000023002600290009
:100120002C002F00070605040100080A0B0C0D091E
:1001300000000000250028002B002E0031000000E8
:100140000000240027002A002D00300004040404CD
:10015000040304050202020204030202020206066C
:100160000606060604040202020404040802011042
:1001700040804010204080408008020401804020E0
:10018000100201108010204040200000700000008C
:100190000024000000020003000000650054FFEF8F
:1001A0000000FA80000B12820001030C30C30E8C99
:1001B0008CE914D5400213710F8E3883F883300018
:1001C000F883258EF8833000F883FFFFFFFF0FFED2
:1001D000A9D6240004001A8279A10000003CFFFF88
:1001E00000000010000038836FA2003E0330400082
:1001F000000002CAE3093E80000020000000000069
:1002000000004000000060000000000C0000000C36
:10021000186E000006920A16C0DFFFFF0256FD8C22
:10022000D377FFE1C496E0C5BEAA00000000FFFF3F
:100230000B2B00001657000003594000000000007F
:100240001DFA00026C1D000000003FFFDFEB003EC6
:10025000B3B6000D227800002F3C0000000000190A
:1002600042B5000039A20000B365D90E9FC91DCF69
:100270004C3430000000500000003BB67AE80064C7
:10028000000000C800000000000010000000100086
:10029000FA921000225E000D229F00010000003241
:1002A0000000FF46000063D400001000000004D6E8
:1002B000000004CC000004CC00000000107200001C
:1002C00000400000000000000000000600020005E1
:1002D00000070000000000640000000000000000B3
:1002E0000005000500640020000000000000000080
:1002F0000000000040000000030000000032F898F9
:100300000000FF650000830F0000FF9BFC00000061
:1003100000000000000000000000000000000000DD
:1003200000000000000000000000000000000000CD
:10033000000000000000000010004000000000006D
:1003400000060000B26A000200000001FB830068A2
:10035000000000D9FC007CF1FF8300000000006574
:100360000000006403E8006400280000002500008D
:10037000000016A000000000100000001000002F78
:100380000000000001F40000100000280000FFFF42
:100390004581FFFFFA7200000000000000000044E9
:1003A00000050005BAC6004778A200000001000061
:1003B000000000000600000000140000254D002F82
:1003C000706D000005AE000C02D0000000000000BF
:1003D00000000000000000000000001B0000000002
:1003E00000000000000000000000006400000008A1
:1003F00000000000000000000000000000000000FD
:1004000000000000000000000000000000000000EC
:1004100000000000000000000000000000000000DC
:1004200000000000000000000000000000000000CC
:1004300000000000000000000000000000000000BC
:1004400000000000000000000000001B0000000091
:10045000000000000000000E000E00000AC70004AB
:10046000000000000032FFFFFF9C00000B2B00008B
:1004700000020000000100000064FFE50000000031
:10048000000000000000000000000000000100006B
:1004900000000001000000000000000180000001D9
:1004A000800000018000002426D30000000000002E
:1004B0000000000600100096003C00000000000054
:1004C000000000000000000000000C0A4E68CDCFC4
:1004D000770950166759C619CE8200000000000047
:1004E000000000000000000000000000000000000C
:1004F000000017D784000300000000000000000087
:100500000000C7938F9D1E1B1C19000000000000F7
:1005100000000000000000000000000000000000DB
:1005200000000203188500004000000000030000E6
:100530000003000000000000000040000000000078
:1005400000000000000000000000000000000000AB
:10055000000000000000000000000000000000009B
:100560000000000000000000000000000000677DA7
:10057000DF7E72902E554CF6E688000000000000E9
:1005800000000000000000000000D8DCB4B8B0D8C3
:10059000B9ABF3F8FAB3B7BB8E9EAEF132F51BF1EF
:1005A000B4B8B08097F1A9DFDFDFAADFDFDFF2AAFE
:1005B000C5CDC7A90CC92C97F1A989264666B28971
:1005C00099A92D557DB0B08AA896365676F1BAA372
:1005D000B4B280C0B8A89711B28398BAA3F0240827
:1005E00044106418B2B9B49883F1A329557DBAB503
:1005F000B1A38393F0002850F5B2B6AA8393285490
:100600007CF1B9A3829361BAA2DADEDFDB819AB909
:10061000AEF5606870F1DABAA2DFD9BAA2FAB9A36E
:100620008292DB31BAA2D9BAA2F8DF85A4D0C1BBCD
:10063000AD83C2C5C7B8A2DFDFDFBAA0DFDFDFD876
:10064000D8F1B8AAB38DB4980D355DB2B6BAAF8CF7
:1006500096198F9FA70E161EB49AB8AA872C547CA1
:10066000BAA4B08AB691325676B28494A4C808CDA2
:10067000D8B8B4B0F19982A82D557D98A80E161E51
:10068000A22C547C92A4F02C5078F184A898C4CD6C
:10069000FCD80DDBA8FC2DF3D9BAA6F8DABAA6DE91
:1006A000D8BAB2B68696A6D0F3C841DAA6C8F8D8AA
:1006B000B0B4B882A892F52C548898F135D9F418C2
:1006C000D8F1A2D0F8F9A884D9C7DFF8F883C5DA41
:1006D000DF69DF83C1D8F40114F1A8824EA884F346
:1006E00011D182F5D992289788F109F41C1CD8847D
:1006F000A8F3C0F9D1D99782F129F40DD8F3F9F90B
:10070000D1D982F4C203D8DEDF1AD8F1A2FAF9A84F
:100710008498D9C7DFF8F8F883C7DADF69DFF88390
:10072000C3D8F40114F198A8822EA884F311D182C1
:10073000F5D992509788F109F41CD884A8F3C0F831
:10074000F9D1D99782F149F40DD8F3F9F9D1D982C9
:10075000F4C403D8DEDFD8F1AD8898CCA809F9D964
:100760008292A8F57CF1883ACF944A6E98DB693181
:10077000DAADF2DEF9D88795A8F221D1DAA5F9F43D
:1007800017D9F1AE8ED0C0C3AE82C684C3A88595FA
:10079000C8A588F2C0F1F4010EF18E9EA8C63E569F
:1007A000F554F18872F40115F19845856EF58E9E29
:1007B0000488F142985A8E9E068869F4011CF198CB
:1007C0001E1108D0F504F11E970202983625DBF9B8
:1007D000D985A5F3C1DA85A5F3DFD88595A8F309F6
:1007E000DAA5FAD88292A8F578F1881A849F26882B
:1007F0009821DAF41DF3D8879F39D1AFD9DFDFFB19
:10080000F9F40CF3D8FAD0F8DAF9F9D0DFD9F9D83D
:10081000F40BD8F3879F39D1AFD9DFDFF41DF3D8BC
:10082000FAFCA869F9F9AFD0DADEFAD9F88F9FA8F7
:10083000F1CCF398DB45D9AFDFD0F8D8F18F9FA882
:10084000CAF38809DAAF8FCBF8D8F2AD978D0CD9FF
:10085000A5DFF9BAA6F3FAF412F2D8950DD1D9BAF8
:10086000A6F3FADAA5F2C1BAA6F3DFD8F1BAB2B6A6
:100870008696A6D0CAF349DAA6CBF8D8B0B4B8D8D1
:10088000AD84F2C0DFF18FCBC3A8B2B68696C8C1E3
:10089000CBC3F3B0B48898A821DB718D9D71859589
:1008A00021D9ADF2FAD88597A828D9F408D8F28DC5
:1008B00029DAF405D9F285A4C2F2D8A88D9401D121
:1008C000D9F411F2D88721D8F40AD8F28498A8C8AC
:1008D00001D1D9F411D8F3A4C8BBAFD0F2DEF8F837
:1008E000F8F8F8F8F8F8D8F1B8F6B5B9B08A95A3E1
:1008F000DE3CA3D9F8D85CA3D9F8D87CA3D9F8D822
:10090000F8F9D1A5D9DFDAFAD8B18530F7D9DED830
:10091000F830ADDADED8F2B48C99A32D557DA083E2
:10092000DFDFDFB591A0F629D9FBD8A0FC29D9FAE1
:10093000D8A0D051D9F8D8FC51D9F9D879D9FBD859
:10094000A0D0FC79D9FAD8A1F9F9F9F9F9A0DADF40
:10095000DFDFD8A1F8F8F8F8F8ACDEF8ADDE839365
:10096000AC2C547CF1A8DFDFDFF69D2CDAA0DFD9B8
:10097000FADB2DF8D8A850DAA0D0DED9D0F8F8F8F4
:10098000DB55F8D8A878DAA0D0DFD9D0FAF8F8F893
:10099000F8DB7DF8D89CA88CF530DB38D9D0DEDFC9
:1009A000A0D0DEDFD8A848DB58D9DFD0DEA0DFD06A
:1009B000DED8A868DB70D9DFDFA0DFDFD8F1A88838
:1009C000902C547C98A8D05C38D1DAF2AE8CDFF948
:1009D000D8B087A8C1C1B188A8C6F9F9DA36D8A8B5
:1009E000F9DA36D8A8F9DA36D8A8F9DA36D8A8F973
:1009F000DA36D8F78D9DADF818DAF2AEDFD8F7AD5C
:100A0000FA30D9A4DEF9D8F2AEDEFAF983A7D9C359
:100A1000C5C7F1889BA77AADF7DEDFA4F8849408F8
:100A2000A797F300AEF29819A488C6A39488F6326B
:100A3000DFF28393DB09D9F2AADFD8D8AEF8F9D177
:100A4000DAF3A4DEA7F1889B7AD8F38494AE19F97F
:100A5000DAAAF1DFD8A881C0C3C5C7A39283F6285C
:100A6000ADDED9F8D8A350ADD9F8D8A378ADD9F870
:100A7000D8F8F9D1A1DADEC3C5C7D8A18194F81896
:100A8000F2B089ACC3C5C7F1D8B8B4B09786A83165
:100A90009B069907AB9728889BF00C201440B0B4B4
:100AA000B8F0A88A9A285078B79BA8295179247061
:100AB00059446938644831F1BBAB88002C547CF050
:100AC000B38BB8A804285078F1B088B49726A859F9
:100AD00098BBABB38B02264666B0B8F08A9CA829B7
:100AE00051798B2951798A2470598B2058718A4405
:100AF00069388B3940688A6448318B30496088F1A5
:100B0000AC002C547CF08CA804285078F1889726EF
:100B1000A85998AC8C02264666F0899CA829517980
:100B2000247059446938644831A98809205970AB48
:100B300011384069A8193148608CA83C415C207C80
:100B400000F187981986A86E767EA999882D557D23
:100B5000D8B1B5B9A3DFDFDFAED0DFAAD0DEF2AB0C
:100B6000F8F9D9B087C4AAF1DFDFBBAFDFDFB9D8AE
:100B7000B1F1A3978E60DFB084F2C8F8F9D9DED85E
:100B80009385F14AB183A308B5839A0810B79F10E3
:100B9000D8F1B0BAAEB08AC2B2B68E9EF1FBD9F42B
:100BA0001DD8F9D90CF1D8F8F8AD61D9AEFBD8F45D
:100BB0000CF1D8F8F8AD19D9AEFBDFD8F416F1D89E
:100BC000F8AD8D61D9F4F4ACF59C9C8DDF2BBAB6F1
:100BD000AEFAF8F40BD8F1AED0F8AD51DAAEFAF8BF
:100BE000F1D8B9B1B6A3839C08B9B1839AB5AAC0AC
:100BF000FD3083B79F10B58B93F20202D1ABDADEE2
:100C0000D8F1B080BAABC0C3B284C1C3D8B1B9F314
:100C10008BA391B609B4D9ABDEB0879CB9A3DDF143
:100C2000B38B8B8B8B8BB087A3A3A3A3B28BB69B09
:100C3000F2A3A3A3A3A3A3A3A3A3A3F1B087B59AED
:100C4000A3F39BA3A3DCBAACDFB9A3A3A3A3A3A381
:100C5000A3A3A3A3A3A3A3A3A3A3D8D8D8BBB3B789
:100C6000F1AAF9DAFFD9809AAA28B48098A720B708
:100C70009787A86688F07951F1902C870CA7819707
:100C80006293F071716085940129517990A5F128E2
:100C90004C6C870C95188578A38390284C6C886CD5
:100CA000D8F3A28200F210A8921980A2F2D926D815
:100CB000F188A84DD948D896A83980D93CD89580D4
:100CC000A839A68698D92CDA87A72CD8A88995198F
:100CD000A980D938D8A88939A980DA3CD8A82EA803
:100CE0003990D90CD8A8953198D90CD8A809D9FF32
:100CF000D801DAFFD89539A9DA26FFD890A80D894E
:100D000099A810809821DA2ED88999A83180DA2EF6
:100D1000D8A886963180DA2ED8A8873180DA2ED8E6
:100D2000A88292F34180F1D92ED8A882F31980F1DC
:100D3000D92ED882ACF3C0A28022F1A62EA72EA96C
:100D40002298A829DAACDEFFD8A2F22AF1A92E82D5
:100D500092A8F23180A696F1D900AC8C9C0C30ACF4
:100D6000DED0DEFFD88C9CACD010ACDE8092A2F23C
:100D70004C82A8F1CAF235F19688A6D900D8F1FFC5
:100D8000020103000E0D00030102FFFF08090F0D11
:100D90000C0E28000000000104000100000000000B
:100DA000000000045855534231300000000000009C
:100DB0000000000000000000000004030904050119
:100DC0000906A101050719E029E7150025017501AC
:100DD0009508810295017508810105081901290509
:100DE000950575019102950175039101150026FF86
:100DF000000507190029FF950675088100C0120338
:100E00004D005300460054003100300030002000F7
:100E10001803760065007200730069006F006E00B1
:100E20002D0031002E003700000012034100720037
:100E300064007700690069006E006F000000140311
:100E4000730061006E006A006100790039003000B3
:100E50003000000005010905A1011500250135003C
:100E600045017501950D05091901290D81029503AB
:100E7000810105012507463B0175049501651409AB
:100E800039814265009501810126FF0046FF000976
:100E9000300931093209357508950481020600FFD1
:100EA00009200921092209230924092509260927DE
:100EB00009280929092A092B950C81020A2126955E
:100EC00008B1020A2126910226FF0346FF03092CDE
:100ED000092D092E092F751095048102C0092111D1
:100EE00001000122000009027100030100207D08B9
:100EF0000B010202020100090401000102020100CB
:100F00000524001001042402060524060102070539
:100F100082030800FF09040200020A00000007051E
:100F200004022000050705830240000509040000B3
:100F300002FF5D0100142110010025811403030349
:100F400004130208030300000007058103200001C9
:100F50000705020320000112010002000000080939
:100F60001282282231010203010800040806070545
:100F700008020103FF080F0C0F0C0D0EFFFF0809FC
:100F8000050406070A0B433011241FBECFEFDAE039
:100F9000DEBFCDBF15E0A0E9B2E0E2E0F9E602C0B5
:100FA00005900D92A834B107D9F726E0A8E4B5E082
:100FB00001C01D92AC3CB207E1F717E0C4ECD7E0EA
:100FC00004C02197FE010E94CC30C33CD107C9F771
:100FD0000E941B1D0C947F3413C88F929F92AF9276
:100FE000BF92CF92DF92EF92FF929C01CA01DB0188
:100FF0004091B9065091BA062417350708F042C04F
:101000006D01EE24FF24892E9A2EAB2EBB24582D81
:10101000682F4091BE06442391F0E42FF0E0EC9D50
:10102000B001ED9D700DFC9D700D1124C72E489DE3
:1010300040011124592D489FC0011124692FE091CE
:10104000C4068091BF069091C0064091C106E4138A
:1010500022C0F901EE0FFF1F2E0F3F1F820F931FBB
:10106000E091C106E80FF92FF11DC082E091C206A0
:10107000E80FF92FF11D50832091C306820F911DB7
:10108000FC016083FF90EF90DF90CF90BF90AF9016
:101090009F908F900895220F331F220F331F820FCE
:1010A000931FE80FF92FF11D1082DACF982F20E15E
:1010B00037E2413230F081E008952150310909F4DE
:1010C00058C08091B8068111F8CF22E02093B8066D
:1010D00021E02093B7062FEF2093B6061092B506B5
:1010E0004093B406362FA4E9B6E0FB012E2F231B54
:1010F000241778F11092930620919306990F922B62
:101100009093930690919206913071F51092920609
:10111000909193069093BB0020E137E29091BC0040
:1011200093FD1AC095EC9093BC0020E137E29091BA
:10113000B8069230D9F09091B6069F3F49F0809161
:10114000B6068032C1F08091B606803391F483E018
:10115000089521912D93CACF2150310951F09091DA
:1011600093069093BB00DACF95EEDDCF2150310985
:10117000F1F684E0089582E00895982F842F20E10D
:1011800037E2413228F080E0089521503109D9F347
:101190004091B8064111F9CF21E02093B806209381
:1011A000B7063FEF3093B6061092B506380F30936E
:1011B000B4062093930620919306990F922B909357
:1011C000930690919206913069F510929206909153
:1011D00093069093BB0020E137E29091BC0093FD11
:1011E00018C095EC9093BC0020E137E29091B806CE
:1011F0009130D1F09091B506981710F48091B50612
:1012000024E936E0FB01D9019A2F921B981780F050
:1012100008952150310909F4B6CF90919306909327
:10122000BB00DBCF95EEDECF21503109F9F6ABCF15
:101230009D919193E9CF2091E4003091E50095E6EE
:10124000A9012091EC00822F817020FF06C08091BF
:10125000E80080FF06C080E008952091E80022FDAC
:101260001AC080913506882389F0853089F08091F5
:10127000EB0085FD0FC02091E4003091E50042179E
:101280005307F9F29150E1F684E0089582E0089561
:1012900083E0089581E0089580912D0687FF13C0B3
:1012A0008091E80082FF06C08091E8008B778093F0
:1012B000E80004C0809135068111F2CF0895809135
:1012C00035068823D9F38091E80080FFF8CF80911C
:1012D000E8008E77ECCF8093E900EBEEF0E08081C0
:1012E00081608083EDEEF0E010826093EC0040833B
:1012F0008091EE00881F8827881F0895FC01908147
:10130000992311F1892F8F70873000F5248142E0F5
:10131000223008F046E0A181B28168E070E020E070
:101320006A177B0768F02295207F422B638120E4B7
:10133000629FB0011124991F9927991F692BCBCF68
:101340002F5F660F771FECCF81E0089580E008954E
:10135000FC01CB0120913306309134062617370764
:1013600090F0009729F42091E8002E772093E80070
:1013700040E0009751F4411108C08091E80082FFDD
:1013800031C080E00895C901F3CF209135062223B2
:10139000A9F12530A9F12091E80023FD2DC020916D
:1013A000E80022FDEACF2091E80020FFE2CF309153
:1013B000F3002091F200009719F02830310558F021
:1013C00041E02830310509F040E02091E8002E7717
:1013D0002093E800CECF41914093F10001972F5F19
:1013E0003F4FE9CF80913506882341F0853041F0A9
:1013F0008091E80083FFC1CF81E0089582E00895E5
:1014000083E00895CF93C82F809135068430B9F4D6
:101410008091FD029091FE02A091FF02B091000325
:10142000892B8A2B8B2B59F08091EA028F70809345
:10143000E9008091E80085FF04C0C093F100CF91DE
:1014400008959091E8009E779093E800F4DE882359
:10145000A1F3F5CF80913506843019F08FEF9FEF1F
:1014600008958091FD029091FE02A091FF02B0913B
:101470000003892B8A2B8B2B89F38091EF028F70CD
:101480008093E9008091E80082FFE8CF9091F3001B
:101490008091F200892B71F08091F1003091F3007E
:1014A0002091F200232B29F42091E8002B77209340
:1014B000E80008958FEF9FEFF1CFFC01DB0112965A
:1014C0008C91129790E0982F882788279F702C91F5
:1014D000822B9583848312968C91129720E1829FB0
:1014E000C001112488279F7011962C911197822B8F
:1014F0009783868313968C91139783838081918140
:1015000015962C91159720FF17C0906191838083C9
:101510008081918115962C91159721FF0FC09062C3
:10152000918380838081918115962C9122FD08C042
:1015300090649183808308959F7EE8CF9F7DF0CF54
:101540009F7BF7CFFC01DB018D919C9111979583D7
:10155000848312968D919C9113979783868314961A
:101560008C91838308950F931F93CF93DF93FC0196
:10157000AB01A6E8B3E030E020E061E070E08D91DF
:101580008F3FC1F0C081D1818B0102C0000F111FBC
:101590008A95E2F7C8018B01022E02C0000F111FCD
:1015A0000A94E2F704231523012B71F08C2B9D2B59
:1015B000918380832F5F3F4F2031310501F7DF9109
:1015C000CF911F910F910895809590958C239D2325
:1015D000EFCFFC01DB018C918058990B148285833D
:1015E00012968C9112978058990B168287831596C4
:1015F0002C91159780E090E8920F97FF02C090E041
:1016000080E09187808716966D917C9160957095AA
:10161000CF01A9CFFC01DB018C918058990B14827A
:10162000858312968C9112978058990B1682878326
:1016300011968C9111978058990B1086818713967B
:101640008C9113978058990B1286838714968C91EE
:101650001497828315968C911597838316966D91B6
:101660007C9160957095CF017ECFFC01DB018C9160
:101670008052990B880F880F1482858311968C9164
:1016800011978052990B880F880F168287831496C2
:101690006D917C91609570957E7FCF0164CFDC0168
:1016A000FB0180812181229526952670982F9695A1
:1016B000969596959871292B9281991F9927991F34
:1016C000292B880F880F805814961C921497159612
:1016D0008C9315978181880F880F805816961C92DD
:1016E000169717968C9317979481338190FF38C083
:1016F000832F90E0809590958F7199278096199609
:101700009C938E931897022E000C330B828180FFDE
:101710002DC08FE390E0821B930B1B969C938E93BE
:101720001A97828186958695887193819295969570
:101730009770892B12968C931297828190E09595E1
:1017400087958F7013968C93139764817581762794
:1017500067277627609570956D7C7376CD0103CFF2
:101760003F7180E290E0831B9109C9CF80E290E055
:10177000D2CFFB0164817581762767277627609534
:101780007095F1CECF93DF9300D000D0CDB7DEB708
:101790003FB7F8948091990590919A05A0919B0587
:1017A000B0919C0526B5A89B05C02F3F19F0019666
:1017B000A11DB11D3FBFBA2FA92F982F8827820FD7
:1017C000911DA11DB11D9C01AD0163E0220F331FCE
:1017D000441F551F6A95D1F7CA01B9010F900F90A8
:1017E0000F900F90DF91CF910895CF93DF9390E00A
:1017F000FC01E559FE4F2491845B9E4FFC018491CE
:101800008823D1F090E0880F991FFC01E25CFE4F25
:10181000A591B491FC01E05DFE4FC591D49161307A
:1018200071F49FB7F8948C91209582238C938881D2
:10183000282328839FBF7894DF91CF910895623049
:1018400051F49FB7F8943C91822F809583238C9319
:10185000E8812E2BEECF8FB7F894EC912E2B2C93A2
:101860008FBFE9CF823108F08251E82FF0E0EC5DC4
:10187000FE4FE49190917B008E2F880F880F80722D
:101880009F7D892B80937B00E770E064E0937C0070
:1018900080917A00806480937A0080917A0086FD3E
:1018A000FCCF8091780090917900089590E0FC0140
:1018B000E559FE4F2491FC01E45BFE4FE491EE23D9
:1018C00071F0F0E0EE0FFF1FEA5EFE4FA591B491BC
:1018D000EC91E22381E090E021F480E0089580E043
:1018E00090E00895AF92BF92CF92DF92EF92FF9275
:1018F0000F931F93CF93DF93EC0169E4C62E66E04C
:10190000D62E10E000E0AA24A394B12CF601819118
:101910006F018F3F01F1F12CE12C0C30110548F0E3
:1019200021E090E030913D06313009F020E0E22ED8
:10193000F92EBCDFA501002E02C0440F551F0A94EA
:10194000E2F7288139818E159F0509F0B0C0242B5C
:10195000352B398328830F5F1F4F00311105B1F6F6
:1019600080915D068F3FC9F07DDF9C0132508091F0
:101970005E0641E050E0882311F04FEF5FEF249FB7
:10198000C001259F900D349F900D112456E0880FC3
:10199000991F5A95E1F79D838C8380915F068F3F55
:1019A000C9F060DF9C0132508091600641E050E058
:1019B000882311F04FEF5FEF249FC001259F900D0A
:1019C000349F900D112446E0880F991F4A95E1F746
:1019D0009F838E83809161068F3FC9F043DF9C0116
:1019E00032508091620641E050E0882311F04FEFC1
:1019F0005FEF249FC001259F900D349F900D11240F
:101A000036E0880F991F3A95E1F79987888780918A
:101A100063068F3FC9F026DF9C0132508091640637
:101A200041E050E0882311F04FEF5FEF249FC001A9
:101A3000259F900D349F900D112426E0880F991F4B
:101A40002A95E1F79B878A87809159068F3F81F01D
:101A500009DF9C01325080915A0691E081119FEF7D
:101A6000929F902D11249295990F990F907C9A83B3
:101A700080915B068F3F81F0F5DE9C0132508091B2
:101A80005C0691E081119FEF929F902D1124929519
:101A9000990F990F907C9B83DF91CF911F910F91AC
:101AA000FF90EF90DF90CF90BF90AF90089540955A
:101AB0005095242335234DCFEF92FF920F931F9320
:101AC000CF93DF930F92CDB7DEB7182F6983E42E43
:101AD000F22E032F41E0BE016F5F7F4FE7DA8111E5
:101AE00009C04E2D6F2D702F812F47DB982F81E07D
:101AF000911180E00F90DF91CF911F910F91FF9096
:101B0000EF90089585ED8093BC0080E197E22091ED
:101B1000BC0024FD04C01092B80681E0089501972E
:101B2000B1F780E0089590913A06963011F09B301D
:101B300019F481E081700895975181E09230D0F3DB
:101B400080E0F8CF8EBD0DB407FEFDCF08951F9342
:101B5000CF93DF93EB01182F8FEFF4DF812FF2DFAC
:101B60008D2FF0DF8C2FDF91CF911F91EBCFF89469
:101B700088E198E00FB6F894A895809360000FBEB6
:101B800090936000FFCFEF92FF920F931F93CF933C
:101B9000DF93DC01CB01BA01A901F8019701C081F3
:101BA000C630C0F4109761F000271127041B150BF5
:101BB000601771072CF43196CE0DDF2DD11DAA834D
:101BC000009741F0461757072CF49081290F311DDB
:101BD000F9018283DF91CF911F910F91FF90EF90D8
:101BE0000895FF920F931F93CF93DF930F92CDB77A
:101BF000DEB78983F62E8A0141E0BE016F5F7F4F19
:101C000082E554DA81110EC08FE891E00197F1F777
:101C100000C000004F2DB80182E5AFDA982F81E0B7
:101C2000911180E00F90DF91CF911F910F91FF9064
:101C300008958F929F92AF92BF92CF92DF92EF92D0
:101C4000FF920F931F93CF93DF93CDB7DEB72D97FE
:101C50000FB6F894DEBF0FBECDBF690158018CE00E
:101C6000E6E8F6E0DE01119601900D928A95E1F723
:101C700020913A06243120F584E190E0D8018D933B
:101C80009C93F6018183D60112968AE0FE0131967B
:101C900001900D928A95E1F781E02D960FB6F894A8
:101CA000DEBF0FBECDBFDF91CF911F910F91FF908F
:101CB000EF90DF90CF90BF90AF909F908F9008955E
:101CC00089819A8150E040E0A1E0B0E0243109F040
:101CD0007CC0ECE6F6E050E040E020E061E070E03F
:101CE0003191332389F0DB01042E02C0AA0FBB1F00
:101CF0000A94E2F7A823B923AB2B31F0D601A20F47
:101D0000B11D12963C932F5F4F5F5F4F40315105DD
:101D100009F057C02D8720916706309168064D81E4
:101D20005E8160917F0670E080917E0676018E0173
:101D3000035F1F4F90E027DF209167063091680610
:101D40004F8158856091810670E08091800690E017
:101D50001ADF209167063091680649855A8560919F
:101D6000830670E08091820690E00DDF2091670687
:101D7000309168064B855C856091850670E08091A6
:101D8000840690E000DF20916506309166064B8165
:101D900050E060917C0670E090E080E0F4DE2091FD
:101DA0006506309166064C8150E060917D0670E0DA
:101DB00090E080E0E8DE88E090E0D5018D939C9390
:101DC0006BCF263009F08CCFA5CFFA01E858F04F41
:101DD000F490EFEFFE16C9F0F601608171819D016C
:101DE000042E02C0220F331F0A94E2F7FD0102C045
:101DF000EE0FFF1FFA94E2F7E823F923EF2B71F1BE
:101E0000262B372BF601318320834F5F5F4F4E30F7
:101E10005105D9F620913A06253191F4D6012D913C
:101E20003C91119794FF22C022602D933C93D601E0
:101E30002D913C91119795FF1EC024602D933C93EA
:101E4000E0903606609137067091380600913A06A8
:101E5000D60130E020E041E050E044C020953095CC
:101E600062237323F60171836083CFCF2D7FF60148
:101E700031832083DCCF2B7FF60131832083E0CFB9
:101E8000FB01E20FF31FE491EF3F49F14A0102C069
:101E9000880C991CEA95E2F7F401E823F92311E094
:101EA000EF2B09F410E00731B1F4E3E09E2E9F140C
:101EB00090F0F901EC58F04FE4914A0102C0880C0F
:101EC000991CEA95E2F7F401E823F923E12B11E0EC
:101ED000EF2B09F410E0119517961C9317972F5FBD
:101EE0003F4F1196F22E2E1558F2E82FEF70EB307F
:101EF00020F5F0E0E759F04FE491D6011296EC930B
:101F000012972B853C850731D1F44A8540581596A8
:101F10004C9347EF51E02F3FBFE73B0711F444E8F4
:101F200051E0F601548B438BF6014081518190FFC3
:101F30007DC04061518340832AC0E8E0DECF083194
:101F400009F55A8540E8451B15964C9315974D9118
:101F50005C912F3FBFE73B0709F05BC04062F60191
:101F600051834083F6014081518196FF57C0416003
:101F700051834083F6014081518197FF53C04860EF
:101F80005183408340913A064751423068F2409174
:101F90003A064951423080F4F6014081518190FF68
:101FA00049C0406251834083F6014081518191FFD5
:101FB00045C040615183408380913A06855182300B
:101FC00008F048C05B81F601808191815333D0F1E4
:101FD0008061918380834C81F601808191814333BC
:101FE000A8F1806291838083F601538744878E81B4
:101FF000805883838885805884838A858058858328
:1020000080E8830F86838BE190E0F50191838083E4
:1020100043CE4F7DD6014D935C93A4CF4E7F518329
:102020004083A8CF477F51834083ACCF4F7E5183FD
:102030004083ADCF4F7D51834083B6CF4F7E5183D8
:102040004083BACF8F7E91838083C5CF8F7D91836C
:102050008083CACF80E8D60113968C931397149689
:102060008C9314978DE716968C93CDCFCF92DF92F9
:10207000FF920F931F93CF93DF9300D000D000D037
:102080000F92CDB7DEB72DB73EB73F832E83809139
:102090003506882309F4A5C08091E9008F7020914E
:1020A000EC00922F917020FD90E8F92EF82A109202
:1020B000E9008091E80083FF90C08DE296E0FC018A
:1020C00001962091F100208336E085339307B9F71C
:1020D0008091E80083FF19C02091040380913106AC
:1020E000909132062817190681F480912E068930C6
:1020F00009F401C108F08AC0823009F481C183303B
:1021000009F448C1813009F49BC08091E80083FF45
:1021100016C02091E902809131069091320628176D
:10212000190669F480912E06823209F4FCC108F088
:102130007EC1803209F4C4C1813209F484C1809126
:10214000E802843108F01AC280912E06803211F51F
:1021500080912D06807E803CE9F48091310690913B
:1021600032060497B9F448E250E062E97DE080E08D
:1021700092E00E94E1308091E800877F8093E80040
:1021800068E270E080E092E0E3D88091E8008B772D
:102190008093E8008091E80083FF11C090912D06A4
:1021A00080912E06853009F4CCC208F012C2282F87
:1021B0002D7F213009F48CC2882309F468C28091F4
:1021C000E80083FF0AC08091E800877F8093E800E1
:1021D0008091EB0080628093EB008F2D8F70809355
:1021E000E9002E813F810FB6F8943EBF0FBE2DBF90
:1021F00027960FB6F894DEBF0FBECDBFDF91CF910B
:102200001F910F91FF90DF90CF9008958A3009F4CD
:10221000DBC08B3009F079CF80912D06813209F037
:1022200074CF8091E800877F8093E80035D8909143
:102230002F0681E0911101C080E080930D0365CFEE
:1022400080912D06813A09F060CF8DB79EB79D83AE
:102250008C831A82198280912F06109130068B830D
:1022600080910C03482F50E0ADB7BEB7A41BB50B4F
:102270000FB6F894BEBF0FBEADBF2DB73EB72F5FF0
:102280003F4F690170E060E0C9010E9400314FEFEB
:10229000410F8E010F5F1F4F9601BE016D5F7F4F93
:1022A00084E093E0C6DC80910A0390910B030097D1
:1022B00031F040910C0350E0B6010E94F7301092CB
:1022C000E9008091E800877F8093E8008B8181118D
:1022D0008093F10069817A81C6013AD88091E80043
:1022E0008B778093E8008C819D810FB6F8949EBF18
:1022F0000FBE8DBF0ACF80912D06813209F005CF28
:10230000ADB7BEB7BD83AC838091330690913406E0
:102310002DB73EB7281B390B0FB6F8943EBF0FBE42
:102320002DBFEDB7FEB731962091E800277F2093AF
:10233000E800009729F42091E8002B772093E8002B
:10234000009771F48091E80080FD06C08091350609
:10235000882311F08530B1F78091E8008E77C1CFE6
:10236000209135062223C1F32530B1F32091E800F6
:1023700023FDF2CF2091E80022FFE2CF3091F3005D
:102380002091F200232BB9F22091F10021930197C3
:10239000A9F7D1CF80912D06813A09F0B6CE809170
:1023A000E800877F8093E8008091E80080FFFCCF01
:1023B00080910D038093F1008091E8008E778093E7
:1023C000E8000E944C09A1CE80912D06813209F0CF
:1023D0009CCE8091E800877F8093E8000E944C09A2
:1023E00080912F069091300666E0969587956A95C4
:1023F000E1F78C7F9370909311038093100385CE47
:1024000080912D06813A09F080CE8091E800877F87
:102410008093E8008091E80080FFFCCF809110035A
:10242000909111039695879596958795C3CF8332A2
:1024300009F085CE80912D06813209F080CE809101
:10244000E800877F38C080912D06813A09F077CE69
:102450008091E800877F8093E8008091E80080FF0A
:10246000FCCF8091FD029091FE02A091FF02B091FD
:1024700000038093F100492F5A2F6B2F7727409349
:10248000F100AD01662777274093F1008B2F992744
:10249000AA27BB278093F100809101038093F1006C
:1024A000809102038093F100809103038093F100F7
:1024B0008091E8008E778093E8000E944C093FCE1F
:1024C00080912D06813209F03ACE8091E800877F15
:1024D0008093E8008091E80082FF20C03091F100F5
:1024E0002091F1009091F1008091F1003093FD0274
:1024F0002093FE029093FF02809300038091F100ED
:10250000809301038091F100809302038091F10098
:10251000809303038091E8008B77CDCF80913506BF
:102520008111D8CF0CCE80912D06813209F007CED3
:102530008091E800877F8093E8000E944C09809199
:102540002F06909130068093F9029093FA0280FD55
:10255000F6CD8091FD029091FE02A091FF02B09114
:102560000003803B9440A105B10509F0E8CD87E761
:1025700097E79093010880930008F9DA863108F410
:1025800009CE2091310630913206232B09F002CE7C
:1025900090912D06913A09F0FDCD90912E06913043
:1025A00009F0F8CD873111F0893169F486E0809324
:1025B000E2028091E800877F8093E80068E070E0A5
:1025C0008FED92E0E1CD8D7F883199F71092E20294
:1025D000F0CF883009F45FC1893009F469C18630D1
:1025E00009F0EDCD9058923008F0E9CD20912F06FA
:1025F00030913006832F99278330910509F40DC15E
:1026000008F0C0C08130910509F4CDC0029709F0EF
:10261000D6CD41E750E066EE7EE080E092E00E9499
:10262000E1308091E702809369028091E802843171
:1026300058F14EE050E069E47FE088E592E00E94C6
:10264000E13080910202909103020B979093030274
:102650008093020249E050E06DED7EE08FE492E06D
:102660000E94E1308091E802843109F0D3C080E417
:1026700090E0909357028093560283E080934B0240
:1026800010924C0210924D0201E710E0DBC090382E
:1026900091F0923809F093CD809131068F70873098
:1026A00008F08DCD8093E9008091EB0085FB8827B1
:1026B00080F91092E9009091E800977F9093E800EC
:1026C0008093F1001092F1008091E8008E7721C094
:1026D000923009F074CD90912F06911115C0909110
:1026E00031069F702FEF290F263008F068CD9093A8
:1026F000E9002091EB0020FF07C0833079F480913E
:10270000EB0080628093EB001092E9008091E8007A
:10271000877F8093E8000E944C0951CD8091EB00A7
:1027200080618093EB0021E030E001C0220F9A9598
:10273000EAF72093EA001092EA008091EB008860AB
:10274000E1CF91113CCD10912F061F778091E300CE
:102750008078812B8093E3008091E800877F8093CD
:10276000E8000E944C098091E80080FFFCCF809136
:10277000E30080688093E30082E0111183E080939E
:1027800035061DCD829709F01ACD8091E80264E5E7
:102790007EE009E810E0843109F04FC06EEB7DE087
:1027A00000E410E04AC042E150E067E57FE080E0ED
:1027B00092E00E94E1308091E802853179F48DE069
:1027C0009FE0909309028093080282E990E0909341
:1027D0000B0280930A0202E110E034C0873130F02E
:1027E0002AEB32E13093090220930802873119F471
:1027F00080E091E0ECCF883119F480E092E0E7CFFF
:10280000893119F480E291E0E2CF8A3121F780E149
:1028100092E0DDCF89E890E02CCFC90199272230E2
:1028200069F183309105F0F4009759F16EE37EE091
:1028300004E110E0019709F0C2CCA80180E092E029
:102840000E94E1308091E800877F8093E800B80122
:1028500080E092E00E94A8098091E8008B77809345
:10286000E800ADCC8330910589F06EEF7DE08E3EBF
:10287000910509F0A4CC02E110E0DFCF6AE27EE02E
:10288000FACF6AEB7DE004E010E0D7CF60E17EE0B4
:1028900008E110E0D2CF903809F091CC8091E800A7
:1028A000877F8093E80080912C068093F1000CCF05
:1028B000911185CC10912F06123008F080CC8091B8
:1028C000E800877F8093E80010932C060E944C0953
:1028D000112311F084E005C08091E30087FDFACF59
:1028E00081E080933506EEE0F3E086E0DF011D92A3
:1028F0008A95E9F781E080930D0384EF91E090934E
:1029000011038093100313E01093080385E093E014
:102910000E947E09E9EFF2E08BE0DF011D928A95CB
:10292000E9F782E08093ED028093F2021093F702C0
:102930008AEE92E00E947E09882309F440CC8FEE53
:1029400092E00E947E09882309F439CC84EF92E05A
:102950000E947E0934CCCF93DF9300D0CDB7DEB791
:10296000962F6DB77EB77A836983E42FF0E03196B6
:102970006E1B7F0B0FB6F8947EBF0FBE6DBF6F5FEF
:102980007F4FEDB7FEB79183522FADB7BEB712960A
:10299000F9019E2F951B941778F04F5F0E945608FF
:1029A00029813A810FB6F8943EBF0FBE2DBF0F901C
:1029B0000F90DF91CF91089591919D93EACFCF939E
:1029C000DF930F92CDB7DEB780912103882309F4FE
:1029D0005CC0A0911403B0911503E0911603F0912F
:1029E00017039E012F5F3F4F41E014966C91808149
:1029F00063D8882329F08FEF0F90DF91CF9108954E
:102A0000898190911A0390FF3CC080628983A091D4
:102A10001403B0911503E0911603F09117039E0182
:102A20002F5F3F4F41E014966C91808194DF8111BC
:102A3000E2CF8FE697E10197F1F700C000008091A7
:102A40002F03882301F180E8898380913003882354
:102A500019F0898180638983A0911403B0911503D3
:102A6000E0911603F09117039E012F5F3F4F41E065
:102A700057966C9180816FDF8111BDCF1092210339
:102A8000BBCF8F7DC3CF1982E0CF80E0B5CFCF938E
:102A9000DF930F92CDB7DEB780911A03811105C085
:102AA0008FEF0F90DF91CF910895198280911903D4
:102AB0008823C1F0A0911403B0911503E09116038F
:102AC000F09117039E012F5F3F4F41E017966C91E5
:102AD000808141DF8111E4CF898186958695869535
:102AE0008093190380E0DDCFCF93DF930F92CDB7B2
:102AF000DEB780911A03811105C08FEF0F90DF912F
:102B0000CF91089588E18983809118038330C1F0C3
:102B1000A0911403B0911503E0911603F0911703EF
:102B20009E012F5F3F4F41E016966C91808113DF2D
:102B30008111E3CF898186958695869580931803C8
:102B400080E0DCCFEF92FF920F931F93CF93DF9340
:102B5000CDB7DEB72E970FB6F894DEBF0FBECDBF50
:102B60007C01AE014F5F5F4F68E080E03AD88E0194
:102B7000075F1F4F811123C0FE0131969FEF219106
:102B8000822B92230E171F07D1F78823C1F09F3F96
:102B9000B1F0E0919D05F0919E05BE016F5F7F4F02
:102BA000C70109952E960FB6F894DEBF0FBECDBFB4
:102BB000DF91CF911F910F91FF90EF9008952AE13F
:102BC0002A95F1F700C085E58987980141E060EF1B
:102BD00082E5C1DE4AE14A95F1F700C01986980105
:102BE00041E06BEF82E5B7DE8AE18A95F1F700C03C
:102BF000A80166E08AEF0E94F10D882359F08FEF5B
:102C00009FEF9093DE028093DD0210929E0510925A
:102C10009D05C8CF898590E0982F88279295907F51
:102C20002E85822B2D8530E0322F222722273F70E0
:102C3000822B932B9093DE028093DD029C012D7FEB
:102C40002130314019F08130914159F483E0898776
:102C5000980141E06EEF82E57EDE4AE14A95F1F7A8
:102C600000C08091DD029091DE02833021E1920765
:102C700081F1B0F4833021E0920709F148F4009724
:102C800029F18130914009F0C0CF8AE09BE019C062
:102C9000813141E0940731F181309141B1F3B5CFF9
:102CA000823140EF9407C1F0833120EF9207B9F0F1
:102CB0008330914309F0A9CF8FE49BE002C089EEF5
:102CC0009AE090939E0580939D056CCF89ED99E1E4
:102CD000F8CF85E39BE0F5CF8DE59AE0F2CF82EA6D
:102CE0009AE0EFCF89EB9BE0ECCFEF92FF920F934E
:102CF0001F93CF93DF9300D0CDB7DEB7FC018B01DC
:102D00007A0180911A0381110AC08FEF0F900F9002
:102D1000DF91CF911F910F91FF90EF9008959E2F1B
:102D20008F2F9A838983A0911603B0911703E60F22
:102D3000F72FF11D18968D919C9119978E179F076B
:102D400020F3E0911403F09115039E012F5F3F4F94
:102D500042E0638D8C91FFDD8111D7CFA0911403E8
:102D6000B0911503E0911603F09117039701402FDE
:102D700058966C918081EFDD91E0811101C090E067
:102D8000892F8195C3CF1F93CF93DF930F92CDB738
:102D9000DEB7182F80913003811769F1112349F1B3
:102DA00080E3898380912103882319F089818260DF
:102DB000898380912F03882319F089818068898312
:102DC000A0911403B0911503E0911603F09117033D
:102DD0009E012F5F3F4F41E057966C918081BBDD94
:102DE00081110BC0109330030F90DF91CF911F9191
:102DF00008951982D7CF80E0F7CF8FEFF5CF1F93DB
:102E0000CF93DF930F92CDB7DEB7182F807719F0ED
:102E100081E0898303C01123D9F01982A0911403A2
:102E2000B0911503E0911603F09117039E012F5FF7
:102E30003F4F41E055966C9180818DDD882351F0A4
:102E400010921A038FEF0F90DF91CF911F91089589
:102E500080E4DFCF89818F7B80931C0316FF36C00F
:102E6000198215FD03C089818260898314FD03C026
:102E700089818160898313FD03C089818863898387
:102E8000A0911403B0911503E0911603F09117037C
:102E90009E012F5F3F4F41E056966C9180815BDD34
:102EA0008111CECF812F877F11F080E06CDF1093EE
:102EB0001A03109223032FE788E391E0215080400A
:102EC0009040E1F700C0000080E0BDCF84E089833E
:102ED000C8CFCF93DF930F92CDB7DEB79C0180911F
:102EE0001A03811105C08FEF0F90DF91CF910895E4
:102EF00081E02C3B310588F482E02236310568F40C
:102F000083E02A32310548F484E02431310528F485
:102F100085E02A30310508F486E0898390911B030F
:102F200089819817A9F0A0911403B0911503E0913D
:102F30001603F09117039E012F5F3F4F41E0129659
:102F40006C91808108DD8111CECF898180931B0334
:102F500080E0CACFCF93DF930F92CDB7DEB78091D9
:102F60001A03811105C08FEF0F90DF91CF91089563
:102F70001982A0911403B0911503E0911603F0910A
:102F800017039E012F5F3F4F41E051966C91808166
:102F9000E2DC8111E8CFA0911403B0911503E09118
:102FA0001603F09117039E012F5F3F4F41E01596E6
:102FB0006C918081D0DC8111D6CFA0911403B091A7
:102FC0001503E0911603F09117039E012F5F3F4F09
:102FD00041E014966C918081BEDC8111C4CFE091F8
:102FE0001403F09115036481E0911603F091170327
:102FF00080913103882309F45FC08CE089839E01AE
:103000002F5F3F4F41E08081A6DC8111ACCF2FE7DD
:1030100088E391E0215080409040E1F700C000003B
:1030200080EC898380911A0380FF02C080EE89833F
:10303000A0911403B0911503E0911603F0911703CA
:103040009E012F5F3F4F41E014966C91808183DC9D
:10305000811189CF80912003882361F182E08983E7
:10306000A0911403B0911503E0911603F09117039A
:103070009E012F5F3F4F41E051966C9180816BDC48
:10308000811171CF1982A0911403B0911503E091C1
:103090001603F09117039E012F5F3F4F41E01596F5
:1030A0006C91808158DC91E0811101C090E0892F02
:1030B00081955ACF1982D4CF84E089839E012F5FF6
:1030C0003F4F41E0808147DC81114DCF809121034A
:1030D000811104C080911A0380FD40C080E489837F
:1030E000A0911403B0911503E0911603F09117031A
:1030F0009E012F5F3F4F41E014966C9180812BDC45
:10310000811131CF2FE788E391E02150804090403A
:10311000E1F700C0000080912003882309F181E0DD
:103120008983A0911403B0911503E0911603F091E7
:1031300017039E012F5F3F4F41E051966C918081B4
:103140000ADC811110CFA0911403B0911503E09116
:103150001603F09117032FE133E0A0CF80E6BFCF35
:103160001982DFCFCF93DF930F92CDB7DEB7909167
:1031700031039923E9F0882319F082E0898301C0A3
:103180001982A0911403B0911503E0911603F091F8
:1031900017039E012F5F3F4F41E051966C91808154
:1031A000DADB882389F08FEF0F90DF91CF910895BC
:1031B00090911A039923B9F3882311F38091200386
:1031C000811105C081E0DACF89818093200380E0FE
:1031D000EBCF1F93CF93DF93D82F80913103C0E0C3
:1031E00081111FC080911A038823B9F010911F0329
:1031F0008D2380931F03C1E08D1301C0C0E0C195F2
:10320000809123038D2B59F081E0ACDFDD2349F061
:10321000A1DE882331F010931F03CFEF02C080E0BE
:10322000A1DF8C2FDF91CF911F9108951F93CF9332
:10323000DF9300D0CDB7DEB7182F811122C080E018
:10324000A2DD198287E08A83A0911403B09115034F
:10325000E0911603F09117039E012F5F3F4F42E06C
:1032600055966C91808177DB882339F08FEF0F9032
:103270000F90DF91CF911F9108951092230380E06A
:10328000F6CF81E080DD80E28983113041F51A823A
:1032900085E090E01EDE8A8120E4829FC001112437
:1032A00087608A83A0911403B0911503E0911603FF
:1032B000F09117039E012F5F3F4F42E055966C91AE
:1032C000808149DB8111D2CF88E080931A0310926C
:1032D0001C0381E08093230380E07BDFD0CF163096
:1032E00018F481E08A83D4CF153128F482E08A83F0
:1032F0008AE090E0CFCF83E08A8384E190E0CACF78
:103300000F931F93CF93DF930F92CDB7DEB78C014E
:1033100080911A03811107C08FEF0F90DF91CF9139
:103320001F910F910895809131038111F5CF809104
:103330002303882351F0C8010197889720F4802F38
:1033400075DF80E0EACF80E071DFB801093E13400D
:1033500010F068EE73E06430710510F464E070E022
:1033600008EE13E0C8010E94943061506983A09177
:103370001403B0911503E0911603F09117039E0119
:103380002F5F3F4F41E011966C918081E4DA81110B
:10339000C3CF698170E06F5F7F4FC8010E94A83082
:1033A00070931E0360931D03CB019695879591DD65
:1033B000C8CF9F92AF92BF92CF92DF92EF92FF92CF
:1033C0000F931F93CF93DF9300D000D000D0CDB7E1
:1033D000DEB78D839E838B01DB018C918058990B26
:1033E000ED81FE811482858312968C91129780580C
:1033F000990B1682878380914006882309F4F6C0D2
:103400001596DC9015978D2D90E01396EC90139700
:10341000F4E0EF9E900111247C0144E0F594E794E0
:103420004A95E1F743E0E422FF24E22AF32A1496C6
:103430002C9154E0259F90011124959587959595A1
:10344000879583709927822B932B9C0150E040E055
:1034500029833A834B835C83CA01B9010E94B0324D
:1034600020E030E84FEF53E469837A838B839C83B9
:1034700069817A818B819C810E943531962EA72E9D
:10348000B82EC92ED80112968C91B4E08B9FC00142
:103490001124D294D694D69463E0D6228D299C012F
:1034A00050E040E029833A834B835C83CA01B90131
:1034B0000E94B03220E030E84FEF53E469837A8312
:1034C0008B839C8369817A818B819C810E943531B9
:1034D000292D3A2D4B2D5C2D69837A838B839C8318
:1034E00069817A818B819C810E94C03120E030E02B
:1034F00044E353E469837A838B839C8369817A8173
:103500008B819C810E94BE332BED3FE049E450E467
:1035100069837A838B839C8369817A818B819C8187
:103520000E94173269837A838B839C8369817A81B5
:103530008B819C810E947F32AD81BE8119967C93E4
:103540006E931897970150E040E029833A834B83AC
:103550005C83CA01B9010E94B03220E030E84FEF2D
:1035600053E469837A838B839C8369817A818B811D
:103570009C810E943531292D3A2D4B2D5C2D69837C
:103580007A838B839C8369817A818B819C810E9461
:10359000C031DC01CB01B05889839A83AB83BC83F3
:1035A00020E030E044E353E4BC01CD010E94BE338F
:1035B0002BED3FE049E450E469837A838B839C835D
:1035C00069817A818B819C810E94173269837A8319
:1035D0008B839C8369817A818B819C810E947F325D
:1035E000AD81BE811B967C936E931A97ED81FE810F
:1035F00080819181D80115962C9120FD21C0906188
:1036000091838083AD81BE818D919C911197F8014A
:10361000258121FD19C090628D939C9326960FB64B
:10362000F894DEBF0FBECDBFDF91CF911F910F91F8
:10363000FF90EF90DF90CF90BF90AF909F90089554
:103640009F7EED81FE81DCCF9F7DAD81BE81E4CF89
:103650001F920F920FB60F9211242F933F934F9307
:103660005F936F937F938F939F93AF93BF93EF93EA
:10367000FF938091DA0080FF16C08091D80080FF10
:1036800012C08091DA008E7F8093DA008091D90099
:1036900019BC80FF83C082E089BD09B400FEFDCF64
:1036A00081E0809335068091E10080FF17C0809112
:1036B000E20080FF13C08091E2008E7F8093E200E1
:1036C0008091E20080618093E2008091D800806266
:1036D0008093D80019BC85E0809335068091E10085
:1036E00084FF25C08091E20084FF21C019BC82E0E4
:1036F00089BD09B400FEFDCF8091D8008F7D8093F5
:10370000D8008091E1008F7E8093E1008091E200FB
:103710008F7E8093E2008091E20081608093E200DE
:1037200080912C068823E9F184E08093350680910E
:10373000E10083FF22C08091E20083FF1EC08091E0
:10374000E100877F8093E10082E08093350610924C
:103750002C068091E1008E7F8093E1008091E20051
:103760008E7F8093E2008091E20080618093E2008E
:1037700042E060E080E00E946B09FF91EF91BF9111
:10378000AF919F918F917F916F915F914F913F91F9
:103790002F910F900FBE0F901F9018951092350625
:1037A00082CF8091E30087FD02C081E0BECF83E03D
:1037B000BCCF1F921FB61F9211248F939F93AF937C
:1037C000BF938091990590919A05A0919B05B09126
:1037D0009C050196A11DB11D8093990590939A05B2
:1037E000A0939B05B0939C05BF91AF919F918F9142
:1037F0001F901FBE1F9018951F920F920FB60F9229
:1038000011242F933F934F935F936F937F938F93E5
:103810009F93AF93BF93EF93FF939091B900892F3C
:10382000887F803509F4BEC008F042C0803309F4B7
:10383000B4C098F5883101F1D0F4883009F4A5C0FE
:10384000803109F4A2C0882309F4ECC0FF91EF9104
:10385000BF91AF919F918F917F916F915F914F91A8
:103860003F912F910F900FBE0F901F9018958032AF
:1038700009F493C0883251F79091B5068091B4064F
:10388000981778F5E091B50681E08E0F8093B50624
:10389000F0E0EC56F94F80817AC0803409F48EC094
:1038A000883409F47CC0883389F68093B6066BC0EF
:1038B000803A09F49DC0B8F5803809F487C050F506
:1038C000803611F1D8F4883509F6E091B50681E02B
:1038D0008E0F8093B5068091BB00F0E0EC56F94F57
:1038E00080838091B70681115AC081E0809392064F
:1038F00084EA8093BC001092B806A8CF803721F0EC
:10390000987E983609F0A2CF83E08093B806109293
:1039100098053FC0803909F459C0987E983809F05D
:1039200095CF85E837C0883BC9F048F5883A19F04B
:10393000803B09F08BCF84E08093B8061092770526
:1039400010927605F0E0E0E009958091760581110E
:1039500005C081E08093760510925605E0917705C9
:1039600081E08E0F80937705F0E0EA5AFA4F80816C
:103970008093BB00909177058091760523C0907F5E
:10398000903C09F063CF85ECB4CF8091930680938F
:10399000BB0085EC8093BC0059CF8093B6060E9493
:1039A000820D54CFE091B50681E08E0F8093B5066D
:1039B0008091BB00F0E0EC56F94F80839091B50602
:1039C0008091B406981708F0ACCFE3CF80919805AA
:1039D000803208F0A6CFE091980581E08E0F8093A9
:1039E00098058091BB00F0E0E858FA4F8083D1CF72
:1039F00085EC8093BC001092B806809198058032C7
:103A000030F4E0919805F0E0E858FA4F10826091A8
:103A1000980570E088E795E0F0E0E0E00995109205
:103A2000980514CF1092B606BACF8F9381E0809399
:103A3000DC058F911895CDB7DEB7CD57D1090FB6FC
:103A4000F894DEBF0FBECDBF4DE450E060E070E003
:103A500089E396E00E940E3140914506509146065A
:103A6000609147067091480680919C0290919D025A
:103A7000A0919E02B0919F02481759076A077B07E1
:103A800069F48091410690914206A0914306B0915D
:103A900044068431944DA24AB10589F04DE450E0CA
:103AA00060E070E080E992E00E941E318DE4E0E980
:103AB000F2E0A9E3B6E001900D928A95E1F78DE47A
:103AC000E9E3F6E0AFEDB5E001900D928A95E1F7FC
:103AD00080913A068093E80280913C068093E70249
:103AE00080913906813009F426C7823009F42AC74B
:103AF0001092B80681E08093B70610929206589A09
:103B0000599A8091B9008E7F8093B9008091B90055
:103B10008D7F8093B90085E08093B80085E4809321
:103B2000BC00789480917A00846080937A008091C0
:103B30007A00826080937A0080917A008E7F8093F1
:103B40007A0080917A00806880937A0084B58260E0
:103B500084BD84B5816084BD85B5826085BD85B531
:103B6000816085BD80916E00816080936E001092AF
:103B7000810080918100826080938100809181002A
:103B800081608093810080918000816080938000BB
:103B9000809191008260809391008091910081607A
:103BA000809391008091900081608093900080913B
:103BB000C10084608093C1008091C10082608093C5
:103BC000C1008091C10081608093C1008091C300D9
:103BD00081608093C3008091C00082608093C000A8
:103BE0008091C20081608093C20080917A008460DD
:103BF00080937A0080917A00826080937A0080912D
:103C00007A00816080937A0080917A008068809346
:103C10007A0078940E94930D882309F43CC2109195
:103C20003B06113009F06EC780E88983A091140328
:103C3000B0911503E0911603F09117039E012F5FD9
:103C40003F4F41E055966C9180810E94AB148111E9
:103C5000C6C6BFEFE4E3FCE0B150E040F040E1F75E
:103C600000C000001982A0911403B0911503E091E7
:103C70001603F09117039E012F5F3F4F41E05596C9
:103C80006C9180810E94AB148111ABC6109222030B
:103C90008FEF80931A038093180380931903809306
:103CA0001B032FEF3FEF30931E0320931D038093E0
:103CB0001F038093210310931C0310932F03109272
:103CC00030031092240310922303E5E2F3E08AE02C
:103CD000DF011D928A95E9F71092310310923203A9
:103CE00010923403109233030E94741512EE811166
:103CF0001CC00E94471511EE811117C08AE290E0A6
:103D0000E8D810EE811111C082E390E0F9DA1FEDDE
:103D100081110BC05EDA1EED811107C00E94DF1415
:103D2000182F811160C680E06AD8812F110F990B7E
:103D30009093AC058093AB0588E761D80091AB0503
:103D40001091AC05080F111D87FD1A950E9474157E
:103D5000080F111D87FD1A950E944715080F111DA8
:103D600087FD1A951093AC050093AB0588E731DA0F
:103D70000091AB051091AC05080F111D87FD1A9538
:103D80001093AC050093AB058091320399249A946B
:103D9000811161C0F12CE12CE6EFAE2EEBE0BE2EDE
:103DA0006501CE18DF08B1E1CB16D10418F070E13F
:103DB000C72ED12CF701E657FE4FDE011196CD013B
:103DC0008C0D9D1DA817B90709F00FC6AE014F5FF6
:103DD0005F4FB601C7010E947516982E81113FC62C
:103DE00080911A038823A9F19E2D8F2D65969FAF90
:103DF0008EAF6597E0911603F0911703208531850A
:103E0000C6018E0D911D2817390718F1A0911403D2
:103E1000B09115039E012D5A3F4F42E05B966C9185
:103E200080810E94AB14811114C0A0911403B09141
:103E30001503E0911603F09117039E012D5C3F4F8F
:103E40004C2D58966C9180810E945C0D882309F45A
:103E5000D0C56DEF962E090D111D97FC1A95109384
:103E6000AC050093AB058CE0E4E2F5E0DE011196D1
:103E700001900D928A95E1F71BAA8CE08CABAE0104
:103E80004D5C5F4F62E070E086E192E00E94751643
:103E9000882309F4EDC58FEF080F111D87FD1A95D2
:103EA0001093AC050093AB0580913103813009F488
:103EB00012C6809132038111EDC52FEF8091AB05C1
:103EC0009091AC05820F911D27FD9A959093AC05BA
:103ED0008093AB0582E089838AEC8A8383EE8B83AF
:103EE00019E01C83AE014F5F5F4F64E070E088E62D
:103EF00090E00E94751683EA89838A838B838C8382
:103F00008D838E838F83888789878A87AE014F5FF1
:103F10005F4F6AE070E087EA9AE00E94751688EDCC
:103F20008983AE014F5F5F4F61E070E086EB9AE0FE
:103F30000E947516E1E3F5E0DE01D39601900D9243
:103F40001A95E1F7AE014D5C5F4F69E070E088EBD8
:103F500094E00E94751644E050E06BE870E0CE01FA
:103F6000C3960E940031AE014D5C5F4F64E070E08B
:103F700088E99AE00E9475160E94AA1780E28BAB2E
:103F800088E28CAB80E38DAB88E38EABAE014D5CF9
:103F90005F4F64E070E08EE99AE00E9475160E941F
:103FA000AA1788E190E09093A7058093A6050E9448
:103FB000AA1780E18093AA050091AB051091AC058A
:103FC0008BE0EBE3F5E0DE01119601900D928A950E
:103FD000E1F7AE014F5F5F4F6BE070E082E89AE07F
:103FE0000E947516080F111D87FD1A951093AC05D8
:103FF0000093AB058091630628EF280F243050F022
:1040000092EF980F943030F096EE980FF0E0E0E0E9
:10401000933010F4EBE6F0E03081243008F05DC519
:1040200091E0682F6450770BAB0101C0990F4A955E
:10403000EAF7932B243050F032EF380F343030F061
:1040400036EE380FF0E0E0E0333010F4EBE6F0E06D
:104050009083243050F092EF980F943030F096EE29
:10406000980FF0E0E0E0933010F4E8E6F0E09081A3
:10407000243050F022EF280F243030F026EE280FA5
:10408000F0E0E0E0233010F4E8E6F0E091609083A7
:1040900062E00E94F50B80913D06823021F460E0E1
:1040A0008AE00E94F50B80913A068631A0F026E85E
:1040B0003DE030933806209337069CE09093360617
:1040C000863149F080E89DE090933806809337066A
:1040D00086E0809336068091D8008F7E8093D8004A
:1040E0008091D70081608093D70084E082BF81E017
:1040F00080939F058091D8008E7F8093D800109286
:10410000E2001092DA001092E1008091D8008F77DF
:104110008093D8008091D80080688093D8008091E7
:10412000D8008F7D8093D80019BC1092350610926C
:104130002C068091E0008B7F8093E0008091D80076
:1041400081608093D80042E060E080E00E946B09CB
:104150008091E1008E7F8093E1008091E200816098
:104160008093E2008091E20088608093E200809179
:10417000E0008E7F8093E0008091D8008061809382
:10418000D80078941092870610928606E091DD059B
:10419000F091DE0586E896E0099580913E06882339
:1041A00009F440C040918A0650918B0680916706C1
:1041B0009091680666277727681B790B4617570783
:1041C0004CF4209186063091870624603093870650
:1041D00020938606841795074CF42091860630912B
:1041E00087062860309387062093860640918C06C8
:1041F00050918D06461757074CF420918606309152
:1042000087062260309387062093860684179507D9
:104210004CF4809186069091870681609093870682
:104220008093860680913F06882381F080918606E0
:10423000909187069C01207333272033310531F498
:104240008F7C946090938706809386060E94930DDE
:10425000882309F415C180913B06813011F00C943C
:10426000EF2C8091DC05882309F4E2C01092DC0574
:104270001092AF051092AE05D090AA05ED2CF12C4E
:1042800080913103882309F4AEC780911A038823F3
:1042900009F4A7C7A0911403B0911503E091160388
:1042A000F09117039E012B5A3F4F42E01C966C91F0
:1042B00080810E945C0D811192C767960EAD1FAD83
:1042C00067971027012710270E151F0508F024C433
:1042D0001092AD058CEF9AE0899F802D1124082E55
:1042E000000C990B9093AC058093AB051091690677
:1042F000E12FE69524E0E29FF0011124EC53FA4F00
:1043000020EE38EF42EA56E4608171818281938128
:104310000E94BE336D966FAF6D976E967FAF6E97AE
:104320006F968FAF6F97A0969FAFA097A0966CAD3A
:104330007DAD8EAD9FADA0970E947F32462F572F47
:10434000BC0110FF02C00C94E62C4093C0055093B2
:10435000C1056093C2057093C3054091C00550919B
:10436000C1056091C2057091C305411530E853073E
:104370006105710584F08FEF9FEFA0E0B0E0841B32
:10438000950BA60BB70B8093C0059093C105A09326
:10439000C205B093C30560916A0670916B06072E43
:1043A000000C880B990B0091C0051091C10520915C
:1043B000C2053091C305600F711F821F931F6115E5
:1043C00040E874078105910524F06FEF7FE780E0F6
:1043D00090E097FF03C060E070E0CB016093C00500
:1043E0007093C1058093C2059093C3050E94B232B9
:1043F0009B01AC016D966FAF6D976E967FAF6E9718
:104400006F968FAF6F97A0969FAFA097A0966CAD59
:104410007DAD8EAD9FADA0970E946634882341F09C
:104420001092C0051092C1051092C2051092C305EA
:104430008091C0059091C10590939106809390065C
:1044400040918E0650918F06052E000C660B770B5F
:10445000DB01CA01880F991FAA1FBB1F76FF02C08C
:104460000C94132D811550E89507A105B10524F092
:104470008FEF9FE7A0E0B0E090938F0680938E06C9
:1044800080913A06853119F58091860680918606DD
:1044900080918606909187069F7C909387068093F3
:1044A000860680918C0690918D0691958195910953
:1044B00090938D0680938C06809190069091910642
:1044C00091958195910990939106809390068091A2
:1044D0003D06823009F026C140918606509187063C
:1044E00070E060E083E0440F551F661F771F8A95D8
:1044F000D1F7442750786627772790E080E00E9424
:10450000ED07809186069091870640E050E0BA0161
:1045100095FF04C040E050E06FEF70E081E090E074
:104520000E94ED07809186069091870640E050E05A
:10453000BA0197FF04C040E05FEF6FEF70E082E0E8
:1045400090E00E94ED07809186069091870640E0FA
:1045500050E0BA0196FF04C04FEF50E060E070E019
:1045600083E090E00E94ED07809186069091870697
:1045700040E050E0BA0190FF04C040E055EA6FEF20
:1045800070E084E090E00E94ED078091BF0690917A
:10459000C006892B09F4C6C00E94C20BA0966CAF5E
:1045A0007DAF8EAF9FAFA0978091C5069091C60654
:1045B000A091C706B091C806A0962CAD3DAD4EADFA
:1045C0005FADA097281B390B4A0B5B0BDA01C901C1
:1045D000C297A105B10500F3F8948091BB069091B4
:1045E000BC0665969FAF8EAF6597E091BF06F091D0
:1045F000C00681916C968FAF6C9768961FAE6897D6
:104600008091C9069091CA068B32910511F00C94E5
:10461000172D9BB18091CB06982B6B969FAF6B9714
:104620009BB1809589236A968FAF6A976A968FAD02
:104630006A9769968FAF69976C968FAD6C9787FF75
:1046400006C06B968FAD6B9769968FAF69976B9627
:104650005FAD6B976A966FAD6A976C964FAD6C972E
:1046600069963FAD699768962FAD689765968EAD50
:104670009FAD65975BB9262F3BB900C046FD252F3E
:104680006BB900C05BB9362F2BB900C045FD352F83
:104690006BB900C05BB9262F3BB900C044FD252F84
:1046A0006BB900C05BB9362F2BB900C043FD352F65
:1046B0006BB900C05BB9262F3BB900C042FD252F66
:1046C0006BB900C05BB9362F2BB900C041FD352F47
:1046D0006BB900C05BB9262F3BB900C040FD252F48
:1046E0006BB901975BB9362F2BB9419147FD352F37
:1046F0006BB901F66C964FAF6C9769963FAF6997AF
:1047000068962FAF689765969FAF8EAF6597789440
:104710000E94C20B6093C5067093C6068093C706BD
:104720009093C80680913506843011F58091FD0282
:104730009091FE02A091FF02B0910003892B8A2B79
:104740008B2BB1F08091EF028F708093E900809104
:10475000E80082FF0DC09091F3008091F200892B58
:1047600011F00C948E2D8091E8008B778093E800F7
:1047700080913506843009F0A4C08091E4009091C6
:10478000E50020910E0330910F032817390709F433
:1047900098C0809105038F708093E9008091E800B4
:1047A00085FF8FC02DB73EB76E963FAF2EAF6E9789
:1047B00040910C0350E06DB77EB7641B750B0FB6CC
:1047C000F8947EBF0FBE6DBF8DB79EB701967C017A
:1047D0006C0166961FAE66971CAA1BAA70E060E08B
:1047E0000E9400318E010D5C1F4F970140E0BE0119
:1047F0006B5A7F4F84E093E00E94190E982E8091AF
:10480000100390911103892B39F011E0809112036C
:1048100090911303892B09F010E0A0900A03B09047
:104820000B0300E0A114B10489F04BA95CA9B50108
:10483000C7010E94EA3001E0892B09F400E04091B1
:104840000C0350E0B701C5010E94F7308BA99CA969
:10485000892B31F1911004C0011102C010FF20C05A
:10486000809110039091110390931303809312038E
:10487000809105038F708093E90066968FAD6697EF
:1048800081118093F1000BA91CA90E941B098823A8
:1048900011F40C9431308091E8008E778093E80019
:1048A0008091E4009091E50090930F0380930E03B4
:1048B0006E96EEADFFAD6E970FB6F894FEBF0FBECD
:1048C000EDBF80913506843099F58091FD0290917D
:1048D000FE02A091FF02B0910003892B8A2B8B2B43
:1048E00039F18091EA028F708093E9009091E8009D
:1048F00090FF1EC0909135069430D1F48093E9006A
:104900009091F3008091F200892B91F09091E80052
:104910008091E8008E778093E80095FD09C00E94A1
:104920001B09811105C08091E8008E778093E80013
:104930000E94361027CC82EA95E19093DE058093A1
:10494000DD05D6C880913D06813009F446C082E07D
:10495000F9E4CF2EF6E0DF2E10E000E0F82ED601CD
:104960008D916D018F3F39F06F2D0C30110508F4DA
:1049700062E00E94F50B0F5F1F4F0031110579F7C0
:1049800080915D068F3F19F061E00E94F50B8091E8
:104990005F068F3F19F061E00E94F50B8091610680
:1049A0008F3F19F061E00E94F50B809163068F3F05
:1049B00019F061E00E94F50B809159068F3F19F0C4
:1049C00061E00E94F50B80915B068F3F19F061E07A
:1049D0000E94F50B82E79CE0B0CF81E0B9CF1FEFDA
:1049E000A4C91EEFA2C91CEFA0C924912D93319632
:1049F000E9C9A601BE016D5C7F4FCE0101960E9400
:104A0000EA30892B79F5EC0CFD1CE6EFEE16EBE0B5
:104A1000FE0608F4C5C984E064968FAF6497659676
:104A20001FAE6597A0911403B0911503E091160392
:104A3000F09117039E012D5A3F4F42E05D966C9115
:104A400080810E94AB14811110C081E080933203F9
:104A500088EC90E09093340380933303FCC95EEFBD
:104A6000952EF9C94CEF942EF6C93BEF932EF3C95E
:104A7000AE014F5F5F4F6CE070E081EC9AE00E9406
:104A80007516811108CA2FE030E03093A9052093F4
:104A9000A80502CA80E00E94B2180E94DF1480912B
:104AA0003303909134030E9480191982E091160318
:104AB000F09117039E012F5F3F4F41E063E2808139
:104AC0000E94AB148111F9C981E0809331030E94E7
:104AD000B2180E94AA1720E0F1C998E08E3009F4BC
:104AE000A8CA92E08F3009F4A4CA94E0803109F496
:104AF000A0CA91E0813109F49CCAA82FA651BB0B32
:104B0000AD0193CA62E0123021F0133009F0C3CA3C
:104B100061E080916306BDCAE0911603F09117032E
:104B2000818192819695879580179107C0F4A09115
:104B30001403B09115039E012B5A3F4F41E0539649
:104B40006C9180810E945C0D811147C366968FAD88
:104B5000669784FF04C00E94AA178AEFBCCBA0917D
:104B60001403B0911503E0911603F09117039E0111
:104B70002D5C3F4F4D2D1D966C9180810E945C0DE8
:104B8000282F811128C3C801B7010E9494306150B9
:104B90006093AD05E091A605F091A705CF01847162
:104BA0009927892B09F021C3E6FF39C0822F90E0B5
:104BB000A3E3B0E0AC0FBD1FA80FB91F3C91DE010D
:104BC000A80FB91FD4964C91532F509301004093D6
:104BD0000000DE01A80FB91FD5963C91DE01A80F99
:104BE000B91FD6964C91532F509303004093020067
:104BF000DE01A80FB91FD7963C91D797D8968C9114
:104C0000932F90930500809304002A5F8091AE0556
:104C10009091AF0588609093AF058093AE05E078E2
:104C2000F170EF2B81F1822F90E0E3E3F0E0EC0FE5
:104C3000FD1FE80FF91F3081FE01E80FF91F24A9BD
:104C40003093010020930000FE01E80FF91F35A901
:104C5000FE01E80FF91F26A93093030020930200FC
:104C6000FE01E80FF91F27A980AD922F9093050050
:104C7000809304008091AE059091AF05806790937A
:104C8000AF058093AE051092AC051092AB05609114
:104C9000B0057091B1058091B2059091B3050E9465
:104CA000B23220E030E040E850E36D966FAF6D9790
:104CB0006E967FAF6E976F968FAF6F97A0969FAFF0
:104CC000A097A0966CAD7DAD8EAD9FADA0970E94D4
:104CD000BE33F62E072F182FA92E862F902FA12F27
:104CE000BA2D8093B0059093B105A093B205B0930F
:104CF000B3056091B4057091B5058091B6059091AA
:104D0000B7050E94B23220E030E040E850E36D96F3
:104D10006FAF6D976E967FAF6E976F968FAF6F97F1
:104D2000A0969FAFA097A0966CAD7DAD8EAD9FADC8
:104D3000A0970E94BE33A9966FAFA997AD967FAF9B
:104D4000AD97E1968FAFE197E2969FAFE297CB01E7
:104D5000E196AFADE197E296BFADE2978093B405DF
:104D60009093B505A093B605B093B7056091B805CB
:104D70007091B9058091BA059091BB050E94B2323D
:104D800020E030E040E850E36D966FAF6D976E968F
:104D90007FAF6E976F968FAF6F97A0969FAFA097DC
:104DA000A0966CAD7DAD8EAD9FADA0970E94BE3339
:104DB000B62EC72ED82EE92E862F9C2DAD2DBE2DBA
:104DC0008093B8059093B905A093BA05B093BB053D
:104DD0006091BC057091BD058091BE059091BF05A5
:104DE0000E94B23220E030E040E850E36D966FAFB1
:104DF0006D976E967FAF6E976F968FAF6F97A096F9
:104E00009FAFA097A0966CAD7DAD8EAD9FADA097E6
:104E10000E94BE336D966FAF6D97772E4C01862F33
:104E2000972DD4018093BC059093BD05A093BE053A
:104E3000B093BF05262F372DA401A996FFADA997E2
:104E4000A196FFAFA197AD966FADAD97A2966FAF4C
:104E5000A297E1967FADE197A3967FAFA397E296E5
:104E60008FADE297A4968FAFA497A4966CAD7DAD5D
:104E70008EAD9FADA4970E94BE33A5966FAFA59748
:104E8000A6967FAFA697A7968FAFA797A8969FAF36
:104E9000A8972B2D3C2D4D2D5E2DA196FFAEA197F1
:104EA000A2960FAFA297A3961FAFA397A496AFAEFB
:104EB000A497A4966CAD7DAD8EAD9FADA4970E94D6
:104EC000BE339B01AC01A5969FADA597A1969FAF60
:104ED000A197A696AFADA697A296AFAFA297A796B9
:104EE000BFADA797A396BFAFA397A896EFADA8971E
:104EF000A496EFAFA497A4966CAD7DAD8EAD9FAD9B
:104F0000A4970E943531A5966FAFA597A6967FAF5F
:104F1000A697A7968FAFA797A8969FAFA89725EEBD
:104F200032EF4FEF5EE3A1966FAFA197A2967FAFEE
:104F3000A297A3968FAFA397A4969FAFA497A4968A
:104F40006CAD7DAD8EAD9FADA4970E94B3331816A6
:104F50000CF015C22F2D302F412F5A2D6D96BFAE5C
:104F60006D976E96CFAE6E976F96DFAE6F97A096E9
:104F7000EFAEA097A0966CAD7DAD8EAD9FADA09726
:104F80000E94C0319B01AC016D966FAF6D976E961C
:104F90007FAF6E976F968FAF6F97A0969FAFA097DA
:104FA000A0966CAD7DAD8EAD9FADA0970E943631C1
:104FB0006093CC057093CD058093CE059093CF057B
:104FC0008BED9FE0A9ECBFE38093C8059093C905E2
:104FD000A093CA05B093CB051092C4051092C505E5
:104FE0001092C6051092C705E090C405F090C50563
:104FF0000091C6051091C7052BED3FE049E450EC48
:105000006D96EFAE6D976E96FFAE6E976F960FAF83
:105010006F97A0961FAFA097A0966CAD7DAD8EAD9B
:105020009FADA0970E9413322BED3FE049E450E47E
:1050300087FF66C4A0966CAD7DAD8EAD9FADA09789
:105040000E9436312BED3FE049E450E46D966FAF9E
:105050006D976E967FAF6E976F968FAF6F97A09696
:105060009FAFA097A0966CAD7DAD8EAD9FADA09784
:105070000E9436317B018C01C701D8018093C405A1
:105080009093C505A093C605B093C705E090C805E9
:10509000F090C9050091CA051091CB052BED3FE0BA
:1050A00049E450EC6D96EFAE6D976E96FFAE6E973D
:1050B0006F960FAF6F97A0961FAFA097A0966CAD9D
:1050C0007DAD8EAD9FADA0970E9413322BED3FE0DA
:1050D00049E450E487FF36C4A0966CAD7DAD8EAD3B
:1050E0009FADA0970E9436312BED3FE049E450E49C
:1050F0006D966FAF6D976E967FAF6E976F968FAF11
:105100006F97A0969FAFA097A0966CAD7DAD8EAD2A
:105110009FADA0970E9436317B018C01C701D80159
:105120008093C8059093C905A093CA05B093CB0599
:10513000E090CC05F090CD050091CE051091CF0503
:105140002BED3FE049E450EC6D96EFAE6D976E9617
:10515000FFAE6E976F960FAF6F97A0961FAFA09799
:10516000A0966CAD7DAD8EAD9FADA0970E94133221
:105170002BED3FE049E450E487FF06C4A0966CADF8
:105180007DAD8EAD9FADA0970E9436312BED3FE0F7
:1051900049E450E46D966FAF6D976E967FAF6E9752
:1051A0006F968FAF6F97A0969FAFA097A0966CADAC
:1051B0007DAD8EAD9FADA0970E9436317B018C01F5
:1051C000C701D8018093CC059093CD05A093CE055F
:1051D000B093CF058BC889EF7EC88BEF7CC88DEF6D
:1051E0007AC88EEF78C88FEF76C82BA93CA94DA955
:1051F0005EA9CA01B901BFD74B015C018092B0051D
:105200009092B105A092B205B092B3054FA958ADE6
:1052100069AD7AADCB01BA01AED76B017C01C0920A
:10522000B405D092B505E092B605F092B7056BAD26
:105230007CAD8DAD9EAD9FD78B019C010093B805D1
:105240001093B9052093BA053093BB0523968CAD16
:105250009DADAEADBFAD2397BC01CD018CD7AB01E9
:10526000BC014093BC055093BD056093BE0570938F
:10527000BF05C501BB2797FDB095AB2FA0968CAF9E
:105280009DAFAEAFBFAFA097C701BB2797FDB0954D
:10529000AB2FA4968CAF9DAFAEAFBFAFA497C901A3
:1052A000BB2797FDB095AB2FAC968CAF9DAFAEAF43
:1052B000BFAFAC97CB01BB2797FDB095AB2FE09666
:1052C0008CAF9DAFAEAFBFAFE097A0962CAD3DAD1C
:1052D0004EAD5FADA097CA01B90117D7A0966CAFCC
:1052E0007DAF8EAF9FAFA097A4962CAD3DAD4EADD8
:1052F0005FADA497CA01B90108D7A096CCACDDACCC
:10530000EEACFFACA097C60ED71EE81EF91EAC96F9
:105310002CAD3DAD4EAD5FADAC97CA01B901F5D630
:10532000C60ED71EE81EF91EE0962CAD3DAD4EAD63
:105330005FADE097CA01B901E8D6C60ED71EE81ED8
:10534000F91E9FE0F91AA1E0CA16D104E104A2E017
:10535000FA0650F00E94AA171092AF051092AE05FF
:105360008EEF9FEF0C9472218091AE059091AF0566
:1053700091609093AF058093AE0520E115CC25EEAA
:1053800032EF4FEF5EEBA596FFADA597A196FFAF6D
:10539000A197A6966FADA697A2966FAFA297A79674
:1053A0007FADA797A3967FAFA397A8968FADA89739
:1053B000A4968FAFA497A4966CAD7DAD8EAD9FAD36
:1053C000A4970E94133287FF3CC02F2D302F412F0E
:1053D0005A2D6D96BFAE6D976E96CFAE6E976F9647
:1053E000DFAE6F97A096EFAEA097A0966CAD7DADA7
:1053F0008EAD9FADA097C4D720E030E040E050ECE8
:105400006D966FAF6D976E967FAF6E976F968FAFFD
:105410006F97A0969FAFA097A0966CAD7DAD8EAD17
:105420009FADA0970E94BE336093CC057093CD05CD
:105430008093CE059093CF058BED9FE0A9ECBFEB59
:10544000C3CD6D962FAD6D97372DA4016D969FAD91
:105450006D97A1969FAFA197A2967FAEA297A396B4
:105460008FAEA397A4969FAEA497A4966CAD7DAD86
:105470008EAD9FADA4970E94BE33E3966FAFE397C6
:10548000E4967FAFE497E5968FAFE597E6969FAFFA
:10549000E6972F2D302F412F5A2DA196FFAEA197C1
:1054A000A2960FAFA297A3961FAFA397A496AFAEF5
:1054B000A497A4966CAD7DAD8EAD9FADA4970E94D0
:1054C000BE33E3962FADE397E4963FADE497E596C0
:1054D0004FADE597E6965FADE697A1966FAFA197C2
:1054E000A2967FAFA297A3968FAFA397A4969FAFE4
:1054F000A497A4966CAD7DAD8EAD9FADA497B6D6A6
:105500009B01AC01A1966FAFA197A2967FAFA29726
:10551000A3968FAFA397A4969FAFA497A4966CADC4
:105520007DAD8EAD9FADA497A1D69B01AC0160E08F
:1055300070E080E89FE399D6E7966FAFE797E8962B
:105540007FAFE897E9968FAFE997EA969FAFEA9722
:10555000A9962FADA997AD963FADAD97E1964FAD0A
:10556000E197E2965FADE297A196FFAEA197A29672
:105570000FAFA297A3961FAFA397A496AFAEA49721
:10558000A4966CAD7DAD8EAD9FADA4970E94BE3349
:10559000EB966FAFEB97EC967FAFEC97ED968FAFF6
:1055A000ED97EE969FAFEE976D962FAD6D97372DD9
:1055B000A401A196BFAEA197A296CFAEA297A39643
:1055C000DFAEA397A496EFAEA497A4966CAD7DAD85
:1055D0008EAD9FADA4970E94BE339B01AC01EB96AC
:1055E000AFADEB97A196AFAFA197EC96BFADEC979F
:1055F000A296BFAFA297ED96EFADED97A396EFAF52
:10560000A397EE96FFADEE97A496FFAFA497A4964E
:105610006CAD7DAD8EAD9FADA49728D69B01AC013E
:10562000A1966FAFA197A2967FAFA297A3968FAFD7
:10563000A397A4969FAFA497A4966CAD7DAD8EADB5
:105640009FADA49713D6E7962FADE797E8963FADA9
:10565000E897E9964FADE997EA965FADEA97A1968C
:105660006FAFA197A2967FAFA297A3968FAFA39794
:10567000A4969FAFA497A4966CAD7DAD8EAD9FAD63
:10568000A4977ED66093CC057093CD058093CE050C
:105690009093CF05A5962FADA597A6963FADA6975B
:1056A000A7964FADA797A8965FADA897A5966FADA3
:1056B000A597A1966FAFA197A6967FADA697A29644
:1056C0007FAFA297A7968FADA797A3968FAFA3970B
:1056D000A8969FADA897A4969FAFA497A4966CADEB
:1056E0007DAD8EAD9FADA497C1D5A1966FAFA197AB
:1056F000A2967FAFA297A3968FAFA397A4969FAFD2
:10570000A497A4966CAD7DAD8EAD9FADA49712D637
:105710006093C8057093C9058093CA059093CB0523
:105720002B2D3C2D4D2D5E2DA196BFAEA197A2969F
:10573000CFAEA297A396DFAEA397A496EFAEA497A1
:10574000A4966CAD7DAD8EAD9FADA4970E94BE3387
:10575000E3962FADE397E4963FADE497E5964FAD22
:10576000E597E6965FADE697A1966FAFA197A296F3
:105770007FAFA297A3968FAFA397A4969FAFA4974E
:10578000A4966CAD7DAD8EAD9FADA4976FD59B01FA
:10579000AC01A1966FAFA197A2967FAFA297A396F7
:1057A0008FAFA397A4969FAFA497A4966CAD7DAD41
:1057B0008EAD9FADA4975AD59B01AC0160E070E01F
:1057C00080E89FE352D5A5966FAFA597A6967FAFC9
:1057D000A697A7968FAFA797A8969FAFA8972B2DB0
:1057E0003C2D4D2D5E2DA996AFADA997A196AFAFDB
:1057F000A197AD96BFADAD97A296BFAFA297E19628
:10580000EFADE197A396EFAFA397E296FFADE297D6
:10581000A496FFAFA497A4966CAD7DAD8EAD9FAD61
:10582000A497ACD7B62EC72ED82EE92E6D962FADE5
:105830006D97372DA4016D96FFAE6D976E960FAFE5
:105840006E976F961FAF6F97A096AFAEA097A0967A
:105850006CAD7DAD8EAD9FADA09790D79B01AC0197
:105860006D96BFAE6D976E96CFAE6E976F96DFAEAC
:105870006F97A096EFAEA097A0966CAD7DAD8EAD64
:105880009FADA097F2D49B01AC016D966FAF6D9761
:105890006E967FAF6E976F968FAF6F97A0969FAF04
:1058A000A097A0966CAD7DAD8EAD9FADA097DED4D8
:1058B000A5962FADA597A6963FADA697A7964FADF7
:1058C000A797A8965FADA8976D966FAF6D976E96E8
:1058D0007FAF6E976F968FAF6F97A0969FAFA09791
:1058E000A0966CAD7DAD8EAD9FADA09749D5609370
:1058F000C4057093C5058093C6059093C70574CB06
:105900006D96EFAE6D976E96FFAE6E976F960FAF7A
:105910006F97A0961FAFA097A0966CAD7DAD8EAD92
:105920009FADA09720D718160CF0A6CB2BED3FE02B
:1059300049E450E4A0966CAD7DAD8EAD9FADA097CF
:1059400094D498CB6D96EFAE6D976E96FFAE6E9732
:105950006F960FAF6F97A0961FAFA097A0966CADF4
:105960007DAD8EAD9FADA097FED618160CF0D6CBB0
:105970002BED3FE049E450E4A0966CAD7DAD8EADDB
:105980009FADA09772D4C8CB6D96EFAE6D976E9613
:10599000FFAE6E976F960FAF6F97A0961FAFA09751
:1059A000A0966CAD7DAD8EAD9FADA097DCD61816E0
:1059B0000CF006CC2BED3FE049E450E4A0966CAD32
:1059C0007DAD8EAD9FADA09750D4F8CB709560950E
:1059D000509541955F4F6F4F7F4F0C94A5218230BA
:1059E00071F4809163060E94560C892B21F090E09F
:1059F00080E00C941C228FEF9FE70C941C228330D4
:105A000011F00C942022809163060E94320C2091A8
:105A10006A0630916B06280F391F30939106209348
:105A200090060C94202290E080E00C943C22859714
:105A300011F00C94872395B18091CB06982B6B962F
:105A40009FAF6B9795B1809589236A968FAF6A97C0
:105A50006A968FAD6A9769968FAF69976C968FAD8E
:105A60006C9787FF06C06B968FAD6B9769968FAF6B
:105A700069976B965FAD6B976A966FAD6A976C96F8
:105A80004FAD6C9769963FAD699768962FAD689753
:105A900065968EAD9FAD659755B9262F35B900C077
:105AA00046FD252F65B900C055B9362F25B900C070
:105AB00045FD352F65B900C055B9262F35B900C051
:105AC00044FD252F65B900C055B9362F25B900C052
:105AD00043FD352F65B900C055B9262F35B900C033
