:1000000010C700000C94D32629C7000027C70000A2
:1000100025C7000023C7000021C700001FC700003C
:100020001DC700001BC7000019C7000017C700004C
:1000300015C7000013C7000011C700000FC700005C
:100040000C94B0260BC700000C9453260C947B260E
:1000500005C7000003C7000001C70000FFC600007D
:100060000C94DB26FBC600000000000024002700E3
:100070002A000000000023002600290000000000E4
:10008000250028002B0001020408102040800102F6
:1000900004081020010204081020040404040404CD
:1000A00004040202020202020303030303032126E3
:1000B0000107000000006D696E69004552524F5201
:1000C00000020F00000001010115D4A20010000081
:1000D00000FFFFFFFFFFFFFFFFFFFFFFFFFFFFFF2F
:1000E000FFFF00FF00FF00FF00FF00FF0040404057
:1000F00000B80B04160D0E0F33280B504F52515100
:10010000FFFFFFFFFFFF00FF00FF00FF000D00806B
:10011000000EFF000010FFFF000F0000FF09FF4569
:1001200000000000000000000000000000000000CF
:1001300000000000000000000000000000000000BF
:1001400000000000000000000000000000000000AF
:10015000000000000000000000000000000000009F
:10016000000000000000000000000000000000008F
:10017000000000000000000000000000000000007F
:10018000000000000000000000000000000000006F
:10019000000000000000000000000000000000005F
:1001A000000000000000000000000000FF00000050
:1001B00080000000000080000000000080FF7F0041
:1001C000000080FF7F00000080FF7F00000080FFB4
:1001D0007F05140000000000000000000000000087
:1001E0000000020000010102020000000000020203
:1001F00002010100020102010002010000020202EC
:100200000101000070000000002400000002000353
:10021000000000650054FFEF0000FA80000B12821E
:100220000001030C30C30E8C8CE914D5400213710D
:100230000F8E3883F8833000F883258EF8833000E2
:10024000F883FFFFFFFF0FFEA9D6240004001A82E7
:1002500079A10000003CFFFF00000010000038837F
:100260006FA2003E03304000000002CAE3093E8056
:1002700000002000000000000000400000006000BE
:100280000000000C0000000C186E000006920A1618
:10029000C0DFFFFF0256FD8CD377FFE1C496E0C5B7
:1002A000BEAA00000000FFFF0B2B00001657000045
:1002B00003594000000000001DFA00026C1D000000
:1002C00000003FFFDFEB003EB3B6000D22780000D8
:1002D0002F3C00000000001942B5000039A20000C8
:1002E000B365D90E9FC91DCF4C34300000005000BB
:1002F00000003BB67AE80064000000C8000000007F
:100300000000100000001000FA921000225E000DA4
:10031000229F0001000000320000FF46000063D46D
:1003200000001000000004D6000004CC000004CC43
:1003300000000000107200000040000000000000FB
:100340000000000600020005000700000000006435
:10035000000000000000000000050005006400200F
:10036000000000000000000000000000400000004D
:10037000030000000032F8980000FF650000830FC2
:100380000000FF9BFC0000000000000000000000D7
:10039000000000000000000000000000000000005D
:1003A000000000000000000000000000000000004D
:1003B000100040000000000000060000B26A0002C9
:1003C00000000001FB830068000000D9FC007CF104
:1003D000FF830000000000650000006403E8006483
:1003E0000028000000250000000016A0000000000A
:1003F000100000001000002F0000000001F40000B9
:10040000100000280000FFFF4581FFFFFA72000086
:10041000000000000000004400050005BAC60047C7
:1004200078A20000000100000000000006000000AB
:1004300000140000254D002F706D000005AE000C6B
:1004400002D00000000000000000000000000000DA
:100450000000001B00000000000000000000000081
:100460000000006400000008000000000000000020
:10047000000000000000000000000000000000007C
:10048000000000000000000000000000000000006C
:10049000000000000000000000000000000000005C
:1004A000000000000000000000000000000000004C
:1004B000000000000000000000000000000000003C
:1004C0000000001B00000000000000000000000E03
:1004D000000E00000AC70004000000000032FFFF09
:1004E000FF9C00000B2B0000000200000001000038
:1004F0000064FFE5000000000000000000000000B4
:1005000000000000000100000000000100000000E9
:100510000000000180000001800000018000002434
:1005200026D3000000000000000000060010009626
:10053000003C00000000000000000000000000007F
:1005400000000C0A4E68CDCF770950166759C619BE
:10055000CE8200000000000000000000000000004B
:100560000000000000000000000017D78400030016
:1005700000000000000000000000C7938F9D1E1BBC
:100580001C19000000000000000000000000000036
:1005900000000000000000000000020318850000B9
:1005A0004000000000030000000300000000000005
:1005B00000004000000000000000000000000000FB
:1005C000000000000000000000000000000000002B
:1005D000000000000000000000000000000000001B
:1005E000000000000000677DDF7E72902E554CF603
:1005F000E68800000000000000000000000000008D
:100600000000D8DCB4B8B0D8B9ABF3F8FAB3B7BBD4
:100610008E9EAEF132F51BF1B4B8B08097F1A9DF30
:10062000DFDFAADFDFDFF2AAC5CDC7A90CC92C978F
:10063000F1A989264666B28999A92D557DB0B08A5F
:10064000A896365676F1BAA3B4B280C0B8A897116E
:10065000B28398BAA3F0240844106418B2B9B498CD
:1006600083F1A329557DBAB5B1A38393F000285037
:10067000F5B2B6AA839328547CF1B9A3829361BAE8
:10068000A2DADEDFDB819AB9AEF5606870F1DABA22
:10069000A2DFD9BAA2FAB9A38292DB31BAA2D9BA3F
:1006A000A2F8DF85A4D0C1BBAD83C2C5C7B8A2DFA5
:1006B000DFDFBAA0DFDFDFD8D8F1B8AAB38DB498F6
:1006C0000D355DB2B6BAAF8C96198F9FA70E161E68
:1006D000B49AB8AA872C547CBAA4B08AB691325680
:1006E00076B28494A4C808CDD8B8B4B0F19982A8E1
:1006F0002D557D98A80E161EA22C547C92A4F02C89
:100700005078F184A898C4CDFCD80DDBA8FC2DF35B
:10071000D9BAA6F8DABAA6DED8BAB2B68696A6D004
:10072000F3C841DAA6C8F8D8B0B4B882A892F52CBC
:10073000548898F135D9F418D8F1A2D0F8F9A884E2
:10074000D9C7DFF8F883C5DADF69DF83C1D8F401E0
:1007500014F1A8824EA884F311D182F5D99228977A
:1007600088F109F41C1CD884A8F3C0F9D1D9978268
:10077000F129F40DD8F3F9F9D1D982F4C203D8DE06
:10078000DF1AD8F1A2FAF9A88498D9C7DFF8F8F8E7
:1007900083C7DADF69DFF883C3D8F40114F198A8BE
:1007A000822EA884F311D182F5D992509788F1094D
:1007B000F41CD884A8F3C0F8F9D1D99782F149F490
:1007C0000DD8F3F9F9D1D982F4C403D8DEDFD8F11A
:1007D000AD8898CCA809F9D98292A8F57CF1883A1D
:1007E000CF944A6E98DB6931DAADF2DEF9D887959D
:1007F000A8F221D1DAA5F9F417D9F1AE8ED0C0C391
:10080000AE82C684C3A88595C8A588F2C0F1F4015C
:100810000EF18E9EA8C63E56F554F18872F401156D
:10082000F19845856EF58E9E0488F142985A8E9E09
:10083000068869F4011CF1981E1108D0F504F11E18
:10084000970202983625DBF9D985A5F3C1DA85A58B
:10085000F3DFD88595A8F309DAA5FAD88292A8F52E
:1008600078F1881A849F26889821DAF41DF3D887B6
:100870009F39D1AFD9DFDFFBF9F40CF3D8FAD0F808
:10088000DAF9F9D0DFD9F9D8F40BD8F3879F39D149
:10089000AFD9DFDFF41DF3D8FAFCA869F9F9AFD0BE
:1008A000DADEFAD9F88F9FA8F1CCF398DB45D9AFFF
:1008B000DFD0F8D8F18F9FA8CAF38809DAAF8FCBC1
:1008C000F8D8F2AD978D0CD9A5DFF9BAA6F3FAF4F2
:1008D00012F2D8950DD1D9BAA6F3FADAA5F2C1BAB7
:1008E000A6F3DFD8F1BAB2B68696A6D0CAF349DA33
:1008F000A6CBF8D8B0B4B8D8AD84F2C0DFF18FCBB6
:10090000C3A8B2B68696C8C1CBC3F3B0B48898A8C2
:1009100021DB718D9D71859521D9ADF2FAD885972E
:10092000A828D9F408D8F28D29DAF405D9F285A4DB
:10093000C2F2D8A88D9401D1D9F411F2D88721D868
:10094000F40AD8F28498A8C801D1D9F411D8F3A434
:10095000C8BBAFD0F2DEF8F8F8F8F8F8F8F8D8F13C
:10096000B8F6B5B9B08A95A3DE3CA3D9F8D85CA394
:10097000D9F8D87CA3D9F8D8F8F9D1A5D9DFDAFA13
:10098000D8B18530F7D9DED8F830ADDADED8F2B498
:100990008C99A32D557DA083DFDFDFB591A0F629CB
:1009A000D9FBD8A0FC29D9FAD8A0D051D9F8D8FCC5
:1009B00051D9F9D879D9FBD8A0D0FC79D9FAD8A1E6
:1009C000F9F9F9F9F9A0DADFDFDFD8A1F8F8F8F8DA
:1009D000F8ACDEF8ADDE8393AC2C547CF1A8DFDFFD
:1009E000DFF69D2CDAA0DFD9FADB2DF8D8A850DA93
:1009F000A0D0DED9D0F8F8F8DB55F8D8A878DAA07E
:100A0000D0DFD9D0FAF8F8F8F8DB7DF8D89CA88CBC
:100A1000F530DB38D9D0DEDFA0D0DEDFD8A848DB68
:100A200058D9DFD0DEA0DFD0DED8A868DB70D9DFF0
:100A3000DFA0DFDFD8F1A888902C547C98A8D05C88
:100A400038D1DAF2AE8CDFF9D8B087A8C1C1B1884D
:100A5000A8C6F9F9DA36D8A8F9DA36D8A8F9DA3614
:100A6000D8A8F9DA36D8A8F9DA36D8F78D9DADF8D6
:100A700018DAF2AEDFD8F7ADFA30D9A4DEF9D8F241
:100A8000AEDEFAF983A7D9C3C5C7F1889BA77AADB3
:100A9000F7DEDFA4F8849408A797F300AEF2981964
:100AA000A488C6A39488F632DFF28393DB09D9F2D7
:100AB000AADFD8D8AEF8F9D1DAF3A4DEA7F1889B83
:100AC0007AD8F38494AE19F9DAAAF1DFD8A881C0F4
:100AD000C3C5C7A39283F628ADDED9F8D8A350AD1D
:100AE000D9F8D8A378ADD9F8D8F8F9D1A1DADEC30E
:100AF000C5C7D8A18194F818F2B089ACC3C5C7F1B5
:100B0000D8B8B4B09786A8319B069907AB972888C8
:100B10009BF00C201440B0B4B8F0A88A9A28507802
:100B2000B79BA8295179247059446938644831F138
:100B3000BBAB88002C547CF0B38BB8A80428507849
:100B4000F1B088B49726A85998BBABB38B02264660
:100B500066B0B8F08A9CA82951798B2951798A24EA
:100B600070598B2058718A4469388B3940688A647F
:100B700048318B30496088F1AC002C547CF08CA853
:100B800004285078F1889726A85998AC8C022646FC
:100B900066F0899CA82951792470594469386448C1
:100BA00031A98809205970AB11384069A81931481A
:100BB000608CA83C415C207C00F187981986A86E67
:100BC000767EA999882D557DD8B1B5B9A3DFDFDF31
:100BD000AED0DFAAD0DEF2ABF8F9D9B087C4AAF163
:100BE000DFDFBBAFDFDFB9D8B1F1A3978E60DFB035
:100BF00084F2C8F8F9D9DED89385F14AB183A30805
:100C0000B5839A0810B79F10D8F1B0BAAEB08AC2B7
:100C1000B2B68E9EF1FBD9F41DD8F9D90CF1D8F8F3
:100C2000F8AD61D9AEFBD8F40CF1D8F8F8AD19D90C
:100C3000AEFBDFD8F416F1D8F8AD8D61D9F4F4AC81
:100C4000F59C9C8DDF2BBAB6AEFAF8F40BD8F1AE5A
:100C5000D0F8AD51DAAEFAF8F1D8B9B1B6A3839CA9
:100C600008B9B1839AB5AAC0FD3083B79F10B58B80
:100C700093F20202D1ABDADED8F1B080BAABC0C3D6
:100C8000B284C1C3D8B1B9F38BA391B609B4D9ABBF
:100C9000DEB0879CB9A3DDF1B38B8B8B8B8BB087D8
:100CA000A3A3A3A3B28BB69BF2A3A3A3A3A3A3A3C3
:100CB000A3A3A3F1B087B59AA3F39BA3A3DCBAAC1B
:100CC000DFB9A3A3A3A3A3A3A3A3A3A3A3A3A3A3A2
:100CD000A3A3D8D8D8BBB3B7F1AAF9DAFFD9809AC1
:100CE000AA28B48098A720B79787A86688F079517A
:100CF000F1902C870CA781976293F07171608594B5
:100D00000129517990A5F1284C6C870C95188578AC
:100D1000A38390284C6C886CD8F3A28200F210A8B0
:100D2000921980A2F2D926D8F188A84DD948D89630
:100D3000A83980D93CD89580A839A68698D92CDACC
:100D400087A72CD8A8899519A980D938D8A8893916
:100D5000A980DA3CD8A82EA83990D90CD8A895310A
:100D600098D90CD8A809D9FFD801DAFFD89539A9A4
:100D7000DA26FFD890A80D8999A810809821DA2E3C
:100D8000D88999A83180DA2ED8A886963180DA2EB3
:100D9000D8A8873180DA2ED8A88292F34180F1D981
:100DA0002ED8A882F31980F1D92ED882ACF3C0A234
:100DB0008022F1A62EA72EA92298A829DAACDEFF60
:100DC000D8A2F22AF1A92E8292A8F23180A696F139
:100DD000D900AC8C9C0C30ACDED0DEFFD88C9CAC47
:100DE000D010ACDE8092A2F24C82A8F1CAF235F1AA
:100DF0009688A6D900D8F1FF0E0C0D0F08FFFF0949
:100E0000050406070A0B0F0C0D0E08FFFF09050469
:100E100006070A0B0F0C0D0E0908FFFF0504060755
:100E20000A0B11241FBECFEFD8E0DEBFCDBF12E00A
:100E3000A0E0B1E0E6EBFEE502C005900D92AC311A
:100E4000B107D9F726E0ACE1B2E001C01D92AE3D9A
:100E5000B207E1F70E9472270C94592FD1C89B0169
:100E6000FC018FB7F8947183608373836283758309
:100E70006483240F351F3783268351874087138669
:100E800012868FBF0895FC01A081B1816C9380818F
:100E90009181019691838083268137818217930700
:100EA00021F484819581918380832FB7F894828582
:100EB00093850196938782872FBF0895FC01A281B5
:100EC000B3818D91B383A28326813781A217B307A3
:100ED00021F424813581338322839FB7F8942285BE
:100EE000338521503109338722879FBF08950F939F
:100EF0001F93CF93DF93EC018C01060F111DC017D8
:100F0000D10741F488EB8093C100DF91CF911F910D
:100F10000F910895699182ED96E0B5DFF0CFCF9300
:100F2000DF93FC01DA0186E0EB01888385E08083B2
:100F300015962C911597822F922F990F990B97FD4B
:100F4000079653E0959587955A95E1F78283179612
:100F50002C911797822F922F990F990B919581952C
:100F6000910997FD079643E0959587954A95E1F796
:100F700083831B962C911B97822F922F990F990B8D
:100F800097FD079633E0959587953A95E1F7848329
:100F900019962C911997822F922F990F990B97FDE3
:100FA000079623E0959587952A95E1F78583119615
:100FB0009C9111979295917081818E7F982B91834E
:100FC00011968C911197829582709D7F892B8183D8
:100FD00011969C919695969596959870877F892BFA
:100FE0008183DF91CF9108950F931F93CF93DF9368
:100FF000FC01DA018CE1EB01888384E08083CAE2A2
:10100000D1E040E050E061E070E0242F09910F3F13
:1010100049F1CB0102C0880F991F0A95E2F78C01B4
:101020008D919C9111970823192381E090E0012B69
:1010300011F480E090E0022E02C0880F991F0A94FC
:10104000E2F78B0102C0000F111F2A95E2F7980109
:10105000209530950181128120233123822B932BFF
:10106000928381834F5F5F4F4E30510571F6CC9173
:10107000CF7088E0CB3020F4D0E0CC50DE4F8881B8
:1010800083831A964D915C911B972091D1062B3149
:10109000A1F419968C9185958054868380E690EF13
:1010A0004F3F5F4711F087E29FE1958B848B8DE77F
:1010B000878380E88483858369C02D3111F02032D5
:1010C000E1F419968C9119978058868381819281D9
:1010D0008F7D61E070E04F3F5F4711F060E070E0AE
:1010E00055E0660F771F5A95E1F7862B972B928371
:1010F000818312968C91129787832F3111F02A31B8
:10110000C1F681E090E012963C911297333310F4CF
:1011100080E090E044E0880F991F4A95E1F7418113
:1011200052814F7E842B952B9283818341E050E046
:1011300013963C911397333310F440E050E035E0C0
:10114000440F551F3A95E1F78F7D482B592B528359
:10115000418312968C911297848713968C911397E2
:10116000858715968C9115978058848317969C9146
:1011700017979058958319968C9119978058868364
:101180001B968C91805887832A3129F0DF91CF916B
:101190001F910F9108959095958380958783F6CF41
:1011A000DC011596EC91F0E0E458FE4F80818F3F12
:1011B00081F021E030E002C0220F331F8A95E2F770
:1011C00080914002909141022823392381E0232B12
:1011D00009F480E00895CF93DF93CDB7DEB7289769
:1011E0000FB6F894DEBF0FBECDBFDC011B96EC91AD
:1011F0001B97EF3F91F41196ED91FC91129780812E
:101200009C91892391E0811101C090E081E01396C7
:101210002C919217B9F080E015C088E0E89FF001AA
:101220001124E853FB4F88E0DE01119601900D92E6
:101230008A95E1F74C815D8181E02E813F81241701
:10124000350748F728960FB6F894DEBF0FBECDBF1E
:10125000DF91CF910895FC01809101018830E9F080
:101260008930F1F08CE991E0E581E80FF92FF11D6B
:1012700080818F3F81F021E030E002C0220F331FD8
:101280008A95E2F780914202909143022823392304
:1012900081E0232B09F480E008958CEA91E0E4CF0B
:1012A0008CE891E0E1CFCF93DF93EC0187EF95E0FD
:1012B00092DF882339F08FEF9FE79B878A87DF9142
:1012C000CF91089580E090E0F8CFCF93DF9300D0E6
:1012D00000D0CDB7DEB72FB7F894809195029091EA
:1012E0009602A0919702B09198022FBF2227382F23
:1012F000492F5A2FCA01B9012DE730E040E050E0F4
:101300000E948B2E29833A834B835C83CA01B901E7
:101310000F900F900F900F90DF91CF910895CF9382
:10132000DF9300D000D0CDB7DEB73FB7F8948091FF
:10133000950290919602A0919702B091980226B5DD
:10134000A89B05C02F3F19F00196A11DB11D3FBFFD
:10135000BA2FA92F982F8827820F911DA11DB11D8B
:101360009C01AD0163E0220F331F441F551F6A9596
:10137000D1F729833A834B835C83CA01B9010F906B
:101380000F900F900F90DF91CF910895CF92DF9241
:10139000EF92FF920F931F93CF93DF93EC016B01BA
:1013A000BA01A901F801C70120812630E0F4209795
:1013B00071F000271127041B150B601771073CF40F
:1013C00031962E0D3F2D311DD9011396CC93C114AA
:1013D000D10449F04617570734F42081820F911D3C
:1013E000DC011396CC92DF91CF911F910F91FF906A
:1013F000EF90DF90CF9008958EBD00000DB407FEF2
:10140000FDCF8EB50895EF92FF920F93DC01CB01D3
:10141000642F70E0FB01E656FF4F34916A577F4F0F
:10142000FB016491E32FF0E0EE0FFF1FEE2049F186
:10143000E458FF4FE590F49015962C931597149669
:101440004C9314976C931196EC9211971296FC9210
:10145000129713960C931397FC01E05FFE4F808167
:101460001A968C931A978FEF1B968C931B97169650
:101470001D921D921D921C9219970F91FF90EF9053
:101480000895EE58FF4FD6CF90E0FC01EA57FF4F8A
:101490002491FC01E656FF4FE491EE2389F0F0E041
:1014A000EE0FFF1FE458FF4FA591B4919FB7F8943A
:1014B0008C91611106C0E22FE095E823EC939FBF69
:1014C0000895822B8C93FBCF90E0FC01EA57FF4FED
:1014D0002491FC01E656FF4FE491EE2361F0F0E029
:1014E000EE0FFF1FEE58FF4FA591B491EC91E22350
:1014F00081E0E11101C080E00895806480937C0068
:1015000080917A00806480937A0080917A0086FDD1
:10151000FCCF8091780090917900089580917A00B5
:1015200086FDFCCF81E0809304010895CF93DF9383
:1015300090E0FC01EA57FF4F249186569F4FFC0133
:1015400084918823D1F090E0880F991FFC01E8591D
:10155000FF4FA591B491FC01E458FF4FC591D49180
:10156000613071F49FB7F8948C91209582238C930D
:101570008881282328839FBF7894DF91CF91089595
:1015800062509FB7623050F4F8943C91822F80955E
:1015900083238C938881822B8883EDCFF8948C9160
:1015A000822B8C93E8CFCF92DF92EF92FF920F9332
:1015B000CF93DF936B017C01C42FD22F60E08BE0CF
:1015C000B5DF62E08CE0B2DF60E08DE0AFDF61E0CC
:1015D0008AE05ADF60E08AE0A9DFCC0FCC0FCC0FA5
:1015E000D111C4600111C062C11489E0D8068DE335
:1015F000E806F10410F580E8C81684E8D8068EE104
:10160000E806F104E0F480E4C81682E4D8068FE02E
:10161000E806F104B0F082E091E08927982F9695D2
:101620009C2B90659CBD81708DBDDF91CF910F91FA
:10163000FF90EF90DF90CF90089580E0EDCF81E0B4
:10164000EBCF83E0E9CFCF92DF92EF92FF92E0E021
:10165000F0E067E675E483E291E041E240935700F1
:101660002491622728E030E06B017C0151E0C52223
:10167000DD24EE24FF249695879577956795CD28F0
:10168000CE28CF2841F050E2652753E8752758EB64
:1016900085275DEE9527215031092115310521F768
:1016A0003196E032F105D1F6FF90EF90DF90CF90C8
:1016B0000895682F8AE0E8CE982F8D30D9F08230D7
:1016C000C8F08091E405882321F02EEE290F223006
:1016D00080F08091E305882321F026EF290F223046
:1016E00040F08091E205811103C081E09C3009F057
:1016F00080E0089581E008950F931F93CF93DF93C7
:1017000080910103811109C010920E031092010310
:10171000DF91CF911F910F9108950DEE12E0C0E07F
:101720008C2FD2DEF80181938F01CF5FC431C1F7D6
:101730008091E1058F3F11F060E0F8DECAEFD4E060
:1017400000E010E08091BA059091BB0508171907D9
:10175000DCF68C819B852B81211103C062E09F3FC9
:1017600009F061E0E3DE0F5F1F4F2C96EBCF7F9215
:101770008F929F92AF92BF92CF92DF92EF92FF92A1
:101780000F931F93CF93DF93CDB7DEB728970FB694
:10179000F894DEBF0FBECDBF8C01722E5B01842E8C
:1017A000912C18861F829401215031093A83298394
:1017B0002F81388528153905A1F428960FB6F8949D
:1017C000DEBF0FBECDBFDF91CF911F910F91FF9074
:1017D000EF90DF90CF90BF90AF909F908F907F90D1
:1017E00008958AE50115110529F0EF81F885E00FCC
:1017F000F11F808101DEF50181935F0110927E026D
:101800008EDD6B017C0129813A818F819885821759
:101810009307BCF0711015C0EF81F8853196F887F9
:10182000EF83C6CF7CDD6B837C838D839E83DC015D
:10183000CB018C199D09AE09BF09C397A105B1055C
:1018400058F780917E02882369F3E6CFCF93DF9328
:10185000EC01FB0180818052990B880F880F1C825C
:101860008D8381818052990B880F880F1E828F8310
:10187000858124813581209530959091D1069332D0
:1018800060F0938191FF09C09095907E628166958A
:101890006E736A3120F5623139F1982F96959695DD
:1018A000969561E096279170B92FB295BB0FB07EE7
:1018B000A0E0367D2A2B3B2B829586958770862764
:1018C0008170582F550F550F550F40E0242B352BA5
:1018D0003093410220934002DF91CF9108956E3101
:1018E000E1F69093E502D9CF9093E902D6CFFC01BF
:1018F000DB018C91880F880F8058148285831196A4
:101900008C911197880F880F8058168287831396C1
:101910002C9113972F712E50330B37FF02C020E00C
:1019200030E031872087C901880F991F820F931FEC
:101930008032910514F08FE190E04097880F880F76
:10194000880F1086818714968D919C9115978095AC
:10195000909590934102809340022091A904222304
:1019600071F01396EC91EF71EE50E695F0E0E459CA
:10197000FE4F2081922B9093410280934002089564
:10198000FC01DB018C918058990B1482858312969F
:101990008C9112978058990B1682878311968C919F
:1019A00011978058990B1086818713968C91139705
:1019B0008058990B1286838714968C911497828392
:1019C00015968C911597838316968D919C91809591
:1019D000909590934102809340020895FC01DB01B1
:1019E0008C918F738052990B9583848311968C917F
:1019F00011978F738052990B978386838C9190E017
:101A000023E0959587952A95E1F788719927119696
:101A10002C91119730E045E0359527954A95E1F7EF
:101A200026703327822B932B12962C911297221F0C
:101A30002227221F822B4097880F880F10868187CC
:101A400012968C9112978F718051990B880F880F85
:101A50001286838712969C91129796959695987107
:101A600013968C911397829586958770892B828324
:101A700013968C9113978F71838314968D919C91FB
:101A80008095909590934102809340020895DC01E7
:101A9000FB0190818181829586958670292F2695FC
:101AA000269526952871822B2281221F2227221F0C
:101AB000822B990F990F905814961C921497159693
:101AC0009C9315979181990F990F905816961C9297
:101AD000169717969C9317979481238190FF3CC08B
:101AE00030E0209530952F713327205E3F4F1996B7
:101AF0003C932E931897082E000C990B228120FFFF
:101B000033C02FE330E0A901481B590BCA011B96D3
:101B10009C938E931A97928196959695987183814E
:101B2000829586958770892B12968C931297828165
:101B300090E0959587958F7013968C93848195810D
:101B4000982789279827809590958D7C93769093F8
:101B500041028093400208952F7140E250E0BA01A3
:101B6000621B71099B01C3CF20E230E0B901681B01
:101B7000790BCB01CCCFCF93DF93DC01EB018A81D2
:101B800090E0982F882788279F706881862B15966C
:101B90009C938E9314978A8120E1829FC001112427
:101BA00088279F706981862B17969C938E93169732
:101BB0008B8113968C938D8181FB992790F9592FF6
:101BC0005295550F550F507C40E0982F9170F92F8A
:101BD000F295F07FE0E04E2B5F2B8695869591E0A5
:101BE00089278170382F3295330F307E20E0422BC9
:101BF000532B5093410240934002DF91CF910895BF
:101C0000FC01DB018D919C91119795838483129641
:101C10008D919C9113979783868314968C918383DF
:101C20000895FB01808190E080959095909341020A
:101C3000809340020895DC01862F90E06031F8F433
:101C40002091CE06222339F0693028F083529D4F2F
:101C5000FC018081089521E030E002C0220F331F93
:101C60006A95E2F78D919C912823392381E0232BFB
:101C700009F480E08295880F880F807C0895209178
:101C8000060630910706633170F0FC017097EE0F85
:101C9000FF1FEA0FFB1F81E04081518124173507A8
:101CA00058F080E009C0A80FB91F1E974C9150E072
:101CB00081E024173507ACF708957F928F929F92A9
:101CC000AF92BF92CF92DF92EF92FF920F931F934A
:101CD000CF93DF93EC017B01742E852E87E0888300
:101CE00041E1C42E46E0D42E0FE712E0A12CB12C26
:101CF000F60181916F01882369F130E9932E8130DB
:101D000011F020EB922E6A2D872D982D94DF869569
:101D1000F80190819817F1F0F60193A54589F80133
:101D200080832B2D30E054E0B59EF0011124EC0FA0
:101D3000FD1F592D52955F705183992992834383DA
:101D4000F9013196EE0FFF1FEE0FFF1FEC0FFD1F85
:101D50008083B3940F5F1F4FA39486E1A812C8CF6E
:101D6000BB0CBB0CB394F701B082DF91CF911F91F4
:101D70000F91FF90EF90DF90CF90BF90AF909F902A
:101D80008F907F90089580E094DC81EE35DB81E0D8
:101D900090CC80E08EDC82EE2FDB81E08ACC80E08C
:101DA00088DC80E529DB83E727DB81E082CC0F93A9
:101DB0001F93CF93DF93EC018C01060F111DC01709
:101DC000D10729F4DF91CF911F910F910895899147
:101DD00013DBF5CFCF93DF93D82FC62F80E069DCDC
:101DE0008D2F806209DB8C2F07DB81E0DF91CF91A3
:101DF00060CCEF92FF920F931F93CF93DF93F82E57
:101E0000E92EC62F8091A804811109C0C0E08C2F53
:101E1000DF91CF911F910F91FF90EF900895109255
:101E2000A80480E046DC8FEFE7DAD82F81E041DCC0
:101E30002D2F30E035952795277033272730310532
:101E400029F360E487E0C6DFC11109C080E031DC1E
:101E500080E6D2DA80E0D0DAC82F81E02ADC80E0A8
:101E600028DC81E6C9DA0F2D1E2D802F8F198C17E3
:101E700018F081E01EDCCBCFF80181918F01BCDA34
:101E8000F80131978083F1CFCF93DF9300D000D05A
:101E9000CDB7DEB79C01DB010E94D02E69837A8327
:101EA0008B839C83AB01BC015F776627772781E03A
:101EB00090E0A0E0B0E0411550446105710519F4CF
:101EC00080E090E0DC012EE0880F991FAA1FBB1F65
:101ED0002A95D1F729813A814B815C81820F931F2A
:101EE000A41FB51F3FE0B595A795979587953A959F
:101EF000D1F70F900F900F900F90DF91CF91089531
:101F0000F89488E198E00FB6F894A8958093600063
:101F10000FBE90936000FFCF1F93CF93DF93182FD6
:101F2000EB0180E0C6DB812F67DA888165DA888380
:101F300081E0DF91CF911F91BCCBCF93DF930F92C4
:101F4000CDB7DEB7BE016F5F7F4FE6DF89810F90AF
:101F5000DF91CF9108951F93CF93DF93182FD62F42
:101F6000C72F80E0A6DB812F806246DA64E08D2FE8
:101F70009C2F1DDF81E0DF91CF911F919ACB85EDE2
:101F80008093BC008FEF9FE72091BC0024FD03C02D
:101F90001092C50403C001970097B1F70895CF933D
:101FA000DF93DC01FA0184E1EB0188831C92119636
:101FB0008C93119712968CE001900D928A95E1F71F
:101FC000DF91CF910895CF93282FCB01C42F4FEFEE
:101FD0005FE7C13238F080E047C0415051094115F8
:101FE0005105C9F33091C5043111F7CF31E0309379
:101FF000C5043093C4044FEF40935A0210927C0200
:102000004C0F40937B0230937D0230917D02220F72
:10201000232B20937D022091C304222391F110925F
:10202000C30420917D022093BB002FEF3FE7409136
:10203000BC0043FD1BC025EC2093BC002FEF3FE705
:102040004091C5044130F9F020917C022C1710F426
:10205000C0917C024C2F50E06BE572E00E94182F7B
:1020600081E0CC2309F4B7CFCF91089521503109F5
:102070002115310509F4AFCF40917D024093BB009B
:10208000D6CF25EED9CF2150310921153105C1F622
:10209000A2CFCF93C82F8FEF9FE7413228F080E087
:1020A00040C001970097D9F32091C5042111F9CFC1
:1020B00082E08093C50481E08093C4048FEF809315
:1020C0005A0210927C0240937B0250E08BE592E032
:1020D0000E94182F10927D0280917D02CC0FC82B98
:1020E000C0937D028091C304882331F11092C30410
:1020F00080917D028093BB008FEF9FE72091BC0011
:1021000023FD11C085EC8093BC008FEF9FE72091E9
:10211000C504223099F090915A0281E09F3F09F066
:10212000BECFCF9108950197009709F4B8CF2091C1
:102130007D022093BB00E2CF85EEE5CF01970097AB
:1021400031F7ADCFEF92FF920F931F93CF93DF93B1
:102150000F92CDB7DEB7182F6983E42EF22E032F2E
:1021600041E0BE016F5F7F4F94DF882371F04E2DF9
:102170006F2D702F812F27DF81700F90DF91CF910E
:102180001F910F91FF90EF90089580E090E0F4CFC1
:102190008F929F92AF92BF92CF92DF92EF92FF9277
:1021A0000F931F93CF93DF930F92CDB7DEB76C01E0
:1021B0004A0189E0DB018C93F601319688E0DF016A
:1021C0001D928A95E9F786E0F6018083A7E5B6E0DF
:1021D00080E090E0A12C41E050E0BD909C012F5F99
:1021E0003F4FB11063C0C90120313105B1F76A2DED
:1021F0006983A0905506B0905606D40114964D916F
:102200005C9160916A0670E08091690676018E01AA
:102210000F5F1F4F950190E0B9D8F40146815781B7
:1022200060916C0670E080916B06950190E0AED8ED
:10223000D40118964D915C9160916E0670E080918A
:102240006D06950190E0A2D8F40142855385609116
:10225000700670E080916F06950190E097D8A0908D
:102260005306B0905406D40112964C9150E0609100
:10227000670670E0950180E090E088D8F401438122
:1022800050E06091680670E0950180E090E07ED8B3
:102290000F90DF91CF911F910F91FF90EF90DF9002
:1022A000CF90BF90AF909F908F900895BA0102C0D9
:1022B000660F771F8A95E2F7CB01F4016081718187
:1022C00086239723892B09F48ECF61E06A0DF601EE
:1022D000EA0DF11DB382C9012031310509F488CF1F
:1022E000663009F485CFA62E78CF61E08DE0CCD89A
:1022F00061E08BE0C9D8A7EBB4E01196ED91FC91B9
:10230000129780819C91892B808385E88A95F1F7CB
:1023100000000895FF920F931F93CF93DF930F92C6
:10232000CDB7DEB78983F62E8A0141E0BE016F5F2B
:102330007F4F82E5AEDE882351F08DE591E0019775
:10234000F1F700C000004F2DB80182E53CDE0F9090
:10235000DF91CF911F910F91FF9008950F931F93DD
:10236000CF93DF9300D000D000D0CDB7DEB78E0181
:102370000F5F1F4F86E0F80111928A95E9F7A801D7
:1023800066E08AEFC7DF8FE891E00197F1F700C0C0
:102390000000F801AE01495F5F4F8FEF90E021919F
:1023A000922B8223E417F507D1F7992379F08F3F19
:1023B00069F099818E810F900F900F900F900F9080
:1023C0000F90DF91CF911F910F9108958FEF9FEFA5
:1023D000F2CFEF92FF920F931F93CF93DF930F9261
:1023E000CDB7DEB77C01062F81E08983E091B80488
:1023F000F091B90490818091B704809589238083FE
:1024000085E88A95F1F7000021E041E06DE172E096
:10241000CE010196ACD921E042E06EE172E0C70145
:10242000A6D910911E021F3F61F400E010E05DDFAD
:10243000C8010F90DF91CF911F910F91FF90EF9006
:10244000089580911F028A3511F08111EECF1F701F
:10245000110F1D5F101B4DEF400F21E060E272E095
:10246000C701029684D9602F70E0CB01810F911DC6
:102470008197DCF6635E7D4F20E0412F80E090E0A5
:1024800076D90DE112E0D3CFCF92DF92EF92FF9297
:102490000F931F93CF93DF9300D000D000D0CDB720
:1024A000DEB78D839E83062F0E9465096B017C0138
:1024B00010E0602F8D819E818CDFFC01892BA9F0BB
:1024C0001F5F8D819E81885E914031F48181807F84
:1024D000803F59F481E021C08D819E81845D9140CF
:1024E00059F58181807F803FA9F78FE19EE40197B4
:1024F000F1F700C000000E94650969837A838B832D
:102500009C83DC01CB018C199D09AE09BF098B3F6F
:102510009105A105B10568F280E00F900F900F9032
:102520000F900F900F90DF91CF911F910F91FF901F
:10253000EF90DF90CF9008951330B8F2CBCFCF93C8
:10254000DF93EC0164E080EF91E043DFFC0180E089
:10255000309749F08181807F803F41F468E084EDCD
:1025600091E092DF81E0DF91CF9108952381348162
:1025700020953095309343022093420280910101CF
:10258000863009F45DC068F4843091F0853089F1BB
:10259000823071F0833031F781858A8382858B8325
:1025A00007C0883009F463C08930D1F08730D1F694
:1025B00085818058990B1886898726818FE790E05E
:1025C000AC01421B51091A864B8727812058330BD7
:1025D0001C822D832085821B91091E828F83C2CF8E
:1025E00085818058990B1C828D8326818FE790E02E
:1025F000F2CF85818058990B1C828D83868187FF5D
:1026000005C0207F3093430220934202878187FFD9
:1026100009C08091420290914302817F90934302CE
:10262000809342028085803F08F49CCF80914202D3
:1026300090914302857F909343028093420292CF10
:102640002581422F4058550B942F8827368137FD1E
:1026500009C027FF02C08FEF9FEF80589F4F9D83D7
:102660008C8380CF2138C8F781E090E0F6CF1D82BF
:102670001C821F821E8240858FE790E0841B910997
:10268000188689878FEF9FE730FD02C080E090E0D9
:102690009B878A8767CF0F931F93CF93DF93D82FA2
:1026A000C92F80914402811166C015E08D2F9C2FA7
:1026B00046DF8FEC97E00197F1F700C00000115062
:1026C0001111F4CF8D2F9C2F3ADF811107C010928A
:1026D0004402DF91CF911F910F91089564E080EF44
:1026E00091E077DE8C0168E088EE91E0CDDE882312
:1026F00061F064E084EE91E0C7DE68E08CED91E08B
:10270000C3DE68E084ED91E0BFDEF80181818937A6
:10271000C9F583E080930101F8018381948180955C
:10272000909590934302809342022091CD062223FC
:1027300049F020910101223029F487FF03C088E08D
:102740008093010168E088EE91E09EDE882381F0AD
:10275000809101019CEF980F943010F0823089F540
:1027600068E08CEC91E090DE68E084ED91E08CDE36
:1027700081E0809344028D2F9C2FE1DE882309F4B1
:10278000A6CFA7CF982F907F903711F482E0C2CFC9
:10279000903511F484E0BECF833211F485E0BACFD6
:1027A000903E11F486E0B6CF833611F487E0B2CFC5
:1027B000823111F489E0AECF903409F0ADCF81E0E1
:1027C000A9CF893021F468E084EC91E0CCCF83304C
:1027D00059F668E08CEB91E0C6CFCF93DF93CDB78D
:1027E000DEB7C851D1400FB6F894DEBF0FBECDBFE3
:1027F00048E151E061EC70E0CE0101960E94FB2EB1
:1028000048E151E061E070E0CE0101960E94382F6E
:10281000C85EDE4F0FB6F894DEBF0FBECDBFDF91AE
:10282000CF910895EF92FF920F931F93CF93DF9371
:1028300000D0CDB7DEB7082F142F732F8DB79EB7FA
:102840009A83898350E0CA010196EDB7FEB7E81B71
:10285000F90B0FB6F894FEBF0FBEEDBF8DB79EB754
:1028600001967C016183622F01960E94182F41E03E
:10287000410FB701802F0DDCE981FA810FB6F89482
:10288000FEBF0FBEEDBF0F900F90DF91CF911F9154
:102890000F91FF90EF900895EF92FF920F931F9387
:1028A000CF93DF930F92CDB7DEB780910D018111E9
:1028B00009C08FEF0F90DF91CF911F910F91FF9083
:1028C000EF9008951982A0910701B0910801E0915D
:1028D0000901F0910A018E010F5F1F4F980141E03D
:1028E00051966C9180819EDF7801882311F3A0912D
:1028F0000701B0910801E0910901F0910A019801E6
:1029000041E015966C9180818DDF882391F2A09132
:102910000701B0910801E0910901F0910A019801C5
:1029200041E014966C9180817DDF882309F4C1CF4A
:10293000E0910701F09108016481E0910901F091B3
:102940000A0180912401882309F455C08CE0898311
:10295000980141E0808166DF882309F4AACF2FE740
:1029600088E391E0215080409040E1F700C00000F2
:1029700080EC898380910D0180FF02C080EE898305
:10298000A0910701B0910801E0910901F0910A01BD
:10299000970141E014966C91808144DF882309F40B
:1029A00088CF81E090911301911101C080E0880FE0
:1029B0008983A0910701B0910801E0910901F0918C
:1029C0000A01970141E051966C9180812BDF8823A9
:1029D00009F46FCF1982A0910701B0910801E0912D
:1029E0000901F0910A01970141E015966C918081EF
:1029F00019DF81505FCF84E08983980141E08081B5
:102A000011DF882309F455CF80911401811104C08E
:102A100080910D0180FD3FC080E48983A091070172
:102A2000B0910801E0910901F0910A01970141E09C
:102A300014966C918081F6DE882309F43ACF2FE753
:102A400088E391E0215080409040E1F700C0000011
:102A500081E090911301911101C080E08983A091E0
:102A60000701B0910801E0910901F0910A01970175
:102A700041E051966C918081D5DE882309F419CF0D
:102A8000A0910701B0910801E0910901F0910A01BC
:102A900022E131E0A9CF80E6C0CFCF93DF930F9240
:102AA000CDB7DEB79C0180910D01811105C08FEF7C
:102AB0000F90DF91CF91089581E02C3B310588F490
:102AC00082E02236310568F483E02A32310548F489
:102AD00084E02431310528F486E02A30310508F0FD
:102AE00085E0898390910E019817A9F0A0910701C4
:102AF000B0910801E0910901F0910A019E012F5F58
:102B00003F4F41E012966C9180818CDE882379F2F0
:102B1000898180930E0180E0CBCFEF92FF920F93DB
:102B20001F93CF93DF9300D0CDB7DEB7FC018B01AD
:102B30007A0180910D0181110AC08FEF0F900F90E3
:102B4000DF91CF911F910F91FF90EF9008959E2FED
:102B50008F2F9A838983A0910901B0910A019B016B
:102B60002E0F311D18968D919C91199782179307FE
:102B700020F3E0910701F09108019E012F5F3F4F84
:102B800042E0638D8C914EDE8823B9F2A09107015B
:102B9000B0910801E0910901F0910A019701402FDD
:102BA00058966C9180813EDE8150C8CFCF93DF93E1
:102BB0000F92CDB7DEB780910D01811105C08FEF67
:102BC0000F90DF91CF91089588E1898380910B0167
:102BD0008330C1F0A0910701B0910801E091090193
:102BE000F0910A019E012F5F3F4F41E016966C91D4
:102BF000808118DE882319F38981869586958695CC
:102C000080930B0180E0DCCFCF93DF930F92CDB7A1
:102C1000DEB780910D01811105C08FEF0F90DF911C
:102C2000CF910895198280910C018823C1F0A09161
:102C30000701B0910801E0910901F0910A019E019C
:102C40002F5F3F4F41E017966C918081EBDD882329
:102C500021F3898186958695869580930C0180E085
:102C6000DDCF0F931F93CF93DF930F92CDB7DEB7D6
:102C700080911401882309F45AC0A0910701B091F2
:102C80000801E0910901F0910A018E010F5F1F4FC9
:102C9000980141E014966C91808154DA811107C04B
:102CA0008FEF0F90DF91CF911F910F910895898140
:102CB00090910D0190FF3DC080628983A091070132
:102CC000B0910801E0910901F0910A01980141E0F9
:102CD00014966C918081A6DD882311F38FE697E12D
:102CE0000197F1F700C0000081E09091220191115D
:102CF00001C080E08795882787958983909123017B
:102D0000992311F080638983A0910701B091080194
:102D1000E0910901F0910A01980141E057966C9108
:102D2000808180DD882309F4BBCF1092140180E0FC
:102D3000B8CF8F7DC2CFCF93DF930F92CDB7DEB7E1
:102D400069839E012F5F3F4F41E0682F82E56ADD76
:102D50000F90DF91CF910895CF92DF92EF92FF9283
:102D60000F931F93CF93DF93CDB7DEB72E970FB698
:102D7000F894DEBF0FBECDBF7C018E010F5F1F4FE9
:102D800088E0F80111928A95E9F78091020190910B
:102D9000030168018F3F9807A1F18B30984189F1B9
:102DA000A8016091000180913F02B4DA882349F1C3
:102DB000F80120910001200F312F311D8FEF90E09D
:102DC000E217F307D1F49923E1F08F3FD1F0E091BE
:102DD0003D02F0913E02309709F0CDC02E960FB61D
:102DE000F894DEBF0FBECDBFDF91CF911F910F9141
:102DF000FF90EF90DF90CF9008954191942B842322
:102E0000DFCFACDA9C0190930301809302012F3F46
:102E10003F4FB9F465E580EF8EDF9AE19A95F1F7BF
:102E200000C060E08BEF87DFEAE1EA95F1F700C0D0
:102E300095DA9093030180930201FAE1FA95F1F794
:102E400000C0809102019091030183319F4F71F482
:102E500061E08BEF70DF8AE18A95F1F700C065E5EC
:102E600080EF69DF9AE19A95F1F700C010923F0276
:102E700080910201909103018330910539F487E735
:102E80009CE090933E0280933D02A8CF9C013E7F40
:102E900021303105C1F563E08EEF4DDFEFE8F1E061
:102EA0003197F1F700C0000063E08EEF44DF8FE858
:102EB00091E00197F1F700C0000063E08EEF3BDF87
:102EC000EFE8F1E03197F1F700C00000AE01475F95
:102ED0005F4F66E08AEF1EDA8FE891E00197F1F725
:102EE00000C000008D85833051F02EEE3CE086E07E
:102EF00030933E0220933D02809300016FCF20EC7F
:102F00003CE088E0F5CF009719F483ED95E2B9CF66
:102F10008330E1E09E0719F486E29CE0B2CF823173
:102F2000FFEF9F0719F48BEB9DE0ABCF83312FEFC1
:102F3000920719F480E09EE0A4CF8330980719F43B
:102F400087E49DE09ECF419759F481E19EE0909304
:102F50003E0280933D0285E080933F0281E0CCCF2A
:102F60008BE098E1909303018093020110923E025E
:102F700010923D0233CFB601C70109952FCF1F93A1
:102F8000CF93DF930F92CDB7DEB7182F8091230137
:102F9000811721F180E0111180E389839091140160
:102FA000992311F08260898380912201882319F08E
:102FB000898180688983A0910701B0910801E0911F
:102FC0000901F0910A019E012F5F3F4F41E05796A2
:102FD0006C91808127DC8111109323010F90DF9188
:102FE000CF911F910895EF92FF921F93CF93DF939C
:102FF0000F92CDB7DEB7182F8077811125C081E001
:10300000111180E08295880F880F807C8983A091C0
:103010000701B0910801E0910901F0910A01CE0188
:1030200001967C019C0141E055966C918081FADB10
:10303000970181110BC010920D010F90DF91CF917C
:103040001F91FF90EF90089581E0E0CF89818F7B01
:1030500080930F0116FB882780F991E08927880F5C
:10306000880F898315FD02C08260898314FD03C027
:1030700089818160898313FD03C089818863898385
:10308000A0910701B0910801E0910901F0910A01B6
:1030900041E056966C918081C5DB882361F2812FD7
:1030A000877F882311F080E06ADF10930D01109272
:1030B00016019FE728E381E0915020408040E1F72E
:1030C00000C00000BACFCF93DF930F92CDB7DEB729
:1030D000909124019923F9F091E0811101C090E0D1
:1030E000990F9983A0910701B0910801E09109011E
:1030F000F0910A019E012F5F3F4F41E051966C9184
:10310000808190DB882319F08981809313010F90CF
:10311000DF91CF91089590910D019923C1F38823F8
:1031200021F0909113019111F2CF8983DBCF1F938E
:10313000CF93DF93D82F80912401811126C0C091B5
:103140000D01CC2301F110911201CD23C093120186
:10315000DD2371F081E0B7DF9FDB811112C081E0D8
:10316000CD1301C080E08195DF91CF911F9108952B
:1031700080911601882319F081E0A5DFF0CF80E06F
:10318000FCCF109312018FEFEFCF80E0EDCF0F93C4
:103190001F93CF93DF9300D0CDB7DEB78C01809122
:1031A0000D01811108C08FEF0F900F90DF91CF912B
:1031B0001F910F910895809124018111F4CF809186
:1031C0001601882309F45DC0C8010197889708F0AB
:1031D00040C081E0D4DE80E28983013049F51A8263
:1031E00085E090E05ADC8A8120E4829FC0011124AE
:1031F00087608A83A0910701B0910801E0910901DD
:10320000F0910A019E012F5F3F4F42E055966C916D
:10321000808108DB882351F088E080930D011092B3
:103220000F0181E08093160180E081DF80E0BCCF58
:10323000063018F481E08A83D3CF053128F482E088
:103240008A838AE090E0CECF83E08A8384E190E0B5
:10325000C9CF80E094DE198287E08A83A0910701BC
:10326000B0910801E0910901F0910A019E012F5FE0
:103270003F4F42E055966C918081D4DA81111092D3
:103280001601B801093E83E0180760F168EE73E0AB
:1032900008EE13E0C8010E94642E61506983A0917A
:1032A0000701B0910801E0910901F0910A019E0126
:1032B0002F5F3F4F41E011966C918081B3DA8823F4
:1032C00009F471CF698170E06F5F7F4FC8010E9480
:1032D000782E7093110160931001CB01969587951C
:1032E000DCDBA4CF0430110598F664E070E0D0CFA9
:1032F0007F928F929F92AF92BF92CF92DF92EF9286
:10330000FF920F931F93CF93DF93CDB7DEB7C154D6
:10331000D1400FB6F894DEBF0FBECDBF48E151E0FB
:1033200061E070E08E010F5F1F4FC8010E94282FDF
:103330008D859E85AF85B889F02EC45CDE4F1883DD
:10334000CC53D1400897A105B10538F448E151E0CC
:1033500060E070E0C8010E94282F89859A85AB85BE
:10336000BC858531944DA24AB105D1F048E151E0C8
:1033700061EC70E08F2DC45CDE4F9881CC53D1405E
:103380000E94FB2E1D861E861F86188A42E450E08E
:1033900065E671E0CE018B559F4F0E94FB2E08C061
:1033A0008D859E85AF85B8890297A105B10570F31B
:1033B0008A81873009F040C08FE08A838D859E85A1
:1033C000AF85B8890497A105B10548F448E550E0F8
:1033D0006DE071E0CE01835B9F4F0E94FB2E8D85D7
:1033E0009E85AF85B88986309105A105B10548F560
:1033F0001C82C951DF4F1882C75ED040EA81F0E0DD
:10340000E752FE4FE491E23021F48AA591E089274A
:103410008AA743E050E061ED71E0CE018F5E9E4FE0
:103420000E94FB2E44E250E06DEA71E0CE01835130
:103430009F4F0E94FB2E13C0883009F0BFCF8DE054
:10344000BCCF86309105A105B10599F2893091056F
:10345000A105B10598F20D97A105B105D0F28D85B2
:103460009E85AF85B8898E309105A105B10508F01C
:1034700041C088A9843028F48230D0F181E088AB43
:1034800004C08450823008F418AACD5EDE4F188242
:10349000C351D140CB5EDE4F1882C551D140CA5EC8
:1034A000DE4F1882C651D140CC5EDE4F1882C45127
:1034B000D140C95EDE4F1882C751D140C85EDE4F91
:1034C0001882C851D14080E190E0A0E0B0E08D8743
:1034D0009E87AF87B88B48E151E061E070E08F2DA7
:1034E000C45CDE4F9881CC53D1400E94382F0BC072
:1034F00082E0C5CF8E309105A105B10531F20F975D
:10350000A105B10539F2EA81E093D1068C8180935F
:10351000D00689818093CF06F0E0E752FE4F949168
:1035200081E0913009F080E08093CE06E49181E063
:10353000E23009F080E08093CD0685B5826085BDDC
:1035400085B5816085BD80916E00816080936E003D
:10355000C951DF4F8881C75ED040882309F45FC11D
:103560000E94230BC45CDE4F688379838A839B832C
:10357000CC53D1407E0147EDE41A4EEFF40AC85116
:10358000DF4F88819981AA81BB81C85ED040F70155
:1035900080839183A283B383C45CDE4F8881998149
:1035A000AA81BB81CC53D140C75EDE4F888399830B
:1035B000AA83BB83C951D1401092A80460E088E07F
:1035C0000E94960A60E08AE00E94960A00E020E0ED
:1035D00040E060E072E18AE790E00E94D30A60E098
:1035E00088E00E94440A81E00E94590BAFE0B7E2F4
:1035F0001197F1F700C0000061EF84E00E94EA0E2D
:1036000062E083E00E94EA0EBE01675C7E4F86E0C6
:103610000E948C0FC75CDE4F6881C953D140697F1F
:10362000C75CDE4F6883C953D14086E00E94EA0E32
:103630008DE10E949D0F182F0E94CF0E8DE10E94F8
:103640009D0F0E2D882341F0181302C00E94CF0E4B
:1036500060E08DE10E94EA0EBE01655C7E4F86E06F
:103660000E948C0FC55CDE4F6881CB53D140677DD3
:103670006360C55CDE4F6883CB53D14086E00E9417
:10368000EA0EBE01675C7E4F86E00E948C0FBE0191
:10369000675C7E4F80E00E948C0FC75CDE4F6881C4
:1036A000C953D1406C60C75CDE4F6883C953D140B9
:1036B00080E00E94EA0E6CE485E00E94EA0E8DE153
:1036C0000E949D0F682F64608DE10E94EA0E8CE1DC
:1036D0000E949D0F682F6F638CE10E94EA0E8DE1BE
:1036E0000E949D0F682F66608DE10E94EA0E8CE1BA
:1036F0000E949D0F682F63608CE10E94EA0E6FE3C9
:1037000081E00E94EA0E60E787E00E94EA0E0E94D4
:10371000C90E0E94C30E60E787E00E94EA0EC75CF4
:10372000DE4F1882C953D140BE01675C7E4F80E0F6
:103730000E948C0FC75CDE4F1881C953D1401C78A2
:1037400060E088E00E94440A612F636080E00E948C
:10375000EA0E61E088E00E94440A602F7F2D8AE033
:103760000E94AB0F602F7F2D80E10E94AB0F60E0C5
:1037700088E00E94440ABE01675E7E4F8BE00E9493
:10378000AB0F63E082E00E94EA0E61E088E00E94F5
:10379000440A80916900826080936900E89A81E020
:1037A0008093CC068091D106823209F47DC508F45D
:1037B0002CC582E4FE01EB55FF4FA1E1B6E001907C
:1037C0000D928A95E1F78DE59EE0909372068093C5
:1037D000710681E09D81923009F480E08093CB06F0
:1037E00088E5FE01E35BFF4FA3E7B6E001900D9291
:1037F0008A95E1F7CF5BDE4F0FB6F894DEBF0FBEC0
:10380000CDBFDF91CF911F910F91FF90EF90DF908F
:10381000CF90BF90AF909F908F907F9008958E81B2
:10382000809310068F8180930F068091CD068823A8
:1038300009F4A8C3CD5EDE4F8881C351D1408170A9
:1038400080930E0680917A00846080937A00809144
:103850007A00826080937A0080917A008E7F8093D4
:103860007A0080917A00806880937A008981823022
:1038700009F48BC3833009F48BC38130B1F4C95E82
:10388000DE4F8881C751D14098859093AA048093D8
:10389000A9048CEA96E190930D0680930C0680EDC6
:1038A00098E090930B0680930A068981833009F093
:1038B000B4C38B818130C9F41092C50481E0809338
:1038C000C4041092C304449A459A8091B9008E7F33
:1038D0008093B9008091B9008D7F8093B9008AE010
:1038E0008093B80085E48093BC002B81998181E0AE
:1038F000213019F0913009F080E081708093E40567
:103900008D81823009F49AC381E0933009F080E020
:1039100081708093E30581E0933009F480E0809327
:10392000E205C451DF4F8881CC5ED0408093E10531
:103930002093E00584E2FE01E351FF4FACEBB5E0DC
:1039400001900D928A95E1F71092BB051092BA058D
:103950000E948E0A1092F9041092F8041092C70483
:103960001092C6048F2CC45CDE4F9880CC53D1409B
:10397000CF2CD92C00E015E059E1A52EBB24B3943F
:10398000AC0EBD1EB3E0AB0EB11CF501212F1192A0
:103990002A95E9F7C75EDE4F0883C951D140D601A9
:1039A00090967C90B091CD06C05CDE4FB883C05439
:1039B000D140EFEF7E16C1F1D6019196EC90053023
:1039C00051F4C05CDE4FB881C054D140BB2319F024
:1039D0008B81833081F561E0872D0E94960AC55E58
:1039E000DE4FE882CB51D14082EF870DC65EDE4FBD
:1039F0008883CA51D140A091F804B091F904CD0157
:103A000001969093F9048093F80443E0AA0FBB1F3A
:103A10004A95E1F7A853BB4F88E0FE01E75EFE4FF1
:103A200001900D928A95E1F70F5FE2E0CE0ED11C76
:103A3000063009F0AACFC451DF4F8881CC5ED04058
:103A40008F3F19F060E00E94960AC12CD12C3CE017
:103A5000732EA090BA05B090BB057A9CC0017B9CE8
:103A6000900D112486509B4F2981223009F003C309
:103A7000D40150961C911F3F09F480C095012F5F1F
:103A80003F4F3093BB052093BA05BCE0CB16D10461
:103A900008F0D6C2A601485051094230510508F439
:103AA000CFC2CF5BDE4F1882C154D14000E001701D
:103AB000E12C2C2D412F6F2DC45CDE4F7881CC532F
:103AC000D1400E94030A8091CE06882309F4C4C223
:103AD000CF5BDE4FF881C154D140FF2309F4BCC253
:103AE0001E3008F4B9C28FA528E0829FC0011124BE
:103AF000C55EDE4F188219821A82CB51D140C75E53
:103B0000DE4F1883C951D14021E0C05EDE4F2883CB
:103B1000C052D140C25EDE4F99838883CE51D140DE
:103B200061E0812F0E94960A8091F8049091F90437
:103B30002CE02A9DF0012B9DF00D1124E650FB4F47
:103B400083871E50C65EDE4F1883CA51D1409C0148
:103B50002F5F3F4F3093F9042093F80423E0880F40
:103B6000991F2A95E1F7DC01A853BB4F88E0FE01BD
:103B7000E75EFE4F01900D928A95E1F7C05CDE4F43
:103B80008881C054D140882381F07A9CF0017B9CCD
:103B9000F00D1124E650FB4F8581823030F4CE5E6B
:103BA000DE4F8881C251D14082879FEFC91AD90A5E
:103BB000AFEF8A1A9A0AB0E1CB16D10409F049CFC7
:103BC000C05CDE4FE881C054D140EE2309F4CEC181
:103BD0000B81013009F000C388A980930506789411
:103BE00080E8C75EDE4F8883C951D140A0910701AC
:103BF000B0910801E0910901F0910A019E01275E50
:103C00003E4F41E055966C9180810E9412148823AA
:103C100009F46BC0FFEF24E34CE0F150204040403A
:103C2000E1F700C00000C75EDE4F1882C951D140E5
:103C3000A0910701B0910801E0910901F0910A01FA
:103C40009E01275E3E4F41E055966C9180810E9417
:103C50001214882309F449C0109215018FEF809344
:103C60000D0180930B0180930C0180930E012FEFC7
:103C70003FEF309311012093100180931201809344
:103C8000140100930F01009322011092230110925E
:103C9000170110921601E8E1F1E08AE0DF011D92C0
:103CA0008A95E9F7109224011092250110922701BC
:103CB000109226010E94D615811117C00E94041689
:103CC000811113C08AE290E00E944D1581110DC050
:103CD00082E390E05CDA811108C029DA811105C025
:103CE0000E943116811101C07ED988E77CD90E94DB
:103CF000D6150E94041688E71ADA8091250100E0A3
:103D000010E096EFE92E9BE0F92E882309F4C7C155
:103D10008CE0E5E0F2E0DE01A75EBE4F01900D927F
:103D20008A95E1F7C75DDE4F1882C952D14085E020
:103D3000C65DDE4F8883CA52D140AE01475D5E4FFB
:103D400062E070E086E192E00E948D15811111C061
:103D5000AE01475E5E4F6CE070E081EC9AE00E943D
:103D60008D15811106C08EE190E09093EE05809351
:103D7000ED0580912401813031F180912501882366
:103D800011F180E0A0D90E94311680912601909116
:103D90002701FDD9C75EDE4F1882C951D140E0919D
:103DA0000901F0910A019E01275E3E4F41E063E266
:103DB00080810E941214882331F081E080932401D5
:103DC00082D90E944C1482E0C75EDE4F8883C951BD
:103DD000D1408AECC65EDE4F8883CA51D14083EE63
:103DE000C55EDE4F8883CB51D14019E0C45EDE4F03
:103DF0001883CC51D140AE01475E5E4F64E070E065
:103E000088E690E00E948D1583EAC75EDE4F8883C6
:103E1000C951D140C65EDE4F8883CA51D140C55ECC
:103E2000DE4F8883CB51D140C45EDE4F8883CC51B6
:103E3000D140C35EDE4F8883CD51D140C25EDE4F9C
:103E40008883CE51D140C15EDE4F8883CF51D140AF
:103E5000C05EDE4F8883C052D140CF5DDE4F888385
:103E6000C152D140CE5DDE4F8883C252D140AE01F7
:103E7000475E5E4F6AE070E087EA9AE00E948D1527
:103E800088EDC75EDE4F8883C951D140AE01475EE1
:103E90005E4F61E070E086EB9AE00E948D15E2E1F2
:103EA000F2E0DE01A75DBE4F01900D921A95E1F799
:103EB000AE01475D5E4F69E070E088EB94E00E94E0
:103EC0008D1544E050E06BE870E0CE01875D9E4FB9
:103ED0000E94212FAE01475D5E4F64E070E088E9EB
:103EE0009AE00E948D150E944C1480E2C75DDE4F5F
:103EF0008883C952D14088E2C65DDE4F8883CA52AA
:103F0000D14080E3C55DDE4F8883CB52D14088E34A
:103F1000C45DDE4F8883CC52D140AE01475D5E4F19
:103F200064E070E08EE99AE00E948D150E944C14C6
:103F300088E190E09093EC058093EB050E944C148F
:103F400080E18093EF0586E592E2909304068093EA
:103F5000030686E0FE01E55FFE4FA1EFB5E00190AC
:103F60000D928A95E1F78CA58093F0058EA51092AD
:103F70000806809309068DA590E09093070680932C
:103F8000060610CC80E090E05ACC8BEE98E089CC0D
:103F900001E021E041E060E271EA87E090E00E9408
:103FA000D30AEE24E39400E020E04AE06F2DC45CE5
:103FB000DE4F7881CC53D14087EB94E00E94030A16
:103FC000E12C01E020E042E06F2DC45CDE4F7881FF
:103FD000CC53D1408BEA94E00E94030A60E08AE06F
:103FE0000E94960A61E082E00E94960AF89480910D
:103FF0006900836080936900E89A78940E94751143
:104000008BE299E090930B0680930A068BE493E190
:1040100090930D0680930C0648CC8D81823049F434
:1040200000E021E041E060E079E08DE390E00E9473
:10403000D30A8981813009F03CCC3ECC81E068CC48
:1040400001E02D81213009F000E0E1E0CF5BDE4F9F
:10405000E883C154D1402BCD7A9CF0017B9CF00DBC
:104060001124E650FB4F638142E0461B642F812FF1
:104070000E94960A83CD95012F5F3F4F3093BB0579
:104080002093BA05E12C00E02C2D40E06F2DC45C9C
:10409000DE4F7881CC53D1400E94030A6FCDF801E6
:1040A000EE5FFD4FDE01A75EBE4FCD018C0D9D1D65
:1040B00024912D9331968A179B07D1F7AE01475E65
:1040C0005E4FB601C8010E948D15811121CE8091ED
:1040D0000D01882309F41CCE902F812FC75CDE4F81
:1040E00099838883C953D140E0910901F0910A0175
:1040F00020853185C601800F911D2817390708F4E6
:1041000007CEA0910701B09108019E01275C3E4FA8
:1041100042E05B966C9180810E941214882309F41E
:10412000F7CDA0910701B0910801E0910901F0914C
:104130000A019E01275D3E4F4C2D58966C9180815F
:104140000E94A210882309F4E3CDA601BE01675D99
:104150007E4FCE01875E9E4F0E940B2F892B09F068
:10416000D7CD0C0D1D1D063FBBE01B0760F467019A
:10417000C01AD10AE1E1CE16D10408F490CF80E153
:10418000C82ED12C8CCF84E0C75CDE4F8883C95306
:10419000D140C65CDE4F1882CA53D140A0910701BE
:1041A000B0910801E0910901F0910A019E01275C9C
:1041B0003E4F42E05D966C9180810E9412148823EC
:1041C00009F4A6CD81E08093250188EC90E09093DE
:1041D0002701809326019CCD023009F0BACEE12C54
:1041E00000E020E04BA56F2DC45CDE4F7881CC53FE
:1041F000D14087EF95E00E94030A62E08091FB05C1
:104200000E94960A83E599E0A0CE843108F44FC05D
:104210009CEE980F9630B0F48AE1FE01F396A7E584
:10422000B6E001900D928A95E1F78EA510925506A1
:10423000809356068DA5109253068093540688EC01
:1042400090E1C3CA803240F046E050E06FEF71E089
:1042500088E391E00E94FB2E8091D1068A3149F4D7
:104260008DE080932B018CE080932C0184EF97E00C
:10427000ACCA982F9D7F4EE050E064E17EE09C3117
:1042800071F04EE050E066E07EE08B3141F08D3120
:1042900011F0803259F74EE050E068EF7DE08AE29D
:1042A00091E00E94FB2EE2CF8FE897E08ECA8FEC60
:1042B0009FE08BCACF93DF9300D000D0CDB7DEB79D
:1042C00020E030E040E057E469837A838B839C836D
:1042D00069817A818B819C810E94CA2D69837A834E
:1042E0008B839C8369817A818B819C810E94672D5D
:1042F000CB010F900F900F900F90DF91CF91089509
:104300007F928F929F92AF92BF92CF92DF92EF9265
:10431000FF920F931F93CF93DF9300D000D000D074
:104320000F92CDB7DEB78C016E837F832E813F81E4
:104330002817390771F480E090E2121613060CF486
:104340006DC080E090EA232B09F068C080E090E027
:1043500065C0990F880B982F809590956801C826A5
:10436000D926C81AD90A8E819F81990F880B982F58
:10437000809590952E813F8128273927A901481BD8
:10438000590B5A83498364EE77EF81EB9DE392DF0B
:104390008D83792E69EF7DE78CEA9EE38BDF7C01CC
:1043A0008E819F819C01990F440B550B4801012E72
:1043B000000CAA08BB08A981BA81AC15BD050CF098
:1043C00041C0D501C4016FE0880F991FAA1FBB1F10
:1043D0006A95D1F789839A83AB83BC83BC01CD01F5
:1043E0000E94AD2E49015A01C901990F880B982FDF
:1043F00080959095BC0162277327681B790B8D818E
:10440000972D0E94440FB4018E0D9F1D0E94440FF2
:10441000AE81BF811A161B060CF0905827960FB676
:10442000F894DEBF0FBECDBFDF91CF911F910F91EA
:10443000FF90EF90DF90CF90BF90AF909F908F90C4
:104440007F900895DA01C9012FE0880F991FAA1FF4
:10445000BB1F2A95D1F789839A83AB83BC83BC01A8
:10446000CD01A50194010E94AD2E49015A01C90157
:10447000990F880B982F80959095BC016825792518
:10448000681B790B8D81972D0E94440FB4018E0D0E
:104490009F1D0E94440F9C0180E090E410161106BD
:1044A00014F080E090EC821B930BB8CF7F928F9238
:1044B0009F92AF92BF92CF92DF92EF92FF920F93B3
:1044C0001F93CF93DF93CDB7DEB7EC970FB6F89479
:1044D000DEBF0FBECDBF89AF9AAF109249021092D6
:1044E0004802D090EF05ED2CF12C80912401882317
:1044F00011F180910D018823F1F0A0910701B09195
:104500000801E0910901F0910A019E012F5D3F4FE2
:1045100042E01C966C9180810E94A210882359F081
:1045200009A11AA11027012710270E151F0508F051
:1045300087C010924702C0904A02D0904B02E09090
:104540004C02F0904D0277E1F594E794D794C7942C
:104550007A95D1F7D0924B02C0924A0280904E02D7
:1045600090904F02A0905002B0905102E7E1B594B4
:10457000A79497948794EA95D1F790924D028092F0
:104580004C0240915202509153026091540270913A
:104590005502F7E17595679557954795FA95D1F7C7
:1045A00050934F0240934E020091560210915702D1
:1045B0002091580230915902A7E13595279517951A
:1045C0000795AA95D1F7109351020093500280915C
:1045D0000506009FF001019FF00DF00D11248130C0
:1045E00009F4A8C1823009F4ACC2811139C2449FD8
:1045F000C001459F900D900D11248E0F9F1F880FB5
:10460000991FE0E0F0E8E81BF90B489DD001499DB7
:10461000B00D589DB00D11240C9DC0010D9D900D45
:104620001C9D900D11249D01281B390BC901BF0150
:10463000880F991F65DE909346028093450210C251
:10464000A0910901B0910A01E0910701F0910801E0
:104650008C9111962D913C91369527952017310715
:1046600080F49E012F5D3F4F41E063890E94A210BC
:10467000882309F460CF89A184FF03C00E944C14F1
:104680005ACFA0910701B0910801E0910901F09182
:104690000A019E012F5F3F4F4D2D1D966C91808129
:1046A0000E94A210882309F446CFC801B7010E94D6
:1046B000642E615060934702E091EB05F091EC05A8
:1046C000CF0184719927892B09F432C189819A819C
:1046D000AB81BC81BC01CD010E94C92E4B015C01A4
:1046E00080924A0290924B02A0924C02B0924D02EC
:1046F0008D819E81AF81B885BC01CD010E94C92EFC
:104700006B017C01C0924E02D0924F02E0925002A7
:10471000F092510289859A85AB85BC85BC01CD019B
:104720000E94C92E8B019C010093520210935302E8
:1047300020935402309355028D859E85AF85B889AC
:10474000BC01CD010E94C92EAB01BC0140935602B1
:10475000509357026093580270935902C501BB27CA
:1047600097FDB095AB2F8BA39CA3ADA3BEA3C701B0
:10477000BB2797FDB095AB2F8FA398A7A9A7BAA782
:10478000C901BB2797FDB095AB2F8BA79CA7ADA701
:10479000BEA7CB01BB2797FDB095AB2F8FA798ABDA
:1047A000A9ABBAAB2BA13CA14DA15EA1CA01B90135
:1047B0000E94552E6BA37CA38DA39EA32FA138A589
:1047C00049A55AA5CA01B9010E94552E6FA378A721
:1047D00089A79AA7CBA0DCA0EDA0FEA0C60ED71E8D
:1047E000E81EF91E2BA53CA54DA55EA5CA01B90181
:1047F0000E94552EC60ED71EE81EF91E2FA538A9F9
:1048000049A95AA9CA01B9010E94552E6BA37CA3DC
:104810008DA39EA3C60ED71EE81EF91E9FE0F91AAF
:10482000A1E0CA16D104E104A2E0FA0638F00E9421
:104830004C1410924902109248027DCE8091480299
:10484000909149029160909349028093480280E1DF
:10485000E6FF39C0282F30E0A1E0B0E0AC0FBD1F6B
:10486000A20FB31F9C91DE01A20FB31F12964C91B1
:10487000592F5093010040930000DE01A20FB31F97
:1048800013969C91DE01A20FB31F14964C91592FE1
:104890005093030040930200DE01A20FB31F159650
:1048A0009C91159716962C91392F309305002093E3
:1048B00004008A5F209148023091490228603093B9
:1048C000490220934802E078F170EF2B09F433CECF
:1048D00090E0E1E0F0E0EC0FFD1FE80FF91F308100
:1048E000FE01E80FF91F22813093010020930000A0
:1048F000FE01E80FF91F3381FE01E80FF91F248143
:104900003093030020930200FE01E80FF91F258178
:104910008681922F90930500809304008091480235
:10492000909149028067909349028093480203CE98
:1049300080E08ECF089DC001099D900D189D900DBF
:1049400011244C9D90014D9D300D5C9D300D112426
:104950004C01821A930AB401C4010E94440F8BA334
:104960009FA3BC010E94440F8BA7792E682F792F3B
:104970000E94440F8BAF9CAF60E670EB89E39DE330
:1049800099DC6BA17FA10E94440F8FA798AB6AE2CC
:104990007EEE87E39CE38EDC8BAB9CAB6EEF7AEB19
:1049A00087ED9CE387DC6BA17FA10E94440F8DAB58
:1049B0009EAB66EA79EB88EA9CE37CDC7C0162E3EF
:1049C00077E88AEF9CE376DC6BA17FA10E94440F1D
:1049D0008FAB98AF63E87EEC86E39DE36BDC5C0114
:1049E0006AEC79E989E99DE365DC6BA17FA10E940E
:1049F000440F8C016AEA7AEA8AE29EE35BDC6C018E
:104A00006BA5772D8FA598A9ABA9BCA98A1B9B0B79
:104A10000E94440F2DA93EA92E0D3F1D6BAD7CAD0C
:104A2000820F931F0E94440F7C016BA5772D8FA9E5
:104A300098AD8A0D9B1D0E94440F8E0D9F1DC00EC8
:104A4000D11E6BA17FA18C0D9D1D0E94440FB4014E
:104A50000E94440F880E991E909246028092450251
:104A600080914502909146028A39B9E19B070CF486
:104A700087C089E999E1909346028093450280912D
:104A800045029091460245E0489F9001499F300DB4
:104A900011248091F005882319F031952195310971
:104AA00030934602209345023093E4022093E302C0
:104AB000032E000C440B550B8091F3059091F405E7
:104AC000092E000CAA0BBB0B281B390B4A0B5B0BE6
:104AD000A091F105B091F2050E94F52E6BA37CA385
:104AE0008DA39EA320E034E040E050E00E94AD2E74
:104AF000DA01C9019058A109B1098115F0E89F07B1
:104B0000FFEFAF07BF070CF042C080E090E8AFEFC7
:104B1000BFEFE9ADFAAD93878287EC960FB6F894B4
:104B2000DEBF0FBECDBFDF91CF911F910F91FF90E0
:104B3000EF90DF90CF90BF90AF909F908F907F903D
:104B40000895CC9CC001CD9C900D900D11248E0F2A
:104B50009F1F880F991FE0E0F0E8E81BF90B8C9C81
:104B6000D0018D9CB00D9C9CB00D1124049FC00100
:104B7000059F900D149F900D11248A0F9B1F57CDF8
:104B80008736964E0CF07BCF87E696EE74CF811574
:104B900020E89207A105B1050CF4BBCF8FEF9FE78A
:104BA000A0E0B0E0B6CF8F929F92AF92BF92CF922B
:104BB000DF92EF92FF920F931F93CF93DF936C01DD
:104BC000EB0188818058990BF601148285838981D5
:104BD0008058990B168287838091AA048823E1F17B
:104BE0002D81822F90E0EB80F4E0EF9E7001112484
:104BF000AC0134E0559547953A95E1F74370552758
:104C0000E42AF52A3FEFE31A31E0F30A0C81E4E0ED
:104C10000E9F8001112495958795959587958370B2
:104C20009927082B192B0F5F11408A81F4E08F9F81
:104C3000C00111242295269526952370822BB80158
:104C40008F5F91405DDBF60191878087B801C701D6
:104C500057DBF601938782878D81982F909591700D
:104C6000B92EB29490EFB922A12C869591E08927B4
:104C70008170982E9294990C990C20EC9222812CA0
:104C8000A828B928B0924102A0924002DF91CF91AA
:104C90001F910F91FF90EF90DF90CF90BF90AF905A
:104CA0009F908F9008951F920F920FB60F9211242C
:104CB0002F933F934F935F936F937F938F939F9324
:104CC000AF93BF93EF93FF936091C6008CE994E09C
:104CD0000E944307FF91EF91BF91AF919F918F91F8
:104CE0007F916F915F914F913F912F910F900FBEE8
:104CF0000F901F9018951F920F920FB60F921124CC
:104D00002F933F934F935F936F937F938F939F93D3
:104D1000AF93BF93EF93FF932FB7F8948091DC0686
:104D20009091DD062FBF892BB9F082ED96E00E94AD
:104D30005E078093C600FF91EF91BF91AF919F9165
:104D40008F917F916F915F914F913F912F910F9034
:104D50000FBE0F901F90189588E98093C100EBCF8C
:104D60001F921FB61F9211248F939F93AF93BF93EF
:104D70008091950290919602A0919702B09198022D
:104D80000196A11DB11D8093950290939602A09368
:104D90009702B0939802BF91AF919F918F911F900E
:104DA0001FBE1F9018958F9381E080937E028093A1
:104DB000A8048F9118951F920F920FB60F9211248D
:104DC0002F933F934F935F936F937F938F939F9313
:104DD000AF93BF93EF93FF938091B900887F88339F
:104DE00009F461C0B8F5803291F168F5883009F4B2
:104DF00052C0A0F4882309F472C0FF91EF91BF91D3
:104E0000AF919F918F917F916F915F914F913F9162
:104E10002F910F900FBE0F901F9018958031D9F1F0
:104E2000883159F790917C0280917B02981750F558
:104E3000E0917C0281E08E0F80937C02F0E0E55AE5
:104E4000FD4F80812AC0883269F38033B1F68093A8
:104E50005A0207C0803579F138F48034C1F18834C2
:104E600061F60E94BF0FC9CF883539F6E0917C0208
:104E700081E08E0F80937C028091BB00F0E0E55AC8
:104E8000FD4F80838091C4048111EBCF81E080933A
:104E9000C30484EA0BC080917D028093BB0085EC43
:104EA0008093BC00AACF80935A0285EC8093BC000B
:104EB0001092C504A2CFE0917C0281E08E0F809316
:104EC0007C028091BB00F0E0E55AFD4F8083909119
:104ED0007C0280917B02981710F385E8E1CF109255
:104EE0005A02BFCFCDB7DEB7E5970FB6F894DEBF55
:104EF0000FBECDBF0E9478191092C5001092C40059
:104F000086E08093C20082E08093C00088E98093AD
:104F1000C100539A5A9A40E450E06CE574E08CE981
:104F200094E00E942F0740E850E06CED73E082EDC2
:104F300096E00E942F07789418A6A12C712C86E089
:104F400095E08CAB9DAB9FB7F8948091A6049FBF72
:104F5000982E882309F475C25CE1F52EEE24E394C3
:104F60008CE994E00E945E07682FA11011C08E3773
:104F700009F48DC18D3709F48DC1873711F4E092A2
:104F800006019A949110ECCFE7E0AE12DCCF4FC14E
:104F900021E0A21609F481C132E0A3120EC1809172
:104FA000CC06882309F4BEC06E3308F069C06233B2
:104FB00009F495C0698381E08A830E94C30E0E9430
:104FC000C90E0E9465096B017C0180E00E94590BAB
:104FD0008FEF0E94FC09182F81E00E94590B10FDF1
:104FE0000EC080E00E94590B89EA0E94FC0962E031
:104FF000CE0101960E94D70E81E00E94590B81E0FC
:105000008093A80460E089E992E00E94F90E182FCD
:10501000882311F08C3001F560E387E00E94EA0EEE
:105020000E9465096F8F78A389A39AA3DC01CB0145
:105030008C199D09AE09BF09853F9140A105B105B5
:1050400020F288E08093990246E050E06BEB70E03C
:105050008AE992E0D0D617E01E8F88E78D8F61E055
:10506000CE014D960E94770761E0CE014E960E94D8
:105070007707612F89E992E00E947707A12C63CF1F
:1050800088E080939902262F2E53330BC90122E327
:10509000289FB001299F700D112408E111E0061B23
:1050A000170B0233110514F002E310E0A801552795
:1050B0006F5F7F4F8AE992E0CBD6AA24A394A00E1B
:1050C000AD8E88E7898361E0CE0101960E94770763
:1050D00061E0CE014D960E9477076A2DCBCF88E024
:1050E0008093990266EB70E08FE992E08DD680E0C4
:1050F00092E1AAE7B0E080939A0290939B02A0937A
:105100009C02B0939D020E94230B6093BD0270939A
:10511000BE028093BF029093C00210929E0248E2AA
:10512000A42ECECF88E0809399026E3308F0ABCFE7
:105130006233C1F26733B1F26C3361F48CE0E9EDB4
:10514000F2E0AAE9B2E001900D928A95E1F73DE024
:10515000A32EB6CF6533C1F48091CF06813059F4C8
:10516000809102019091030190939B0280939A0297
:1051700023E0A22EA5CF8330D9F78091010180933F
:105180009A0210929B02F4CF663339F480910501A4
:1051900080939A020E947C0B93CF48E050E06EEA25
:1051A00070E08AE992E027D68091D1068F3110F421
:1051B00010929D0299E0A92E83CF33E0A31211C073
:1051C0008D3361F0893309F06CC084E893E09DA3CE
:1051D0008CA37A946BA384E0A82ED3CE91E098A7F9
:1051E000F8CFA4E0AA120FC0F89EF0011124FFA38B
:1051F000EEA32CA13DA12E0F3F1F3DA32CA38DA7F5
:10520000B5E0AB2EBECE35E0A312BBCE7A9488A516
:10521000882329F10EA11FA10F5F1F4F8EA19FA10F
:105220008F5F9F4F34D61FA30EA37110AACE80911B
:10523000CC068E010F5F1F4FDD24D394811140C037
:105240002BA1203309F08CC03FEF80E792E0315072
:1052500080409040E1F700C000000E94800FACA1A8
:10526000BDA1109729F0FD016193FDA3ECA3DDCF53
:10527000BBA1BB33D1F68091E1058F3FB1F291E044
:10528000611101C090E0692F0E94440ACECFAA2488
:10529000A39477CE02E0A02E74CE782E13E0A12E38
:1052A00070CE8BA31DA21CA2ABCFD092A80460E04D
:1052B0008CA19DA10E94F90E60E387E00E94EA0E96
:1052C000B80187E10E948C0F8981780184FFEDCFBE
:1052D00060E387E00E94EA0E80E00E94590B89EAB1
:1052E0000E94FC098BA10E94FC0980E00E94FC093D
:1052F0008BA18B7F893391F48DA50E94FC09F8A5C1
:10530000FF23E1F04CE150E06EA17FA16F5F7F4F82
:10531000C8019ED56CE1C8010E94D70E81E00E94B1
:10532000590B81E08093A80411E0B70187E10E9446
:105330008C0F898184FF08C018A682CF6CE18EA1F2
:105340009FA18C579C4FE8CF1093A80460E08CA1DC
:105350009DA10E94F90E60E387E00E94EA0EE5CF6E
:10536000ABA1A43309F442C098F5A133C1F1A33332
:1053700009F084CE8091CC06811180CE809101030A
:1053800081117CCE8FEF809305010E948E0A00E090
:1053900010E0802F0E945C0B811111C062E0802F11
:1053A0000E94960AE7ECF0E03197F1F700C00000A8
:1053B000802F0E94640AF801E351FD4F80830F5F44
:1053C0001F4F0431110529F781E08093010356CE68
:1053D000BBA1BA3309F052CE0E94ED134FCE87E73E
:1053E00097E7909301088093000837CF8091CC060F
:1053F000811144CE80910E03811140CE8FEF8093B6
:1054000005010E948E0A02E013E0AEE0FA2E63E08E
:105410008F2D0E94960AE7ECF0E03197F1F700C07B
:10542000000082EF8F0D0E947D0AD8018D939D931D
:105430008D01F394B4E1FB12EACF81E080930E0377
:105440001DCE0E9465096F8F78A389A39AA320912E
:10545000CC068091800390918103A0918203B0914A
:1054600083034F8D58A169A17AA1481B590B6A0B80
:105470007B0B8091D00690E0A0E0B0E08417950708
:10548000A607B70708F44AC0222309F45CCD6CE0F4
:1054900084E793E00E94F90E4CE050E064E773E08B
:1054A00088E693E0B8D4892B09F44DCD80910601AC
:1054B000882309F448CDE0917106F091720644E723
:1054C00053E0BE01635E7F4F8FE093E009950E9439
:1054D00065096093800370938103809382039093A6
:1054E00083031092060188E7898361E0CE0101966B
:1054F0000E94770761E0CE014D960E9477076D8D7F
:105500008FE093E00E9477078CE0E4E7F3E0A8E601
:10551000B3E001900D928A95E1F715CD2111B7CF37
:10552000E0910C06F0910D06309719F084E793E0B6
:10553000099580910E03882309F4C6C002E013E0A8
:10554000F12C8F2D0E947D0AD8012D913D918D0166
:10555000821B930B97FF03C09195819591094F97FB
:105560000CF4ADC08EE08F0D8093050110920E03F8
:105570009CE0B92EC92CD12C8091BA059091BB0525
:10558000C816D9060CF4F7C180911006882309F4D7
:1055900045C08091740390917503837F9093750348
:1055A00080937403609178037091790320910806C9
:1055B0003091090644275527421B530B6417750782
:1055C0002CF4846090937503809374032617370737
:1055D0004CF48091740390917503886090937503E7
:1055E0008093740380917A0390917B0384179507CD
:1055F0004CF44091740350917503426050937503CD
:1056000040937403281739074CF4809174039091E8
:1056100075038160909375038093740380910F06E6
:10562000882389F080917403909175039C01207305
:1056300033272033310509F019C28F7C9460909391
:105640007503809374038091CD06882349F0E0911F
:105650000306F0910406309719F084E793E009956A
:105660008091CB06811118CF0E94FC0980E00E9436
:10567000FC0980E00E94FC0980E00E94FC0983E7AD
:10568000E82E86E0F82E04E813E0C12CD12CD701D7
:105690006C911196BC91BF8FF701F281F9A7D701E8
:1056A0001396BC91BBA7F8018081B1809280838062
:1056B0006111DEC18111EDC100E010E004C2F3947C
:1056C000B6E0FB123ECF54CF809101038823E9F06E
:1056D00000E010E0802F0E945C0B811110C0802F31
:1056E0000E94640AF801E351FD4F9081891739F057
:1056F0000E947C0B009305011092010339CF0F5FCC
:105700001F4F0431110531F733CF6091F8047091C8
:10571000F9046115710509F451C0809104018111EA
:105720002FC080917A0086FD49C0809178009091C9
:1057300079002091C6043091C704A901F3E0440F19
:10574000551FFA95E1F7FA01E853FB4FA781A11124
:1057500004C0E281E11143C09250E6E0880F991F36
:10576000EA95E1F748535B4FFA01948383832F5FF7
:105770003F4F62177307D1F13093C7042093C604DB
:1057800010920401E091C604F091C70463E0EE0FAB
:10579000FF1F6A95E1F7E853FB4F88E0DE011196A1
:1057A00001900D928A95E1F78A81877080648093D9
:1057B0007C0080917A00806480937A008091F80464
:1057C0009091F9049BAB8AABB090CD0600E026E047
:1057D000822EC12C34E0D32EE12CF12C25C0E0E048
:1057E000F2E0DF01A81BB90BCD01B7CF1092C704BF
:1057F0001092C604C5CF53E0EE0FFF1F5A95E1F794
:10580000E853FB4F88E0DE01119601900D928A95D6
:10581000E1F78885882391F08C819D81E981F0E012
:10582000E352FD4F80830F5FE02F002E000CFF0B33
:10583000AAA9BBA9EA17FB07F4F29ACE053031F406
:10584000BB2021F08091E005823069F31981212F7E
:1058500030E038A32F8F8C819D81220F331F3CA70E
:105860002BA7F901E752FD4F918380838F8D98A17B
:10587000889EF001899EF00D1124E454FA4FA48112
:10588000B581BAA7A9A72C813D81032E000C440B3A
:10589000550B82819381092E000CAA0BBB0B281B90
:1058A000390B4A0B5B0BA081B1819FD26EA77FA7FA
:1058B00088AB99ABA701960150D2BA01A901505803
:1058C000610971094115B0E85B07BFEF6B077B0702
:1058D00004F540E050E86FEF7FEF29A53AA5C90134
:1058E000330FAA0BBB0B1230F8F0BB2041F1143080
:1058F00031F5481759076A077B0724F440E050E860
:105900006FEF7FEFEBA5FCA5EC58FC4F5183408374
:105910008ACF4115E0E85E0761057105F4F24FEFAB
:105920005FE760E070E0D9CF481759076A077B0747
:10593000ECF0EF8DF8A1EC58FC4F528374CF481770
:1059400059076A077B07F4F689A59AA59195819571
:105950009109092E000CAA0BBB0B84179507A6070B
:10596000B70784F640E050E0BA01CCCF40E050E801
:105970006FEF7FEFDECFBC9CC001BD9C900D11246A
:10598000FC01E650FB4F7F0180910E06882319F041
:105990000CA91DA9911087010E9465096F8F78A33A
:1059A00089A39AA3F80186819781A085B1854F8D3F
:1059B00058A169A17AA1481B590B6A0B7B0B828500
:1059C00090E0A0E0B0E084179507A607B70708F0BD
:1059D0004BC0E0910A06F0910B06C7010995E82E2D
:1059E000F12CBC9CC001BD9C900D11249C01265043
:1059F0003B4F6901D90115968C91E1E0F0E002C0BE
:105A0000EE0FFF1F8A95E2F7CF01209174033091CA
:105A1000750382239323E816F90631F10E94650984
:105A2000D80116966D937D938D939C931997F601EB
:105A3000458121E030E0042E02C0220F331F0A947A
:105A4000E2F720953095809174039091750382233D
:105A5000932302C0EE0CFF1C4A95E2F78E299F2982
:105A60009093750380937403939484CD9B7FE7CDCB
:105A700081100FC0B1100DC091100BC0615084E7B0
:105A800093E00E941B0EB82E882319F08BA499A4D2
:105A9000BF8C8FEF0E94FC09882D0E94FC09892D84
:105AA0000E94FC098B2D0E94FC09FFEFCF1ADF0A30
:105AB00024E0E20EF11C0C5F1F4FE9CD8FEF0E9436
:105AC000FC09005F1F4F0C151D05C4F3E5CC41D048
:105AD000A8F19E57A8F1985160F039F1983070F50F
