:10000000A2C70000BDC70000BBC70000B9C7000001
:100010000C945F29B5C70000B3C700000C94AD274E
:10002000AFC70000ADC700000C94F727A9C70000B8
:10003000A7C70000A5C70000A3C70000A1C7000014
:100040009FC700009DC700009BC7000099C7000024
:1000500097C7000095C7000093C700000C94A5281F
:100060008FC700008DC700008BC7000089C7000044
:1000700087C7000085C7000083C7000081C7000054
:100080007FC700007DC700007BC7000079C7000064
:100090000C94C82875C7000073C7000071C7000022
:1000A0006FC700006DC700006BC7000000000000B4
:1000B000240027002A002D0030000000000023004B
:1000C000260029002C002F00000000002500280039
:1000D0002B002E0031000408020110408040102047
:1000E00040804080080204018040201002011080FE
:1000F000102040402004040404040304050202020A
:1001000002040302020202060606060606040402B0
:100110000202040421260107000000006C656F6ED6
:100120006172646F004552524F520009023E000254
:100130000100C03209040000010202010005240090
:1001400010010424020605240600010705820308A5
:1001500000FF09040100020A000000070504021064
:1001600000050705830210000512011001020000BE
:10017000404F1B049201000102DC012A035300706E
:1001800000610072006B00460075006E00200045A3
:10019000006C0065006300740072006F006E0069FF
:1001A00000630073000000240341007200640075C6
:1001B0000069006E006F002000500072006F002088
:1001C000004D006900630072006F00000004030925
:1001D00004020F00000001010115D4A2001100006B
:1001E00000FFFFFFFFFFFFFFFFFFFFFFFFFFFFFF1E
:1001F000FFFF00FF00FF00FF00FF00FF0040404046
:1002000000B80B04160D0E0F33280B504F525151EE
:10021000FFFFFFFFFFFF00FF00FF00FF000D00805A
:10022000000EFF000010FFFF000F0000FF09FF4558
:1002300000000000000000000000000000000000BE
:1002400000000000000000000000000000000000AE
:10025000000000000000000000000000000000009E
:10026000000000000000000000000000000000008E
:10027000000000000000000000000000000000007E
:10028000000000000000000000000000000000006E
:10029000000000000000000000000000000000005E
:1002A000000000000000000000000000000000004E
:1002B000000000000000000000000000FF0000003F
:1002C00080000000000080000000000080FF7F0030
:1002D000000080FF7F00000080FF7F00000080FFA3
:1002E0007F05140000000000000000000000000076
:1002F00000000200000101020200000000000000F6
:1003000003000202020101000201020100030002D7
:1003100001000000020202010107060504010008B5
:100320000A0B0C0D09000070000000002400000002
:10033000020003000000650054FFEF0000FA800097
:100340000B12820001030C30C30E8C8CE914D540D3
:100350000213710F8E3883F8833000F883258EF8EE
:10036000833000F883FFFFFFFF0FFEA9D6240004AF
:10037000001A8279A10000003CFFFF00000010007D
:100380000038836FA2003E03304000000002CAE341
:10039000093E800000200000000000000040000036
:1003A0000060000000000C0000000C186E00000649
:1003B000920A16C0DFFFFF0256FD8CD377FFE1C41F
:1003C00096E0C5BEAA00000000FFFF0B2B00001640
:1003D00057000003594000000000001DFA00026CA5
:1003E0001D000000003FFFDFEB003EB3B6000D2212
:1003F0007800002F3C00000000001942B5000039D1
:10040000A20000B365D90E9FC91DCF4C3430000047
:1004100000500000003BB67AE80064000000C8000D
:100420000000000000100000001000FA92100022EE
:100430005E000D229F0001000000320000FF460018
:100440000063D400001000000004D6000004CC00BB
:100450000004CC000000001072000000400000000A
:100460000000000000000600020005000700000078
:10047000000064000000000000000000050005000E
:1004800064002000000000000000000000000040A8
:10049000000000030000000032F8980000FF650033
:1004A00000830F0000FF9BFC000000000000000024
:1004B000000000000000000000000000000000003C
:1004C000000000000000000000000000000000002C
:1004D000000000100040000000000000060000B214
:1004E0006A000200000001FB830068000000D9FCE4
:1004F000007CF1FF83000000000065000000640341
:10050000E800640028000000250000000016A0009C
:10051000000000100000001000002F00000000018B
:10052000F40000100000280000FFFF4581FFFFFAE3
:10053000720000000000000000004400050005BA41
:10054000C6004778A200000001000000000000067D
:1005500000000000140000254D002F706D00000504
:10056000AE000C02D00000000000000000000000FF
:100570000000000000001B00000000000000000060
:1005800000000000000064000000080000000000FF
:10059000000000000000000000000000000000005B
:1005A000000000000000000000000000000000004B
:1005B000000000000000000000000000000000003B
:1005C000000000000000000000000000000000002B
:1005D000000000000000000000000000000000001B
:1005E0000000000000001B000000000000000000F0
:1005F00000000E000E00000AC7000400000000000A
:1006000032FFFFFF9C00000B2B00000002000000E7
:100610000100000064FFE500000000000000000091
:1006200000000000000000000100000000000100C8
:100630000000000000000180000001800000018037
:1006400000002426D3000000000000000000060087
:10065000100096003C0000000000000000000000B8
:1006600000000000000C0A4E68CDCF7709501667D5
:1006700059C619CE820000000000000000000000F2
:100680000000000000000000000000000017D784F8
:1006900000030000000000000000000000C7938F6E
:1006A0009D1E1B1C1900000000000000000000003F
:1006B000000000000000000000000000000203181D
:1006C000850000400000000003000000030000005F
:1006D00000000000004000000000000000000000DA
:1006E000000000000000000000000000000000000A
:1006F00000000000000000000000000000000000FA
:10070000000000000000000000677DDF7E72902E78
:10071000554CF6E6880000000000000000000000D4
:100720000000000000D8DCB4B8B0D8B9ABF3F8FAD8
:10073000B3B7BB8E9EAEF132F51BF1B4B8B0809763
:10074000F1A9DFDFDFAADFDFDFF2AAC5CDC7A90C81
:10075000C92C97F1A989264666B28999A92D557D9C
:10076000B0B08AA896365676F1BAA3B4B280C0B8B3
:10077000A89711B28398BAA3F0240844106418B261
:10078000B9B49883F1A329557DBAB5B1A38393F089
:10079000002850F5B2B6AA839328547CF1B9A382FD
:1007A0009361BAA2DADEDFDB819AB9AEF5606870D8
:1007B000F1DABAA2DFD9BAA2FAB9A38292DB31BACE
:1007C000A2D9BAA2F8DF85A4D0C1BBAD83C2C5C788
:1007D000B8A2DFDFDFBAA0DFDFDFD8D8F1B8AAB375
:1007E0008DB4980D355DB2B6BAAF8C96198F9FA7B0
:1007F0000E161EB49AB8AA872C547CBAA4B08AB636
:1008000091325676B28494A4C808CDD8B8B4B0F169
:100810009982A82D557D98A80E161EA22C547C9264
:10082000A4F02C5078F184A898C4CDFCD80DDBA896
:10083000FC2DF3D9BAA6F8DABAA6DED8BAB2B686D3
:1008400096A6D0F3C841DAA6C8F8D8B0B4B882A842
:1008500092F52C548898F135D9F418D8F1A2D0F833
:10086000F9A884D9C7DFF8F883C5DADF69DF83C167
:10087000D8F40114F1A8824EA884F311D182F5D9DD
:1008800092289788F109F41C1CD884A8F3C0F9D1E8
:10089000D99782F129F40DD8F3F9F9D1D982F4C2AC
:1008A00003D8DEDF1AD8F1A2FAF9A88498D9C7DFF5
:1008B000F8F8F883C7DADF69DFF883C3D8F40114E6
:1008C000F198A8822EA884F311D182F5D99250977D
:1008D00088F109F41CD884A8F3C0F8F9D1D997821B
:1008E000F149F40DD8F3F9F9D1D982F4C403D8DE73
:1008F000DFD8F1AD8898CCA809F9D98292A8F57C07
:10090000F1883ACF944A6E98DB6931DAADF2DEF9BC
:10091000D88795A8F221D1DAA5F9F417D9F1AE8ECE
:10092000D0C0C3AE82C684C3A88595C8A588F2C0CE
:10093000F1F4010EF18E9EA8C63E56F554F1887270
:10094000F40115F19845856EF58E9E0488F1429864
:100950005A8E9E068869F4011CF1981E1108D0F584
:1009600004F11E970202983625DBF9D985A5F3C15B
:10097000DA85A5F3DFD88595A8F309DAA5FAD88238
:1009800092A8F578F1881A849F26889821DAF41DB8
:10099000F3D8879F39D1AFD9DFDFFBF9F40CF3D857
:1009A000FAD0F8DAF9F9D0DFD9F9D8F40BD8F3870F
:1009B0009F39D1AFD9DFDFF41DF3D8FAFCA869F96C
:1009C000F9AFD0DADEFAD9F88F9FA8F1CCF398DB33
:1009D00045D9AFDFD0F8D8F18F9FA8CAF38809DADC
:1009E000AF8FCBF8D8F2AD978D0CD9A5DFF9BAA6A9
:1009F000F3FAF412F2D8950DD1D9BAA6F3FADAA522
:100A0000F2C1BAA6F3DFD8F1BAB2B68696A6D0CABA
:100A1000F349DAA6CBF8D8B0B4B8D8AD84F2C0DFC9
:100A2000F18FCBC3A8B2B68696C8C1CBC3F3B0B41E
:100A30008898A821DB718D9D71859521D9ADF2FA39
:100A4000D88597A828D9F408D8F28D29DAF405D9E1
:100A5000F285A4C2F2D8A88D9401D1D9F411F2D8AC
:100A60008721D8F40AD8F28498A8C801D1D9F41102
:100A7000D8F3A4C8BBAFD0F2DEF8F8F8F8F8F8F86D
:100A8000F8D8F1B8F6B5B9B08A95A3DE3CA3D9F889
:100A9000D85CA3D9F8D87CA3D9F8D8F8F9D1A5D9CE
:100AA000DFDAFAD8B18530F7D9DED8F830ADDADE42
:100AB000D8F2B48C99A32D557DA083DFDFDFB591EB
:100AC000A0F629D9FBD8A0FC29D9FAD8A0D051D9B1
:100AD000F8D8FC51D9F9D879D9FBD8A0D0FC79D96C
:100AE000FAD8A1F9F9F9F9F9A0DADFDFDFD8A1F82E
:100AF000F8F8F8F8ACDEF8ADDE8393AC2C547CF15A
:100B0000A8DFDFDFF69D2CDAA0DFD9FADB2DF8D8DD
:100B1000A850DAA0D0DED9D0F8F8F8DB55F8D8A87C
:100B200078DAA0D0DFD9D0FAF8F8F8F8DB7DF8D879
:100B30009CA88CF530DB38D9D0DEDFA0D0DEDFD842
:100B4000A848DB58D9DFD0DEA0DFD0DED8A868DB2C
:100B500070D9DFDFA0DFDFD8F1A888902C547C9813
:100B6000A8D05C38D1DAF2AE8CDFF9D8B087A8C152
:100B7000C1B188A8C6F9F9DA36D8A8F9DA36D8A802
:100B8000F9DA36D8A8F9DA36D8A8F9DA36D8F78DEE
:100B90009DADF818DAF2AEDFD8F7ADFA30D9A4DEA1
:100BA000F9D8F2AEDEFAF983A7D9C3C5C7F1889B9D
:100BB000A77AADF7DEDFA4F8849408A797F300AE18
:100BC000F29819A488C6A39488F632DFF28393DBE7
:100BD00009D9F2AADFD8D8AEF8F9D1DAF3A4DEA7A2
:100BE000F1889B7AD8F38494AE19F9DAAAF1DFD8A8
:100BF000A881C0C3C5C7A39283F628ADDED9F8D8B3
:100C0000A350ADD9F8D8A378ADD9F8D8F8F9D1A1C7
:100C1000DADEC3C5C7D8A18194F818F2B089ACC395
:100C2000C5C7F1D8B8B4B09786A8319B069907AB71
:100C30009728889BF00C201440B0B4B8F0A88A9A8A
:100C4000285078B79BA82951792470594469386491
:100C50004831F1BBAB88002C547CF0B38BB8A804AE
:100C6000285078F1B088B49726A85998BBABB38BBD
:100C700002264666B0B8F08A9CA82951798B295182
:100C8000798A2470598B2058718A4469388B39408D
:100C9000688A6448318B30496088F1AC002C547C00
:100CA000F08CA804285078F1889726A85998AC8C25
:100CB00002264666F0899CA8295179247059446916
:100CC00038644831A98809205970AB11384069A8A7
:100CD000193148608CA83C415C207C00F187981950
:100CE00086A86E767EA999882D557DD8B1B5B9A311
:100CF000DFDFDFAED0DFAAD0DEF2ABF8F9D9B08704
:100D0000C4AAF1DFDFBBAFDFDFB9D8B1F1A3978EA3
:100D100060DFB084F2C8F8F9D9DED89385F14AB122
:100D200083A308B5839A0810B79F10D8F1B0BAAE64
:100D3000B08AC2B2B68E9EF1FBD9F41DD8F9D90C97
:100D4000F1D8F8F8AD61D9AEFBD8F40CF1D8F8F8C9
:100D5000AD19D9AEFBDFD8F416F1D8F8AD8D61D955
:100D6000F4F4ACF59C9C8DDF2BBAB6AEFAF8F40B1C
:100D7000D8F1AED0F8AD51DAAEFAF8F1D8B9B1B6D3
:100D8000A3839C08B9B1839AB5AAC0FD3083B79FED
:100D900010B58B93F20202D1ABDADED8F1B080BA93
:100DA000ABC0C3B284C1C3D8B1B9F38BA391B609A8
:100DB000B4D9ABDEB0879CB9A3DDF1B38B8B8B8B41
:100DC0008BB087A3A3A3A3B28BB69BF2A3A3A3A3C9
:100DD000A3A3A3A3A3A3F1B087B59AA3F39BA3A353
:100DE000DCBAACDFB9A3A3A3A3A3A3A3A3A3A3A328
:100DF000A3A3A3A3A3D8D8D8BBB3B7F1AAF9DAFFAA
:100E0000D9809AAA28B48098A720B79787A866881F
:100E1000F07951F1902C870CA781976293F0717152
:100E20006085940129517990A5F1284C6C870C9527
:100E3000188578A38390284C6C886CD8F3A2820024
:100E4000F210A8921980A2F2D926D8F188A84DD91B
:100E500048D896A83980D93CD89580A839A68698D4
:100E6000D92CDA87A72CD8A8899519A980D938D880
:100E7000A88939A980DA3CD8A82EA83990D90CD8ED
:100E8000A8953198D90CD8A809D9FFD801DAFFD88C
:100E90009539A9DA26FFD890A80D8999A8108098CD
:100EA00021DA2ED88999A83180DA2ED8A8869631F1
:100EB00080DA2ED8A8873180DA2ED8A88292F34122
:100EC00080F1D92ED8A882F31980F1D92ED882AC1E
:100ED000F3C0A28022F1A62EA72EA92298A829DA73
:100EE000ACDEFFD8A2F22AF1A92E8292A8F23180BC
:100EF000A696F1D900AC8C9C0C30ACDED0DEFFD8CD
:100F00008C9CACD010ACDE8092A2F24C82A8F1CACC
:100F1000F235F19688A6D900D8F1FF0E0C0D0F0816
:100F2000FFFF09050406070A0B0F0C0D0E08FFFF53
:100F300009050406070A0B0F0C0D0E0908FFFF0533
:100F40000406070A0B0011241FBECFEFDAE0DEBF54
:100F5000CDBF12E0A0E0B1E0E8EEF7E602C00590F8
:100F60000D92A633B107D9F726E0A6E3B2E001C09F
:100F70001D92A332B207E1F70E9465290C94F23367
:100F80003FC8CF93DF93FC01DA0186E0EB01888351
:100F900085E0808315962C911597822F922F990FBB
:100FA000990B97FD079653E0959587955A95E1F72C
:100FB000828317962C911797822F922F990F990B56
:100FC00091958195910997FD079643E095958795B1
:100FD0004A95E1F783831B962C911B97822F922FC2
:100FE000990F990B97FD079633E0959587953A955C
:100FF000E1F7848319962C911997822F922F990FDC
:10100000990B97FD079623E0959587952A95E1F72B
:10101000858311969C9111979295917081818E7F15
:10102000982B918311968C911197829582709D7F58
:10103000892B818311969C9196959695969598709B
:10104000877F892B8183DF91CF9108950F931F9321
:10105000CF93DF93FC01DA018CE1EB01888384E01C
:101060008083C4E4D1E040E050E061E070E0242FF0
:1010700009910F3F49F1CB0102C0880F991F0A95D2
:10108000E2F78C018D919C9111970823192381E03F
:1010900090E0012B11F480E090E0022E02C0880F56
:1010A000991F0A94E2F78B0102C0000F111F2A95C5
:1010B000E2F7980120953095018112812023312398
:1010C000822B932B928381834F5F5F4F4E3051056C
:1010D00071F6CC91CF7088E0CB3020F4D0E0C25FC5
:1010E000DD4F888183831A964D915C911B97809187
:1010F00022068F31A9F419969C91199795959054D1
:1011000096831A962D913C911B97358B248B9DE7E6
:10111000978390E894839583843209F084C06EC0ED
:10112000853249F3883239F3813211F08632E1F4A5
:1011300019969C9119979058968321E030E04F3F83
:101140005F4711F020E030E055E0220F331F5A9541
:10115000E1F7418152814F7D242B352B328321834E
:1011600012969C9112979783833211F08E3189F6F3
:1011700021E030E012969C911297933310F420E016
:1011800030E044E0220F331F4A95E1F7418152815C
:101190004F7E242B352B3283218341E050E0139680
:1011A0009C911397933310F440E050E095E0440F86
:1011B000551F9A95E1F72F7D422B532B5283418384
:1011C00012969C911297948713969C9113979587EA
:1011D00015969C9115979058948317962C91179774
:1011E0002058258319969C911997905896831B96A1
:1011F0009C911B97905897838432D1F415968C91CB
:1012000015978058868317968C91179780588783F7
:1012100014968D919C911597958B848B16968D9134
:101220009C91978B868BDF91CF911F910F910895A1
:101230008E31C9F72095258390959783F4CFDC01F3
:101240001596EC91F0E0EA56FE4F80818F3F81F0D9
:1012500021E030E002C0220F331F8A95E2F780912F
:101260005A0290915B022823392381E0232B09F451
:1012700080E00895CF93DF93CDB7DEB728970FB600
:10128000F894DEBF0FBECDBFDC011B96EC911B971F
:10129000EF3F91F41196ED91FC91129780819C9112
:1012A000892391E0811101C090E081E013962C9197
:1012B0009217B9F080E015C088E0E89FF001112492
:1012C000EB52FC4F88E0DE01119601900D928A9559
:1012D000E1F74C815D8181E02E813F812417350744
:1012E00048F728960FB6F894DEBF0FBECDBFDF914A
:1012F000CF910895FC01809102018830E9F0893096
:10130000F1F086EB91E0E581E80FF92FF11D808186
:101310008F3F81F021E030E002C0220F331F8A9519
:10132000E2F780915C0290915D022823392381E0ED
:10133000232B09F480E0089586EC91E0E4CF86EA5F
:1013400091E0E1CFCF93DF93EC0182E794E092DF6D
:10135000882339F08FEF9FE79B878A87DF91CF91B2
:10136000089580E090E0F8CF8091920387FF11C04C
:101370008091E80082FF06C08091E8008B7780931F
:10138000E80003C08BB58111F3CF08958BB5882396
:10139000E1F38091E80080FFF9CF8091E8008E773B
:1013A000EECFCF93DF9300D000D0CDB7DEB72FB70D
:1013B000F8948091AF029091B002A091B102B091E7
:1013C000B2022FBF2227382F492F5A2FCA01B90145
:1013D0002DE730E040E050E00E94243329833A8337
:1013E0004B835C83CA01B9010F900F900F900F904F
:1013F000DF91CF910895CF93DF9300D000D0CDB788
:10140000DEB73FB7F8948091AF029091B002A091FF
:10141000B102B091B20226B5A89B05C02F3F19F0CA
:101420000196A11DB11D3FBFBA2FA92F982F882764
:10143000820F911DA11DB11D9C01AD0163E0220F22
:10144000331F441F551F6A95D1F729833A834B8375
:101450005C83CA01B9010F900F900F900F90DF913C
:10146000CF910895CF92DF92EF92FF920F931F9347
:10147000CF93DF93EC016B01BA01A901F801C70119
:1014800020812630E0F4209771F000271127041BFB
:10149000150B601771073CF431962E0D3F2D311D51
:1014A000D9011396CC93C114D10449F046175707BC
:1014B00034F42081820F911DDC011396CC92DF91D0
:1014C000CF911F910F91FF90EF90DF90CF900895F3
:1014D0008EBD00000DB407FEFDCF8EB50895EF92CE
:1014E000FF920F93DC01CB01642F70E0FB01EB5006
:1014F000FF4F34916A527F4FFB016491E32FF0E07C
:10150000EE0FFF1FEE2049F1E853FF4FE590F490F6
:1015100015962C93159714964C9314976C931196DB
:10152000EC9211971296FC92129713960C931397C4
:10153000FC01E05FFE4F80811A968C931A978FEF23
:101540001B968C931B9716961D921D921D921C92B2
:1015500019970F91FF90EF900895E654FF4FD6CF63
:1015600090E0FC01EA52FF4F2491FC01EB50FF4F49
:10157000E491EE2389F0F0E0EE0FFF1FE853FF4FF8
:10158000A591B4919FB7F8948C91611106C0E22F98
:10159000E095E823EC939FBF0895822B8C93FBCFBB
:1015A00090E0FC01EA52FF4F2491FC01EB50FF4F09
:1015B000E491EE2361F0F0E0EE0FFF1FE654FF4FE1
:1015C000A591B491EC91E22381E0E11101C080E0AA
:1015D0000895E82FF0E0E75EFC4FE49190917B00E6
:1015E0008E2F880F880F80729F7D892B80937B00C0
:1015F000E770E064E0937C0080917A0080648093DF
:101600007A0080917A0086FDFCCF809178009091DD
:101610007900089580917A0086FDFCCF81E0809367
:1016200001010895CF93DF9390E0FC01EA52FF4F50
:1016300024918B509F4FFC0184918823D1F090E03E
:10164000880F991FFC01E455FF4FA591B491FC014F
:10165000E853FF4FC591D491613071F49FB7F8946E
:101660008C91209582238C938881282328839FBF87
:101670007894DF91CF91089562509FB7623050F413
:10168000F8943C91822F809583238C938881822BC0
:101690008883EDCFF8948C91822B8C93E8CFCF92F6
:1016A000DF92EF92FF920F93CF93DF936B017C0158
:1016B000C42FD22F60E080E1B5DF62E08EE0B2DFC0
:1016C00060E08FE0AFDF61E081E14ADF60E081E16F
:1016D000A9DFCC0FCC0FCC0FD111C4600111C062B7
:1016E000C11489E0D8068DE3E806F10410F580E81E
:1016F000C81684E8D8068EE1E806F104E0F480E438
:10170000C81682E4D8068FE0E806F104B0F082E063
:1017100091E08927982F96959C2B90659CBD8170B0
:101720008DBDDF91CF910F91FF90EF90DF90CF9023
:10173000089580E0EDCF81E0EBCF83E0E9CFEAE7E9
:10174000F0E08081846080838081826080838081FA
:101750008E7F80838081806880830895CF92DF921E
:10176000EF92FF92E0E0F0E067E675E483E291E05B
:1017700041E2409357002491622728E030E06B015A
:101780007C0151E0C522DD24EE24FF249695879547
:1017900077956795CD28CE28CF2841F050E2652770
:1017A00053E8752758EB85275DEE952721503109C1
:1017B0002115310521F73196E032F105D1F6FF9080
:1017C000EF90DF90CF900895682F80E0C9CE682F0A
:1017D0008AE0C6CE982F8D3081F0823070F08091F3
:1017E0005D04882321F02EEF290F223038F09E501F
:1017F00081E0943018F080E0089581E008950F931F
:101800001F93CF93DF9380919103811109C01092B0
:10181000780310929103DF91CF911F910F9108955A
:1018200009E713E0C0E08C2FBBDEF80181938F0144
:10183000CF5FC831C1F780915C048F3F11F060E049
:10184000F1DEC5E9D4E000E010E0809187049091DA
:10185000880408171907DCF68C819B852B812111E0
:1018600003C062E09F3F09F061E0DCDE0F5F1F4FC5
:101870002C96EBCF7F928F929F92AF92BF92CF9296
:10188000DF92EF92FF920F931F93CF93DF93CDB729
:10189000DEB728970FB6F894DEBF0FBECDBF8C0120
:1018A000722E5B01842E912C18861F829401215088
:1018B00031093A8329832F81388528153905A1F408
:1018C00028960FB6F894DEBF0FBECDBFDF91CF9143
:1018D0001F910F91FF90EF90DF90CF90BF90AF904E
:1018E0009F908F907F9008958AE50115110529F04A
:1018F000EF81F885E00FF11F8081EADDF50181932A
:101900005F0110925F0277DD6B017C0129813A81D2
:101910008F81988582179307BCF0711015C0EF81F5
:10192000F8853196F887EF83C6CF65DD6B837C83BE
:101930008D839E83DC01CB018C199D09AE09BF0903
:10194000C397A105B10558F780915F02882369F319
:10195000E6CFCF93DF93EC01FB0180818052990B9E
:10196000880F880F1C828D8381818052990B880F8C
:10197000880F1E828F838581248135812095309543
:10198000909122069A3260F0938191FF09C0909560
:10199000907E628166956E736A3120F5623139F10D
:1019A000982F96959695969561E096279170B92F08
:1019B000B295BB0FB07EA0E0367D2A2B3B2B8295E3
:1019C0008695877086278170582F550F550F550FB4
:1019D00040E0242B352B30935B0220935A02DF9199
:1019E000CF9108956E31E1F69093B302D9CF9093E1
:1019F000B702D6CFFC01DB018C91880F880F80588D
:101A00001482858311968C911197880F880F8058C6
:101A10001682878313962C9113972F712E50330BB8
:101A200037FF02C020E030E031872087C901880FEE
:101A3000991F820F931F8032910514F08FE190E07F
:101A40004097880F880F880F1086818714968D9194
:101A50009C9115978095909590935B0280935A0284
:101A60002091B603222371F01396EC91EF71EE50A2
:101A7000E695F0E0EA57FE4F2081922B90935B02AF
:101A800080935A020895FC01DB018C918058990BD8
:101A90001482858312968C9112978058990B168226
:101AA000878311968C9111978058990B10868187A6
:101AB00013968C9113978058990B128683871496EE
:101AC0008C911497828315968C9115978383169623
:101AD0008D919C918095909590935B0280935A0292
:101AE0000895FC01DB018C918F738052990B9583D3
:101AF000848311968C9111978F738052990B9783E1
:101B000086838C9190E023E0959587952A95E1F75F
:101B10008871992711962C91119730E045E0359501
:101B200027954A95E1F726703327822B932B12963F
:101B30002C911297221F2227221F822B4097880F59
:101B4000880F1086818712968C9112978F71805121
:101B5000990B880F880F1286838712969C91129793
:101B600096959695987113968C9113978295869574
:101B70008770892B828313968C9113978F7183833F
:101B800014968D919C918095909590935B02809393
:101B90005A020895FC01DB0112963C9112971196AE
:101BA0008C9111978295869586709C9196959695C5
:101BB00096959871892B932F991F9927991F892B97
:101BC00013966C91139714969C91149790FF33C0C1
:101BD000262F20952F71205E432F50E09FE330FF8A
:101BE00090E2981B892F30E03583248390E097831F
:101BF0008683CA0195958795959587958871629595
:101C000066956770682B70E071876087559547957A
:101C10004F7050E05387428714968D919C9198277E
:101C200089279827809590958D7C937690935B0279
:101C300080935A020895962F9F7120E2291BCCCFE2
:101C4000CF93DF93DC01EB018A8190E0982F882706
:101C500088279F706881862B15969C938E93149786
:101C60008A8120E1829FC001112488279F706981A9
:101C7000862B17969C938E9316978B8113968C9335
:101C80008D8181FB992790F9592F5295550F550F4A
:101C9000507C40E0982F9170F92FF295F07FE0E0B2
:101CA0004E2B5F2B8695869591E089278170382F82
:101CB0003295330F307E20E0422B532B50935B0242
:101CC00040935A02DF91CF910895FC01DB018D9181
:101CD0009C9111979583848312968D919C91139773
:101CE0009783868314968C9183830895FB0180816A
:101CF00090E08095909590935B0280935A020895AE
:101D0000DC01862F90E06031F8F420911E0622233A
:101D100039F0693028F085559D4FFC018081089588
:101D200021E030E002C0220F331F6A95E2F78D9167
:101D30009C912823392381E0232B09F480E08295AC
:101D4000880F880F807C08952091550530915605A5
:101D5000633170F0FC017097EE0FFF1FEA0FFB1F5D
:101D600081E0408151812417350758F080E009C097
:101D7000A80FB91F1E974C9150E081E0241735073A
:101D8000ACF708957F928F929F92AF92BF92CF92BD
:101D9000DF92EF92FF920F931F93CF93DF93EC01AB
:101DA0007B01742E852E87E0888340E6C42E45E0B3
:101DB000D42E09E912E0A12CB12CF60181916F011A
:101DC000882369F130E9932E813011F020EB922EB7
:101DD0006A2D872D982D94DF8695F80190819817AC
:101DE000F1F0F60193A54589F80180832B2D30E0B1
:101DF00054E0B59EF0011124EC0FFD1F592D5295B2
:101E00005F705183992992834383F9013196EE0FD4
:101E1000FF1FEE0FFF1FEC0FFD1F8083B3940F5FBA
:101E20001F4FA39486E1A812C8CFBB0CBB0CB39480
:101E3000F701B082DF91CF911F910F91FF90EF904A
:101E4000DF90CF90BF90AF909F908F907F9008953C
:101E500080E0BDDC81EE3CDB81E0B9CC80E0B7DC2A
:101E600082EE36DB81E0B3CC80E0B1DC80E530DBB4
:101E700083E72EDB81E0ABCCCF9380E0A8DC8FEF53
:101E800027DBC82F81E0A3DC8C2FCF9108950F931F
:101E90001F93CF93DF93EC018C01060F111DC01728
:101EA000D10729F4DF91CF911F910F910895899166
:101EB0000FDBF5CFCF93DF93D82FC62F80E087DCE1
:101EC0008D2F806205DB8C2F03DB81E0DF91CF91CA
:101ED0007ECCCF93DF9300D000D0CDB7DEB79C018E
:101EE000DB010E94693369837A838B839C83AB0116
:101EF000BC015F776627772781E090E0A0E0B0E043
:101F0000411550446105710519F480E090E0DC0151
:101F10002EE0880F991FAA1FBB1F2A95D1F7298190
:101F20003A814B815C81820F931FA41FB51F3FE054
:101F3000B595A795979587953A95D1F70F900F90FE
:101F40000F900F90DF91CF910895F89488E198E079
:101F50000FB6F894A895809360000FBE9093600030
:101F6000FFCFFF920F931F93CF93DF93082FF92E8C
:101F700060E487E09FDF80E02ADC80E6A9DA80E089
:101F8000A7DA182F81E023DC80E021DC81E6A0DAEB
:101F9000C02FDF2D8C2F801B811750F081E017DCC4
:101FA000812F90E0DF91CF911F910F91FF900895C5
:101FB00089918EDAFE0131978083ECCFFF920F93E7
:101FC0001F93CF93DF93D82FC92FF62E072F142FEF
:101FD0001092070351DF282F30E0359527952770A1
:101FE0003327232BE1F48F2D902FBBDF60E487E0B4
:101FF00061DF01E060E387E05DDF80E0E8DB80EA4D
:1020000067DA612F8D2F9C2F42DF81E0E0DB802F8C
:1020100090E0DF91CF911F910F91FF90089500E024
:10202000E9CF1F93CF93DF93182FEB0180E0CFDB35
:10203000812F4EDA88814CDA888381E0DF91CF915D
:102040001F91C5CBCF93DF930F92CDB7DEB7BE0103
:102050006F5F7F4FE6DF89810F90DF91CF91089509
:102060001F93CF93DF93182FD62FC72F80E0AFDBBE
:10207000812F80622DDA64E08D2F9C2F08DF81E0B4
:10208000DF91CF911F91A3CB85ED8093BC008FEFA3
:102090009FE72091BC0024FD03C01092D20303C02F
:1020A00001970097B1F70895CF93DF93DC01FA0110
:1020B00084E1EB0188831C9211968C931197129600
:1020C0008CE001900D928A95E1F7DF91CF91089510
:1020D000CF93282FCB01C42F4FEF5FE7C13238F0E9
:1020E00080E047C04150510941155105C9F3309175
:1020F000D2033111F7CF31E03093D2033093D103C3
:102100004FEF40937502109297024C0F4093960246
:102110003093980230919802220F232B209398023B
:102120002091D003222391F11092D00320919802A4
:102130002093BB002FEF3FE74091BC0043FD1BC045
:1021400025EC2093BC002FEF3FE74091D2034130B4
:10215000F9F0209197022C1710F4C09197024C2FA0
:1021600050E066E772E00E94B13381E0CC2309F4CD
:10217000B7CFCF910895215031092115310509F4C8
:10218000AFCF409198024093BB00D6CF25EED9CF78
:102190002150310921153105C1F6A2CFCF93C82FA7
:1021A0008FEF9FE7413228F080E040C00197009711
:1021B000D9F32091D2032111F9CF82E08093D20389
:1021C00081E08093D1038FEF809375021092970284
:1021D0004093960250E086E792E00E94B13310925D
:1021E000980280919802CC0FC82BC09398028091DE
:1021F000D003882331F11092D0038091980280930C
:10220000BB008FEF9FE72091BC0023FD11C085EC40
:102210008093BC008FEF9FE72091D203223099F08A
:102220009091750281E09F3F09F0BECFCF91089554
:102230000197009709F4B8CF209198022093BB0032
:10224000E2CF85EEE5CF0197009731F7ADCFEF9262
:10225000FF920F931F93CF93DF930F92CDB7DEB70B
:10226000182F6983E42EF22E032F41E0BE016F5F29
:102270007F4F94DF882371F04E2D6F2D702F812FAB
:1022800027DF81700F90DF91CF911F910F91FF9009
:10229000EF90089580E090E0F4CF0F931F93CF93D9
:1022A000DF930F92CDB7DEB78C019E012F5F3F4FBA
:1022B00041E062E18DE0CBDF2981229530E0C90168
:1022C00095958795959587958373220F331F220FD8
:1022D000331F2C7C822B90E09C013595279525752A
:1022E000880F991F8A7A282BF80180819181822B8F
:1022F000918380830F90DF91CF911F910F9108956B
:102300008F929F92AF92BF92CF92DF92EF92FF9205
:102310000F931F93CF93DF930F92CDB7DEB76C016E
:102320004A0189E0DB018C93F601319688E0DF01F8
:102330001D928A95E9F786E0F6018083A6EAB5E06A
:1023400080E090E0A12C41E050E0BD909C012F5F27
:102350003F4FB11063C0C90120313105B1F76A2D7B
:102360006983A090A405B090A505D40114964D9161
:102370005C916091B90570E08091B80576018E019D
:102380000F5F1F4F950190E06DD8F4014681578192
:102390006091BB0570E08091BA05950190E062D82C
:1023A000D40118964D915C916091BD0570E08091CB
:1023B000BC05950190E056D8F401428553856091A3
:1023C000BF0570E08091BE05950190E04BD8A090CC
:1023D000A205B090A305D40112964C9150E06091F3
:1023E000B60570E0950180E090E03CD8F4014381AF
:1023F00050E06091B70570E0950180E090E032D840
:102400000F90DF91CF911F910F91FF90EF90DF9090
:10241000CF90BF90AF909F908F900895BA0102C067
:10242000660F771F8A95E2F7CB01F4016081718115
:1024300086239723892B09F48ECF61E06A0DF6017C
:10244000EA0DF11DB382C9012031310509F488CFAD
:10245000663009F485CFA62E78CFEF92FF920F93C6
:102460001F93CF93DF93CDB7DEB72A970FB6F894BB
:10247000DEBF0FBECDBFF82E4B835C836D837E83A2
:102480000F83188729873A878093070360E080E0ED
:10249000C9D860E08AE0C6D800E020E040E060E013
:1024A00072E18AE790E0FBD880E08ED981E08FD995
:1024B0008FE097E20197F1F700C0000061EF84E040
:1024C000F9DC62E083E0F6DC8E010F5F1F4FB8019C
:1024D00086E0A7DD6981697F86E0ECDC8DE1B2DD15
:1024E000E82EC2DC8DE1AEDD882331F0E81201C0B8
:1024F000BBDC60E08DE1DEDCBE016E5F7F4F86E01D
:1025000090DD6A81677D636086E0D4DCB80186E097
:1025100088DDB80180E085DD69816C6080E0CADC1F
:102520006CE485E0C7DC8DE18DDD682F64608DE1B2
:10253000C1DC8CE187DD682F6F638CE1BBDC8DE152
:1025400081DD682F66608DE1B5DC8CE17BDD682F75
:1025500063608CE1AFDC6FE381E0ACDC60E787E0D7
:10256000A9DC7CDC75DCFF2009F437C01982B801D6
:1025700080E057DD19811C7880E026D9612F6260E8
:1025800080E098DC81E020D9BE016D5F7F4F8AE05A
:1025900067DDBE016D5F7F4F80E162DD80E014D9B1
:1025A000BE01695F7F4F8BE05BDD63E082E082DC30
:1025B00081E00AD980916900806880936900EB9A74
:1025C0002A960FB6F894DEBF0FBECDBFDF91CF9134
:1025D0001F910F91FF90EF90089560E787E06ADC0C
:1025E0001982B80180E01DDD19811C7880E0ECD8EB
:1025F000612F6360C5CF61E08FE00E94B00A61E0A7
:1026000080E10E94B00AA4ECB3E01196ED91FC9138
:10261000129780819C91892B808385E88A95F1F7B8
:1026200000000895FF920F931F93CF93DF930F92B3
:10263000CDB7DEB78983F62E8A0141E0BE016F5F18
:102640007F4F82E5ABDD882351F08DE591E0019766
:10265000F1F700C000004F2DB80182E539DD0F9081
:10266000DF91CF911F910F91FF9008950F931F93CA
:10267000CF93DF9300D000D000D0CDB7DEB78E016E
:102680000F5F1F4F86E0F80111928A95E9F7A801C4
:1026900066E08AEFC7DF8FE891E00197F1F700C0AD
:1026A0000000F801AE01495F5F4F8FEF90E021918C
:1026B000922B8223E417F507D1F7992379F08F3F06
:1026C00069F099818E810F900F900F900F900F906D
:1026D0000F90DF91CF911F910F9108958FEF9FEF92
:1026E000F2CFEF92FF920F931F93CF93DF930F924E
:1026F000CDB7DEB77C01062F81E08983E091C50369
:10270000F091C60390818091C403809589238083D2
:1027100085E88A95F1F7000021E041E067E372E087
:10272000CE010196A7D821E042E068E372E0C7013C
:10273000A1D8109138021F3F61F400E010E05BDF88
:10274000C8010F90DF91CF911F910F91FF90EF90F3
:102750000895809139028A3511F08111EECF1F70F2
:10276000110F1D5F101B4DEF400F21E06AE372E077
:10277000C70102967FD8602F70E0CB01810F911DB9
:102780008197DCF6695C7D4F20E0412F80E090E08E
:1027900071D807E312E0D3CFCF92DF92EF92FF928E
:1027A0000F931F93CF93DF9300D000D000D0CDB70D
:1027B000DEB78D839E83062F0E94D1096B017C01B9
:1027C00010E0602F8D819E818CDFFC01892BA9F0A8
:1027D0001F5F8D819E818250924031F48181807F84
:1027E000803F59F481E021C08D819E818E5E9140B1
:1027F00059F58181807F803FA9F78FE19EE40197A1
:10280000F1F700C000000E94D10969837A838B83AD
:102810009C83DC01CB018C199D09AE09BF098B3F5C
:102820009105A105B10568F280E00F900F900F901F
:102830000F900F900F90DF91CF911F910F91FF900C
:10284000EF90DF90CF9008951330B8F2CBCFCF93B5
:10285000DF93EC0164E08AE092E043DFFC0180E07A
:10286000309749F08181807F803F41F468E08EEEAF
:1028700091E092DF81E0DF91CF910895238134814F
:102880002095309530935D0220935C028091020187
:10289000863009F45DC068F4843091F0853089F1A8
:1028A000823071F0833031F781858A8382858B8312
:1028B00007C0883009F463C08930D1F08730D1F681
:1028C00085818058990B1886898726818FE790E04B
:1028D000AC01421B51091A864B8727812058330BC4
:1028E0001C822D832085821B91091E828F83C2CF7B
:1028F00085818058990B1C828D8326818FE790E01B
:10290000F2CF85818058990B1C828D83868187FF49
:1029100005C0207F30935D0220935C02878187FF92
:1029200009C080915C0290915D02817F90935D026D
:1029300080935C028085803F08F49CCF80915C028C
:1029400090915D02857F90935D0280935C0292CFAF
:102950002581422F4058550B942F8827368137FD0B
:1029600009C027FF02C08FEF9FEF80589F4F9D83C4
:102970008C8380CF2138C8F781E090E0F6CF1D82AC
:102980001C821F821E8240858FE790E0841B910984
:10299000188689878FEF9FE730FD02C080E090E0C6
:1029A0009B878A8767CF0F931F93CF93DF93D82F8F
:1029B000C92F80915E02811166C015E08D2F9C2F7A
:1029C00046DF8FEC97E00197F1F700C0000011504F
:1029D0001111F4CF8D2F9C2F3ADF811107C0109277
:1029E0005E02DF91CF911F910F91089564E08AE01C
:1029F00092E077DE8C0168E082E092E0CDDE882311
:102A000061F064E08EEF91E0C7DE68E086EF91E070
:102A1000C3DE68E08EEE91E0BFDEF8018181893788
:102A2000C9F583E080930201F80183819481809548
:102A3000909590935D0280935C0220911D06222365
:102A400049F020910201223029F487FF03C088E079
:102A50008093020168E082E092E09EDE882381F0AC
:102A6000809102019CEF980F943010F0823089F52C
:102A700068E086EE91E090DE68E08EEE91E08CDE1C
:102A800081E080935E028D2F9C2FE1DE882309F484
:102A9000A6CFA7CF982F907F903711F482E0C2CFB6
:102AA000903511F484E0BECF833211F485E0BACFC3
:102AB000903E11F486E0B6CF833611F487E0B2CFB2
:102AC000823111F489E0AECF903409F0ADCF81E0CE
:102AD000A9CF893021F468E08EED91E0CCCF83302E
:102AE00059F668E086ED91E0C6CFCF93DF93CDB77E
:102AF000DEB7C851D1400FB6F894DEBF0FBECDBFD0
:102B000048E151E061ED71E0CE0101960E949433FD
:102B100048E151E061E070E0CE0101960E94D133BE
:102B2000C85EDE4F0FB6F894DEBF0FBECDBFDF919B
:102B3000CF910895EF92FF920F931F93CF93DF935E
:102B400000D0CDB7DEB7082F142F732F8DB79EB7E7
:102B50009A83898350E0CA010196EDB7FEB7E81B5E
:102B6000F90B0FB6F894FEBF0FBEEDBF8DB79EB741
:102B700001967C016183622F01960E94B13341E08E
:102B8000410FB701802F0ADBE981FA810FB6F89473
:102B9000FEBF0FBEEDBF0F900F90DF91CF911F9141
:102BA0000F91FF90EF900895EF92FF920F931F9374
:102BB000CF93DF930F92CDB7DEB7809127018111BC
:102BC00009C08FEF0F90DF91CF911F910F91FF9070
:102BD000EF9008951982A0912101B0912201E09116
:102BE0002301F09124018E010F5F1F4F980141E0F6
:102BF00051966C9180819EDF7801882311F3A0911A
:102C00002101B0912201E0912301F091240198016A
:102C100041E015966C9180818DDF882391F2A0911F
:102C20002101B0912201E0912301F091240198014A
:102C300041E014966C9180817DDF882309F4C1CF37
:102C4000E0912101F09122016481E0912301F09152
:102C5000240180913E01882309F455C08CE08983CA
:102C6000980141E0808166DF882309F4AACF2FE72D
:102C700088E391E0215080409040E1F700C00000DF
:102C800080EC89838091270180FF02C080EE8983D8
:102C9000A0912101B0912201E0912301F091240142
:102CA000970141E014966C91808144DF882309F4F8
:102CB00088CF81E090912D01911101C080E0880FB3
:102CC0008983A0912101B0912201E0912301F0912B
:102CD0002401970141E051966C9180812BDF88237C
:102CE00009F46FCF1982A0912101B0912201E091E6
:102CF0002301F0912401970141E015966C918081A8
:102D000019DF81505FCF84E08983980141E08081A1
:102D100011DF882309F455CF80912E01811104C061
:102D20008091270180FD3FC080E48983A09121012B
:102D3000B0912201E0912301F0912401970141E03B
:102D400014966C918081F6DE882309F43ACF2FE740
:102D500088E391E0215080409040E1F700C00000FE
:102D600081E090912D01911101C080E08983A091B3
:102D70002101B0912201E0912301F09124019701FA
:102D800041E051966C918081D5DE882309F419CFFA
:102D9000A0912101B0912201E0912301F091240141
:102DA0002CE231E0A9CF80E6C0CFCF93DF930F9222
:102DB000CDB7DEB79C0180912701811105C08FEF4F
:102DC0000F90DF91CF91089581E02C3B310588F47D
:102DD00082E02236310568F483E02A32310548F476
:102DE00084E02431310528F486E02A30310508F0EA
:102DF00085E08983909128019817A9F0A09121017D
:102E0000B0912201E0912301F09124019E012F5FF6
:102E10003F4F41E012966C9180818CDE882379F2DD
:102E200089818093280180E0CBCFEF92FF920F93AE
:102E30001F93CF93DF9300D0CDB7DEB7FC018B019A
:102E40007A018091270181110AC08FEF0F900F90B6
:102E5000DF91CF911F910F91FF90EF9008959E2FDA
:102E60008F2F9A838983A0912301B09124019B0124
:102E70002E0F311D18968D919C91199782179307EB
:102E800020F3E0912101F09122019E012F5F3F4F3D
:102E900042E0638D8C914EDE8823B9F2A09121012E
:102EA000B0912201E0912301F09124019701402F7C
:102EB00058966C9180813EDE8150C8CFCF93DF93CE
:102EC0000F92CDB7DEB780912701811105C08FEF3A
:102ED0000F90DF91CF91089588E18983809125013A
:102EE0008330C1F0A0912101B0912201E091230132
:102EF000F09124019E012F5F3F4F41E016966C91A7
:102F0000808118DE882319F38981869586958695B8
:102F10008093250180E0DCCFCF93DF930F92CDB774
:102F2000DEB780912701811105C08FEF0F90DF91EF
:102F3000CF9108951982809126018823C1F0A09134
:102F40002101B0912201E0912301F09124019E0121
:102F50002F5F3F4F41E017966C918081EBDD882316
:102F600021F389818695869586958093260180E058
:102F7000DDCF0F931F93CF93DF930F92CDB7DEB7C3
:102F800080912E01882309F45AC0A0912101B091AB
:102F90002201E0912301F09124018E010F5F1F4F68
:102FA000980141E014966C91808151D9811107C03C
:102FB0008FEF0F90DF91CF911F910F91089589812D
:102FC0009091270190FF3DC080628983A0912101EB
:102FD000B0912201E0912301F0912401980141E098
:102FE00014966C918081A6DD882311F38FE697E11A
:102FF0000197F1F700C0000081E090913C01911130
:1030000001C080E0879588278795898390913D014D
:10301000992311F080638983A0912101B09122014D
:10302000E0912301F0912401980141E057966C91C1
:10303000808180DD882309F4BBCF10922E0180E0CF
:10304000B8CF8F7DC2CFCF93DF930F92CDB7DEB7CE
:1030500069839E012F5F3F4F41E0682F82E56ADD63
:103060000F90DF91CF910895CF92DF92EF92FF9270
:103070000F931F93CF93DF93CDB7DEB72E970FB685
:10308000F894DEBF0FBECDBF7C018E010F5F1F4FD6
:1030900088E0F80111928A95E9F7809103019091F7
:1030A000040168018F3F9807A1F18B30984189F1A5
:1030B000A8016091000180915902B4DA882349F196
:1030C000F80120910001200F312F311D8FEF90E08A
:1030D000E217F307D1F49923E1F08F3FD1F0E091AB
:1030E0005702F0915802309709F0CDC02E960FB6D6
:1030F000F894DEBF0FBECDBFDF91CF911F910F912E
:10310000FF90EF90DF90CF9008954191942B84230E
:10311000DFCFACDA9C0190930401809303012F3F31
:103120003F4FB9F465E580EF8EDF9AE19A95F1F7AC
:1031300000C060E08BEF87DFEAE1EA95F1F700C0BD
:1031400095DA9093040180930301FAE1FA95F1F77F
:1031500000C0809103019091040183319F4F71F46D
:1031600061E08BEF70DF8AE18A95F1F700C065E5D9
:1031700080EF69DF9AE19A95F1F700C01092590249
:1031800080910301909104018330910539F48AEF15
:103190009CE09093580280935702A8CF9C013E7FF9
:1031A00021303105C1F563E08EEF4DDFEFE8F1E04E
:1031B0003197F1F700C0000063E08EEF44DF8FE845
:1031C00091E00197F1F700C0000063E08EEF3BDF74
:1031D000EFE8F1E03197F1F700C00000AE01475F82
:1031E0005F4F66E08AEF1EDA8FE891E00197F1F712
:1031F00000C000008D85833051F021E73DE086E07E
:103200003093580220935702809300016FCF23E43C
:103210003DE088E0F5CF009719F48DE297E2B9CF51
:103220008330E1E09E0719F489EA9CE0B2CF823155
:10323000FFEF9F0719F480E29EE0ABCF83312FEFC1
:10324000920719F485E69EE0A4CF8330980719F41D
:103250008AEC9DE09ECF419759F486E79EE09093DB
:1032600058028093570285E08093590281E0CCCFC9
:103270008BE098E19093040180930301109258022F
:103280001092570233CFB601C70109952FCF1F9374
:10329000CF93DF930F92CDB7DEB7182F80913D010A
:1032A000811721F180E0111180E3898390912E0133
:1032B000992311F08260898380913C01882319F061
:1032C000898180688983A0912101B0912201E091D8
:1032D0002301F09124019E012F5F3F4F41E057965B
:1032E0006C91808127DC811110933D010F90DF915B
:1032F000CF911F910895EF92FF921F93CF93DF9389
:103300000F92CDB7DEB7182F8077811125C081E0ED
:10331000111180E08295880F880F807C8983A091AD
:103320002101B0912201E0912301F0912401CE010D
:1033300001967C019C0141E055966C918081FADBFD
:10334000970181110BC0109227010F90DF91CF914F
:103350001F91FF90EF90089581E0E0CF89818F7BEE
:103360008093290116FB882780F991E08927880F2F
:10337000880F898315FD02C08260898314FD03C014
:1033800089818160898313FD03C089818863898372
:10339000A0912101B0912201E0912301F09124013B
:1033A00041E056966C918081C5DB882361F2812FC4
:1033B000877F882311F080E06ADF10932701109245
:1033C00030019FE728E381E0915020408040E1F701
:1033D00000C00000BACFCF93DF930F92CDB7DEB716
:1033E00090913E019923F9F091E0811101C090E0A4
:1033F000990F9983A0912101B0912201E0912301BD
:10340000F09124019E012F5F3F4F41E051966C9156
:10341000808190DB882319F0898180932D010F90A2
:10342000DF91CF910895909127019923C1F38823CB
:1034300021F090912D019111F2CF8983DBCF1F9361
:10344000CF93DF93D82F80913E01811126C0C09188
:103450002701CC2301F110912C01CD23C0932C0125
:10346000DD2371F081E0B7DF9FDB811112C081E0C5
:10347000CD1301C080E08195DF91CF911F91089518
:1034800080913001882319F081E0A5DFF0CF80E042
:10349000FCCF10932C018FEFEFCF80E0EDCF0F9397
:1034A0001F93CF93DF9300D0CDB7DEB78C0180910F
:1034B0002701811108C08FEF0F900F90DF91CF91FE
:1034C0001F910F91089580913E018111F4CF809159
:1034D0003001882309F45DC0C8010197889708F07E
:1034E00040C081E0D4DE80E28983013049F51A8250
:1034F00085E090E05ADC8A8120E4829FC00111249B
:1035000087608A83A0912101B0912201E09123017B
:10351000F09124019E012F5F3F4F42E055966C9140
:10352000808108DB882351F088E080932701109286
:10353000290181E08093300180E081DF80E0BCCF11
:10354000063018F481E08A83D3CF053128F482E075
:103550008A838AE090E0CECF83E08A8384E190E0A2
:10356000C9CF80E094DE198287E08A83A09121018F
:10357000B0912201E0912301F09124019E012F5F7F
:103580003F4F42E055966C918081D4DA81111092C0
:103590003001B801093E83E0180760F168EE73E07E
:1035A00008EE13E0C8010E94FD3261506983A091CA
:1035B0002101B0912201E0912301F09124019E01AB
:1035C0002F5F3F4F41E011966C918081B3DA8823E1
:1035D00009F471CF698170E06F5F7F4FC8010E946D
:1035E000113370932B0160932A01CB019695879537
:1035F000DCDBA4CF0430110598F664E070E0D0CF96
:103600007F928F929F92AF92BF92CF92DF92EF9272
:10361000FF920F931F93CF93DF93CDB7DEB7CC53B9
:10362000D1400FB6F894DEBF0FBECDBF48E151E0E8
:1036300061E070E08E010F5F1F4FC8010E94C1332F
:103640008D859E85AF85B889702EC55CDE4F188349
:10365000CB53D1400897A105B10538F448E151E0BA
:1036600060E070E0C8010E94C13389859A85AB850E
:10367000BC858531944DA24AB105D1F048E151E0B5
:1036800061ED71E0872DC55CDE4F9881CB53D14051
:103690000E9494331D861E861F86188A42E450E0DD
:1036A00065E772E0CE018B559F4F0E94943308C0AE
:1036B0008D859E85AF85B8890297A105B10570F308
:1036C0008A81873009F040C08FE08A838D859E858E
:1036D000AF85B8890497A105B10548F448E550E0E5
:1036E0006DE172E0CE01835B9F4F0E9494338D8524
:1036F0009E85AF85B88986309105A105B10548F54D
:103700001C82C951DF4F1882C75ED040EA81F0E0C9
:10371000E751FD4FE491E23021F48AA591E0892739
:103720008AA743E050E061EE72E0CE018F5E9E4FCB
:103730000E94943344E250E06DEB72E0CE0183517D
:103740009F4F0E94943313C0883009F0BFCF8DE0A3
:10375000BCCF86309105A105B10599F2893091055C
:10376000A105B10598F20D97A105B105D0F28D859F
:103770009E85AF85B8898E309105A105B10508F009
:103780004BC088A9843030F4823008F443C081E013
:1037900088AB04C08450823008F418AACD5EDE4F96
:1037A0001882C351D140CB5EDE4F1882C551D14043
:1037B000CA5EDE4F1882C651D140CC5EDE4F188201
:1037C000C451D140C95EDE4F1882C751D140C85E96
:1037D000DE4F1882C851D1408A81843130F094E0A4
:1037E000980F943208F01AC19A8381E190E0A0E02A
:1037F000B0E08D879E87AF87B88B48E151E061E0EC
:1038000070E0872DC55CDE4F9881CB53D1400E947C
:10381000D13312C082E0BCCF8E309105A105B10535
:1038200009F4BCCF8F309105A105B10509F4BBCFD8
:103830004097A105B10581F2C951DF4F1882C75EDB
:10384000D0408A8180932206809321069C819093A8
:103850002006998190931F06E82FF0E0E751FD4F75
:10386000949121E0913009F020E020931E062491EC
:1038700031E0223009F030E030931D06E49131E070
:10388000E33009F030E030931C06223009F0C9C063
:10389000883140F487E080932106913019F488E064
:1038A0008093210685B5826085BD85B5816085BD23
:1038B00080916E00816080936E00C951DF4F8881D6
:1038C000C75ED040882309F4B3C00E94AE0B8B01C1
:1038D0009C01C851DF4F488159816A817B81C85E54
:1038E000D04080E00E942D1281E080931B068091E1
:1038F0002206893261F008F4EBC582E4FE01EB5543
:10390000FF4FA0E6B5E001900D928A95E1F781E0C6
:103910009D81923009F480E08093180688E5FE01CD
:10392000E35BFF4FA0ECB5E001900D928A95E1F7C3
:103930008091D8008F7E8093D8008091D7008160DD
:103940008093D70084E082BF81E080931A06809143
:10395000D8008E7F8093D8001092E2001092DA0097
:103960001092E1008091D8008F778093D8008091E9
:10397000D80080688093D8008091D8008F7D809394
:10398000D80019BC1BBC109219068091E0008B7FF7
:103990008093E0008091D80081608093D8001092DD
:1039A000E9008091EB0081608093EB001092ED00C4
:1039B0001092EC0082E38093ED008091EE00809104
:1039C000E1008E7F8093E1008091E200816080932E
:1039D000E2008091E20088608093E2008091E00044
:1039E0008E7F8093E0008091D80080618093D80022
:1039F0007894C45CDE4F0FB6F894DEBF0FBECDBF27
:103A0000DF91CF911F910F91FF90EF90DF90CF90BA
:103A1000BF90AF909F908F907F9008958B5F8A8327
:103A2000E4CE913009F03ECF883108F03BCF37CF5C
:103A30008E8180935F058F8180935E0580911D0646
:103A4000882309F4CAC3CD5EDE4F8881C351D140BB
:103A5000817080935D050E949F0B8981823009F4FB
:103A6000BFC3833009F4BFC38130B1F4C95EDE4FF8
:103A70008881C751D14098859093B7038093B6034E
:103A800084E398E190935C0580935B058FE199E076
:103A900090935A05809359058981833061F08D8117
:103AA000823049F400E021E041E060E079E08DE31C
:103AB00090E00E944F0B80911C06811106C0898105
:103AC000813019F08B818130C9F41092D20381E0EA
:103AD0008093D1031092D003589A599A8091B900DB
:103AE0008E7F8093B9008091B9008D7F8093B9005B
:103AF0008AE08093B80085E48093BC002B8121305C
:103B000009F4B6C38981813009F4B2C380911C06DF
:103B1000817080935D04C451DF4F8881CC5ED040BA
:103B200080935C0420935B0484E2FE01E351FF4F29
:103B3000A7E3B4E001900D928A95E1F71092880412
:103B4000109287040E940A0B1092360410923504DA
:103B50001092D4031092D303872CC55CDE4F98805B
:103B6000CB53D140C72CD92C00E049E1A42EBB2473
:103B7000B394AC0EBD1E43E0A40EB11CD501E5E02C
:103B80001D92EA95E9F7C75EDE4F0883C951D1401F
:103B9000D60190961C919097F0901D061F3FB1F1B1
:103BA0009196EC90053029F4FF2019F08B81833039
:103BB000A1F561E0812F0E94120BC55EDE4FE88205
:103BC000CB51D1401251E12FF0E0E75EFC4FE49180
:103BD000C65EDE4FE883CA51D140A0913504B09152
:103BE0003604CD010196909336048093350433E07A
:103BF000AA0FBB1F3A95E1F7AB52BC4F88E0FE011C
:103C0000E75EFE4F01900D928A95E1F70F5FB2E0FB
:103C1000CB0ED11C063009F0B1CFC451DF4F8881E3
:103C2000CC5ED0408F3F19F060E00E94120BC12C97
:103C3000D12CA0908704B0908804ECE0EA9DC001EC
:103C4000EB9D900D11248B569B4F2981223009F05A
:103C50002EC3D40150961C911F3F09F486C09501D4
:103C60002F5F3F4F3093880420938704BCE0CB162E
:103C7000D10408F000C3A601485051094230510553
:103C800008F4F9C2C45CDE4F1882CC53D14000E086
:103C90000170E12C2C2D412F672DC55CDE4F788102
:103CA000CB53D1400E946F0A80911E06882309F4ED
:103CB000EEC2C45CDE4FF881CC53D140FF2309F43F
:103CC000E6C2123108F4E3C28FA528E0829FC0014A
:103CD0001124C55EDE4F188219821A82CB51D14061
:103CE000C75EDE4F1883C951D14021E0C05EDE4F70
:103CF0002883C052D140C25EDE4F99838883CE5163
:103D0000D14061E0812F0E94120B1251E12FF0E0AF
:103D1000E75EFC4FE49180913504909136042CE0ED
:103D20002A9DD0012B9DB00D1124AB56BB4F1B9685
:103D30008C93C65EDE4FE883CA51D1409C012F5F51
:103D40003F4F309336042093350423E0880F991FAA
:103D50002A95E1F7DC01AB52BC4F88E0FE01E75E3B
:103D6000FE4F01900D928A95E1F7FF2089F09CE0CB
:103D70009A9DF0019B9DF00D1124EB56FB4F858120
:103D8000823030F4CE5EDE4F8881C251D1408287CE
:103D9000AFEFCA1ADA0ABFEF8B1A9B0AE0E1CE1620
:103DA000D10409F046CFFF2009F4DDC11B81113099
:103DB00009F02EC388A980938004789480E8C75EB8
:103DC000DE4F8883C951D140A0912101B0912201D9
:103DD000E0912301F09124019E01275E3E4F41E0D6
:103DE00055966C9180810E949A15882309F468C0C9
:103DF000FFEF24E34CE0F15020404040E1F700C0E9
:103E00000000C75EDE4F1882C951D140A091210148
:103E1000B0912201E0912301F09124019E01275EDF
:103E20003E4F41E055966C9180810E949A158823FF
:103E300009F446C010922F018FEF809327018093E1
:103E4000250180932601809328012FEF3FEF3093C7
:103E50002B0120932A0180932C0180932E01109333
:103E6000290110933C0110923D01109231011092F2
:103E70003001E2E3F1E08AE0DF011D928A95E9F783
:103E800010923E0110923F011092410110924001A8
:103E900015D8811115C040D8811112C08AE290E076
:103EA0000E94D51681110CC082E390E0F8DA8111EE
:103EB00007C0C5DA811104C05CD8811101C01BDACA
:103EC00088E719DA0E945E1727D888E7B8DA809168
:103ED0003F0100E010E096EFE92E9BE0F92E8823E9
:103EE00009F4F9C18CE0EFE1F2E0DE01A75EBE4F1C
:103EF00001900D928A95E1F7C75DDE4F1882C95295
:103F0000D14085E0C65DDE4F8883CA52D140AE0104
:103F1000475D5E4F62E070E086E192E00E94151717
:103F2000811111C0AE01475E5E4F6CE070E081EC24
:103F30009AE00E941517811106C08EE190E09093DF
:103F400067048093660480913E01813029F180915D
:103F50003F01882309F180E03EDA0BD880914001CF
:103F6000909141019CDAC75EDE4F1882C951D14061
:103F7000E0912301F09124019E01275E3E4F41E034
:103F800063E280810E949A15882331F081E080935A
:103F90003E0121DA0E94D41582E0C75EDE4F88839D
:103FA000C951D1408AECC65EDE4F8883CA51D140E8
:103FB00083EEC55EDE4F8883CB51D14019E0C45EED
:103FC000DE4F1883CC51D140AE01475E5E4F64E0B6
:103FD00070E088E690E00E94151783EAC75EDE4F26
:103FE0008883C951D140C65EDE4F8883CA51D14013
:103FF000C55EDE4F8883CB51D140C45EDE4F8883DF
:10400000CC51D140C35EDE4F8883CD51D140C25EDA
:10401000DE4F8883CE51D140C15EDE4F8883CF51C1
:10402000D140C05EDE4F8883C052D140CF5DDE4FAD
:104030008883C152D140CE5DDE4F8883C252D140C9
:10404000AE01475E5E4F6AE070E087EA9AE00E9448
:10405000151788EDC75EDE4F8883C951D140AE0188
:10406000475E5E4F61E070E086EB9AE00E941517B4
:10407000ECE2F2E0DE01A75DBE4F01900D921A95D1
:10408000E1F7AE01475D5E4F69E070E088EB94E0D8
:104090000E94151744E050E06BE870E0CE01875DA8
:1040A0009E4F0E94BA33AE01475D5E4F64E070E000
:1040B00088E99AE00E9415170E94D41580E2C75D36
:1040C000DE4F8883C952D14088E2C65DDE4F8883C7
:1040D000CA52D14080E3C55DDE4F8883CB52D140C8
:1040E00088E3C45DDE4F8883CC52D140AE01475D8A
:1040F0005E4F64E070E08EE99AE00E9415170E941E
:10410000D41588E190E090936504809364040E9444
:10411000D41580E18093680480EB93E290937F0450
:1041200080937E04CB5EDE4F8881C551D1408111E2
:1041300007C0CA5EDE4F8881C651D140882331F066
:104140008DE491E1909371048093700486E0FE0108
:10415000E55FFE4FAAE6B4E001900D928A95E1F783
:104160008CA5809369048EA51092570580935805FD
:104170008DA590E0909356058093550580901C0680
:104180002091870430918804B0905E05C09081042E
:10419000D0908204F09083041091840400915D0516
:1041A000A09085049090860460E07CE0462F50E06B
:1041B000421753070CF445C1C0928104D092820487
:1041C000F092830410938404A09285049092860454
:1041D00030938804209387048ACB80E090E038CC29
:1041E0008AE399E055CC01E021E041E060E271EA28
:1041F00087E090E00E944F0BEE24E39400E020E083
:104200004AE0672DC55CDE4F7881CB53D14084EC0A
:1042100093E00E946F0AE12C01E020E047E0672D67
:10422000C55CDE4F7881CB53D14088EB93E00E9490
:104230006F0A60E08AE00E94120B61E087E00E9452
:10424000120BF89480916900806380936900EE9A64
:1042500078940E94FB128AE799E090935A05809324
:10426000590583ED94E190935C0580935B0514CC34
:1042700081E090E04DCC01E02D81213009F000E09B
:10428000E1E0C45CDE4FE883CC53D14001CD4CE08B
:104290004A9DF0014B9DF00D1124EB56FB4F6381BD
:1042A00082E0861B682F812F0E94120B5ECD950144
:1042B0002F5F3F4F3093880420938704E12C00E068
:1042C0002C2D40E0672DC55CDE4F7881CB53D1406B
:1042D0000E946F0A4ACDF801EB5DFC4FDE01A75E3C
:1042E000BE4FCD018C0D9D1D24912D933196A817A5
:1042F000B907D1F7AE01475E5E4FB601C8010E9413
:1043000015178111EFCD80912701882309F4EACD9B
:10431000902F812FC75CDE4F99838883C953D1408A
:10432000E0912301F091240120853185C601800FA1
:10433000911D2817390708F4D5CDA0912101B0911E
:1043400022019E01275C3E4F42E05B966C9180818A
:104350000E949A15882309F4C5CDA0912101B0913E
:104360002201E0912301F09124019E01275D3E4F3F
:104370004C2D58966C9180810E942711882309F456
:10438000B1CDA601BE01675D7E4FCE01875E9E4F17
:104390000E94A433892B09F0A5CD0C0D1D1D063FED
:1043A000BBE01B0760F46701C01AD10AE1E1CE1639
:1043B000D10408F490CF80E1C82ED12C8CCF84E0BA
:1043C000C75CDE4F8883C953D140C65CDE4F18827C
:1043D000CA53D140A0912101B0912201E091230163
:1043E000F09124019E01275C3E4F42E05D966C9166
:1043F00080810E949A15882309F474CD81E080930E
:104400003F0188EC90E090934101809340016ACD98
:10441000123009F087CEE12C00E020E04BA5672D9B
:10442000C55CDE4F7881CB53D14082E794E00E9497
:104430006F0A62E0809176040E94120B82EA99E092
:104440006DCE749FC001759F900D11248B569B4FAC
:10445000DC011596EC91E630F1F48820E1F0BCE047
:10446000EB2EFC01A9E8B4E001900D92EA94E1F78B
:10447000215031094217530771F0729FF001739F69
:10448000F00D1124EB56FB4FACE0EA2EDC0101905D
:104490000D92EA94E1F7749FF001759FF00D1124DD
:1044A000EB56FB4F4581413031F4002311F0A82E2B
:1044B000992E6F5F7BCE443029F4BB20D1F3F82EC8
:1044C000192FF7CF4530A9F7BB2099F36C01F1CF35
:1044D000883108F41CCA98EE980F9630A0F48AE14F
:1044E000FE01F396A6EAB5E001900D928A95E1F7F8
:1044F0008EA51092A4058093A5058DA51092A20506
:104500008093A30504CA843240F046E050E069E19C
:1045100072E082E591E00E949433809122068E3110
:1045200039F48DE0809345018CE080934601EFC91A
:10453000982F9D7F4EE050E067E37FE0903279F066
:104540004EE050E069E27FE08F3149F0813219F0AE
:10455000863209F0DCC94EE050E06BE17FE084E494
:1045600091E00E949433D3C9CF93DF9300D000D061
:10457000CDB7DEB720E030E040E057E469837A83CE
:104580008B839C8369817A818B819C810E946332B9
:1045900069837A838B839C8369817A818B819C81F7
:1045A0000E940032CB010F900F900F900F90DF917F
:1045B000CF9108957F928F929F92AF92BF92CF92A8
:1045C000DF92EF92FF920F931F93CF93DF9300D070
:1045D00000D000D00F92CDB7DEB78C016E837F8301
:1045E0002E813F812817390771F480E090E212167E
:1045F00013060CF46DC080E090EA232B09F068C02C
:1046000080E090E065C0990F880B982F8095909579
:104610006801C826D926C81AD90A8E819F81990FA8
:10462000880B982F809590952E813F8128273927D8
:10463000A901481B590B5A83498364EE77EF81EB3C
:104640009DE392DF8D83792E69EF7DE78CEA9EE30F
:104650008BDF7C018E819F819C01990F440B550B50
:104660004801012E000CAA08BB08A981BA81AC152B
:10467000BD050CF041C0D501C4016FE0880F991F42
:10468000AA1FBB1F6A95D1F789839A83AB83BC832A
:10469000BC01CD010E94463349015A01C901990F5D
:1046A000880B982F80959095BC0162277327681B13
:1046B000790B8D81972D0E94690FB4018E0D9F1D7E
:1046C0000E94690FAE81BF811A161B060CF090582C
:1046D00027960FB6F894DEBF0FBECDBFDF91CF9106
:1046E0001F910F91FF90EF90DF90CF90BF90AF9010
:1046F0009F908F907F900895DA01C9012FE0880F75
:10470000991FAA1FBB1F2A95D1F789839A83AB8370
:10471000BC83BC01CD01A50194010E94463349012F
:104720005A01C901990F880B982F80959095BC016B
:1047300068257925681B790B8D81972D0E94690F5B
:10474000B4018E0D9F1D0E94690F9C0180E090E4D2
:104750001016110614F080E090EC821B930BB8CF7A
:104760007F928F929F92AF92BF92CF92DF92EF9201
:10477000FF920F931F93CF93DF93CDB7DEB7EC97E4
:104780000FB6F894DEBF0FBECDBF89AF9AAF1092BF
:10479000640210926302D0906804ED2CF12C809199
:1047A0003E01882311F1809127018823F1F0A09127
:1047B0002101B0912201E0912301F09124019E0199
:1047C0002F5D3F4F42E01C966C9180810E94271123
:1047D000882359F009A11AA11027012710270E15C7
:1047E0001F0508F087C010926202C0906502D09049
:1047F0006602E0906702F090680277E1F594E79432
:10480000D794C7947A95D1F7D0926602C092650288
:104810008090690290906A02A0906B02B0906C0246
:10482000E7E1B594A79497948794EA95D1F790928D
:1048300068028092670240916D0250916E02609111
:104840006F0270917002F7E17595679557954795DE
:10485000FA95D1F750936A02409369020091710270
:10486000109172022091730230917402A7E1359584
:10487000279517950795AA95D1F710936C02009389
:104880006B0280918004009FF001019FF00DF00DFC
:104890001124813009F4A8C1823009F4ACC281111D
:1048A00039C2449FC001459F900D900D11248E0F79
:1048B0009F1F880F991FE0E0F0E8E81BF90B489D67
:1048C000D001499DB00D589DB00D11240C9DC00123
:1048D0000D9D900D1C9D900D11249D01281B390BE1
:1048E000C901BF01880F991F65DE90936102809313
:1048F000600210C2A0912301B0912401E091210136
:10490000F09122018C9111962D913C91369527952D
:104910002017310780F49E012F5D3F4F41E06389EE
:104920000E942711882309F460CF89A184FF03C066
:104930000E94D4155ACFA0912101B0912201E0919B
:104940002301F09124019E012F5F3F4F4D2D1D96B5
:104950006C9180810E942711882309F446CFC801F9
:10496000B7010E94FD32615060936202E0916404DD
:10497000F0916504CF0184719927892B09F432C124
:1049800089819A81AB81BC81BC01CD010E946233D7
:104990004B015C018092650290926602A0926702D0
:1049A000B09268028D819E81AF81B885BC01CD0136
:1049B0000E9462336B017C01C0926902D0926A024C
:1049C000E0926B02F0926C0289859A85AB85BC857A
:1049D000BC01CD010E9462338B019C0100936D02EA
:1049E00010936E0220936F02309370028D859E8526
:1049F000AF85B889BC01CD010E946233AB01BC0117
:104A00004093710250937202609373027093740228
:104A1000C501BB2797FDB095AB2F8BA39CA3ADA37E
:104A2000BEA3C701BB2797FDB095AB2F8FA398A757
:104A3000A9A7BAA7C901BB2797FDB095AB2F8BA734
:104A40009CA7ADA7BEA7CB01BB2797FDB095AB2F09
:104A50008FA798ABA9ABBAAB2BA13CA14DA15EA18E
:104A6000CA01B9010E94EE326BA37CA38DA39EA361
:104A70002FA138A549A55AA5CA01B9010E94EE3255
:104A80006FA378A789A79AA7CBA0DCA0EDA0FEA072
:104A9000C60ED71EE81EF91E2BA53CA54DA55EA58A
:104AA000CA01B9010E94EE32C60ED71EE81EF91ED9
:104AB0002FA538A949A95AA9CA01B9010E94EE3205
:104AC0006BA37CA38DA39EA3C60ED71EE81EF91E62
:104AD0009FE0F91AA1E0CA16D104E104A2E0FA06A7
:104AE00038F00E94D41510926402109263027DCEB9
:104AF000809163029091640291609093640280932C
:104B0000630280E1E6FF39C0282F30E0A1E0B0E089
:104B1000AC0FBD1FA20FB31F9C91DE01A20FB31FEC
:104B200012964C91592F5093010040930000DE01E2
:104B3000A20FB31F13969C91DE01A20FB31F149610
:104B40004C91592F5093030040930200DE01A20FB5
:104B5000B31F15969C91159716962C91392F30936B
:104B60000500209304008A5F209163023091640263
:104B700028603093640220936302E078F170EF2B99
:104B800009F433CE90E0E1E0F0E0EC0FFD1FE80F18
:104B9000F91F3081FE01E80FF91F228130930100D7
:104BA00020930000FE01E80FF91F3381FE01E80F9A
:104BB000F91F24813093030020930200FE01E80FC7
:104BC000F91F25818681922F909305008093040020
:104BD0008091630290916402806790936402809355
:104BE000630203CE80E08ECF089DC001099D900D29
:104BF000189D900D11244C9D90014D9D300D5C9D94
:104C0000300D11244C01821A930AB401C4010E9490
:104C1000690F8BA39FA3BC010E94690F8BA7792EFC
:104C2000682F792F0E94690F8BAF9CAF60E670EB05
:104C300089E39DE399DC6BA17FA10E94690F8FA797
:104C400098AB6AE27EEE87E39CE38EDC8BAB9CAB99
:104C50006EEF7AEB87ED9CE387DC6BA17FA10E946E
:104C6000690F8DAB9EAB66EA79EB88EA9CE37CDC4E
:104C70007C0162E377E88AEF9CE376DC6BA17FA19D
:104C80000E94690F8FAB98AF63E87EEC86E39DE3EB
:104C90006BDC5C016AEC79E989E99DE365DC6BA179
:104CA0007FA10E94690F8C016AEA7AEA8AE29EE398
:104CB0005BDC6C016BA5772D8FA598A9ABA9BCA96E
:104CC0008A1B9B0B0E94690F2DA93EA92E0D3F1D2B
:104CD0006BAD7CAD820F931F0E94690F7C016BA5A9
:104CE000772D8FA998AD8A0D9B1D0E94690F8E0D9F
:104CF0009F1DC00ED11E6BA17FA18C0D9D1D0E941A
:104D0000690FB4010E94690F880E991E909261028A
:104D10008092600280916002909161028A39B9E1CB
:104D20009B070CF487C089E999E190936102809315
:104D30006002809160029091610245E0489F90017D
:104D4000499F300D112480916904882319F0319511
:104D50002195310930936102209360023093C6029D
:104D60002093C502032E000C440B550B80916C045C
:104D700090916D04092E000CAA0BBB0B281B390B5C
:104D80004A0B5B0BA0916A04B0916B040E948E33B6
:104D90006BA37CA38DA39EA320E034E040E050E011
:104DA0000E944633DA01C9019058A109B109811561
:104DB000F0E89F07FFEFAF07BF070CF042C080E0AD
:104DC00090E8AFEFBFEFE9ADFAAD93878287EC963D
:104DD0000FB6F894DEBF0FBECDBFDF91CF911F910C
:104DE0000F91FF90EF90DF90CF90BF90AF909F908A
:104DF0008F907F900895CC9CC001CD9C900D900D1C
:104E000011248E0F9F1F880F991FE0E0F0E8E81B28
:104E1000F90B8C9CD0018D9CB00D9C9CB00D112485
:104E2000049FC001059F900D149F900D11248A0FBF
:104E30009B1F57CD8736964E0CF07BCF87E696EEBC
:104E400074CF811520E89207A105B1050CF4BBCF02
:104E50008FEF9FE7A0E0B0E0B6CF8F929F92AF9226
:104E6000BF92CF92DF92EF92FF920F931F93CF9357
:104E7000DF936C01EB0188818058990BF601148255
:104E8000858389818058990B168287838091B70327
:104E90008823E1F12D81822F90E0EB80F4E0EF9EFA
:104EA00070011124AC0134E0559547953A95E1F72E
:104EB00043705527E42AF52A3FEFE31A31E0F30A5D
:104EC0000C81E4E00E9F80011124959587959595BE
:104ED000879583709927082B192B0F5F11408A81C2
:104EE000F4E08F9FC001112422952695269523700A
:104EF000822BB8018F5F91405DDBF601918780873F
:104F0000B801C70157DBF601938782878D81982FFF
:104F100090959170B92EB29490EFB922A12C8695FC
:104F200091E089278170982E9294990C990C20EC2D
:104F30009222812CA828B928B0925B02A0925A0232
:104F4000DF91CF911F910F91FF90EF90DF90CF9065
:104F5000BF90AF909F908F9008951F920F920FB6C1
:104F60000F9211240F931F932F933F934F935F93AF
:104F70006F937F938F939F93AF93BF93EF93FF9321
:104F800083B78E7F83BFE4E6F0E080818071808309
:104F9000E5E6F0E08081867680830E949F0BE4E066
:104FA000FBE70591159125913491E0E0FBE74591F0
:104FB00055916591749181E00E942D12E9E6F0E02F
:104FC00080818F7D8083EE98FF91EF91BF91AF91AB
:104FD0009F918F917F916F915F914F913F912F9111
:104FE0001F910F910F900FBE0F901F9018950F9269
:104FF0000FB60F921F9211248F938091E10082FFD0
:1050000009C08091E20082FF05C08091E1008B7FA2
:105010008093E1008091DA0080FF15C08091D80074
:1050200080FF11C08091DA008E7F8093DA0080913A
:10503000D90019BC80FF7FC082E089BD09B400FEA1
:10504000FDCF81E08BBD8091E10080FF16C0809193
:10505000E20080FF12C08091E2008E7F8093E20028
:105060008091E20080618093E2008091D8008062AC
:105070008093D80019BC85E08BBD8091E10084FF4E
:1050800024C08091E20084FF20C019BC82E089BD69
:1050900009B400FEFDCF8091D8008F7D8093D800A9
:1050A0008091E1008F7E8093E1008091E2008F7E0D
:1050B0008093E2008091E20081608093E200809121
:1050C00019068823D1F184E08BBD8091E10083FF34
:1050D0002CC08091E20083FF28C08091E100877F8F
:1050E0008093E10082E08BBD109219068091E1006F
:1050F0008E7F8093E1008091E2008E7F8093E200BA
:105100008091E20080618093E2001092E90080913A
:10511000EB0081608093EB001092ED001092EC00A8
:1051200082E38093ED008091EE008F911F900F90AD
:105130000FBE0F9018951BBC86CF8091E30087FFB0
:1051400002C083E0C1CF81E0BFCF1F921FB61F9284
:1051500011248F939F93AF93BF938091AF0290914F
:10516000B002A091B102B091B2020196A11DB11D91
:105170008093AF029093B002A093B102B093B202B9
:10518000BF91AF919F918F911F901FBE1F90189557
:105190001F920F920FB60F9211242F933F934F93AC
:1051A0005F936F937F938F939F93AF93BF93EF938F
:1051B000FF938091B900887F883309F461C0B8F506
:1051C000803291F168F5883009F452C0A0F4882348
:1051D00009F472C0FF91EF91BF91AF919F918F91B0
:1051E0007F916F915F914F913F912F910F900FBEE3
:1051F0000F901F9018958031D9F1883159F790910F
:10520000970280919602981750F5E091970281E0FD
:105210008E0F80939702F0E0EA58FD4F80812AC0FC
:10522000883269F38033B1F68093750207C0803508
:1052300079F138F48034C1F1883461F60E94441069
:10524000C9CF883539F6E091970281E08E0F8093BF
:1052500097028091BB00F0E0EA58FD4F8083809177
:10526000D1038111EBCF81E08093D00384EA0BC09E
:10527000809198028093BB0085EC8093BC00AACFFC
:105280008093750285EC8093BC001092D203A2CF6C
:10529000E091970281E08E0F809397028091BB008E
:1052A000F0E0EA58FD4F808390919702809196023A
:1052B000981710F385E8E1CF10927502BFCF8F9356
:1052C00081E0809307038F911895CDB7DEB7C65460
:1052D000D1090FB6F894DEBF0FBECDBF0E94001BF0
:1052E000E4E0FBE70591159125913491E0E0FBE7BF
:1052F000459155916591749181E00E942D120E9413
:10530000D1096DAF7EAF8FAF21969FAF21972596C4
:105310001CAE1DAE1EAE1FAE25970E94D10969AF0F
:105320007AAF8BAF9CAFDC01CB0121962CAD3DADAC
:105330004EAD5FAD2197821B930BA40BB50B813C47
:105340009742A940B105A8F10E94D1096DAF7EAF87
:105350008FAF21969FAF219710927A0080E00E9434
:10536000E40B1982BE016F5F7F4F80E00E94111035
:1053700069816D7F80E00E945A0F809164008F6E7A
:10538000809364008091650089698093650083B78C
:10539000817F846083BFF8948091690080628093EC
:1053A0006900EE9A80E48CBB83B7816083BF7894F8
:1053B00088950E94D10969AF7AAF8BAF9CAF80917D
:1053C000B2039091B303A091B403B091B50349AD7A
:1053D0005AAD6BAD7CAD481B590B6A0B7B0B8091B2
:1053E000200690E0A0E0B0E084179507A607B70775
:1053F00008F099C3E0915B05F0915C05309719F0D6
:1054000086EA93E0099580917803882309F4C1C066
:1054100000E613E0F12C8F2D0E94E90AD8012D91AE
:105420003D918D01821B930B97FF03C09195819550
:1054300091094F970CF4A8C082E18F0D809305016C
:1054400010927803C12CFCE0DF2EEC2CF12C809123
:10545000870490918804E816F9060CF4EFC1809156
:105460005F05882309F445C08091A6039091A703A6
:10547000837F9093A7038093A6036091AA03709102
:10548000AB03209157053091580544275527421BFF
:10549000530B641775072CF484609093A7038093D3
:1054A000A603261737074CF48091A6039091A70313
:1054B00088609093A7038093A6036091AC037091DA
:1054C000AD03641775074CF48091A6039091A70370
:1054D00082609093A7038093A603261737074CF4A6
:1054E0008091A6039091A70381609093A703809376
:1054F000A60380911D06882391F0E0917004F0913D
:105500007104309719F086EA93E00995E0917E04E2
:10551000F0917F04309719F086EA93E00995809125
:105520001C0681115AC2809118068111D6C280E0F2
:105530000E94680A80E00E94680A80E00E94680A6F
:1055400080E00E94680AE0ECEE2EE5E0FE2E08E026
:1055500013E0C12CD12CD7016C911196BC91B9AF3D
:10556000F70182807380D8018C911196BC901197BD
:105570001296AC90129713969C90611180C2811183
:105580008FC200E010E0A6C2F394BCE0FB1243CF50
:1055900059CF809191038823E9F000E010E0802F3B
:1055A0000E94EA0B811110C0802F0E94D00AF801DE
:1055B000E758FC4F9081891739F00E94FF0B009348
:1055C0000501109291033ECF0F5F1F4F0831110567
:1055D00031F738CF6091350470913604611571054B
:1055E00009F45CC080910101811130C080917A0082
:1055F00086FD54C080917800909179002091D3036A
:105600003091D403A901F3E0440F551FFA95E1F757
:10561000FA01EB52FC4FA781A11104C0E281E11114
:105620004BC09250E6E0880F991FEA95E1F74B5284
:105630005C4FFA01948383832F5F3F4F6217730798
:1056400009F441C03093D4032093D3031092010195
:10565000E091D303F091D40383E0EE0FFF1F8A950E
:10566000E1F7EB52FC4F88E0DE01119601900D92BC
:105670008A95E1F790917B008A81880F880F80726C
:105680009F7D892B80937B008A81877080648093C3
:105690007C0080917A00806480937A004091350488
:1056A0005091360427965FAF4EAF2797F0901D06B6
:1056B00010E0A6E0EA2E25C0E0E0F2E0DF01A81B42
:1056C000B90BCD01AFCF1092D4031092D303BECF4C
:1056D00003E0EE0FFF1F0A95E1F7EB52FC4F88E065
:1056E000DE01119601900D928A95E1F78885882355
:1056F000A1F08C819D81E981F0E0E555FD4F80832B
:105700001F5FE12F012E000CFF0B27968EAD9FAD82
:105710002797E817F907E4F295CE153031F4FF200A
:1057200021F080915B04823059F30981C02ED12C85
:105730008C819D814601880C991CF401E554FD4F34
:1057400091838083EC9CF001ED9CF00D1124E95CC9
:10575000FB4FA480B5802C813D81032E000C440BAF
:10576000550B82819381092E000CAA0BBB0B281BC1
:10577000390B4A0B5B0BA081B181D0D769AF7AAFEF
:105780008BAF9CAF20E034E040E050E07FD7DA01FF
:10579000C9019058A109B1098115F0E89F07FFEFF1
:1057A000AF07BF07ACF480E090E8AFEFBFEFA50113
:1057B0000B2C000C660B770B0230A8F484179507AE
:1057C000A607B707CCF1F601EA55FC4F928398CFB4
:1057D000811520E89207A105B1054CF38FEF9FE7F3
:1057E000A0E0B0E0E4CFFF2089F0043079F4841722
:1057F0009507A607B70724F480E090E8AFEFBFEF66
:10580000F401EA55FC4F918380837ACF8417950782
:10581000A607B707ACF7222733272A193B09032E1F
:10582000000C440B550B281739074A075B0744F750
:1058300080E090E0DC01E4CF90E8C5CFDE9C800101
:10584000DF9C100D11240B561B4F80915D058823A2
:1058500041F0D80115968C91A0908504B0908604F3
:10586000811158010E94D10969AF7AAF8BAF9CAF0B
:10587000F50186819781A085B18549AD5AAD6BADA3
:105880007CAD481B590B6A0B7B0B828590E0A0E036
:10589000B0E084179507A607B70708F092C0E0911B
:1058A0005905F0915A05C8010995082F80915E05A8
:1058B000882369F1DE9CF001DF9CF00D1124EB568A
:1058C000FB4F85818450823010F5E0915905F091AD
:1058D0005A0580918304909184040995882309F4E2
:1058E00072C0E0915905F0915A0580918104909120
:1058F00082040995882309F466C08091A6039091DB
:10590000A70394609093A7038093A60300E080917F
:105910001C06882391F0DE9CF001DF9CF00D112421
:10592000EB56FB4F85818F3041F4E0915905F091A2
:105930005A0589E894E00995082B10E0DE9CC00127
:10594000DF9C900D11249C012B563B4F7901D9010E
:1059500015968C91E1E0F0E002C0EE0FFF1F8A95F2
:10596000E2F7CF012091A6033091A703822393236E
:105970000817190731F10E94D109D50116966D93C8
:105980007D938D939C931997F701258181E090E099
:10599000022E02C0880F991F0A94E2F78095909515
:1059A0004091A6035091A7038423952302C0000FC2
:1059B000111F2A95E2F7082B192B1093A7030093C8
:1059C000A603C39442CD8091A6039091A7039B7F29
:1059D0009093A7038093A6039ACF8E010F5F1F4F6A
:1059E000980143E062E18EE00E9427119801409106
:1059F000A6035091A7038823A1F18A81882379F116
:105A00008981582B51605093A7034093A6038B8143
:105A1000F0E28F02C00111249093AB038093AA039C
:105A200043E062E18DE00E9427112091A6033091AE
:105A3000A7038823F1F08A818823C9F08981382B54
:105A400032603093A7032093A6038B8120E2820269
:105A5000C00111249093AD038093AC0364CD5E7FAD
:105A6000D2CF5E7F5093A7034093A603D9CF3D7F4B
:105A7000E8CF3D7F3093A7032093A60354CD911028
:105A80000FC0B1100DC0A1100BC0615086EA93E0A9
:105A90000E94800EB82E882319F0972CA82CB9AC40
:105AA0008FEF0E94680A892D0E94680A8A2D0E9441
:105AB000680A8B2D0E94680ABFEFCB1ADB0AE4E06C
:105AC000EE0EF11C0C5F1F4F46CD8FEF0E94680A4F
:105AD000005F1F4F0C151D05C4F34CE050E06AE950
