:100000000C94AA080C94C7080C94C7080C94C70851
:100010000C94C7080C94C7080C94C7080C94C70824
:100020000C94C7080C94E1230C9400250C94B5257E
:100030000C94C7080C94C7080C94C7080C94C70804
:100040000C94C7080C94C7080C94C7080C94C708F4
:100050000C94C7080C94C7080C94C7080C944C2344
:100060000C941A230C94C7080C94C7080C94C70866
:100070000C94C7080C946F230C94C7080C94C70801
:100080000C94C7080C94C7080C94C7080C94C708B4
:100090000C94E7230C94C7080C94C7080C94C70869
:1000A0000C94C7080C94C7080C94C708036EDB3681
:1000B0003D9A9999993DABAAAA2A3E000000803F3B
:1000C000084AD73B3BCE016E84BCBFFDC12F3D6CBF
:1000D00074319ABD56833DDA3D00C77F11BED9E425
:1000E000BB4C3E916BAAAABE000000803F072C7A51
:1000F000A5BA6CC590DA3B9365FC8BBC53F810FD38
:100100003C5692834DBD879D3AB63DCBC9BF5BBE81
:1001100073DA0FC93F0012034100720064007700D8
:10012000690069006E006F00000014037300610035
:100130006E006A0061007900390030003000000074
:100140000403090405010906A101050719E029E7CF
:100150001500250175019508810295017508810139
:100160000508190129059505750191029501750389
:100170009101150026FF000507190029FF95067556
:10018000088100C005010902A1010902A1020901BB
:10019000A10005091901290515002501750195051D
:1001A000810275039501810305010930093115812B
:1001B000257F750895028106A102094815002501D1
:1001C0003501450475029501A4B102093815812550
:1001D0007F3500450075088106C0A1020948B4B109
:1001E00002350045007504B103050C0A380215817B
:1001F000257F75088106C0C0C0C005010905A101A1
:1002000015002501350045017501950D05091901F8
:10021000290D81029503810105012507463B0175E2
:100220000495016514093981426500950181012613
:10023000FF0046FF0009300931093209357508957C
:100240000481020600FF092009210922092309244B
:1002500009250926092709280929092A092B950CA6
:1002600081020A21269508B1020A2126910226FF61
:100270000346FF03092C092D092E092F751095043B
:100280008102C012034D005300460054003100307B
:10029000003000200040012A0116010902BF0004BD
:1002A0000100207D0904000002FF5D010009071123
:1002B000010001228900142110010025811403038B
:1002C0000304130208030300000007240100014196
:1002D0000006240201010006240202020009240390
:1002E00001030102010009240302040101010009C4
:1002F0000581032000010000052501010309050215
:100300000320000100000525010101080B02020283
:10031000020100090402000102020100052400108C
:1003200001042402060524060203070582030800CF
:10033000FF09040300020A00000007050402200070
:1003400005070583024000050904010000010100C2
:1003500000092401000109000101920000012001AF
:1003600000021002822804004B070D0FBA12BA12C5
:10037000BA12BA120912AD1BAD1B12010002000025
:1003800000080912822822310102DC01020F00015B
:100390000001010115D4A20002000000FFFFFFFFD1
:1003A000FFFFFFFFFFFFFFFFFFFFFFFFFF00FF005B
:1003B000FF00FF00FF00FF00404005B80B04160DD2
:1003C0000E0F33280B504F525151FFFFFFFFFFFF1D
:1003D000FFFFFFFFFFFFFF400D0E100F09000000A1
:1003E000000000000000000000000000000000808D
:1003F00000000000FF0000FFFF00FF0000000045BC
:10040000FF000000000000000000000000000000ED
:1004100000000000000000000000000000000000DC
:1004200000000000000000000000000000000000CC
:1004300000000000000000000000000000000000BC
:1004400000000000000000000000000000000000AC
:10045000000000000000000000000000000000009C
:10046000000000000000000000000000000000008C
:10047000000000000000000000000000000000007C
:1004800000000000000000000000700000000024D8
:10049000000000020003000000650054FFEF0000B0
:1004A000FA80000B12820001030C30C30E8C8CE921
:1004B00014D5400213710F8E3883F8833000F8830F
:1004C000258EF8833000F883FFFFFFFF0FFEA9D6CB
:1004D000240004001A8279A10000003CFFFF000004
:1004E0000010000038836FA2003E0330400000007F
:1004F00002CAE3093E800000200000000000000066
:100500004000000060000000000C0000000C186EAD
:10051000000006920A16C0DFFFFF0256FD8CD3775B
:10052000FFE1C496E0C5BEAA00000000FFFF0B2B50
:1005300000001657000003594000000000001DFA9B
:1005400000026C1D000000003FFFDFEB003EB3B671
:10055000000D227800002F3C00000000001942B579
:10056000000039A20000B365D90E9FC91DCF4C34DD
:1005700030000000500000003BB67AE80064000044
:1005800000C8000000000000100000001000FA92F7
:100590001000225E000D229F0001000000320000CA
:1005A000FF46000063D400001000000004D60000E5
:1005B00004CC000004CC00000000107200000040D9
:1005C0000000000000000000000600020005000717
:1005D00000000000006400000000000000000005B2
:1005E0000005006400200000000000000000000082
:1005F000000040000000030000000032F8980000F6
:10060000FF650000830F0000FF9BFC00000000005E
:1006100000000000000000000000000000000000DA
:1006200000000000000000000000000000000000CA
:100630000000000000001000400000000000000664
:100640000000B26A000200000001FB8300680000A5
:1006500000D9FC007CF1FF83000000000065000071
:10066000006403E80064002800000025000000008A
:1006700016A000000000100000001000002F000075
:10068000000001F40000100000280000FFFF458179
:10069000FFFFFA72000000000000000000440005A7
:1006A0000005BAC6004778A2000000010000000063
:1006B00000000600000000140000254D002F706DA2
:1006C000000005AE000C02D0000000000000000099
:1006D0000000000000000000001B000000000000FF
:1006E000000000000000000000640000000800009E
:1006F00000000000000000000000000000000000FA
:1007000000000000000000000000000000000000E9
:1007100000000000000000000000000000000000D9
:1007200000000000000000000000000000000000C9
:1007300000000000000000000000000000000000B9
:100740000000000000000000001B0000000000008E
:1007500000000000000E000E00000AC700040000A8
:1007600000000032FFFFFF9C00000B2B0000000286
:100770000000000100000064FFE500000000000030
:100780000000000000000000000000010000000068
:100790000001000000000000000180000001800056
:1007A00000018000002426D30000000000000000AB
:1007B000000600100096003C000000000000000051
:1007C00000000000000000000C0A4E68CDCF770941
:1007D00050166759C619CE820000000000000000C4
:1007E0000000000000000000000000000000000009
:1007F00017D7840003000000000000000000000084
:10080000C7938F9D1E1B1C190000000000000000F4
:1008100000000000000000000000000000000000D8
:1008200002031885000040000000000300000003E0
:100830000000000000000000400000000000000078
:1008400000000000000000000000000000000000A8
:100850000000000000000000000000000000000098
:10086000000000000000000000000000677DDF7E47
:1008700072902E554CF6E688000000000000000043
:100880000000000000000000D8DCB4B8B0D8B9AB5C
:10089000F3F8FAB3B7BB8E9EAEF132F51BF1B4B8E4
:1008A000B08097F1A9DFDFDFAADFDFDFF2AAC5CDD5
:1008B000C7A90CC92C97F1A989264666B28999A9BE
:1008C0002D557DB0B08AA896365676F1BAA3B4B24B
:1008D00080C0B8A89711B28398BAA3F02408441036
:1008E0006418B2B9B49883F1A329557DBAB5B1A300
:1008F0008393F0002850F5B2B6AA839328547CF174
:10090000B9A3829361BAA2DADEDFDB819AB9AEF5D0
:10091000606870F1DABAA2DFD9BAA2FAB9A38292FA
:10092000DB31BAA2D9BAA2F8DF85A4D0C1BBAD83AE
:10093000C2C5C7B8A2DFDFDFBAA0DFDFDFD8D8F1DA
:10094000B8AAB38DB4980D355DB2B6BAAF8C96190E
:100950008F9FA70E161EB49AB8AA872C547CBAA4EF
:10096000B08AB691325676B28494A4C808CDD8B86D
:10097000B4B0F19982A82D557D98A80E161EA22C10
:10098000547C92A4F02C5078F184A898C4CDFCD863
:100990000DDBA8FC2DF3D9BAA6F8DABAA6DED8BAD0
:1009A000B2B68696A6D0F3C841DAA6C8F8D8B0B4D5
:1009B000B882A892F52C548898F135D9F418D8F15A
:1009C000A2D0F8F9A884D9C7DFF8F883C5DADF69BF
:1009D000DF83C1D8F40114F1A8824EA884F311D1A9
:1009E00082F5D992289788F109F41C1CD884A8F3C1
:1009F000C0F9D1D99782F129F40DD8F3F9F9D1D9F9
:100A000082F4C203D8DEDF1AD8F1A2FAF9A88498DA
:100A1000D9C7DFF8F8F883C7DADF69DFF883C3D80E
:100A2000F40114F198A8822EA884F311D182F5D98B
:100A300092509788F109F41CD884A8F3C0F8F9D132
:100A4000D99782F149F40DD8F3F9F9D1D982F4C4D8
:100A500003D8DEDFD8F1AD8898CCA809F9D9829205
:100A6000A8F57CF1883ACF944A6E98DB6931DAAD0B
:100A7000F2DEF9D88795A8F221D1DAA5F9F417D9D1
:100A8000F1AE8ED0C0C3AE82C684C3A88595C8A57A
:100A900088F2C0F1F4010EF18E9EA8C63E56F554C0
:100AA000F18872F40115F19845856EF58E9E0488E3
:100AB000F142985A8E9E068869F4011CF1981E1125
:100AC00008D0F504F11E970202983625DBF9D98586
:100AD000A5F3C1DA85A5F3DFD88595A8F309DAA5D2
:100AE000FAD88292A8F578F1881A849F26889821EE
:100AF000DAF41DF3D8879F39D1AFD9DFDFFBF9F4E2
:100B00000CF3D8FAD0F8DAF9F9D0DFD9F9D8F40B28
:100B1000D8F3879F39D1AFD9DFDFF41DF3D8FAFCC2
:100B2000A869F9F9AFD0DADEFAD9F88F9FA8F1CC2D
:100B3000F398DB45D9AFDFD0F8D8F18F9FA8CAF37F
:100B40008809DAAF8FCBF8D8F2AD978D0CD9A5DF35
:100B5000F9BAA6F3FAF412F2D8950DD1D9BAA6F3E0
:100B6000FADAA5F2C1BAA6F3DFD8F1BAB2B6869620
:100B7000A6D0CAF349DAA6CBF8D8B0B4B8D8AD84B9
:100B8000F2C0DFF18FCBC3A8B2B68696C8C1CBC383
:100B9000F3B0B48898A821DB718D9D71859521D91A
:100BA000ADF2FAD88597A828D9F408D8F28D29DAB9
:100BB000F405D9F285A4C2F2D8A88D9401D1D9F454
:100BC00011F2D88721D8F40AD8F28498A8C801D1A4
:100BD000D9F411D8F3A4C8BBAFD0F2DEF8F8F8F816
:100BE000F8F8F8F8D8F1B8F6B5B9B08A95A3DE3CB4
:100BF000A3D9F8D85CA3D9F8D87CA3D9F8D8F8F948
:100C0000D1A5D9DFDAFAD8B18530F7D9DED8F830F6
:100C1000ADDADED8F2B48C99A32D557DA083DFDF49
:100C2000DFB591A0F629D9FBD8A0FC29D9FAD8A024
:100C3000D051D9F8D8FC51D9F9D879D9FBD8A0D05E
:100C4000FC79D9FAD8A1F9F9F9F9F9A0DADFDFDFEF
:100C5000D8A1F8F8F8F8F8ACDEF8ADDE8393AC2C48
:100C6000547CF1A8DFDFDFF69D2CDAA0DFD9FADBB8
:100C70002DF8D8A850DAA0D0DED9D0F8F8F8DB5596
:100C8000F8D8A878DAA0D0DFD9D0FAF8F8F8F8DBED
:100C90007DF8D89CA88CF530DB38D9D0DEDFA0D029
:100CA000DEDFD8A848DB58D9DFD0DEA0DFD0DED821
:100CB000A868DB70D9DFDFA0DFDFD8F1A888902C2F
:100CC000547C98A8D05C38D1DAF2AE8CDFF9D8B079
:100CD00087A8C1C1B188A8C6F9F9DA36D8A8F9DA67
:100CE00036D8A8F9DA36D8A8F9DA36D8A8F9DA3633
:100CF000D8F78D9DADF818DAF2AEDFD8F7ADFA303F
:100D0000D9A4DEF9D8F2AEDEFAF983A7D9C3C5C7F4
:100D1000F1889BA77AADF7DEDFA4F8849408A79743
:100D2000F300AEF29819A488C6A39488F632DFF2D5
:100D30008393DB09D9F2AADFD8D8AEF8F9D1DAF378
:100D4000A4DEA7F1889B7AD8F38494AE19F9DAAAC5
:100D5000F1DFD8A881C0C3C5C7A39283F628ADDE52
:100D6000D9F8D8A350ADD9F8D8A378ADD9F8D8F828
:100D7000F9D1A1DADEC3C5C7D8A18194F818F2B0C1
:100D800089ACC3C5C7F1D8B8B4B09786A8319B0663
:100D90009907AB9728889BF00C201440B0B4B8F0AA
:100DA000A88A9A285078B79BA82951792470594469
:100DB0006938644831F1BBAB88002C547CF0B38BAC
:100DC000B8A804285078F1B088B49726A85998BBE1
:100DD000ABB38B02264666B0B8F08A9CA82951793D
:100DE0008B2951798A2470598B2058718A4469382B
:100DF0008B3940688A6448318B30496088F1AC0097
:100E00002C547CF08CA804285078F1889726A85997
:100E100098AC8C02264666F0899CA82951792470EA
:100E200059446938644831A98809205970AB113890
:100E30004069A8193148608CA83C415C207C00F1D5
:100E400087981986A86E767EA999882D557DD8B188
:100E5000B5B9A3DFDFDFAED0DFAAD0DEF2ABF8F9A1
:100E6000D9B087C4AAF1DFDFBBAFDFDFB9D8B1F1FA
:100E7000A3978E60DFB084F2C8F8F9D9DED89385E5
:100E8000F14AB183A308B5839A0810B79F10D8F12F
:100E9000B0BAAEB08AC2B2B68E9EF1FBD9F41DD8FC
:100EA000F9D90CF1D8F8F8AD61D9AEFBD8F40CF152
:100EB000D8F8F8AD19D9AEFBDFD8F416F1D8F8ADF3
:100EC0008D61D9F4F4ACF59C9C8DDF2BBAB6AEFAEB
:100ED000F8F40BD8F1AED0F8AD51DAAEFAF8F1D89B
:100EE000B9B1B6A3839C08B9B1839AB5AAC0FD3045
:100EF00083B79F10B58B93F20202D1ABDADED8F143
:100F0000B080BAABC0C3B284C1C3D8B1B9F38BA3AC
:100F100091B609B4D9ABDEB0879CB9A3DDF1B38B30
:100F20008B8B8B8BB087A3A3A3A3B28BB69BF2A3AF
:100F3000A3A3A3A3A3A3A3A3A3F1B087B59AA3F3E9
:100F40009BA3A3DCBAACDFB9A3A3A3A3A3A3A3A3CE
:100F5000A3A3A3A3A3A3A3A3D8D8D8BBB3B7F1AA31
:100F6000F9DAFFD9809AAA28B48098A720B7978782
:100F7000A86688F07951F1902C870CA7819762932D
:100F8000F071716085940129517990A5F1284C6C1C
:100F9000870C95188578A38390284C6C886CD8F3BF
:100FA000A28200F210A8921980A2F2D926D8F18864
:100FB000A84DD948D896A83980D93CD89580A83969
:100FC000A68698D92CDA87A72CD8A8899519A98044
:100FD000D938D8A88939A980DA3CD8A82EA8399060
:100FE000D90CD8A8953198D90CD8A809D9FFD8011F
:100FF000DAFFD89539A9DA26FFD890A80D8999A8E3
:1010000010809821DA2ED88999A83180DA2ED8A8B4
:1010100086963180DA2ED8A8873180DA2ED8A88239
:1010200092F34180F1D92ED8A882F31980F1D92EFC
:10103000D882ACF3C0A28022F1A62EA72EA92298B6
:10104000A829DAACDEFFD8A2F22AF1A92E8292A852
:10105000F23180A696F1D900AC8C9C0C30ACDED07D
:10106000DEFFD88C9CACD010ACDE8092A2F24C8219
:10107000A8F1CAF235F19688A6D900D8F1FF0E0C76
:101080000D0F08FFFF09050406070A0B0F0C0D0ED4
:1010900008FFFF09050406070A0B0F0C0D0E0908CF
:1010A000FFFF050406070A0B6D6963726F00313696
:1010B000303030303030554C0061746D65676133CD
:1010C000327534006172647769696E6F007665729B
:1010D00073696F6E2D342E332E350000000000250D
:1010E0000028002B002E0031000000000024002703
:1010F000002A002D003000070605040100080A0B35
:101100000C0D09000000002300260029002C002FF0
:10111000000404040404030405020202020403029E
:10112000020202060606060606040402020204047F
:1011300004080201104080401020408040800802D6
:10114000040180402010020110801020404020FF48
:10115000080F0C0011241FBECFEFDAE0DEBFCDBFB9
:1011600012E0A0E0B1E0EEEAFCE602C005900D92CC
:10117000A638B107D9F728E0A6E8B2E001C01D9271
:10118000A232B207E1F70E9479290C9455360C94EB
:101190000000F89488E198E00FB6F894A895809341
:1011A00060000FBE90936000FFCF21E030E03093ED
:1011B000C3072093C207843309F455C108F076C0F1
:1011C0008B3109F41DC1C8F58C3009F401C1E8F474
:1011D000843009F4F1C078F4823009F4E7C038F4BF
:1011E000882309F4D9C0813009F4DDC00895833023
:1011F00009F4DFC008958A3009F4E4C08B3009F4A3
:10120000E4C0863009F4DBC00895873109F4ECC0EE
:1012100050F4853109F4E2C0863109F4E2C084312A
:1012200009F4D9C00895893109F4E4C08A3109F478
:10123000E4C0883109F4DBC00895843209F4FBC0AE
:10124000E8F4803209F4EBC078F48E3109F4E1C09F
:1012500038F48C3109F4D7C08D3109F4D7C0089522
:101260008F3109F4D9C00895823209F4DEC0833287
:1012700009F4DEC0813209F4D5C00895883209F43A
:10128000E6C050F4863209F4DCC0873209F4DCC0D1
:10129000853209F4D3C00895823309F4DEC0833364
:1012A00009F4DEC0893209F4D5C00895853409F403
:1012B00013C1C8F58D3309F4F1C0E8F4893309F49A
:1012C000E1C078F4873309F4D7C038F4853309F4E2
:1012D000CDC0863309F4CDC00895883309F4CFC05A
:1012E00008958B3309F4D4C08C3309F4D4C08A3305
:1012F00009F4CBC00895813409F4DCC050F48F3375
:1013000009F4D2C0803409F4D2C08E3309F4C9C0C4
:101310000895833409F4D4C0843409F4D4C08234E9
:1013200009F4CBC008958A3509F403C1E8F4823585
:1013300009F4F3C078F4803509F4E9C038F4863450
:1013400009F4D3C0873409F4D9C00895813509F46C
:10135000E1C00895843509F4E6C0853509F4E6C096
:10136000833509F4DDC00895863609F4EBC050F4E6
:101370008C3509F4E4C0853609F4F4C08B3509F4E2
:10138000DBC008958F3609F4FAC0803709F4F4C041
:101390008E3609F4F7C0089580E090E09093C1077D
:1013A0008093C007089581E090E0F8CF82E090E05C
:1013B000F5CF8EE290E0F2CF8FE290E0EFCF84E0C5
:1013C00090E0ECCF85E090E0E9CF86E090E0E6CFDA
:1013D00087E090E0E3CF80E190E0E0CF81E190E032
:1013E000DDCF82E190E0DACF83E190E0D7CF84E1F6
:1013F00090E0D4CF85E190E0D1CF86E190E0CECFF0
:1014000087E190E0CBCF88E190E0C8CF89E190E020
:10141000C5CF8AE190E0C2CF8BE190E0BFCF8CE1F5
:1014200090E0BCCF8DE190E0B9CF8EE190E0B6CFF7
:101430008FE190E0B3CF80E290E0B0CF82E290E025
:10144000ADCF84E290E0AACF86E290E0A7CF88E219
:1014500090E0A4CF8AE290E0A1CF81E390E09ECF1C
:1014600082E390E09BCF83E390E098CF84E390E029
:1014700095CF85E390E092CF86E390E08FCF87E32E
:1014800090E08CCF88E390E089CF89E390E086CF2D
:101490008AE390E083CF8BE390E080CF8CE390E011
:1014A0007DCF8DE390E07ACF8EE390E077CF8FE32E
:1014B00090E074CF80E490E071CF81E490E06ECF53
:1014C00082E490E06BCF82E090E09093C30780933A
:1014D000C20783E490E062CF82E090E09093C3077C
:1014E0008093C20785E490E059CF82E090E090932A
:1014F000C3078093C20787E490E050CF82E090E07A
:101500009093C3078093C20789E490E047CF81E2BC
:1015100090E044CF83E290E041CF85E290E03ECF7F
:1015200087E290E03BCF89E290E038CF8BE290E019
:1015300035CF8DE290E032CF8CE290E02FCF8BE47C
:1015400090E02CCF82E690E09093C1078093C00793
:1015500081E08093BF0784E090E09093C30780937D
:10156000C20708958CE490E09093C1078093C00770
:1015700081E08093BF07089586EE90E0F5CF80ED7F
:1015800090E0F2CF8AEB90E0EFCFAF92BF92DF9284
:10159000EF92FF920F931F93CF93DF93FC01DA0139
:1015A0008BE190E0EB0199838883D090BE0781E7BF
:1015B000E82E81E0F82E5F0130E020E061E070E08D
:1015C000E70189917E018F3F09F44BC0AB0102C056
:1015D000440F551F8A95E2F78D919C9111974823EE
:1015E000592300811181CB01022E02C0880F991F5F
:1015F0000A94E2F74115510549F1802B912B918313
:1016000080832D1570F59091C3069B3121F5243010
:1016100010F5C901815B9E4EEC0188818B0102C0EF
:10162000000F111F8A95E2F78D919C9111978023ED
:10163000912301E010E0452B11F400E010E0082BAD
:10164000192B81E0012B51F480E008C08095909522
:1016500080239123D4CF81E0452BB1F38195E5011F
:101660008F832F5F3F4FDFEFAD1ABD0A2E3031055C
:1016700009F0A6CFCC91CF7088E0CB3020F4D0E039
:10168000C95ADD4F888182831A962D913C911B9710
:101690008091C3068B3109F052C019968C9119972D
:1016A0008058858387EF91E02F3F3F4711F484E80E
:1016B00091E0948B838B8DE786838091C3068F3175
:1016C00019F08A3109F05AC08081918112962C91CB
:1016D0001297233308F44EC0806191838083808108
:1016E000918113962C911397233308F445C080629F
:1016F0009183808312968C911297838713968C9195
:101700001397848715968C91159780588383179625
:101710008C9117978058848319968C9119978058CB
:1017200085831B968C9180588683DF91CF911F9182
:101730000F91FF90EF90DF90BF90AF9008958D31A3
:1017400019F0803209F0B9CF19969C91199780E869
:10175000891B8583808191812F3F3F4749F48062B7
:101760009183808312969C91129780E8891BA4CF65
:101770008F7DF6CF8F7EB1CF8F7DBACF80E8838308
:101780008483D3CFCF93DF93FC01DA0185E090E02F
:10179000EB019983888315962C911597822F922FB0
:1017A000990F990B97FD079653E0959587955A9554
:1017B000E1F7818317962C911797822F922F990F1B
:1017C000990B91958195910997FD079643E0959521
:1017D00087954A95E1F782831B962C911B97822F60
:1017E000922F990F990B97FD079633E09595879562
:1017F0003A95E1F7838319962C911997822F922FAE
:10180000990F990B97FD079623E0959587952A9553
:10181000E1F784832D913C911197808134FF14C0AE
:101820008160808380812D913C91119735FF0EC09E
:101830008260808380812D913C9136FF09C0886051
:101840008083DF91CF9108958E7FEBCF8D7FF1CF95
:10185000877FF6CFCF92DF92EF92FF920F931F9385
:10186000CF93DF93EC016B01BA01A901F801C70125
:1018700020812630E0F4209771F000271127041B07
:10188000150B601771073CF431962E0D3F2D311D5D
:10189000D9011296CC93C114D10449F046175707C9
:1018A00034F42081820F911DDC011296CC92DF91DD
:1018B000CF911F910F91FF90EF90DF90CF900895FF
:1018C0008F929F92AF92BF92CF92DF92EF92FF9250
:1018D0000F931F93CF93DF930F92CDB7DEB76C01B9
:1018E0004A0188E090E0DB018D939C93E3EFF6E002
:1018F00050E040E080E061E070E091919923A1F038
:10190000D401AD90BC909B01042E02C0220F331F66
:101910000A94E2F72A213B21232B31F0D601A80FAC
:10192000B11D12969C938F5F4F5F5F4F4031510501
:1019300009F05EC08983A090AA06B090AB06F401BE
:10194000448155816091060770E08091050776011A
:101950008E010F5F1F4F950190E07CDFD40116963A
:101960004D915C916091080770E0809107079501A7
:1019700090E070DFF4014085518560910A0770E0C6
:1019800080910907950190E065DFD4011A964D9189
:101990005C9160910C0770E080910B07950190E0DD
:1019A00059DFA090A806B090A906F401428150E04A
:1019B0006091030770E0950190E080E04BDFD40177
:1019C00013964C9150E06091040770E0950190E00F
:1019D00080E040DF0F90DF91CF911F910F91FF903A
:1019E000EF90DF90CF90BF90AF909F908F90089531
:1019F000863009F082CF9ECFCF93DF9300D000D006
:101A0000CDB7DEB73FB7F8948091A4069091A506B4
:101A1000A091A606B091A70626B5A89B05C02F3FAA
:101A200019F00196A11DB11D3FBFBA2FA92F982F04
:101A30008827820F911DA11DB11D9C01AD0162E09F
:101A4000220F331F441F551F6A95D1F7CA01B901F0
:101A50000F900F900F900F90DF91CF910895CF923C
:101A6000DF92EF92FF92CF93DF9300D000D000D0AF
:101A7000CDB7DEB76B017C01BFDF6D837E83BCDF3A
:101A800069837A838B839C8389819A812D813E81AE
:101A9000821B930B883E934090F381E0C81AD108D3
:101AA000E108F1082D813E8128513C4F3E832D8372
:101AB000C114D104E104F10411F726960FB6F8948D
:101AC000DEBF0FBECDBFDF91CF91FF90EF90DF90D3
:101AD000CF900895DC01862F90E0603100F5E09111
:101AE000C306F0E0E25DFD4F2081213049F469300A
:101AF00038F0FD01E80FF91FE45AFF4F8081089587
:101B000081E090E002C0880F991F6A95E2F72D915D
:101B10003C9182239323892BE1F480E00895209166
:101B2000EE06633168F0FC017097EE0FFF1FEA0FBD
:101B3000FB1F81E0408151812417150670F708953D
:101B4000FD01E80FF91F3E9781E090812917B8F356
:101B5000E4CF80E4F4CF7F928F929F92AF92BF92B6
:101B6000CF92DF92EF92FF920F931F93CF93DF9369
:101B70007C018B01842E752E2CE7C22E27E0D22EFD
:101B8000CCEAD6E0912CB12CF60181916F0188232B
:101B900009F190EBA92E813011F480E9A82E692D6E
:101BA000882D972D97DF86959881981799F0F601E3
:101BB00023A59589888334E0B39EF0011124EE0DAE
:101BC000FF1D3A2D32953F703083A22AA182928365
:101BD0008383B3942196939486E19812D5CFE4E061
:101BE000BE9EC0011124F80191838083DF91CF91C3
:101BF0001F910F91FF90EF90DF90CF90BF90AF902B
:101C00009F908F907F90089590E0FC01E05DFE4EE4
:101C10002491FC01EF5EFE4EE491EE2359F0F0E0DA
:101C2000EE0FFF1FED5FFE4EA591B491EC91E22304
:101C300081E009F480E090E00895CF93DF93CDB781
:101C4000DEB761970FB6F894DEBF0FBECDBF8091AF
:101C5000A2069091A30621E1289FF001299FF00D93
:101C60001124EA52FA4F81E1DE01119601900D92A2
:101C70008A95E1F7898180937B008A8180937C003B
:101C8000EAE7F0E080818064808361960FB6F89483
:101C9000DEBF0FBECDBFDF91CF910895E82FF0E0FA
:101CA000E950FF4EE49190917B008E2F880F880FB2
:101CB00080729F7D892B80937B00E770E064E093C6
:101CC0007C0080917A00806480937A0080917A0011
:101CD00086FDFCCF809178009091790008958091E5
:101CE000D4059091D505009771F02091A20630910E
:101CF000A3068217930739F41092D3051092A30616
:101D00001092A2069ACF089581E08093D305809126
:101D10007A0086FDFCCF0895CF93DF9390E0FC011D
:101D2000E05DFE4E24918F5E9E4EFC0184918823DF
:101D3000D1F090E0880F991FFC01E751FF4EA5916B
:101D4000B491FC01E552FF4EC591D491613071F41C
:101D50009FB7F8948C91209582238C9388812823B7
:101D600028839FBF7894DF91CF910895623051F41A
:101D70009FB7F8943C91822F809583238C93E881C0
:101D80002E2BEECF8FB7F894EC912E2B2C938FBF88
:101D9000E9CF0F931F93CF93DF93FC01AB01AEE12B
:101DA000B2E030E020E061E070E08D918F3FC1F063
:101DB000C081D1818B0102C0000F111F8A95E2F70B
:101DC000C8018B01022E02C0000F111F0A94E2F716
:101DD00004231523012B71F08C2B9D2B9183808381
:101DE0002F5F3F4F2031310501F7DF91CF911F91D8
:101DF0000F910895809590958C239D23EFCF0F939D
:101E00001F93CF93DF93EC018B01FB018081805204
:101E1000990B880F880F1C828D8381818052990BCA
:101E2000880F880F1E828F836481758160957095FD
:101E30007E7FCE01AEDF8091C306833280F0F80151
:101E4000838181FF0CC08095807E928196959E73E0
:101E50009A31E0F4FE01E859FF4F9231E1F08881B8
:101E60009981F801258123FD18C0906499838883A6
:101E700088819981F801258125FD11C09068998399
:101E80008883DF91CF911F910F910895FE01EC5946
:101E9000FF4F9E3121F78083E2CF9F7BE7CF9F7773
:101EA000EECFFC01DB018C91880F880F80581482E3
:101EB000858311968C911197880F880F8058168210
:101EC000878313962C9113972F712051330B322F48
:101ED0002227330F330F3195219531093187208720
:101EE00014966D917C9160957095CF0152CFFC0155
:101EF000DB018C918058990B1482858312968C910A
:101F000012978058990B1682878311968C9111979E
:101F10008058990B1086818713968C91139780585F
:101F2000990B1286838714968C9114978283159649
:101F30008C911597838316966D917C916095709521
:101F4000CF0127CFDC01FB018081218122952695DD
:101F50002670982F9695969596959871292B928133
:101F6000991F9927991F292B880F880F805814963D
:101F70001C92149715968C9315978181880F880F62
:101F8000805816961C92169717968C9317979481E3
:101F9000338190FF38C0832F90E0809590958F71AA
:101FA0009927809619969C938E931897022E000C71
:101FB000330B828180FF2DC08FE390E0821B930B57
:101FC0001B969C938E931A9782818695869588712D
:101FD0009381929596959770892B12968C93129770
:101FE000828190E0959587958F7013968C931397C7
:101FF00064817581762767277627609570956D7C5B
:102000007376CD01C6CE3F7180E290E0831B9109CB
:10201000C9CF80E290E0D2CFFC01DB0112968C9117
:10202000129790E0982F882788279F702C91822BF9
:102030009583848312968C91129720E1829FC00130
:10204000112488279F7011962C911197822B9783CA
:10205000868313968C911397838380819181159643
:102060002C91159720FF17C0906191838083808108
:10207000918115962C91159721FF0FC09062918345
:1020800080838081918115962C9122FD08C09064F7
:102090009183808308959F7EE8CF9F7DF0CF9F7BC3
:1020A000F7CFFC01DB018D919C911197958384837F
:1020B00012968D919C9113979783868314968C9199
:1020C00083830895FB0164817581762767277627CE
:1020D000609570955ECE9FB7F894E091CF05F09132
:1020E000D00580812091CE05822B8083E091CC05A4
:1020F000F091CD0580812091CB05822B8083E091EA
:10210000C905F091CA0580812091C805822B808382
:102110009FBF0895CF93DF93EC018091EC0674DDAF
:10212000892B39F090E080E09B878A87DF91CF91FF
:1021300008958FEF9FE7F8CF7F928F929F92AF9293
:10214000BF92CF92DF92EF92FF920F931F93CF93A4
:10215000DF93CDB7DEB765970FB6F894DEBF0FBE3D
:10216000CDBF1092720510927105CEDD1092D5058B
:102170001092D4051092A3061092A20602EC16E06B
:10218000D12C41E1C42ECE0101967C01D701EC2D6A
:102190001D92EA95E9F7DB82D8019096EC91EF3F2A
:1021A00009F443C0B5E0DB120CC0A091C306B0E057
:1021B000A25DBD4F8C91823021F48091C4068330A2
:1021C000A1F5D80191968C918D83E23108F0E2510E
:1021D000F0E0E950FF4EB49061E082E18B0D9CDDB0
:1021E00090917B008B2D880F880F80729F7D892BAB
:1021F0008983EB2DE770E064EA838091D4059091A8
:10220000D5059C012F5F3F4F3093D5052093D40512
:10221000C89ED001C99EB00D1124AA52BA4FF70131
:102220008C2D01900D928A95E1F7D3940E5F1F4F8C
:10223000B6E0DB12ABCF8091D4059091D505909399
:10224000A3068093A2068091C206823009F0D3C013
:10225000E2EDF6E0FD8BEC8B10E000E08824839447
:10226000912CAC89BD898D91BD8BAC8B8F3F09F4CE
:1022700088C091E00C30110538F4980128503109DC
:102280002230310508F090E091700B8B282F30E060
:10229000F901E05DFE4EB491BA8BF901EF5EFE4E9E
:1022A000E491F0E0EE0FFF1FED5FFE4EC590D4907D
:1022B0005401002E02C0AA0CBB1C0A94E2F7992319
:1022C00031F0772473942091C606213009F0712CE7
:1022D000E72DE1707E2EE091C306F0E0E25DFD4F58
:1022E0004081413009F067C0992309F464C020910E
:1022F0000D07F8E02F9F90011124D701E7E01D9210
:10230000EA95E9F78B834A87FA89FB87DD86CC86D5
:10231000BF86AE86788A4B89498B39872887823178
:1023200008F08251E82FF0E0E950FF4ED49061E0D0
:1023300082E18D0DF1DC90917B008D2D880F880F4F
:1023400080729F7D892B8983ED2DE770E064EA839D
:102350008091D4059091D5059C012F5F3F4F30931C
:10236000D5052093D405E1E1E89FD001E99FB00DA8
:102370001124AA52BA4FF70181E101900D928A957A
:10238000E1F70F5F1F4F0031110509F06ACF659625
:102390000FB6F894DEBF0FBECDBFDF91CF911F9176
:1023A0000F91FF90EF90DF90CF90BF90AF909F90F4
:1023B0008F907F9094CC62E0711061E0ADDC209151
:1023C000710530917205C901019690937205809351
:1023D000710547E0429FF001439FF00D1124EF5F2C
:1023E000FA4F8A898083D282C182B482A3827582A5
:1023F0009B899683C6CF65960FB6F894DEBF0FBE55
:10240000CDBFDF91CF911F910F91FF90EF90DF90A3
:10241000CF90BF90AF909F908F907F9008959091B4
:10242000C406913021F49EEF980F923058F09091AD
:10243000C606923029F492EF980F81E0943008F0AC
:1024400080E0089581E00895CF938091000588236E
:1024500059F0C2E08C2FE3DF811103C061E08C2FC3
:102460005BDCCF5FC831B1F71092FF04109200051A
:10247000CF9162CEEF92FF921F93CF93DF93CDB7B0
:10248000DEB761970FB6F894DEBF0FBECDBF9C01DB
:102490008091FF04882359F167EEE62E64E0F62E62
:1024A00010E0812FFBDBD7012D913D917D01821B37
:1024B000930B97FF03C09195819591090B9744F079
:1024C0003BDE1E5E1093E60481E08093E50403C0CA
:1024D0001F5F1C3031F761960FB6F894DEBF0FBE58
:1024E000CDBFDF91CF911F91FF90EF900895809124
:1024F0000005609171057091720517E0882381F1E4
:1025000012E0812F8CDF811106C0812F7DDB892BAA
:1025100011F49ADFD7CF1F5F183199F7DCCF149FE2
:10252000F001159FF00D1124EF5FFA4FA181B281E8
:102530009C9140819423819FD0011124AF5FBA4FB9
:1025400015964C9194130BC0D9014D915C91119744
:102550000380F481E02D4E2B5F2B4D935C938F5FB6
:10256000482F50E046175707D4F240E061E1842F2E
:10257000042E000C990BE091D405F091D5058E172F
:102580009F0764F061960FB6F894DEBF0FBECDBF13
:10259000DF91CF911F91FF90EF90A1CB689FF00149
:1025A000699FF00D1124EA52FA4FDE011196862F31
:1025B00001900D928A95E1F78A855B818823D9F095
:1025C000EE81FF81888599858E179F0750F4F90168
:1025D00080819181EE85FF858E2B9F2BD9018D9374
:1025E0009C938E819F81F901E50FF11DE45AFF4F05
:1025F00080834F5FBCCF852F90E0523050F0AE818A
:10260000BF81880F991FF901E80FF91FB183A083DB
:10261000F0CFEE81FF81820F931FDC011296FC93B5
:10262000E8CFFC01CB0120914B0330914C032617DE
:10263000370790F0009729F42091E8002E77209337
:10264000E80040E0009751F4411108C08091E80093
:1026500082FF30C080E00895C901F3CF2BB522235B
:10266000A1F12530A1F12091E80023FD2CC020919B
:10267000E80022FDEBCF2091E80020FFE3CF30916E
:10268000F3002091F200009719F02830310558F03E
:1026900041E02830310509F040E02091E8002E7734
:1026A0002093E800CFCF41914093F10001972F5F35
:1026B0003F4FE9CF8BB5882341F0853041F08091C1
:1026C000E80083FFC3CF81E0089582E0089583E0AE
:1026D00008958093E900EBEEF0E0808181608083D3
:1026E000EDEEF0E010826093EC0040838091EE000C
:1026F000881F8827881F08958091450387FF11C090
:102700008091E80082FF06C08091E8008B7780937B
:10271000E80003C08BB58111F3CF08958BB58823F2
:10272000E1F38091E80080FFF9CF8091E8008E7797
:10273000EECF2091E4003091E50095E6A9012091CB
:10274000EC00822F817020FF06C08091E80080FF9E
:1027500006C080E008952091E80022FD19C08BB5E5
:10276000882389F0853089F08091EB0085FD0FC0CA
:102770002091E4003091E5004217530701F3915096
:10278000E9F684E0089582E0089583E0089581E009
:102790000895CF93C82F8BB58430B9F4809145014B
:1027A00090914601A0914701B0914801892B8A2B55
:1027B0008B2B59F0809132018F708093E9008091CA
:1027C000E80085FF04C0C093F100CF910895909177
:1027D000E8009E779093E800ACDF8823A1F3F5CF63
:1027E000FC019081992311F1892F8F70873000F5BA
:1027F000248142E0223008F046E0A181B28168E005
:1028000070E020E06A177B0768F02295207F422B5A
:10281000638120E4629FB0011124991F9927991FB9
:10282000692B57CF2F5F660F771FECCF81E008959C
:1028300080E0089585ED8093BC0080E197E22091CF
:10284000BC0024FD03C01092B60302C00197B9F783
:102850000895CF93DF93DC01FA0184E190E0EB016E
:102860009983888311968C93119712968CE001902E
:102870000D928A95E1F7DF91CF910895CF93282F9C
:10288000CB01C42F40E157E2C13238F0C0E08C2FB9
:10289000CF91089541505109C9F33091B6033111D8
:1028A000F9CF31E03093B6033093B5034FEF409347
:1028B00090031092B2034C0F4093B1033093B303D3
:1028C0003091B303220F232B2093B3032091B40341
:1028D000222359F11092B4032091B3032093BB003B
:1028E00020E137E24091BC0043FD16C025EC209367
:1028F000BC0020E137E24091B6034130C1F02091A5
:10290000B2032C1710F4C091B2034C2F50E061E9D0
:1029100073E00E940436BBCF2150310909F4B6CFD1
:102920004091B3034093BB00DDCF25EEE0CF2150B3
:10293000310909F7ABCFCF93DF93C82F80E197E23E
:10294000413228F0D1E048C0019709F454C0D09139
:10295000B603D111F9CF82E08093B60381E0809372
:10296000B5038FEF809390031092B2034093B103AD
:1029700050E081E993E00E9404361092B303809105
:10298000B303CC0FC82BC093B3038091B403882347
:1029900071F11092B4038091B3038093BB0080E186
:1029A00097E22091BC0023FD1BC085EC8093BC0006
:1029B00080E197E22091B6032230D9F08091900314
:1029C0008F3F51F080919003D2E0803229F08091C6
:1029D0009003D3E0803379F48D2FDF91CF91089568
:1029E000019749F02091B3032093BB00DACF85EE25
:1029F000DDCF0197F9F6D4E0EFCFEF92FF920F937E
:102A00001F93CF93DF930F92CDB7DEB7182F698353
:102A1000E42EF22E032F41E0BE016F5F7F4F8BDF6C
:102A2000811113C04E2D6F2D702F812F27DF91E064
:102A3000811101C090E0892F81700F90DF91CF91BB
:102A40001F910F91FF90EF90089580E0F5CF9F9236
:102A5000AF92BF92CF92DF92EF92FF920F931F93AC
:102A6000CF93DF9300D000D000D0CDB7DEB78D83F9
:102A70009E838B01DB018C918058990BED81FE8147
:102A80001482858312968C9112978058990B168226
:102A900087838091C906882309F4F6C01596DC90D7
:102AA00015978D2D90E01396EC901397F4E0EF9E20
:102AB000900111247C0144E0F594E7944A95E1F7F4
:102AC00043E0E422FF24E22AF32A14962C9154E0F6
:102AD000259F9001112495958795959587958370ED
:102AE0009927822B932B9C0150E040E029833A8365
:102AF0004B835C83CA01B9010E94043520E030E8B1
:102B00004FEF53E469837A838B839C8369817A8155
:102B10008B819C810E945334962EA72EB82EC92EED
:102B2000D80112968C91B4E08B9FC0011124D294ED
:102B3000D694D69463E0D6228D299C0150E040E0E3
:102B400029833A834B835C83CA01B9010E9404350F
:102B500020E030E84FEF53E469837A838B839C83D2
:102B600069817A818B819C810E945334292D3A2D71
:102B70004B2D5C2D69837A838B839C8369817A8159
:102B80008B819C810E94493220E030E044E353E491
:102B900069837A838B839C8369817A818B819C8111
:102BA0000E94AB332BED3FE049E450E469837A8324
:102BB0008B839C8369817A818B819C810E94B8344C
:102BC00069837A838B839C8369817A818B819C81E1
:102BD0000E94D334AD81BE8119967C936E93189771
:102BE000970150E040E029833A834B835C83CA011C
:102BF000B9010E94043520E030E84FEF53E46983C7
:102C00007A838B839C8369817A818B819C810E94EA
:102C10005334292D3A2D4B2D5C2D69837A838B8378
:102C20009C8369817A818B819C810E944932DC017D
:102C3000CB01B05889839A83AB83BC8320E030E01A
:102C400044E353E4BC01CD010E94AB332BED3FE0E4
:102C500049E450E469837A838B839C8369817A8118
:102C60008B819C810E94B83469837A838B839C8397
:102C700069817A818B819C810E94D334AD81BE8130
:102C80001B967C936E931A97ED81FE8180819181D2
:102C9000D80115962C9120FD21C0906191838083ED
:102CA000AD81BE818D919C911197F801258121FD07
:102CB00019C090628D939C9326960FB6F894DEBF50
:102CC0000FBECDBFDF91CF911F910F91FF90EF907D
:102CD000DF90CF90BF90AF909F9008959F7EED8141
:102CE000FE81DCCF9F7DAD81BE81E4CF9C01FB01E5
:102CF00090E080E0841708F008955AE52115310529
:102D000021F0D901A80FB91F5C915EBD00000DB480
:102D100007FEFDCF5EB5519350E55A95F1F7019648
:102D2000E9CF0F931F93CF93DF938C01D62F9FB7DB
:102D3000F894E091C905F091CA0520818091C805F9
:102D40008095822380838091C7058CBD8091C605C4
:102D50008DBD9FBF43E066EA75E0C801C7DF809183
:102D6000A7058F3F49F4D0E0C0E0B5D9CE01DF918F
:102D7000CF911F910F9108959091A8059A3511F068
:102D80009111F1CF8F70C82FCC0FD33039F04DEFA8
:102D90004D0F69EA75E0C8010396A8DFCD5F4C2F9F
:102DA0004D1BCD1761F06D2F70E0CB01840F911D8D
:102DB0008197CCF66A557A4F90E080E097DFC6EABB
:102DC000D5E0D3CF8F929F92AF92BF92CF92DF92F6
:102DD000EF92FF920F931F93CF93DF9300D000D019
:102DE00000D0CDB7DEB78D839E83062F2FB7F89422
:102DF0008091A4069091A506A091A606B091A70681
:102E00002FBF9C01AD0197E0220F331F441F551FB8
:102E10009A95D1F729833A834B835C83CA01B90120
:102E20002DE730E040E050E00E94A33569017A01CF
:102E300010E02DE7822E912CA12CB12C602F8D81DA
:102E40009E816FDFFC01892B61F01F5F4D815E81E8
:102E50004A51524009F047C08181807F803F09F488
:102E60004CC06AE070E080E090E00E942F0D2FB728
:102E7000F8948091A4069091A506A091A606B09121
:102E8000A7062FBF9C01AD0187E0220F331F441F0F
:102E9000551F8A95D1F729833A834B835C83CA01F6
:102EA000B901A50194010E94A3352C193D094E09D1
:102EB0005F092B3F31054105510508F4BFCF80E084
:102EC00026960FB6F894DEBF0FBECDBFDF91CF912F
:102ED0001F910F91FF90EF90DF90CF90BF90AF9038
:102EE0009F908F9008952D813E812651324039F474
:102EF0008181807F803F09F4B4CF81E0E1CF13303E
:102F0000E0F7AFCFEF92FF920F931F93CF93DF9332
:102F1000EC0163E083E192E004DFFC01892B49F0DE
:102F20008181982F907F903F31F464E086E192E0B8
:102F300049DF80E03CC0E380F480E094F09420918D
:102F40006E01A3EFB1E0243011F0A3E0B2E09035C0
:102F5000A9F586E080936E0130E020E001E010E00A
:102F60008D918F3FC9F048815981B80102C0660F29
:102F7000771F8A95E2F7CB01B801022E02C0660FD7
:102F8000771F0A94E2F76E217F21672B09F454C062
:102F9000842B952B998388832F5F3F4F20313105F8
:102FA000F9F68181807D803509F44DC081E0DF91A3
:102FB000CF911F910F91FF90EF900895833201F50B
:102FC00085E080936E0185818058990B1C828D83EA
:102FD000268188819981213848F19064998388837A
:102FE000888199812781213818F190689983888395
:102FF000888199812085213FE8F0916099838883B9
:103000008181823109F0A8CF87E080936E018581AC
:103010008058990B1C828D8326818FE790E0821B5C
:1030200091091E828F83A8EEB1E096CF9F7BD6CF09
:103030009F77DCCF9E7FE2CF8095909548235923E0
:1030400059834883A9CF85818058990B1886898731
:1030500026818FE790E0AC01421B51091A864B870D
:1030600027812058330B1C822D832085821B9109D8
:103070001E828F838181893709F098CF83898A8363
:1030800084898B8380916E01843009F08FCF818990
:1030900090E099878887EE2451E0F5222FEF3FE7F3
:1030A000E29EC001E39E900DF29E900D11249B873D
:1030B0008A877CCF1F93CF93DF93182FD92F8091CE
:1030C0006E01883009F045C08091A3058093C70543
:1030D0008091A2058093C605C5E0812F9D2F12DF48
:1030E00061E070E080E090E00E942F0DC150A9F7F0
:1030F000812F9D2F07DF8823A1F164E08AE192E010
:1031000061DE8823C1F18091A5058093C705809178
:10311000A4058093C60563E087ED91E002DEFC0123
:10312000892B49F08381833021F18130F1F4818151
:10313000823409F0C4E0C0936E0165E083EE91E053
:1031400041DE69E08AED91E03DDE64E086E192E0F7
:1031500039DE812F9D2FD6DE811103C088E0809358
:103160006E01DF91CF911F9108958C3021F7C3E05C
:10317000E2CFC2E0E0CF81E080936E01EACFFF9220
:103180000F931F93CF93DF930F92CDB7DEB7898351
:10319000F62E8A0141E0BE016F5F7F4F82E5CBDBF7
:1031A00081110EC08FEC97E00197F1F700C000008D
:1031B0004F2DB80182E562DB982F81E0911101C0AB
:1031C00080E00F90DF91CF911F910F91FF900895B4
:1031D000CF93DF9300D000D000D0CDB7DEB7AE01E3
:1031E0004F5F5F4F66E08AEFCADF99818E81269636
:1031F0000FB6F894DEBF0FBECDBFDF91CF9108951B
:10320000EF92FF920F931F93CF93DF9300D0CDB730
:10321000DEB7082F142F732F8DB79EB79A8389833B
:1032200050E0CA010196EDB7FEB7E81BF90B0FB6E7
:10323000F894FEBF0FBEEDBF8DB79EB701967C011F
:103240006183622F01960E94043641E0410FB7016D
:10325000802F71DB982F81E0911180E0E981FA8164
:103260000FB6F894FEBF0FBEEDBF0F900F90DF9129
:10327000CF911F910F91FF90EF900895EF92FF92E1
:103280000F931F93CF93DF93CDB7DEB729970FB678
:10329000F894DEBF0FBECDBF7C0180916F0190918D
:1032A00070018B30984171F18E010F5F1F4FA801A3
:1032B00068E080E064DFB801882321F1F801AE0105
:1032C000475F5F4F8FEF90E02191922B8223E417AD
:1032D000F507D1F79923B1F08F3FA1F0E091D10527
:1032E000F091D205309709F08FC029960FB6F89467
:1032F000DEBF0FBECDBFDF91CF911F910F91FF9029
:10330000EF90089565DF9C019093700180936F01A9
:103310002F3F3F4F11F585E589879E01275F3F4F7E
:1033200041E060EF82E56CDF25E32A95F1F70000CC
:1033300019869E01275F3F4F41E06BEF82E560DF1A
:1033400085E38A95F1F7000043DF90937001809345
:103350006F0125E32A95F1F7000080916F019091AC
:1033600070019E7F019769F483E089879E01275F42
:103370003F4F41E06EEF82E543DF85E38A95F1F749
:10338000000080916F0190917001813021E09207DF
:1033900079F190F48330910521F148F4009759F1C7
:1033A000019731F11092D2051092D1059ECF41972D
:1033B000C9F782E690E117C082312FEF920709F139
:1033C00050F4833021E09207C9F08330934051F7E5
:1033D00082EA9FE008C083319F4F21F781E590E1A9
:1033E00002C081E59FE09093D2058093D1057DCF07
:1033F00087E79FE0F8CF87E295E1F5CF8FEF9EE07A
:10340000F2CF8CE090E1EFCFC70109956ECFEF923C
:10341000FF920F931F93CF93DF930F92CDB7DEB739
:1034200080915301811109C08FEF0F90DF91CF91EF
:103430001F910F91FF90EF9008951982A0914D0177
:10344000B0914E01E0914F01F09150018E010F5F5C
:103450001F4F980141E051966C918081D1DE780137
:10346000882311F3A0914D01B0914E01E0914F01DD
:10347000F0915001980141E015966C918081C0DE79
:10348000882391F2A0914D01B0914E01E0914F013E
:10349000F0915001980141E014966C918081B0DE6A
:1034A000882309F4C1CFE0914D01F0914E01648170
:1034B000E0914F01F091500180916A01882309F455
:1034C00057C08CE08983980141E0808199DE882390
:1034D00009F4AACF2FEF80E792E02150804090407E
:1034E000E1F700C0000080EC89838091530180FFE8
:1034F00002C080EE8983A0914D01B0914E01E09110
:103500004F01F0915001970141E014966C91808138
:1035100077DE882309F488CF80915901882331F11F
:1035200082E08983A0914D01B0914E01E0914F015D
:10353000F0915001970141E051966C91808160DEDD
:10354000882309F471CF1982A0914D01B0914E01E9
:10355000E0914F01F0915001970141E015966C9177
:1035600080814EDE91E0892781955FCF1982DACF85
:1035700084E08983980141E0808142DE882309F458
:1035800053CF80915A01811104C08091530180FD75
:103590003EC080E48983A0914D01B0914E01E0913D
:1035A0004F01F0915001970141E014966C91808198
:1035B00027DE882309F438CF2FEF80E792E02150EF
:1035C00080409040E1F700C00000809159018823BD
:1035D00001F181E08983A0914D01B0914E01E0910C
:1035E0004F01F0915001970141E051966C9180811B
:1035F00007DE882309F418CFA0914D01B0914E0148
:10360000E0914F01F091500128E531E0A6CF80E62E
:10361000C1CF1982E0CF7F928F929F92AF92BF92DB
:10362000CF92DF92EF92FF920F931F93CF93DF938E
:10363000CDB7DEB7ED970FB6F894DEBF0FBECDBFA6
:103640008FAB98AF8091A105882309F4B3C1109284
:10365000A1051092900510928F05D0907D05ED2C5C
:10366000F12C80916A01882309F18091530188230C
:10367000E9F0A0914D01B0914E01E0914F01F09120
:1036800050019E012F5D3F4F42E01C966C9180815E
:10369000B4D9882359F009A11AA1102701271027AE
:1036A0000E151F0508F0A4C110928E0501E915E062
:1036B00081EAE82E85E0F82EF80181919191A1919F
:1036C000B1918F018BA39CA3ADA3BEA36F01F4E0C6
:1036D000CF1AD108BC01CD010E94063520E030E0B0
:1036E00040E850E36BA37CA38DA39EA36BA17CA1B8
:1036F0008DA19EA10E94AB33D6016D937D938D93D6
:103700009C931397E016F106B9F680919505909178
:103710009605A0919705B09198058BAB9CABADAB8E
:10372000BEAB80919D0590919E05A0919F05B091A3
:10373000A0058FA798ABA9ABBAAB809191059091EA
:103740009205A0919305B09194058BA39CA3ADA382
:10375000BEA38091990590919A05A0919B05B09187
:103760009C058BA79CA7ADA7BEA72FA538A949A9E3
:103770005AA96BA97CA98DA99EA90E94AB337B0194
:103780008C012BA53CA54DA55EA56BA17CA18DA1AF
:103790009EA10E94AB339B01AC01EFA2F8A609A742
:1037A0001AA76FA178A589A59AA50E9453347B0119
:1037B0008C0125EE32EF4FEF5EE36FA3F8A689A7E9
:1037C0001AA76FA178A589A59AA50E946535181634
:1037D0000CF0B5C22BA13CA14DA15EA16BA57CA5AF
:1037E0008DA59EA50E9449329B01AC016BA37CA3D1
:1037F0008DA39EA36BA17CA18DA19EA10E94543498
:1038000060938A0570938B0580938C0590938D054A
:103810008BED9FE0A9ECBFE380938605909387052D
:10382000A0938805B09389051092820510928305B4
:103830001092840510928505D090F006ED2DE69546
:10384000A4E0EA9FF0011124EE57FA4FE080F180E6
:10385000028113812BED3FE049E450ECEBA2FCA286
:103860000DA31EA36BA17CA18DA19EA10E94CF34AC
:103870002BED3FE049E450E487FF9EC36BA17CA1A0
:103880008DA19EA10E9454342BED3FE049E450E409
:103890006BA37CA38DA39EA36BA17CA18DA19EA1F4
:1038A0000E9454347B018C0120EE38EF42EA56E44A
:1038B000EBA2FCA20DA31EA36BA17CA18DA19EA1D6
:1038C0000E94AB336BA37CA38DA39EA36BA17CA1B1
:1038D0008DA19EA10E94D334462F572FBC01D0FC4E
:1038E00083C340937E0550937F056093800570935A
:1038F000810540917E0550917F0560918005709112
:1039000081054115B0E85B076105710584F08FEF13
:103910009FEFA0E0B0E0841B950BA60BB70B809344
:103920007E0590937F05A0938005B09381056091FB
:10393000F1067091F206072E000C880B990B00918E
:103940007E0510917F052091800530918105600FE3
:10395000711F821F931F6115E0E87E0781059105A5
:1039600024F06FEF7FE780E090E097FF03C060E016
:1039700070E0CB0160937E0570937F058093800596
:10398000909381050E9406359B01AC016BA37CA33B
:103990008DA39EA36BA17CA18DA19EA10E946935E0
:1039A000882341F010927E0510927F0510928005C9
:1039B0001092810580917E0590917F05AFA9B8ADE9
:1039C0001B969C938E931A97ED960FB6F894DEBFD4
:1039D0000FBECDBFDF91CF911F910F91FF90EF9060
:1039E000DF90CF90BF90AF909F908F907F90089581
:1039F000E0914F01F09150018181928196958795D8
:103A000080179107A8F4A0914D01B0914E019E013D
:103A10002F5D3F4F41E053966C9180810E94FD14D1
:103A2000882309F443CE89A184FF02C0F0DC3ECE96
:103A3000A0914D01B0914E01E0914F01F0915001E4
:103A40009E012F5F3F4F4D2D1D966C9180810E94EE
:103A5000FD14882309F42ACEC801B7010E947C35E1
:103A6000615060938E05E0917905F0917A05CF0160
:103A700084719927892B09F460C189819A81AB816E
:103A8000BC81BC01CD010E94C5354B015C01809217
:103A9000910590929205A0929305B09294058D8124
:103AA0009E81AF81B885BC01CD010E94C5356B01F7
:103AB0007C01C0929505D0929605E0929705F09210
:103AC000980589859A85AB85BC85BC01CD010E948E
:103AD000C5358B019C010093990510939A0520939D
:103AE0009B0530939C058D859E85AF85B889BC016B
:103AF000CD010E94C535AB01BC0140939D0550939B
:103B00009E0560939F057093A005C501BB2797FD97
:103B1000B095AB2F8BA39CA3ADA3BEA3C701BB27BE
:103B200097FDB095AB2F8BA79CA7ADA7BEA7C901EA
:103B3000BB2797FDB095AB2F8FA798ABA9ABBAABBE
:103B4000CB01BB2797FDB095AB2F8FA398A7A9A753
:103B5000BAA72BA13CA14DA15EA1CA01B9010E9447
:103B60006D356BA37CA38DA39EA32BA53CA54DA572
:103B70005EA5CA01B9010E946D356BA77CA78DA710
:103B80009EA7CBA0DCA0EDA0FEA0C60ED71EE81E0F
:103B9000F91E2FA538A949A95AA9CA01B9010E943D
:103BA0006D35C60ED71EE81EF91E2FA138A549A5F2
:103BB0005AA5CA01B9010E946D356BA37CA38DA3E0
:103BC0009EA3C60ED71EE81EF91E9FE0F91AA1E0BB
:103BD000CA16D104E104A2E0FA0630F018DC109213
:103BE000900510928F0562CD80918F059091900580
:103BF00091609093900580938F0580E1E6FF4DC022
:103C0000A1E0B0E0AC0FBD1FA80FB11D9C9121E059
:103C1000280FA1E0B0E0AC0FBD1FA20FB11D2C9189
:103C2000392F309301002093000092E0980FA1E01B
:103C3000B0E0AC0FBD1FA90FB11D9C9123E0280F70
:103C4000A1E0B0E0AC0FBD1FA20FB11D2C91392F28
:103C5000309303002093020094E0980FA1E0B0E0BD
:103C6000AC0FBD1FA90FB11D9C9125E0280FA1E04D
:103C7000B0E0AC0FBD1FA20FB11D2C91392F3093B6
:103C80000500209304008A5F20918F0530919005F4
:103C900028603093900520938F05E078F170EF2B2A
:103CA00009F404CDE1E0F0E0EC0FFD1FE80FF11D99
:103CB000908121E0280FE1E0F0E0EC0FFD1FE20F22
:103CC000F11D2081392F309301002093000092E0F4
:103CD000980FE1E0F0E0EC0FFD1FE90FF11D90817E
:103CE00023E0280FE1E0F0E0EC0FFD1FE20FF11DF3
:103CF0002081392F309303002093020094E0980F25
:103D0000E1E0F0E0EC0FFD1FE90FF11D90818B5F0A
:103D1000E1E0F0E0EC0FFD1FE80FF11D80819093D2
:103D200005008093040080918F0590919005806735
:103D30009093900580938F05B9CC80E05FCF25EEFE
:103D400032EF4FEF5EEBEFA2F8A609A71AA76FA11B
:103D500078A589A59AA50E94CF3487FF25C02BA1FD
:103D60003CA14DA15EA16BA57CA58DA59EA50E9441
:103D7000493220E030E040E050EC6BA37CA38DA3FF
:103D80009EA36BA17CA18DA19EA10E94AB336093E9
:103D90008A0570938B0580938C0590938D058BED30
:103DA0009FE0A9ECBFEB38CD2FA538A949A95AA9A6
:103DB000CA01B9010E94AB335B016C012BA13CA18C
:103DC0004DA15EA1CA01B9010E94AB339501A601C4
:103DD0006FA378A789A79AA76FA178A589A59AA5A7
:103DE0000E9454349B01AC016FA378A789A79AA7BE
:103DF0006FA178A589A59AA50E9454349B01AC01B6
:103E000060E070E080E89FE30E94533469AF7AAFCE
:103E10008BAF9CAF2BA13CA14DA15EA16BA97CA94E
:103E20008DA99EA90E94AB33762E872E982E9DAF2A
:103E30002BA53CA54DA55EA56FA578A989A99AA932
:103E40000E94AB339B01AC017FA288A699A69DADD1
:103E50009AA76FA178A589A59AA50E9454349B01C1
:103E6000AC016FA378A789A79AA76FA178A589A5A8
:103E70009AA50E94543429AD3AAD4BAD5CAD6FA309
:103E800078A789A79AA76FA178A589A59AA50E9466
:103E9000493260938A0570938B0580938C059093CB
:103EA0008D059701A801EFA2F8A609A71AA76FA18F
:103EB00078A589A59AA50E9454346FA378A789A7ED
:103EC0009AA76FA178A589A59AA50E94233260932D
:103ED00086057093870580938805909389052BA5A7
:103EE0003CA54DA55EA5CA01B9010E94AB33950161
:103EF000A6016FA378A789A79AA76FA178A589A51E
:103F00009AA50E9454349B01AC016FA378A789A79E
:103F10009AA76FA178A589A59AA50E9454349B0100
:103F2000AC0160E070E080E89FE30E9453347B01C5
:103F30008C012BA53CA54DA55EA56BA97CA98DA9DF
:103F40009EA90E94AB335B016C012BA13CA14DA14A
:103F50005EA16FA578A989A99AA90E94AB339B019C
:103F6000AC01ABA2BCA2CDA2DEA26BA17CA18DA1B3
:103F70009EA10E9453349B01AC016BA37CA38DA333
:103F80009EA36BA17CA18DA19EA10E945434970198
:103F9000A8016BA37CA38DA39EA36BA17CA18DA183
:103FA0009EA10E944932609382057093830580939D
:103FB00084059093850540CCEBA2FCA20DA31EA323
:103FC0006BA17CA18DA19EA10E94653518160CF0F5
:103FD0006BCC2BED3FE049E450E46BA17CA18DA1BB
:103FE0009EA10E9453345ECC70956095509541958A
:103FF0005F4F6F4F7F4F75CCCF93DF930F92CDB74D
:10400000DEB79C0180915301811105C08FEF0F90A5
:10401000DF91CF91089581E02C3B310588F482E057
:104020002236310568F483E02A32310548F484E011
:104030002431310528F485E02A30310508F486E082
:1040400089839091540189819817A9F0A0914D011D
:10405000B0914E01E0914F01F09150019E012F5F10
:104060003F4F41E012966C918081CAD8882371F24B
:1040700089818093540180E0CACFEF92FF920F9321
:104080001F93CF93DF9300D0CDB7DEB7FC018B0138
:104090007A018091530181110AC08FEF0F900F9028
:1040A000DF91CF911F910F91FF90EF9008959E2F78
:1040B0008F2F9A838983A0914F01B09150019B016A
:1040C0002E0F311D18968D919C9119978217930789
:1040D00020F3E0914D01F0914E019E012F5F3F4F83
:1040E00042E0638D8C918CD88823B9F2A0914D0168
:1040F000B0914E01E0914F01F09150019701402F96
:1041000058966C9180817CD891E089278195C6CFA3
:10411000CF93DF930F92CDB7DEB78091530181111A
:1041200005C08FEF0F90DF91CF91089588E18983CB
:10413000809151018330C1F0A0914D01B0914E01A9
:10414000E0914F01F09150019E012F5F3F4F41E000
:1041500016966C91808154D8882319F389818695AD
:10416000869586958093510180E0DCCFCF93DF93D5
:104170000F92CDB7DEB780915301811105C08FEF4B
:104180000F90DF91CF910895198280915201882379
:10419000C1F0A0914D01B0914E01E0914F01F0911D
:1041A00050019E012F5F3F4F41E017966C91808137
:1041B00027D8882321F389818695869586958093D3
:1041C000520180E0DDCF0F931F93CF93DF930F92C7
:1041D000CDB7DEB780915A01882309F45AC0A09167
:1041E0004D01B0914E01E0914F01F09150018E01CF
:1041F0000F5F1F4F980141E014966C9180810E94DF
:10420000FD14811107C08FEF0F90DF91CF911F91A7
:104210000F91089589819091530190FF3CC0806275
:104220008983A0914D01B0914E01E0914F01F09131
:104230005001980141E014966C9180810E94001910
:10424000882309F38FED9EE20197F1F700C000008B
:1042500080916801882309F180E889838091690150
:10426000882319F0898180638983A0914D01B091E1
:104270004E01E0914F01F0915001980141E05796B5
:104280006C9180810E940019882309F4BCCF1092A0
:104290005A0180E0B9CF8F7DC3CF1982DFCF1F9342
:1042A000CF93DF930F92CDB7DEB7182F80916901BE
:1042B000811731F1112349F180E3898380915A01FB
:1042C000882319F08981826089838091680188231D
:1042D00019F0898180688983A0914D01B0914E01C8
:1042E000E0914F01F09150019E012F5F3F4F41E05F
:1042F00057966C9180810E94001981111093690179
:104300000F90DF91CF911F9108951982D7CFEF922F
:10431000FF921F93CF93DF930F92CDB7DEB7182F85
:10432000807719F081E0898303C01123F9F01982A5
:10433000A0914D01B0914E01E0914F01F0915001DB
:10434000CE0101967C019C0141E055966C918081E3
:104350000E940019970181110BC0109253010F9018
:10436000DF91CF911F91FF90EF90089580E4DBCF14
:1043700089818F7B8093550116FF33C0198215FD0B
:1043800003C089818260898314FD03C089818160B3
:10439000898313FD03C0898188638983A0914D01BE
:1043A000B0914E01E0914F01F091500141E05696DD
:1043B0006C9180810E940019882379F2812F877F78
:1043C00011F080E06CDF1093530110925C019FEFBD
:1043D00020E782E0915020408040E1F700C00000DB
:1043E000BECF84E08983CBCFCF93DF930F92CDB73D
:1043F000DEB790916A019923F1F0882341F182E0C0
:104400008983A0914D01B0914E01E0914F01F0914F
:1044100050019E012F5F3F4F41E051966C9180818A
:104420000E940019882319F08981809359010F9007
:10443000DF91CF910895909153019923C1F388237F
:1044400031F0809159018111F2CF81E0D9CF1982E9
:10445000D8CF1F93CF93DF93D82F80916A01C0E00C
:10446000811120C0809153018823C1F0109158011F
:104470008D2380935801C1E08D1301C0C0E0C19528
:1044800080915C018D2B61F081E0AEDFDD2351F086
:104490000E94071A882331F010935801CFEF02C011
:1044A00080E0A2DF8C2FDF91CF911F9108951F93A1
:1044B000CF93DF9300D0CDB7DEB7182F81111FC087
:1044C00080E0EDDE198287E08A83A0914D01B091F2
:1044D0004E01E0914F01F09150019E012F5F3F4F3F
:1044E00042E055966C9180810E94001981111092D2
:1044F0005C010F900F90DF91CF911F91089581E0A3
:10450000CEDE80E28983113049F51A8285E090E0A1
:1045100073DD8A8120E4829FC001112487608A8331
:10452000A0914D01B0914E01E0914F01F0915001E9
:104530009E012F5F3F4F42E055966C9180810E9413
:1045400000198823B1F288E080935301109255013D
:1045500081E080935C0180E07CDFCBCF163018F4E3
:1045600081E08A83D3CF153128F482E08A838AE000
:1045700090E0CECF83E08A8384E190E0C9CF0F93AF
:104580001F93CF93DF930F92CDB7DEB78C0180914D
:104590005301811107C08FEF0F90DF91CF911F91D1
:1045A0000F91089580916A018111F5CF80915C018E
:1045B000882351F0C8010197889720F4802F77DF76
:1045C00080E0EACF80E073DFB801093E134010F0CD
:1045D00068EE73E06430710510F464E070E008EE9A
:1045E00013E0C8010E947C3561506983A0914D01A0
:1045F000B0914E01E0914F01F09150019E012F5F6B
:104600003F4F41E011966C9180810E9400198823F0
:1046100009F4C1CF698170E06F5F7F4FC8010E94CC
:1046200090357093570160935601CB01969587950D
:10463000E3DCC6CF2F932FB72F933F938F939F9396
:10464000EF93FF9380917F01909180010196D9F0C3
:1046500020917F0130918001809120089091210864
:104660002817390781F080917F01909180019C018A
:104670002F5F3F4F3093800120937F018C53984FE1
:10468000FC0180818EBDFF91EF919F918F913F91B1
:104690002F912FBF2F9118951F921FB61F92112493
:1046A0008F939F93AF93BF938091A4069091A5069B
:1046B000A091A606B091A7060196A11DB11D8093F9
:1046C000A4069093A506A093A606B093A706BF9153
:1046D000AF919F918F911F901FBE1F9018951F92B1
:1046E0000F920FB60F9211242F933F934F935F9326
:1046F0006F937F938F939F93AF93BF93EF93FF93AA
:104700008091D30581114CC08091780090917900FF
:104710004091A2065091A30621E1249FF001259F1C
:10472000F00D1124EA52FA4F3185311117C0409132
:10473000A2065091A306249FF001259FF00D11249D
:10474000EA52FA4F2481222319F09195819591091B
:10475000925026E0880F991F2A95E1F72091A20632
:104760003091A306A9014F5F5F4F5093A30640937A
:10477000A20641E1429FF001439FF00D1124EA524D
:10478000FA4F968385832091A2063091A3068091EB
:10479000D4059091D5052817390711F00E941D0EF8
:1047A000FF91EF91BF91AF919F918F917F916F9109
:1047B0005F914F913F912F910F900FBE0F901F90DF
:1047C00018958F9381E08093A1058F9118951F9282
:1047D0000F920FB60F9211242F933F934F935F9335
:1047E0006F937F938F939F93AF93BF93EF93FF93B9
:1047F0009091B900892F887F803509F4BEC008F0F8
:1048000042C0803309F4B4C098F5883101F1D0F486
:10481000883009F4A5C0803109F4A2C0882309F4C6
:10482000ECC0FF91EF91BF91AF919F918F917F91DC
:104830006F915F914F913F912F910F900FBE0F900D
:104840001F901895803209F493C0883251F79091E7
:10485000B2038091B103981778F5E091B20381E03B
:104860008E0F8093B203F0E0EF56FC4F80817AC048
:10487000803409F48EC0883409F47CC0883389F60A
:10488000809390036BC0803A09F49DC0B8F58038DE
:1048900009F487C050F5803611F1D8F4883509F64F
:1048A000E091B20381E08E0F8093B2038091BB0050
:1048B000F0E0EF56FC4F80838091B50381115AC020
:1048C00081E08093B40384EA8093BC001092B60325
:1048D000A8CF803721F0987E983609F0A2CF83E0E8
:1048E0008093B60310928F033FC0803909F459C0FA
:1048F000987E983809F095CF85E837C0883BC9F095
:1049000048F5883A19F0803B09F08BCF84E080931A
:10491000B60310926E0310926D03F0E0E0E009958B
:1049200080916D03811105C081E080936D03109229
:104930004D03E0916E0381E08E0F80936E03F0E0F3
:10494000E35BFC4F80818093BB0090916E0380916C
:104950006D0323C0907F903C09F063CF85ECB4CF0A
:104960008091B3038093BB0085EC8093BC0059CF4A
:10497000809390030E941A1454CFE091B20381E017
:104980008E0F8093B2038091BB00F0E0EF56FC4F96
:1049900080839091B2038091B103981708F0ACCF57
:1049A000E3CF80918F03803208F0A6CFE0918F0390
:1049B00081E08E0F80938F038091BB00F0E0E1597E
:1049C000FC4F8083D1CF85EC8093BC001092B6035E
:1049D00080918F03803230F4E0918F03F0E0E15951
:1049E000FC4F108260918F0370E08FE693E0F0E05F
:1049F000E0E0099510928F0314CF10929003BACF84
:104A00001F920F920FB60F9211242F933F934F9343
:104A10005F936F937F938F939F93AF93BF93EF9326
:104A2000FF938091DA0080FF16C08091D80080FF4C
:104A300012C08091DA008E7F8093DA008091D900D5
:104A400080FF88C080E189BD82E189BD09B400FE94
:104A5000FDCF81E08BBD8091E10080FF16C0809189
:104A6000E20080FF12C08091E2008E7F8093E2001E
:104A70008091E20080618093E2008091D8008062A2
:104A80008093D80019BC85E08BBD8091E10084FF44
:104A900026C08091E20084FF22C080E189BD82E1CE
:104AA00089BD09B400FEFDCF8091D8008F7D809331
:104AB000D8008091E1008F7E8093E1008091E20038
:104AC0008F7E8093E2008091E20081608093E2001B
:104AD0008091B703882309F440C084E08BBD8091A6
:104AE000E10083FF26C08091E20083FF22C0809115
:104AF000E100877F8093E10082E08BBD1092B703D5
:104B00008091E1008E7F8093E1008091E2008E7FB2
:104B10008093E2008091E20080618093E20042E0B5
:104B200060E080E00E9469138091F00088608093CB
:104B3000F000FF91EF91BF91AF919F918F917F9185
:104B40006F915F914F913F912F910F900FBE0F90FA
:104B50001F90189519BC1BBC7ECF8091E30087FD88
:104B600002C081E0BBCF83E0B9CF1F920F920FB696
:104B70000F921124FF920F931F932F933F934F9304
:104B80005F936F937F938F939F93AF93BF93EF93B5
:104B9000FF93CF93DF93CDB7DEB7AA97DEBFCDBF2C
:104BA0001091E9001F709091EC00892F817090FDA9
:104BB00080E8F82EF12A1092E9008091F000877FBA
:104BC0008093F000789485E493E0FC0101962091B5
:104BD000F100208323E08D349207B9F78091E8003B
:104BE00083FF16C0209131018091490390914A03BF
:104BF0002817190669F49091450380914603823283
:104C000009F48BC0C0F4803209F457C08132D9F066
:104C10009091450380914C01913209F0A8C08F31E9
:104C200008F4E3C02091490330914A03232B09F093
:104C3000DCC080E0B0C0833259F7913249F78091EF
:104C4000E800877F35C0913A19F78091E800877FA7
:104C50008093E8008091E80080FFFCCF80914501BF
:104C600090914601A0914701B09148018093F100D5
:104C7000492F5A2F6B2F77274093F100AD016627FC
:104C800077274093F1008B2F9927AA27BB27809382
:104C9000F100809149018093F10080914A01809355
:104CA000F10080914B018093F1008091E8008E77B4
:104CB0008093E8000E947C13ABCF913209F0A8CF1B
:104CC0008091E800877F8093E8008091E80082FF70
:104CD00020C03091F1002091F1009091F10080917D
:104CE000F100309345012093460190934701809352
:104CF00048018091F100809349018091F1008093F7
:104D00004A018091F10080934B018091E8008B77FC
:104D1000CFCF8BB58111D9CF7BCF913209F078CF2E
:104D20008091E800877F8093E8000E947C13809147
:104D3000470390914803809341019093420180FD85
:104D400067CF8091450190914601A0914701B091B4
:104D50004801803B9440A105B10509F059CF87E790
:104D600097E790930108809300080E94C908843156
:104D700008F05FCF80914603803209F05ACF903C13
:104D800009F057CF81E02091490330914A03243044
:104D9000310509F04ECF8170913211F0882329F14D
:104DA0009091E800977F9093E800909146039930A6
:104DB00009F085C080914B0390914C03009729F432
:104DC0002091E8002B772093E800E6E8F2E00097D6
:104DD00009F055C08091E80080FD05C08BB588239F
:104DE00011F08530B9F70E947C138091E80083FFB1
:104DF00011C09091450380914603853009F418C194
:104E000008F074C0282F2D7F213009F4D8C08823E2
:104E100009F4B4C08091E80083FF0AC08091E800E3
:104E2000877F8093E8008091EB0080628093EB00A5
:104E30001092E9008091F00088608093F0001F2DAF
:104E40001F701093E900AA960FB6F894DEBF0FBE4C
:104E5000CDBFDF91CF91FF91EF91BF91AF919F9126
:104E60008F917F916F915F914F913F912F911F9102
:104E70000F91FF900F900FBE0F901F9018952BB5BC
:104E8000222309F4B0CF253009F4ADCF2091E800FA
:104E900023FDA9CF2091E80022FF99CF3091F300A4
:104EA0002091F200232B29F02091F100219301970A
:104EB000A9F72091E8002B772093E80088CF913064
:104EC00069F480914C018F3110F41092030168E075
:104ED00070E080E091E00E94111385CF882309F4EF
:104EE00082CF68E270E089EA91E0F5CF883009F47A
:104EF0008CC1893009F496C1863009F08BCF905867
:104F0000923008F087CFE0914703F0914803EC3DE1
:104F100023E0F20709F0AEC083E08A838AE2898346
:104F20004FB7F894DE01139620E03EE051E2E32F04
:104F3000F0E050935700849120FF03C082958F705A
:104F40003F5F8F708A3008F493C0895C90E08D9346
:104F50009D932F5F243159F74FBF8091E800877FE1
:104F60008093E8006AE270E0CE0101960E9411137E
:104F70008091E8008B778093E8004CCF903891F0D7
:104F8000923809F047CF809149038F70873008F03D
:104F900041CF8093E9008091EB0085FB882780F961
:104FA0001092E9009091E800977F9093E800809339
:104FB000F1001092F1008091E8008E7721C09230CC
:104FC00009F028CF90914703911115C090914903A2
:104FD0009F702FEF290F263008F01CCF9093E90027
:104FE0002091EB0020FF07C0833079F48091EB0023
:104FF00080628093EB001092E9008091E800877F47
:105000008093E8000E947C1305CF8091EB008061C3
:105010008093EB0021E030E001C0220F9A95EAF77F
:105020002093EA001092EA008091EB008860E1CFC3
:105030009111F0CE009147030F778091E3008078C3
:10504000802B8093E3008091E800877F8093E800C5
:105050000E947C138091E80080FFFCCF8091E300E8
:1050600080688093E30082E0011183E08BBDD2CEA3
:10507000805D6CCF8F2F99278330910509F4A9C0EB
:10508000F0F58130910509F452C0029709F0C2CEC3
:105090004FEB50E06BE972E086E892E00E94E53564
:1050A00080914C01833208F467C04FE450E06BE01C
:1050B00073E08FE892E00E94E53547E650E064EA4D
:1050C00072E08EED92E00E94E53581E08093E3028C
:1050D00093E09093E4021092E5021092CE02809346
:1050E000E00286E28093DE020FEB10E08091E800A0
:1050F000877F8093E800B80186E892E037CF8297F7
:1051000009F088CE80914C0164E871E006E710E078
:10511000823209F46EC06AEF71E009E810E08A316A
:1051200008F067C064E471E000E410E062C042E1AE
:1051300050E06AE773E086E892E00E94E5358091EE
:105140004C018A518830A8F490E0880F991FFC0127
:10515000E659FC4F2591349130938F0220938E02B3
:10516000FC01E65AFC4F85919491909391028093B3
:10517000900202E110E0BACF8431D0F09CEE980F9B
:10518000963088F480E490E09093A00280939F0290
:1051900083E080939402109295021092960281E22D
:1051A00080939902A1CF823299F786E790E0ECCF05
:1051B0008E3038F48C3058F4893039F08093A50261
:1051C00093CF92EF980F9230C8F787E0F7CF88E03F
:1051D000F5CFE430A0F4FF27EE0FFF1FEB56FD4F95
:1051E00065917491FB018491082F10E0882309F4E4
:1051F00011CEA80186E892E00E94E53577CFEE3E19
:1052000009F008CE63E872E0EDCF903809F002CEE5
:105210008091E800877F8093E8008091B7038093B6
:10522000F100C9CE9111F6CD00914703023008F08C
:10523000F1CD8091E800877F8093E8000093B70369
:105240000E947C13002311F084E005C08091E300EC
:1052500087FDFACF81E08BBD80914C01833298F1BC
:105260001092300182E08093290180932E0186E222
:1052700091E00E94F013882321F08BE291E00E94DC
:10528000F013E1E4F1E08BE0DF011D928A95E9F78C
:1052900082E08093350180933A0183E080933F015F
:1052A00082E391E00E94F013882309F4B3CD87E3F1
:1052B00091E00E94F013882309F4ACCD8CE391E0D7
:1052C0000E94F013A7CDE2E1F1E086E0DF011D923C
:1052D0008A95E9F781E08093110184EF91E0909342
:1052E00015018093140183E080930C0189E091E023
:1052F000C6CFCDB7DEB7AC970FB6F894DEBF0FBE02
:10530000CDBF4CEF50E060E070E082EC96E00E9490
:1053100014368091CA069091CB06A091CC06B0912C
:10532000CD068531944DA24AB10521F14CEF50E0F4
:105330006CE873E082EC96E00E94E5351092CE06B0
:105340001092CF061092D0061092D10680E480937E
:105350000D074EE650E068ED73E08EE097E00E94A6
:10536000E53542E450E066E474E08CE797E00E94A3
:10537000E5350CC08091CE069091CF06A091D00665
:10538000B091D1060297A105B10500F38091C30643
:10539000873009F05BC08FE08093C3068091CE0612
:1053A0009091CF06A091D006B091D1060297A105A9
:1053B000B105A0F482E090E0A0E0B0E08093CE06DA
:1053C0009093CF06A093D006B093D1064CEF50E057
:1053D00060E070E082EC96E00E943E368091C30669
:1053E00080934C0180917A00846080937A00809150
:1053F0007A00826080937A0080917A008160809345
:105400007A0080917A00806880937A0080917A0097
:10541000886080937A0085B5826085BD85B581609E
:1054200085BD80916E00816080936E008091C20680
:10543000823089F0833009F4E3C4813071F48EE363
:1054400099E19093C0038093BF0307C0883009F0AF
:10545000A5CF8DE0A1CF0E949C101092B60381E0F1
:105460008093B5031092B403589A599A8091B90069
:105470008E7F8093B9008091B9008D7F8093B900B1
:1054800082E18093B80085E48093BC00E091C3067C
:10549000F0E0E25DFD4F8081823009F047C210915B
:1054A000C406113009F024C580E88983A0914D011C
:1054B000B0914E01E0914F01F09150019E012F5F9C
:1054C0003F4F41E055966C9180810E9400198823DE
:1054D00009F46AC06FEF79E688E16150704080405E
:1054E000E1F700C000001982A0914D01B0914E017A
:1054F000E0914F01F09150019E012F5F3F4F41E03D
:1055000055966C9180810E940019882309F44CC043
:1055100010925B018FEF8093530180935101809330
:105520005201809354012FEF3FEF309357012093A6
:1055300056018093580180935A011093550110939E
:1055400068011092690110925D0110925C01EEE514
:10555000F1E08AE0DF011D928A95E9F710926A0175
:1055600010926B0110926D0110926C010E948820C4
:1055700081111AC00E94B620811116C08AE290E003
:105580000E94FC1F811110C082E390E00E94BF22A4
:1055900081110AC00E942922811106C00E94E320C5
:1055A000811102C00E94872188E70E9487210E9402
:1055B00088200E94B62088E70E94292280916B01F2
:1055C00081118DC0F12CE12CA6EFAA2EABE0BA2EF2
:1055D0006E01B1E2CB0ED11C85010E191F090131FC
:1055E000110510F000E110E0F701E857FB4FDE0174
:1055F0001196CD01800F911F8A179B0709F05FC498
:10560000AE014F5F5F4FB801C7010E943D2081117D
:1056100066C080915301882309F461C09E2D8F2DAF
:105620009AA389A3E0914F01F09150012085318523
:10563000C8018E0D911D2817390708F450C0A0919C
:105640004D01B0914E01960142E05B966C918081D4
:105650000E940019882309F442C0A0914D01B09125
:105660004E01E0914F01F09150019E012F5E3F4F9E
:10567000402F58966C9180810E94FD14882379F107
:10568000A801BE016F5E7F4FCE0101960E94F735E3
:10569000892B29F5E00EF11EE6EFEE16EBE0FE0693
:1056A00008F49ACF84E089A31AA2A0914D01B09189
:1056B0004E01E0914F01F0915001960142E05D965C
:1056C0006C9180810E940019882349F081E08093C9
:1056D0006B0188EC90E090936D0180936C018CE0FD
:1056E000E2E6F2E0DE01119601900D928A95E1F773
:1056F000198A8CE08A8B8E010F5E1F4FA80162E031
:1057000070E086E192E00E943D20811111C0AE015F
:105710004F5F5F4F6CE070E081EC9AE00E943D20AB
:10572000811106C08FE090E090937C0580937B050B
:1057300080916A01813029F180916B01882309F100
:1057400080E00E94F4210E94E32080916C019091FE
:105750006D010E94BF221982E0914F01F09150012A
:105760009E012F5F3F4F41E063E280810E9400195C
:10577000882339F081E080936A010E94F4210E941D
:10578000071A82E089838AEC8A8383EE8B83F9E0AF
:10579000FF2EFC82AE014F5F5F4F64E070E088E651
:1057A00090E00E943D2083EA89838A838B838C83E7
:1057B0008D838E838F83888789878A87AE014F5F29
:1057C0005F4F6AE070E087EA9AE00E943D2088ED32
:1057D0008983AE014F5F5F4F61E070E086EB9AE036
:1057E0000E943D20EFE6F2E0DE01519601900D921D
:1057F000FA94E1F7A80169E070E088EB94E00E9478
:105800003D2044E050E06BE870E0C8010E940D3696
:10581000A80164E070E088E99AE00E943D200E94BF
:10582000071A80E2898B88E28A8B80E38B8B88E37E
:105830008C8BA80164E070E08EE99AE00E943D2024
:105840000E94071A88E190E090937A058093790589
:105850000E94071A80E180937D058BE0E9E7F2E082
:10586000DE01119601900D928A95E1F7AE014F5F2E
:105870005F4F6BE070E082E89AE00E943D208091EB
:10588000EC0628EF280F243050F092EF980F943058
:1058900030F096EE980FF0E0E0E0933010F4EBE695
:1058A000F0E03081243008F00EC391E0682F64509E
:1058B000770BAB0101C0990F4A95EAF7932B24307F
:1058C00050F032EF380F343030F036EE380FF0E071
:1058D000E0E0333010F4EBE6F0E09083243050F059
:1058E00092EF980F943030F096EE980FF0E0E0E0F1
:1058F000933010F4E8E6F0E09081243050F022EF8D
:10590000280F243030F026EE280FF0E0E0E02330BE
:1059100010F4E8E6F0E09160908362E00E948C0E63
:105920008BE09BE19093BA038093B9038091EF06DB
:105930001092BD038093BE038091C606823059F554
:1059400080E890E00FB6F894809361009093610036
:105950000FBE60E080E10E948C0E62E08EE00E944B
:105960008C0E60E08FE00E948C0E60E081E10E946E
:105970008C0E8CB580648CBD8CB580618CBD8CB573
:1059800080688CBD8CB58C608CBD8DB581608DBD03
:105990008CB583608CBD8091C306823209F0BFC292
:1059A00082EC9BE090937804809377048091D800F8
:1059B0008F7E8093D8008091D70081608093D7003C
:1059C00084E082BF81E08093B8038091D8008E7F0D
:1059D0008093D8001092E2001092DA001092E10059
:1059E0008091D8008F778093D8008091D80080680C
:1059F0008093D8008091D8008F7D8093D80019BC07
:105A00001BBC1092B7038091E0008B7F8093E00075
:105A10008091D80081608093D80042E060E080E00F
:105A20000E9469138091E1008E7F8093E100809154
:105A3000E20081608093E2008091E20088608093C0
:105A4000E2008091E0008E7F8093E0008091D8009A
:105A500080618093D80078944EEA50E128EA30E1E2
:105A60008EE691E04FA358A729A73AA78BA79CA73A
:105A700010927A0410927904E091BF03F091C00370
:105A8000309719F089E794E0099589E794E00E943E
:105A90003A128091C706882309F440C060917D04C2
:105AA00070917E048091BD039091BE0344275527D9
:105AB000481B590B641775074CF4209179043091F9
:105AC0007A04246030937A04209379048617970728
:105AD0004CF42091790430917A04286030937A0450
