:100000009FC70000BAC70000B8C70000B6C700000D
:100010000C940222B2C70000B0C700000C94432029
:10002000ACC70000AAC700000C949A20A6C7000025
:10003000A4C70000A2C70000A0C700009EC7000020
:100040009CC700009AC7000098C7000096C7000030
:1000500094C7000092C7000090C700000C9448218C
:100060008CC700008AC7000088C7000086C7000050
:1000700084C7000082C7000080C700007EC7000060
:100080007CC700007AC7000078C7000076C7000070
:100090000C946B2172C7000070C700006EC700008F
:1000A0006CC700006AC7000068C70000084AD73B59
:1000B0003BCE016E84BCBFFDC12F3D6C74319ABD37
:1000C00056833DDA3D00C77F11BED9E4BB4C3E915B
:1000D0006BAAAABE000000803F00000000002400C0
:1000E00027002A002D003000070605040100080A39
:1000F0000B0C0D0900000000250028002B002E002D
:100100003100000000002300260029002C002F00F1
:100110000408020110408040102040804080080206
:100120000401804020100201108010204040200473
:10013000040404040304050202020204030202028E
:100140000206060606060604040202020404FF086C
:100150000F0C0000700000000024000000020003EB
:10016000000000650054FFEF0000FA80000B1282CF
:100170000001030C30C30E8C8CE914D540021371BE
:100180000F8E3883F8833000F883258EF883300093
:10019000F883FFFFFFFF0FFEA9D6240004001A8298
:1001A00079A10000003CFFFF000000100000388330
:1001B0006FA2003E03304000000002CAE3093E8007
:1001C000000020000000000000004000000060006F
:1001D0000000000C0000000C186E000006920A16C9
:1001E000C0DFFFFF0256FD8CD377FFE1C496E0C568
:1001F000BEAA00000000FFFF0B2B000016570000F6
:1002000003594000000000001DFA00026C1D0000B0
:1002100000003FFFDFEB003EB3B6000D2278000088
:100220002F3C00000000001942B5000039A2000078
:10023000B365D90E9FC91DCF4C343000000050006B
:1002400000003BB67AE80064000000C8000000002F
:100250000000100000001000FA921000225E000D55
:10026000229F0001000000320000FF46000063D41E
:1002700000001000000004D6000004CC000004CCF4
:1002800000000000107200000040000000000000AC
:1002900000000006000200050007000000000064E6
:1002A00000000000000000000005000500640020C0
:1002B00000000000000000000000000040000000FE
:1002C000030000000032F8980000FF650000830F73
:1002D0000000FF9BFC000000000000000000000088
:1002E000000000000000000000000000000000000E
:1002F00000000000000000000000000000000000FE
:10030000100040000000000000060000B26A000279
:1003100000000001FB830068000000D9FC007CF1B4
:10032000FF830000000000650000006403E8006433
:100330000028000000250000000016A000000000BA
:10034000100000001000002F0000000001F4000069
:10035000100000280000FFFF4581FFFFFA72000037
:10036000000000000000004400050005BAC6004778
:1003700078A200000001000000000000060000005C
:1003800000140000254D002F706D000005AE000C1C
:1003900002D000000000000000000000000000008B
:1003A0000000001B00000000000000000000000032
:1003B00000000064000000080000000000000000D1
:1003C000000000000000000000000000000000002D
:1003D000000000000000000000000000000000001D
:1003E000000000000000000000000000000000000D
:1003F00000000000000000000000000000000000FD
:1004000000000000000000000000000000000000EC
:100410000000001B00000000000000000000000EB3
:10042000000E00000AC70004000000000032FFFFB9
:10043000FF9C00000B2B00000002000000010000E8
:100440000064FFE500000000000000000000000064
:10045000000000000001000000000001000000009A
:1004600000000001800000018000000180000024E5
:1004700026D30000000000000000000600100096D7
:10048000003C000000000000000000000000000030
:1004900000000C0A4E68CDCF770950166759C6196F
:1004A000CE820000000000000000000000000000FC
:1004B0000000000000000000000017D784000300C7
:1004C00000000000000000000000C7938F9D1E1B6D
:1004D0001C190000000000000000000000000000E7
:1004E000000000000000000000000203188500006A
:1004F00040000000000300000003000000000000B6
:1005000000004000000000000000000000000000AB
:1005100000000000000000000000000000000000DB
:1005200000000000000000000000000000000000CB
:10053000000000000000677DDF7E72902E554CF6B3
:10054000E68800000000000000000000000000003D
:100550000000D8DCB4B8B0D8B9ABF3F8FAB3B7BB85
:100560008E9EAEF132F51BF1B4B8B08097F1A9DFE1
:10057000DFDFAADFDFDFF2AAC5CDC7A90CC92C9740
:10058000F1A989264666B28999A92D557DB0B08A10
:10059000A896365676F1BAA3B4B280C0B8A897111F
:1005A000B28398BAA3F0240844106418B2B9B4987E
:1005B00083F1A329557DBAB5B1A38393F0002850E8
:1005C000F5B2B6AA839328547CF1B9A3829361BA99
:1005D000A2DADEDFDB819AB9AEF5606870F1DABAD3
:1005E000A2DFD9BAA2FAB9A38292DB31BAA2D9BAF0
:1005F000A2F8DF85A4D0C1BBAD83C2C5C7B8A2DF56
:10060000DFDFBAA0DFDFDFD8D8F1B8AAB38DB498A6
:100610000D355DB2B6BAAF8C96198F9FA70E161E18
:10062000B49AB8AA872C547CBAA4B08AB691325630
:1006300076B28494A4C808CDD8B8B4B0F19982A891
:100640002D557D98A80E161EA22C547C92A4F02C39
:100650005078F184A898C4CDFCD80DDBA8FC2DF30C
:10066000D9BAA6F8DABAA6DED8BAB2B68696A6D0B5
:10067000F3C841DAA6C8F8D8B0B4B882A892F52C6D
:10068000548898F135D9F418D8F1A2D0F8F9A88493
:10069000D9C7DFF8F883C5DADF69DF83C1D8F40191
:1006A00014F1A8824EA884F311D182F5D99228972B
:1006B00088F109F41C1CD884A8F3C0F9D1D9978219
:1006C000F129F40DD8F3F9F9D1D982F4C203D8DEB7
:1006D000DF1AD8F1A2FAF9A88498D9C7DFF8F8F898
:1006E00083C7DADF69DFF883C3D8F40114F198A86F
:1006F000822EA884F311D182F5D992509788F109FE
:10070000F41CD884A8F3C0F8F9D1D99782F149F440
:100710000DD8F3F9F9D1D982F4C403D8DEDFD8F1CA
:10072000AD8898CCA809F9D98292A8F57CF1883ACD
:10073000CF944A6E98DB6931DAADF2DEF9D887954D
:10074000A8F221D1DAA5F9F417D9F1AE8ED0C0C341
:10075000AE82C684C3A88595C8A588F2C0F1F4010D
:100760000EF18E9EA8C63E56F554F18872F401151E
:10077000F19845856EF58E9E0488F142985A8E9EBA
:10078000068869F4011CF1981E1108D0F504F11EC9
:10079000970202983625DBF9D985A5F3C1DA85A53C
:1007A000F3DFD88595A8F309DAA5FAD88292A8F5DF
:1007B00078F1881A849F26889821DAF41DF3D88767
:1007C0009F39D1AFD9DFDFFBF9F40CF3D8FAD0F8B9
:1007D000DAF9F9D0DFD9F9D8F40BD8F3879F39D1FA
:1007E000AFD9DFDFF41DF3D8FAFCA869F9F9AFD06F
:1007F000DADEFAD9F88F9FA8F1CCF398DB45D9AFB0
:10080000DFD0F8D8F18F9FA8CAF38809DAAF8FCB71
:10081000F8D8F2AD978D0CD9A5DFF9BAA6F3FAF4A2
:1008200012F2D8950DD1D9BAA6F3FADAA5F2C1BA67
:10083000A6F3DFD8F1BAB2B68696A6D0CAF349DAE3
:10084000A6CBF8D8B0B4B8D8AD84F2C0DFF18FCB66
:10085000C3A8B2B68696C8C1CBC3F3B0B48898A873
:1008600021DB718D9D71859521D9ADF2FAD88597DF
:10087000A828D9F408D8F28D29DAF405D9F285A48C
:10088000C2F2D8A88D9401D1D9F411F2D88721D819
:10089000F40AD8F28498A8C801D1D9F411D8F3A4E5
:1008A000C8BBAFD0F2DEF8F8F8F8F8F8F8F8D8F1ED
:1008B000B8F6B5B9B08A95A3DE3CA3D9F8D85CA345
:1008C000D9F8D87CA3D9F8D8F8F9D1A5D9DFDAFAC4
:1008D000D8B18530F7D9DED8F830ADDADED8F2B449
:1008E0008C99A32D557DA083DFDFDFB591A0F6297C
:1008F000D9FBD8A0FC29D9FAD8A0D051D9F8D8FC76
:1009000051D9F9D879D9FBD8A0D0FC79D9FAD8A196
:10091000F9F9F9F9F9A0DADFDFDFD8A1F8F8F8F88A
:10092000F8ACDEF8ADDE8393AC2C547CF1A8DFDFAD
:10093000DFF69D2CDAA0DFD9FADB2DF8D8A850DA43
:10094000A0D0DED9D0F8F8F8DB55F8D8A878DAA02E
:10095000D0DFD9D0FAF8F8F8F8DB7DF8D89CA88C6D
:10096000F530DB38D9D0DEDFA0D0DEDFD8A848DB19
:1009700058D9DFD0DEA0DFD0DED8A868DB70D9DFA1
:10098000DFA0DFDFD8F1A888902C547C98A8D05C39
:1009900038D1DAF2AE8CDFF9D8B087A8C1C1B188FE
:1009A000A8C6F9F9DA36D8A8F9DA36D8A8F9DA36C5
:1009B000D8A8F9DA36D8A8F9DA36D8F78D9DADF887
:1009C00018DAF2AEDFD8F7ADFA30D9A4DEF9D8F2F2
:1009D000AEDEFAF983A7D9C3C5C7F1889BA77AAD64
:1009E000F7DEDFA4F8849408A797F300AEF2981915
:1009F000A488C6A39488F632DFF28393DB09D9F288
:100A0000AADFD8D8AEF8F9D1DAF3A4DEA7F1889B33
:100A10007AD8F38494AE19F9DAAAF1DFD8A881C0A4
:100A2000C3C5C7A39283F628ADDED9F8D8A350ADCD
:100A3000D9F8D8A378ADD9F8D8F8F9D1A1DADEC3BE
:100A4000C5C7D8A18194F818F2B089ACC3C5C7F165
:100A5000D8B8B4B09786A8319B069907AB97288879
:100A60009BF00C201440B0B4B8F0A88A9A285078B3
:100A7000B79BA8295179247059446938644831F1E9
:100A8000BBAB88002C547CF0B38BB8A804285078FA
:100A9000F1B088B49726A85998BBABB38B02264611
:100AA00066B0B8F08A9CA82951798B2951798A249B
:100AB00070598B2058718A4469388B3940688A6430
:100AC00048318B30496088F1AC002C547CF08CA804
:100AD00004285078F1889726A85998AC8C022646AD
:100AE00066F0899CA8295179247059446938644872
:100AF00031A98809205970AB11384069A8193148CB
:100B0000608CA83C415C207C00F187981986A86E17
:100B1000767EA999882D557DD8B1B5B9A3DFDFDFE1
:100B2000AED0DFAAD0DEF2ABF8F9D9B087C4AAF113
:100B3000DFDFBBAFDFDFB9D8B1F1A3978E60DFB0E5
:100B400084F2C8F8F9D9DED89385F14AB183A308B5
:100B5000B5839A0810B79F10D8F1B0BAAEB08AC268
:100B6000B2B68E9EF1FBD9F41DD8F9D90CF1D8F8A4
:100B7000F8AD61D9AEFBD8F40CF1D8F8F8AD19D9BD
:100B8000AEFBDFD8F416F1D8F8AD8D61D9F4F4AC32
:100B9000F59C9C8DDF2BBAB6AEFAF8F40BD8F1AE0B
:100BA000D0F8AD51DAAEFAF8F1D8B9B1B6A3839C5A
:100BB00008B9B1839AB5AAC0FD3083B79F10B58B31
:100BC00093F20202D1ABDADED8F1B080BAABC0C387
:100BD000B284C1C3D8B1B9F38BA391B609B4D9AB70
:100BE000DEB0879CB9A3DDF1B38B8B8B8B8BB08789
:100BF000A3A3A3A3B28BB69BF2A3A3A3A3A3A3A374
:100C0000A3A3A3F1B087B59AA3F39BA3A3DCBAACCB
:100C1000DFB9A3A3A3A3A3A3A3A3A3A3A3A3A3A352
:100C2000A3A3D8D8D8BBB3B7F1AAF9DAFFD9809A71
:100C3000AA28B48098A720B79787A86688F079512A
:100C4000F1902C870CA781976293F0717160859465
:100C50000129517990A5F1284C6C870C951885785D
:100C6000A38390284C6C886CD8F3A28200F210A861
:100C7000921980A2F2D926D8F188A84DD948D896E1
:100C8000A83980D93CD89580A839A68698D92CDA7D
:100C900087A72CD8A8899519A980D938D8A88939C7
:100CA000A980DA3CD8A82EA83990D90CD8A89531BB
:100CB00098D90CD8A809D9FFD801DAFFD89539A955
:100CC000DA26FFD890A80D8999A810809821DA2EED
:100CD000D88999A83180DA2ED8A886963180DA2E64
:100CE000D8A8873180DA2ED8A88292F34180F1D932
:100CF0002ED8A882F31980F1D92ED882ACF3C0A2E5
:100D00008022F1A62EA72EA92298A829DAACDEFF10
:100D1000D8A2F22AF1A92E8292A8F23180A696F1E9
:100D2000D900AC8C9C0C30ACDED0DEFFD88C9CACF7
:100D3000D010ACDE8092A2F24C82A8F1CAF235F15A
:100D40009688A6D900D8F1FF0E0C0D0F08FFFF09F9
:100D5000050406070A0B0F0C0D0E08FFFF0905041A
:100D600006070A0B0F0C0D0E0908FFFF0504060706
:100D70000A0B2126010700000000612D6D696372D6
:100D80006F004552524F5200020F00000001010156
:100D900015D4A2000D000000FFFFFFFFFFFFFFFFC3
:100DA000FFFFFFFFFFFFFFFFFF00FF00FF00FF004F
:100DB000FF00FF0040404005B80B04160D0E0F3336
:100DC000280B504F525151FFFFFFFFFFFF00FF0064
:100DD000FF00FF000D0080000EFF000010FFFF006D
:100DE0000F0000FF09FF45000000000000000000A8
:100DF00000000000000000000000000000000000F3
:100E000000000000000000000000000000000000E2
:100E100000000000000000000000000000000000D2
:100E200000000000000000000000000000000000C2
:100E300000000000000000000000000000000000B2
:100E400000000000000000000000000000000000A2
:100E50000000000000000000000000000000000092
:100E60000000000000000000000000000000000082
:100E7000000000FF01000080008001000080008071
:100E800001000080000001000080000001000080DF
:100E90000000010000800000051409023E0002016C
:100EA00000C0320904000001020201000524001004
:100EB0000104240206052406000107058203080038
:100EC000FF09040100020A000000070504021000E7
:100ED0000507058302100005120110010200004001
:100EE0004F1B049201000102DC012A035300700031
:100EF000610072006B00460075006E002000450026
:100F00006C0065006300740072006F006E00690081
:100F10006300730000002403410072006400750048
:100F200069006E006F002000500072006F0020000A
:100F30004D006900630072006F00000004030904A3
:100F400011241FBECFEFDAE0DEBFCDBF12E0A0E07C
:100F5000B1E0E4EDF3E602C005900D92AA32B107CC
:100F6000D9F726E0AAE2B2E001C01D92AB39B20780
:100F7000E1F70E9408220C94E83142C8CF93DF9336
:100F8000FC01DA0186E0EB01888385E08083159619
:100F90002C911597822F922F990F990B97FD0796F9
:100FA00053E0959587955A95E1F7828317962C9192
:100FB0001797822F922F990F990B919581959109EF
:100FC00097FD079643E0959587954A95E1F78383CA
:100FD0001B962C911B97822F922F990F990B97FD9F
:100FE000079633E0959587953A95E1F784831996AE
:100FF0002C911997822F922F990F990B97FD079695
:1010000023E0959587952A95E1F7858311969C9124
:1010100011979295917081818E7F982B9183119673
:101020008C911197829582709D7F892B8183119677
:101030009C919695969596959870877F892B81833C
:10104000DF91CF9108958F929F92AF92BF92CF92EE
:10105000DF92EF92FF920F931F93CF93DF93FC01E8
:10106000DA018CE1EB01888384E08083A090D602D2
:1010700084E2C82E81E0D82E4F0190E080E061E04C
:1010800070E0B82EE60129916E012F3F09F44CC0A3
:10109000AB0102C0440F551F2A95E2F72D913C91F8
:1010A00011972423352341E02115310509F440E04F
:1010B0008B010B2C02C0000F111F0A94E2F7009560
:1010C0001095E180F280E022F12250E08A0102C016
:1010D000000F111FBA94E2F70E291F291283018312
:1010E0008A1510F500918A050B3109F098C08430FB
:1010F00008F095C09C01225B3E4FE9012881EB017D
:1011000002C0CC0FDD1F2A95E2F79E010D911C91C4
:10111000119720233123422B532B21E0452B09F437
:1011200020E02195E40128870196DFEF8D1A9D0AC2
:101130008E30910509F0A5CFCC91CF7088E0CB30EF
:1011400020F4D0E0C752DE4F888183831A962D9118
:101150003C911B9780918A058B3109F066C01996E6
:101160008C91199785958054868387EF91E02F3F66
:101170003F4711F484E891E0958B848B8DE787835A
:1011800080918A058F3119F08A3109F073C081810D
:1011900092818F7E12962C911297233308F064C0AF
:1011A00030E020E0822B932B928381838F7D1396F6
:1011B0002C911397233308F05AC030E020E0822BA3
:1011C000932B9283818312968C9112978487139626
:1011D0008C911397858715968C91159780588483E9
:1011E00017969C9117979058958319968C911997FB
:1011F000805886831B968C918058878320918A051E
:101200002A31E1F1DF91CF911F910F91FF90EF9083
:10121000DF90CF90BF90AF909F908F90089541E066
:10122000232B09F440E0242F7CCF8D3119F080323C
:1012300009F0A6CF19968C911997805886838181E1
:1012400092818F7D2F3F3F4761F030E020E0822B7D
:10125000932B9283818312969C91129780E8891B2D
:101260008ECF20E230E0F3CF20E130E09BCF20E2D0
:1012700030E0A5CF80E884838583C4CF90959583A3
:1012800080958783BFCFEF92FF920F931F93CF93E9
:10129000DF93CDB7DEB72B970FB6F894DEBF0FBE46
:1012A000CDBFE62FF0E0E355FE4F80818F3F81F008
:1012B00021E030E002C0220F331F8A95E2F78091CF
:1012C0002D0290912E022823392381E0232B09F44B
:1012D00080E02B960FB6F894DEBF0FBECDBFDF9136
:1012E000CF911F910F91FF90EF900895EF92FF9291
:1012F0000F931F93CF93DF93CDB7DEB72B970FB626
:10130000F894DEBF0FBECDBFE982FA820B831C8347
:101310002D833E834F83588769877A878B87EA813D
:10132000FB8180818E2191E009F490E081E02885A5
:10133000921380E02B960FB6F894DEBF0FBECDBFA0
:10134000DF91CF911F910F91FF90EF900895EF9251
:10135000FF920F931F93CF93DF93CDB7DEB72B97F9
:101360000FB6F894DEBF0FBECDBF80E02B960FB650
:10137000F894DEBF0FBECDBFDF91CF911F910F91CB
:10138000FF90EF9008958091A50487FF11C0809190
:10139000E80082FF06C08091E8008B778093E80028
:1013A00003C08BB58111F3CF08958BB58823E1F38A
:1013B0008091E80080FFF9CF8091E8008E77EECF32
:1013C000CF93DF9300D000D0CDB7DEB72FB7F8941E
:1013D00080919E0290919F02A091A002B091A102E3
:1013E0002FBF2227382F492F5A2FCA01B9012DE7C5
:1013F00030E040E050E00E941A31CA01B9010F907C
:101400000F900F900F90DF91CF910895CF92DF92C0
:10141000EF92FF920F931F93CF93DF93EC016B0139
:10142000BA01A901F801C70120812630E0F4209714
:1014300071F000271127041B150B601771073CF48E
:1014400031962E0D3F2D311DD9011396CC93C11429
:10145000D10449F04617570734F42081820F911DBB
:10146000DC011396CC92DF91CF911F910F91FF90E9
:10147000EF90DF90CF9008958F929F92AF92BF929E
:10148000CF92DF92EF92FF920F931F93CF93DF9350
:101490000F92CDB7DEB76C014A0189E0DB018C9376
:1014A00086E0F6018083EBEBF5E050E040E080E081
:1014B00061E070E091919923A1F0D401AD90BC90CE
:1014C0009B01042E02C0220F331F0A94E2F72A2147
:1014D0003B21232B31F0D601A80FB11D13969C930D
:1014E0008F5F4F5F5F4F4031510509F05EC08983C8
:1014F000A090D402B090D502F4014481558160914E
:10150000CE0570E08091CD0576018E010F5F1F4FF3
:10151000950190E07BDFD40116964D915C9160912E
:10152000D00570E08091CF05950190E06FDFF40168
:10153000408551856091D20570E08091D10595017B
:1015400090E064DFD4011A964D915C916091D405CE
:1015500070E08091D305950190E058DFA090D20211
:10156000B090D302F401428150E06091CB0570E06D
:10157000950190E080E04ADFD40113964C9150E051
:101580006091CC0570E0950190E080E03FDF0F9026
:10159000DF91CF911F910F91FF90EF90DF90CF904F
:1015A000BF90AF909F908F900895863009F082CFC2
:1015B0009ECFCF93DF9300D000D0CDB7DEB7DB0155
:1015C0009C010E945F3169837A838B839C83DC0159
:1015D000CB019F77AA27BB2781159044A105B105B0
:1015E000D1F080E090E4A0E0B0E029813A814B8125
:1015F0005C81820F931FA41FB51F2FE0B595A7959F
:10160000979587952A95D1F70F900F900F900F908F
:10161000DF91CF91089580E090E0DC01E6CF8EBDB0
:1016200000000DB407FEFDCF8EB50895CF93DF9374
:10163000DC01FC01359685E0EF0119928A95E9F706
:10164000862F90E0FC01E15DFE4F6491805F9E4F2C
:10165000FC01849170E0660F771FFB01EE5FFE4F87
:10166000C591D491FB01EC50FF4F6591749190911D
:1016700099068C931296DC93CE93119714967C93D3
:101680006E93139717962C93179718964C93189759
:101690001A969C931A97CD01DF91CF91089590E00F
:1016A000FC01E05FFE4F2491FC01E15DFE4FE491FF
:1016B000EE2389F0F0E0EE0FFF1FEC50FF4FA591F5
:1016C000B4918FB7F894611107C09C91E22FE09517
:1016D000E923EC938FBF0895EC91E22BFACF90E0D1
:1016E000FC01E05FFE4F2491FC01E15DFE4FE491BF
:1016F000EE2359F0F0E0EE0FFF1FEE5FFE4FA591D5
:10170000B491EC91E22381E009F480E00895CF9355
:10171000DF93EC018091B305E2DF91E089274FEF81
:101720005FE7849F9001859F300D11243B872A87B6
:10173000DF91CF910895E82FF0E0E851FF4FE49159
:1017400090917B008E2F880F880F80729F7D892B50
:1017500080937B00E770E064E0937C0080917A00E6
:10176000806480937A0080917A0086FDFCCF80911E
:10177000780090917900089580917A0086FDFCCFE1
:1017800081E080933E010895CF93DF9390E0FC01C8
:10179000E05FFE4F2491815D9E4FFC018491882380
:1017A000D1F090E0880F991FFC01E652FF4FA59100
:1017B000B491FC01EC50FF4FC591D491613071F4AC
:1017C0009FB7F8948C91209582238C93888128234D
:1017D00028839FBF7894DF91CF910895623051F4B0
:1017E0009FB7F8943C91822F809583238C93E88156
:1017F0002E2BEECF8FB7F894EC912E2B2C938FBF1E
:10180000E9CFCF92DF92EF92FF921F93CF93DF93B6
:101810006B017C01142FD22F60E080E1B5DF62E024
:101820008EE0B2DF60E08FE0AFDF61E081E137DFC3
:1018300060E081E1A9DF1111C8E0D111C460C114D9
:1018400089E0D8068DE3E806F104D0F580E8C816F3
:1018500084E8D8068EE1E806F104A0F580E4C81615
:1018600082E4D8068FE0E806F10470F580E2C8163D
:1018700081EAD80687E0E806F10440F580E9C81659
:1018800080EDD80683E0E806F10410F588E4C81678
:1018900088EED80681E0E806F104E0F487E091E004
:1018A0008927982F96959C2B90659CBD81708DBD46
:1018B000DF91CF911F91FF90EF90DF90CF9008952F
:1018C00080E0EDCF81E0EBCF82E0E9CF83E0E7CFAE
:1018D00084E0E5CF85E0E3CFEAE7F0E08081846053
:1018E000808380818260808380818E7F80838081FD
:1018F000806880830895682F8AE0D1CE7F928F928E
:101900009F92AF92BF92CF92DF92EF92FF920F938E
:101910001F93CF93DF93CDB7DEB768970FB6F894D8
:10192000DEBF0FBECDBF1092700310926F0324DF95
:101930001092DC021092DB021092DA021092D902AD
:1019400039E8C32E35E0D32E8601B12C4CE0A42E0D
:10195000AE014F5F5F4F7A01D701EA2D1D92EA95E4
:10196000E9F7BB82D8019096EC91EF3F09F443C0B0
:10197000B5E0BB120CC0A0918A05B0E0A651BE4FE5
:101980008C91823021F480918B058330A1F5D801B0
:1019900091968C918D83E23108F0E251F0E0E851AC
:1019A000FF4F949061E082E1890DEEDE90917B0023
:1019B000892D880F880F80729F7D892B8983E92D5F
:1019C000E770E064EA838091DB029091DC029C0185
:1019D0002F5F3F4F3093DC022093DB02A89ED001A3
:1019E000A99EB00D1124A352BD4FF7018A2D01907D
:1019F0000D928A95E1F7B3940E5F1F4FB6E0BB12CC
:101A0000ABCF10E000E08BE0982EAA24A394B12C79
:101A10002CE0722E80908905E2E08E12B6C0D601CD
:101A200050966C916F3F09F473C081E00C30110542
:101A300038F49801285031092230310508F080E04F
:101A4000B82FB170B88F80FF05C021E080918D055F
:101A5000813009F020E02170402FCE010D96E6DDA7
:101A6000E0918A05F0E0E651FE4F2081213009F037
:101A70006CC0E88DEE2309F468C0D6015096EC9155
:101A80008091B705B8E08B9FC00111243D89D70133
:101A9000F7E01D92FA95E9F7EB832A87A50102C0CA
:101AA000440F551F3A95E2F75C874B8799878887E3
:101AB000E23108F0E251F0E0E851FF4F849061E03C
:101AC00082E1880D61DE90917B00882D880F880F60
:101AD00080729F7D892B8983E82DE770E064EA831B
:101AE0008091DB029091DC029C012F5F3F4F30938D
:101AF000DC022093DB02789ED001799EB00D112488
:101B0000A352BD4FF701872D01900D928A95E1F701
:101B10000F5F1F4FBFEFCB1ADB0A0031110509F031
:101B200079CF68960FB6F894DEBF0FBECDBFDF91B8
:101B3000CF911F910F91FF90EF90DF90CF90BF90CA
:101B4000AF909F908F907F9008958C89882311F09B
:101B500088248394682DD60150968C9115DE80914F
:101B60006F03909170039C012F5F3F4F3093700380
:101B700020936F03989ED001999EB00D1124AD580B
:101B8000BC4FFE013D96892DBFCF20E0402F60E085
:101B9000C7014CDD4B85E0918A05F0E0E651FE4F30
:101BA0008081823029F40230110510F440919A06A8
:101BB00080916F03909170039C012F5F3F4F309392
:101BC000700320936F034B87989ED001999EB00DB0
:101BD0001124AD58BC4FF701D6CF982F80918B05BB
:101BE000813021F080918905813021F48EEF890FB9
:101BF000823048F082EF890F843028F081E0923003
:101C000018F080E0089581E008950F931F93CF931B
:101C10008091A304882391F00BE814E0C0E08C2F9E
:101C2000DCDF811103C061E08C2FAEDD8C2F57DD2E
:101C3000F80181938F01CF5FC83189F710928A0430
:101C40001092A304CF911F910F9158CECF93DF93A1
:101C5000FC01DB018C918052990B880F880F148254
:101C6000858311968C9111978052990B880F880F5C
:101C70001682878314964D915C91159740955095E7
:101C800080918A05833290F013968C91139781FF8F
:101C90000DC08095807E12969C91129796959E73AA
:101CA0009A3138F5E859FF4F923139F115968C91F8
:101CB000982F96959695969561E096279170D92FD5
:101CC000D295DD0FD07E90E0567D492B5D2B82951D
:101CD0008695877086278170382F330F330F330F27
:101CE000242F352B30932E0220932D02DF91CF919C
:101CF0000895EC59FF4F9E31C9F68083D7CFFC0180
:101D0000DB018C91880F880F80581482858311968F
:101D10008C911197880F880F8058168287831396AD
:101D20008C9113978F718051990B880F880F1086B3
:101D3000818714968D919C918095909590932E0219
:101D400080932D020895FC01DB018C918058990B42
:101D50001482858312968C9112978058990B168263
:101D6000878311968C9111978058990B10868187E3
:101D700013968C9113978058990B1286838714962B
:101D80008C911497828315968C9115978383169660
:101D90008D919C918095909590932E0280932D0229
:101DA0000895FC01DB018C918F738052990B958310
:101DB000848311968C9111978F738052990B97831E
:101DC00086838C9190E023E0959587952A95E1F79D
:101DD0008871992711962C91119730E045E035953F
:101DE00027954A95E1F726703327822B932B12967D
:101DF0002C911297221F2227221F822B4097918716
:101E0000808712968C9112978F718051990B9387CE
:101E1000828712968C911297869586958871139673
:101E20009C911397929596959770892B8283139620
:101E30008C9113978F71838314968D919C918095CB
:101E4000909590932E0280932D020895DC01FB0162
:101E500090818181829586958670292F2695269579
:101E600026952871822B2281221F2227221F822B56
:101E7000990F990F905814961C92149715969C934D
:101E800015979181990F990F905816961C92169755
:101E900017969C9317979481238190FF3AC030E066
:101EA000209530952F713327205E3F4F19963C9334
:101EB0002E931897082E000C990B228120FF30C01A
:101EC0002FE330E0281B390B1B963C932E931A9777
:101ED0008281869586958871938192959695977063
:101EE000892B12968C931297828190E09595879515
:101EF0008F7013968C9384819581982789279827D2
:101F0000809590958D7C937690932E0280932D02F0
:101F10000895922F9F7120E230E0291B3109C6CF2E
:101F200020E230E0CFCFCF93DF93FC01EB018A8139
:101F300090E0982F882788279F706881862B95834B
:101F400084838A8120E1829FC001112488279F70A9
:101F50006981862B978386838B8183838D8181FB27
:101F6000992790F9392F3295330F330F307C20E0C9
:101F7000982F9695969561E096279170B92FB29516
:101F8000BB0FB07EA0E02A2B3B2B8170582F5295BF
:101F9000507F422F532B50932E0240932D02DF91FE
:101FA000CF910895FC01DB018D919C911197958350
:101FB000848312968D919C911397978386831496B0
:101FC0008C9183830895FB018481958198278927CB
:101FD00098278095909590932E0280932D020895D6
:101FE000DC01862F90E0603100F5E0918A05F0E099
:101FF000E651FE4F2081213049F4693038F0FD016F
:10200000E80FF91FE45AFF4F8081089581E090E0C6
:1020100002C0880F991F6A95E2F72D913C918223A7
:102020009323892BE1F480E008952091B505633175
:1020300068F0FC017097EE0FFF1FEA0FFB1F81E0B5
:10204000408151812417150670F70895FD01E80FAE
:10205000F91F3E9781E090812917B8F3E4CF80E41F
:10206000F4CF7F928F929F92AF92BF92CF92DF92E6
:10207000EF92FF920F931F93CF93DF93EC017B01BD
:10208000742E852E87E088834DE2C42E46E0D42E40
:1020900008E812E0912CB12CF60181916F018823A0
:1020A00069F130EBA32E813011F420E9A22E692DC5
:1020B000872D982D95DF8695F80190819817F1F07E
:1020C000F60143A59589F80180832B2D30E054E07B
:1020D000B59EF0011124EC0FFD1F5A2D52955F7033
:1020E0005183A42AA2829383F9013196EE0FFF1F38
:1020F000EE0FFF1FEC0FFD1F8083B3940F5F1F4F88
:10210000939486E19812C8CFBB0CBB0CB394F70133
:10211000B082DF91CF911F910F91FF90EF90DF90F0
:10212000CF90BF90AF909F908F907F90089580E068
:10213000E2DB81EE74DA81E0DECB80E0DCDB82EE94
:102140006EDA81E0D8CB80E0D6DB80E568DA83E721
:1021500066DA81E0D0CBCF9380E0CDDB8FEF5FDA22
:10216000C82F81E0C8DB8C2FCF9108950F931F9368
:10217000CF93DF93EC018C01060F111DC017D1071F
:1021800029F4DF91CF911F910F910895899147DA3A
:10219000F5CFCF93DF93D82FC62F80E0ACDB8D2F08
:1021A00080623DDA8C2F3BDA81E0DF91CF91A3CBC7
:1021B000F89488E198E00FB6F894A89580936000B1
:1021C0000FBE90936000FFCF1F93CF93DF93182F24
:1021D000D62FC72F80E08FDB812F806220DA64E06A
:1021E0008D2F9C2FC3DF81E0DF91CF911F9183CB97
:1021F0001F93CF93DF93182FEB0180E07CDB812FBF
:102200000EDA88810CDA888381E0DF91CF911F910B
:1022100072CBCF93DF930F92CDB7DEB7BE016F5F66
:102220007F4FE6DF89810F90DF91CF910895FF9274
:102230000F931F93CF93DF93082FF92E60E487E06D
:10224000A8DF80E058DB80E6EAD980E0E8D9182FE3
:1022500081E051DB80E04FDB81E6E1D9C02FDF2D4B
:102260008C2F801B811750F081E045DB812F90E09F
:10227000DF91CF911F910F91FF9008958991CFD950
:10228000FE0131978083ECCFFF920F931F93CF9382
:10229000DF93D82FC92FF62E072F142F1092710419
:1022A0005ADF282F30E03595279527703327232BC9
:1022B000E1F48F2D902FBBDF60E487E06ADF01E05F
:1022C00060E387E066DF80E016DB80EAA8D9612F53
:1022D0008D2F9C2F4BDF81E00EDB802F90E0DF9174
:1022E000CF911F910F91FF90089500E0E9CF85ED08
:1022F0008093BC008FEF9FE72091BC0024FD03C0BA
:102300001092C60202C00197B9F70895CF93DF93E8
:10231000DC01FA0184E1EB0188831C9211968C9315
:10232000119712968CE001900D928A95E1F7DF915A
:10233000CF910895CF93282FCB01C42F4FEF5FE7A4
:10234000C13228F080E045C041505109D9F33091A5
:10235000C6023111F9CF31E03093C6023093C50285
:102360004FEF40936402109286024C0F4093850217
:102370003093870230918702220F232B209387020C
:102380002091C402222381F11092C402209187027D
:102390002093BB002FEF3FE74091BC0043FD1BC0E3
:1023A00025EC2093BC002FEF3FE74091C60241305F
:1023B000E9F0209186022C1710F4C09186024C2F70
:1023C00050E065E672E00E94A73181E0CC2309F479
:1023D000B9CFCF9108952150310909F4B3CF40917D
:1023E00087024093BB00D8CF25EEDBCF21503109C7
:1023F000E1F6A8CFCF93C82F8FEF9FE7413220F0AF
:1024000080E03FC00197E1F32091C6022111FACF8D
:1024100082E08093C60281E08093C5028FEF8093B3
:102420006402109286024093850250E085E692E0B5
:102430000E94A7311092870280918702CC0FC82B8F
:10244000C09387028091C402882329F11092C402AC
:10245000809187028093BB008FEF9FE72091BC00A3
:1024600023FD11C085EC8093BC008FEF9FE7209186
:10247000C602223091F09091640281E09F3F09F002
:10248000BFCFCF910895019709F4BACF2091870269
:102490002093BB00E3CF85EEE6CF019741F7B0CFA5
:1024A000EF92FF920F931F93CF93DF930F92CDB7CD
:1024B000DEB7182F6983E42EF22E032F41E0BE0110
:1024C0006F5F7F4F97DF882371F04E2D6F2D702F38
:1024D000812F30DF81700F90DF91CF911F910F918D
:1024E000FF90EF90089580E0F5CFAEEAB2E013964A
:1024F000ED91FC91149780819C91892B8083A3EAB4
:10250000B2E01396ED91FC91149780819C91892BF8
:102510008083A9EBB2E01396ED91FC911497808132
:102520009C91892B808388E28A95F1F70895CF9258
:10253000DF92EF92FF920F931F93CF93DF938C0163
:10254000EB016C017B01E40EF11CCE15DF0549F4B3
:10255000DF91CF911F910F91FF90EF90DF90CF907F
:1025600008958AE50115110589F0F6019081892FFA
:1025700086958575990F9A7A892B982F96959695B9
:102580009373880F880F8C7C892B829548D8982F5D
:1025900086958575990F9A7A892B982F9695969599
:1025A0009373880F880F8C7C892B82958993F8E22E
:1025B000FA95F1F78FEFC81AD80AC7CF0F931F9378
:1025C000CF93DF938C01C62FE091BC02F091BD0246
:1025D00090818091B902809589238083E091A60241
:1025E000F091A70290818091A30280958923808336
:1025F000E091B102F091B20290818091AE0280959B
:102600008923808388E28A95F1F743E06FE272E0E4
:10261000C8018DDF809130028F3F49F4D0E0C0E0E7
:1026200064DFCE01DF91CF911F910F9108959091BA
:1026300031029A3511F09111F1CF8F70D82FDD0F43
:10264000C33039F04DEF4C0F62E372E0C8010396DE
:102650006EDFDD5F4D2F4C1BDC1761F06C2F70E0DF
:10266000CB01840F911D8197CCF6615D7D4F90E089
:1026700080E05DDFCFE2D2E0D3CFCF92DF92EF9266
:10268000FF920F931F93CF93DF9300D000D000D021
:10269000CDB7DEB78D839E83062F0E94E0096B01C4
:1026A0007C0110E0602F8D819E8188DFFC01892BE9
:1026B00051F01F5F8D819E81855D914059F581812B
:1026C000807F803F81F18FE19EE40197F1F700C0A8
:1026D00000000E94E00969837A838B839C83DC017C
:1026E000CB018C199D09AE09BF098B3F9105A1054E
:1026F000B105C0F280E026960FB6F894DEBF0FBE9B
:10270000CDBFDF91CF911F910F91FF90EF90DF90A0
:10271000CF9008958D819E81815D914031F48181BA
:10272000807F803F81F281E0E6CF1330E0F7CBCFAE
:10273000CF93DF93EC0163E08EEC91E03FDFFC018F
:10274000892B49F08181982F907F903F31F464E08C
:1027500081ED91E092DF80E01FC0238134819035CC
:10276000F1F488E080933F018181823179F489E03E
:1027700080933F0185818058990B1C828D8346810F
:102780008FE790E0841B91091E828F838181807D79
:10279000803509F457C081E0DF91CF9108958332ED
:1027A00041F585E080933F0185818058990B1C821B
:1027B0008D83888199819F7B46814138B0F550E0B7
:1027C00040E0842B952B998388839F7747814138FC
:1027D00078F550E040E0842B952B998388839E7F89
:1027E0004085413F40F550E040E0842B952B998394
:1027F00088838181807F803E09F0B6CF86E0809318
:102800003F01858190E09D838C839681858197FD32
:1028100015C087FD8FE790E09D838C838C819D811F
:1028200080589F4F9D838C839FCF40E050E4C9CF59
:1028300040E050E8D0CF40E051E0D7CF813858F7A2
:1028400081E8E9CF85818058990B18868987468170
:102850008FE790E0BC01641B71091A866B87478182
:102860004058550B1C824D834085841B91091E8264
:102870008F838181893709F08ECF83898A83848908
:102880008B8380913F01843009F085CF818990E06E
:102890009987888720953095222731704FEF5FE721
:1028A000249FC001259F900D349F900D11249B877C
:1028B0008A8771CF1F93CF93DF93182FD92F8091E1
:1028C0003F018A30A9F5C5E0812F9D2F31DF8FECC4
:1028D00097E00197F1F700C00000C150A9F7812FE0
:1028E0009D2F26DF882361F164E085ED91E0C5DE50
:1028F000882381F163E08DEB91E060DEFC01892BA0
:1029000049F08381833021F18130F1F48181823477
:1029100009F0C4E0C0933F0165E089EC91E0ADDED1
:1029200069E080EC91E0A9DE64E081ED91E0A5DE54
:10293000812F9D2FFDDE811103C08AE080933F012E
:10294000DF91CF911F9108958C3021F7C3E0E2CF42
:10295000C2E0E0CF81E080933F01EACFFF920F9386
:102960001F93CF93DF930F92CDB7DEB78983F62EF7
:102970008A0141E0BE016F5F7F4F82E53BDD882326
:1029800051F087E691E00197F1F700C000004F2D6C
:10299000B80182E5CFDC0F90DF91CF911F910F91AD
:1029A000FF900895CF93DF9300D000D000D0CDB733
:1029B000DEB7AE014F5F5F4F66E08AEFCFDFFE010B
:1029C0003196AE01495F5F4F8FEF90E02191922BDE
:1029D00082234E175F07D1F7992369F08F3F59F093
:1029E00099818E8126960FB6F894DEBF0FBECDBFBB
:1029F000DF91CF9108958FEF9FEFF4CFFF920F9368
:102A00001F93CF93DF93CDB7DEB72A970FB6F89415
:102A1000DEBF0FBECDBF6B837C838D839E832F83F0
:102A2000388749875A8781E08093710460E080E0AD
:102A30000E94C40B60E08AE00E94C40B20E040E0EA
:102A400060E072E18AE790E00E94010C60E080E0C3
:102A50000E944F0B81E00E947B0C8FE097E2019770
:102A6000F1F700C0000061EF84E093DB62E083E0F7
:102A700090DB8E010F5F1F4FB80186E0B9DB6981E3
:102A8000697F698386E085DB8DE1C3DBF82E5BDB44
:102A90008DE1BFDB882331F0F81201C054DB60E028
:102AA0008DE177DBBE016E5F7F4F86E0A1DB6A813F
:102AB000677D63606A8386E06CDBB80186E098DB43
:102AC000B80180E095DB69816C60698380E061DB3F
:102AD0006CE485E05EDB8DE19CDB682F64608DE15A
:102AE00058DB8CE196DB682F6F638CE152DB8DE164
:102AF00090DB682F66608DE14CDB8CE18ADB682F10
:102B000063608CE146DB6FE381E043DB60E787E0F5
:102B100040DB13DB0CDB1982B80180E069DB8981C3
:102B20008C78898360E080E00E944F0B698162604D
:102B300080E02FDB61E080E00E944F0BBE016D5F03
:102B40007F4F8AE041DBBE016D5F7F4F80E13CDB60
:102B500060E080E00E944F0BBE01695F7F4F8BE019
:102B600033DB63E082E015DB61E080E00E944F0B25
:102B700080916900806880936900EB9A2A960FB66D
:102B8000F894DEBF0FBECDBFDF91CF911F910F91A3
:102B9000FF9008957F928F929F92AF92BF92CF92B3
:102BA000DF92EF92FF920F931F93CF93DF93CDB7F6
:102BB000DEB728970FB6F894DEBF0FBECDBF8C01ED
:102BC0006F837887AF81B8858C918058990BF80115
:102BD0001482858312968C9112978058990B1682D5
:102BE000878380919005882309F4D5C015967C9041
:102BF0001597872D90E01396EC901397F4E0EF9ED5
:102C0000900111247C0144E0F594E7944A95E1F7A2
:102C100043E0E422FF24E22AF32A14962C9154E0A4
:102C2000259F90011124959587959595879583709B
:102C30009927822B932B9C0150E040E029833A8313
:102C40004B835C83CA01B9010E94A73020E030E8C1
:102C50004FEF53E469837A838B839C8369817A8104
:102C60008B819C810E940D304B018D839E83AF81AF
:102C7000B88512968C91B4E08B9FC0011124729498
:102C80007694769463E0762287299C0150E040E0B8
:102C900029833A834B835C83CA01B9010E94A73020
:102CA00020E030E84FEF53E469837A838B839C8381
:102CB00069817A818B819C810E940D3094014D81C4
:102CC0005E8169837A838B839C8369817A818B811E
:102CD0009C810E94392E20EE3EE245E652E4698353
:102CE0007A838B839C8369817A818B819C810E940A
:102CF000743069837A838B839C8369817A818B8129
:102D00009C810E947630D80119967C936E93189717
:102D1000970150E040E029833A834B835C83CA01EA
:102D2000B9010E94A73020E030E84FEF53E46983F7
:102D30007A838B839C8369817A818B819C810E94B9
:102D40000D3094014D815E8169837A838B839C83EE
:102D500069817A818B819C810E94392E20EE3EE22E
:102D600045E652EC69837A838B839C8369817A81FF
:102D70008B819C810E94743069837A838B839C83CE
:102D800069817A818B819C810E947630D8011B9663
:102D90007C936E931A97EF81F8858581982F909593
:102DA0009170D92ED29490EFD922C12C869591E0C2
:102DB00089278170B82EB294BB0CBB0C20ECB222D8
:102DC000A12CCA28DB28D0922E02C0922D02289670
:102DD0000FB6F894DEBF0FBECDBFDF91CF911F912C
:102DE0000F91FF90EF90DF90CF90BF90AF909F90AA
:102DF0008F907F900895EF92FF920F931F93CF9340
:102E0000DF9300D0CDB7DEB7082F142F732F8DB707
:102E10009EB79A83898350E0CA010196EDB7FEB749
:102E2000E81BF90B0FB6F894FEBF0FBEEDBF8DB7D0
:102E30009EB701967C016183622F01960E94A731A3
:102E400041E0410FB701802FD5DAE981FA810FB651
:102E5000F894FEBF0FBEEDBF0F900F90DF91CF91A2
:102E60001F910F91FF90EF900895EF92FF920F93B3
:102E70001F93CF93DF930F92CDB7DEB780910701F9
:102E8000811109C08FEF0F90DF91CF911F910F91AA
:102E9000FF90EF9008951982A0910101B091020175
:102EA000E0910301F09104018E010F5F1F4F980123
:102EB00041E051966C9180819EDF7801882311F367
:102EC000A0910101B0910201E0910301F091040190
:102ED000980141E015966C9180818DDF882391F2F5
:102EE000A0910101B0910201E0910301F091040170
:102EF000980141E014966C9180817DDF882309F46C
:102F0000C1CFE0910101F09102016481E0910301E0
:102F1000F091040180911E01882309F457C08CE0D0
:102F20008983980141E0808166DF882309F4AACF74
:102F30002FE788E391E0215080409040E1F700C006
:102F4000000080EC89838091070180FF02C080EE41
:102F50008983A0910101B0910201E0910301F091F8
:102F60000401970141E014966C91808144DF88232D
:102F700009F488CF80910D01882331F182E08983A3
:102F8000A0910101B0910201E0910301F0910401CF
:102F9000970141E051966C9180812DDF882309F4DF
:102FA00071CF1982A0910101B0910201E09103015A
:102FB000F0910401970141E015966C9180811BDF2F
:102FC00091E0892781955FCF1982DACF84E08983E8
:102FD000980141E080810FDF882309F453CF80916D
:102FE0000E01811104C08091070180FD3EC080E484
:102FF0008983A0910101B0910201E0910301F09158
:103000000401970141E014966C918081F4DE8823DD
:1030100009F438CF2FE788E391E0215080409040B9
:10302000E1F700C0000080910D01882301F181E0EB
:103030008983A0910101B0910201E0910301F09117
:103040000401970141E051966C918081D4DE882380
:1030500009F418CFA0910101B0910201E0910301A0
:10306000F09104012CE031E0A6CF80E6C1CF1982B7
:10307000E0CF8F929F92AF92BF92CF92DF92EF926A
:10308000FF920F931F93CF93DF93CDB7DEB7EA97ED
:103090000FB6F894DEBF0FBECDBF89AF9AAF1092C6
:1030A000530210925202D090D102ED2CF12C80915B
:1030B0001E01882309F1809107018823E9F0A0917E
:1030C0000101B0910201E0910301F09104019E0120
:1030D0002F5D3F4F42E01C966C918081E1D988239F
:1030E00059F009A11AA11027012710270E151F0555
:1030F00008F09FC1109251028091520290915302A8
:103100008115914009F07AC183E08093B805609100
:1031100054027091550280915602909157020E947C
:10312000A93020E030E040E054E36FA378A789A7FE
:103130009AA76FA178A589A59AA50E9474306FA35C
:1031400078A789A79AA76FA178A589A59AA50E94B3
:1031500076306FA378A789A79AA7EFA1F8A5F09377
:103160005502E09354026091580270915902809187
:103170005A0290915B020E94A93020E030E040E0CA
:1031800054E36BA37CA38DA39EA36BA17CA18DA113
:103190009EA10E9474306BA37CA38DA39EA36BA100
:1031A0007CA18DA19EA10E9476304B0170935702A5
:1031B0006093560260915C0270915D0280915E02A4
:1031C00090915F020E94A93020E030E040E054E39B
:1031D0006BA37CA38DA39EA36BA17CA18DA19EA1BB
:1031E0000E9474306BA37CA38DA39EA36BA17CA1D2
:1031F0008DA19EA10E9476306B017093590260935D
:103200005802609160027091610280916202909117
:1032100063020E94A93020E030E040E054E36BA359
:103220007CA38DA39EA36BA17CA18DA19EA10E94D6
:1032300074306BA37CA38DA39EA36BA17CA18DA1F5
:103240009EA10E947630462F572F50935B024093E9
:103250005A02489DC001499D900D589D900D112422
:103260004FA158A5C49E9001C59E300DD49E300D2F
:1032700011245C01A21AB30AB501C5010E94D90A42
:103280007C01BC010E94D90A8C01BC010E94D90AB0
:10329000D82EC92E60E670EB89EB94E40E946F2F64
:1032A000362F272FB701832F922F0E94D90A8BAB7D
:1032B0009CAB6AE27EEE87EB93E40E946F2F6FA7D0
:1032C00078AB89AB9AAB6EEF7AEB87E594E40E941A
:1032D0006F2F362F272FB701832F922F0E94D90AE5
:1032E0008DAB9EAB66EA79EB88E294E40E946F2F87
:1032F0006BA77CA78DA79EA762E377E88AE794E493
:103300000E946F2F362F272FB701832F922F0E94F5
:10331000D90A8FAB98AF63E87EEC86EB94E40E9409
:103320006F2F6BA37CA38DA39EA36AEC79E989E13F
:1033300095E40E946F2F362F272FB701832F922FEE
:103340000E94D90A4C016AEA7AEA8AEA95E40E9464
:103350006F2F6FA378A789A79AA78BA99CA9AFA560
:10336000B8A98A1B9B0BB8010E94D90A2DA93EA9B6
:10337000EBA5FCA52E0F3F1F6D2D7C2D820F931FFB
:103380000E94D90A6C018FA998AD2BA13CA1820F94
:10339000931FB8010E94D90A8C0D9D1D4FA158A5FD
:1033A000840E951EB701880D991D0E94D90AB5019A
:1033B0000E94D90A8A0D9B1D9195819591098A39A0
:1033C00059E195070CF40FC289E999E190935002F5
:1033D00080934F0220914F023091500245E0429F6E
:1033E000C001439F900D11242091B9053091BA0579
:1033F000820F931F9093500280934F0280914F024F
:1034000090915002E9ADFAAD93878287EA960FB6A4
:10341000F894DEBF0FBECDBFDF91CF911F910F910A
:10342000FF90EF90DF90CF90BF90AF909F908F90E4
:103430000895E0910301F0910401818192819695B4
:10344000879580179107A0F4A0910101B091020126
:103450009E012F5D3F4F41E053966C91808120D8B3
:10346000882309F449CE89A184FF02C0FEDC44CE42
:10347000A0910101B0910201E0910301F0910401DA
:103480009E012F5F3F4F4D2D1D966C91808108D876
:10349000882309F431CEC801B7010E94F33061508E
:1034A00060935102E091CD02F091CE02CF01847180
:1034B0009927892B09F495C129813A814B815C8137
:1034C000CA01B9010E9458314B015C01809254023B
:1034D00090925502A0925602B09257028D819E8121
:1034E000AF81B885BC01CD010E9458316B017C01D0
:1034F000C0925802D0925902E0925A02F0925B02B6
:1035000029853A854B855C85CA01B9010E945831ED
:103510008B019C0100935C0210935D0220935E027C
:1035200030935F028D859E85AF85B889BC01CD0142
:103530000E945831AB01BC0140936002509361027C
:103540006093620270936302C501BB2797FDB0953B
:10355000AB2F8FA398A7A9A7BAA7C701BB2797FD31
:10356000B095AB2F8BA39CA3ADA3BEA3C901BB2772
:1035700097FDB095AB2F8BA79CA7ADA7BEA7CB019E
:10358000BB2797FDB095AB2F8FA798ABA9ABBAAB74
:103590002FA138A549A55AA5CA01B9010E94E43056
:1035A0006FA378A789A79AA72BA13CA14DA15EA1E3
:1035B000CA01B9010E94E4306BA37CA38DA39EA332
:1035C000CFA0D8A4E9A4FAA4C60ED71EE81EF91EFF
:1035D0002BA53CA54DA55EA5CA01B9010E94E4300A
:1035E000C60ED71EE81EF91E2FA538A949A95AA94B
:1035F000CA01B9010E94E4306FA378A789A79AA7EE
:10360000C60ED71EE81EF91E9FE0F91AA1E0CA16E1
:10361000D104E104A2E0FA0630F027DC1092530254
:103620001092520269CD80915202909153029160A2
:10363000909353028093520280E1E6FF4DC0A1E0D7
:10364000B0E0AC0FBD1FA80FB11D9C9121E0280F69
:10365000A1E0B0E0AC0FBD1FA20FB11D2C91392F1E
:10366000309301002093000092E0980FA1E0B0E0B9
:10367000AC0FBD1FA90FB11D9C9123E0280FA1E045
:10368000B0E0AC0FBD1FA20FB11D2C91392F3093AC
:1036900003002093020094E0980FA1E0B0E0AC0F8B
:1036A000BD1FA90FB11D9C9125E0280FA1E0B0E03E
:1036B000AC0FBD1FA20FB11D2C91392F3093050007
:1036C000209304008A5F20915202309153022860B7
:1036D00030935302209352029F0120783170232BA4
:1036E00009F44DC0A1E0B0E0AC0FBD1FA80FB11DA3
:1036F0009C9121E0280FA1E0B0E0AC0FBD1FA20F0C
:10370000B11D2C91392F309301002093000092E0DD
:10371000980FA1E0B0E0AC0FBD1FA90FB11D9C91A7
:1037200023E0280FA1E0B0E0AC0FBD1FA20FB11D38
:103730002C91392F309303002093020094E0980FCE
:10374000A1E0B0E0AC0FBD1FA90FB11D9C9125E019
:10375000280FA1E0B0E0AC0FBD1FA20FB11D2C914E
:10376000392F30930500209304008A5F2091520284
:103770003091530220673093530220935202E3703A
:10378000FF27EF2B09F4B8CC01E010E00C0F1D1F50
:10379000080F111DF801F380818180FF0FC0E091B7
:1037A000C702F091C802309749F06F2D67706F5FC4
:1037B0008F2D86958695869587700995D8011196E7
:1037C0008C9183FF99CCE091C902F091CA023097A5
:1037D00009F492CC8F2D82958695869583700995F4
:1037E0008BCC80E02ACF8736A6EE9A070CF0EECD80
:1037F00087E696EEEBCDCF93DF930F92CDB7DEB792
:103800009C0180910701811105C08FEF0F90DF911E
:10381000CF91089581E02C3B310588F482E0223677
:10382000310568F483E02A32310548F484E024311C
:10383000310528F485E02A30310508F486E08983D3
:103840009091080189819817A9F0A0910101B09188
:103850000201E0910301F09104019E012F5F3F4FAF
:1038600041E012966C918081C6DA882371F28981D9
:103870008093080180E0CACFEF92FF920F931F93CD
:10388000CF93DF9300D0CDB7DEB7FC018B017A0177
:103890008091070181110AC08FEF0F900F90DF9187
:1038A000CF911F910F91FF90EF9008959E2F8F2F32
:1038B0009A838983A0910301B09104019B012E0F8B
:1038C000311D18968D919C9119978217930720F3BB
:1038D000E0910101F09102019E012F5F3F4F42E014
:1038E000638D8C9188DA8823B9F2A0910101B0919F
:1038F0000201E0910301F09104019701402F5896D5
:103900006C91808178DA91E089278195C6CFCF9339
:10391000DF930F92CDB7DEB780910701811105C00B
:103920008FEF0F90DF91CF91089588E18983809187
:1039300005018330C1F0A0910101B0910201E09135
:103940000301F09104019E012F5F3F4F41E0169665
:103950006C91808150DA882319F389818695869548
:1039600086958093050180E0DCCFCF93DF930F92A3
:10397000CDB7DEB780910701811105C08FEF0F90A1
:10398000DF91CF9108951982809106018823C1F0BB
:10399000A0910101B0910201E0910301F0910401B5
:1039A0009E012F5F3F4F41E017966C91808123DA93
:1039B000882321F3898186958695869580930601D3
:1039C00080E0DDCF0F931F93CF93DF930F92CDB79E
:1039D000DEB780910E01882309F458C0A09101013F
:1039E000B0910201E0910301F09104018E010F5F9B
:1039F0001F4F980141E014966C9180810E945012F3
:103A0000811107C08FEF0F90DF91CF911F910F9120
:103A1000089589819091070190FF3AC0806289835F
:103A2000A0910101B0910201E0910301F091040124
:103A3000980141E014966C918081DDD9882311F3BF
:103A40008FE697E10197F1F700C0000080911C011B
:103A5000882301F180E8898380911D01882319F072
:103A6000898180638983A0910101B0910201E09175
:103A70000301F0910401980141E057966C91808117
:103A8000BAD9882309F4BECF10920E0180E0BBCFD3
:103A90008F7DC5CF1982E0CFCF93DF930F92CDB743
:103AA000DEB769839E012F5F3F4F41E0682F82E5BB
:103AB000A2D90F90DF91CF910895EF92FF920F93CB
:103AC0001F93CF93DF93CDB7DEB768970FB6F89407
:103AD000DEBF0FBECDBF7C018091400190914101BE
:103AE0008F3F980709F072C00E94D2149C019093F6
:103AF0004101809340012F3F3F4FC1F465E580EFC6
:103B0000CBDF8AE18A95F1F700C060E08BEFC4DF7C
:103B10009AE19A95F1F700C00E94D2149093410166
:103B2000809340012AE12A95F1F700C0809140017D
:103B30009091410183319F4F71F461E08BEFACDFD5
:103B40008AE18A95F1F700C065E580EFA5DF9AE18B
:103B50009A95F1F700C080914001909141019E7FBC
:103B6000019709F0A9C063E08EEF96DF2AE12A955C
:103B7000F1F700C0AE01475F5F4F68E080E00E9450
:103B8000AE148FE891E00197F1F700C00000AE019C
:103B90004F5F5F4F68E080E00E94AE1448E050E065
:103BA000BE016F5F7F4FCE0109960E949A31892B2B
:103BB000D9F58F859889892B09F075C081ED9EE034
:103BC00090932C0280932B0286E074C08B30984136
:103BD00009F48ACF8E010F5E1F4FA801609100018A
:103BE00080E00E94AE14B801882389F0F80180912A
:103BF0000001A801480F511D8FEF90E04E175F079D
:103C000079F4992309F470CF8F3F09F46DCFE091D7
:103C10002B02F0912C02309781F1C70109952DC03C
:103C20002191922B8223EACF8FE891E00197F1F75F
:103C300000C000009FCF419709F051C083EE9FE084
:103C400018C082312FEF920759F158F4833021E0E8
:103C5000920719F18330934009F041C086E29FE05A
:103C600008C083319F4FD9F582ED9FE002C08FE7F6
:103C70009EE090932C0280932B0268960FB6F894E6
:103C8000DEBF0FBECDBFDF91CF911F910F91FF908F
:103C9000EF9008958AEC95E1ECCF86E29EE0E9CFC3
:103CA00083E99FE0E6CF83EA9EE090932C02809325
:103CB0002B0288E0809300018091400190914101A6
:103CC000813021E09207C9F208F0BBCF8330910523
:103CD00071F208F0B0CF0097E9F2019771F28BE032
:103CE00098E1909341018093400110922C02109230
:103CF0002B02C3CF1F93CF93DF930F92CDB7DEB7C5
:103D0000182F80911D01811729F1112341F180E3C2
:103D1000898380910E01882319F0898182608983CB
:103D200080911C01882319F0898180688983A09182
:103D30000101B0910201E0910301F09104019E01A3
:103D40002F5F3F4F41E057966C91808154D881118D
:103D500010931D010F90DF91CF911F91089519824B
:103D6000D8CFEF92FF921F93CF93DF930F92CDB7EF
:103D7000DEB7182F807719F081E0898303C0112303
:103D8000F1F01982A0910101B0910201E0910301CB
:103D9000F0910401CE0101967C019C0141E0559611
:103DA0006C91808128D8970181110BC01092070176
:103DB0000F90DF91CF911F91FF90EF90089580E4D5
:103DC000DCCF89818F7B8093090116FF33C0198274
:103DD00015FD03C089818260898314FD03C0898138
:103DE0008160898313FD03C0898188638983A091E1
:103DF0000101B0910201E0910301F091040141E061
:103E000056966C9180810E94FB16882379F2812F4F
:103E1000877F11F080E06EDF109307011092100190
:103E20009FE728E381E0915020408040E1F700C007
:103E30000000BECF84E08983CBCFCF93DF930F9276
:103E4000CDB7DEB790911E019923F1F0882341F19F
:103E500082E08983A0910101B0910201E091030108
:103E6000F09104019E012F5F3F4F41E051966C910C
:103E700080810E94FB16882319F0898180930D01AF
:103E80000F90DF91CF910895909107019923C1F38D
:103E9000882331F080910D018111F2CF81E0D9CFDB
:103EA0001982D8CF1F93CF93DF93D82F80911E0113
:103EB000C0E0811120C0809107018823C1F01091DA
:103EC0000C018D2380930C01C1E08D1301C0C0E073
:103ED000C195809110018D2B61F081E0AEDFDD2373
:103EE00051F00E943517882331F010930C01CFEF69
:103EF00002C080E0A2DF8C2FDF91CF911F91089547
:103F00001F93CF93DF9300D0CDB7DEB7182F811169
:103F10001FC080E0EFDE198287E08A83A091010153
:103F2000B0910201E0910301F09104019E012F5F25
:103F30003F4F42E055966C9180810E94FB168111A3
:103F4000109210010F900F90DF91CF911F91089563
:103F500081E0D0DE80E28983113049F51A8285E064
:103F600090E049DC8A8120E4829FC00111248760AF
:103F70008A83A0910101B0910201E0910301F091C7
:103F800004019E012F5F3F4F42E055966C91808166
:103F90000E94FB168823B1F288E0809307011092FB
:103FA000090181E08093100180E07CDFCBCF1630E7
:103FB00018F481E08A83D3CF153128F482E08A8314
:103FC0008AE090E0CECF83E08A8384E190E0C9CF9D
:103FD0000F931F93CF93DF930F92CDB7DEB78C0172
:103FE00080910701811107C08FEF0F90DF91CF9172
:103FF0001F910F91089580911E018111F5CF80913D
:104000001001882351F0C8010197889720F4802F70
:1040100077DF80E0EACF80E073DFB801093E13402C
:1040200010F068EE73E06430710510F464E070E045
:1040300008EE13E0C8010E94F33061506983A0913B
:104040000101B0910201E0910301F09104019E0190
:104050002F5F3F4F41E011966C9180810E94FB16CB
:10406000882309F4C1CF698170E06F5F7F4FC80179
:104070000E94073170930B0160930A01CB01969562
:104080008795B9DBC6CF1F920F920FB60F921124FE
:104090002F933F934F935F936F937F938F939F9350
:1040A000AF93BF93EF93FF93CF93DF9300D000D0F4
:1040B000CDB7DEB783B78E7F83BFE4E6F0E08081C3
:1040C00080718083E5E6F0E08081867780830E94BE
:1040D0006C0CE4E0FBE72591359145915491E0E0CB
:1040E000FBE785919591A591B49189839A83AB83E0
:1040F000BC83BC01CD010E94FE14E9E6F0E08081A2
:104100008F7D8083EE980F900F900F900F90DF912E
:10411000CF91FF91EF91BF91AF919F918F917F913F
:104120006F915F914F913F912F910F900FBE0F9024
:104130001F9018950F920FB60F921F9211248F9314
:104140008091E10082FF09C08091E20082FF05C0FA
:104150008091E1008B7F8093E1008091DA0080FF05
:1041600015C08091D80080FF11C08091DA008E7F49
:104170008093DA008091D90019BC80FF7FC082E073
:1041800089BD09B400FEFDCF81E08BBD8091E100C7
:1041900080FF16C08091E20080FF12C08091E20093
:1041A0008E7F8093E2008091E20080618093E20044
:1041B0008091D80080628093D80019BC85E08BBDC7
:1041C0008091E10084FF24C08091E20084FF20C040
:1041D00019BC82E089BD09B400FEFDCF8091D800F2
:1041E0008F7D8093D8008091E1008F7E8093E100E5
:1041F0008091E2008F7E8093E2008091E2008160F6
:104200008093E2008091A4048823D1F184E08BBDE7
:104210008091E10083FF2CC08091E20083FF28C0E1
:104220008091E100877F8093E10082E08BBD109256
:10423000A4048091E1008E7F8093E1008091E200F0
:104240008E7F8093E2008091E20080618093E200A3
:104250001092E9008091EB0081608093EB00109256
:10426000ED001092EC0082E38093ED008091EE006F
:104270008F911F900F900FBE0F9018951BBC86CF8B
:104280008091E30087FD02C081E0C1CF83E0BFCF12
:104290001F921FB61F9211248F939F93AF93BF93CA
:1042A00080919E0290919F02A091A002B091A102E4
:1042B0000196A11DB11D80939E0290939F02A09331
:1042C000A002B093A102BF91AF919F918F911F90D7
:1042D0001FBE1F9018951F920F920FB60F921124B8
:1042E0002F933F934F935F936F937F938F939F93FE
:1042F000AF93BF93EF93FF938091B900887F88338A
:1043000009F461C0B8F5803291F168F5883009F49C
:1043100052C0A0F4882309F472C0FF91EF91BF91BD
:10432000AF919F918F917F916F915F914F913F914D
:104330002F910F900FBE0F901F9018958031D9F1DB
:10434000883159F79091860280918502981750F52F
:10435000E091860281E08E0F80938602F0E0EB59B7
:10436000FD4F80812AC0883269F38033B1F6809393
:10437000640207C0803579F138F48034C1F18834A3
:1043800061F60E947711C9CF883539F6E09186022F
:1043900081E08E0F809386028091BB00F0E0EB59A4
:1043A000FD4F80838091C5028111EBCF81E0809326
:1043B000C40284EA0BC0809187028093BB0085EC25
:1043C0008093BC00AACF8093640285EC8093BC00EC
:1043D0001092C602A2CFE091860281E08E0F8093F8
:1043E00086028091BB00F0E0EB59FD4F80839091F5
:1043F000860280918502981710F385E8E1CF10922C
:104400006402BFCF8F9381E0809371048F911895E0
:10441000CDB7DEB7C854D1090FB6F894DEBF0FBED2
:10442000CDBF42E151E061E070E089E895E00E9493
:10443000B7318091950590919605A0919705B0911F
:1044400098050897A105B10540F442E151E060E00C
:1044500070E089E895E00E94B731809191059091D4
:104460009205A0919305B09194058531944DA24A8F
:10447000B105C9F042E151E068E87DE089E895E0E6
:104480000E948A3110929505109296051092970518
:104490001092980542E450E06CE27EE08DE296E0F6
:1044A0000E948A310CC08091950590919605A0914B
:1044B0009705B09198050297A105B10558F3809131
:1044C0008A05873009F068C08FE080938A05809163
:1044D000950590919605A0919705B0919805049740
:1044E000A105B10540F448E550E064ED7DE085EDBF
:1044F00095E00E948A318091950590919605A09152
:104500009705B091980586309105A105B10508F091
:1045100048C010928C0510926F06E0918A05F0E079
:10452000E651FE4F8081823031F48091B20591E0F6
:1045300089278093B20542E050E068E97EE089E98E
:1045400096E00E948A3144E250E064E77EE085E72D
:1045500096E00E948A318091950590919605A091F0
:104560009705B09198050D97A105B10558F58DE017
:1045700090E0A0E0B0E08093950590939605A0931D
:104580009705B093980542E151E061E070E089E859
:1045900095E00E94C73116C0883009F098CF8DE0B1
:1045A00094CF86309105A105B10509F4B4CF8930C7
:1045B0009105A105B10508F4B0CF0D97A105B1058E
:1045C00008F4B9CF10926F0678948091D8008F7E4E
:1045D0008093D8008091D70081608093D70084E0D9
:1045E00082BF81E08093A2028091D8008E7F809369
:1045F000D8001092E2001092DA001092E10080914F
:10460000D8008F778093D8008091D80080688093FD
:10461000D8008091D8008F7D8093D80019BC1BBC36
:104620001092A4048091E0008B7F8093E000809141
:10463000D80081608093D8001092E9008091EB004F
:1046400081608093EB001092ED001092EC0082E309
:104650008093ED008091EE008091E1008E7F809349
:10466000E1008091E20081608093E2008091E200AD
:1046700088608093E2008091E0008E7F8093E0006C
:104680008091D80080618093D8000E946C0C80914A
:104690008905823009F40AC4833009F40CC48130DE
:1046A00061F48DE59DE1909324048093230483E4D9
:1046B00099E0909372038093710380918905833010
:1046C00009F029C480918B058130C9F41092C6028B
:1046D00081E08093C5021092C402589A599A809141
:1046E000B9008E7F8093B9008091B9008D7F80934F
:1046F000B9008AE08093B80085E48093BC000E94F2
:104700007E0CE0918A05F0E0E651FE4F8081823018
:1047100009F0EAC110918B05113009F012C47894A8
:1047200080E88983A0910101B0910201E091030129
:10473000F09104019E012F5F3F4F41E055966C912F
:1047400080810E94FB16882309F463C03FEF44E395
:104750005CE0315040405040E1F700C00000198259
:10476000A0910101B0910201E0910301F0910401D7
:104770009E012F5F3F4F41E055966C9180810E94D2
:10478000FB16882309F445C010920F018FEF809328
:1047900007018093050180930601809308012FEFA4
:1047A0003FEF30930B0120930A0180930C0180931B
:1047B0000E011093090110931C0110921D0110921B
:1047C000110110921001E2E1F1E08AE0DF011D9297
:1047D0008A95E9F710921E0110921F011092210193
:1047E0001092200194D8811114C0BFD8811111C03A
:1047F0008AE290E000D881110CC082E390E0E8DB0F
:10480000811107C04FDB811104C0DCD8811101C0C8
:10481000A8DA88E7A6DA7BD8A8D888E743DB8091B6
:104820001F0181118CC0F12CE12CF6EFAF2EFBE0C3
:10483000BF2E6E01BBE3CB0ED11C85010E191F09E3
:104840000131110510F000E110E0F701EE5AFE4FC2
:10485000DE011196CD01800F911FA817B90709F04D
:104860006CC3AE014F5F5F4FB801C70105D881111E
:1048700066C080910701882309F461C09E2D8F2DA9
:104880009CAF8BAFE0910301F0910401208531854D
:10489000C8018E0D911D2817390708F450C0A0914A
:1048A0000101B0910201960142E05B966C9180811A
:1048B0000E94FB16882309F442C0A0910101B09127
:1048C0000201E0910301F09104019E01255D3F4F3B
:1048D000402F58966C9180810E945012882379F164
:1048E000A801BE01655D7F4FCE0101960E949A31FD
:1048F000892B29F5E00EF11EE6EFEE16EBE0FE0641
:1049000008F49BCF84E08BAF1CAEA0910101B09165
:104910000201E0910301F0910401960142E05D96ED
:104920006C9180810E94FB16882349F081E080937E
:104930001F0188EC90E090932101809320018CE08E
:10494000E3E1F2E0DE01119601900D928A95E1F724
:104950001BA685E08CA78E01055D1F4FA80162E0B4
:1049600070E086E192E00E943C1C811111C0AE0112
:104970004F5F5F4F6CE070E081EC9AE00E943C1C5E
:10498000811106C08EE190E09093D0028093CF0217
:1049900080911E01813009F180911F018823E9F087
:1049A00080E04BDA0FD8809120019091210110DB3B
:1049B0001982E0910301F09104019E012F5F3F4FA6
:1049C00041E063E280810E94FB16882331F081E0A0
:1049D00080931E0132DA0E94351782E089838AECC7
:1049E0008A8383EE8B8379E0E72EEC82AE014F5F02
:1049F0005F4F64E070E088E690E00E943C1C83EA30
:104A000089838A838B838C838D838E838F8388872E
:104A100089878A87AE014F5F5F4F6AE070E087EA5F
:104A20009AE00E943C1CE8EDFE2EF982AE014F5F39
:104A30005F4F61E070E086EB9AE00E943C1CE0E290
:104A4000F2E0DE019B9601900D92EA94E1F7A80155
:104A500069E070E088EB94E00E943C1CF982AE01B2
:104A60004F5F5F4F61E070E080EB98E00E943C1C7C
:104A7000F982AE014F5F5F4F61E070E08DE397E038
:104A80000E943C1C44E050E06BE870E0C8010E94CA
:104A9000B031A80164E070E088E99AE00E943C1C13
:104AA0000E94351780E28BA788E28CA780E38DA750
:104AB00088E38EA7A80164E070E08EE99AE00E9486
:104AC0003C1C0E94351788E190E09093CE028093C1
:104AD000CD020E94351780E18093D10289E398E1ED
:104AE0009093D8028093D7029091B60510926D03EF
:104AF00090936E0380918A052CEE280F2E3068F477
:104B0000263008F029C21092D4029093D5028091E9
:104B1000B5051092D2028093D302E4E0FBE7259121
:104B2000359145915491E0E0FBE785919591A591F0
:104B3000B491BC01CD010E94FE140E94E0096DAF4A
:104B40007EAF8FAF21969FAF219729961CAE1DAEE9
:104B50001EAE1FAE29970E94E00925966CAF7DAF6F
:104B60008EAF9FAF2597DC01CB0121962CAD3DADDB
:104B70004EAD5FAD2197821B930BA40BB50B813C0F
:104B80009742A940B105B8F10E94E0096DAF7EAF30
:104B90008FAF21969FAF219710927A0060E080E05E
:104BA0000E944F0B1982BE016F5F7F4F80E00E9411
:104BB000F81069816D7F698380E00E94C91080913F
:104BC00064008F6E80936400809165008968809393
:104BD000650083B7817F846083BFF894809169000A
:104BE000806280936900EE9A80E48CBB83B7816019
:104BF00083BF789488950E94E00925966CAF7DAFBD
:104C00008EAF9FAF25978091850590918605A091E5
:104C10008705B091880525964CAD5DAD6EAD7FAD35
:104C20002597481B590B6A0B7B0B80918C0590E0F4
:104C3000B0E0A0E084179507A607B70708F0D6C034
:104C4000E0912304F0912404309719F089E195E074
:104C5000099580918A04882309F4B7C102E714E01A
:104C6000F12C8F2D0E949B0BD8012D913D918D0130
:104C7000821B930B97FF03C09195819591090B9728
:104C80000CF49EC10E947E0C82E18F0D8093420144
:104C900010928A04D12C1BE0C12E88248394912C7D
:104CA0002D2D30E080916F03909170032817390704
:104CB0000CF4DCC280918E05882309F440C0609119
:104CC0001D0570911E0580916D0390916E03442720
:104CD0005527481B590B641775074CF4209119058B
:104CE00030911A05246030931A0520931905861710
:104CF00097074CF42091190530911A0528603093DC
:104D00001A052093190560911F05709120056417FD
:104D100075074CF42091190530911A0522603093E3
:104D20001A0520931905861797074CF480911905E9
:104D300090911A05816090931A05809319058091CE
:104D40008F05882381F08091190590911A059C01A7
:104D5000207333272033310531F48F7C9460909396
:104D60001A0580931905E0918A05F0E0E651FE4F9F
:104D70008081823049F4E091D702F091D8023097D7
:104D800019F089E195E0099580918D05823009F44B
:104D9000D5C24CE650E06DEA74E089E195E00E94EE
:104DA0009A31892B09F020C30E94E00925966CAF47
:104DB0007DAF8EAF9FAF2597809185059091860539
:104DC000A0918705B091880525962CAD3DAD4EADDF
:104DD0005FAD2597281B390B4A0B5B0BDA01C90124
:104DE00085369105A105B10508F0FEC28BB5882373
:104DF00009F4B1CE1091E9001F709091EC00892F59
:104E0000817090FD80E8182B1092E9008091E800F5
:104E100083FF48C085EA94E0FC0101962091F100EF
:104E2000208334E08D3A9307B9F78091E80083FF3F
:104E300016C0209143018091A9049091AA042817DB
:104E4000190669F48091A604823209F432C508F08B
:104E5000A3C4803209F4E9C4813209F4A9C4809161
:104E6000E80083FF11C09091A5048091A6048530CD
:104E700009F4D7C508F032C5282F2D7F213009F459
:104E800097C5882309F473C58091E80083FF0AC0A1
:104E90008091E800877F8093E8008091EB0080623A
:104EA0008093EB001F701093E90055CE0E947E0C9A
:104EB00086E799E0FECB21E041E060EA76E881E018
:104EC00090E00E94010C20E040E06AE089EB92E073
:104ED0000E94160B20E040E060E18EEA92E00E9422
:104EE000160B20E040E06FE083EA92E00E94160B90
:104EF00060E08AE00E94C40B0E94751287EA99E084
:104F000090937203809371038AE594E19093240453
:104F100080932304D2CB80918D05823041F421E02F
:104F200041E060E079E08DE390E00E94010C809127
:104F30008905813009F0C6CBC9CB24912D933196D8
:104F40008CCC123009F0D0CD62E08091B3050E9484
:104F5000C40B87E89BE0C4CD803258F046E050E0B7
:104F600064EE71E082E391E00E948A3186E08093F2
:104F7000D60280918A058A3139F48DE0809325012B
:104F80008CE080932601C9CD982F9D7F4EE050E0A4
:104F900064E67DE09C3179F04EE050E066E57DE02E
:104FA0008B3149F08D3119F0803209F0B6CD4EE0E9
:104FB00050E068E47DE084E291E00E948A31ADCD6A
:104FC000F394BCE0FB124DCE65CE8091A304882300
:104FD000E9F010E000E0802F0E94ED0D811110C07B
:104FE000802F0E946F0BF801E557FB4F90818917C6
:104FF00039F00E94050E009342011092A3044ACE9C
:105000000F5F1F4F0831110531F744CE4091DB028D
:105010005091DC024115510509F456C080913E01C2
:10502000811133C080917A0086FD4EC020917800B6
:1050300080917900382F8091D9029091DA026CE04A
:10504000689FF001699FF00D1124E352FD4F6185C7
:10505000611109C0648161113CC0325066E0220FC9
:10506000331F6A95E1F76CE0689FF001699FF00DCE
:105070001124E352FD4F36832583019648175907C3
:1050800079F19093DA028093D90210923E01209137
:10509000D9023091DA028CE0829FF001839FF00DFB
:1050A0001124E352FD4FDE01119601900D928A9575
:1050B000E1F7898180937B008A8180937C008091D5
:1050C0007A00806480937A0010E00CE086E0E82E9D
:1050D0009DC060E072E0FB01E21BF30B9F01BECFBD
:1050E0001092DA021092D902D0CF089FF001099FE6
:1050F000F00D1124E352FD4FDE011196802F019037
:105100000D928A95E1F7FB80CF2CD12C8E819F8167
:105110004601880C991CF401EB5DFB4F9183808361
:10512000FE9CF0011124EB58F94FA480B5802E812C
:105130003F81032E000C440B550B82819381092E75
:10514000000CAA0BBB0B281B390B4A0B5B0BA08175
:10515000B1810E94843125966CAF7DAF8EAF9FAF39
:10516000259720E034E040E050E00E943C31BA0155
:10517000A9015058610971094115F0E85F07FFEF77
:105180006F077F0724F440E050E86FEF7FEF411591
:1051900020E852076105710524F04FEF5FE760E0FA
:1051A00070E0C5010B2C000CAA0BBB0B31E03F15C6
:1051B00058F4E0918A05F0E0E651FE4F208122305C
:1051C00091F5E4E0FE122FC0481759076A077B07E4
:1051D00014F440E050E88A858823D1F12E813F8184
:1051E000888599858217930760F4809119059091BD
:1051F0001A052B853C85822B932B90931A0580935F
:105200001905F601EB58FA4F40831F5F812F012EDD
:10521000000C990B2091DB023091DC02821793077E
:105220000CF463CF37CD481759076A077B079CF604
:10523000882799278A199B09092E000CAA0BBB0BFA
:1052400084179507A607B70734F640E050E0C3CFB0
:10525000F1E0FF1530F4F401E75EFA4F518340832B
:10526000D4CFF601E75EFA4F5283CFCFC29EC00182
:10527000C39E900D11248D589C4FFC01DE011196A8
:105280002C2D01900D922A95E1F7DC011896BC9027
:10529000189719967C9019971A96AC90E091710323
:1052A000F0917203E980FA800B811C812D813E818F
:1052B0004F81588569857A858B850995E82E0E94EE
:1052C000E00925966CAF7DAF8EAF9FAF2597AB0100
:1052D000BC0147195109610971098A2D90E0B0E0BC
:1052E000A0E084179507A607B70730F584010B2CBB
:1052F00002C0000F111F0A94E2F7F12C80911905EA
:1053000090911A0580239123E816F90611F00E9466
:10531000E009009510958091190590911A050823D0
:10532000192302C0EE0CFF1CBA94E2F7E02AF12A1E
:10533000F0921A05E0921905D394B2CC80E00E9455
:105340000F0B80E00E940F0B80E00E940F0B80E0AB
:105350000E940F0BB5EDEB2EB5E0FB2ED12CC12C2E
:10536000F7016081918082807380F601EE0FFF1F4C
:10537000EE0FFF1FEB5DFA4F80819181A281B38117
:10538000092FBA2EAB2E162F182B51F1B11111C0C7
:1053900091110FC0A1110DC0662359F0615089E130
:1053A00095E00E94F00F082F882319F0A72CB82C45
:1053B000092D8FEF0E940F0B8A2D0E940F0B8B2D52
:1053C0000E940F0B802F0E940F0BFFEFCF1ADF0AF6
:1053D00024E0E20EF11CC4CF8FEF0E940F0B105F90
:1053E0001C151D04CCF3D5CC0E94E0096093850503
:1053F0007093860580938705909388054CE0BE01E5
:10540000655D7F4F89E195E00E944411892B49F544
:105410008CE6E9E1F5E0ADEAB4E001900D928A9501
:10542000E1F7C0901905D0901A05F12CE12C2996CE
:105430002CAD3DAD4EAD5FAD2997C216D306E40647
:10544000F50641F00E94E0096DAF7EAF8FAF219667
:105450009FAF21972996CCAEDDAEEEAEFFAE299779
:10546000C5CC8BA59CA5992309F416C190916F0614
:10547000992309F469C08E3308F066C0823309F4B9
:1054800063C08BAF81E08CAF0E9497100E949D108B
:105490000E94E0096B017C010E94AB1080FD0EC0F0
:1054A00080E00E947B0C89EA0E940F0B62E0CE0133
:1054B000CB960E94B61081E00E947B0C81E0809325
:1054C000710480917104811123C060E387E00E9420
:1054D000C9100E94E00925966CAF7DAF8EAF9FAFDB
:1054E0002597DC01CB018C199D09AE09BF09853FC9
:1054F0009140A105B10580F288E08093310446E037
:1055000050E062E87DE082E394E004D747E014C015
:10551000109271040E94AB1090E09595879587706A
:105520009927079791F281E394E00E941711482F81
:10553000882359F28C3049F2BE016F5F7F4F81E3BF
:1055400094E00E94441164CF98E0909331048E332C
:10555000D8F08E53990B22E3289FB001299F700D3C
:10556000112402E111E0061B170B0233110514F0A0
:1055700002E310E0A801552767577A4F82E394E0D1
:10558000E6D641E0400FD8CF823319F0873309F0D7
:1055900048C06AE77DE087E394E0C5D680E092E109
:1055A000AAE7B0E08093320490933304A0933404CC
:1055B000B093350487E695E4A3E2B1E0F0E0E0E0E3
:1055C00041E2409357002491822728E030E06C01AB
:1055D0007D0151E0C522DD24EE24FF24B695A79578
:1055E00097958795CD28CE28CF2841F050E2852782
:1055F00053E8952758EBA5275DEEB52721503109D3
:1056000031F73196E032F105E1F68093460490934C
:105610004704A0934804B09349041092360449E12A
:105620008BCF8C3359F48CE0E5E2F4E0A2E3B4E0F4
:1056300001900D928A95E1F74DE07ECF853399F484
:1056400040918905413041F48091400180933204BA
:105650001092330443E070CF4330E1F780913F0173
:105660008093320469CF863341F480914201809364
:1056700032040E94050E42E05FCF48E050E062E74E
:105680007DE082E394E046D680918A058F3110F464
:105690001092350449E050CF8D3369F46DA58CE14B
:1056A000689FB00111246F5F7F4F4DE150E0CE0144
:1056B0008E966DD6ADCE833309F446C068F4803340
:1056C00049F0813309F0A4CE87E797E7909301086A
:1056D000809300080E94D810843389F08A3309F03F
:1056E00097CE42E151E068E87DE089E895E012D686
:1056F00042E151E061E070E089E895E0DACF809125
:105700006F06811185CE80918A04811181CE8FEF41
:10571000809342010E94BC0B02E714E062E1F62E86
:1057200062E08F2D0E94C40B8EEE8F0D0E949B0BAA
:10573000D8018D939D938D01F394BEE1FB12F0CFC0
:1057400081E080938A0464CE80916F06811160CEDF
:105750008091A30481115CCE8FEF809342010E945F
:10576000BC0B10E000E0802F0E94ED0D81110BC0FA
:1057700062E0802F0E94C40B802F0E946F0BF80103
:10578000E557FB4F80830F5F1F4F0831110559F715
:1057900081E08093A3043CCE833209F060CB8091FA
:1057A000A504813209F05BCB8091E800877F38C087
:1057B0008091A504813A09F052CB8091E800877F5F
:1057C0008093E8008091E80080FFFCCF8091570132
:1057D00090915801A0915901B0915A018093F10024
:1057E000492F5A2F6B2F77274093F100AD01662781
:1057F00077274093F1008B2F9927AA27BB27809307
:10580000F10080915B018093F10080915C018093B5
:10581000F10080915D018093F1008091E8008E7726
:105820008093E8000E94C3091ACB8091A5048132BD
:1058300009F015CB8091E800877F8093E800809184
:10584000E80082FF32C03091F1002091F100909188
:10585000F1008091F100309357012093580190930B
:10586000590180935A018091F10080935B018091EE
:10587000F10080935C018091F10080935D01809143
:10588000E8008B778093E8000E94C309809157015C
:1058900090915801A0915901B0915A01803B9440D8
:1058A000A105B10509F0DBCA0FCF8BB58111C7CFB8
:1058B000D6CA8091A504813209F0D1CA8091E8004E
:1058C000877F8093E8000E94C3098091A70490918C
:1058D000A8049093540180935301C1CA883009F4FD
:1058E00092C1893009F49CC1863009F0CDCA905824
:1058F000923008F0C9CA8091A7049091A8048C3D09
:1059000053E0950709F0F1C083E08A838AE2898336
:105910004FB7F894DE01139620E03EE051E2E32F0A
:10592000F0E050935700849120FF03C082958F7060
:105930003F5F8F708A3008F494C0895C90E08D934B
:105940009D932F5F243159F74FBF8091E800877FE7
:105950008093E8008091AB049091AC048A32910569
:1059600010F08AE290E040E0FE013196A0C090384D
:1059700091F0923809F088CA8091A9048F7087301D
:1059800008F082CA8093E9008091EB0085FB8827AC
:1059900080F91092E9009091E800977F9093E800D9
:1059A0008093F1001092F1008091E8008E7721C081
:1059B000923009F069CA9091A704911115C0909195
:1059C000A9049F702FEF290F263008F05DCA90932D
:1059D000E9002091EB0020FF07C0833079F480912B
:1059E000EB0080628093EB001092E9008091E80068
:1059F000877F8093E8000E94C30946CA8091EB002C
:105A000080618093EB0021E030E001C0220F9A9585
:105A1000EAF72093EA001092EA008091EB00886098
:105A2000E1CF911131CA0091A7040F778091E30073
:105A30008078802B8093E3008091E800877F8093BB
:105A4000E8000E94C3098091E80080FFFCCF8091AC
:105A5000E30080688093E30082E0011183E08BBD66
:105A600013CA805D6BCF2BB5222391F1253081F1D4
:105A70002091E80023FD2CC02091E80022FD1BC0EE
:105A80002091E80020FF13C03091F3002091F20034
:105A9000009719F02034310508F141E02034310538
:105AA00009F040E02091E8002E772093E80000976D
:105AB000D1F64111D8CF8091E80082FD09C08BB5A5
:105AC000882331F0853021F08091E80083FFF3CF07
:105AD0008091E8008B778093E800D6C9419140938C
