:100000000AC700000C9462200C94561F21C7000000
:100010001FC700001DC700001BC7000019C7000054
:1000200017C7000015C7000013C7000011C7000064
:100030000FC700000DC700000BC7000009C7000074
:100040000C94A81F05C7000003C7000001C70000EB
:10005000FFC60000FDC60000FBC60000F9C6000098
:100060000C94CB1FF5C60000084AD73B3BCE016E6F
:1000700084BCBFFDC12F3D6C74319ABD56833DDAFF
:100080003D00C77F11BED9E4BB4C3E916BAAAABE0E
:10009000000000803F0000000000240027002A002C
:1000A00000000000250028002B00000000002300B5
:1000B00026002900010204081020408001020408E3
:1000C00010200102040810200404040404040404A1
:1000D000020202020202030303030303FF080F0CE0
:1000E0000000700000000024000000020003000077
:1000F00000650054FFEF0000FA80000B128200013F
:10010000030C30C30E8C8CE914D5400213710F8E92
:100110003883F8833000F883258EF8833000F88325
:10012000FFFFFFFF0FFEA9D6240004001A8279A169
:100130000000003CFFFF00000010000038836FA2A9
:10014000003E03304000000002CAE3093E80000088
:1001500020000000000000004000000060000000DF
:10016000000C0000000C186E000006920A16C0DF9A
:10017000FFFF0256FD8CD377FFE1C496E0C5BEAA0F
:1001800000000000FFFF0B2B000016570000035972
:100190004000000000001DFA00026C1D000000007D
:1001A0003FFFDFEB003EB3B6000D227800002F3C8E
:1001B00000000000001942B5000039A20000B3653C
:1001C000D90E9FC91DCF4C343000000050000000F4
:1001D0003BB67AE80064000000C8000000000000A0
:1001E000100000001000FA921000225E000D229F05
:1001F0000001000000320000FF46000063D4000050
:100200001000000004D6000004CC000004CC000064
:10021000000010720000004000000000000000001C
:100220000006000200050007000000000064000056
:100230000000000000000005000500640020000030
:10024000000000000000000000004000000003006B
:1002500000000032F8980000FF650000830F0000E6
:10026000FF9BFC00000000000000000000000000F8
:10027000000000000000000000000000000000007E
:10028000000000000000000000000000000010005E
:1002900040000000000000060000B26A00020000FA
:1002A0000001FB830068000000D9FC007CF1FF83A3
:1002B0000000000000650000006403E800640028FE
:1002C000000000250000000016A000000000100043
:1002D00000001000002F0000000001F400001000DA
:1002E00000280000FFFF4581FFFFFA7200000000B8
:1002F00000000000004400050005BAC6004778A2CF
:1003000000000001000000000000060000000014D2
:100310000000254D002F706D000005AE000C02D0CE
:1003200000000000000000000000000000000000CD
:10033000001B0000000000000000000000000000A2
:100340000064000000080000000000000000000041
:10035000000000000000000000000000000000009D
:10036000000000000000000000000000000000008D
:10037000000000000000000000000000000000007D
:10038000000000000000000000000000000000006D
:10039000000000000000000000000000000000005D
:1003A000001B00000000000000000000000E000E16
:1003B00000000AC70004000000000032FFFFFF9C9D
:1003C00000000B2B00000002000000010000006490
:1003D000FFE5000000000000000000000000000039
:1003E000000000010000000000010000000000000B
:1003F000000180000001800000018000002426D35D
:100400000000000000000000000600100096003C04
:1004100000000000000000000000000000000000DC
:100420000C0A4E68CDCF770950166759C619CE828F
:1004300000000000000000000000000000000000BC
:10044000000000000000000017D784000300000037
:100450000000000000000000C7938F9D1E1B1C19A8
:10046000000000000000000000000000000000008C
:10047000000000000000000002031885000040009A
:100480000000000300000003000000000000000066
:10049000400000000000000000000000000000001C
:1004A000000000000000000000000000000000004C
:1004B000000000000000000000000000000000003C
:1004C00000000000677DDF7E72902E554CF6E688B6
:1004D000000000000000000000000000000000001C
:1004E000D8DCB4B8B0D8B9ABF3F8FAB3B7BB8E9ECA
:1004F000AEF132F51BF1B4B8B08097F1A9DFDFDFC0
:10050000AADFDFDFF2AAC5CDC7A90CC92C97F1A9D4
:1005100089264666B28999A92D557DB0B08AA896DC
:10052000365676F1BAA3B4B280C0B8A89711B28398
:1005300098BAA3F0240844106418B2B9B49883F1AF
:10054000A329557DBAB5B1A38393F0002850F5B225
:10055000B6AA839328547CF1B9A3829361BAA2DA34
:10056000DEDFDB819AB9AEF5606870F1DABAA2DF3E
:10057000D9BAA2FAB9A38292DB31BAA2D9BAA2F847
:10058000DF85A4D0C1BBAD83C2C5C7B8A2DFDFDFA2
:10059000BAA0DFDFDFD8D8F1B8AAB38DB4980D3593
:1005A0005DB2B6BAAF8C96198F9FA70E161EB49A7D
:1005B000B8AA872C547CBAA4B08AB691325676B2C7
:1005C0008494A4C808CDD8B8B4B0F19982A82D55A8
:1005D0007D98A80E161EA22C547C92A4F02C507864
:1005E000F184A898C4CDFCD80DDBA8FC2DF3D9BAB2
:1005F000A6F8DABAA6DED8BAB2B68696A6D0F3C8FE
:1006000041DAA6C8F8D8B0B4B882A892F52C5488BC
:1006100098F135D9F418D8F1A2D0F8F9A884D9C73F
:10062000DFF8F883C5DADF69DF83C1D8F40114F19C
:10063000A8824EA884F311D182F5D992289788F127
:1006400009F41C1CD884A8F3C0F9D1D99782F129E8
:10065000F40DD8F3F9F9D1D982F4C203D8DEDF1A48
:10066000D8F1A2FAF9A88498D9C7DFF8F8F883C7B7
:10067000DADF69DFF883C3D8F40114F198A8822E79
:10068000A884F311D182F5D992509788F109F41C0E
:10069000D884A8F3C0F8F9D1D99782F149F40DD8DC
:1006A000F3F9F9D1D982F4C403D8DEDFD8F1AD88EB
:1006B00098CCA809F9D98292A8F57CF1883ACF9410
:1006C0004A6E98DB6931DAADF2DEF9D88795A8F287
:1006D00021D1DAA5F9F417D9F1AE8ED0C0C3AE821C
:1006E000C684C3A88595C8A588F2C0F1F4010EF1AF
:1006F0008E9EA8C63E56F554F18872F40115F19805
:1007000045856EF58E9E0488F142985A8E9E068825
:1007100069F4011CF1981E1108D0F504F11E97022E
:1007200002983625DBF9D985A5F3C1DA85A5F3DF73
:10073000D88595A8F309DAA5FAD88292A8F578F1B8
:10074000881A849F26889821DAF41DF3D8879F3968
:10075000D1AFD9DFDFFBF9F40CF3D8FAD0F8DAF92E
:10076000F9D0DFD9F9D8F40BD8F3879F39D1AFD9B5
:10077000DFDFF41DF3D8FAFCA869F9F9AFD0DADEAF
:10078000FAD9F88F9FA8F1CCF398DB45D9AFDFD029
:10079000F8D8F18F9FA8CAF38809DAAF8FCBF8D8C1
:1007A000F2AD978D0CD9A5DFF9BAA6F3FAF412F2DF
:1007B000D8950DD1D9BAA6F3FADAA5F2C1BAA6F343
:1007C000DFD8F1BAB2B68696A6D0CAF349DAA6CB7C
:1007D000F8D8B0B4B8D8AD84F2C0DFF18FCBC3A8DD
:1007E000B2B68696C8C1CBC3F3B0B48898A821DB53
:1007F000718D9D71859521D9ADF2FAD88597A8287C
:10080000D9F408D8F28D29DAF405D9F285A4C2F218
:10081000D8A88D9401D1D9F411F2D88721D8F40A3F
:10082000D8F28498A8C801D1D9F411D8F3A4C8BBD0
:10083000AFD0F2DEF8F8F8F8F8F8F8F8D8F1B8F632
:10084000B5B9B08A95A3DE3CA3D9F8D85CA3D9F892
:10085000D87CA3D9F8D8F8F9D1A5D9DFDAFAD8B17C
:100860008530F7D9DED8F830ADDADED8F2B48C991D
:10087000A32D557DA083DFDFDFB591A0F629D9FB3D
:10088000D8A0FC29D9FAD8A0D051D9F8D8FC51D990
:10089000F9D879D9FBD8A0D0FC79D9FAD8A1F9F93F
:1008A000F9F9F9A0DADFDFDFD8A1F8F8F8F8F8AC49
:1008B000DEF8ADDE8393AC2C547CF1A8DFDFDFF6ED
:1008C0009D2CDAA0DFD9FADB2DF8D8A850DAA0D019
:1008D000DED9D0F8F8F8DB55F8D8A878DAA0D0DF60
:1008E000D9D0FAF8F8F8F8DB7DF8D89CA88CF53068
:1008F000DB38D9D0DEDFA0D0DEDFD8A848DB58D97E
:10090000DFD0DEA0DFD0DED8A868DB70D9DFDFA0C3
:10091000DFDFD8F1A888902C547C98A8D05C38D11F
:10092000DAF2AE8CDFF9D8B087A8C1C1B188A8C609
:10093000F9F9DA36D8A8F9DA36D8A8F9DA36D8A823
:10094000F9DA36D8A8F9DA36D8F78D9DADF818DA85
:10095000F2AEDFD8F7ADFA30D9A4DEF9D8F2AEDEC8
:10096000FAF983A7D9C3C5C7F1889BA77AADF7DE8B
:10097000DFA4F8849408A797F300AEF29819A4882E
:10098000C6A39488F632DFF28393DB09D9F2AADF9B
:10099000D8D8AEF8F9D1DAF3A4DEA7F1889B7AD8DB
:1009A000F38494AE19F9DAAAF1DFD8A881C0C3C5DF
:1009B000C7A39283F628ADDED9F8D8A350ADD9F8F5
:1009C000D8A378ADD9F8D8F8F9D1A1DADEC3C5C774
:1009D000D8A18194F818F2B089ACC3C5C7F1D8B8D2
:1009E000B4B09786A8319B069907AB9728889BF0EF
:1009F0000C201440B0B4B8F0A88A9A285078B79B5D
:100A0000A8295179247059446938644831F1BBAB45
:100A100088002C547CF0B38BB8A804285078F1B02F
:100A200088B49726A85998BBABB38B02264666B00C
:100A3000B8F08A9CA82951798B2951798A24705958
:100A40008B2058718A4469388B3940688A644831F0
:100A50008B30496088F1AC002C547CF08CA80428C1
:100A60005078F1889726A85998AC8C02264666F0F3
:100A7000899CA8295179247059446938644831A95E
:100A80008809205970AB11384069A8193148608C29
:100A9000A83C415C207C00F187981986A86E767E80
:100AA000A999882D557DD8B1B5B9A3DFDFDFAED0C8
:100AB000DFAAD0DEF2ABF8F9D9B087C4AAF1DFDF44
:100AC000BBAFDFDFB9D8B1F1A3978E60DFB084F29E
:100AD000C8F8F9D9DED89385F14AB183A308B58364
:100AE0009A0810B79F10D8F1B0BAAEB08AC2B2B6A9
:100AF0008E9EF1FBD9F41DD8F9D90CF1D8F8F8ADD8
:100B000061D9AEFBD8F40CF1D8F8F8AD19D9AEFB29
:100B1000DFD8F416F1D8F8AD8D61D9F4F4ACF59CBA
:100B20009C8DDF2BBAB6AEFAF8F40BD8F1AED0F844
:100B3000AD51DAAEFAF8F1D8B9B1B6A3839C08B9D1
:100B4000B1839AB5AAC0FD3083B79F10B58B93F2DD
:100B50000202D1ABDADED8F1B080BAABC0C3B28446
:100B6000C1C3D8B1B9F38BA391B609B4D9ABDEB088
:100B7000879CB9A3DDF1B38B8B8B8B8BB087A3A341
:100B8000A3A3B28BB69BF2A3A3A3A3A3A3A3A3A3E4
:100B9000A3F1B087B59AA3F39BA3A3DCBAACDFB9EA
:100BA000A3A3A3A3A3A3A3A3A3A3A3A3A3A3A3A315
:100BB000D8D8D8BBB3B7F1AAF9DAFFD9809AAA2856
:100BC000B48098A720B79787A86688F07951F190EC
:100BD0002C870CA781976293F0717160859401292D
:100BE000517990A5F1284C6C870C95188578A383D2
:100BF00090284C6C886CD8F3A28200F210A892194D
:100C000080A2F2D926D8F188A84DD948D896A8391B
:100C100080D93CD89580A839A68698D92CDA87A7A0
:100C20002CD8A8899519A980D938D8A88939A9803C
:100C3000DA3CD8A82EA83990D90CD8A8953198D9E3
:100C40000CD8A809D9FFD801DAFFD89539A9DA2636
:100C5000FFD890A80D8999A810809821DA2ED889FC
:100C600099A83180DA2ED8A886963180DA2ED8A8B5
:100C7000873180DA2ED8A88292F34180F1D92ED81C
:100C8000A882F31980F1D92ED882ACF3C0A28022B9
:100C9000F1A62EA72EA92298A829DAACDEFFD8A2A9
:100CA000F22AF1A92E8292A8F23180A696F1D900FB
:100CB000AC8C9C0C30ACDED0DEFFD88C9CACD01061
:100CC000ACDE8092A2F24C82A8F1CAF235F196888D
:100CD000A6D900D8F1FF0E0C0D0F08FFFF0905047F
:100CE00006070A0B0F0C0D0E08FFFF090504060787
:100CF0000A0B0F0C0D0E0908FFFF050406070A0B6F
:100D00002126010700000000756E6F004552524F0A
:100D10005200020F00000001010115D4A2000C00D6
:100D20000000FFFFFFFFFFFFFFFFFFFFFFFFFFFFD1
:100D3000FFFFFF00FF00FF00FF00FF00FF0040403B
:100D40004005B80B04160D0E0F33280B504F5251AF
:100D500051FFFFFFFFFFFF00FF00FF00FF000D003E
:100D600080000EFF000010FFFF000F0000FF09FFD2
:100D7000450000000000000000000000000000002E
:100D80000000000000000000000000000000000063
:100D90000000000000000000000000000000000053
:100DA0000000000000000000000000000000000043
:100DB0000000000000000000000000000000000033
:100DC0000000000000000000000000000000000023
:100DD0000000000000000000000000000000000013
:100DE0000000000000000000000000000000000003
:100DF00000000000000000000000000000FF0100F3
:100E0000FFFF0100FFFF0100FFFF0100FFFF0100E6
:100E1000FFFF0100FFFF11241FBECFEFD8E0DEBFB0
:100E2000CDBF12E0A0E0B1E0ECEAFEE502C0059023
:100E30000D92A034B107D9F727E0A0E4B2E001C0D9
:100E40001D92A832B207E1F70E9468200C94542F3B
:100E5000D7C8CF93DF93FC01DA0186E0EB018883EA
:100E600085E0808315962C911597822F922F990FEC
:100E7000990B97FD079653E0959587955A95E1F75D
:100E8000828317962C911797822F922F990F990B87
:100E900091958195910997FD079643E095958795E2
:100EA0004A95E1F783831B962C911B97822F922FF3
:100EB000990F990B97FD079633E0959587953A958D
:100EC000E1F7848319962C911997822F922F990F0D
:100ED000990B97FD079623E0959587952A95E1F75D
:100EE00085832D913C911197818134FF14C08160DD
:100EF000818381812D913C91119735FF0EC08260D5
:100F0000818381812D913C9136FF09C08860818366
:100F1000DF91CF9108958E7FEBCF8D7FF1CF877FCB
:100F2000F6CFAF92BF92DF92EF92FF920F931F9393
:100F3000CF93DF93FC01DA018CE1EB01888384E03D
:100F40008083D090FE0284E2E82E81E0F82E5F01DB
:100F500030E020E061E070E0E70189917E018F3FA1
:100F600009F44BC0AB0102C0440F551F8A95E2F74C
:100F70008D919C9111974823592301811281CB01B6
:100F8000022E02C0880F991F0A94E2F741155105FD
:100F900049F1802B912B928381832D1570F59091CF
:100FA0001F069B3121F5243010F5C90184529F4F53
:100FB000EC0188818B0102C0000F111F8A95E2F7B6
:100FC0008D919C9111978023912301E010E0452B96
:100FD00011F400E010E0082B192B81E0012B51F4F3
:100FE00080E008C08095909580239123D4CF81E044
:100FF000452BB1F38195E50188872F5F3F4FDFEFE8
:10100000AD1ABD0A2E30310509F0A6CFCC91CF70B4
:1010100088E0CB3020F4D0E0C751DE4F8881838355
:101020001A962D913C911B9780911F068B3109F0E8
:1010300057C019968C91199785958054868387EFB0
:1010400091E02F3F3F4711F484E891E0958B848B2A
:101050008DE7878380911F068F3119F08A3109F05F
:101060005EC08181928112962C911297233308F4ED
:1010700052C08061928381838181928113962C91E9
:101080001397233308F449C08062928381831296B8
:101090008C911297848713968C9113978587159658
:1010A0008C9115978058848317969C911797905828
:1010B000958319968C911997805886831B968C91ED
:1010C0008058878320911F062A3169F1DF91CF91E3
:1010D0001F910F91FF90EF90DF90BF90AF90089518
:1010E0008D3119F0803209F0B5CF19969C9119977E
:1010F00080E8891B8683818192812F3F3F4749F495
:1011000080629283818312969C91129780E8891B5A
:10111000A0CF8F7DF6CF8F7EADCF8F7DB6CF80E80D
:1011200084838583D3CF9095958380958783CECF15
:10113000CF93DF9300D000D0CDB7DEB72FB7F894B0
:101140008091B2029091B302A091B402B091B50225
:101150002FBF9C01AD0187E0220F331F441F551F95
:101160008A95D1F7CA01B9012DE730E040E050E09F
:101170000E94D12BCA01B9010F900F900F900F90D0
:10118000DF91CF910895CF92DF92EF92FF920F936C
:101190001F93CF93DF93EC016B01BA01A901F80112
:1011A000C70120812630E0F4209771F00027112735
:1011B000041B150B601771073CF431962E0D3F2D63
:1011C000311DD9011396CC93C114D10449F04617AF
:1011D000570734F42081820F911DDC011396CC92C5
:1011E000DF91CF911F910F91FF90EF90DF90CF9003
:1011F00008958F929F92AF92BF92CF92DF92EF921B
:10120000FF920F931F93CF93DF930F92CDB7DEB76B
:101210006C014A0189E0DB018C9386E0F601808352
:10122000E0E5F6E050E040E080E061E070E09191C0
:101230009923A1F0D401AD90BC909B01042E02C073
:10124000220F331F0A94E2F72A213B21232B31F08E
:10125000D601A80FB11D13969C938F5F4F5F5F4F10
:101260004031510509F05EC08983A090FC02B09026
:10127000FD02F401448155816091630670E0809124
:10128000620676018E010F5F1F4F950190E07BDFB4
:10129000D40116964D915C916091650670E0809145
:1012A0006406950190E06FDFF401408551856091FF
:1012B000670670E080916606950190E064DFD401D6
:1012C0001A964D915C916091690670E08091680674
:1012D000950190E058DFA090FA02B090FB02F40173
:1012E000428150E06091600670E0950190E080E0FE
:1012F0004ADFD40113964C9150E06091610670E092
:10130000950190E080E03FDF0F90DF91CF911F913A
:101310000F91FF90EF90DF90CF90BF90AF909F9094
:101320008F900895863009F082CF9ECF8F929F9242
:10133000AF92BF92CF92DF92EF92FF920F931F93E3
:10134000CF93DF9300D000D000D0CDB7DEB78D8330
:101350009E8369837A83DA0187E0ED81FE81808351
:1013600062EC76E04CE952E0CD01845A9F4F9C83B9
:101370008B836D0190E2C91AD10830E020E0F12C96
:10138000FB018191BF01882309F444C000EBE02EEA
:10139000813011F410E9E12E203108F075C0809100
:1013A0001F0690E086509E4FFC018081813009F03D
:1013B0005AC0293008F457C0EB81FC8180818695A2
:1013C000FA019081981731F1FB0193A49589FA01F4
:1013D0008083AF2CB12CF4E0FF9E80011124ED81BD
:1013E000FE810E0F1F1F8E2C8294EFE08E22F801DB
:1013F0008182E928E282938385010F5F1F4F000FEE
:10140000111F000F111FED81FE810E0F1F1FF8012C
:101410008083F3942F5F3F4F4F5F5F4F8B819C81A1
:1014200001969C838B8392E0C90ED11C2631310535
:1014300009F0A6CFFF0CFF0CF394E981FA81F0824A
:1014400026960FB6F894DEBF0FBECDBFDF91CF91C9
:101450001F910F91FF90EF90DF90CF90BF90AF90D2
:101460009F908F9008950D911C91119781E090E0CD
:10147000022E02C0880F991F0A94E2F7802391235D
:10148000892BC9F480E09BCF90914A0681E02331FB
:1014900040F0F601008111819017110608F48FCFFA
:1014A000F1CF0B811C810A561109F80110819117A7
:1014B00008F485CFE7CF80E482CFCF93DF9300D0CD
:1014C00000D0CDB7DEB7DB019C010E94162C6983EA
:1014D0007A838B839C83DC01CB019F77AA27BB2770
:1014E00081159044A105B105D1F080E090E4A0E021
:1014F000B0E029813A814B815C81820F931FA41F48
:10150000B51F2FE0B595A795979587952A95D1F7A3
:101510000F900F900F900F90DF91CF91089580E082
:1015200090E0DC01E6CF8EBD00000DB407FEFDCFDC
:101530008EB50895CF93DF93DC01FC01379689E0E7
:10154000EF0119928A95E9F7862F90E0FC01E853A4
:10155000FF4F64918C549F4FFC01849170E0660FA3
:10156000771FFB01E655FF4FC591D491FB01E05673
:10157000FF4F659174918C931296DC93CE931197E3
:1015800014967C936E93139781E090E0042E02C032
:10159000880F991F0A94E2F716969C938E931597DD
:1015A00019962C9319971A964C931A9785E0509692
:1015B0008C93509781E051968C935197CD01DF9198
:1015C000CF91089590E0FC01EC54FF4F2491FC0171
:1015D000E853FF4FE491EE2389F0F0E0EE0FFF1F98
:1015E000E056FF4FA591B4918FB7F894611107C0F1
:1015F0009C91E22FE095E923EC938FBF0895EC9145
:10160000E22BFACF90E0FC01EC54FF4F2491FC0157
:10161000E853FF4FE491EE2359F0F0E0EE0FFF1F87
:10162000E655FF4FA591B491EC91E22381E009F4D6
:1016300080E090E00895CF93DF93EC01809148061D
:10164000E1DF892B39F090E080E09B878A87DF918A
:10165000CF9108958FEF9FE7F8CF806480937C004F
:1016600080917A00806480937A0080917A0086FD70
:10167000FCCF8091780090917900089580917A0054
:1016800086FDFCCF81E080933E010895CF93DF93E8
:1016900090E0FC01EC54FF4F249188539F4FFC01D4
:1016A00084918823D1F090E0880F991FFC01EA56BD
:1016B000FF4FA591B491FC01E056FF4FC591D49125
:1016C000613071F49FB7F8948C91209582238C93AC
:1016D0008881282328839FBF7894DF91CF91089534
:1016E000623051F49FB7F8943C91822F8095832308
:1016F0008C93E8812E2BEECF8FB7F894EC912E2BA4
:101700002C938FBFE9CFCF92DF92EF92FF921F937E
:10171000CF93DF936B017C01142FD22F60E08BE01D
:10172000B5DF62E08CE0B2DF60E08DE0AFDF61E06A
:101730008AE048DF60E08AE0A9DF1111C8E0D1113A
:10174000C460C11482E1D8068AE7E806F104C8F54E
:10175000C11489E0D8068DE3E806F104A0F580E81D
:10176000C81684E8D8068EE1E806F10470F580E436
:10177000C81682E4D8068FE0E806F10440F580E25E
:10178000C81681EAD80687E0E806F10410F580E97A
:10179000C81680EDD80683E0E806F104E0F487E09F
:1017A00091E08927982F96959C2B90659CBD817020
:1017B0008DBDDF91CF911F91FF90EF90DF90CF9083
:1017C000089580E0EDCF81E0EBCF82E0E9CF83E0C8
:1017D000E7CF84E0E5CF85E0E3CFEAE7F0E0808182
:1017E0008460808380818260808380818160808347
:1017F0008081806880830895682F8AE0E3CE9F927D
:10180000AF92BF92CF92DF92EF92FF920F931F930E
:10181000CF93DF93CDB7DEB7C054D1090FB6F8949C
:10182000DEBF0FBECDBF1092AE031092AD0326DF18
:10183000109204031092030310920203109201030A
:101840002EE1E22E26E0F22E00E03CE1B32ECE01A6
:1018500001966C01F6013B2D11923A95E9F70B8345
:10186000F70110A11F3F99F1053061F4E0911F06C7
:10187000F0E0E650FE4F8081823021F48091200616
:10188000833029F5F70181A18D831E3008F01E50A9
:1018900061E08EE0810FFADE177010641A83809188
:1018A0000303909104039C012F5F3F4F3093040387
:1018B00020930303B89ED001B99EB00D1124AB5FF5
:1018C000BC4FF6018B2D01900D928A95E1F70F5FC9
:1018D000F2E0EF0EF11C063009F0BCCF80911E063D
:1018E000823009F084C08EE2A82E86E0B82EF12C5A
:1018F000E12C02E197E0992EF50161915F016F3FC4
:1019000009F46DC081E0FCE0EF16F10438F49701B2
:10191000285031092230310508F080E0182F11706D
:1019200080FF05C021E080912206813009F020E08F
:1019300021704E2DCE018F96FDDD88ADE0911F0602
:10194000F0E0E650FE4F2081F5013197213009F09B
:1019500061C0112309F45EC0108180914C0638E00B
:10196000839FC001112432E1FE01BF96DE015D9626
:1019700001900D923A95E1F7F601392D11923A95C1
:10198000E9F71B832A8722E1FE017D96DE011B9683
:1019900001900D922A95E1F7998788871E3008F00B
:1019A0001E5061E08EE0810F71DE177010641A83A3
:1019B0002091030330910403C9010196909304031D
:1019C000809303038CE1829FD001839FB00D11248B
:1019D000AB5FBC4FF60101900D928A95E1F78FEF56
:1019E000E81AF80A90E1E916F10409F085CFC05C25
:1019F000DF4F0FB6F894DEBF0FBECDBFDF91CF91A2
:101A00001F910F91FF90EF90DF90CF90BF90AF901C
:101A10009F90089562E0811161E0808137DE8091BE
:101A2000AD039091AE039C012F5F3F4F3093AE0307
:101A30002093AD03089FD001099FB00D1124A1553B
:101A4000BC4FFE01BF96802FC6CF982F8D30C9F0B6
:101A50008230B8F080912006813021F080911E06FE
:101A6000813021F48EEE890F823058F086EF890F95
:101A7000843038F081E0983031F0923021F080E00D
:101A8000089581E0089508950F931F93CF93809157
:101A900041058823B9F00DE215E0C0E08C2FD5DFB9
:101AA000811103C061E08C2FF1DD8C2FABDD9C0137
:101AB00091E0232B09F490E0F80191938F01CF5F1F
:101AC000C43161F710922C0510924105CF911F91FE
:101AD0000F9195CE0F931F93CF93DF93FC01AB0132
:101AE000A2E9B1E030E020E061E070E08D918F3F4D
:101AF000C1F0C081D1818B0102C0000F111F8A95F6
:101B0000E2F7C8018B01022E02C0000F111F0A94D8
:101B1000E2F704231523012B71F08C2B9D2B91836D
:101B200080832F5F3F4F2031310501F7DF91CF9147
:101B30001F910F910895809590958C239D23EFCF51
:101B40000F931F93CF93DF93EC018B01FB018081F7
:101B50008052990B880F880F1C828D83818180525F
:101B6000990B880F880F1E828F8364817581609521
:101B700070957E7FCE01AEDF80911F06833280F0AC
:101B8000F801838181FF0CC08095807E92819695BB
:101B90009E739A31E0F4FE01E859FF4F9231E1F073
:101BA00088819981F801258123FD18C0906499836B
:101BB000888388819981F801258125FD11C090686D
:101BC00099838883DF91CF911F910F910895FE0132
:101BD000EC59FF4F9E3121F78083E2CF9F7BE7CF07
:101BE0009F77EECFFC01DB018C91880F880F805826
:101BF0001482858311968C911197880F880F8058D5
:101C00001682878313968C9113978F718051990B4D
:101C1000880F880F1086818714966D917C9160954E
:101C20007095CF0157CFFC01DB018C918058990B47
:101C30001482858312968C9112978058990B168284
:101C4000878311968C9111978058990B1086818704
:101C500013968C9113978058990B1286838714964C
:101C60008C911497828315968C9115978383169681
:101C70006D917C9160957095CF012CCFFC01DB01BB
:101C80008C918F738052990B9583848311968C91DC
:101C900011978F738052990B978386832C9130E034
:101CA00083E0359527958A95E1F7287133271196BA
:101CB0008C91119790E045E0959587954A95E1F7CD
:101CC00086709927282B392B12968C911297881F92
:101CD0008827881F282B20513109318720871296A9
:101CE0008C9112978F718051990B938782871296EE
:101CF0008C91129786958695887113969C9113976F
:101D0000929596959770892B828313968C91139751
:101D10008F71838314966D917C9160957095CF013E
:101D2000D9CEDC01FB018081218122952695267088
:101D3000982F9695969596959871292B9281991F33
:101D40009927991F292B880F880F805814961C9269
:101D5000149715968C9315978181880F880F80585A
:101D600016961C92169717968C9317979481338129
:101D700090FF38C0832F90E0809590958F719927C0
:101D8000809619969C938E931897022E000C330B15
:101D9000828180FF2DC08FE390E0821B930B1B9606
:101DA0009C938E931A9782818695869588719381EC
:101DB000929596959770892B12968C9312978281A3
:101DC00090E0959587958F7013968C931397648107
:101DD0007581762767277627609570956D7C737679
:101DE000CD0178CE3F7180E290E0831B9109C9CF8D
:101DF00080E290E0D2CFFC01DB0112968C91129729
:101E000090E0982F882788279F702C91822B9583AC
:101E1000848312968C91129720E1829FC001112435
:101E200088279F7011962C911197822B9783868318
:101E300013968C91139783838081918115962C91B1
:101E4000159720FF17C090619183808380819181D5
:101E500015962C91159721FF0FC090629183808376
:101E60008081918115962C9122FD08C09064918308
:101E7000808308959F7EE8CF9F7DF0CF9F7BF7CF33
:101E8000FC01DB018D919C911197958384831296BF
:101E90008D919C9113979783868314968C9183835D
:101EA0000895FB0164817581762767277627609501
:101EB000709510CE80E0A0DC81EE35DB81E09CCC1B
:101EC00080E09ADC82EE2FDB81E096CC80E094DC2F
:101ED00080E529DB83E727DB81E08ECCCF9380E0B0
:101EE0008BDC8FEF20DBC82F81E086DC8C2FCF913D
:101EF00008950F931F93CF93DF93EC018C01060F8E
:101F0000111DC017D10729F4DF91CF911F910F91B7
:101F10000895899108DBF5CFCF93DF93D82FC62F93
:101F200080E06ADC8D2F8062FEDA8C2FFCDA81E0A3
:101F3000DF91CF9161CCF89488E198E00FB6F894E6
:101F4000A895809360000FBE90936000FFCF1F9311
:101F5000CF93DF93182FD62FC72F80E04DDC812F32
:101F60008062E1DA64E08D2F9C2FC3DF81E0DF9196
:101F7000CF911F9141CC1F93CF93DF93182FEB018B
:101F800080E03ADC812FCFDA8881CDDA888381E066
:101F9000DF91CF911F9130CCCF93DF930F92CDB7CC
:101FA000DEB7BE016F5F7F4FE6DF89810F90DF9163
:101FB000CF910895FF920F931F93CF93DF93082F34
:101FC000F92E60E487E0A8DF80E016DC80E6ABDA7B
:101FD00080E0A9DA182F81E00FDC80E00DDC81E6DB
:101FE000A2DAC02FDF2D8C2F801B811750F081E0EB
:101FF00003DC812F90E0DF91CF911F910F91FF9033
:102000000895899190DAFE0131978083ECCFFF9299
:102010000F931F93CF93DF93D82FC92FF62E072F3F
:10202000142F10921F055ADF282F30E03595279581
:1020300027703327232BE1F48F2D902FBBDF60E433
:1020400087E06ADF01E060E387E066DF80E0D4DB01
:1020500080EA69DA612F8D2F9C2F4BDF81E0CCDB8A
:10206000802F90E0DF91CF911F910F91FF90089505
:1020700000E0E9CF85ED8093BC008FEF9FE72091D2
:10208000BC0024FD03C01092EE0202C00197B9F714
:102090000895CF93DF93DC01FA0184E1EB0188839B
:1020A0001C9211968C93119712968CE001900D92D0
:1020B0008A95E1F7DF91CF910895CF93282FCB0137
:1020C000C42F4FEF5FE7C13228F080E045C0415098
:1020D0005109D9F33091EE023111F9CF31E030934B
:1020E000EE023093ED024FEF4093780210929A0285
:1020F0004C0F4093990230939B0230919B02220F28
:10210000232B20939B022091EC02222381F1109239
:10211000EC0220919B022093BB002FEF3FE7409100
:10212000BC0043FD1BC025EC2093BC002FEF3FE714
:102130004091EE024130E9F020919A022C1710F400
:10214000C0919A024C2F50E069E772E00E94952CF2
:1021500081E0CC2309F4B9CFCF9108952150310902
:1021600009F4B3CF40919B024093BB00D8CF25EE3A
:10217000DBCF21503109E1F6A8CFCF93C82F8FEFE5
:102180009FE7413220F080E03FC00197E1F32091CA
:10219000EE022111FACF82E08093EE0281E080937B
:1021A000ED028FEF8093780210929A024093990289
:1021B00050E089E792E00E94952C10929B0280915A
:1021C0009B02CC0FC82BC0939B028091EC0288230A
:1021D00029F11092EC0280919B028093BB008FEF5B
:1021E0009FE72091BC0023FD11C085EC8093BC00CB
:1021F0008FEF9FE72091EE02223091F090917802CC
:1022000081E09F3F09F0BFCFCF910895019709F476
:10221000BACF20919B022093BB00E3CF85EEE6CF9F
:10222000019741F7B0CFEF92FF920F931F93CF9397
:10223000DF930F92CDB7DEB7182F6983E42EF22E0D
:10224000032F41E0BE016F5F7F4F97DF882371F05E
:102250004E2D6F2D702F812F30DF81700F90DF9109
:10226000CF911F910F91FF90EF90089580E0F5CFEF
:10227000A8ECB2E01396ED91FC91149780819C91AB
:10228000892B8083A6EBB2E01396ED91FC91149715
:1022900080819C91892B8083AAEDB2E01396ED9109
:1022A000FC91149780819C91892B808380E58A958D
:1022B000F1F70895FF920F931F93CF93DF930F923F
:1022C000CDB7DEB78983F62E8A0141E0BE016F5F8C
:1022D0007F4F82E552DF882351F08FEC92E0019727
:1022E000F1F700C000004F2DB80182E5E6DE0F9047
:1022F000DF91CF911F910F91FF900895CF93DF93BE
:1023000000D000D000D0CDB7DEB7AE014F5F5F4F39
:1023100066E08AEFCFDFFE013196AE01495F5F4F85
:102320008FEF90E02191922B82234E175F07D1F718
:10233000992369F08F3F59F099818E8126960FB6C7
:10234000F894DEBF0FBECDBFDF91CF9108958FEF20
:102350009FEFF4CFFF920F931F93CF93DF93CDB7EF
:10236000DEB72A970FB6F894DEBF0FBECDBF6B83E2
:102370007C838D839E832F83388749875A8781E0AA
:1023800080931F0560E088E081D960E08AE07ED913
:1023900020E040E060E074E284EF90E0B4D960E0D7
:1023A00088E010D981E028DA8FE19EE40197F1F707
:1023B00000C0000061EF84E0AFDD62E083E0ACDDEF
:1023C0008E010F5F1F4FB80186E0D5DD6981697FFF
:1023D000698386E0A1DD8DE1DFDDF82E77DD8DE11B
:1023E000DBDD882331F0F81201C070DD60E08DE1A3
:1023F00093DDBE016E5F7F4F86E0BDDD6A81677D44
:1024000063606A8386E088DDB80186E0B4DDB801E8
:1024100080E0B1DD69816C60698380E07DDD6CE422
:1024200085E07ADD8DE1B8DD682F64608DE174DDD3
:102430008CE1B2DD682F6F638CE16EDD8DE1ACDD88
:10244000682F66608DE168DD8CE1A6DD682F636032
:102450008CE162DD6FE381E05FDD60E787E05CDDFA
:102460002FDD28DD1982B80180E085DD89818C7837
:10247000898360E088E0A6D86981626080E04CDDF5
:1024800061E088E09FD8BE016D5F7F4F8AE05FDD2D
:10249000BE016D5F7F4F80E15ADD60E088E092D839
:1024A000BE01695F7F4F8BE052DD63E082E034DD87
:1024B00061E088E087D8809169008260809369003C
:1024C000E89A2A960FB6F894DEBF0FBECDBFDF9113
:1024D000CF911F910F91FF9008957F928F929F92BD
:1024E000AF92BF92CF92DF92EF92FF920F931F9322
:1024F000CF93DF937C018B016C014B01840E911C07
:1025000093E2A92E92E0B92E0815190589F48AE004
:1025100090E0DF91CF911F910F91FF90EF90DF90AE
:10252000CF90BF90AF909F908F907F900C94B62CDF
:102530008AE5E114F10489F0F6019081892F8695EE
:102540008575990F9A7A892B982F969596959373FE
:10255000880F880F8C7C892B82950E94930A782E95
:10256000C82FD0E01F928F93BF92AF920E94A52CEC
:10257000D695C795C575872D880F8A7AC82B8C2F5D
:10258000869586958373CC0FCC0FCC7CC82BC295D7
:10259000F801C1938F01F0E5FA95F1F78FEFC81AB2
:1025A000D80A0F900F900F900F90AECF0F931F93FC
:1025B000CF93DF938C01C62FE091DD02F091DE0214
:1025C00090818091DA02809589238083E091B9021D
:1025D000F091BA0290818091B60280958923808320
:1025E000E091CB02F091CC0290818091C80280955D
:1025F0008923808380E58A95F1F743E063E472E004
:10260000C8016BDF809144028F3F49F4D0E0C0E005
:102610002FDECE01DF91CF911F910F910895909100
:1026200045029A3511F09111F1CF8F70D82FDD0F3F
:10263000C33039F04DEF4C0F66E472E0C8010396E9
:102640004CDFDD5F4D2F4C1BDC1761F06C2F70E011
:10265000CB01840F911D8197CCF66D5B7D4F90E08F
:1026600080E03BDFC3E4D2E0D3CFCF92DF92EF92A2
:10267000FF920F931F93CF93DF9300D000D000D031
:10268000CDB7DEB78D839E83062F0E9498086B011D
:102690007C0110E0602F8D819E8188DFFC01892BF9
:1026A00051F01F5F8D819E81855E914059F581813A
:1026B000807F803F81F18FE39CE90197F1F700C0B3
:1026C00000000E94980869837A838B839C83DC01D5
:1026D000CB018C199D09AE09BF098B3F9105A1055E
:1026E000B105C0F280E026960FB6F894DEBF0FBEAB
:1026F000CDBFDF91CF911F910F91FF90EF90DF90B1
:10270000CF9008958D819E81815E914031F48181C9
:10271000807F803F81F281E0E6CF1330E0F7CBCFBE
:10272000EF92FF920F931F93CF93DF93EC0163E03F
:102730008EED91E03BDFFC01892B49F08181982FE0
:10274000907F903F31F464E081EE91E08EDF80E095
:1027500051C0E380F480E094F09420913F01AEEB0F
:10276000B1E0243011F0AEECB1E0903509F049C091
:1027700088E080933F018181823189F489E08093F0
:102780003F0185818058990B1C828D8326818FE7BC
:1027900090E0821B91091E828F83A3EBB1E030E0B1
:1027A00020E001E010E08D918F3FC9F04881598110
:1027B000B80102C0660F771F8A95E2F7CB01B80116
:1027C000022E02C0660F771F0A94E2F76E217F2166
:1027D000672B09F45EC0842B952B998388832F5F28
:1027E0003F4F20313105F9F68181807D803509F434
:1027F00057C081E0DF91CF911F910F91FF90EF9033
:102800000895833201F585E080933F0185818058EA
:10281000990B1C828D83888199812681213878F1DA
:10282000906499838883888199812781213848F130
:10283000906899838883888199812085213F18F148
:102840009160998388838181807F803E09F093CF56
:1028500086E080933F01858190E09D838C83968103
:10286000858197FD12C087FD8FE790E09D838C8363
:102870008C819D8180589F4F9D838C837CCF9F7BD3
:10288000D0CF9F77D6CF9E7FDCCF813870F781E89D
:10289000ECCF8095909548235923598348839FCF47
:1028A00085818058990B1886898726818FE790E06B
:1028B000AC01421B51091A864B8727812058330BE4
:1028C0001C822D832085821B91091E828F8381812A
:1028D000893709F08ECF83898A8384898B8380919D
:1028E0003F01843009F085CF818990E099878887FE
:1028F000EE2451E0F5222FEF3FE7E29EC001E39E78
:10290000900DF29E900D11249B878A8772CF1F93A2
:10291000CF93DF93182FD92F80913F018A30A9F5EB
:10292000C5E0812F9D2FFCDE8FE99FE00197F1F735
:1029300000C00000C150A9F7812F9D2FF1DE882330
:1029400061F164E085EE91E090DE882381F163E03F
:1029500082EA91E02BDEFC01892B49F083818330F0
:1029600021F18130F1F48181823409F0C4E0C09317
:102970003F0165E08EEA91E078DE69E085EA91E06A
:1029800074DE64E081EE91E070DE812F9D2FC8DE61
:10299000811103C08AE080933F01DF91CF911F91A5
:1029A00008958C3021F7C3E0E2CFC2E0E0CF81E0B0
:1029B00080933F01EACF9F92AF92BF92CF92DF9276
:1029C000EF92FF920F931F93CF93DF9300D000D02D
:1029D00000D0CDB7DEB78D839E838B01DB018C9158
:1029E0008058990BED81FE811482858312968C911B
:1029F00012978058990B1682878380912506882329
:102A000009F4D9C01596DC9015978D2D90E013969A
:102A1000EC901397F4E0EF9E900111247C0144E0C8
:102A2000F594E7944A95E1F743E0E422FF24E22A93
:102A3000F32A14962C9154E0259F9001112495952A
:102A400087959595879583709927822B932B9C0169
:102A500050E040E029833A834B835C83CA01B9018B
:102A60000E945E2B20E030E84FEF53E469837A83C5
:102A70008B839C8369817A818B819C810E94C42A8B
:102A8000962EA72EB82EC92ED80112968C91B4E09E
:102A90008B9FC0011124D294D694D69463E0D622A1
:102AA0008D299C0150E040E029833A834B835C836D
:102AB000CA01B9010E945E2B20E030E84FEF53E4D9
:102AC00069837A838B839C8369817A818B819C81E2
:102AD0000E94C42A292D3A2D4B2D5C2D69837A83BF
:102AE0008B839C8369817A818B819C810E94F028F1
:102AF00020EE3EE245E652E469837A838B839C8331
:102B000069817A818B819C810E942B2B69837A83D6
:102B10008B839C8369817A818B819C810E942D2B80
:102B2000AD81BE8119967C936E931897970150E002
:102B300040E029833A834B835C83CA01B9010E9438
:102B40005E2B20E030E84FEF53E469837A838B8378
:102B50009C8369817A818B819C810E94C42A292D62
:102B60003A2D4B2D5C2D69837A838B839C836981FD
:102B70007A818B819C810E94F02820EE3EE245E61E
:102B800052EC69837A838B839C8369817A818B8100
:102B90009C810E942B2B69837A838B839C83698120
:102BA0007A818B819C810E942D2BAD81BE811B96E9
:102BB0007C936E931A97ED81FE8180819181D8017B
:102BC00015962C9120FD21C0906191838083AD8169
:102BD000BE818D919C911197F801258121FD19C02D
:102BE00090628D939C9326960FB6F894DEBF0FBE2D
:102BF000CDBFDF91CF911F910F91FF90EF90DF90AC
:102C0000CF90BF90AF909F9008959F7EED81FE8101
:102C1000DCCF9F7DAD81BE81E4CFEF92FF920F9319
:102C20001F93CF93DF9300D0CDB7DEB7082F142FBB
:102C3000732F8DB79EB79A83898350E0CA0101969E
:102C4000EDB7FEB7E81BF90B0FB6F894FEBF0FBE49
:102C5000EDBF8DB79EB701967C016183622F01960F
:102C60000E94952C41E0410FB701802F86DAE9815F
:102C7000FA810FB6F894FEBF0FBEEDBF0F900F9014
:102C8000DF91CF911F910F91FF90EF900895EF92F8
:102C9000FF920F931F93CF93DF930F92CDB7DEB7C1
:102CA00080910701811109C08FEF0F90DF91CF91C3
:102CB0001F910F91FF90EF9008951982A09101014B
:102CC000B0910201E0910301F09104018E010F5FC8
:102CD0001F4F980141E051966C9180819EDF7801F1
:102CE000882311F3A0910101B0910201E091030149
:102CF000F0910401980141E015966C9180818DDF7F
:102D0000882391F2A0910101B0910201E0910301A9
:102D1000F0910401980141E014966C9180817DDF6F
:102D2000882309F4C1CFE0910101F091020164818F
:102D3000E0910301F091040180911E01882309F4C0
:102D400057C08CE08983980141E0808166DF882349
:102D500009F4AACF2FEF80E792E021508040904005
:102D6000E1F700C0000080EC89838091070180FFBB
:102D700002C080EE8983A0910101B0910201E0912F
:102D80000301F0910401970141E014966C91808158
:102D900044DF882309F488CF80910D01882331F125
:102DA00082E08983A0910101B0910201E0910301C9
:102DB000F0910401970141E051966C9180812DDFE3
:102DC000882309F471CF1982A0910101B091020109
:102DD000E0910301F0910401970141E015966C9197
:102DE00080811BDF91E0892781955FCF1982DACF3F
:102DF00084E08983980141E080810FDF882309F412
:102E000053CF80910E01811104C08091070180FD94
:102E10003EC080E48983A0910101B0910201E0915C
:102E20000301F0910401970141E014966C918081B7
:102E3000F4DE882309F438CF2FEF80E792E02150A9
:102E400080409040E1F700C0000080910D01882390
:102E500001F181E08983A0910101B0910201E0912B
:102E60000301F0910401970141E051966C9180813A
:102E7000D4DE882309F418CFA0910101B09102019A
:102E8000E0910301F09104012CE031E0A6CF80E64F
:102E9000C1CF1982E0CF8F929F92AF92BF92CF9213
:102EA000DF92EF92FF920F931F93CF93DF93CDB7F3
:102EB000DEB7EA970FB6F894DEBF0FBECDBF89AF7D
:102EC0009AAF1092670210926602D090F902ED2C30
:102ED000F12C80911E01882309F18091070188233C
:102EE000E9F0A0910101B0910201E0910301F0919C
:102EF00004019E012F5D3F4F42E01C966C91808142
:102F000092D9882359F009A11AA110270127102767
:102F10000E151F0508F09FC1109265028091660290
:102F2000909167028115914009F07AC183E0809306
:102F30004D06609168027091690280916A029091D9
:102F40006B020E94602B20E030E040E054E36FA36E
:102F500078A789A79AA76FA178A589A59AA50E94A5
:102F60002B2B6FA378A789A79AA76FA178A589A50E
:102F70009AA50E942D2B6FA378A789A79AA7EFA1E6
:102F8000F8A5F0936902E093680260916C02709179
:102F90006D0280916E0290916F020E94602B20E082
:102FA00030E040E054E36BA37CA38DA39EA36BA110
:102FB0007CA18DA19EA10E942B2B6BA37CA38DA332
:102FC0009EA36BA17CA18DA19EA10E942D2B4B01E4
:102FD00070936B0260936A0260917002709171024B
:102FE00080917202909173020E94602B20E030E089
:102FF00040E054E36BA37CA38DA39EA36BA17CA1B3
:103000008DA19EA10E942B2B6BA37CA38DA39EA3BD
:103010006BA17CA18DA19EA10E942D2B6B017093B1
:103020006D0260936C0260917402709175028091E0
:103030007602909177020E94602B20E030E040E021
:1030400054E36BA37CA38DA39EA36BA17CA18DA154
:103050009EA10E942B2B6BA37CA38DA39EA36BA18F
:103060007CA18DA19EA10E942D2B462F572F5093FE
:103070006F0240936E02489DC001499D900D589D7E
:10308000900D11244FA158A5C49E9001C59E300DEE
:10309000D49E300D11245C01A21AB30AB501C501FA
:1030A0000E945D0A7C01BC010E945D0A8C01BC018A
:1030B0000E945D0AD82EC92E60E670EB89EB94E47D
:1030C0000E94262A362F272FB701832F922F0E9486
:1030D0005D0A8BAB9CAB6AE27EEE87EB93E40E94C9
:1030E000262A6FA778AB89AB9AAB6EEF7AEB87E5B0
:1030F00094E40E94262A362F272FB701832F922F80
:103100000E945D0A8DAB9EAB66EA79EB88E294E49F
:103110000E94262A6BA77CA78DA79EA762E377E86B
:103120008AE794E40E94262A362F272FB701832F9F
:10313000922F0E945D0A8FAB98AF63E87EEC86EB1E
:1031400094E40E94262A6BA37CA38DA39EA36AEC21
:1031500079E989E195E40E94262A362F272FB701C5
:10316000832F922F0E945D0A4C016AEA7AEA8AEA6A
:1031700095E40E94262A6FA378A789A79AA78BA90E
:103180009CA9AFA5B8A98A1B9B0BB8010E945D0A38
:103190002DA93EA9EBA5FCA52E0F3F1F6D2D7C2D63
:1031A000820F931F0E945D0A6C018FA998AD2BA11D
:1031B0003CA1820F931FB8010E945D0A8C0D9D1DDA
:1031C0004FA158A5840E951EB701880D991D0E9428
:1031D0005D0AB5010E945D0A8A0D9B1D919581953E
:1031E00091098A3959E195070CF411C289E999E1ED
:1031F0009093640280936302209163023091640291
:1032000045E0429FC001439F900D112420914E063E
:1032100030914F06820F931F909364028093630254
:103220008091630290916402E9ADFAAD9387828741
:10323000EA960FB6F894DEBF0FBECDBFDF91CF91F7
:103240001F910F91FF90EF90DF90CF90BF90AF90C4
:103250009F908F900895E0910301F0910401818186
:1032600092819695879580179107A8F4A091010106
:10327000B09102019E012F5D3F4F41E053966C914A
:1032800080810E941311882309F448CE89A184FF0C
:1032900002C0FDDC43CEA0910101B0910201E0919A
:1032A0000301F09104019E012F5F3F4F4D2D1D96AC
:1032B0006C9180810E941311882309F42FCEC801DC
:1032C000B7010E94AA2B615060936502E091F5025C
:1032D000F091F602CF0184719927892B09F495C1E9
:1032E00029813A814B815C81CA01B9010E940F2C6E
:1032F0004B015C018092680290926902A0926A027E
:10330000B0926B028D819E81AF81B885BC01CD01E9
:103310000E940F2C6B017C01C0926C02D0926D0256
:10332000E0926E02F0926F0229853A854B855C85AA
:10333000CA01B9010E940F2C8B019C0100937002FD
:103340001093710220937202309373028D859E85D3
:10335000AF85B889BC01CD010E940F2CAB01BC0127
:1033600040937402509375026093760270937702D3
:10337000C501BB2797FDB095AB2F8FA398A7A9A731
:10338000BAA7C701BB2797FDB095AB2F8BA39CA312
:10339000ADA3BEA3C901BB2797FDB095AB2F8BA7EB
:1033A0009CA7ADA7BEA7CB01BB2797FDB095AB2FC0
:1033B0008FA798ABA9ABBAAB2FA138A549A55AA541
:1033C000CA01B9010E949B2B6FA378A789A79AA76E
:1033D0002BA13CA14DA15EA1CA01B9010E949B2B6A
:1033E0006BA37CA38DA39EA3CFA0D8A4E9A4FAA429
:1033F000C60ED71EE81EF91E2BA53CA54DA55EA541
:10340000CA01B9010E949B2BC60ED71EE81EF91EE9
:103410002FA538A949A95AA9CA01B9010E949B2B15
:103420006FA378A789A79AA7C60ED71EE81EF91E14
:103430009FE0F91AA1E0CA16D104E104A2E0FA065D
:1034400030F025DC109267021092660267CD809101
:103450006602909167029160909367028093660282
:1034600080E1E6FF4DC0A1E0B0E0AC0FBD1FA80FAA
:10347000B11D9C9121E0280FA1E0B0E0AC0FBD1F71
:10348000A20FB11D2C91392F309301002093000021
:1034900092E0980FA1E0B0E0AC0FBD1FA90FB11DE5
:1034A0009C9123E0280FA1E0B0E0AC0FBD1FA20F5C
:1034B000B11D2C91392F309303002093020094E02A
:1034C000980FA1E0B0E0AC0FBD1FA90FB11D9C91FA
:1034D00025E0280FA1E0B0E0AC0FBD1FA20FB11D89
:1034E0002C91392F30930500209304008A5F20919E
:1034F000660230916702286030936702209366026B
:103500009F0120783170232B09F44DC0A1E0B0E079
:10351000AC0FBD1FA80FB11D9C9121E0280FA1E0A9
:10352000B0E0AC0FBD1FA20FB11D2C91392F30930D
:1035300001002093000092E0980FA1E0B0E0AC0FF2
:10354000BD1FA90FB11D9C9123E0280FA1E0B0E0A1
:10355000AC0FBD1FA20FB11D2C91392F309303006A
:103560002093020094E0980FA1E0B0E0AC0FBD1FE3
:10357000A90FB11D9C9125E0280FA1E0B0E0AC0F90
:10358000BD1FA20FB11D2C91392F30930500209340
:1035900004008A5F209166023091670220673093B1
:1035A000670220936602E370FF27EF2B09F4B6CC85
:1035B00001E010E00C0F1D1F080F111DF801F38032
:1035C000818180FF0FC0E091EF02F091F00230970F
:1035D00049F06F2D67706F5F8F2D86958695869564
:1035E00087700995D80111968C9183FF97CCE09153
:1035F000F102F091F202309709F490CC8F2D829570
:10360000869586958370099589CC80E02ACF873688
:10361000A6EE9A070CF0ECCD87E696EEE9CDCF93B7
:10362000DF930F92CDB7DEB79C0180910701811126
:1036300005C08FEF0F90DF91CF91089581E02C3B73
:10364000310588F482E02236310568F483E02A32BD
:10365000310548F484E02431310528F485E02A302E
:10366000310508F486E089839091080189819817D3
:10367000A9F0A0910101B0910201E0910301F09144
:1036800004019E012F5F3F4F41E012966C918081B3
:10369000C4DA882371F289818093080180E0CACF5F
:1036A000EF92FF920F931F93CF93DF9300D0CDB78C
:1036B000DEB7FC018B017A018091070181110AC0FC
:1036C0008FEF0F900F90DF91CF911F910F91FF908F
:1036D000EF9008959E2F8F2F9A838983A0910301E5
:1036E000B09104019B012E0F311D18968D919C9174
:1036F00019978217930720F3E0910101F0910201DD
:103700009E012F5F3F4F42E0638D8C9186DA8823C4
:10371000B9F2A0910101B0910201E0910301F09191
:1037200004019701402F58966C91808176DA91E0E0
:1037300089278195C6CFCF93DF930F92CDB7DEB7A0
:1037400080910701811105C08FEF0F90DF91CF911C
:10375000089588E18983809105018330C1F0A091AB
:103760000101B0910201E0910301F09104019E0179
:103770002F5F3F4F41E016966C9180814EDA88238F
:1037800019F389818695869586958093050180E059
:10379000DCCFCF93DF930F92CDB7DEB780910701D7
:1037A000811105C08FEF0F90DF91CF91089519829D
:1037B000809106018823C1F0A0910101B09102011E
:1037C000E0910301F09104019E012F5F3F4F41E022
:1037D00017966C91808121DA882321F3898186955F
:1037E000869586958093060180E0DDCF0F931F9329
:1037F000CF93DF930F92CDB7DEB780910E01882370
:1038000009F458C0A0910101B0910201E0910301B7
:10381000F09104018E010F5F1F4F980141E0149653
:103820006C9180810E941311811107C08FEF0F905E
:10383000DF91CF911F910F91089589819091070198
:1038400090FF3AC080628983A0910101B09102018A
:10385000E0910301F0910401980141E014966C910C
:103860008081DBD9882311F38FED9EE20197F1F778
:1038700000C0000080911C01882301F180E8898349
:1038800080911D01882319F0898180638983A0912B
:103890000101B0910201E0910301F091040198014E
:1038A00041E057966C918081B8D9882309F4BECF46
:1038B00010920E0180E0BBCF8F7DC5CF1982E0CF83
:1038C000CF93DF930F92CDB7DEB769839E012F5F51
:1038D0003F4F41E0682F82E5A0D90F90DF91CF9153
:1038E0000895EF92FF920F931F93CF93DF93CDB77D
:1038F000DEB768970FB6F894DEBF0FBECDBF7C0170
:1039000080914001909141018F3F980709F072C06A
:103910000E947E119C0190934101809340012F3FB2
:103920003F4FC1F465E580EFCBDF85E38A95F1F782
:10393000000060E08BEFC4DF95E39A95F1F700009B
:103940000E947E11909341018093400125E32A95C6
:10395000F1F70000809140019091410183319F4F28
:1039600071F461E08BEFACDF85E38A95F1F700003D
:1039700065E580EFA5DF95E39A95F1F7000080916A
:103980004001909141019E7F019709F0A8C063E03A
:103990008EEF96DF25E32A95F1F70000AE01475F31
:1039A0005F4F68E080E00E945A118FE193E0019739
:1039B000F1F700C00000AE014F5F5F4F68E080E0AC
:1039C0000E945A1148E050E0BE016F5F7F4FCE0168
:1039D00009960E94882C892BD9F58F859889892B87
:1039E00009F074C08EE39EE09093420280934102FE
:1039F00086E073C08B30984109F48ACF8E010F5E48
:103A00001F4FA8016091000180E00E945A11B80187
:103A1000882389F0F80180910001A801480F511D09
:103A20008FEF90E04E175F0779F4992309F470CF78
:103A30008F3F09F46DCFE0914102F091420230973F
:103A400079F1C70109952CC02191922B8223EACFED
:103A50008FE193E00197F1F700C09FCF419709F004
:103A600051C081E59FE018C082312FEF920759F1D4
:103A700058F4833021E0920719F18330934009F024
:103A800041C081E99EE008C083319F4FD9F580E4B1
:103A90009FE002C082EF9DE090934202809341023A
:103AA00068960FB6F894DEBF0FBECDBFDF91CF9101
:103AB0001F910F91FF90EF9008958BED94E1ECCF63
:103AC00080EA9DE0E9CF8BEF9EE0E6CF83E19EE0C8
:103AD000909342028093410288E08093000180919C
:103AE000400190914101813021E09207C9F208F034
:103AF000BBCF8330910571F208F0B0CF0097E9F2A7
:103B0000019771F28BE098E190934101809340011D
:103B10001092420210924102C3CF1F93CF93DF93C2
:103B20000F92CDB7DEB7182F80911D01811729F1B3
:103B3000112341F180E3898380910E01882319F0DC
:103B400089818260898380911C01882319F0898191
:103B500080688983A0910101B0910201E091030185
:103B6000F09104019E012F5F3F4F41E057966C9109
:103B7000808153D8811110931D010F90DF91CF9157
:103B80001F9108951982D8CFEF92FF921F93CF9380
:103B9000DF930F92CDB7DEB7182F807719F081E051
:103BA000898303C01123F1F01982A0910101B09122
:103BB0000201E0910301F0910401CE0101967C0124
:103BC0009C0141E055966C91808127D89701811125
:103BD0000BC0109207010F90DF91CF911F91FF90C2
:103BE000EF90089580E4DCCF89818F7B8093090179
:103BF00016FF33C0198215FD03C089818260898355
:103C000014FD03C089818160898313FD03C089810C
:103C100088638983A0910101B0910201E0910301C1
:103C2000F091040141E056966C9180810E940D163E
:103C3000882379F2812F877F11F080E06EDF109367
:103C40000701109210019FEF20E782E09150204081
:103C50008040E1F700C00000BECF84E08983CBCF75
:103C6000CF93DF930F92CDB7DEB790911E019923CA
:103C7000F1F0882341F182E08983A0910101B091A4
:103C80000201E0910301F09104019E012F5F3F4F7B
:103C900041E051966C9180810E940D16882319F0A5
:103CA000898180930D010F90DF91CF9108959091BC
:103CB00007019923C1F3882331F080910D0181110F
:103CC000F2CF81E0D9CF1982D8CF1F93CF93DF9362
:103CD000D82F80911E01C0E0811120C08091070182
:103CE0008823C1F010910C018D2380930C01C1E059
:103CF0008D1301C0C0E0C195809110018D2B61F042
:103D000081E0AEDFDD2351F00E944716882331F0B9
:103D100010930C01CFEF02C080E0A2DF8C2FDF9167
:103D2000CF911F9108951F93CF93DF9300D0CDB70C
:103D3000DEB7182F81111FC080E0EFDE198287E007
:103D40008A83A0910101B0910201E0910301F091F9
:103D500004019E012F5F3F4F42E055966C91808198
:103D60000E940D168111109210010F900F90DF919B
:103D7000CF911F91089581E0D0DE80E289831130D8
:103D800049F51A8285E090E04ADC8A8120E4829F2E
:103D9000C001112487608A83A0910101B0910201C2
:103DA000E0910301F09104019E012F5F3F4F42E03B
:103DB00055966C9180810E940D168823B1F288E09F
:103DC000809307011092090181E08093100180E047
:103DD0007CDFCBCF163018F481E08A83D3CF153146
:103DE00028F482E08A838AE090E0CECF83E08A8361
:103DF00084E190E0C9CF0F931F93CF93DF930F928D
:103E0000CDB7DEB78C0180910701811107C08FEF1C
:103E10000F90DF91CF911F910F91089580911E0116
:103E20008111F5CF80911001882351F0C8010197CD
:103E3000889720F4802F77DF80E0EACF80E073DF7F
:103E4000B801093E134010F068EE73E0643071056C
:103E500010F464E070E008EE13E0C8010E94AA2BA1
:103E600061506983A0910101B0910201E0910301C9
:103E7000F09104019E012F5F3F4F41E011966C913C
:103E800080810E940D16882309F4C1CF698170E0FA
:103E90006F5F7F4FC8010E94BE2B70930B01609330
:103EA0000A01CB0196958795BADBC6CF1F920F9278
:103EB0000FB60F9211242F933F934F935F936F93FD
:103EC0007F938F939F93AF93BF93EF93FF93CF9382
:103ED000DF9300D000D0CDB7DEB783B78E7F83BF2E
:103EE000E4E6F0E08081807180830E94ED0BE4E0E5
:103EF000FBE72591359145915491E0E0FBE78591F1
:103F00009591A591B49189839A83AB83BC83BC01BD
:103F1000CD010E94AA11E9E6F0E08081877F8083CD
:103F2000E9980F900F900F900F90DF91CF91FF9134
:103F3000EF91BF91AF919F918F917F916F915F9121
:103F40004F913F912F910F900FBE0F901F9018959A
:103F50001F921FB61F9211248F939F93AF93BF930D
:103F60008091B2029091B302A091B402B091B502D7
:103F70000196A11DB11D8093B2029093B302A0934C
:103F8000B402B093B502BF91AF919F918F911F90F2
:103F90001FBE1F9018951F920F920FB60F921124FB
:103FA0002F933F934F935F936F937F938F939F9341
:103FB000AF93BF93EF93FF938091B900887F8833CD
:103FC00009F461C0B8F5803291F168F5883009F4E0
:103FD00052C0A0F4882309F472C0FF91EF91BF9101
:103FE000AF919F918F917F916F915F914F913F9191
:103FF0002F910F900FBE0F901F9018958031D9F11F
:10400000883159F790919A0280919902981750F54A
:10401000E0919A0281E08E0F80939A02F0E0E758D7
:10402000FD4F80812AC0883269F38033B1F68093D6
:10403000780207C0803579F138F48034C1F18834D2
:1040400061F60E943A10C9CF883539F6E0919A029C
:1040500081E08E0F80939A028091BB00F0E0E758D8
:10406000FD4F80838091ED028111EBCF81E0809341
:10407000EC0284EA0BC080919B028093BB0085EC2C
:104080008093BC00AACF8093780285EC8093BC001B
:104090001092EE02A2CFE0919A0281E08E0F8093FF
:1040A0009A028091BB00F0E0E758FD4F8083909129
:1040B0009A0280919902981710F385E8E1CF109247
:1040C0007802BFCF8F9381E080931F058F91189561
:1040D000CDB7DEB7C555D1090FB6F894DEBF0FBE18
:1040E000CDBF44E051E061E070E08EE196E00E94D7
:1040F000232F80912A0690912B06A0912C06B09137
:104100002D060897A105B10540F444E051E060E0B8
:1041100070E08EE196E00E94232F80912606909118
:104120002706A0912806B09129068531944DA24A10
:10413000B105C9F044E051E062E17DE08EE196E036
:104140000E94782C10922A0610922B0610922C06B0
:1041500010922D0642E450E066EB7DE082EC96E0A2
:104160000E94782C0CC080912A0690912B06A09179
:104170002C06B0912D060297A105B10558F3809148
:104180001F06873009F060C08FE080931F06809182
:104190002A0690912B06A0912C06B0912D0604972B
:1041A000A105B10540F448E550E06EE57DE08AE602
:1041B00096E00E94782C80912A0690912B06A0917F
:1041C0002C06B0912D0686309105A105B10508F0A9
:1041D00040C01092210610920407E0911F06F0E003
:1041E000E650FE4F8081823031F48091470691E0A5
:1041F00089278093470648E150E06EEF7DE08AE032
:1042000097E00E94782C80912A0690912B06A0912D
:104210002C06B0912D060C97A105B10550F58CE048
:1042200090E0A0E0B0E080932A0690932B06A09344
:104230002C06B0932D0644E051E061E070E08EE181
:1042400096E00E94332F15C0883009F0A0CF8DE092
:104250009CCF86309105A105B10509F4BCCF89300A
:104260009105A105B10508F4B8CF0C97A105B105DA
:1042700010F2789485B5826085BD85B5816085BD75
:1042800080916E00816080936E00109204070E94FE
:10429000ED0B80911E06823061F0833009F4A9C3D2
:1042A000813049F481E79CE19093D2048093D1045A
:1042B00002C00E94FF0B80911E06833009F0C3C329
:1042C000809120068130C9F41092EE0281E0809343
:1042D000ED021092EC02449A459A8091B9008E7FCB
:1042E0008093B9008091B9008D7F8093B90088E1F7
:1042F0008093B80085E48093BC00809120068330D1
:1043000031F480911E06813011F40E94FF0BE09180
:104310001F06F0E0E650FE4F8081823009F0E8C1D0
:1043200010912006113009F0A4C3789480E88983A5
:10433000A0910101B0910201E0910301F09104010B
:104340009E012F5F3F4F41E055966C9180810E9406
:104350000D16882309F463C03FEF49E658E1315058
:1043600040405040E1F700C000001982A0910101D7
:10437000B0910201E0910301F09104019E012F5FD1
:104380003F4F41E055966C9180810E940D16882325
:1043900009F445C010920F018FEF809307018093BD
:1043A000050180930601809308012FEF3FEF3093C2
:1043B0000B0120930A0180930C0180930E0110934E
:1043C000090110931C0110921D011092110110920D
:1043D0001001E2E1F1E08AE0DF011D928A95E9F740
:1043E00010921E0110921F011092210110922001C3
:1043F000A2D9811114C0CDD9811111C08AE290E0F7
:104400000ED981110CC082E390E0F5DC811107C068
:104410005CDC811104C0EAD9811101C0B5DB88E7F9
:10442000B3DB89D9B6D988E750DC80911F018111AF
:1044300092C0F12CE12CB6EFCB2EBBE0DB2E860137
:104440000E191F090131110510F000E110E0F7010C
:10445000E052FF4FDE011196CD01800F911F8A17A8
:104460009B0709F002C3AE014F5F5F4FB801C70160
:1044700017D9811170C080910701882309F46BC09E
:104480009E2D8F2D23969FAF8EAF2397E091030132
:10449000F091040120853185C8018E0D911D2817EA
:1044A000390708F458C0A0910101B09102019E01A2
:1044B0002F5B3F4F42E05B966C9180810E940D160E
:1044C000882309F448C0A0910101B0910201E09154
:1044D0000301F09104019E012F5D3F4F402F58963C
:1044E0006C9180810E9413118823A9F1A801BE015B
:1044F0006F5D7F4FCE0101960E94882C892B59F564
:10450000E00EF11EB6EFEB16BBE0FB0608F497CF0A
:1045100084E022968FAF229723961FAE2397A09117
:104520000101B0910201E0910301F09104019E01AB
:104530002F5B3F4F42E05D966C9180810E940D168B
:10454000882349F081E080931F0188EC90E09093EC
:104550002101809320018CE0E9E2F2E0DE01119676
:1045600001900D928A95E1F719A285E08AA38E0148
:104570000F5D1F4FA80162E070E086E192E090D8E5
:10458000811110C0AE014F5F5F4F6CE070E081ECB5
:104590009AE086D8811106C08EE190E09093F802EF
:1045A0008093F70280911E01813009F180911F01F3
:1045B0008823E9F080E054DB19D9809120019091A3
:1045C000210119DC1982E0910301F09104019E019F
:1045D0002F5F3F4F41E063E280810E940D168823E8
:1045E00031F081E080931E013BDB0E94471682E0A0
:1045F00089838AEC8A8383EE8B83F9E0EF2EEC8249
:10460000AE014F5F5F4F64E070E088E690E048D80D
:1046100083EA89838A838B838C838D838E838F83C4
:10462000888789878A87AE014F5F5F4F6AE070E0B5
:1046300087EA9AE035D8A8EDFA2EF982AE014F5FED
:104640005F4F61E070E086EB9AE02AD8E6E3F2E0A3
:10465000DE01919601900D92EA94E1F7A80169E0DC
:1046600070E088EB94E01CD8F982AE014F5F5F4F99
:1046700061E070E080EB98E013D8F982AE014F5F03
:104680005F4F61E070E08DE397E00AD844E050E0CE
:104690006BE870E0C8010E949E2CA80164E070E005
:1046A00088E99AE00E94501B0E94471680E289A385
:1046B00088E28AA380E38BA388E38CA3A80164E04B
:1046C00070E08EE99AE00E94501B0E94471688E134
:1046D00090E09093F6028093F5020E94471680E1E5
:1046E0008093F9028BE497E1909300038093FF029B
:1046F00090914B061092CF049093D00480911F06A6
:104700002CEE280F2E3068F4263008F0BDC1109230
:10471000FC029093FD0280914A061092FA02809367
:10472000FB02E4E0FBE72591359145915491E0E0EF
:10473000FBE785919591A591B491BC01CD010E94B3
:10474000AA110E9498084B015C012D961CAE1DAE6B
:104750001EAE1FAE2D97DE01AF5BBF4F2596BFAFDC
:10476000AEAF25972496BFAD24976296BFAF6297F0
:1047700025967FAC25970E94980829966CAF7DAF4F
:104780008EAF9FAF2997DC01CB0188199909AA093F
:10479000BB09813C9742A940B10570F10E9498087D
:1047A0004B015C0110927A0060E088E00E94E20A0E
:1047B0001982BE016F5F7F4F80E00E94BB0F69814D
:1047C0006D7F698380E00E948C0F809164008F6E02
:1047D0008093640083B7817F846083BFF89482E014
:1047E0008CBB80916900886080936900E99A83B7E7
:1047F000816083BF789488950E94980829966CAF51
:104800007DAF8EAF9FAF299780911A0690911B06BE
:10481000A0911C06B0911D0629964CAD5DAD6EAD04
:104820007FAD2997481B590B6A0B7B0B80912106A2
:1048300090E0B0E0A0E084179507A607B70708F05E
:104840009ACFE091D104F091D204309719F08EEA1A
:1048500095E0099580912C05882309F44CC100E26C
:1048600015E0F12C8F2D0E942D0BD8012D913D913B
:104870008D01821B930B97FF03C091958195910940
:104880000B970CF433C10E94FF0B8EE08F0D8093C9
:10489000420110922C0580912306882309F440C020
:1048A0006091B2057091B3058091CF049091D004CE
:1048B00044275527481B590B641775074CF4209162
:1048C000AE053091AF0524603093AF052093AE055F
:1048D000861797074CF42091AE053091AF052860FC
:1048E0003093AF052093AE052091B4053091B50506
:1048F000241735074CF44091AE055091AF05426046
:104900005093AF054093AE05821793074CF4809106
:10491000AE059091AF0581609093AF058093AE0591
:1049200080912406882381F08091AE059091AF0597
:104930009C01207333272033310531F48F7C946040
:104940009093AF058093AE05E0911F06F0E0E6502E
:10495000FE4F8081823049F4E091FF02F091000324
:10496000309719F08EEA95E009954CE650E062E444
:1049700075E08EEA95E0CCD7892B09F459C20E94E4
:10498000980860931A0670931B0680931C069093F8
:104990001D064CE0BE016F5D7F4F8EEA95E00E94E0
:1049A0000710892B09F067C28CE6EEEAF5E0A2E475
:1049B000B5E001900D928A95E1F7C090AE05D090D8
:1049C000AF05F12CE12C2D962CAD3DAD4EAD5FAD7C
:1049D0002D97C216D306E406F50621F00E9498082A
:1049E0004B015C012D96CCAEDDAEEEAEFFAE2D9749
:1049F000C2CE21E041E060EA76E881E090E00E94EA
:104A0000830B20E040E06AE08AED92E00E949A0A7F
:104A100020E040E06BE088EC92E00E949A0A20E0FF
:104A200040E06DE086EB92E00E949A0A1092D90273
:104A30001092C70260E08AE00E94460B0E94381183
:104A400087E894E131CC80912206823041F421E064
:104A500041E060E072E18AE790E00E94830B809180
:104A60001E06813009F02CCC2FCC24912D93319649
:104A7000F6CC123009F03CCE62E0809148060E94EC
:104A8000460B8BE19BE030CE803250F046E050E0A8
:104A900064EF71E082E391E02BD786E08093FE0221
:104AA00080911F068A3139F48DE0809325018CE0D6
:104AB0008093260136CE982F9D7F4EE050E062EF26
:104AC0007CE09C3179F04EE050E064EE7CE08B318C
:104AD00049F08D3119F0803209F023CE4EE050E0DC
:104AE00066ED7CE084E291E003D71BCEF394B6E060
:104AF000FB12B8CED0CE809141058823F1F010E0B2
:104B000000E0802F0E94250D811111C0802F0E948E
:104B1000020BF801E35DFA4F20812817190639F0DE
:104B20000E94440D0093420110924105B4CE0F5FE4
:104B30001F4F0431110529F7AECE60910303709128
:104B400004036115710509F454C080913E0181117F
:104B500034C080917A0086FD4CC02091780080910D
:104B60007900382F80910103909102034CE1489F16
:104B7000F001499FF00D1124EB5FFC4F418541117D
:104B800009C044814111C6C03250E6E0220F331FF4
:104B9000EA95E1F74CE1489FF001499FF00D11249F
:104BA000EB5FFC4F3683258301966817790709F47C
:104BB000B8C0909302038093010310923E012091AC
:104BC0000103309102038CE1829FF001839FF00D7D
:104BD0001124EB5FFC4FDE01119601900D928A9536
:104BE000E1F78A8180937C0080917A0080648093D1
:104BF0007A0010E0812F90E02091AD033091AE0358
:104C0000821793070CF492C010E00CE1812F012E63
:104C1000000C990B20910303309104038217930732
:104C20000CF039CE089FF001099FF00D1124EB5FC5
:104C3000FC4FDE011196802F01900D928A95E1F7CD
:104C4000FB812696FFAF2697CF2ED12C8E819F8198
:104C50007601EE0CFF1CF701ED52FB4F9183808330
:104C60002E813F81032E000C440B550BF601EE0FF5
:104C7000FF1FEE0FFF1FE65FF84F82819381092E21
:104C8000000CAA0BBB0B281B390B4A0B5B0BA0813A
:104C9000B181F1D561966CAF7DAF8EAF9FAF61975B
:104CA00020E034E040E050E09ED5BA01A901505820
:104CB00061097109411520E852072FEF6207720759
:104CC00024F440E050E86FEF7FEF411530E85307E0
:104CD0006105710514F04FEF5FE78A85882309F4B9
:104CE00097C02E813F81888599858217930760F44C
:104CF0008091AE059091AF0528893989822B932B3D
:104D00009093AF058093AE05F601E65FF94F4083BF
:104D10001F5F7CCF40E052E0FA01E21BF30B9F01E2
:104D200034CF109202031092010347CFF2E11F9F8C
:104D3000D0011124A155BC4FCC901196ED91FC915E
:104D400012971996DC9022E1289FD001299FB00D7F
:104D50001124A155BC4F1596ED90FC9016971C960A
:104D60002D913D914D915C911F9729962CAF3DAFB0
:104D70004EAF5FAF299750963C912E963FAF2E973E
:104D800000810E94980866966CAF7DAF8EAF9FAF92
:104D90006697AB01BC0129968CAD9DADAEADBFADA4
:104DA0002997481B590B6A0B7B0B2E96EFAD2E975C
:104DB0008E2F90E0B0E0A0E084179507A607B70714
:104DC00028F50C2191E009F490E081E09D1180E04C
:104DD000C82ED12C8091AE059091AF058E219F21D8
:104DE000C816D90611F00E9498088091AE059091DE
:104DF000AF05D194C194D108C826D926CE20DF2092
:104E0000C826D926D092AF05C092AE051F5FF2CE5C
:104E100026968FAD2697823030F0F701E255FA4F93
:104E20005183408375CFF601E255FA4F528370CF1C
:104E30000E94980829966CAF7DAF8EAF9FAF2997DF
:104E400080911A0690911B06A0911C06B0911D0638
:104E500029962CAD3DAD4EAD5FAD2997281B390B82
:104E60004A0B5B0BDA01C90185369105A105B10535
:104E700008F085CD80CC89A19AA1992309F41FC19E
:104E800090910407992309F46FC08E3308F06CC029
:104E9000823309F469C022968FAF229781E023966E
:104EA0008FAF23970E945A0F0E94600F0E949808AC
:104EB0006B017C010E946E0F80FD10C080E00E949B
:104EC000FC0B89EA0E94930A62E062968FAD6297BA
:104ED000972D0E94790F81E00E94FC0B81E0809366
:104EE0001F0580911F05811123C060E387E00E94A8
:104EF0008C0F0E94980829966CAF7DAF8EAF9FAF44
:104F00002997DC01CB018C199D09AE09BF09853FAA
:104F10009140A105B10570F288E08093DF0446E07E
:104F200050E06CE07DE080EE94E0E2D447E014C015
:104F300010921F050E946E0F90E0959587958770DF
:104F40009927079791F28FED94E00E94DA0F482F8E
:104F5000882359F28C3049F2BE016F5F7F4F8FED8D
:104F600094E00E94071020CD98E09093DF048E33E8
:104F7000D8F08E53990B22E3289FB001299F700D22
:104F8000112404E011E0061B170B0233110510F089
:104F900002E310E0625E794FA80180EE94E0C5D490
:104FA000A8014F5F5F4FD8CF823319F0873309F0E4
:104FB00047C068E07DE085EE94E0A3D480E094E211
:104FC000A4EFB0E08093E0049093E104A093E204A6
:104FD000B093E30447E655E463E271E0F0E0E0E01B
:104FE000A1E2A09357008491482788E090E08A01CD
:104FF0009B010170112722273327769567955795D6
:105000004795012B022B032B41F0B0E24B27B3E86D
:105010005B27B8EB6B27BDEE7B27019741F73196F5
:10502000E032F105F1F64093F4045093F5046093F7
:10503000F6047093F7041092E40449E150E08CCF39
:105040008C3361F48CE0E3EDF4E0A0EEB4E0019089
:105050000D928A95E1F74DE050E07ECF8533A1F4C3
:1050600080911E06813049F4809140018093E004D4
:105070001092E10443E050E06FCF8330D9F7809184
:105080003F018093E004F6CF863349F480914201DA
:105090008093E0040E94440D42E050E05DCF48E080
:1050A00050E060E07DE080EE94E022D480911F0625
:1050B0008F3110F41092E30449E050E04DCF8D336E
:1050C00051F46BA170E06F5F7F4F4DE150E0CE0176
:1050D0008496C9D669CC833309F446C068F480331A
:1050E00049F0813309F060CC87E797E79093010896
:1050F000809300080E949B0F843389F08A3309F063
:1051000053CC44E051E062E17DE08EE196E0F0D3E3
:1051100044E051E061E070E08EE196E0DACF80910A
:105120000407811141CC80912C0581113DCC8FEF7A
:10513000809342010E943E0B00E215E08EE0F82EC3
:1051400062E08F2D0E94460B82EF8F0D0E942D0B87
:10515000F801819391938F01F394F4E1FF12F0CF62
:1051600081E080932C0520CC8091040781111CCC18
:1051700080914105811118CC8FEF809342010E94EC
:105180003E0B10E000E0802F0E94250D811110C021
:1051900062E0802F0E94460B802F0E94020B9C0130
:1051A000F801E35DFA4F91E0232B09F490E090833E
:1051B0000F5F1F4F0431110531F781E080934105E6
:1051C000F3CBF5D058F080E891E009F49EEFF6D0EB
:1051D00028F040E851E059F45EEF09C0C0C028C192
:1051E000E92FE07803D168F3092E052AC1F32617C9
:1051F00037074807590738F00E2E07F8E02569F001
:10520000E025E0640AC0EF6307F8009407FADB01C9
:10521000B9019D01DC01CA01AD01EF9341D0D5D0A8
:105220000AD05F91552331F02BED3FE049E450FD6A
:1052300049ECABC10895DF93DD27B92FBF7740E874
:105240005FE31616170648075B0710F4D92FF7D04F
:105250009F938F937F936F9394D1E8E6F0E082D091
:10526000B4D02F913F914F915F9134D1DD2349F01C
:105270009058A2EA2AED3FE049EC5FE3D0785D2741
:1052800095D1DF91A2C09AD040F091D030F021F4B6
:105290005F3F19F05EC05111CCC061C0A7D098F338
:1052A0009923C9F35523B1F3951B550BBB27AA27A7
:1052B00062177307840738F09F5F5F4F220F331F19
:1052C000441FAA1FA9F333D00E2E3AF0E0E830D0E5
:1052D00091505040E695001CCAF729D0FE2F27D0E8
:1052E000660F771F881FBB1F261737074807AB07B6
:1052F000B0E809F0BB0B802DBF01FF2793585F4F2B
:105300002AF09E3F510568F024C093C05F3FECF344
:10531000983EDCF3869577956795B795F7959F5FEF
:10532000C9F7880F911D9695879597F90895E1E043
:10533000660F771F881FBB1F621773078407BA07A2
:1053400020F0621B730B840BBA0BEE1F88F7E095FD
:10535000089597F99F6780E870E060E008959FEFF7
:1053600080EC0895DF93CF931F930F93FF92EF92FA
:10537000DF927B018C01689405C0DA2EEF01AAD080
:10538000FE01E894A5912591359145915591AEF393
:10539000EF010CD1FE019701A801DA9479F7DF90B3
:1053A000EF90FF900F911F91CF91DF91089500240E
:1053B0000A941616170618060906089500240A947A
:1053C00012161306140605060895092E0394000C00
:1053D00011F4882352F0BB0F40F4BF2B11F460FF8F
:1053E00004C06F5F7F4F8F4F9F4F089557FD9058B8
:1053F000440F551F59F05F3F71F04795880F97FB99
:10540000991F61F09F3F79F0879508951216130652
:105410001406551FF2CF4695F1DF08C01616170681
:105420001806991FF1CF86957105610508940895B6
:10543000E894BB2766277727CB0197F908959B014E
:10544000AC0160E070E080E89FE303C1D7DFA8F122
:105450009E57A8F1985160F039F1983070F5092EF7
:105460009927660F771F881F991F0A94D1F71CC0D0
:10547000BB27993F4CF4B111B1E0B62B672F782FC1
:105480008827985FB1F708C0869577956795B79597
:1054900008F4B1609395C1F7BB0F30F411F460FFCD
:1054A00003C06F5F7F4F8F4F3EF49095809570954E
:1054B00061957F4F8F4F9F4F08956894BACFB8CFB3
:1054C00076DF28F07BDF18F0952309F042CF47CF35
:1054D0001124AFCF8BDFA0F3959FD1F3950F50E050
:1054E000551F629FF001729FBB27F00DB11D639F96
:1054F000AA27F00DB11DAA1F649F6627B00DA11D3C
:10550000661F829F2227B00DA11D621F739FB00DE1
:10551000A11D621F839FA00D611D221F749F332751
:10552000A00D611D231F849F600D211D822F762FEA
:105530006A2F11249F5750408AF0E1F088234AF0E7
:10554000EE0FFF1FBB1F661F771F881F9150504033
:10555000A9F79E3F510570F0FCCE6BCF5F3FECF397
:10556000983EDCF3869577956795B795F795E7951F
:105570009F5FC1F7FE2B880F911D9695879597F930
:1055800008959B01AC0167C05058BB27AA270ED0D5
:105590001CCF0DDF30F012DF20F031F49F3F11F40B
:1055A0001EF4DDCE0EF4E095E7FBD3CEE92F1EDF2F
:1055B00080F3BA17620773078407950718F071F430
:1055C0009EF536CF0EF4E0950B2EBA2FA02D0B01D1
:1055D000B90190010C01CA01A0011124FF27591B38
:1055E00099F0593F50F4503E68F11A16F040A22F3E
:1055F000232F342F4427585FF3CF469537952795AF
:10560000A795F0405395C9F77EF41F16BA0B620BAD
:10561000730B840BBAF09150A1F0FF0FBB1F661FF4
:10562000771F881FC2F70EC0BA0F621F731F841F37
:1056300048F4879577956795B795F7959E3F08F05D
:10564000B3CF9395880F08F09927EE0F979587951C
:10565000089524DEBACE3EDFB8CE04D06894B111EE
:10566000E8CE0895CBDE88F09F5790F0B92F9927A8
:10567000B751A0F0D1F0660F771F881F991F1AF05D
:10568000BA95C9F712C0B13081F0D2DEB1E0089509
:10569000CFCE672F782F8827B85F39F0B93FCCF38A
:1056A000869577956795B395D9F73EF49095809553
:1056B000709561957F4F8F4F9F4F0895E89409C073
:1056C00097FB3EF490958095709561957F4F8F4F35
:1056D0009F4F9923A9F0F92F96E9BB279395F6954B
:1056E000879577956795B795F111F8CFFAF4BB0FC9
:1056F00011F460FF1BC06F5F7F4F8F4F9F4F16C02D
:10570000882311F096E911C0772321F09EE8872FB6
:10571000762F05C0662371F096E8862F70E060E072
:105720002AF09A95660F771F881FDAF7880F9695EB
:10573000879597F90895DB018F939F9392D0BF913E
:10574000AF91A29F800D911DA39F900DB29F900DD0
:1057500011240895AA1BBB1B51E107C0AA1FBB1F40
:10576000A617B70710F0A61BB70B881F991F5A95ED
:10577000A9F780959095BC01CD01089597FB072E60
:1057800016F4009406D077FD08D0E4DF07FC05D0BE
:105790003EF4909581959F4F0895709561957F4F48
:1057A0000895A1E21A2EAA1BBB1BFD010DC0AA1F62
:1057B000BB1FEE1FFF1FA217B307E407F50720F07A
:1057C000A21BB30BE40BF50B661F771F881F991FF5
:1057D0001A9469F760957095809590959B01AC013E
:1057E000BD01CF010895052E97FB16F400940FD04C
:1057F00057FD05D0D6DF07FC02D046F408C050950F
:105800004095309521953F4F4F4F5F4F08959095AC
:105810008095709561957F4F8F4F9F4F08956927B1
:1058200096276927782787277827089505D0332377
:1058300012F48A1B9B0B10C0A29FB001B39FC00142
:10584000A39F700D811D1124911DB29F700D811DAC
:105850001124911D0895F0DFB7FF0895821B930B6B
:105860000895EADFA59F900DB49F900DA49F800D31
:10587000911D11240895B7FFF4CFF3DF821B930B22
:1058800008952F923F924F925F926F927F928F92E4
:105890009F92AF92BF92CF92DF92EF92FF920F93BF
:1058A0001F93CF93DF93CDB7DEB7CA1BDB0B0FB6C9
:1058B000F894DEBF0FBECDBF09942A883988488886
:1058C0005F846E847D848C849B84AA84B984C8841C
:1058D000DF80EE80FD800C811B81AA81B981CE0F13
:1058E000D11D0FB6F894DEBF0FBECDBFED010895F8
:1058F000FB01DC0102C005900D9241505040D8F7E9
:105900000895FB01DC0105900D920020E1F7089558
:10591000FB01DC0104C08D910190801921F44150FC
:105920005040C8F7881B990B0895FB01DC0102C0A9
:1059300001900D9241505040D8F70895DC0101C00C
:105940006D9341505040E0F70895B0E0A0E0EAEADE
:10595000FCE2A7CFFE01359661917191AF01809174
:1059600024079091250707D0E2E0B7CF6091240784
:1059700070912507DAC1AFE0B0E0E0ECFCE281CF46
:105980007C013B018A01DC0117961C921E9216973E
:1059900013968C9181FFB0C19AE0292EFE013196B9
:1059A0004F01D70113969C91F30193FD859193FFCD
:1059B00081913F01882309F43AC1853239F493FD7E
:1059C000859193FF81913F01853221F4B70190E0E9
:1059D000ACD1E7CFB12C412C512CBFE1B51538F03B
:1059E0008B3209F188F4803201F1833221F157FCC6
:1059F0003AC020ED280F2A3040F556FE1FC0B29C59
:105A0000200D1124B22E06C08D3291F0803379F72B
:105A1000689450F8F30193FD859193FF81913F01C4
:105A20008111DBCF20C0689451F8689452F8F2CF0E
:105A3000689453F8EFCF689454F8ECCF429C200D53
:105A40001124422E689455F8E5CF8E3229F456FC85
:105A5000EEC0689456F8DECF8C3619F4689457F887
:105A6000D9CF8836B9F2982F9F7D95549330B8F0EE
:105A7000833691F18337B1F1833509F056C0D801EF
:105A8000CD90DD908D016B2D70E056FC02C06FEF64
:105A90007FEFC60134D15C01689457F80AC00C5FEF
:105AA0001F4FEFE3E983AA24A394B12C6401E89487
:105AB00057F853FC04C04A141B0409F008F5342CB1
:105AC000A114B10419F5332009F46BCFB70180E2BA
:105AD00090E02BD13A94F7CFD8018C9189830E5F57
