:10000000F8C6000013C7000011C700000FC70000AA
:100010000DC700000BC7000009C7000007C700009C
:1000200005C7000003C7000001C70000FFC60000AD
:10003000FDC60000FBC60000F9C60000F7C60000C0
:100040000C94E21DF3C600000C941E1FEFC60000C6
:10005000EDC60000EBC60000E9C60000E7C60000E0
:100060000C94051EE3C60000084AD73B3BCE016E48
:1000700084BCBFFDC12F3D6C74319ABD56833DDAFF
:100080003D00C77F11BED9E4BB4C3E916BAAAABE0E
:10009000000000803F00000070000000002400000D
:1000A00000020003000000650054FFEF0000FA802A
:1000B000000B12820001030C30C30E8C8CE914D5A6
:1000C000400213710F8E3883F8833000F883258E39
:1000D000F8833000F883FFFFFFFF0FFEA9D624004E
:1000E00004001A8279A10000003CFFFF000000100C
:1000F000000038836FA2003E03304000000002CAB7
:10010000E3093E80000020000000000000004000E5
:10011000000060000000000C0000000C186E0000E1
:1001200006920A16C0DFFFFF0256FD8CD377FFE16F
:10013000C496E0C5BEAA00000000FFFF0B2B000024
:100140001657000003594000000000001DFA00028D
:100150006C1D000000003FFFDFEB003EB3B6000D5A
:10016000227800002F3C00000000001942B500007A
:1001700039A20000B365D90E9FC91DCF4C343000A1
:100180000000500000003BB67AE80064000000C8A0
:10019000000000000000100000001000FA921000A3
:1001A000225E000D229F0001000000320000FF4689
:1001B000000063D400001000000004D6000004CC4E
:1001C000000004CC0000000010720000004000009D
:1001D000000000000000000600020005000700000B
:1001E00000000064000000000000000000050005A1
:1001F000006400200000000000000000000000007B
:1002000040000000030000000032F8980000FF6585
:100210000000830F0000FF9BFC00000000000000B6
:1002200000000000000000000000000000000000CE
:1002300000000000000000000000000000000000BE
:100240000000000010004000000000000006000058
:10025000B26A000200000001FB830068000000D9C0
:10026000FC007CF1FF8300000000006500000064DA
:1002700003E800640028000000250000000016A02C
:1002800000000000100000001000002F000000001F
:1002900001F40000100000280000FFFF4581FFFF6F
:1002A000FA72000000000000000000440005000594
:1002B000BAC6004778A2000000010000000000005C
:1002C0000600000000140000254D002F706D000096
:1002D00005AE000C02D0000000000000000000008D
:1002E000000000000000001B0000000000000000F3
:1002F0000000000000000064000000080000000092
:1003000000000000000000000000000000000000ED
:1003100000000000000000000000000000000000DD
:1003200000000000000000000000000000000000CD
:1003300000000000000000000000000000000000BD
:1003400000000000000000000000000000000000AD
:10035000000000000000001B000000000000000082
:100360000000000E000E00000AC70004000000009C
:100370000032FFFFFF9C00000B2B0000000200007A
:10038000000100000064FFE5000000000000000024
:10039000000000000000000000010000000000015B
:1003A000000000000000000180000001800000014A
:1003B0008000002426D3000000000000000000069A
:1003C00000100096003C000000000000000000004B
:1003D0000000000000000C0A4E68CDCF77095016CF
:1003E0006759C619CE82000000000000000000001E
:1003F000000000000000000000000000000017D70F
:100400008400030000000000000000000000C7930B
:100410008F9D1E1B1C190000000000000000000042
:1004200000000000000000000000000000000203C7
:1004300018850000400000000003000000030000D9
:10044000000000000000400000000000000000006C
:10045000000000000000000000000000000000009C
:10046000000000000000000000000000000000008C
:1004700000000000000000000000677DDF7E729039
:100480002E554CF6E6880000000000000000000039
:10049000000000000000D8DCB4B8B0D8B9ABF3F865
:1004A000FAB3B7BB8E9EAEF132F51BF1B4B8B08093
:1004B00097F1A9DFDFDFAADFDFDFF2AAC5CDC7A989
:1004C0000CC92C97F1A989264666B28999A92D55A0
:1004D0007DB0B08AA896365676F1BAA3B4B280C081
:1004E000B8A89711B28398BAA3F0240844106418EE
:1004F000B2B9B49883F1A329557DBAB5B1A383935A
:10050000F0002850F5B2B6AA839328547CF1B9A321
:10051000829361BAA2DADEDFDB819AB9AEF5606858
:1005200070F1DABAA2DFD9BAA2FAB9A38292DB31AA
:10053000BAA2D9BAA2F8DF85A4D0C1BBAD83C2C527
:10054000C7B8A2DFDFDFBAA0DFDFDFD8D8F1B8AAF3
:10055000B38DB4980D355DB2B6BAAF8C96198F9F36
:10056000A70E161EB49AB8AA872C547CBAA4B08AD7
:10057000B691325676B28494A4C808CDD8B8B4B037
:10058000F19982A82D557D98A80E161EA22C547C98
:1005900092A4F02C5078F184A898C4CDFCD80DDB3F
:1005A000A8FC2DF3D9BAA6F8DABAA6DED8BAB2B644
:1005B0008696A6D0F3C841DAA6C8F8D8B0B4B882F7
:1005C000A892F52C548898F135D9F418D8F1A2D016
:1005D000F8F9A884D9C7DFF8F883C5DADF69DF83C3
:1005E000C1D8F40114F1A8824EA884F311D182F588
:1005F000D992289788F109F41C1CD884A8F3C0F973
:10060000D1D99782F129F40DD8F3F9F9D1D982F42F
:10061000C203D8DEDF1AD8F1A2FAF9A88498D9C7A4
:10062000DFF8F8F883C7DADF69DFF883C3D8F401AD
:1006300014F198A8822EA884F311D182F5D9925092
:100640009788F109F41CD884A8F3C0F8F9D1D99798
:1006500082F149F40DD8F3F9F9D1D982F4C403D861
:10066000DEDFD8F1AD8898CCA809F9D98292A8F537
:100670007CF1883ACF944A6E98DB6931DAADF2DECC
:10068000F9D88795A8F221D1DAA5F9F417D9F1AEF6
:100690008ED0C0C3AE82C684C3A88595C8A588F293
:1006A000C0F1F4010EF18E9EA8C63E56F554F188B5
:1006B00072F40115F19845856EF58E9E0488F1421D
:1006C000985A8E9E068869F4011CF1981E1108D074
:1006D000F504F11E970202983625DBF9D985A5F3BA
:1006E000C1DA85A5F3DFD88595A8F309DAA5FAD88C
:1006F0008292A8F578F1881A849F26889821DAF4E6
:100700001DF3D8879F39D1AFD9DFDFFBF9F40CF3A4
:10071000D8FAD0F8DAF9F9D0DFD9F9D8F40BD8F350
:10072000879F39D1AFD9DFDFF41DF3D8FAFCA86970
:10073000F9F9AFD0DADEFAD9F88F9FA8F1CCF398A7
:10074000DB45D9AFDFD0F8D8F18F9FA8CAF388096D
:10075000DAAF8FCBF8D8F2AD978D0CD9A5DFF9BA07
:10076000A6F3FAF412F2D8950DD1D9BAA6F3FADAB3
:10077000A5F2C1BAA6F3DFD8F1BAB2B68696A6D072
:10078000CAF349DAA6CBF8D8B0B4B8D8AD84F2C071
:10079000DFF18FCBC3A8B2B68696C8C1CBC3F3B086
:1007A000B48898A821DB718D9D71859521D9ADF212
:1007B000FAD88597A828D9F408D8F28D29DAF40553
:1007C000D9F285A4C2F2D8A88D9401D1D9F411F23E
:1007D000D88721D8F40AD8F28498A8C801D1D9F4CE
:1007E00011D8F3A4C8BBAFD0F2DEF8F8F8F8F8F8E7
:1007F000F8F8D8F1B8F6B5B9B08A95A3DE3CA3D91C
:10080000F8D85CA3D9F8D87CA3D9F8D8F8F9D1A541
:10081000D9DFDAFAD8B18530F7D9DED8F830ADDAD9
:10082000DED8F2B48C99A32D557DA083DFDFDFB530
:1008300091A0F629D9FBD8A0FC29D9FAD8A0D0518B
:10084000D9F8D8FC51D9F9D879D9FBD8A0D0FC79FE
:10085000D9FAD8A1F9F9F9F9F9A0DADFDFDFD8A1DF
:10086000F8F8F8F8F8ACDEF8ADDE8393AC2C547CE5
:10087000F1A8DFDFDFF69D2CDAA0DFD9FADB2DF857
:10088000D8A850DAA0D0DED9D0F8F8F8DB55F8D8DF
:10089000A878DAA0D0DFD9D0FAF8F8F8F8DB7DF83C
:1008A000D89CA88CF530DB38D9D0DEDFA0D0DEDFD5
:1008B000D8A848DB58D9DFD0DEA0DFD0DED8A868C2
:1008C000DB70D9DFDFA0DFDFD8F1A888902C547C63
:1008D00098A8D05C38D1DAF2AE8CDFF9D8B087A80E
:1008E000C1C1B188A8C6F9F9DA36D8A8F9DA36D87C
:1008F000A8F9DA36D8A8F9DA36D8A8F9DA36D8F766
:100900008D9DADF818DAF2AEDFD8F7ADFA30D9A484
:10091000DEF9D8F2AEDEFAF983A7D9C3C5C7F188EC
:100920009BA77AADF7DEDFA4F8849408A797F300BD
:10093000AEF29819A488C6A39488F632DFF28393A6
:10094000DB09D9F2AADFD8D8AEF8F9D1DAF3A4DE00
:10095000A7F1889B7AD8F38494AE19F9DAAAF1DF6B
:10096000D8A881C0C3C5C7A39283F628ADDED9F845
:10097000D8A350ADD9F8D8A378ADD9F8D8F8F9D123
:10098000A1DADEC3C5C7D8A18194F818F2B089AC4A
:10099000C3C5C7F1D8B8B4B09786A8319B069907EC
:1009A000AB9728889BF00C201440B0B4B8F0A88A0C
:1009B0009A285078B79BA8295179247059446938EE
:1009C000644831F1BBAB88002C547CF0B38BB8A8E1
:1009D00004285078F1B088B49726A85998BBABB3D7
:1009E0008B02264666B0B8F08A9CA82951798B29DB
:1009F00051798A2470598B2058718A4469388B390F
:100A000040688A6448318B30496088F1AC002C54CE
:100A10007CF08CA804285078F1889726A85998ACC7
:100A20008C02264666F0899CA82951792470594485
:100A30006938644831A98809205970AB1138406978
:100A4000A8193148608CA83C415C207C00F1879853
:100A50001986A86E767EA999882D557DD8B1B5B92D
:100A6000A3DFDFDFAED0DFAAD0DEF2ABF8F9D9B07A
:100A700087C4AAF1DFDFBBAFDFDFB9D8B1F1A3973D
:100A80008E60DFB084F2C8F8F9D9DED89385F14AD8
:100A9000B183A308B5839A0810B79F10D8F1B0BAF4
:100AA000AEB08AC2B2B68E9EF1FBD9F41DD8F9D988
:100AB0000CF1D8F8F8AD61D9AEFBD8F40CF1D8F848
:100AC000F8AD19D9AEFBDFD8F416F1D8F8AD8D61C9
:100AD000D9F4F4ACF59C9C8DDF2BBAB6AEFAF8F4E1
:100AE0000BD8F1AED0F8AD51DAAEFAF8F1D8B9B111
:100AF000B6A3839C08B9B1839AB5AAC0FD3083B769
:100B00009F10B58B93F20202D1ABDADED8F1B08040
:100B1000BAABC0C3B284C1C3D8B1B9F38BA391B689
:100B200009B4D9ABDEB0879CB9A3DDF1B38B8B8B55
:100B30008B8BB087A3A3A3A3B28BB69BF2A3A3A373
:100B4000A3A3A3A3A3A3A3F1B087B59AA3F39BA3E5
:100B5000A3DCBAACDFB9A3A3A3A3A3A3A3A3A3A3BA
:100B6000A3A3A3A3A3A3D8D8D8BBB3B7F1AAF9DA98
:100B7000FFD9809AAA28B48098A720B79787A8663B
:100B800088F07951F1902C870CA781976293F071CE
:100B9000716085940129517990A5F1284C6C870CDE
:100BA00095188578A38390284C6C886CD8F3A28222
:100BB00000F210A8921980A2F2D926D8F188A84D87
:100BC000D948D896A83980D93CD89580A839A68626
:100BD00098D92CDA87A72CD8A8899519A980D93853
:100BE000D8A88939A980DA3CD8A82EA83990D90C80
:100BF000D8A8953198D90CD8A809D9FFD801DAFF1F
:100C0000D89539A9DA26FFD890A80D8999A810801F
:100C10009821DA2ED88999A83180DA2ED8A886961C
:100C20003180DA2ED8A8873180DA2ED8A88292F3C4
:100C30004180F1D92ED8A882F31980F1D92ED8821B
:100C4000ACF3C0A28022F1A62EA72EA92298A82933
:100C5000DAACDEFFD8A2F22AF1A92E8292A8F231F4
:100C600080A696F1D900AC8C9C0C30ACDED0DEFFB7
:100C7000D88C9CACD010ACDE8092A2F24C82A8F151
:100C8000CAF235F19688A6D900D8F1FF0E0C0D0FE7
:100C900008FFFF09050406070A0B0F0C0D0E08FFDD
:100CA000FF09050406070A0B0F0C0D0E0908FFFFCC
:100CB000050406070A0B020F00000001010115D40C
:100CC000A20006000000FFFFFFFFFFFFFFFFFFFF86
:100CD000FFFFFFFFFFFFFF00FF00FF00FF00FF001F
:100CE000FF0040404005B80B04160D0E0F33280BD3
:100CF000504F525151FFFFFFFFFFFF00FF00FF0069
:100D0000FF000D0080000EFF000010FFFF000F002D
:100D100000FF09FF45000000000000000000000087
:100D200000000000000000000000000000000000C3
:100D300000000000000000000000000000000000B3
:100D400000000000000000000000000000000000A3
:100D50000000000000000000000000000000000093
:100D60000000000000000000000000000000000083
:100D70000000000000000000000000000000000073
:100D80000000000000000000000000000000000063
:100D90000000000000000000000000002126010704
:100DA00000000000756E6F000000000024002700A6
:100DB0002A00000000002300260029000000000097
:100DC000250028002B000404040404040404020287
:100DD00002020202030303030303010204081020BA
:100DE0004080010204081020010204081020FF08BE
:100DF0000F0C11241FBECFEFD8E0DEBFCDBF12E035
:100E0000A0E0B1E0ECE8F2E502C005900D92AA3353
:100E1000B107D9F727E0AAE3B2E001C01D92A431DF
:100E2000B207E1F70E94BE1F0C944429E9C8F89468
:100E300088E198E00FB6F894A895809360000FBE03
:100E400090936000FFCFCF93DF9300D000D0CDB759
:100E5000DEB72FB7F8948091100790911107A091F9
:100E60001207B09113072FBF9C01AD0187E0220F3D
:100E7000331F441F551F8A95D1F7CA01B9012DE7C9
:100E800030E040E050E00E949828CA01B9010F907C
:100E90000F900F900F90DF91CF910895CF93DF9334
:100EA00000D000D0CDB7DEB73FB7F89480911007DF
:100EB00090911107A0911207B091130726B5A89B36
:100EC00005C02F3F19F00196A11DB11D3FBFBA2FDC
:100ED000A92F982F8827820F911DA11DB11D9C015C
:100EE000AD0162E0220F331F441F551F6A95D1F7F1
:100EF000CA01B9010F900F900F900F90DF91CF9121
:100F00000895CF92DF92EF92FF92CF93DF9300D0BC
:100F100000D000D0CDB7DEB76B017C01BFDF6D83A1
:100F20007E83BCDF69837A838B839C8389819A81EA
:100F30002D813E81821B930B883E934090F381E08C
:100F4000C81AD108E108F1082D813E8128513C4F93
:100F50003E832D83C114D104E104F10411F72696D8
:100F60000FB6F894DEBF0FBECDBFDF91CF91FF90DB
:100F7000EF90DF90CF900895AF92BF92DF92EF9203
:100F8000FF920F931F93CF93DF93FC01DA018CE163
:100F900090E0EB019983888384E08083D0900F07F1
:100FA00064E371E05F0130E020E041E050E0EB01FC
:100FB0008991BE018F3F09F44DC08A0102C0000F24
:100FC000111F8A95E2F78D919C911197082319239F
:100FD000E180F280CA01022E02C0880F991F0A9494
:100FE000E2F70115110559F18E299F29928381831A
:100FF0002D1580F590912A069B3131F5243020F58E
:10100000C9018251924FEC018881EA0102C0CC0FE4
:10101000DD1F8A95E2F7CE01ED90FC9011978E21AD
:101020009F21EE24E394F12C012B11F4E12CF12CFF
:10103000E82AF92A81E0EF2851F480E008C0809581
:1010400090958E219F21D2CF81E0012BB1F3819524
:10105000E50188872F5F3F4FDFEFAD1ABD0A2E30C5
:10106000310509F0A4CFCC91CF7088E0CB3020F4CB
:10107000D0E0C95EDD4F888183831A962D913C9123
:101080001B9780912A068B3109F056C019968C91D6
:1010900019978058868387EF91E02F3F3F4711F4DF
:1010A00084E891E0958B848B8DE7878380912A0675
:1010B0008F3119F08A3109F05EC0818192811296D8
:1010C0002C911297233308F452C08061928381835C
:1010D0008181928113962C911397233308F449C090
:1010E00080629283818312968C91129784871396E3
:1010F0008C911397858715968C91159780588483CA
:1011000017969C9117979058958319968C911997DB
:10111000805886831B968C918058878320912A065D
:101120002A3169F1DF91CF911F910F91FF90EF90DC
:10113000DF90BF90AF9008958D3119F0803209F0A3
:10114000B5CF19969C91199780E8891B8683818178
:1011500092812F3F3F4749F48062928381831296A8
:101160009C91129780E8891BA0CF8F7DF6CF8F7E50
:10117000ADCF8F7DB6CF80E884838583D3CF909524
:10118000958380958783CECFCF93DF93FC01DA01DF
:1011900086E090E0EB019983888385E08083159653
:1011A0002C911597822F922F990F990B97FD0796E7
:1011B00053E0959587955A95E1F7828317962C9180
:1011C0001797822F922F990F990B919581959109DD
:1011D00097FD079643E0959587954A95E1F78383B8
:1011E0001B962C911B97822F922F990F990B97FD8D
:1011F000079633E0959587953A95E1F7848319969C
:101200002C911997822F922F990F990B97FD079682
:1012100023E0959587952A95E1F785832D913C915B
:101220001197818134FF14C08160818381812D9168
:101230003C91119735FF0EC08260818381812D9191
:101240003C9136FF09C088608183DF91CF9108957A
:101250008E7FEBCF8D7FF1CF877FF6CFCF92DF925E
:10126000EF92FF920F931F93CF93DF93EC016B01EB
:10127000BA01A901F801C70120812630E0F42097C6
:1012800071F000271127041B150B601771073CF440
:1012900031962E0D3F2D311DD9011396CC93C114DB
:1012A000D10449F04617570734F42081820F911D6D
:1012B000DC011396CC92DF91CF911F910F91FF909B
:1012C000EF90DF90CF9008958F929F92AF92BF9250
:1012D000CF92DF92EF92FF920F931F93CF93DF9302
:1012E0000F92CDB7DEB76C015A0189E090E0DB01C7
:1012F0008D939C9386E0F6018083EBE5F6E050E069
:1013000040E080E061E070E091919923A1F0D50187
:101310008D909C909B01042E02C0220F331F0A94D3
:10132000E2F728213921232B31F0D601A80FB11D76
:1013300013969C938F5F4F5F5F4F4031510509F0CB
:101340005EC089838090110690901206F501448159
:10135000558160916E0670E080916D0676018E0178
:101360000F5F1F4F940190E079DFD50116964D91E4
:101370005C916091700670E080916F06940190E03E
:101380006DDFF501408551856091720670E08091B6
:101390007106940190E062DFD5011A964D915C913F
:1013A0006091740670E080917306940190E056DFBE
:1013B00080900F0690901006F501428150E06091F8
:1013C0006B0670E0940190E080E048DFD501139651
:1013D0004C9150E060916C0670E0940190E080E0E8
:1013E0003DDF0F90DF91CF911F910F91FF90EF9014
:1013F000DF90CF90BF90AF909F908F9008958630F0
:1014000009F082CF9ECFCF93DF9300D000D0CDB72D
:10141000DEB7DB019C010E94C12869837A838B833C
:101420009C83DC01CB019F77AA27BB2781159044C1
:10143000A105B105D1F080E090E4A0E0B0E0298101
:101440003A814B815C81820F931FA41FB51F2FE04F
:10145000B595A795979587952A95D1F70F900F90F9
:101460000F900F90DF91CF91089580E090E0DC0124
:10147000E6CF8EBD0DB407FEFDCF0895DC01862FAB
:1014800090E0603100F5E0912A06F0E0E251FE4F75
:101490002081213049F4693038F0FD01E80FF91F4F
:1014A000E45AFF4F8081089581E090E002C0880FE8
:1014B000991F6A95E2F72D913C9182239323892B02
:1014C000E1F480E0089520915506633168F0FC0155
:1014D0007097EE0FFF1FEA0FFB1F81E040815181E3
:1014E0002417150670F70895FD01E80FF91F3E97C0
:1014F00081E090812917B8F3E4CF80E4F4CF7F92A4
:101500008F929F92AF92BF92CF92DF92EF92FF9213
:101510000F931F93CF93DF938C017B01942E852E25
:1015200087E0F80180834DECA42E46E0B42E53E111
:10153000C52E56E0D52ED0E0C0E0F50181915F01C7
:10154000882389F130EB732E813011F420E9722E5B
:101550006D2F892D982D92DF8695F6019081981731
:1015600011F1F50123A59589F6018083EC2FF0E0B8
:1015700034E0C39FD0011124A00FB11F372D329545
:101580003F7011963C931197722A12967C92129793
:1015900013969C933196EE0FFF1FEE0FFF1FE00F87
:1015A000F11F8083CF5F8FEFC81AD80ADF5FD63173
:1015B00021F6E4E0CE9FC00111240196F70191834A
:1015C0008083DF91CF911F910F91FF90EF90DF907B
:1015D000CF90BF90AF909F908F907F90089590E0B4
:1015E000FC01E652F24F2491FC01EA53F24FE491E0
:1015F000EE2359F0F0E0EE0FFF1FEE54F24FA591ED
:10160000B491EC91E22381E009F480E090E0089548
:10161000806480937C0080917A00806480937A005B
:1016200080917A0086FDFCCF8091780090917900BE
:10163000089580917A0086FDFCCF81E080931001AF
:101640000895CF93DF9390E0FC01E652F24F24918E
:101650008A53924FFC0184918823D1F090E0880F47
:10166000991FFC01E855F24FA591B491FC01E45497
:10167000F24FC591D491613071F49FB7F8948C9179
:10168000209582238C938881282328839FBF789478
:10169000DF91CF910895623051F49FB7F8943C9157
:1016A000822F809583238C93E8812E2BEECF8FB7EA
:1016B000F894EC912E2B2C938FBFE9CFCF92DF9231
:1016C000EF92FF92CF936B017C01C42F60E08BE01F
:1016D000B8DF62E08CE0B5DF60E08DE0B2DFE4EE21
:1016E000FDE08491E0EDFDE0E491EE2369F0F0E0AF
:1016F000EE0FFF1FE454F24FA591B4919FB7F894F9
:10170000EC91E82BEC939FBF60E08AE09ADFC11474
:1017100082E1D8068AE7E806F104B9F1C11489E04C
:10172000D8068DE3E806F10490F580E8C81684E851
:10173000D8068EE1E806F10460F580E4C81682E47C
:10174000D8068FE0E806F10430F580E2C81681EA99
:10175000D80687E0E806F10400F580E9C81680EDB8
:10176000D80683E0E806F104D0F487E091E0892709
:10177000482F46954C2B40654CBD81708DBDCF9157
:10178000FF90EF90DF90CF90089580E0EFCF81E061
:10179000EDCF82E0EBCF83E0E9CF84E0E7CF85E0D7
:1017A000E5CF0F931F93CF93DF93FC01AB01AEED19
:1017B000B1E030E020E0C1E0D0E08D918F3FC1F09A
:1017C00000811181BE0102C0660F771F8A95E2F782
:1017D000CB01BE01022E02C0660F771F0A94E2F70A
:1017E00064237523672B71F0802B912B9183808369
:1017F0002F5F3F4F2031310501F7DF91CF911F91CE
:101800000F9108958095909580239123EFCF0F93AA
:101810001F93CF93DF93EC018B01FB0180818052FA
:10182000990B880F880F1C828D8381818052990BC0
:10183000880F880F1E828F836481758160957095F3
:101840007E7FCE01AEDF80912A06833280F0F801E0
:10185000838181FF0CC08095807E928196959E73D6
:101860009A31E0F4FE01E859FF4F9231E1F08881AE
:101870009981F801258123FD18C09064998388839C
:1018800088819981F801258125FD11C0906899838F
:101890008883DF91CF911F910F910895FE01EC593C
:1018A000FF4F9E3121F78083E2CF9F7BE7CF9F7769
:1018B000EECFFC01DB018C91880F880F80581482D9
:1018C000858311968C911197880F880F8058168206
:1018D000878313962C9113972F712051330B322F3E
:1018E0002227330F330F3195219531093187208716
:1018F00014966D917C9160957095CF0152CFFC014B
:10190000DB018C918058990B1482858312968C91FF
:1019100012978058990B1682878311968C91119794
:101920008058990B1086818713968C911397805855
:10193000990B1286838714968C911497828315963F
:101940008C911597838316966D917C916095709517
:10195000CF0127CFDC01FB018081218122952695D3
:101960002670982F9695969596959871292B928129
:10197000991F9927991F292B880F880F8058149633
:101980001C92149715968C9315978181880F880F58
:10199000805816961C92169717968C9317979481D9
:1019A000338190FF38C0832F90E0809590958F71A0
:1019B0009927809619969C938E931897022E000C67
:1019C000330B828180FF2DC08FE390E0821B930B4D
:1019D0001B969C938E931A97828186958695887123
:1019E0009381929596959770892B12968C93129766
:1019F000828190E0959587958F7013968C931397BD
:101A000064817581762767277627609570956D7C50
:101A10007376CD01C6CE3F7180E290E0831B9109C1
:101A2000C9CF80E290E0D2CFFC01DB0112968C910D
:101A3000129790E0982F882788279F702C91822BEF
:101A40009583848312968C91129720E1829FC00126
:101A5000112488279F7011962C911197822B9783C0
:101A6000868313968C911397838380819181159639
:101A70002C91159720FF17C09061918380838081FE
:101A8000918115962C91159721FF0FC0906291833B
:101A900080838081918115962C9122FD08C09064ED
:101AA0009183808308959F7EE8CF9F7DF0CF9F7BB9
:101AB000F7CFFC01DB018D919C9111979583848375
:101AC00012968D919C9113979783868314968C918F
:101AD00083830895FB0164817581762767277627C4
:101AE000609570955ECEE091A105F091A205808190
:101AF0009091A005892B8083E0919E05F0919F0530
:101B0000808190919D05892B8083E0919B05F091C8
:101B10009C05808190919A05892B80830895CF93AD
:101B2000DF93EC01809153065ADD892B39F090E068
:101B300080E09B878A87DF91CF9108958FEF9FE7A1
:101B4000F8CF2F923F924F925F926F927F928F9237
:101B50009F92AF92BF92CF92DF92EF92FF920F933C
:101B60001F93CF93DF93CDB7DEB761970FB6F8948D
:101B7000DEBF0FBECDBF109259051092580559DD3A
:101B80001092E7041092E60410927F0410927E04F3
:101B900039E2C32E36E0D32E00E041E1B42ECE016F
:101BA00001967C01F7012B2D11922A95E9F70B8301
:101BB000F60110A11F3F99F1053061F4E0912A066A
:101BC000F0E0E251FE4F8081823021F480912B06BB
:101BD000833029F5F60181A18D831E3008F01E5057
:101BE00061E08EE0810F2DDD177010641A83809103
:101BF000E6049091E7049C012F5F3F4F3093E70488
:101C00002093E604B89ED001B99EB00D1124A058CF
:101C1000BB4FF7018B2D01900D928A95E1F70F5F75
:101C2000F2E0CF0ED11C063009F0BCCF809129061E
:101C3000823009F08DC099E3692E96E0792E10E08C
:101C400000E088248394912CF30151903F01FFEF31
:101C50005F1609F477C021E00C30110528F4C801A3
:101C60000897029708F020E02170202E852D90E043
:101C7000FC01E652F24F3490FC01EA53F24FE4913A
:101C8000F0E0EE0FFF1FEE54F24FA590B490640108
:101C9000002E02C0CC0CDD1C0A94E2F7222331F0A6
:101CA0004424439480912D06813009F0412C842DE9
:101CB0008170482EE0912A06F0E0E251FE4F30811B
:101CC000313009F05EC0222309F45BC080915706D1
:101CD000E8E08E9FC0011124F70127E011922A95B8
:101CE000E9F75B823A873B86BD86AC86DF86CE8687
:101CF000488A298A998788878DE0851510F492EFA4
:101D0000590E61E08EE0850D9CDC852D8770806426
:101D10008A838091E6049091E7049C012F5F3F4FF6
:101D20003093E7042093E604E1E1E89FD001E99FC6
:101D3000B00D1124A058BB4FF70181E101900D9225
:101D40008A95E1F70F5F1F4F0031110509F07CCF35
:101D500061960FB6F894DEBF0FBECDBFDF91CF9175
:101D60001F910F91FF90EF90DF90CF90BF90AF90B9
:101D70009F908F907F906F905F904F903F902F90AB
:101D8000089562E0411061E0852D5BDC809158058B
:101D9000909159059C012F5F3F4F30935905209337
:101DA000580527E0289FF001299FF00D1124E851E4
:101DB000FB4F3082B282A182D482C38245822682C6
:101DC000C1CF8D3099F090912B06913021F49EEE89
:101DD000980F923058F090912D06923029F496EF9A
:101DE000980F81E0943008F080E0089581E0089534
:101DF000CF9380917D04882359F0C2E08C2FE1DFDE
:101E0000811103C061E08C2F1CDCCF5FC431B1F7BE
:101E100010927C0410927D04CF9193CEEF92FF92AA
:101E20001F93CF93DF93CDB7DEB761970FB6F894CA
:101E3000DEBF0FBECDBF9C0180917C04882351F191
:101E400070E7E72E74E0F72E10E0812FE1DBD70179
:101E50002D913D917D01821B930B97FF03C09195BE
:101E6000819591090B9794F06CDE125F10936F04CB
:101E700010927C0461960FB6F894DEBF0FBECDBF02
:101E8000DF91CF911F91FF90EF9008951F5F163063
:101E9000E1F6F0CF80917D04882399F012E0812F44
:101EA00090DF81110AC0812F9ADB892B31F4A0DFEA
:101EB00010936F0410927D04DDCF1F5F143179F70A
:101EC000D9CFA091E604B091E704109709F45BC064
:101ED0008091100181113BC080917A0086FD53C032
:101EE0008091780090917900E0907E04F0907F04DA
:101EF00041E14E9DF0014F9DF00D1124E058FB4F44
:101F0000418541110CC04481442319F0919581957C
:101F10009109925066E0880F991F6A95E1F7A70131
:101F20004F5F5F4F50937F0440937E0461E16E9D4D
:101F3000F0016F9DF00D1124E058FB4F96838583CF
:101F4000A417B50721F410927F0410927E0410921A
:101F5000100140917E0450917F0481E1849FF00143
:101F6000859FF00D1124E058FB4FDE011196019082
:101F70000D928A95E1F78A8180937C0080917A00A6
:101F8000806480937A00609158057091590580E0D3
:101F900017E0482F50E046175707DCF140E061E1B9
:101FA000842F042E000C990BE091E604F091E704D5
:101FB0008E179F070CF05ECF689FF001699FF00DB0
:101FC0001124E058FB4FDE011196862F01900D92EF
:101FD0008A95E1F78A855B818823E9F1EE81FF81AB
:101FE000888599858E179F0750F4F901808191812A
:101FF000EE85FF858E2B9F2BD9018D939C938E812F
:102000009F81F901E50FF11DE45AFF4F80834F5F77
:10201000C7CF149FF001159FF00D1124E851FB4F1D
:10202000A181B2819C9140819423819FD001112490
:10203000A851BB4F15964C9194130BC0D9014D91EB
:102040005C9111970380F481E02D4E2B5F2B4D9313
:102050005C938F5F9ECF852F90E0523050F0AE8121
:10206000BF81880F991FF901E80FF91FB183A08381
:10207000CECFEE81FF81820F931FDC011296FC937D
:10208000C6CF209100012223E1F31092000120919C
:10209000C00025FFFCCF28E72093C6009C01680FF5
:1020A0009BE740E2621721F080916D04882341F0A4
:1020B0008091C00085FFFCCF8FE78093C600089514
:1020C000F901819129E8280F293038F42091C000C6
:1020D00025FFFCCF9093C60084272091C00025FFE8
:1020E000FCCF8093C6009F01DDCF85ED8093BC00BF
:1020F0008FEF9FE72091BC0024FD03C01092E905FB
:1021000002C00197B9F70895CF93DF93DC01FA017C
:1021100084E190E0EB01998388831C9211968C9363
:10212000119712968CE001900D928A95E1F7DF915C
:10213000CF910895CF93DF93C82F8FEF9FE7413260
:1021400028F0D1E048C0019709F454C0D091E905C6
:10215000D111F9CF82E08093E90581E08093EB050E
:102160008FEF8093E80510920D0640930C0650E027
:102170008CEE95E00E94032910920E0680910E06C7
:10218000CC0FC82BC0930E068091EA05882371F10D
:102190001092EA0580910E068093BB008FEF9FE7B7
:1021A0002091BC0023FD1BC085EC8093BC008FEF09
:1021B0009FE72091E9052230D9F08091E8058F3F13
:1021C00051F08091E805D2E0803229F08091E80555
:1021D000D3E0803379F48D2FDF91CF91089501976B
:1021E00049F020910E062093BB00DACF85EEDDCFBB
:1021F0000197F9F6D4E0EFCFCF93282FCB01C42F6E
:102200004FEF5FE7C13238F0C0E08C2FCF910895D7
:1022100041505109C9F33091E9053111F9CF31E04D
:102220003093E9053093EB054FEF4093E8051092AA
:102230000D064C0F40930C0630930E0630910E069F
:10224000220F232B20930E062091EA05222359F119
:102250001092EA0520910E062093BB002FEF3FE776
:102260004091BC0043FD16C025EC2093BC002FEF2D
:102270003FE74091E9054130C1F020910D062C1750
:1022800010F4C0910D064C2F50E06CEE75E00E94EA
:102290000329BBCF2150310909F4B6CF40910E0676
:1022A0004093BB00DDCF25EEE0CF2150310909F787
:1022B000ABCFEF92FF920F931F93CF93DF930F92C9
:1022C000CDB7DEB7182F6983E42EF22E032F41E03D
:1022D000BE016F5F7F4F2EDF811113C04E2D6F2D1A
:1022E000702F812F89DF91E0811101C090E0892F4B
:1022F00081700F90DF91CF911F910F91FF90EF9020
:10230000089580E0F5CFEF92FF920F931F93CF9344
:10231000DF9300D0CDB7DEB7082F142F732F8DB702
:102320009EB79A83898350E0CA010196EDB7FEB744
:10233000E81BF90B0FB6F894FEBF0FBEEDBF8DB7CB
:102340009EB701967C016183622F01960E9403294A
:1023500041E0410FB701802FEDDE982F81E0911110
:1023600080E0E981FA810FB6F894FEBF0FBEEDBFA1
:102370000F900F90DF91CF911F910F91FF90EF90F1
:102380000895CF93DF930F92CDB7DEB79C01809174
:102390001701811105C08FEF0F90DF91CF91089544
:1023A00081E02C3B310588F482E02236310568F467
:1023B00083E02A32310548F484E02431310528F4E1
:1023C00085E02A30310508F486E089839091180170
:1023D00089819817A9F0A0911101B0911201E091A3
:1023E0001301F09114019E012F5F3F4F41E01296BF
:1023F0006C91808188DF882371F289818093180134
:1024000080E0CACFEF92FF920F931F93CF93DF9399
:1024100000D0CDB7DEB7FC018B017A0180911701A6
:1024200081110AC08FEF0F900F90DF91CF911F9114
:102430000F91FF90EF9008959E2F8F2F9A8389839D
:10244000A0911301B09114019B012E0F311D18961C
:102450008D919C9119978217930720F3E0911101B8
:10246000F09112019E012F5F3F4F42E0638D8C91EE
:102470004ADF8823B9F2A0911101B0911201E091D5
:102480001301F09114019701402F58966C918081AF
:102490003ADF91E089278195C6CFCF93DF930F92E2
:1024A000CDB7DEB780911701811105C08FEF0F9076
:1024B000DF91CF9108951982809116018823C1F090
:1024C000A0911101B0911201E0911301F09114015A
:1024D0009E012F5F3F4F41E017966C91808113DF83
:1024E000882321F3898186958695869580931601A8
:1024F00080E0DDCFCF93DF930F92CDB7DEB7809131
:102500001701811105C08FEF0F90DF91CF910895D2
:1025100088E18983809115018330C1F0A091110178
:10252000B0911201E0911301F09114019E012F5F0F
:102530003F4F41E016966C918081E5DE882319F3C8
:1025400089818695869586958093150180E0DCCFFC
:102550001F93CF93DF930F92CDB7DEB7182F8091E3
:102560002D01811729F1112341F180E389838091A5
:102570001E01882319F089818260898380912C0152
:10258000882319F0898180688983A0911101B09115
:102590001201E0911301F09114019E012F5F3F4F52
:1025A00041E057966C918081AEDE811110932D0130
:1025B0000F90DF91CF911F9108951982D8CFCF93BB
:1025C000DF930F92CDB7DEB790912E019923E9F0FA
:1025D000882339F182E08983A0911101B091120121
:1025E000E0911301F09114019E012F5F3F4F41E0F4
:1025F00051966C91808187DE882319F089818093C0
:102600001D010F90DF91CF910895909117019923AB
:10261000C1F3882331F080911D018111F2CF81E057
:10262000DACF1982D9CFEF92FF920F931F93CF93F6
:10263000DF930F92CDB7DEB780911701811109C0EA
:102640008FEF0F90DF91CF911F910F91FF90EF903F
:1026500008951982A0911101B0911201E091130126
:10266000F09114018E010F5F1F4F980141E05196C8
:102670006C91808148DE7801882311F3A0911101CB
:10268000B0911201E0911301F0911401980141E021
:1026900015966C91808137DE882391F2A09111010B
:1026A000B0911201E0911301F0911401980141E001
:1026B00014966C91808127DE882309F4C1CFE091C4
:1026C0001101F09112016481E0911301F091140164
:1026D00080912E01882309F457C08CE089839801EA
:1026E00041E0808110DE882309F4AACF2FEF80E734
:1026F00092E0215080409040E1F700C0000080EC63
:1027000089838091170180FF02C080EE8983A091A8
:102710001101B0911201E0911301F09114019701A0
:1027200041E014966C918081EEDD882309F488CF16
:1027300080911D01882331F182E08983A0911101EC
:10274000B0911201E0911301F0911401970141E061
:1027500051966C918081D7DD882309F471CF19825D
:10276000A0911101B0911201E0911301F0911401B7
:10277000970141E015966C918081C5DD91E0892734
:1027800081955FCF1982DACF84E08983980141E097
:102790008081B9DD882309F453CF80911E01811116
:1027A00004C08091170180FD3EC080E48983A09120
:1027B0001101B0911201E0911301F0911401970100
:1027C00041E014966C9180819EDD882309F438CF16
:1027D0002FEF80E792E0215080409040E1F700C069
:1027E000000080911D01882301F181E08983A0917F
:1027F0001101B0911201E0911301F09114019701C0
:1028000041E051966C9180817EDD882309F418CFD8
:10281000A0911101B0911201E0911301F091140106
:102820002CE131E0A6CF80E6C1CF1982E0CF1F9323
:10283000CF93DF93D82F80912E01C0E081111FC06C
:10284000809117018823B9F010911C018D2380938A
:102850001C01C1E08D1301C0C0E0C1958091200131
:102860008D2B59F081E0ABDEDD2349F0DCDE8823DF
:1028700031F010931C01CFEF02C080E0A0DE8C2F5E
:10288000DF91CF911F9108951F93CF93DF9300D0D5
:10289000CDB7DEB7182F81111EC080E059DE198236
:1028A00087E08A83A0911101B0911201E091130198
:1028B000F09114019E012F5F3F4F42E055966C91BD
:1028C000808121DD8111109220010F900F90DF9106
:1028D000CF911F91089581E03BDE80E28983113022
:1028E00041F51A8285E090E04CDD8A8120E4829FE8
:1028F000C001112487608A83A0911101B091120157
:10290000E0911301F09114019E012F5F3F4F42E0CF
:1029100055966C918081F7DC8823B9F288E080932A
:1029200017011092190181E08093200180E07FDF80
:10293000CCCF163018F481E08A83D4CF153128F437
:1029400082E08A838AE090E0CFCF83E08A8384E1CB
:1029500090E0CACF0F931F93CF93DF930F92CDB721
:10296000DEB78C0180911701811107C08FEF0F90A6
:10297000DF91CF911F910F91089580912E018111C8
:10298000F5CF80912001882351F0C80101978897E5
:1029900020F4802F79DF80E0EACF80E075DFB80196
:1029A000093E134010F068EE73E06430710510F4D6
:1029B00064E070E008EE13E0C8010E9471286150E5
:1029C0006983A0911101B0911201E0911301F0917E
:1029D00014019E012F5F3F4F41E011966C91808161
:1029E00092DC882309F4C2CF698170E06F5F7F4F6A
:1029F000C8010E94852870931B0160931A01CB01C6
:102A000096958795BEDCC7CF9C01FB0190E080E0E6
:102A1000841708F008955AE52115310521F0D901F0
:102A2000A80FB91F5C915EBD00000DB407FEFDCF7D
:102A30005EB5519350E55A95F1F70196E9CF0F93A2
:102A40001F93CF93DF938C01C62FE0919B05F091EC
:102A50009C05908180919A0580958923808380E5EB
:102A60008A95F1F743E06AE775E0C801CDDF809110
:102A70007B058F3F49F4D0E0C0E035D8CE01DF912F
:102A8000CF911F910F91089590917C059A3511F087
:102A90009111F1CF8F70D82FDD0FC33039F04DEF8A
:102AA0004C0F6DE775E0C8010396AEDFDD5F4D2F7B
:102AB0004C1BDC1761F06C2F70E0CB01840F911D73
:102AC0008197CCF666587A4F90E080E09DDFCAE7A8
:102AD000D5E0D3CFCF92DF92EF92FF920F931F9367
:102AE000CF93DF9300D000D000D0CDB7DEB78D8379
:102AF0009E83062F0E9423076B017C0110E0602F4C
:102B00008D819E819CDFFC01892B51F01F5F8D819F
:102B10009E818A5D914059F58181807F803F81F15E
:102B20006AE070E080E090E00E9481070E94230745
:102B300069837A838B839C83DC01CB018C199D098B
:102B4000AE09BF098B3F9105A105B105C0F280E038
:102B500026960FB6F894DEBF0FBECDBFDF91CF91A2
:102B60001F910F91FF90EF90DF90CF9008958D818E
:102B70009E81865D914031F48181807F803F81F22A
:102B800081E0E6CF1330E0F7CBCFEF92FF920F93C7
:102B90001F93CF93DF93EC0163E083ED91E04FDF70
:102BA000FC01892B49F04181542F507F503F31F473
:102BB00064E086ED91E08EDF80E03CC023813481CB
:102BC0002095309580910D01A3EBB1E0843011F098
:102BD000A3ECB1E05035A9F546E040930D0150E07B
:102BE00040E061E070E08D918F3FC9F0E880F980AE
:102BF0008B0102C0000F111F8A95E2F7C8018B01FB
:102C0000042E02C0000F111F0A94E2F702231323BF
:102C1000012B09F454C08E299F29998388834F5F23
:102C20005F4F40315105F9F68181807D803509F48F
:102C30004BC081E0DF91CF911F910F91FF90EF90FA
:102C40000895433201F545E040930D014581405818
:102C5000550B1C824D83488159816681613848F14A
:102C6000506459834883488159816781613818F1DC
:102C7000506859834883488159816085613FE8F0F5
:102C80005160598348834181423109F0A8CF87E0E0
:102C900080930D0185818058990B1C828D8346811C
:102CA0008FE790E0841B91091E828F83A8EAB1E030
:102CB00096CF5F7BD6CF5F77DCCF5E7FE2CF80950C
:102CC00090958E219F21A9CF85818058990B1886D8
:102CD000898746818FE790E0BC01641B71091A86E1
:102CE0006B8747814058550B1C824D834085841B60
:102CF00091091E828F838181893709F09ACF838958
:102D00008A8384898B8380910D01843009F091CF6F
:102D1000818990E099878887222731704FEF5FE79C
:102D2000249FC001259F900D349F900D11249B87F7
:102D30008A877FCF1F93CF93DF93182FD92F80914E
:102D40000D018830A9F5C5E0812F9D2F1EDF61E0C0
:102D500070E080E090E00E948107C150A9F7812FC8
:102D60009D2F13DF882361F164E08AED91E0B2DEEC
:102D7000882381F163E087E991E061DEFC01892B22
:102D800049F08381833021F18130F1F481818234F3
:102D900009F0C4E0C0930D0165E083EA91E09ADE9A
:102DA00069E08AE991E096DE64E086ED91E092DEEA
:102DB000812F9D2FEADE811103C088E080930D01F1
:102DC000DF91CF911F9108958C3021F7C3E0E2CFBE
:102DD000C2E0E0CF81E080930D01EACFFF920F9334
:102DE0001F93CF93DF930F92CDB7DEB78983F62E73
:102DF0008A0141E0BE016F5F7F4F82E59BD981115F
:102E00000EC08FEC97E00197F1F700C000004F2D46
:102E1000B80182E5F1D9982F81E0911101C080E0DD
:102E20000F90DF91CF911F910F91FF900895CF9355
:102E3000DF9300D000D000D0CDB7DEB7AE014F5F3A
:102E40005F4F66E08AEFCADF99818E8126960FB6C2
:102E5000F894DEBF0FBECDBFDF91CF910895EF9202
:102E6000FF920F931F93CF93DF93CDB7DEB72997D0
:102E70000FB6F894DEBF0FBECDBF7C0180910E016E
:102E800090910F018B30984171F18E010F5F1F4FB0
:102E9000A80168E080E0A2DFB801882321F1F801F1
:102EA000AE01475F5F4F8FEF90E02191922B82231D
:102EB000E417F507D1F79923B1F08F3FA1F0E09126
:102EC000A305F091A405309709F08FC029960FB69D
:102ED000F894DEBF0FBECDBFDF91CF911F910F9150
:102EE000FF90EF900895A3DF9C0190930F018093D2
:102EF0000E012F3F3F4F11F585E589879E01275F22
:102F00003F4F41E060EF82E5FED925E32A95F1F7D6
:102F1000000019869E01275F3F4F41E06BEF82E57D
:102F2000F2D985E38A95F1F7000081DF90930F01D4
:102F300080930E0125E32A95F1F7000080910E01A0
:102F400090910F019E7F019769F483E089879E012C
:102F5000275F3F4F41E06EEF82E5D5D985E38A9543
:102F6000F1F7000080910E0190910F01813021E076
:102F7000920779F190F48330910521F148F400979C
:102F800059F1019731F11092A4051092A3059ECF3B
:102F90004197C9F78AE69DE017C082312FEF92076B
:102FA00009F150F4833021E09207C9F08330934057
:102FB00051F78AEA9CE008C083319F4F21F789E5E9
:102FC0009DE002C089E59CE09093A4058093A30551
:102FD0007DCF8FE79CE0F8CF83E698E1F5CF87E0DF
:102FE0009CE0F2CF84E19DE0EFCFC70109956ECF61
:102FF000EF92FF921F93CF93DF930F92CDB7DEB77F
:10300000182F807719F081E0898303C01123F1F034
:103010001982A0911101B0911201E0911301F09178
:103020001401CE0101967C019C0141E055966C9102
:10303000808169D9970181110BC0109217010F90FF
:10304000DF91CF911F91FF90EF90089580E4DCCF46
:1030500089818F7B8093190116FF32C0198215FD7B
:1030600003C089818260898314FD03C089818160E6
:10307000898313FD03C0898188638983A09111012D
:10308000B0911201E0911301F091140141E05696C4
:103090006C91808138D9882381F2812F877F11F04C
:1030A00080E056DA10931701109220019FEF20E77D
:1030B00082E0915020408040E1F700C00000BFCF87
:1030C00084E08983CCCF9F92AF92BF92CF92DF9260
:1030D000EF92FF920F931F93CF93DF9300D000D016
:1030E00000D0CDB7DEB78D839E838B01DB018C9141
:1030F0008058990BED81FE811482858312968C9104
:1031000012978058990B1682878380913006882306
:1031100009F4F0C015969C901597892D90E01396B0
:10312000EC901397F4E0EF9E900111247C0144E0B1
:10313000F594E7944A95E1F743E0E422FF24E22A7C
:10314000F32A14962C9154E0259F90011124959513
:1031500087959595879583709927822B932B9C0152
:1031600050E040E029833A834B835C83CA01B90174
:103170000E94252820E030E84FEF53E469837A83EA
:103180008B839C8369817A818B819C810E948B27B0
:103190005B016C01D80112968C91B4E08B9FC00149
:1031A000112492949694969463E0962289299C0126
:1031B00050E040E029833A834B835C83CA01B90124
:1031C0000E94252820E030E84FEF53E469837A839A
:1031D0008B839C8369817A818B819C810E948B2760
:1031E0009501A60169837A838B839C8369817A81A7
:1031F0008B819C810E94B72520E030E044E353E4BA
:1032000069837A838B839C8369817A818B819C819A
:103210000E94F2272BED3FE049E450E469837A8372
:103220008B839C8369817A818B819C810E94F027AA
:1032300069837A838B839C8369817A818B819C816A
:103240000E94F427AD81BE8119967C936E931897E6
:10325000970150E040E029833A834B835C83CA01A5
:10326000B9010E94252820E030E84FEF53E469833C
:103270007A838B839C8369817A818B819C810E9474
:103280008B279501A60169837A838B839C8369814F
:103290007A818B819C810E94B725DC01CB01B058DB
:1032A00089839A83AB83BC8320E030E044E353E41A
:1032B000BC01CD010E94F2272BED3FE049E450E430
:1032C00069837A838B839C8369817A818B819C81DA
:1032D0000E94F02769837A838B839C8369817A813A
:1032E0008B819C810E94F427AD81BE811B967C93CB
:1032F0006E931A97ED81FE8180819181D801159698
:103300002C9120FD21C0906191838083AD81BE818D
:103310008D919C911197F801258121FD19C0906232
:103320008D939C9326960FB6F894DEBF0FBECDBF4B
:10333000DF91CF911F910F91FF90EF90DF90CF9091
:10334000BF90AF909F9008959F7EED81FE81DCCF6E
:103350009F7DAD81BE81E4CF0F931F93CF93DF9309
:103360000F92CDB7DEB780911E01882309F45AC0B1
:10337000A0911101B0911201E0911301F09114019B
:103380008E010F5F1F4F980141E014966C91808170
:103390000E945911811107C08FEF0F90DF91CF91DB
:1033A0001F910F91089589819091170190FF3CC062
:1033B00080628983A0911101B0911201E091130103
:1033C000F0911401980141E014966C9180810E9463
:1033D0008311882309F38FED9EE20197F1F700C076
:1033E000000080912C01882309F180E88983809175
:1033F0002D01882319F0898180638983A0911101AF
:10340000B0911201E0911301F0911401980141E093
:1034100057966C9180810E948311882309F4BCCF58
:1034200010921E0180E0B9CF8F7DC3CF1982DFCF0C
:103430002F923F924F925F926F927F928F929F92C4
:10344000AF92BF92CF92DF92EF92FF920F931F93B2
:10345000CF93DF93CDB7DEB7E8970FB6F894DEBF12
:103460000FBECDBF8FAB98AF109269051092680563
:10347000D0906405ED2CF12C80912E01882311F160
:10348000809117018823F1F0A0911101B0911201F0
:10349000E0911301F09114019E012F5D3F4F42E036
:1034A0001C966C9180810E945911882359F009A1C2
:1034B0001AA11027012710270E151F0508F09CC11F
:1034C000109267058091680590916905811591407A
:1034D00009F06FC183E08093580660916A0570918E
:1034E0006B0580916C0590916D050E94272820E066
:1034F00030E040E054E36BA37CA38DA39EA36BA1BB
:103500007CA18DA19EA10E94F2276BA37CA38DA319
:103510009EA36BA17CA18DA19EA10E94F4276B01AB
:1035200070936B0560936A0560916E0570916F05ED
:1035300080917005909171050E94272820E030E06D
:1035400040E054E36BA37CA38DA39EA36BA17CA15D
:103550008DA19EA10E94F2276BA37CA38DA39EA3A5
:103560006BA17CA18DA19EA10E94F4272B017093D9
:103570006D0560936C056091720570917305809183
:103580007405909175050E94272820E030E040E006
:1035900054E36BA37CA38DA39EA36BA17CA18DA1FF
:1035A0009EA10E94F2276BA37CA38DA39EA36BA177
:1035B0007CA18DA19EA10E94F4274B0170936F0501
:1035C00060936E056091760570917705809178051E
:1035D000909179050E94272820E030E040E054E3F4
:1035E0006BA37CA38DA39EA36BA17CA18DA19EA1A7
:1035F0000E94F2276BA37CA38DA39EA36BA17CA149
:103600008DA19EA10E94F427462F572F509371053C
:1036100040937005449D8001459D100D549D100DF3
:1036200011248C9CC0018D9C900D9C9C900D1124AC
:10363000081B190BB801C8010E94030A7C01BC01D8
:103640000E94030A6C01BC010E94030A1C0160E68F
:1036500070EB89EB94E40E94ED26362F272FB701FB
:10366000832F922F0E94030A8BA79CA76AE27EEE0B
:1036700087EB93E40E94ED264B016EEF7AEB87E532
:1036800094E40E94ED26362F272FB701832F922F27
:103690000E94030A8FA798AB66EA79EB88E294E46C
:1036A0000E94ED266BA37CA38DA39EA362E377E823
:1036B0008AE794E40E94ED26362F272FB701832F47
:1036C000922F0E94030A8BAB9CAB63E87EEC86EBE7
:1036D00094E40E94ED266FA378A789A79AA76AECC5
:1036E00079E989E195E40E94ED26362F272FB7016D
:1036F000832F922F0E94030A8DAB9EAB6AEA7AEA6F
:103700008AEA95E40E94ED262B018BA59CA58819D9
:103710009909B6010E94030A9C018FA598A9EBA103
:10372000FCA18E0F9F1FB101820F931F0E94030AFD
:103730005C018BA99CA92FA138A5820F931FB6010C
:103740000E94030A8A0D9B1D4DA95EA9440E551EB9
:10375000B701840D951D0E94030AB8010E94030A57
:10376000080F191F11950195110989E999E10A3985
:1037700059E115070CF021C2073686EE18070CF444
:103780001AC2109366050093650520916505309176
:10379000660545E0429FC001439F900D1124209192
:1037A000590630915A06820F931F909366058093B5
:1037B00065058091650590916605AFA9B8AD1B962A
:1037C0009C938E931A97E8960FB6F894DEBF0FBEBF
:1037D000CDBFDF91CF911F910F91FF90EF90DF90C0
:1037E000CF90BF90AF909F908F907F906F905F90A1
:1037F0004F903F902F900895E0911301F0911401A4
:10380000818192819695879580179107B0F4A09158
:103810001101B09112019E012F5D3F4F41E053967F
:103820006C9180810E945911882309F44BCE89A1A3
:1038300084FF03C00E94131345CEA0911101B091E3
:103840001201E0911301F09114019E012F5F3F4F8F
:103850004D2D1D966C9180810E945911882309F489
:1038600031CEC801B7010E9471286150609367058D
:10387000E0916005F0916105CF0184719927892B52
:1038800009F497C129813A814B815C81CA01B90150
:103890000E94BA284B015C0180926A0590926B05E8
:1038A000A0926C05B0926D058D819E81AF81B88527
:1038B000BC01CD010E94BA286B017C01C0926E054B
:1038C000D0926F05E0927005F092710529853A85D6
:1038D0004B855C85CA01B9010E94BA288B019C0105
:1038E000009372051093730520937405309375054A
:1038F0008D859E85AF85B889BC01CD010E94BA280F
:10390000462F572FBC01409376055093770560935F
:10391000780570937905C501BB2797FDB095AB2F4E
:103920008BA39CA3ADA3BEA3C701BB2797FDB095F6
:10393000AB2F8FA398A7A9A7BAA7C901BB2797FD4B
:10394000B095AB2F8BA79CA7ADA7BEA7CB01BB277C
:1039500097FDB095AB2F8FA798ABA9ABBAAB2BA1B6
:103960003CA14DA15EA1CA01B9010E9462286BA3CE
:103970007CA38DA39EA32FA138A549A55AA5CA0152
:10398000B9010E9462286FA378A789A79AA7CBA044
:10399000DCA0EDA0FEA0C60ED71EE81EF91E2BA5CA
:1039A0003CA54DA55EA5CA01B9010E946228C60EBC
:1039B000D71EE81EF91E2FA538A949A95AA9CA0180
:1039C000B9010E9462286BA37CA38DA39EA3C60E9F
:1039D000D71EE81EF91E9FE0F91AA1E0CA16D1040D
:1039E000E104A2E0FA0638F00E9413131092690570
:1039F0001092680567CD8091680590916905916086
:103A0000909369058093680580E1E6FF4DC0A1E0D1
:103A1000B0E0AC0FBD1FA80FB11D9C9121E0280F95
:103A2000A1E0B0E0AC0FBD1FA20FB11D2C91392F4A
:103A3000309301002093000092E0980FA1E0B0E0E5
:103A4000AC0FBD1FA90FB11D9C9123E0280FA1E071
:103A5000B0E0AC0FBD1FA20FB11D2C91392F3093D8
:103A600003002093020094E0980FA1E0B0E0AC0FB7
:103A7000BD1FA90FB11D9C9125E0280FA1E0B0E06A
:103A8000AC0FBD1FA20FB11D2C91392F3093050033
:103A9000209304008A5F20916805309169052860B1
:103AA00030936905209368059F0120783170232B9E
:103AB00009F44DC0A1E0B0E0AC0FBD1FA80FB11DCF
:103AC0009C9121E0280FA1E0B0E0AC0FBD1FA20F38
:103AD000B11D2C91392F309301002093000092E00A
:103AE000980FA1E0B0E0AC0FBD1FA90FB11D9C91D4
:103AF00023E0280FA1E0B0E0AC0FBD1FA20FB11D65
:103B00002C91392F309303002093020094E0980FFA
:103B1000A1E0B0E0AC0FBD1FA90FB11D9C9125E045
:103B2000280FA1E0B0E0AC0FBD1FA20FB11D2C917A
:103B3000392F30930500209304008A5F2091680597
:103B40003091690520673093690520936805E3701B
:103B5000FF27EF2B09F4B6CC01E010E00C0F1D1F7E
:103B6000080F111DF801F380818180FF0FC0E091E3
:103B70005A05F0915B05309749F06F2D67706F5FC4
:103B80008F2D86958695869587700995D801119613
:103B90008C9183FF97CCE0915C05F0915D053097A7
:103BA00009F490CC8F2D8295869586958370099522
:103BB00089CC80E02ACF87E696EE909366058093C5
:103BC0006505E3CD1F921FB61F9211248F939F931B
:103BD000AF93BF938091100790911107A0911207A6
:103BE000B09113070196A11DB11D8093100790930A
:103BF0001107A0931207B0931307BF91AF919F9144
:103C00008F911F901FBE1F9018951F920F920FB695
:103C10000F9211242F933F934F935F936F937F9352
:103C20008F939F93AF93BF93EF93FF939091B900BE
:103C3000892F887F803509F4BEC008F042C08033E8
:103C400009F4B4C098F5883101F1D0F4883009F452
:103C5000A5C0803109F4A2C0882309F4ECC0FF910B
:103C6000EF91BF91AF919F918F917F916F915F91F4
:103C70004F913F912F910F900FBE0F901F9018956D
:103C8000803209F493C0883251F790910D068091EB
:103C90000C06981778F5E0910D0681E08E0F809361
:103CA0000D06F0E0E451FA4F80817AC0803409F4C7
:103CB0008EC0883409F47CC0883389F68093E80587
:103CC0006BC0803A09F49DC0B8F5803809F487C00C
:103CD00050F5803611F1D8F4883509F6E0910D06DB
:103CE00081E08E0F80930D068091BB00F0E0E451DF
:103CF000FA4F80838091EB0581115AC081E0809357
:103D0000EA0584EA8093BC001092E905A8CF8037C9
:103D100021F0987E983609F0A2CF83E08093E905E0
:103D20001092E7053FC0803909F459C0987E983851
:103D300009F095CF85E837C0883BC9F048F5883A47
:103D400019F0803B09F08BCF84E08093E905109255
:103D5000C6051092C505F0E0E0E009958091C50523
:103D6000811105C081E08093C5051092A505E09101
:103D7000C60581E08E0F8093C605F0E0EB55FA4F43
:103D800080818093BB009091C6058091C50523C0BA
:103D9000907F903C09F063CF85ECB4CF80910E0604
:103DA0008093BB0085EC8093BC0059CF8093E805DD
:103DB0000E94751054CFE0910D0681E08E0F809324
:103DC0000D068091BB00F0E0E451FA4F80839091A2
:103DD0000D0680910C06981708F0ACCFE3CF8091C8
:103DE000E705803208F0A6CFE091E70581E08E0F6D
:103DF0008093E7058091BB00F0E0E953FA4F8083A0
:103E0000D1CF85EC8093BC001092E9058091E70545
:103E1000803230F4E091E705F0E0E953FA4F108288
:103E20006091E70570E087EC95E0F0E0E0E009954F
:103E30001092E70514CF1092E805BACF1F920F92A7
:103E40000FB60F9211242F933F934F935F936F936D
:103E50007F938F939F93AF93BF93EF93FF93809143
:103E6000C60090914002992389F090E28927109230
:103E7000400290913C029923A9F09D3709F045C07A
:103E800080936C0481E080936D0435C093E8980FB3
:103E90009230C8F410923F0210923E0210923D02FE
:103EA00080933C02FF91EF91BF91AF919F918F91D1
:103EB0007F916F915F914F913F912F910F900FBE26
:103EC0000F901F901895873721F481E080930001AF
:103ED000E9CF8F3799F480913F028A3341F446EE5F
:103EE00050E060E070E089E296E00E942329809132
:103EF0003F0280936E0410923C02D4CF8B3709F0BE
:103F0000B8CF81E080934002CDCF90913F029111D4
:103F100018C080933F028A3351F489E296E090936F
:103F20003E0280933D0281E080933B02BBCF893308
:103F300009F0B8CF8CE094E090933E0280933D026C
:103F4000B1CFE0913D02F0913E0290913B02992366
:103F500049F010923B02E80FF11DF0933E02E0930E
:103F60003D02A0CF309709F49DCF9F012F5F3F4FB7
:103F700030933E0220933D02808394CFCDB7DEB7CD
:103F8000A6970FB6F894DEBF0FBECDBF46EE50E049
:103F900060E070E089E296E00E941329809131068A
:103FA00090913206A0913306B09134068531944D3C
:103FB000A24AB105C9F046EE50E066EB7CE089E22A
:103FC00096E00E94E628109235061092360610926E
:103FD00037061092380642E450E06AE57DE08DEC49
:103FE00096E00E94E6280CC0809135069091360636
:103FF000A0913706B09138060297A105B10558F394
:1040000080912A06873009F07AC08FE080932A06D3
:104010008091350690913606A0913706B09138060A
:104020000497A105B10540F448E550E062E07DE069
:1040300085E796E00E94E628809135069091360645
:10404000A0913706B09138060697A105B105B0F4E6
:1040500010922C0686E090E0A0E0B0E08093350658
:1040600090933606A0933706B093380646EE50E09C
:1040700060E070E089E296E00E94232981E090E010
:104080009093C5008093C40086E08093C20082E0D4
:104090008093C00088E98093C100539A5A9A78941B
:1040A00080917A00846080937A0080917A008260A7
:1040B00080937A0080917A00816080937A00809169
:1040C0007A00806880937A0085B5826085BD85B569
:1040D000816085BD80916E00816080936E008091CB
:1040E0002906823089F0833009F484C3813071F469
:1040F0008FE297E1909347038093460307C088308F
:1041000009F086CF8DE082CF0E94A10D8091290613
:10411000833059F080912D06823039F440E060E020
:1041200072E18AE790E00E945E0B1092E90581E05F
:104130008093EB051092EA05449A459A8091B90064
:104140008E7F8093B9008091B9008D7F8093B900F4
:1041500088E18093B80085E48093BC00E0912A0652
:10416000F0E0E251FE4F8081823009F0F7C11091FA
:104170002B06113009F08BC3789480E88983A091D5
:104180001101B0911201E0911301F09114019E010F
:104190002F5F3F4F41E055966C9180810E948311C3
:1041A000882309F469C08FEF99E6A8E18150904017
:1041B000A040E1F700C000001982A0911101B09168
:1041C0001201E0911301F09114019E012F5F3F4F06
:1041D00041E055966C9180810E948311882309F4F7
:1041E0004BC010921F018FEF809317018093150130
:1041F00080931601809318012FEF3FEF30931B013E
:1042000020931A0180931C0180931E0110931901C1
:1042100010932C0110922D01109221011092200177
:10422000E2E2F1E08AE0DF011D928A95E9F710925F
:104230002E0110922F0110923101109230010E9434
:104240007A12811119C00E944D12811115C08AE2A3
:1042500090E00E94C11181110FC082E390E00E94A2
:10426000AA14811109C00E941714811105C074D8C5
:10427000811102C00E94F81788E70E94F8170E9477
:104280007A120E944D1288E70E94171480912F0124
:1042900081118CC0F12CE12CF6EFAF2EFBE0BF2E8C
:1042A0006E01B1E2CB0ED11C85010E191F0901313F
:1042B000110510F000E110E0F701EA56FF4FDE01B2
:1042C0001196CD01800F911FA817B90709F0DBC225
:1042D000AE014F5F5F4FB801C7010E94021281110A
:1042E00065C080911701882309F460C09E2D8F2D31
:1042F0009AA389A3E0911301F091140120853185DF
:10430000C8018E0D911D2817390708F44FC0A091E0
:104310001101B0911201960142E05B966C9180818F
:104320000E948311882309F441C0A0911101B0912A
:104330001201E0911301F09114019E012F5E3F4F95
:10434000402F58966C9180810E945911882371F1F9
:10435000A801BE016F5E7F4FCE01019647D7892B22
:1043600029F5E00EF11EE6EFEE16EBE0FE0608F48E
:104370009BCF84E089A31AA2A0911101B0911201F0
:10438000E0911301F0911401960142E05D966C9169
:1043900080810E948311882349F081E080932F015E
:1043A00088EC90E090933101809330018CE0E2E260
:1043B000F2E0DE01119601900D928A95E1F7198ADB
:1043C00085E08A8B8E010F5E1F4FA80162E070E0CE
:1043D00086E192E00E940212811111C0AE014F5F8E
:1043E0005F4F6CE070E081EC9AE00E940212811154
:1043F00006C08EE190E09093630580936205809102
:104400002E01813029F180912F01882309F180E06C
:104410000E94DF120E94AC1980913001909131010D
:104420000E94AA141982E0911301F09114019E01D7
:104430002F5F3F4F41E063E280810E948311882318
:1044400039F081E080932E010E94DF120E94131345
:1044500082E089838AEC8A8383EE8B8379E0E72E7E
:10446000EC82AE014F5F5F4F64E070E088E690E061
:104470000E94021283EA89838A838B838C838D83D3
:104480008E838F83888789878A87AE014F5F5F4FCE
:104490006AE070E087EA9AE00E940212E8EDFE2EE0
:1044A000F982AE014F5F5F4F61E070E086EB9AE00A
:1044B0000E940212EFE2F2E0DE01519601900D92AD
:1044C000EA94E1F7A80169E070E088EB94E00E94CB
:1044D0000212F982AE014F5F5F4F61E070E080EB46
:1044E00098E00E940212F982AE014F5F5F4F61E0D7
:1044F00070E08DE397E00E94021244E050E06BE828
:1045000070E0C80189D6A80164E070E088E99AE00B
:104510000E9402120E94131380E2898B88E28A8B28
:1045200080E38B8B88E38C8BA80164E070E08EE9DC
:104530009AE00E9402120E94131388E190E0909387
:104540006105809360050E94131380E180936405E8
:1045500088E19AE19093410380934003909156063D
:10456000109244039093450380912A06823209F009
:10457000A5C184EC98E09093FB038093FA039924FF
:10458000939488248A9460E8762E41E2642E5FE357
:10459000552E80916E04882379F080916E048333C8
:1045A00009F415C208F0D8C1803309F4EFC1813392
:1045B00009F4E6C110926E0480916D04882331F1F4
:1045C00010926D0480916C04609241028B3308F468
:1045D00016C28B53990B589EB001599E700D112431
:1045E00006EE10E0061B170B0F33110510F00FE35A
:1045F00010E0675D794FA80182E492E004D6B8012B
:104600006F5F7F4F81E492E00E944110109201049D
:1046100010920004E0914603F0914703309719F09F
:1046200080E094E0099580E094E00E940E0F809174
:104630002E06882309F440C04091040450910504DB
:10464000809144039091450366277727681B790B77
:10465000461757074CF42091000430910104246060
:104660003093010420930004841795074CF42091A3
:104670000004309101042860309301042093000469
:104680004091060450910704461757074CF42091B7
:10469000000430910104226030930104209300044F
:1046A000841795074CF48091000490910104816077
:1046B000909301048093000480912F06882381F059
:1046C00080910004909101049C01207333272033D2
:1046D000310531F48F7C9460909301048093000441
:1046E000E0912A06F0E0E251FE4F8081823071F5C0
:1046F0008091080490910904181619060CF4C3C19E
:10470000909343038093420380914203909143032B
:10471000880F991F181619060CF4BAC19093430319
:104720008093420380914203909143039195819538
:1047300091099093090480930804E0914003F0915B
:104740004103309719F080E094E0099580912D069F
:10475000823009F4A3C10E9423076BA37CA38DA31D
:104760009EA38091FC039091FD03A091FE03B09164
:10477000FF034BA15CA16DA17EA1481B590B6A0BE5
:104780007B0B80912C0690E0B0E0A0E084179507A9
:10479000A607B70708F0FDCE0E9423076093FC032D
:1047A0007093FD038093FE039093FF03E091FA035F
:1047B000F091FB0340E054E0BE016F5F7F4F81EA60
:1047C00093E0099519815A81412F68E473E081EAE9
:1047D00093E00CD5892B09F4D8CE612F81EA93E0C0
:1047E0000E94411049815A8161EA73E088E493E0B4
:1047F0000AD5CBCE4CE260EA76E881E090E00E94F8
:104800005E0BE4EEFDE0E491E0939A05E0EDFDE05F
:10481000E491F0E0EE0FFF1FE454F24F8591949184
:1048200090939C0580939B05E5EEFDE0E491E09379
:10483000A005E1EDFDE0E491F0E0EE0FFF1FE45490
:10484000F24F859194919093A2058093A105E7EE94
:10485000FDE0E491E0939D05E3EDFDE0E491F0E0FF
:10486000EE0FFF1FE454F24F8591949190939F05B2
:1048700080939E0560E08AE00E94210B0E94730DE8
:104880008AE996E137CC24912D9331961DCD1230D3
:1048900041F462E0809153060E94210B8FE89DE075
:1048A00059CE133009F05ACE80912906813009F093
:1048B00055CE0E94A10D8EE09FE04CCE833218F0C1
:1048C0008FE79AE058CE843118F484E890E153CE13
:1048D0002CEE280F263068F41092110690931206E1
:1048E0008091550610920F068093100684E699E099
:1048F00042CE803250F046E050E061E971E081E064
:1049000091E064D486E080930F0780912A068A3173
:1049100049F48DE0809335018CE0809336018CEB77
:1049200097E029CE982F9D7F4EE050E068EA7CE02A
:104930009C3171F04EE050E06AE97CE08B3141F04F
:104940008D3111F0803259F74EE050E06CE87CE098
:1049500084E391E03BD4E3CF8433D1F08C3309F08E
:1049600029CE46EE50E066EB7CE089E296E02ED45C
:1049700046EE50E060E070E089E296E064D41ACE42
:1049800087E797E790930108809300080E94170734
:1049900080917C0481110ECE80926F040E94190BCD
:1049A00000E714E03EE0F32E62E08F2D0E94210B21
:1049B00082EF8F0D0E94080BD8018D939D938D017E
:1049C000F394B4E1FB12F0CF90927C04F3CD80918C
:1049D0007D048111EFCD80926F040E94190B12E0CB
:1049E000812F0E94E10E811104C062E0812F0E949C
:1049F000210B1F5F1431A1F790927D04DBCD823330
:104A000099F464EA7DE087E492E0E9D310924202EF
:104A1000E4E2E0934302F4EFF09344021092450283
:104A20001092460265E1EECD853399F48091290616
:104A3000813041F480910E01809342021092430232
:104A400063E0E0CD8330E1F780910D018093420275
:104A5000F7CF863341F480916F04809342020E9425
:104A6000F80E62E0CFCD48E050E06CE97DE081E4F3
:104A700092E0ACD380912A068F3110F41092440258
:104A800068E070E0BFCD10924303109242033CCE29
:104A900021E0209342037092430344CE80E00E94C1
:104AA000390A80E00E94390A80E00E94390A80E0D9
:104AB0000E94390A95E7E92E96E0F92ED12CC12CF7
:104AC000D7016C9111964C90119712963C901297C9
:104AD00013962C90F601EE0FFF1FEE0FFF1FE45F01
:104AE000FB4F80819181A281B381092FBA2EAB2E19
:104AF000162F182B49F1B11110C091110EC0A11140
:104B00000CC0662351F0615080E094E00E943E0AA0
:104B1000082F882311F05101042D8FEF0E94390ACC
:104B20008A2D0E94390A8B2D0E94390A802F0E94FB
:104B3000390ABFEFCB1ADB0AE4E0EE0EF11CC0CF5E
:104B40008FEF0E94390A105F1C151D04CCF303CEB1
:104B5000F5D058F080E891E009F49EEFF6D028F007
:104B600040E851E059F45EEF09C0C0C028C1E92F08
:104B7000E07803D168F3092E052AC1F32617370719
:104B80004807590738F00E2E07F8E02569F0E025B0
:104B9000E0640AC0EF6307F8009407FADB01B9018B
:104BA0009D01DC01CA01AD01EF9341D0D5D00AD0FF
:104BB0005F91552331F02BED3FE049E450FD49EC86
:104BC000ABC10895DF93DD27B92FBF7740E85FE3DE
:104BD0001616170648075B0710F4D92FF7D09F93D6
:104BE0008F937F936F9394D1E8E6F0E082D0B4D0B6
:104BF0002F913F914F915F9134D1DD2349F090582F
:104C0000A2EA2AED3FE049EC5FE3D0785D2795D139
:104C1000DF91A2C09AD040F091D030F021F45F3FF4
:104C200019F05EC05111CCC061C0A7D098F3992390
:104C3000C9F35523B1F3951B550BBB27AA27621760
:104C40007307840738F09F5F5F4F220F331F441FA5
:104C5000AA1FA9F333D00E2E3AF0E0E830D09150DD
:104C60005040E695001CCAF729D0FE2F27D0660FCA
:104C7000771F881FBB1F261737074807AB07B0E809
:104C800009F0BB0B802DBF01FF2793585F4F2AF01F
:104C90009E3F510568F024C093C05F3FECF3983EFF
:104CA000DCF3869577956795B795F7959F5FC9F77C
:104CB000880F911D9695879597F90895E1E0660F05
:104CC000771F881FBB1F621773078407BA0720F07E
:104CD000621B730B840BBA0BEE1F88F7E0950895E7
:104CE00097F99F6780E870E060E008959FEF80EC9F
:104CF0000895DF93CF931F930F93FF92EF92DF926C
:104D00007B018C01689405C0DA2EEF01AAD0FE0168
:104D1000E894A5912591359145915591AEF3EF0118
:104D20000CD1FE019701A801DA9479F7DF90EF909A
:104D3000FF900F911F91CF91DF91089500240A9465
:104D40001616170618060906089500240A94121666
:104D50001306140605060895092E0394000C11F499
:104D6000882352F0BB0F40F4BF2B11F460FF04C046
:104D70006F5F7F4F8F4F9F4F089557FD9058440F9F
:104D8000551F59F05F3F71F04795880F97FB991FAA
:104D900061F09F3F79F08795089512161306140667
:104DA000551FF2CF4695F1DF08C0161617061806F4
:104DB000991FF1CF86957105610508940895E894CF
:104DC000BB2766277727CB0197F908959B01AC0194
:104DD00060E070E080E89FE303C1D7DFA8F19E5751
:104DE000A8F1985160F039F1983070F5092E9927A3
:104DF000660F771F881F991F0A94D1F71CC0BB2725
:104E0000993F4CF4B111B1E0B62B672F782F88276A
:104E1000985FB1F708C0869577956795B79508F4C0
:104E2000B1609395C1F7BB0F30F411F460FF03C07C
:104E30006F5F7F4F8F4F3EF4909580957095619591
:104E40007F4F8F4F9F4F08956894BACFB8CF76DFCA
:104E500028F07BDF18F0952309F042CF47CF1124CB
:104E6000AFCF8BDFA0F3959FD1F3950F50E0551F87
:104E7000629FF001729FBB27F00DB11D639FAA27AF
:104E8000F00DB11DAA1F649F6627B00DA11D661FFE
:104E9000829F2227B00DA11D621F739FB00DA11D1F
:104EA000621F839FA00D611D221F749F3327A00DD9
:104EB000611D231F849F600D211D822F762F6A2F75
:104EC00011249F5750408AF0E1F088234AF0EE0FFA
:104ED000FF1FBB1F661F771F881F91505040A9F707
:104EE0009E3F510570F0FCCE6BCF5F3FECF3983ED8
:104EF000DCF3869577956795B795F795E7959F5F6E
:104F0000C1F7FE2B880F911D9695879597F9089507
:104F10009B01AC0167C05058BB27AA270ED01CCFFD
:104F20000DDF30F012DF20F031F49F3F11F41EF45A
:104F3000DDCE0EF4E095E7FBD3CEE92F1EDF80F344
:104F4000BA17620773078407950718F071F49EF586
:104F500036CF0EF4E0950B2EBA2FA02D0B01B90120
:104F600090010C01CA01A0011124FF27591B99F0DF
:104F7000593F50F4503E68F11A16F040A22F232FEB
:104F8000342F4427585FF3CF469537952795A7953B
:104F9000F0405395C9F77EF41F16BA0B620B730BE2
:104FA000840BBAF09150A1F0FF0FBB1F661F771F53
:104FB000881FC2F70EC0BA0F621F731F841F48F408
:104FC000879577956795B795F7959E3F08F0B3CF8E
:104FD0009395880F08F09927EE0F97958795089578
:104FE00024DEBACE3EDFB8CE04D06894B111E8CE4C
:104FF0000895CBDE88F09F5790F0B92F9927B751CD
:10500000A0F0D1F0660F771F881F991F1AF0BA958C
:10501000C9F712C0B13081F0D2DEB1E00895CFCE31
:10502000672F782F8827B85F39F0B93FCCF3869582
:1050300077956795B395D9F73EF4909580957095DF
:1050400061957F4F8F4F9F4F0895E89409C097FB5C
:105050003EF490958095709561957F4F8F4F9F4F4F
:105060009923A9F0F92F96E9BB279395F695879593
:1050700077956795B795F111F8CFFAF4BB0F11F456
:1050800060FF1BC06F5F7F4F8F4F9F4F16C08823FD
:1050900011F096E911C0772321F09EE8872F762F33
:1050A00005C0662371F096E8862F70E060E02AF074
:1050B0009A95660F771F881FDAF7880F9695879560
:1050C00097F90895DB018F939F9376D0BF91AF91AD
:1050D000A29F800D911DA39F900DB29F900D112452
:1050E0000895AA1BBB1B51E107C0AA1FBB1FA6172F
:1050F000B70710F0A61BB70B881F991F5A95A9F781
:1051000080959095BC01CD01089597FB072E16F46C
:10511000009406D077FD08D0E4DF07FC05D03EF40C
:10512000909581959F4F0895709561957F4F089553
:10513000A1E21A2EAA1BBB1BFD010DC0AA1FBB1F9B
:10514000EE1FFF1FA217B307E407F50720F0A21B0D
:10515000B30BE40BF50B661F771F881F991F1A947A
:1051600069F760957095809590959B01AC01BD01A4
:10517000CF010895692796276927782787277827F9
:10518000089505D0332312F48A1B9B0B10C0A29FF5
:10519000B001B39FC001A39F700D811D1124911D0B
:1051A000B29F700D811D1124911D0895F0DFB7FF8E
:1051B0000895821B930B0895EADFA59F900DB49F7D
:1051C000900DA49F800D911D11240895FB01DC0119
:1051D00002C005900D9241505040D8F70895FB0150
:1051E000DC0105900D920020E1F70895FB01DC0140
:1051F00004C08D910190801921F441505040C8F7AE
:10520000881B990B0895FB01DC0102C001900D92EF
:1052100041505040D8F70895DC0101C06D934150D2
:105220005040E0F70895DC01CB01FC01F999FECF75
:1052300006C0F2BDE1BDF89A319600B40D9241501E
:105240005040B8F70895DC01A40FB51F41505040FD
:1052500040F0CB01840F951F2E9105D04150504056
:10526000D8F70895262FF999FECF92BD81BDF89AFF
:10527000019700B4021639F01FBA20BD0FB6F8949A
:0C528000FA9AF99A0FBE0895F894FFCF37
:10528C000100030102FFFF08090F0D0C0E080B189B
:10529C000173016901000000000000000000000023
:1052AC0000000000000000000000000000000000F2
:1052BC00000042010F0C0D0EFFFF08090504060744
:1052CC000A0B8300000000080000000100183200E7
:1052DC0005000020410000D242295C0F3E9A9999AA
:1052EC003E3333733F295C0F3E680004765401F75C
:1052FC00FD000175191A0C6A231B1C00001F20727B
:10530C0074433B4138393A006B6C376F06246D6E31
:10531C0070020103000E0D014500014F00FFFF0359
:10532C00000000014400010000000000000000002B
:10533C00000C0D05FFFF0400030102FF0CFFFF0F23
:10534C000D0E080506070400030102FFFF08090FF4
:10535C000D0C0E0142000143000001430001FFFF50
:10536C00040A05FF01030002090F0C0E0D080000D2
:10537C000000000000000002000001010202000019
:10538C000000000202020101000201020100020100
:10539C0000000202020101080004080607050802C9
:1053AC000103FEF2ABC4AAF1DFDFBBAFDFDF00B855
:0A53BC00AAAAAAB088C3C5C7000062
:00000001FF
