:100000000C94E4080C9401090C9401090C94010966
:100010000C9401090C9401090C9401090C94010938
:100020000C9401090C9401090C945C250C940109B1
:100030000C9401090C9401090C9401090C94010918
:100040000C9401090C9401090C9401090C94010908
:100050000C9401090C9401090C9401090C942024BE
:100060000C9401090C9401090C9401090C940109E8
:100070000C9401090C9401090C9401090C940109D8
:100080000C9401090C9401090C9401090C940109C8
:100090000C9443240C9401090C9401090C9401095B
:1000A0000C9401090C9401090C940109084AD73BEE
:1000B0003BCE016E84BCBFFDC12F3D6C74319ABD37
:1000C00056833DDA3D00C77F11BED9E4BB4C3E915B
:1000D0006BAAAABE000000803F001203410072001C
:1000E00064007700690069006E006F00000014036F
:1000F000730061006E006A00610079003900300011
:10010000300000000403090421260107000000005C
:100110006D6963726F00700000000001040004004C
:100120000000000000000104585553423130000027
:1001300000000000000000000000000000000304B8
:10014000585553423130000000000000000000000C
:1001500000000000000004045855534231300000F4
:100160000000000000000000000000000000050486
:1001700058555342313000000000000000000000DC
:100180000000000000008E000000000105000100DA
:100190008400000001000000280044006500760093
:1001A00069006300650049006E007400650072001C
:1001B0006600610063006500470055004900440087
:1001C00000004E0000007B0044004600350039006E
:1001D00030003300370044002D0037004300390061
:1001E00032002D0034003100350035002D00410073
:1001F0004300310032002D0037004400370030004A
:100200003000410033003100330044003700380033
:100210007D00000005010906A1018506050719E01A
:1002200029E71500250175019508810295017508DA
:1002300081010508190129059505750191029501AE
:1002400075039101150026FF000507190029FF9588
:100250000675088100C005010902A1018505090193
:10026000A10005091901290415002501950475014E
:1002700081027504950181030501093009310938AE
:100280001581257F950375088106050C0A3802162D
:1002900081FF267F00950175088106C0C005010910
:1002A00005A10115002501350045017501950D05D4
:1002B000091901290D8102950381010501250746D0
:1002C0003B0175049501651409398142650095016A
:1002D000810126FF0046FF00093009310932093546
:1002E0007508950481020600FF09200921092209E9
:1002F00023092409250926092709280929092A0982
:100300002B950C81020A21269520B1020A21269103
:100310000226FF0346FF03092C092D092E092F751C
:100320001095048102C012034D0053004600540092
:1003300031003000300020000401EE00DA00090234
:10034000D900060100207D0904010002FF5D0100C3
:10035000112100010025812000000000130720006A
:10036000000705810320000107050703200001099C
:1003700004030002FF5D010011210001002582201D
:10038000000000001309200000070582032000017F
:10039000070509032000010904040002FF5D0100B4
:1003A000112100010025832000000000130A200015
:1003B000000705830320000107050A032000010947
:1003C00004050002FF5D01001121000100258420C9
:1003D00000000000130B200000070584032000012B
:1003E00007050B03200001090400000003000000C2
:1003F0000921110100012289000000000000000015
:10040000000000000000000904020001FFFFFF00DF
:100410000705840220000192000001200100021063
:1004200002822804004B070D0FBA12BA12BA12BA90
:10043000120912AD1BAD1B120100020000004009A1
:1004400012822802060102DC01020F0000000101F5
:100450000115D4A20006000000FFFFFFFFFFFFFF11
:10046000FFFFFFFFFFFFFFFFFFFF00FF00FF00FF99
:1004700000FF00FF0040404005B80B04160D0E0FB2
:1004800033280B504F525151FFFFFFFFFFFF00FF7A
:1004900000FF00FF000D0080000EFF000010FFFFB6
:1004A000000F0000FF09FF450000000000000000F1
:1004B000000000000000000000000000000000003C
:1004C000000000000000000000000000000000002C
:1004D000000000000000000000000000000000001C
:1004E000000000000000000000000000000000000C
:1004F00000000000000000000000000000000000FC
:1005000000000000000000000000000000000000EB
:1005100000000000000000000000000000000000DB
:1005200000000000000000000000000000000000CB
:100530000070000000002400000002000300000022
:10054000650054FFEF0000FA80000B1282000103E7
:100550000C30C30E8C8CE914D5400213710F8E3809
:1005600083F8833000F883258EF8833000F883FF0A
:10057000FFFFFF0FFEA9D6240004001A8279A10014
:1005800000003CFFFF00000010000038836FA20055
:100590003E03304000000002CAE3093E8000002014
:1005A00000000000000000400000006000000000AB
:1005B0000C0000000C186E000006920A16C0DFFF47
:1005C000FF0256FD8CD377FFE1C496E0C5BEAA00BA
:1005D000000000FFFF0B2B000016570000035940DE
:1005E00000000000001DFA00026C1D000000003F2A
:1005F000FFDFEB003EB3B6000D227800002F3C0079
:10060000000000001942B5000039A20000B365D90E
:100610000E9FC91DCF4C3430000000500000003B3D
:10062000B67AE80064000000C80000000000001076
:100630000000001000FA921000225E000D229F00C0
:1006400001000000320000FF46000063D4000010EB
:1006500000000004D6000004CC000004CC00000020
:1006600000107200000040000000000000000000C8
:100670000600020005000700000000006400000002
:1006800000000000000005000500640020000000DC
:100690000000000000000000004000000003000017
:1006A000000032F8980000FF650000830F0000FF93
:1006B0009BFC0000000000000000000000000000A3
:1006C000000000000000000000000000000000002A
:1006D00000000000000000000000000000100040CA
:1006E000000000000000060000B26A0002000000E6
:1006F00001FB830068000000D9FC007CF1FF83004F
:1007000000000000650000006403E80064002800A9
:100710000000250000000016A000000000100000EE
:10072000001000002F0000000001F4000010000085
:10073000280000FFFF4581FFFFFA72000000000063
:10074000000000004400050005BAC6004778A2007A
:10075000000001000000000000060000000014007E
:1007600000254D002F706D000005AE000C02D0007A
:100770000000000000000000000000000000000079
:100780001B0000000000000000000000000000004E
:1007900064000000080000000000000000000000ED
:1007A0000000000000000000000000000000000049
:1007B0000000000000000000000000000000000039
:1007C0000000000000000000000000000000000029
:1007D0000000000000000000000000000000000019
:1007E0000000000000000000000000000000000009
:1007F0001B00000000000000000000000E000E00C2
:10080000000AC70004000000000032FFFFFF9C0048
:10081000000B2B000000020000000100000064FF3C
:10082000E5000000000000000000000000000000E3
:1008300000000100000000000100000000000000B6
:100840000180000001800000018000002426D30008
:1008500000000000000000000600100096003C00B0
:100860000000000000000000000000000000000C7C
:100870000A4E68CDCF770950166759C619CE820047
:100880000000000000000000000000000000000068
:100890000000000000000017D784000300000000E3
:1008A00000000000000000C7938F9D1E1B1C190054
:1008B0000000000000000000000000000000000038
:1008C0000000000000000002031885000040000046
:1008D00000000300000003000000000000000040D2
:1008E0000000000000000000000000000000000008
:1008F00000000000000000000000000000000000F8
:1009000000000000000000000000000000000000E7
:10091000000000677DDF7E72902E554CF6E6880061
:10092000000000000000000000000000000000D8EF
:10093000DCB4B8B0D8B9ABF3F8FAB3B7BB8E9EAE9F
:10094000F132F51BF1B4B8B08097F1A9DFDFDFAA6F
:10095000DFDFDFF2AAC5CDC7A90CC92C97F1A989A1
:10096000264666B28999A92D557DB0B08AA89636DB
:100970005676F1BAA3B4B280C0B8A89711B28398E2
:10098000BAA3F0240844106418B2B9B49883F1A350
:1009900029557DBAB5B1A38393F0002850F5B2B6BE
:1009A000AA839328547CF1B9A3829361BAA2DADEB8
:1009B000DFDB819AB9AEF5606870F1DABAA2DFD9EF
:1009C000BAA2FAB9A38292DB31BAA2D9BAA2F8DFED
:1009D00085A4D0C1BBAD83C2C5C7B8A2DFDFDFBA73
:1009E000A0DFDFDFD8D8F1B8AAB38DB4980D355D9C
:1009F000B2B6BAAF8C96198F9FA70E161EB49AB8CE
:100A0000AA872C547CBAA4B08AB691325676B284A6
:100A100094A4C808CDD8B8B4B0F19982A82D557D5A
:100A200098A80E161EA22C547C92A4F02C5078F19B
:100A300084A898C4CDFCD80DDBA8FC2DF3D9BAA6A8
:100A4000F8DABAA6DED8BAB2B68696A6D0F3C8410E
:100A5000DAA6C8F8D8B0B4B882A892F52C54889811
:100A6000F135D9F418D8F1A2D0F8F9A884D9C7DFA4
:100A7000F8F883C5DADF69DF83C1D8F40114F1A87F
:100A8000824EA884F311D182F5D992289788F10972
:100A9000F41C1CD884A8F3C0F9D1D99782F129F4A9
:100AA0000DD8F3F9F9D1D982F4C203D8DEDF1AD810
:100AB000F1A2FAF9A88498D9C7DFF8F8F883C7DA61
:100AC000DF69DFF883C3D8F40114F198A8822EA857
:100AD00084F311D182F5D992509788F109F41CD88A
:100AE00084A8F3C0F8F9D1D99782F149F40DD8F36D
:100AF000F9F9D1D982F4C403D8DEDFD8F1AD8898F2
:100B0000CCA809F9D98292A8F57CF1883ACF944A09
:100B10006E98DB6931DAADF2DEF9D88795A8F2215B
:100B2000D1DAA5F9F417D9F1AE8ED0C0C3AE82C622
:100B300084C3A88595C8A588F2C0F1F4010EF18E92
:100B40009EA8C63E56F554F18872F40115F19845F9
:100B5000856EF58E9E0488F142985A8E9E068869AD
:100B6000F4011CF1981E1108D0F504F11E97020241
:100B7000983625DBF9D985A5F3C1DA85A5F3DFD849
:100B80008595A8F309DAA5FAD88292A8F578F188B4
:100B90001A849F26889821DAF41DF3D8879F39D1CB
:100BA000AFD9DFDFFBF9F40CF3D8FAD0F8DAF9F9B2
:100BB000D0DFD9F9D8F40BD8F3879F39D1AFD9DF7B
:100BC000DFF41DF3D8FAFCA869F9F9AFD0DADEFA40
:100BD000D9F88F9FA8F1CCF398DB45D9AFDFD0F8D7
:100BE000D8F18F9FA8CAF38809DAAF8FCBF8D8F273
:100BF000AD978D0CD9A5DFF9BAA6F3FAF412F2D8A5
:100C0000950DD1D9BAA6F3FADAA5F2C1BAA6F3DFE7
:100C1000D8F1BAB2B68696A6D0CAF349DAA6CBF80E
:100C2000D8B0B4B8D8AD84F2C0DFF18FCBC3A8B2CE
:100C3000B68696C8C1CBC3F3B0B48898A821DB713F
:100C40008D9D71859521D9ADF2FAD88597A828D9BF
:100C5000F408D8F28D29DAF405D9F285A4C2F2D8C5
:100C6000A88D9401D1D9F411F2D88721D8F40AD8EB
:100C7000F28498A8C801D1D9F411D8F3A4C8BBAFA5
:100C8000D0F2DEF8F8F8F8F8F8F8F8D8F1B8F6B5D8
:100C9000B9B08A95A3DE3CA3D9F8D85CA3D9F8D81B
:100CA0007CA3D9F8D8F8F9D1A5D9DFDAFAD8B1857B
:100CB00030F7D9DED8F830ADDADED8F2B48C99A3AB
:100CC0002D557DA083DFDFDFB591A0F629D9FBD8B4
:100CD000A0FC29D9FAD8A0D051D9F8D8FC51D9F91B
:100CE000D879D9FBD8A0D0FC79D9FAD8A1F9F9F9EB
:100CF000F9F9A0DADFDFDFD8A1F8F8F8F8F8ACDE10
:100D0000F8ADDE8393AC2C547CF1A8DFDFDFF69DD9
:100D10002CDAA0DFD9FADB2DF8D8A850DAA0D0DE83
:100D2000D9D0F8F8F8DB55F8D8A878DAA0D0DFD910
:100D3000D0FAF8F8F8F8DB7DF8D89CA88CF530DB11
:100D400038D9D0DEDFA0D0DEDFD8A848DB58D9DF25
:100D5000D0DEA0DFD0DED8A868DB70D9DFDFA0DF6F
:100D6000DFD8F1A888902C547C98A8D05C38D1DAD0
:100D7000F2AE8CDFF9D8B087A8C1C1B188A8C6F996
:100D8000F9DA36D8A8F9DA36D8A8F9DA36D8A8F9CF
:100D9000DA36D8A8F9DA36D8F78D9DADF818DAF238
:100DA000AEDFD8F7ADFA30D9A4DEF9D8F2AEDEFA6C
:100DB000F983A7D9C3C5C7F1889BA77AADF7DEDF52
:100DC000A4F8849408A797F300AEF29819A488C6F3
:100DD000A39488F632DFF28393DB09D9F2AADFD835
:100DE000D8AEF8F9D1DAF3A4DEA7F1889B7AD8F36C
:100DF0008494AE19F9DAAAF1DFD8A881C0C3C5C7B7
:100E0000A39283F628ADDED9F8D8A350ADD9F8D88F
:100E1000A378ADD9F8D8F8F9D1A1DADEC3C5C7D81F
:100E2000A18194F818F2B089ACC3C5C7F1D8B8B4A1
:100E3000B09786A8319B069907AB9728889BF00C42
:100E4000201440B0B4B8F0A88A9A285078B79BA86C
:100E5000295179247059446938644831F1BBAB8811
:100E6000002C547CF0B38BB8A804285078F1B088DB
:100E7000B49726A85998BBABB38B02264666B0B888
:100E8000F08A9CA82951798B2951798A2470598B31
:100E90002058718A4469388B3940688A6448318B9C
:100EA00030496088F1AC002C547CF08CA8042850A8
:100EB00078F1889726A85998AC8C02264666F08966
:100EC0009CA8295179247059446938644831A9880B
:100ED00009205970AB11384069A8193148608CA8B5
:100EE0003C415C207C00F187981986A86E767EA92B
:100EF00099882D557DD8B1B5B9A3DFDFDFAED0DF3E
:100F0000AAD0DEF2ABF8F9D9B087C4AAF1DFDFBB13
:100F1000AFDFDFB9D8B1F1A3978E60DFB084F2C83C
:100F2000F8F9D9DED89385F14AB183A308B5839A3D
:100F30000810B79F10D8F1B0BAAEB08AC2B2B68E60
:100F40009EF1FBD9F41DD8F9D90CF1D8F8F8AD61B0
:100F5000D9AEFBD8F40CF1D8F8F8AD19D9AEFBDF57
:100F6000D8F416F1D8F8AD8D61D9F4F4ACF59C9CA9
:100F70008DDF2BBAB6AEFAF8F40BD8F1AED0F8ADDF
:100F800051DAAEFAF8F1D8B9B1B6A3839C08B9B179
:100F9000839AB5AAC0FD3083B79F10B58B93F20238
:100FA00002D1ABDADED8F1B080BAABC0C3B284C133
:100FB000C3D8B1B9F38BA391B609B4D9ABDEB0876E
:100FC0009CB9A3DDF1B38B8B8B8B8BB087A3A3A3D1
:100FD000A3B28BB69BF2A3A3A3A3A3A3A3A3A3A390
:100FE000F1B087B59AA3F39BA3A3DCBAACDFB9A396
:100FF000A3A3A3A3A3A3A3A3A3A3A3A3A3A3A3D88C
:10100000D8D8BBB3B7F1AAF9DAFFD9809AAA28B425
:101010008098A720B79787A86688F07951F1902C1F
:10102000870CA781976293F07171608594012951B3
:101030007990A5F1284C6C870C95188578A383903E
:10104000284C6C886CD8F3A28200F210A892198008
:10105000A2F2D926D8F188A84DD948D896A83980C7
:10106000D93CD89580A839A68698D92CDA87A72CA0
:10107000D8A8899519A980D938D8A88939A980DA3A
:101080003CD8A82EA83990D90CD8A8953198D90C5D
:10109000D8A809D9FFD801DAFFD89539A9DA26FFEF
:1010A000D890A80D8999A810809821DA2ED889990E
:1010B000A83180DA2ED8A886963180DA2ED8A88773
:1010C0003180DA2ED8A88292F34180F1D92ED8A8A7
:1010D00082F31980F1D92ED882ACF3C0A28022F11C
:1010E000A62EA72EA92298A829DAACDEFFD8A2F254
:1010F0002AF1A92E8292A8F23180A696F1D900ACED
:101100008C9C0C30ACDED0DEFFD88C9CACD010AC0C
:10111000DE8092A2F24C82A8F1CAF235F19688A63E
:10112000D900D8F1FF0E0C0D0F08FFFF09050406CA
:10113000070A0B0F0C0D0E08FFFF09050406070A2E
:101140000B0F0C0D0E0908FFFF050406070A0B0024
:10115000000000250028002B002E003100000000B8
:1011600000240027002A002D003000070605040196
:1011700000080A0B0C0D09000000002300260029BE
:10118000002C002F000404040404030405020202DE
:101190000204030202020206060606060604040210
:1011A0000202040404080201104080401020408024
:1011B00040800802040180402010020110801020AD
:1011C000404020FF080F0C0011241FBECFEFDAE0D3
:1011D000DEBFCDBF12E0A0E0B1E0EEEAFEE502C066
:1011E00005900D92AA33B107D9F727E0AAE3B2E040
:1011F00001C01D92A938B207E1F70E9415260C9490
:10120000552F0C940000F89488E198E00FB6F894FC
:10121000A895809360000FBE90936000FFCF8EBDB5
:101220000DB407FEFDCF0895AF92BF92DF92EF920B
:10123000FF920F931F93CF93DF93FC01DA018CE1B0
:1012400090E0EB019983888384E08083D0908807C5
:1012500084E3E82E81E0F82E5F0130E020E061E0D9
:1012600070E0E70189917E018F3F09F44BC0AB012B
:1012700002C0440F551F8A95E2F78D919C911197FA
:101280004823592301811281CB01022E02C0880F0D
:10129000991F0A94E2F74115510549F1802B912BD2
:1012A000928381832D1570F59091A3069B3121F5D2
:1012B000243010F5C9018D539E4EEC0188818B01BD
:1012C00002C0000F111F8A95E2F78D919C91119732
:1012D0008023912301E010E0452B11F400E010E0A1
:1012E000082B192B81E0012B51F480E008C0809578
:1012F000909580239123D4CF81E0452BB1F3819544
:10130000E50188872F5F3F4FDFEFAD1ABD0A2E3012
:10131000310509F0A6CFCC91CF7088E0CB3020F416
:10132000D0E0C95EDD4F888183831A962D913C9170
:101330001B978091A3068B3109F056C019968C91AA
:1013400019978058868387EF91E02F3F3F4711F42C
:1013500084E891E0958B848B8DE787838091A30649
:101360008F3119F08A3109F05EC081819281129625
:101370002C911297233308F452C0806192838183A9
:101380008181928113962C911397233308F449C0DD
:1013900080629283818312968C9112978487139630
:1013A0008C911397858715968C9115978058848317
:1013B00017969C9117979058958319968C91199729
:1013C000805886831B968C91805887832091A30632
:1013D0002A3169F1DF91CF911F910F91FF90EF902A
:1013E000DF90BF90AF9008958D3119F0803209F0F1
:1013F000B5CF19969C91199780E8891B86838181C6
:1014000092812F3F3F4749F48062928381831296F5
:101410009C91129780E8891BA0CF8F7DF6CF8F7E9D
:10142000ADCF8F7DB6CF80E884838583D3CF909571
:10143000958380958783CECFCF93DF93FC01DA012C
:1014400086E090E0EB019983888385E080831596A0
:101450002C911597822F922F990F990B97FD079634
:1014600053E0959587955A95E1F7828317962C91CD
:101470001797822F922F990F990B9195819591092A
:1014800097FD079643E0959587954A95E1F7838305
:101490001B962C911B97822F922F990F990B97FDDA
:1014A000079633E0959587953A95E1F784831996E9
:1014B0002C911997822F922F990F990B97FD0796D0
:1014C00023E0959587952A95E1F785832D913C91A9
:1014D0001197818134FF14C08160818381812D91B6
:1014E0003C91119735FF0EC08260818381812D91DF
:1014F0003C9136FF09C088608183DF91CF910895C8
:101500008E7FEBCF8D7FF1CF877FF6CFCF92DF92AB
:10151000EF92FF920F931F93CF93DF93EC016B0138
:10152000BA01A901F801C70120812630E0F4209713
:1015300071F000271127041B150B601771073CF48D
:1015400031962E0D3F2D311DD9011396CC93C11428
:10155000D10449F04617570734F42081820F911DBA
:10156000DC011396CC92DF91CF911F910F91FF90E8
:10157000EF90DF90CF9008958F929F92AF92BF929D
:10158000CF92DF92EF92FF920F931F93CF93DF934F
:101590000F92CDB7DEB76C014A0189E090E0DB0124
:1015A0008D939C9386E0F6018083E4EDF6E050E0B5
:1015B00040E080E061E070E091919923A1F0D401D6
:1015C000AD90BC909B01042E02C0220F331F0A94E1
:1015D000E2F72A213B21232B31F0D601A80FB11DC0
:1015E00013969C938F5F4F5F5F4F4031510509F019
:1015F0005EC08983A0908A06B0908B06F401448176
:1016000055816091E70670E08091E60676018E01D3
:101610000F5F1F4F950190E079DFD40116964D9131
:101620005C916091E90670E08091E806950190E098
:101630006DDFF401408551856091EB0670E080918B
:10164000EA06950190E062DFD4011A964D915C9113
:101650006091ED0670E08091EC06950190E056DF18
:10166000A0908806B0908906F401428150E0609114
:10167000E40670E0950190E080E048DFD401139625
:101680004C9150E06091E50670E0950190E080E0BB
:101690003DDF0F90DF91CF911F910F91FF90EF9061
:1016A000DF90CF90BF90AF909F908F90089586303D
:1016B00009F082CF9ECFCF93DF9300D000D0CDB77B
:1016C000DEB72FB7F8948091840690918506A0919B
:1016D0008606B09187062FBF2227382F492F5A2F11
:1016E000CA01B9012DE730E040E050E00E94A92E88
:1016F000CA01B9010F900F900F900F90DF91CF9119
:101700000895CF93DF9300D000D0CDB7DEB73FB7B9
:10171000F8948091840690918506A0918606B091F8
:10172000870626B5A89B05C02F3F19F00196A11D7D
:10173000B11D3FBFBA2FA92F982F8827820F911D67
:10174000A11DB11D9C01AD0163E0220F331F441F99
:10175000551F6A95D1F7CA01B9010F900F900F90EC
:101760000F90DF91CF910895CF92DF92EF92FF9289
:10177000CF93DF9300D000D000D0CDB7DEB76B01A0
:101780007C01BFDF6D837E83BCDF69837A838B83BB
:101790009C8389819A812D813E81821B930B883E97
:1017A000934090F381E0C81AD108E108F1082D8137
:1017B0003E8128513C4F3E832D83C114D104E10466
:1017C000F10411F726960FB6F894DEBF0FBECDBF19
:1017D000DF91CF91FF90EF90DF90CF900895DC01E3
:1017E000862F90E0603100F5E091A306F0E0E25131
:1017F000FE4F2081213049F4693038F0FD01E80FB7
:10180000F91FE45AFF4F8081089581E090E002C003
:10181000880F991F6A95E2F72D913C9182239323BB
:10182000892BE1F480E008952091CE06633168F0C1
:10183000FC017097EE0FFF1FEA0FFB1F81E0408154
:1018400051812417150670F70895FD01E80FF91F5F
:101850003E9781E090812917B8F3E4CF80E4F4CF7C
:101860007F928F929F92AF92BF92CF92DF92EF9230
:10187000FF920F931F93CF93DF93EC017B01742EA4
:10188000852E87E0888346E4C42E47E0D42E0CE8FA
:1018900016E0912CB12CF60181916F01882369F13A
:1018A00030EBA32E813011F420E9A22E692D872D73
:1018B000982D95DF8695F80190819817F1F0F60143
:1018C00043A59589F80180832B2D30E054E0B59E27
:1018D000F0011124EC0FFD1F5A2D52955F705183BA
:1018E000A42AA2829383F9013196EE0FFF1FEE0F17
:1018F000FF1FEC0FFD1F8083B3940F5F1F4F939466
:1019000086E19812C8CFE4E0BE9EC0011124019682
:10191000F70191838083DF91CF911F910F91FF9009
:10192000EF90DF90CF90BF90AF909F908F907F907F
:10193000089590E0FC01EC55FE4E2491FC01EB571C
:10194000FE4EE491EE2359F0F0E0EE0FFF1FE95850
:10195000FE4EA591B491EC91E22381E009F480E080
:1019600090E00895E82FF0E0E559FE4EE491909163
:101970007B008E2F880F880F80729F7D892B80932C
:101980007B00E770E064E0937C0080917A008064E3
:1019900080937A0080917A0086FDFCCF8091780058
:1019A00090917900089580917A0086FDFCCF81E0C6
:1019B000809333010895CF93DF9390E0FC01EC55C1
:1019C000FE4E24918B579E4EFC0184918823D1F0CA
:1019D00090E0880F991FFC01E35AFE4EA591B49147
:1019E000FC01E15BFE4EC591D491613071F49FB76B
:1019F000F8948C91209582238C93888128232883C6
:101A00009FBF7894DF91CF910895623051F49FB7D2
:101A1000F8943C91822F809583238C93E8812E2B20
:101A2000EECF8FB7F894EC912E2B2C938FBFE9CF8C
:101A30000F931F93CF93DF93FC01AB01AEEDB1E0A9
:101A400030E020E061E070E08D918F3FC1F0C08117
:101A5000D1818B0102C0000F111F8A95E2F7C801E6
:101A60008B01022E02C0000F111F0A94E2F704231B
:101A70001523012B71F08C2B9D2B918380832F5F7D
:101A80003F4F2031310501F7DF91CF911F910F9129
:101A90000895809590958C239D23EFCF0F931F93EE
:101AA000CF93DF93EC018B01FB0180818052990B76
:101AB000880F880F1C828D8381818052990B880F3B
:101AC000880F1E828F8364817581609570957E7FFB
:101AD000CE01AEDF8091A306833280F0F8018381CE
:101AE00081FF0CC08095807E928196959E739A317D
:101AF000E0F4FE01E859FF4F9231E1F088819981CD
:101B0000F801258123FD18C090649983888388811A
:101B10009981F801258125FD11C0906899838883FA
:101B2000DF91CF911F910F910895FE01EC59FF4F66
:101B30009E3121F78083E2CF9F7BE7CF9F77EECF67
:101B4000FC01DB018C91880F880F805814828583FB
:101B500011968C911197880F880F80581682878371
:101B600013962C9113972F712051330B322F22276C
:101B7000330F330F31952195310931872087149622
:101B80006D917C9160957095CF0152CFFC01DB0186
:101B90008C918058990B1482858312968C911297A0
:101BA0008058990B1682878311968C9111978058D3
:101BB000990B1086818713968C9113978058990BF7
:101BC0001286838714968C911497828315968C9134
:101BD0001597838316966D917C9160957095CF01D2
:101BE00027CFDC01FB01808121812295269526707B
:101BF000982F9695969596959871292B9281991F75
:101C00009927991F292B880F880F805814961C92AA
:101C1000149715968C9315978181880F880F80589B
:101C200016961C92169717968C931797948133816A
:101C300090FF38C0832F90E0809590958F71992701
:101C4000809619969C938E931897022E000C330B56
:101C5000828180FF2DC08FE390E0821B930B1B9647
:101C60009C938E931A97828186958695887193812D
:101C7000929596959770892B12968C9312978281E4
:101C800090E0959587958F7013968C931397648148
:101C90007581762767277627609570956D7C7376BA
:101CA000CD01C6CE3F7180E290E0831B9109C9CF80
:101CB00080E290E0D2CFFC01DB0112968C9112976A
:101CC00090E0982F882788279F702C91822B9583EE
:101CD000848312968C91129720E1829FC001112477
:101CE00088279F7011962C911197822B978386835A
:101CF00013968C91139783838081918115962C91F3
:101D0000159720FF17C09061918380838081918116
:101D100015962C91159721FF0FC0906291838083B7
:101D20008081918115962C9122FD08C09064918349
:101D3000808308959F7EE8CF9F7DF0CF9F7BF7CF74
:101D4000FC01DB018D919C91119795838483129600
:101D50008D919C9113979783868314968C9183839E
:101D60000895FB0164817581762767277627609542
:101D700070955ECEE0918006F09181068081909111
:101D80007F06892B8083E0917D06F0917E0680811D
:101D900090917C06892B8083E0917A06F0917B06F6
:101DA000808190917906892B80830895CF93DF936A
:101DB000EC018091CC06BDDD892B39F090E080E00C
:101DC0009B878A87DF91CF9108958FEF9FE7F8CFA8
:101DD0007F928F929F92AF92BF92CF92DF92EF92BB
:101DE000FF920F931F93CF93DF93CDB7DEB7659725
:101DF0000FB6F894DEBF0FBECDBF1092380610921A
:101E00003706D1DD1092C6051092C5051092F80470
:101E10001092F70402EA16E0D12C41E1C42ECE0163
:101E200001967C01D701EC2D1D92EA95E9F7DB8242
:101E3000D8019096EC91EF3F09F443C0B5E0DB1276
:101E40000CC0A091A306B0E0A251BE4F8C9182308D
:101E500021F48091A4068330A1F5D80191968C914C
:101E60008D83E23108F0E251F0E0E559FE4EB49086
:101E700061E082E18B0D9FDD90917B008B2D880FBF
:101E8000880F80729F7D892B8983EB2DE770E0643A
:101E9000EA838091C5059091C6059C012F5F3F4F55
:101EA0003093C6052093C505C89ED001C99EB00DCC
:101EB0001124A750BB4FF7018C2D01900D928A95EC
:101EC000E1F7D3940E5F1F4FB6E0DB12ABCF8091EA
:101ED000A206823009F09FC0E2EBF6E0FD8BEC8BAE
:101EE00010E000E088248394912CAC89BD898D9109
:101EF000BD8BAC8B8F3F09F488C091E00C3011058D
:101F000038F49801285031092230310508F090E06A
:101F100091700B8B282F30E0F901EC55FE4EB491F7
:101F2000BA8BF901EB57FE4EE491F0E0EE0FFF1F84
:101F3000E958FE4EC590D4905401002E02C0AA0C60
:101F4000BB1C0A94E2F7992331F077247394209113
:101F5000A606213009F0712CE72DE1707E2EE0916C
:101F6000A306F0E0E251FE4F4081413009F067C026
:101F7000992309F464C02091D006F8E02F9F9001C6
:101F80001124D701E7E01D92EA95E9F78B834A8790
:101F9000FA89FB87DD86CC86BF86AE86788A4B8938
:101FA000498B39872887823108F08251E82FF0E089
:101FB000E559FE4ED49061E082E18D0DFCDC9091FC
:101FC0007B008D2D880F880F80729F7D892B8983E0
:101FD000ED2DE770E064EA838091C5059091C60518
:101FE0009C012F5F3F4F3093C6052093C505E1E16B
:101FF000E89FD001E99FB00D1124A750BB4FF70116
:1020000081E101900D928A95E1F70F5F1F4F00313A
:10201000110509F06ACF65960FB6F894DEBF0FBEC2
:10202000CDBFDF91CF911F910F91FF90EF90DF9087
:10203000CF90BF90AF909F908F907F90089562E077
:10204000711061E0B8DC2091370630913806C90183
:102050000196909338068093370647E0429FF0013F
:10206000439FF00D1124E953FA4F8A898083D2826D
:10207000C182B482A38275829B899683C6CF9091D8
:10208000A406913021F49EEF980F923058F0909171
:10209000A606923029F492EF980F81E0943008F070
:1020A00080E0089581E00895CF938091F60488231D
:1020B00059F0C2E08C2FE3DF811103C061E08C2F67
:1020C0007ADCCF5FC831B1F71092F5041092F604B4
:1020D000CF917ECEEF92FF921F93CF93DF93CDB738
:1020E000DEB761970FB6F894DEBF0FBECDBF9C017F
:1020F0008091F504882351F1FDEDEF2EF4E0FF2EE1
:1021000010E0812F2FDCD7012D913D917D01821BA5
:10211000930B97FF03C09195819591090B9794F0CC
:1021200057DE1E5E1093DC041092F50461960FB624
:10213000F894DEBF0FBECDBFDF91CF911F91FF900E
:10214000EF9008951F5F1C30E1F6F0CF8091F60408
:10215000882399F012E0812F92DF81110AC0812F2C
:10216000E8DB892B31F4A0DF1093DC041092F60435
:10217000DDCF1F5F183179F7D9CF4091C505509158
:10218000C6054115510509F45DC0809133018111E7
:102190003AC080917A0086FD55C080917800909178
:1021A00079006091F7047091F804A1E1A69FF00115
:1021B000A79FF00D1124E750FB4FA185A1110CC082
:1021C000E481EE2319F09195819591099250E6E012
:1021D000880F991FEA95E1F7DB011196B093F80497
:1021E000A093F70411E1169FF001179FF00D112441
:1021F000E750FB4F968385834A175B0721F41092C3
:10220000F8041092F704109233014091F7045091B2
:10221000F80481E1849FF001859FF00D1124E750BF
:10222000FB4FDE01119601900D928A95E1F78981AD
:1022300080937B008A8180937C0080917A00806407
:1022400080937A00609137067091380680E017E03D
:10225000482F50E046175707DCF140E061E1842F3A
:10226000042E000C990BE091C505F091C6058E1760
:102270009F070CF05BCF689FF001699FF00D112460
:10228000E750FB4FDE011196862F01900D928A9543
:10229000E1F78A855B818823E9F1EE81FF818885FA
:1022A00099858E179F0750F4F90180819181EE8501
:1022B000FF858E2B9F2BD9018D939C938E819F81BF
:1022C000F901E50FF11DE45AFF4F80834F5FC7CF3F
:1022D000149FF001159FF00D1124E953FA4FA181CD
:1022E000B2819C9140819423819FD0011124A953F4
:1022F000BA4F15964C9194130BC0D9014D915C9136
:1023000011970380F481E02D4E2B5F2B4D935C934E
:102310008F5F9ECF852F90E0523050F0AE81BF810D
:10232000880F991FF901E80FF91FB183A083CECF61
:10233000EE81FF81820F931FDC011296FC93C6CFC2
:10234000CF92DF92EF92FF92CF936B017C01C42F6B
:1023500060E080E130DB62E08EE02DDB60E08FE06A
:102360002ADBE5EBF1E18491E6E9F1E1E491EE238A
:1023700069F0F0E0EE0FFF1FE15BFE4EA591B49116
:102380009FB7F894EC91E82BEC939FBF60E081E15C
:1023900012DBC11489E0D8068DE3E806F104C1F12F
:1023A00080E8C81684E8D8068EE1E806F10490F5C6
:1023B00080E4C81682E4D8068FE0E806F10460F5F0
:1023C00080E2C81681EAD80687E0E806F10430F515
:1023D00080E9C81680EDD80683E0E806F10400F530
:1023E00088E4C81688EED80681E0E806F104D0F447
:1023F00087E091E08927482F4695C42BC065CCBD66
:1024000081708DBDCF91FF90EF90DF90CF900895B8
:1024100080E0EFCF81E0EDCF82E0EBCF83E0E9CF4A
:1024200084E0E7CF85E0E5CFCF93DF9300D000D005
:10243000CDB7DEB7DB019C010E94D22E69837A837F
:102440008B839C83DC01CB019F77AA27BB27811557
:102450009044A105B105D1F080E090E4A0E0B0E0A7
:1024600029813A814B815C81820F931FA41FB51F84
:102470002FE0B595A795979587952A95D1F70F9059
:102480000F900F900F90DF91CF91089580E090E032
:10249000DC01E6CFFC01CB012091400330914103E8
:1024A0002617370790F0009729F42091E8002E773F
:1024B0002093E80040E0009751F4411108C080915A
:1024C000E80082FF30C080E00895C901F3CF2BB54A
:1024D0002223A1F12530A1F12091E80023FD2CC099
:1024E0002091E80022FDEBCF2091E80020FFE3CF10
:1024F0003091F3002091F200009719F0203431055B
:1025000058F041E02034310509F040E02091E80026
:102510002E772093E800CFCF41914093F1000197AF
:102520002F5F3F4FE9CF8BB5882341F0853041F0D5
:102530008091E80083FFC3CF81E0089582E0089591
:1025400083E00895FC01CB012091400330914103C9
:102550002617370790F0009729F42091E8002E778E
:102560002093E80040E0009751F4411108C08091A9
:10257000E80082FF31C080E00895C901F3CF2BB598
:102580002223A9F12530A9F12091E80023FD2DC0D7
:102590002091E80022FDEBCF2091E80020FFE3CF5F
:1025A0003091F3002091F200009719F020343105AA
:1025B00058F041E02034310509F040E02091E80076
:1025C0002E772093E800CFCF44914093F1003196CD
:1025D00001972F5F3F4FE8CF8BB5882341F08530BF
:1025E00041F08091E80083FFC2CF81E0089582E04E
:1025F000089583E0089580913A0387FF11C0809188
:10260000E80082FF06C08091E8008B778093E800A5
:1026100003C08BB58111F3CF08958BB58823E1F307
:102620008091E80080FFF9CF8091E8008E77EECFAF
:102630002091E4003091E50095E6A9012091EC009D
:10264000822F817020FF06C08091E80080FF06C0C5
:1026500080E008952091E80022FD19C08BB5882301
:1026600089F0853089F08091EB0085FD0FC02091C5
:10267000E4003091E5004217530701F39150E9F669
:1026800084E0089582E0089583E0089581E008954C
:102690008093E900EBEEF0E0808181608083EDEED5
:1026A000F0E010826093EC0040838091EE0008958A
:1026B00085ED8093BC008FEF9FE72091BC0024FD47
:1026C00003C01092AB0302C00197B9F70895CF93EE
:1026D000DF93DC01FA0184E190E0EB0199838883C8
:1026E0001C9211968C93119712968CE001900D928A
:1026F0008A95E1F7DF91CF910895CF93282FCB01F1
:10270000C42F4FEF5FE7C13238F0C0E08C2FCF917C
:10271000089541505109C9F33091AB033111F9CFFC
:1027200031E03093AB033093AA034FEF409385031E
:102730001092A7034C0F4093A6033093A803309147
:10274000A803220F232B2093A8032091A90322235F
:1027500059F11092A9032091A8032093BB002FEFF9
:102760003FE74091BC0043FD16C025EC2093BC0020
:102770002FEF3FE74091AB034130C1F02091A70319
:102780002C1710F4C091A7034C2F50E066E873E0BB
:102790000E94142FBBCF2150310909F4B6CF4091CC
:1027A000A8034093BB00DDCF25EEE0CF21503109D7
:1027B00009F7ABCFCF93DF93C82F8FEF9FE741325D
:1027C00028F0D1E048C0019709F454C0D091AB0380
:1027D000D111F9CF82E08093AB0381E08093AA030B
:1027E0008FEF809385031092A7034093A60350E0D8
:1027F00086E893E00E94142F1092A8038091A8030A
:10280000CC0FC82BC093A8038091A903882371F132
:102810001092A9038091A8038093BB008FEF9FE7DC
:102820002091BC0023FD1BC085EC8093BC008FEF82
:102830009FE72091AB032230D9F0809185038F3F31
:1028400051F080918503D2E0803229F08091850398
:10285000D3E0803379F48D2FDF91CF9108950197E4
:1028600049F02091A8032093BB00DACF85EEDDCF9D
:102870000197F9F6D4E0EFCFEF92FF920F931F93F9
:10288000CF93DF930F92CDB7DEB7182F6983E42E75
:10289000F22E032F41E0BE016F5F7F4F8BDF81116E
:1028A00013C04E2D6F2D702F812F27DF91E08111E6
:1028B00001C090E0892F81700F90DF91CF911F911F
:1028C0000F91FF90EF90089580E0F5CF9F92AF9227
:1028D000BF92CF92DF92EF92FF920F931F93CF930D
:1028E000DF9300D000D000D0CDB7DEB78D839E83BC
:1028F0008B01DB018C918058990BED81FE81148254
:10290000858312968C9112978058990B1682878333
:102910008091A906882309F4D9C01596DC901597F3
:102920008D2D90E01396EC901397F4E0EF9E9001BC
:1029300011247C0144E0F594E7944A95E1F743E0E3
:10294000E422FF24E22AF32A14962C9154E0259FD6
:102950009001112495958795959587958370992772
:10296000822B932B9C0150E040E029833A834B83D8
:102970005C83CA01B9010E94362E20E030E84FEF97
:1029800053E469837A838B839C8369817A818B8109
:102990009C810E949C2D962EA72EB82EC92ED80160
:1029A00012968C91B4E08B9FC0011124D294D694DE
:1029B000D69463E0D6228D299C0150E040E0298323
:1029C0003A834B835C83CA01B9010E94362E20E012
:1029D00030E84FEF53E469837A838B839C8369816A
:1029E0007A818B819C810E949C2D292D3A2D4B2D23
:1029F0005C2D69837A838B839C8369817A818B8147
:102A00009C810E94C82B20EE3EE245E652E4698399
:102A10007A838B839C8369817A818B819C810E94DC
:102A2000032E69837A838B839C8369817A818B816E
:102A30009C810E94052EAD81BE8119967C936E9378
:102A40001897970150E040E029833A834B835C83D9
:102A5000CA01B9010E94362E20E030E84FEF53E45E
:102A600069837A838B839C8369817A818B819C8142
:102A70000E949C2D292D3A2D4B2D5C2D69837A8344
:102A80008B839C8369817A818B819C810E94C82B76
:102A900020EE3EE245E652EC69837A838B839C8389
:102AA00069817A818B819C810E94032E69837A835C
:102AB0008B839C8369817A818B819C810E94052E06
:102AC000AD81BE811B967C936E931A97ED81FE813A
:102AD00080819181D80115962C9120FD21C09061B3
:102AE00091838083AD81BE818D919C911197F80176
:102AF000258121FD19C090628D939C9326960FB677
:102B0000F894DEBF0FBECDBFDF91CF911F910F9123
:102B1000FF90EF90DF90CF90BF90AF909F9008957F
:102B20009F7EED81FE81DCCF9F7DAD81BE81E4CFB4
:102B30009C01FB0190E080E0841708F008955AE5BD
:102B40002115310521F0D901A80FB91F5C915EBD97
:102B500000000DB407FEFDCF5EB5519358E25A95C3
:102B6000F1F70196E9CF0F931F93CF93DF938C0179
:102B7000D62FE0917A06F0917B06908180917906BC
:102B800080958923808388E28A95F1F743E069E59F
:102B900076E0C801CDDF80915A068F3F49F4D0E03E
:102BA000C0E0E8D8CE01DF91CF911F910F91089539
:102BB00090915B069A3511F09111F1CF8F70C82F6B
:102BC000CC0FD33039F04DEF4D0F6CE576E0C801F6
:102BD0000396AEDFCD5F4C2F4D1BCD1761F06D2FEF
:102BE00070E0CB01840F911D8197CCF6675A794F25
:102BF00090E080E09DDFC9E5D6E0D3CFCF92DF92B1
:102C0000EF92FF920F931F93CF93DF9300D000D0EA
:102C100000D0CDB7DEB78D839E83062F0E945B0B5D
:102C20006B017C0110E0602F8D819E819CDFFC0197
:102C3000892B51F01F5F8D819E818A5D914059F5EE
:102C40008181807F803F81F16AE070E080E090E0E8
:102C50000E94B40B0E945B0B69837A838B839C83F5
:102C6000DC01CB018C199D09AE09BF098B3F910591
:102C7000A105B105C0F280E026960FB6F894DEBF3C
:102C80000FBECDBFDF91CF911F910F91FF90EF90BD
:102C9000DF90CF9008958D819E81865D914031F4C3
:102CA0008181807F803F81F281E0E6CF1330E0F7C1
:102CB000CBCFEF92FF920F931F93CF93DF93EC0153
:102CC00063E083ED91E04FDFFC01892B49F08181C6
:102CD000982F907F903F31F464E086ED91E08EDF95
:102CE00080E03CC0E380F480E094F09420913001D7
:102CF000A3EBB1E0243011F0A3ECB1E09035A9F5DD
:102D000086E08093300130E020E001E010E08D911A
:102D10008F3FC9F048815981B80102C0660F771F03
:102D20008A95E2F7CB01B801022E02C0660F771F29
:102D30000A94E2F76E217F21672B09F454C0842B9B
:102D4000952B998388832F5F3F4F20313105F9F60A
:102D50008181807D803509F44DC081E0DF91CF9184
:102D60001F910F91FF90EF900895833201F585E058
:102D70008093300185818058990B1C828D838881D6
:102D800099812681213848F19064998388838881CC
:102D900099812781213818F19068998388838881E7
:102DA00099812085213FE8F0916099838883818112
:102DB000823109F0A8CF87E0809330018581805867
:102DC000990B1C828D8326818FE790E0821B9109ED
:102DD0001E828F83A8EAB1E096CF9F7BD6CF9F77E4
:102DE000DCCF9E7FE2CF809590954823592359836D
:102DF0004883A9CF85818058990B188689872681B9
:102E00008FE790E0AC01421B51091A864B8727815E
:102E10002058330B1C822D832085821B91091E8232
:102E20008F838181893709F098CF83898A83848948
:102E30008B8380913001843009F08FCF818990E0BD
:102E400099878887EE2451E0F5222FEF3FE7E29E35
:102E5000C001E39E900DF29E900D11249B878A87FE
:102E60007CCF1F93CF93DF93182FD92F8091300100
:102E70008830A9F5C5E0812F9D2F1BDF61E070E050
:102E800080E090E00E94B40BC150A9F7812F9D2FE4
:102E900010DF882361F164E08AED91E0AFDE8823E2
:102EA00081F163E087E991E05EDEFC01892B49F066
:102EB0008381833021F18130F1F48181823409F002
:102EC000C4E0C093300165E083EA91E097DE69E0F9
:102ED0008AE991E093DE64E086ED91E08FDE812F58
:102EE0009D2FE7DE811103C088E080933001DF91E0
:102EF000CF911F9108958C3021F7C3E0E2CFC2E05B
:102F0000E0CF81E080933001EACFFF920F931F93CF
:102F1000CF93DF930F92CDB7DEB78983F62E8A0168
:102F200041E0BE016F5F7F4F82E544DC81110EC03E
:102F300087EE93E00197F1F700C000004F2DB80134
:102F400082E5DBDB982F81E0911101C080E00F90DA
:102F5000DF91CF911F910F91FF900895CF93DF9351
:102F600000D000D000D0CDB7DEB7AE014F5F5F4FCD
:102F700066E08AEFCADF99818E8126960FB6F894B3
:102F8000DEBF0FBECDBFDF91CF910895EF92FF92CC
:102F90000F931F93CF93DF9300D0CDB7DEB7082FE9
:102FA000142F732F8DB79EB79A83898350E0CA017F
:102FB0000196EDB7FEB7E81BF90B0FB6F894FEBF0C
:102FC0000FBEEDBF8DB79EB701967C016183622F66
:102FD00001960E94142F41E0410FB701802FEADBD8
:102FE000982F81E0911180E0E981FA810FB6F89481
:102FF000FEBF0FBEEDBF0F900F90DF91CF911F91DD
:103000000F91FF90EF900895EF92FF920F931F930F
:10301000CF93DF93CDB7DEB729970FB6F894DEBF15
:103020000FBECDBF7C0180913101909132018B3078
:10303000984171F18E010F5F1F4FA80168E080E099
:1030400064DFB801882321F1F801AE01475F5F4FCB
:103050008FEF90E02191922B8223E417F507D1F7AF
:103060009923B1F08F3FA1F0E0918206F0918306A1
:10307000309709F08FC029960FB6F894DEBF0FBEC7
:10308000CDBFDF91CF911F910F91FF90EF900895E9
:1030900065DF9C0190933201809331012F3F3F4FB8
:1030A00011F585E589879E01275F3F4F41E060EF7D
:1030B00082E56CDF2AE12A95F1F700C019869E01AE
:1030C000275F3F4F41E06BEF82E560DF8AE18A9541
:1030D000F1F700C043DF90933201809331012AE180
:1030E0002A95F1F700C080913101909132019E7FC5
:1030F000019769F483E089879E01275F3F4F41E094
:103100006EEF82E543DF8AE18A95F1F700C0809196
:10311000310190913201813021E0920779F190F4F0
:103120008330910521F148F4009759F1019731F16D
:1031300010928306109282069ECF4197C9F781EBC9
:103140009EE017C082312FEF920709F150F48330CF
:1031500021E09207C9F08330934051F781EF9DE061
:1031600008C083319F4F21F780EA9EE002C080EAC9
:103170009DE090938306809382067DCF86EC9DE050
:10318000F8CF86E694E1F5CF8EE49DE0F2CF8BE5B3
:103190009EE0EFCFC70109956ECFEF92FF920F939C
:1031A0001F93CF93DF930F92CDB7DEB780911301BA
:1031B000811109C08FEF0F90DF91CF911F910F9177
:1031C000FF90EF9008951982A0910D01B0910E012A
:1031D000E0910F01F09110018E010F5F1F4F9801D8
:1031E00041E051966C918081D1DE7801882311F302
:1031F000A0910D01B0910E01E0910F01F09110012D
:10320000980141E015966C918081C0DE882391F28F
:10321000A0910D01B0910E01E0910F01F09110010C
:10322000980141E014966C918081B0DE882309F406
:10323000C1CFE0910D01F0910E016481E0910F0189
:10324000F091100180912A01882309F457C08CE085
:103250008983980141E0808199DE882309F4AACF0F
:103260002FE788E391E0215080409040E1F700C0D3
:10327000000080EC89838091130180FF02C080EE02
:103280008983A0910D01B0910E01E0910F01F091A1
:103290001001970141E014966C91808177DE8823BC
:1032A00009F488CF80911901882331F182E0898364
:1032B000A0910D01B0910E01E0910F01F09110016C
:1032C000970141E051966C91808160DE882309F47A
:1032D00071CF1982A0910D01B0910E01E0910F0103
:1032E000F0911001970141E015966C9180814EDEBE
:1032F00091E0892781955FCF1982DACF84E08983B5
:10330000980141E0808142DE882309F453CF809107
:103310001A01811104C08091130180FD3EC080E438
:103320008983A0910D01B0910E01E0910F01F09100
:103330001001970141E014966C91808127DE88236B
:1033400009F438CF2FE788E391E021508040904086
:10335000E1F700C0000080911901882301F181E0AC
:103360008983A0910D01B0910E01E0910F01F091C0
:103370001001970141E051966C91808107DE88230E
:1033800009F418CFA0910D01B0910E01E0910F0149
:10339000F091100128E131E0A6CF80E6C1CF19827B
:1033A000E0CF8F929F92AF92BF92CF92DF92EF9237
:1033B000FF920F931F93CF93DF93CDB7DEB7EA97BA
:1033C0000FB6F894DEBF0FBECDBF89AF9AAF109293
:1033D000480610924706D0904306ED2CF12C8091C0
:1033E0002A01882309F1809113018823E9F0A09133
:1033F0000D01B0910E01E0910F01F09110019E01BD
:103400002F5D3F4F42E01C966C91808135DA882316
:1034100059F009A11AA11027012710270E151F0521
:1034200008F09FC110924606809147069091480689
:103430008115914009F07AC183E08093D1066091B3
:10344000490670914A0680914B0690914C060E9465
:10345000382E20E030E040E054E36FA378A789A73E
:103460009AA76FA178A589A59AA50E94032E6FA39C
:1034700078A789A79AA76FA178A589A59AA50E9480
:10348000052E6FA378A789A79AA7EFA1F8A5F093B7
:103490004A06E093490660914D0670914E06809170
:1034A0004F06909150060E94382E20E030E040E018
:1034B00054E36BA37CA38DA39EA36BA17CA18DA1E0
:1034C0009EA10E94032E6BA37CA38DA39EA36BA140
:1034D0007CA18DA19EA10E94052E4B0170934C06EC
:1034E00060934B066091510670915206809153068D
:1034F000909154060E94382E20E030E040E054E3E2
:103500006BA37CA38DA39EA36BA17CA18DA19EA187
:103510000E94032E6BA37CA38DA39EA36BA17CA111
:103520008DA19EA10E94052E6B0170934E066093A3
:103530004D06609155067091560680915706909100
:1035400058060E94382E20E030E040E054E36BA3A0
:103550007CA38DA39EA36BA17CA18DA19EA10E94A3
:10356000032E6BA37CA38DA39EA36BA17CA18DA135
:103570009EA10E94052E462F572F50935006409330
:103580004F06489DC001499D900D589D900D1124F6
:103590004FA158A5C49E9001C59E300DD49E300DFC
:1035A00011245C01A21AB30AB501C5010E941412CC
:1035B0007C01BC010E9414128C01BC010E941412F7
:1035C000D82EC92E60E670EB89EB94E40E94FE2CA5
:1035D000362F272FB701832F922F0E9414128BAB07
:1035E0009CAB6AE27EEE87EB93E40E94FE2C6FA711
:1035F00078AB89AB9AAB6EEF7AEB87E594E40E94E7
:10360000FE2C362F272FB701832F922F0E941412E2
:103610008DAB9EAB66EA79EB88E294E40E94FE2CC7
:103620006BA77CA78DA79EA762E377E88AE794E45F
:103630000E94FE2C362F272FB701832F922F0E9436
:1036400014128FAB98AF63E87EEC86EB94E40E9493
:10365000FE2C6BA37CA38DA39EA36AEC79E989E180
:1036600095E40E94FE2C362F272FB701832F922F2F
:103670000E9414124C016AEA7AEA8AEA95E40E94EE
:10368000FE2C6FA378A789A79AA78BA99CA9AFA5A1
:10369000B8A98A1B9B0BB8010E9414122DA93EA940
:1036A000EBA5FCA52E0F3F1F6D2D7C2D820F931FC8
:1036B0000E9414126C018FA998AD2BA13CA1820F1E
:1036C000931FB8010E9414128C0D9D1D4FA158A587
:1036D000840E951EB701880D991D0E941412B50124
:1036E0000E9414128A0D9B1D9195819591098A392A
:1036F00059E195070CF40FC289E999E190934506C9
:1037000080934406209144063091450645E0429F4F
:10371000C001439F900D11242091D2063091D30611
:10372000820F931F90934506809344068091440630
:1037300090914506E9ADFAAD93878287EA960FB678
:10374000F894DEBF0FBECDBFDF91CF911F910F91D7
:10375000FF90EF90DF90CF90BF90AF909F908F90B1
:103760000895E0910F01F091100181819281969569
:10377000879580179107A0F4A0910D01B0910E01DB
:103780009E012F5D3F4F41E053966C91808174D82C
:10379000882309F449CE89A184FF02C0FEDC44CE0F
:1037A000A0910D01B0910E01E0910F01F091100177
:1037B0009E012F5F3F4F4D2D1D966C9180815CD8EF
:1037C000882309F431CEC801B7010E94822E6150CE
:1037D00060934606E0913F06F0914006CF01847168
:1037E0009927892B09F495C129813A814B815C8104
:1037F000CA01B9010E94CB2E4B015C01809249069F
:1038000090924A06A0924B06B0924C068D819E8102
:10381000AF81B885BC01CD010E94CB2E6B017C012C
:10382000C0924D06D0924E06E0924F06F09250069E
:1038300029853A854B855C85CA01B9010E94CB2E4A
:103840008B019C010093510610935206209353065E
:10385000309354068D859E85AF85B889BC01CD0116
:103860000E94CB2EAB01BC014093550650935606E7
:103870006093570670935806C501BB2797FDB09516
:10388000AB2F8FA398A7A9A7BAA7C701BB2797FDFE
:10389000B095AB2F8BA39CA3ADA3BEA3C901BB273F
:1038A00097FDB095AB2F8BA79CA7ADA7BEA7CB016B
:1038B000BB2797FDB095AB2F8FA798ABA9ABBAAB41
:1038C0002FA138A549A55AA5CA01B9010E94732E96
:1038D0006FA378A789A79AA72BA13CA14DA15EA1B0
:1038E000CA01B9010E94732E6BA37CA38DA39EA372
:1038F000CFA0D8A4E9A4FAA4C60ED71EE81EF91ECC
:103900002BA53CA54DA55EA5CA01B9010E94732E49
:10391000C60ED71EE81EF91E2FA538A949A95AA917
:10392000CA01B9010E94732E6FA378A789A79AA72D
:10393000C60ED71EE81EF91E9FE0F91AA1E0CA16AE
:10394000D104E104A2E0FA0630F027DC1092480628
:103950001092470669CD8091470690914806916084
:10396000909348068093470680E1E6FF4DC0A1E0B2
:10397000B0E0AC0FBD1FA80FB11D9C9121E0280F36
:10398000A1E0B0E0AC0FBD1FA20FB11D2C91392FEB
:10399000309301002093000092E0980FA1E0B0E086
:1039A000AC0FBD1FA90FB11D9C9123E0280FA1E012
:1039B000B0E0AC0FBD1FA20FB11D2C91392F309379
:1039C00003002093020094E0980FA1E0B0E0AC0F58
:1039D000BD1FA90FB11D9C9125E0280FA1E0B0E00B
:1039E000AC0FBD1FA20FB11D2C91392F30930500D4
:1039F000209304008A5F2091470630914806286092
:103A000030934806209347069F0120783170232B7E
:103A100009F44DC0A1E0B0E0AC0FBD1FA80FB11D6F
:103A20009C9121E0280FA1E0B0E0AC0FBD1FA20FD8
:103A3000B11D2C91392F309301002093000092E0AA
:103A4000980FA1E0B0E0AC0FBD1FA90FB11D9C9174
:103A500023E0280FA1E0B0E0AC0FBD1FA20FB11D05
:103A60002C91392F309303002093020094E0980F9B
:103A7000A1E0B0E0AC0FBD1FA90FB11D9C9125E0E6
:103A8000280FA1E0B0E0AC0FBD1FA20FB11D2C911B
:103A9000392F30930500209304008A5F2091470658
:103AA0003091480620673093480620934706E3701C
:103AB000FF27EF2B09F4B8CC01E010E00C0F1D1F1D
:103AC000080F111DF801F380818180FF0FC0E09184
:103AD0003906F0913A06309749F06F2D67706F5FA5
:103AE0008F2D86958695869587700995D8011196B4
:103AF0008C9183FF99CCE0913B06F0913C06309786
:103B000009F492CC8F2D82958695869583700995C0
:103B10008BCC80E02ACF8736A6EE9A070CF0EECD4C
:103B200087E696EEEBCDCF93DF930F92CDB7DEB75E
:103B30009C0180911301811105C08FEF0F90DF91DF
:103B4000CF91089581E02C3B310588F482E0223644
:103B5000310568F483E02A32310548F484E02431E9
:103B6000310528F485E02A30310508F486E08983A0
:103B70009091140189819817A9F0A0910D01B0913D
:103B80000E01E0910F01F09110019E012F5F3F4F58
:103B900041E012966C918081F9D9882371F2898174
:103BA0008093140180E0CACFEF92FF920F931F938E
:103BB000CF93DF9300D0CDB7DEB7FC018B017A0144
:103BC0008091130181110AC08FEF0F900F90DF9148
:103BD000CF911F910F91FF90EF9008959E2F8F2FFF
:103BE0009A838983A0910F01B09110019B012E0F40
:103BF000311D18968D919C9119978217930720F388
:103C0000E0910D01F0910E019E012F5F3F4F42E0C8
:103C1000638D8C91BBD98823B9F2A0910D01B0912D
:103C20000E01E0910F01F09110019701402F58967D
:103C30006C918081ABD991E089278195C6CFCF93D4
:103C4000DF930F92CDB7DEB780911301811105C0CC
:103C50008FEF0F90DF91CF91089588E18983809154
:103C600011018330C1F0A0910D01B0910E01E091DE
:103C70000F01F09110019E012F5F3F4F41E016961A
:103C80006C91808183D9882319F3898186958695E3
:103C900086958093110180E0DCCFCF93DF930F9264
:103CA000CDB7DEB780911301811105C08FEF0F9062
:103CB000DF91CF9108951982809112018823C1F07C
:103CC000A0910D01B0910E01E0910F01F091100152
:103CD0009E012F5F3F4F41E017966C91808156D92E
:103CE000882321F389818695869586958093120194
:103CF00080E0DDCF0F931F93CF93DF930F92CDB76B
:103D0000DEB780911A01882309F458C0A0910D01F3
:103D1000B0910E01E0910F01F09110018E010F5F43
:103D20001F4F980141E014966C9180810E943C14D1
:103D3000811107C08FEF0F90DF91CF911F910F91ED
:103D4000089589819091130190FF3AC08062898320
:103D5000A0910D01B0910E01E0910F01F0911001C1
:103D6000980141E014966C91808110D9882311F359
:103D70008FE697E10197F1F700C0000080912801DC
:103D8000882301F180E8898380912901882319F033
:103D9000898180638983A0910D01B0910E01E0912A
:103DA0000F01F0911001980141E057966C918081CC
:103DB000EDD8882309F4BECF10921A0180E0BBCF62
:103DC0008F7DC5CF1982E0CF1F93CF93DF930F92E2
:103DD000CDB7DEB7182F80912901811729F1112362
:103DE00041F180E3898380911A01882319F0898148
:103DF0008260898380912801882319F089818068F5
:103E00008983A0910D01B0910E01E0910F01F09115
:103E100010019E012F5F3F4F41E057966C918081CA
:103E2000B5D88111109329010F90DF91CF911F9187
:103E300008951982D8CFEF92FF921F93CF93DF930B
:103E40000F92CDB7DEB7182F807719F081E0898304
:103E500003C01123F1F01982A0910D01B0910E0160
:103E6000E0910F01F0911001CE0101967C019C01BF
:103E700041E055966C91808189D8970181110BC0E2
:103E8000109213010F90DF91CF911F91FF90EF904F
:103E9000089580E4DCCF89818F7B8093150116FF24
:103EA00032C0198215FD03C089818260898314FDA7
:103EB00003C089818160898313FD03C08981886380
:103EC0008983A0910D01B0910E01E0910F01F09155
:103ED000100141E056966C91808158D8882381F278
:103EE000812F877F11F080E06FDF10931301109214
:103EF0001C019FE728E381E0915020408040E1F7DA
:103F000000C00000BFCF84E08983CCCFCF93DF9384
:103F10000F92CDB7DEB790912A019923E9F088235B
:103F200039F182E08983A0910D01B0910E01E091F9
:103F30000F01F09110019E012F5F3F4F41E051961C
:103F40006C91808123D8882319F08981809319018D
:103F50000F90DF91CF910895909113019923C1F3B0
:103F6000882331F0809119018111F2CF81E0DACFFD
:103F70001982D9CF1F93CF93DF93D82F80912A0135
:103F8000C0E081111FC0809113018823B9F0109106
:103F900018018D2380931801C1E08D1301C0C0E08A
:103FA000C19580911C018D2B59F081E0AFDFDD239D
:103FB00049F0F3D8882331F010931801CFEF02C0F5
:103FC00080E0A4DF8C2FDF91CF911F9108951F9384
:103FD000CF93DF9300D0CDB7DEB7182F81111FC06C
:103FE00080E0F2DE198287E08A83A0910D01B09112
:103FF0000E01E0910F01F09110019E012F5F3F4FE4
:1040000042E055966C9180810E94C61781111092F2
:104010001C010F900F90DF91CF911F91089581E0C7
:10402000D3DE80E28983113049F51A8285E090E081
:104030007ADD8A8120E4829FC001112487608A830F
:10404000A0910D01B0910E01E0910F01F0911001CE
:104050009E012F5F3F4F42E055966C9180810E94F8
:10406000C6178823B1F288E08093130110921501DE
:1040700081E080931C0180E07DDFCBCF163018F407
:1040800081E08A83D3CF153128F482E08A838AE0E5
:1040900090E0CECF83E08A8384E190E0C9CF0F9394
:1040A0001F93CF93DF930F92CDB7DEB78C01809132
:1040B0001301811107C08FEF0F90DF91CF911F91F6
:1040C0000F91089580912A018111F5CF80911C01F3
:1040D000882351F0C8010197889720F4802F77DF5B
:1040E00080E0EACF80E073DFB801093E134010F0B2
:1040F00068EE73E06430710510F464E070E008EE7F
:1041000013E0C8010E94822E61506983A0910D01C5
:10411000B0910E01E0910F01F09110019E012F5F0F
:104120003F4F41E011966C9180810E94C617882311
:1041300009F4C1CF698170E06F5F7F4FC8010E94B1
:10414000962E7093170160931601CB019695879573
:10415000EADCC6CFEF92FF920F931F93CF93DF93CA
:10416000CDB7DEB7AA970FB6F894DEBF0FBECDBFAE
:104170008BB5882309F432C11091E9001F7090912A
:10418000EC00892F817090FD80E8182B1092E900D7
:104190008091E80083FF1FC18AE393E0FC01019650
:1041A0002091F100208323E082349207B9F78091B7
:1041B000E80083FFEDC000913B0380913A0301309A
:1041C00009F080C0813A09F0A2C120913C0391E23C
:1041D00090933B022B3358F12B53330B4FE3429F09
:1041E000C001439F900D112466EE70E07B01E81A38
:1041F000F90AEFE3EE16F10418F05FE3E52EF12C77
:10420000BC016E55794FA7018CE392E00E94142FF8
:10421000B7016F5F7F4F8091E800877F8093E80050
:104220008BE392E00E944A120E94FB12B1C022333B
:10423000B9F460E171E081E492E00E94002F80E037
:1042400092E1AAE7B0E080933C0290933D02A093F4
:104250003E02B0933F020093400265E170E0DBCF85
:104260002533A1F48091A206813049F48091310177
:1042700080933C0210923D0263E070E0CCCF83302B
:10428000D9F78091300180933C02F6CF263349F470
:104290008091DC0480933C020E94541062E070E044
:1042A000BACF48E050E068E071E08BE392E00E9412
:1042B000F72E8091A3068F3110F410923E0268E031
:1042C00070E0A9CF093009F0F1C0813209F060C077
:1042D0008091E800877F8093E8008091400390916F
:1042E0004103009729F42091E8002B772093E80000
:1042F000EBE3F2E0009739F58091E80080FD05C01E
:104300008BB5882311F08530B9F70E94FB124091DC
:1043100040035091410380913C03893391F18A33EA
:1043200009F469C0833309F4A7C008F070C0803372
:1043300041F0813369F587E797E79093010880930F
:1043400000080E9403092BB52223F9F22530E9F277
:104350002091E80023FDD9CF2091E80022FFCACFA9
:104360003091F3002091F200232B29F02091F100ED
:1043700021930197A9F72091E8002B772093E8007B
:10438000B9CF55276BE372E08CE794E00E94142FBD
:104390008091E80083FF11C090913A0380913B0324
:1043A000853009F45AC108F0BBC0282F2D7F213079
:1043B00009F41AC1882309F4F6C08091E80083FF4C
:1043C0000AC08091E800877F8093E8008091EB002D
:1043D00080628093EB001F701093E900AA960FB6DD
:1043E000F894DEBF0FBECDBFDF91CF911F910F912B
:1043F000FF90EF900895415050E060913B0270E0D3
:10440000605070408CE392E00E94342FC1CF84331F
:1044100091F08C3309F0BCCF46EE50E069E474E0D3
:1044200082EA96E00E94F72E46EE50E060E070E0EF
:1044300082EA96E0E9CF8091F5048111A9CF8FEF50
:104440008093DC040E94D30C4DEDE42E44E0F42E66
:1044500002E162E0802F0E94DB0C8EEE800F0E9452
:10446000B20CF701819391937F010F5F0E3189F7B1
:1044700081E08093F5048CCF8091F604811188CF80
:104480008FEF8093DC040E94D30C02E0802F0E9407
:104490003F10811104C062E0802F0E94DB0C0F5F8F
:1044A0000831A1F781E08093F60472CF003279F5EC
:1044B000813CD1F480913E0390913F03059709F030
:1044C00067CF80913C0390913D03029709F060CF44
:1044D0008091E800877F8093E8006EE870E086E8CE
:1044E00091E00E94A212A0CE803C89F480913E030C
:1044F00090913F03049709F04BCF8091E800877FAC
:104500008093E80060E770E086E191E0EACF8132D5
:1045100009F03ECF8091E800877F8093E80084CE49
:10452000883009F44CC1893009F456C1863009F04D
:1045300044CF9058923008F040CFE0913C03F09186
:104540003D03EC3D23E0F20709F0A9C083E08A8334
:104550008AE289834FB7F894DE01139620E03EE0AB
:1045600051E2E32FF0E050935700849120FF03C005
:1045700082958F703F5F8F708A3008F48EC0895C9F
:1045800090E08D939D932F5F243159F74FBF809119
:10459000E800877F8093E8006AE270E0CE01019630
:1045A0000E944A12B5C0903891F0923809F005CFB8
:1045B00080913E038F70873008F0FFCE8093E90032
:1045C0008091EB0085FB882780F91092E90090919B
:1045D000E800977F9093E8008093F1001092F1003B
:1045E0008091E8008E7721C0923009F0E6CE90915C
:1045F0003C03911115C090913E039F702FEF290F3E
:10460000263008F0DACE9093E9002091EB0020FFED
:1046100007C0833079F48091EB0080628093EB00D7
:104620001092E9008091E800877F8093E8000E9463
:10463000FB12C3CE8091EB0080618093EB0021E000
:1046400030E001C0220F9A95EAF72093EA00109219
:10465000EA008091EB008860E1CF9111AECE00912D
:104660003C030F778091E3008078802B8093E300F8
:104670008091E800877F8093E8000E94FB12809180
:10468000E80080FFFCCF8091E30080688093E30026
:1046900082E0011183E08BBD90CE805D71CF8F2FC2
:1046A00099278330910509F46FC0C0F581309105D9
:1046B00009F442C0029709F080CE49ED50E06EE364
:1046C00073E08BE392E00E94F72E80910C018093BF
:1046D0005102873130F089E890E09093F5028093A1
:1046E000F40283E18093790285E08093A10288E05F
:1046F0008093C90222E08BE392E069ED70E0309193
:10470000E800377F3093E80021114ACF0E94A212BF
:104710008091E8008B778093E8004FCE829709F074
:104720004CCE80910C0120E0873108F445C08DE922
:1047300092E069E870E0E3CF42E150E067E374E0C3
:104740008BE392E00E94F72E80910C018A51883011
:10475000A8F490E0880F991FFC01E95DFB4F2591BB
:1047600034913093440220934302FC01E95EFB4FF5
:1047700085919491909346028093450222E08BE3C9
:1047800092E062E170E0BBCFE43080F4FF27EE0FEF
:10479000FF1FE85CFC4F85919491FC012491622FEE
:1047A00070E0222309F409CE20E0A9CFEE3E09F003
:1047B00004CE86E293E0F1CF84E192E0BACF903864
:1047C00009F0FBCD8091E800877F8093E80080911D
:1047D000AC038093F10004CF9111EFCD00913C0325
:1047E000023008F0EACD8091E800877F8093E800EE
:1047F0000093AC030E94FB12002311F084E005C07B
:104800008091E30087FDFACF81E08BBD42E261EC4D
:1048100081E00E94481342E261EC82E00E9448136A
:1048200042E261EC82E00E94481342E261EC83E0E4
:104830000E94481342E261EC84E00E944813BDCD1F
:104840001F921FB61F9211248F939F93AF93BF9314
:104850008091840690918506A0918606B091870686
:104860000196A11DB11D8093840690938506A093A7
:104870008606B0938706BF91AF919F918F911F904D
:104880001FBE1F9018951F920F920FB60F92112402
:104890002F933F934F935F936F937F938F939F9348
:1048A000AF93BF93EF93FF939091B900892F887FC7
:1048B000803509F4BEC008F042C0803309F4B4C0AA
:1048C00098F5883101F1D0F4883009F4A5C0803121
:1048D00009F4A2C0882309F4ECC0FF91EF91BF91C5
:1048E000AF919F918F917F916F915F914F913F9188
:1048F0002F910F900FBE0F901F901895803209F4E2
:1049000093C0883251F79091A7038091A60398171E
:1049100078F5E091A70381E08E0F8093A703F0E084
:10492000EA57FC4F80817AC0803409F48EC0883405
:1049300009F47CC0883389F6809385036BC0803A84
:1049400009F49DC0B8F5803809F487C050F5803669
:1049500011F1D8F4883509F6E091A70381E08E0FB4
:104960008093A7038091BB00F0E0EA57FC4F80835F
:104970008091AA0381115AC081E08093A90384EA3F
:104980008093BC001092AB03A8CF803721F0987EB3
:10499000983609F0A2CF83E08093AB031092840392
:1049A0003FC0803909F459C0987E983809F095CFF6
:1049B00085E837C0883BC9F048F5883A19F0803B54
:1049C00009F08BCF84E08093AB03109263031092C5
:1049D0006203F0E0E0E0099580916203811105C077
:1049E00081E08093620310924203E091630381E0CF
:1049F0008E0F80936303F0E0EE5BFC4F8081809329
:104A0000BB00909163038091620323C0907F903C30
:104A100009F063CF85ECB4CF8091A8038093BB00ED
:104A200085EC8093BC0059CF809385030E94581376
:104A300054CFE091A70381E08E0F8093A70380916C
:104A4000BB00F0E0EA57FC4F80839091A703809170
:104A5000A603981708F0ACCFE3CF8091840380328F
:104A600008F0A6CFE091840381E08E0F8093840349
:104A70008091BB00F0E0EC59FC4F8083D1CF85ECF6
:104A80008093BC001092AB0380918403803230F499
:104A9000E0918403F0E0EC59FC4F108260918403B4
:104AA00070E084E693E0F0E0E0E009951092840382
:104AB00014CF10928503BACF1F920F920FB60F92A8
:104AC00011242F933F934F935F936F937F938F9313
:104AD0009F93AF93BF93EF93FF938091E10082FF89
:104AE00009C08091E20082FF05C08091E1008B7FC8
:104AF0008093E1008091DA0080FF15C08091D8009A
:104B000080FF11C08091DA008E7F8093DA0080915F
:104B1000D90019BC80FF7FC082E089BD09B400FEC6
:104B2000FDCF81E08BBD8091E10080FF16C08091B8
:104B3000E20080FF12C08091E2008E7F8093E2004D
:104B40008091E20080618093E2008091D8008062D1
:104B50008093D80019BC85E08BBD8091E10084FF73
:104B600024C08091E20084FF20C019BC82E089BD8E
:104B700009B400FEFDCF8091D8008F7D8093D800CE
:104B80008091E1008F7E8093E1008091E2008F7E32
:104B90008093E2008091E20081608093E200809146
:104BA000AC038823D1F184E08BBD8091E10083FFC9
:104BB00021C08091E20083FF1DC08091E100877FCA
:104BC0008093E10082E08BBD1092AC038091E10004
:104BD0008E7F8093E1008091E2008E7F8093E200DF
:104BE0008091E20080618093E20042E360E080E037
:104BF0000E944813FF91EF91BF91AF919F918F91C8
:104C00007F916F915F914F913F912F910F900FBEC8
:104C10000F901F9018951BBC86CF8091E30087FDF5
:104C200002C081E0C1CF83E0BFCFCDB7DEB7A89788
:104C30000FB6F894DEBF0FBECDBF46EE50E060E089
:104C400070E082EA96E00E94242F8091AA0690915B
:104C5000AB06A091AC06B091AD068531944DA24A49
:104C6000B105C9F046EE50E069E474E082EA96E0EE
:104C70000E94F72E1092AE061092AF061092B00668
:104C80001092B10642E450E06DEE74E086E497E0E5
:104C90000E94F72E0CC08091AE069091AF06A091B5
:104CA000B006B091B1060297A105B10558F3809105
:104CB000A306873009F06CC08FE08093A306809133
:104CC000AE069091AF06A091B006B091B1060497E0
:104CD000A105B10540F448E550E065E974E08EEEC9
:104CE00096E00E94F72E8091AE069091AF06A091BB
:104CF000B006B091B1060697A105B105B0F41092C7
:104D0000A50686E090E0A0E0B0E08093AE06909328
:104D1000AF06A093B006B093B10646EE50E060E057
:104D200070E082EA96E00E94342F8091A30680937F
:104D30000C0180917A00846080937A0080917A00DF
:104D4000826080937A0080917A008E7F80937A00CF
:104D500080917A00806880937A0085B5826085BDF5
:104D600085B5816085BD80916E00816080936E0005
:104D70008091A206823089F0833009F46CC38130BF
:104D800071F484E098E19093B5038093B40307C075
:104D9000883009F094CF8DE090CF0E94E80E80918A
:104DA000A206833059F08091A606823039F440E0A3
:104DB00060E079E08DE390E00E94A0111092AB03D7
:104DC00081E08093AA031092A903589A599A80917E
:104DD000B9008E7F8093B9008091B9008D7F809358
:104DE000B90088E08093B80085E48093BC00E0912E
:104DF000A306F0E0E251FE4F8081823009F0F5C158
:104E00001091A406113009F073C3789480E8898367
:104E1000A0910D01B0910E01E0910F01F0911001F0
:104E20009E012F5F3F4F41E055966C9180810E941B
:104E3000C617882309F468C08FEF94E3ACE0815073
:104E40009040A040E1F700C000001982A0910D0140
:104E5000B0910E01E0910F01F09110019E012F5FC2
:104E60003F4F41E055966C9180810E94C617882380
:104E700009F44AC010921B018FEF809313018093B5
:104E8000110180931201809314012FEF3FEF3093B3
:104E90001701209316018093180180931A01109333
:104EA0001501109328011092290110921D011092F2
:104EB0001C01EEE1F1E08AE0DF011D928A95E9F73D
:104EC00010922A0110922B0110922D0110922C01A8
:104ED0000E941F1E811118C00E944D1E811114C016
:104EE0008AE290E00E94931D81110EC082E390E05F
:104EF000D6D8811109C03ED8811106C00E947A1E01
:104F0000811102C00E941B1F88E70E941B1F0E9484
:104F10001F1E0E944D1E88E72DD880912B01811104
:104F20008CC0F12CE12C76EFA72E7BE0B72E6E0122
:104F3000B1E2CB0ED11C85010E191F0901311105FB
:104F400010F000E110E0F701E15DFA4FDE0111968B
:104F5000CD01800F911F8A179B0709F0C5C2AE01D2
:104F60004F5F5F4FB801C7010E94D41D811165C01A
:104F700080911301882309F460C09E2D8F2D9AA380
:104F800089A3E0910F01F091100120853185C801BE
:104F90008E0D911D2817390708F44FC0A0910D01FF
:104FA000B0910E01960142E05B966C9180810E9467
:104FB000C617882309F441C0A0910D01B0910E01DC
:104FC000E0910F01F09110019E012F5E3F4F402FA5
:104FD00058966C9180810E943C14882371F1A8013D
:104FE000BE016F5E7F4FCE01019611D7892B29F547
:104FF000E00EF11EE6EFEE16EBE0FE0608F49BCFA6
:1050000084E089A31AA2A0910D01B0910E01E09154
:105010000F01F0911001960142E05D966C91808144
:105020000E94C617882349F081E080932B0188EC09
:1050300090E090932D0180932C018CE0E2E2F2E06D
:10504000DE01119601900D928A95E1F7198A85E0AB
:105050008A8B8E010F5E1F4FA80162E070E086E12F
:1050600092E00E94D41D811111C0AE014F5F5F4FCD
:105070006CE070E081EC9AE00E94D41D811106C0C2
:105080008EE190E0909342068093410680912A0140
:10509000813029F180912B01882309F180E00E9461
:1050A000861F0E947A1E80912C0190912D010E94F2
:1050B0004F201982E0910F01F09110019E012F5FA6
:1050C0003F4F41E063E280810E94C617882339F098
:1050D00081E080932A010E94861F0E94CD1882E001
:1050E00089838AEC8A8383EE8B8359E0E52EEC82F8
:1050F000AE014F5F5F4F64E070E088E690E00E9491
:10510000D41D83EA89838A838B838C838D838E83EA
:105110008F83888789878A87AE014F5F5F4F6AE0F8
:1051200070E087EA9AE00E94D41D68EDF62EF982BD
:10513000AE014F5F5F4F61E070E086EB9AE00E9446
:10514000D41DEFE2F2E0DE01519601900D92EA9457
:10515000E1F7A80169E070E088EB94E00E94D41DBB
:10516000F982AE014F5F5F4F61E070E080EB98E045
:105170000E94D41DF982AE014F5F5F4F61E070E085
:105180008DE397E00E94D41D44E050E06BE870E0AE
:10519000C80153D6A80164E070E088E99AE00E9453
:1051A000D41D0E94CD1880E2898B88E28A8B80E32F
:1051B0008B8B88E38C8BA80164E070E08EE99AE029
:1051C0000E94D41D0E94CD1888E190E09093400683
:1051D00080933F060E94CD1880E18093430681EDC5
:1051E00099E19093AF038093AE039091CF06109214
:1051F000B2039093B3038091A306823209F08FC16A
:105200008CE19AE090936B0480936A048091D800BB
:105210008F7E8093D8008091D70081608093D700E3
:1052200084E082BF81E08093AD038091D8008E7FBF
:105230008093D8001092E2001092DA001092E10000
:105240008091D8008F778093D8008091D8008068B3
:105250008093D8008091D8008F7D8093D80019BCAE
:105260001BBC1092AC038091E0008B7F8093E00028
:105270008091D80081608093D80042E360E080E0B4
:105280000E9448138091E1008E7F8093E10080911D
:10529000E20081608093E2008091E2008860809368
:1052A000E2008091E0008E7F8093E0008091D80042
:1052B00080618093D8007894CC24C39430E8D32EB6
:1052C00042E0742E1092710410927004E091B403C5
:1052D000F091B503309719F080E794E0099580E7E5
:1052E00094E00E946A108091A706882309F440C0C8
:1052F00040917404509175048091B2039091B3036E
:1053000066277727681B790B461757074CF42091BF
:105310007004309171042460309371042093700400
:10532000841795074CF42091700430917104286023
:105330003093710420937004409176045091770467
:10534000461757074CF42091700430917104226085
:105350003093710420937004841795074CF4809166
:105360007004909171048160909371048093700433
:105370008091A806882381F0809170049091710437
:105380009C01207333272033310531F48F7C9460E6
:105390009093710480937004E091A306F0E0E251D1
:1053A000FE4F8081823071F580917804909179046C
:1053B000181619060CF401C19093B1038093B00341
:1053C0008091B0039091B103880F991F18161906A8
:1053D0000CF4F8C09093B1038093B0038091B003B4
:1053E0009091B1039195819591099093790480935F
:1053F0007804E091AE03F091AF03309719F080E7A5
:1054000094E009958091A606823009F4E0C00E94DC
:105410005B0B6BA37CA38DA39EA380916C049091E6
:105420006D04A0916E04B0916F044BA15CA16DA1BD
:105430007EA1481B590B6A0B7B0B8091A50690E05F
:10544000B0E0A0E084179507A607B70708F41AC1D3
:105450000E94AA2037CF4CE260EA76E881E090E033
:105460000E94A011EEEAF1E1E491E0937906EFE801
:10547000F1E1E491F0E0EE0FFF1FE15BFE4E85915C
:10548000949190937B0680937A06E4EBF1E1E491AA
:10549000E0937F06E5E9F1E1E491F0E0EE0FFF1F14
:1054A000E15BFE4E859194919093810680938006F6
:1054B000E3EBF1E1E491E0937C06E4E9F1E1E491CE
:1054C000F0E0EE0FFF1FE15BFE4E8591949190930B
:1054D0007E0680937D0660E08AE00E94DB0C0E94DD
:1054E000BA0E81E397E14FCC24912D93319633CDC1
:1054F000123041F462E08091CC060E94DB0C86ED14
:105500009EE06FCE133009F070CE8091A2068130FC
:1055100009F06BCE0E94E80E8AE690E162CE8332FB
:1055200018F080E39CE06ECE843118F487E693E1B6
:1055300069CE2CEE280F263068F410928A069093DC
:105540008B068091CE0610928806809389068CEB9C
:105550009AE058CE803250F046E050E061E971E0C8
:1055600080E091E044D486E0809388078091A30690
:105570008A3149F48DE0809335018CE080933601C7
:1055800084E199E03FCE982F9D7F4EE050E061E4AA
:1055900071E19C3171F04EE050E063E371E18B31D9
:1055A00041F08D3111F0803259F74EE050E065E264
:1055B00071E184E391E01BD4E3CF1092B103109228
:1055C000B003FECED092B103C092B00307CF80E00B
:1055D0000E940F0980E00E940F0980E00E940F09DD
:1055E00080E00E940F090EEE16E0F12CE12CD801AC
:1055F0006C911196BC91BBA3F801F281FFA3D80175
:105600001396BC91B8A7F701EE0FFF1FEE0FFF1F17
:10561000E458FB4F80819181A281B381A92E9A2EFB
:105620008B2EB62EB82A51F1B11111C091110FC0B5
:10563000A1110DC0662359F0615080E794E00E94EB
:10564000EF0BA82E882319F088A49FA0ABA08FEFA2
:105650000E940F09882D0E940F09892D0E940F09B1
:105660008A2D0E940F09EFEFEE1AFE0A0C5F1F4F02
:10567000BECF8FEF0E940F09F0E1BF0EBE141F04D2
:10568000C4F3C5CE0E945B0B60936C0470936D04F1
:1056900080936E0490936F04E0916A04F0916B0420
:1056A00040E754E06FE074E081E194E009954091B7
:1056B0000F045091100466EB73E081E194E0A7D3EE
:1056C000892B09F4C5CE80911104873048F48530C8
:1056D000B0F5882369F1843079F101E114E010C05C
:1056E0008730D9F783E08093E90080910F0490918F
:1056F000100401979093100480930F0402E114E0CA
:105700008091E80085FFA4CEE0900F04F090100493
:10571000A70161E174E086EB93E086D30E94181341
:105720008823C1F08091E8008E778093E80090CEC6
:1057300021E02093E900D1CF7092E900D6CF70929A
:10574000E900CBCFD8018D918D018093F100B1E0BC
:10575000EB1AF108E114F10429F38091E80085FDCA
:10576000F1CF8091E8008E778093E8000E94AA2014
:10577000D5CFF5D058F080E891E009F49EEFF6D04F
:1057800028F040E851E059F45EEF09C0C0C028C1DC
:10579000E92FE07803D168F3092E052AC1F3261713
:1057A00037074807590738F00E2E07F8E02569F04B
:1057B000E025E0640AC0EF6307F8009407FADB0114
:1057C000B9019D01DC01CA01AD01EF9341D0D5D0F3
:1057D0000AD05F91552331F02BED3FE049E450FDB5
:1057E00049ECABC10895DF93DD27B92FBF7740E8BF
:1057F0005FE31616170648075B0710F4D92FF7D09A
:105800009F938F937F936F9394D1ECEAF0E082D0D3
:10581000B4D02F913F914F915F9134D1DD2349F066
:105820009058A2EA2AED3FE049EC5FE3D0785D278B
:1058300095D1DF91A2C09AD040F091D030F021F400
:105840005F3F19F05EC05111CCC061C0A7D098F382
:105850009923C9F35523B1F3951B550BBB27AA27F1
:1058600062177307840738F09F5F5F4F220F331F63
:10587000441FAA1FA9F333D00E2E3AF0E0E830D02F
:1058800091505040E695001CCAF729D0FE2F27D032
:10589000660F771F881FBB1F261737074807AB0700
:1058A000B0E809F0BB0B802DBF01FF2793585F4F75
:1058B0002AF09E3F510568F024C093C05F3FECF38F
:1058C000983EDCF3869577956795B795F7959F5F3A
:1058D000C9F7880F911D9695879597F90895E1E08E
:1058E000660F771F881FBB1F621773078407BA07ED
:1058F00020F0621B730B840BBA0BEE1F88F7E09548
:10590000089597F99F6780E870E060E008959FEF41
:1059100080EC0895DF93CF931F930F93FF92EF9244
:10592000DF927B018C01689405C0DA2EEF01AAD0CA
:10593000FE01E894A5912591359145915591AEF3DD
:10594000EF010CD1FE019701A801DA9479F7DF90FD
:10595000EF90FF900F911F91CF91DF910895002458
:105960000A941616170618060906089500240A94C4
:1059700012161306140605060895092E0394000C4A
:1059800011F4882352F0BB0F40F4BF2B11F460FFD9
:1059900004C06F5F7F4F8F4F9F4F089557FD905802
:1059A000440F551F59F05F3F71F04795880F97FBE3
:1059B000991F61F09F3F79F087950895121613069D
:1059C0001406551FF2CF4695F1DF08C016161706CC
:1059D0001806991FF1CF8695710561050894089501
:1059E000E894BB2766277727CB0197F908959B0199
:1059F000AC0160E070E080E89FE303C1D7DFA8F16D
:105A00009E57A8F1985160F039F1983070F5092E41
:105A10009927660F771F881F991F0A94D1F71CC01A
:105A2000BB27993F4CF4B111B1E0B62B672F782F0B
:105A30008827985FB1F708C0869577956795B795E1
:105A400008F4B1609395C1F7BB0F30F411F460FF17
:105A500003C06F5F7F4F8F4F3EF490958095709598
:105A600061957F4F8F4F9F4F08956894BACFB8CFFD
:105A700076DF28F07BDF18F0952309F042CF47CF7F
:105A80001124AFCF8BDFA0F3959FD1F3950F50E09A
:105A9000551F629FF001729FBB27F00DB11D639FE0
:105AA000AA27F00DB11DAA1F649F6627B00DA11D86
:105AB000661F829F2227B00DA11D621F739FB00D2C
:105AC000A11D621F839FA00D611D221F749F33279C
:105AD000A00D611D231F849F600D211D822F762F35
