:100000000C94D1080C94EE080C94EE080C94EE08B5
:100010000C9427270C94EE080C94EE080C94EE0830
:100020000C94EE080C94EE080C94B4250C94EE0895
:100030000C94EE080C94EE080C94EE080C94EE0868
:100040000C94EE080C94EE080C94EE080C94EE0858
:100050000C94EE080C94EE080C94EE080C946D26AB
:100060000C94EE080C94EE080C94EE080C94EE0838
:100070000C94EE080C94EE080C94EE080C94EE0828
:100080000C94EE080C94EE080C94EE080C94EE0818
:100090000C9490260C94EE080C94EE080C94EE0848
:1000A0000C94EE080C94EE080C94EE08084AD73B2A
:1000B0003BCE016E84BCBFFDC12F3D6C74319ABD37
:1000C00056833DDA3D00C77F11BED9E4BB4C3E915B
:1000D0006BAAAABE000000803F001203410072001C
:1000E00064007700690069006E006F0014037300FC
:1000F00061006E006A006100790039003000300054
:100100000403090400000000240027002A002D0039
:100110003000070605040100080A0B0C0D09000059
:100120000000250028002B002E00310000000000F8
:100130002300260029002C002F0004080201104093
:100140008040102040804080080204018040201040
:100150000201108010204040200404040404030421
:100160000502020202040302020202060606060655
:100170000604040202020404FF080F0C21260107F2
:10018000000000006D6963726F004552524F5200CB
:1001900000080000000000000082F82300143FF770
:1001A000FFFF00000000C0FFC0FF000000000000D3
:1001B00040000000000104000200000000000000F8
:1001C0000104585553423130000000000000000087
:1001D0000000000000000000020457494E55534241
:1001E000000000000000000000000000000000000F
:1001F0008E000000000105000100840000000100E5
:100200000000280044006500760069006300650076
:1002100049006E00740065007200660061006300B2
:100220006500470055004900440000004E000000F2
:100230007B004400460035003900300033003700B1
:1002400044002D0037004300390032002D003400F7
:100250003100350035002D004100430031003200EF
:100260002D003700440037003000300041003300DB
:10027000310033004400370038007D0000000501E4
:100280000906A1018506050719E029E715002501E2
:10029000750195088102950175088101050819010C
:1002A00029059505750191029501750391011500C8
:1002B00026FF000507190029FF950675088100C073
:1002C00005010902A10185050901A100050919011E
:1002D0002904150025019504750181027504950115
:1002E000810305010930093109381581257F9503FE
:1002F00075088106050C0A38021681FF267F0095D5
:100300000175088106C0C005010905A10115002578
:1003100001350045017501950D05091901290D816A
:10032000029503810105012507463B0175049501EE
:1003300065140939814265009501810126FF004657
:10034000FF00093009310932093575089504810229
:100350000600FF092009210922092309240925098A
:1003600026092709280929092A092B950C81020A3F
:1003700021269520B1020A2126910226FF0346FF7D
:1003800003092C092D092E092F751095048102C02F
:1003900012034D005300460054003100300030007D
:1003A00020000001EC00DA000902BD000501002078
:1003B000320904010002FF5D010011210001002546
:1003C00081200000000013072000000705810320A2
:1003D00000010705070320000109040000020300D3
:1003E0000000092111010001228900070582032074
:1003F0000001070505032000010904020001FFFFB9
:10040000FF00070584022000010904030000010128
:10041000000009240100010900010409040400028C
:10042000010300000724010001410006240201012C
:100430000006240202020009240301030102010054
:10044000092403020401010100090508022000013A
:1004500000000525010101090583022000010000BB
:100460000525010103920000012001000210028213
:100470002804004B070D0FBA12BA12BA12BA1209A9
:1004800012AD1BAD1B1201000200000040091282D8
:100490002800080102DC01020F0000000101011523
:1004A000D4A20008000000FFFFFFFFFFFFFFFFFFD7
:1004B000FFFFFFFFFFFFFFFF00FF00FF00FF00FF48
:1004C00000FF0040404005B80B04160D0E0F332806
:1004D0000B504F525151FFFFFFFFFFFF00FF00FF86
:1004E00000FF000D0080000EFF000010FFFF000F56
:1004F0000000FF09FF4500000000000000000000B0
:1005000000000000000000000000000000000000EB
:1005100000000000000000000000000000000000DB
:1005200000000000000000000000000000000000CB
:1005300000000000000000000000000000000000BB
:1005400000000000000000000000000000000000AB
:10055000000000000000000000000000000000009B
:10056000000000000000000000000000000000008B
:10057000000000000000000000000000000000007B
:1005800000000000700000000024000000020003D2
:10059000000000650054FFEF0000FA80000B12829B
:1005A0000001030C30C30E8C8CE914D5400213718A
:1005B0000F8E3883F8833000F883258EF88330005F
:1005C000F883FFFFFFFF0FFEA9D6240004001A8264
:1005D00079A10000003CFFFF0000001000003883FC
:1005E0006FA2003E03304000000002CAE3093E80D3
:1005F000000020000000000000004000000060003B
:100600000000000C0000000C186E000006920A1694
:10061000C0DFFFFF0256FD8CD377FFE1C496E0C533
:10062000BEAA00000000FFFF0B2B000016570000C1
:1006300003594000000000001DFA00026C1D00007C
:1006400000003FFFDFEB003EB3B6000D2278000054
:100650002F3C00000000001942B5000039A2000044
:10066000B365D90E9FC91DCF4C3430000000500037
:1006700000003BB67AE80064000000C800000000FB
:100680000000100000001000FA921000225E000D21
:10069000229F0001000000320000FF46000063D4EA
:1006A00000001000000004D6000004CC000004CCC0
:1006B0000000000010720000004000000000000078
:1006C00000000006000200050007000000000064B2
:1006D000000000000000000000050005006400208C
:1006E00000000000000000000000000040000000CA
:1006F000030000000032F8980000FF650000830F3F
:100700000000FF9BFC000000000000000000000053
:1007100000000000000000000000000000000000D9
:1007200000000000000000000000000000000000C9
:10073000100040000000000000060000B26A000245
:1007400000000001FB830068000000D9FC007CF180
:10075000FF830000000000650000006403E80064FF
:100760000028000000250000000016A00000000086
:10077000100000001000002F0000000001F4000035
:10078000100000280000FFFF4581FFFFFA72000003
:10079000000000000000004400050005BAC6004744
:1007A00078A2000000010000000000000600000028
:1007B00000140000254D002F706D000005AE000CE8
:1007C00002D0000000000000000000000000000057
:1007D0000000001B000000000000000000000000FE
:1007E000000000640000000800000000000000009D
:1007F00000000000000000000000000000000000F9
:1008000000000000000000000000000000000000E8
:1008100000000000000000000000000000000000D8
:1008200000000000000000000000000000000000C8
:1008300000000000000000000000000000000000B8
:100840000000001B00000000000000000000000E7F
:10085000000E00000AC70004000000000032FFFF85
:10086000FF9C00000B2B00000002000000010000B4
:100870000064FFE500000000000000000000000030
:100880000000000000010000000000010000000066
:1008900000000001800000018000000180000024B1
:1008A00026D30000000000000000000600100096A3
:1008B000003C0000000000000000000000000000FC
:1008C00000000C0A4E68CDCF770950166759C6193B
:1008D000CE820000000000000000000000000000C8
:1008E0000000000000000000000017D78400030093
:1008F00000000000000000000000C7938F9D1E1B39
:100900001C190000000000000000000000000000B2
:100910000000000000000000000002031885000035
:100920004000000000030000000300000000000081
:100930000000400000000000000000000000000077
:1009400000000000000000000000000000000000A7
:100950000000000000000000000000000000000097
:10096000000000000000677DDF7E72902E554CF67F
:10097000E688000000000000000000000000000009
:100980000000D8DCB4B8B0D8B9ABF3F8FAB3B7BB51
:100990008E9EAEF132F51BF1B4B8B08097F1A9DFAD
:1009A000DFDFAADFDFDFF2AAC5CDC7A90CC92C970C
:1009B000F1A989264666B28999A92D557DB0B08ADC
:1009C000A896365676F1BAA3B4B280C0B8A89711EB
:1009D000B28398BAA3F0240844106418B2B9B4984A
:1009E00083F1A329557DBAB5B1A38393F0002850B4
:1009F000F5B2B6AA839328547CF1B9A3829361BA65
:100A0000A2DADEDFDB819AB9AEF5606870F1DABA9E
:100A1000A2DFD9BAA2FAB9A38292DB31BAA2D9BABB
:100A2000A2F8DF85A4D0C1BBAD83C2C5C7B8A2DF21
:100A3000DFDFBAA0DFDFDFD8D8F1B8AAB38DB49872
:100A40000D355DB2B6BAAF8C96198F9FA70E161EE4
:100A5000B49AB8AA872C547CBAA4B08AB6913256FC
:100A600076B28494A4C808CDD8B8B4B0F19982A85D
:100A70002D557D98A80E161EA22C547C92A4F02C05
:100A80005078F184A898C4CDFCD80DDBA8FC2DF3D8
:100A9000D9BAA6F8DABAA6DED8BAB2B68696A6D081
:100AA000F3C841DAA6C8F8D8B0B4B882A892F52C39
:100AB000548898F135D9F418D8F1A2D0F8F9A8845F
:100AC000D9C7DFF8F883C5DADF69DF83C1D8F4015D
:100AD00014F1A8824EA884F311D182F5D9922897F7
:100AE00088F109F41C1CD884A8F3C0F9D1D99782E5
:100AF000F129F40DD8F3F9F9D1D982F4C203D8DE83
:100B0000DF1AD8F1A2FAF9A88498D9C7DFF8F8F863
:100B100083C7DADF69DFF883C3D8F40114F198A83A
:100B2000822EA884F311D182F5D992509788F109C9
:100B3000F41CD884A8F3C0F8F9D1D99782F149F40C
:100B40000DD8F3F9F9D1D982F4C403D8DEDFD8F196
:100B5000AD8898CCA809F9D98292A8F57CF1883A99
:100B6000CF944A6E98DB6931DAADF2DEF9D8879519
:100B7000A8F221D1DAA5F9F417D9F1AE8ED0C0C30D
:100B8000AE82C684C3A88595C8A588F2C0F1F401D9
:100B90000EF18E9EA8C63E56F554F18872F40115EA
:100BA000F19845856EF58E9E0488F142985A8E9E86
:100BB000068869F4011CF1981E1108D0F504F11E95
:100BC000970202983625DBF9D985A5F3C1DA85A508
:100BD000F3DFD88595A8F309DAA5FAD88292A8F5AB
:100BE00078F1881A849F26889821DAF41DF3D88733
:100BF0009F39D1AFD9DFDFFBF9F40CF3D8FAD0F885
:100C0000DAF9F9D0DFD9F9D8F40BD8F3879F39D1C5
:100C1000AFD9DFDFF41DF3D8FAFCA869F9F9AFD03A
:100C2000DADEFAD9F88F9FA8F1CCF398DB45D9AF7B
:100C3000DFD0F8D8F18F9FA8CAF38809DAAF8FCB3D
:100C4000F8D8F2AD978D0CD9A5DFF9BAA6F3FAF46E
:100C500012F2D8950DD1D9BAA6F3FADAA5F2C1BA33
:100C6000A6F3DFD8F1BAB2B68696A6D0CAF349DAAF
:100C7000A6CBF8D8B0B4B8D8AD84F2C0DFF18FCB32
:100C8000C3A8B2B68696C8C1CBC3F3B0B48898A83F
:100C900021DB718D9D71859521D9ADF2FAD88597AB
:100CA000A828D9F408D8F28D29DAF405D9F285A458
:100CB000C2F2D8A88D9401D1D9F411F2D88721D8E5
:100CC000F40AD8F28498A8C801D1D9F411D8F3A4B1
:100CD000C8BBAFD0F2DEF8F8F8F8F8F8F8F8D8F1B9
:100CE000B8F6B5B9B08A95A3DE3CA3D9F8D85CA311
:100CF000D9F8D87CA3D9F8D8F8F9D1A5D9DFDAFA90
:100D0000D8B18530F7D9DED8F830ADDADED8F2B414
:100D10008C99A32D557DA083DFDFDFB591A0F62947
:100D2000D9FBD8A0FC29D9FAD8A0D051D9F8D8FC41
:100D300051D9F9D879D9FBD8A0D0FC79D9FAD8A162
:100D4000F9F9F9F9F9A0DADFDFDFD8A1F8F8F8F856
:100D5000F8ACDEF8ADDE8393AC2C547CF1A8DFDF79
:100D6000DFF69D2CDAA0DFD9FADB2DF8D8A850DA0F
:100D7000A0D0DED9D0F8F8F8DB55F8D8A878DAA0FA
:100D8000D0DFD9D0FAF8F8F8F8DB7DF8D89CA88C39
:100D9000F530DB38D9D0DEDFA0D0DEDFD8A848DBE5
:100DA00058D9DFD0DEA0DFD0DED8A868DB70D9DF6D
:100DB000DFA0DFDFD8F1A888902C547C98A8D05C05
:100DC00038D1DAF2AE8CDFF9D8B087A8C1C1B188CA
:100DD000A8C6F9F9DA36D8A8F9DA36D8A8F9DA3691
:100DE000D8A8F9DA36D8A8F9DA36D8F78D9DADF853
:100DF00018DAF2AEDFD8F7ADFA30D9A4DEF9D8F2BE
:100E0000AEDEFAF983A7D9C3C5C7F1889BA77AAD2F
:100E1000F7DEDFA4F8849408A797F300AEF29819E0
:100E2000A488C6A39488F632DFF28393DB09D9F253
:100E3000AADFD8D8AEF8F9D1DAF3A4DEA7F1889BFF
:100E40007AD8F38494AE19F9DAAAF1DFD8A881C070
:100E5000C3C5C7A39283F628ADDED9F8D8A350AD99
:100E6000D9F8D8A378ADD9F8D8F8F9D1A1DADEC38A
:100E7000C5C7D8A18194F818F2B089ACC3C5C7F131
:100E8000D8B8B4B09786A8319B069907AB97288845
:100E90009BF00C201440B0B4B8F0A88A9A2850787F
:100EA000B79BA8295179247059446938644831F1B5
:100EB000BBAB88002C547CF0B38BB8A804285078C6
:100EC000F1B088B49726A85998BBABB38B022646DD
:100ED00066B0B8F08A9CA82951798B2951798A2467
:100EE00070598B2058718A4469388B3940688A64FC
:100EF00048318B30496088F1AC002C547CF08CA8D0
:100F000004285078F1889726A85998AC8C02264678
:100F100066F0899CA829517924705944693864483D
:100F200031A98809205970AB11384069A819314896
:100F3000608CA83C415C207C00F187981986A86EE3
:100F4000767EA999882D557DD8B1B5B9A3DFDFDFAD
:100F5000AED0DFAAD0DEF2ABF8F9D9B087C4AAF1DF
:100F6000DFDFBBAFDFDFB9D8B1F1A3978E60DFB0B1
:100F700084F2C8F8F9D9DED89385F14AB183A30881
:100F8000B5839A0810B79F10D8F1B0BAAEB08AC234
:100F9000B2B68E9EF1FBD9F41DD8F9D90CF1D8F870
:100FA000F8AD61D9AEFBD8F40CF1D8F8F8AD19D989
:100FB000AEFBDFD8F416F1D8F8AD8D61D9F4F4ACFE
:100FC000F59C9C8DDF2BBAB6AEFAF8F40BD8F1AED7
:100FD000D0F8AD51DAAEFAF8F1D8B9B1B6A3839C26
:100FE00008B9B1839AB5AAC0FD3083B79F10B58BFD
:100FF00093F20202D1ABDADED8F1B080BAABC0C353
:10100000B284C1C3D8B1B9F38BA391B609B4D9AB3B
:10101000DEB0879CB9A3DDF1B38B8B8B8B8BB08754
:10102000A3A3A3A3B28BB69BF2A3A3A3A3A3A3A33F
:10103000A3A3A3F1B087B59AA3F39BA3A3DCBAAC97
:10104000DFB9A3A3A3A3A3A3A3A3A3A3A3A3A3A31E
:10105000A3A3D8D8D8BBB3B7F1AAF9DAFFD9809A3D
:10106000AA28B48098A720B79787A86688F07951F6
:10107000F1902C870CA781976293F0717160859431
:101080000129517990A5F1284C6C870C9518857829
:10109000A38390284C6C886CD8F3A28200F210A82D
:1010A000921980A2F2D926D8F188A84DD948D896AD
:1010B000A83980D93CD89580A839A68698D92CDA49
:1010C00087A72CD8A8899519A980D938D8A8893993
:1010D000A980DA3CD8A82EA83990D90CD8A8953187
:1010E00098D90CD8A809D9FFD801DAFFD89539A921
:1010F000DA26FFD890A80D8999A810809821DA2EB9
:10110000D88999A83180DA2ED8A886963180DA2E2F
:10111000D8A8873180DA2ED8A88292F34180F1D9FD
:101120002ED8A882F31980F1D92ED882ACF3C0A2B0
:101130008022F1A62EA72EA92298A829DAACDEFFDC
:10114000D8A2F22AF1A92E8292A8F23180A696F1B5
:10115000D900AC8C9C0C30ACDED0DEFFD88C9CACC3
:10116000D010ACDE8092A2F24C82A8F1CAF235F126
:101170009688A6D900D8F1FF0E0C0D0F08FFFF09C5
:10118000050406070A0B0F0C0D0E08FFFF090504E6
:1011900006070A0B0F0C0D0E0908FFFF05040607D2
:1011A0000A0B11241FBECFEFDAE0DEBFCDBF12E085
:1011B000A0E0B1E0E8EAF5E602C005900D92A634A1
:1011C000B107D9F727E0A6E4B2E001C01D92A73528
:1011D000B207E1F70E942D270C94D2320C94000044
:1011E000CF93DF93EC01DB018091E800877F809350
:1011F000E80080915507909156078617970770F180
:10120000109729F48091E8008E778093E80030E011
:1012100060E08BB5882309F455C0853009F454C0CB
:101220009091E800892F887093FD50C09091E8005C
:1012300092FD40C0109711F4662359F38091E800A5
:1012400080FFE7CF9091F3008091F200109739F181
:101250008034910520F5FA0161E00DC0DC01D7CFA3
:101260007081731307C061816093F10062816093A4
:10127000F10062E033967E2F741B721788F36130A1
:1012800031F4FE01E30FF11DE491E093F100E62F4C
:10129000F0E0AE1BBF0B8E0F9F1F360FD7CF61E064
:1012A0008034910509F060E08091E8008E778093AA
:1012B000E800AFCF9091E8009B779093E800DF9132
:1012C000CF91089582E0FBCF83E0F9CF81E0F7CFA3
:1012D000CF93DF93FC01DA0186E0EB01888385E0A0
:1012E000808315962C911597822F922F990F990B29
:1012F00097FD079653E0959587955A95E1F7828378
:1013000017962C911797822F922F990F990B9195E1
:101310008195910997FD079643E0959587954A95A4
:10132000E1F783831B962C911B97822F922F990FA5
:10133000990B97FD079633E0959587953A95E1F7D8
:10134000848319962C911997822F922F990F990BBC
:1013500097FD079623E0959587952A95E1F7858374
:101360002D913C911197818134FF14C0816081835C
:1013700081812D913C91119735FF0EC08260818350
:1013800081812D913C9136FF09C088608183DF9176
:10139000CF9108958E7FEBCF8D7FF1CF877FF6CFF2
:1013A000AF92BF92DF92EF92FF920F931F93CF9372
:1013B000DF93FC01DA018CE1EB01888384E0808318
:1013C000D090340386E2E82E81E0F82E5F0130E011
:1013D00020E061E070E0E70189917E018F3F09F430
:1013E0004BC0AB0102C0440F551F8A95E2F78D91A7
:1013F0009C9111974823592301811281CB01022E20
:1014000002C0880F991F0A94E2F74115510549F16E
:10141000802B912B928381832D1570F59091650619
:101420009B3121F5243010F5C90188589E4FEC01FD
:1014300088818B0102C0000F111F8A95E2F78D9100
:101440009C9111978023912301E010E0452B11F42A
:1014500000E010E0082B192B81E0012B51F480E013
:1014600008C08095909580239123D4CF81E0452BAF
:10147000B1F38195E50188872F5F3F4FDFEFAD1A0C
:10148000BD0A2E30310509F0A6CFCC91CF7088E08F
:10149000CB3020F4D0E0CB50DE4F888183831A9686
:1014A0002D913C911B97809165068B3109F056C0B8
:1014B00019968C9119978058868387EF91E02F3F7A
:1014C0003F4711F484E891E0958B848B8DE7878307
:1014D000809165068F3119F08A3109F05EC08181F3
:1014E000928112962C911297233308F452C0806196
:1014F000928381838181928113962C911397233358
:1015000008F449C080629283818312968C9112976D
:10151000848713968C911397858715968C911597D0
:101520008058848317969C911797905895831996A5
:101530008C911997805886831B968C91805887834D
:10154000209165062A3169F1DF91CF911F910F91AA
:10155000FF90EF90DF90BF90AF9008958D3119F01C
:10156000803209F0B5CF19969C91199780E8891BB4
:101570008683818192812F3F3F4749F48062928325
:10158000818312969C91129780E8891BA0CF8F7D52
:10159000F6CF8F7EADCF8F7DB6CF80E884838583F5
:1015A000D3CF9095958380958783CECFFC01CB01D7
:1015B00020915507309156072617370790F000976E
:1015C00029F42091E8002E772093E80040E000976E
:1015D00051F4411108C08091E80082FF30C080E0E2
:1015E0000895C901F3CF2BB52223A1F12530A1F134
:1015F0002091E80023FD2CC02091E80022FDEBCFD4
:101600002091E80020FFE3CF3091F3002091F20019
:10161000009719F02034310558F041E020343105AD
:1016200009F040E02091E8002E772093E800CFCF2A
:1016300041914093F10001972F5F3F4FE9CF8BB568
:10164000882341F0853041F08091E80083FFC3CFCB
:1016500081E0089582E0089583E00895FC01CB01C4
:1016600020915507309156072617370790F00097BD
:1016700029F42091E8002E772093E80040E00097BD
:1016800051F4411108C08091E80082FF31C080E030
:101690000895C901F3CF2BB52223A9F12530A9F173
:1016A0002091E80023FD2DC02091E80022FDEBCF22
:1016B0002091E80020FFE3CF3091F3002091F20069
:1016C000009719F02034310558F041E020343105FD
:1016D00009F040E02091E8002E772093E800CFCF7A
:1016E00044914093F100319601972F5F3F4FE8CF2F
:1016F0008BB5882341F0853041F08091E80083FF6D
:10170000C2CF81E0089582E0089583E0089580913A
:101710004F0787FF11C08091E80082FF06C08091CB
:10172000E8008B778093E80003C08BB58111F3CF7D
:1017300008958BB58823E1F38091E80080FFF9CF0D
:101740008091E8008E77EECF2091E4003091E500A3
:1017500095E6A9012091EC00822F817020FF06C040
:101760008091E80080FF06C080E008952091E800A5
:1017700022FD19C08BB5882389F0853089F08091CE
:10178000EB0085FD0FC02091E4003091E500421789
:10179000530701F39150E9F684E0089582E008953B
:1017A00083E0089581E00895CF93DF9300D000D0C7
:1017B000CDB7DEB72FB7F8948091B9029091BA02F5
:1017C000A091BB02B091BC022FBF2227382F492F16
:1017D0005A2FCA01B9012DE730E040E050E00E94E5
:1017E0002632CA01B9010F900F900F900F90DF9130
:1017F000CF910895CF92DF92EF92FF920F931F93B4
:10180000CF93DF93EC016B01BA01A901F801C70185
:1018100020812630E0F4209771F000271127041B67
:10182000150B601771073CF431962E0D3F2D311DBD
:10183000D9011396CC93C114D10449F04617570728
:1018400034F42081820F911DDC011396CC92DF913C
:10185000CF911F910F91FF90EF90DF90CF9008955F
:101860008F929F92AF92BF92CF92DF92EF92FF92B0
:101870000F931F93CF93DF930F92CDB7DEB76C0119
:101880004A0189E0DB018C9386E0F6018083E6E97A
:10189000F6E050E040E080E061E070E09191992353
:1018A000A1F0D401AD90BC909B01042E02C0220F88
:1018B000331F0A94E2F72A213B21232B31F0D60172
:1018C000A80FB11D13969C938F5F4F5F5F4F403100
:1018D000510509F05EC08983A0903203B0903303B4
:1018E000F401448155816091A90670E08091A806B9
:1018F00076018E010F5F1F4F950190E07BDFD401D1
:1019000016964D915C916091AB0670E08091AA06AD
:10191000950190E06FDFF401408551856091AD063F
:1019200070E08091AC06950190E064DFD4011A96D6
:101930004D915C916091AF0670E08091AE0695018B
:1019400090E058DFA0903003B0903103F401428161
:1019500050E06091A60670E0950190E080E04ADFDB
:10196000D40113964C9150E06091A70670E0950168
:1019700090E080E03FDF0F90DF91CF911F910F91BA
:10198000FF90EF90DF90CF90BF90AF909F908F909F
:101990000895863009F082CF9ECFCF93DF9300D099
:1019A00000D0CDB7DEB7DB019C010E944F326983C6
:1019B0007A838B839C83DC01CB019F77AA27BB278B
:1019C00081159044A105B105D1F080E090E4A0E03C
:1019D000B0E029813A814B815C81820F931FA41F63
:1019E000B51F2FE0B595A795979587952A95D1F7BF
:1019F0000F900F900F900F90DF91CF91089580E09E
:101A000090E0DC01E6CF8EBD00000DB407FEFDCFF7
:101A10008EB50895CF93DF93DC01FC01379685E006
:101A2000EF0119928A95E9F7862F90E0FC01E75AB9
:101A3000FE4F6491865C9E4FFC01849170E0660FBE
:101A4000771FFB01E45DFE4FC591D491FB01E25E7F
:101A5000FE4F659174918C931296DC93CE931197FF
:101A600014967C936E93139781E090E0042E02C04D
:101A7000880F991F0A94E2F716969C938E931597F8
:101A800019962C9319971A964C931A97CD01DF91BA
:101A9000CF91089590E0FC01E65CFE4F2491FC019B
:101AA000E75AFE4FE491EE2389F0F0E0EE0FFF1FBE
:101AB000E25EFE4FA591B4918FB7F894611107C013
:101AC0009C91E22FE095E923EC938FBF0895EC9170
:101AD000E22BFACF90E0FC01E65CFE4F2491FC0182
:101AE000E75AFE4FE491EE2359F0F0E0EE0FFF1FAE
:101AF000E45DFE4FA591B491EC91E22381E009F4FD
:101B000080E090E00895CF93DF93EC0180918E0602
:101B1000E1DF892B39F090E080E09B878A87DF91B5
:101B2000CF9108958FEF9FE7F8CFE82FF0E0EE5EBA
:101B3000FE4FE49190917B008E2F880F880F80726A
:101B40009F7D892B80937B00E770E064E0937C00AD
:101B500080917A00806480937A0080917A0086FD7B
:101B6000FCCF8091780090917900089580917A005F
:101B700086FDFCCF81E0809340010895CF93DF93F1
:101B800090E0FC01E65CFE4F2491875A9E4FFC01D9
:101B900084918823D1F090E0880F991FFC01EC5FBD
:101BA000FE4FA591B491FC01E25EFE4FC591D49128
:101BB000613071F49FB7F8948C91209582238C93B7
:101BC0008881282328839FBF7894DF91CF9108953F
:101BD000623051F49FB7F8943C91822F8095832313
:101BE0008C93E8812E2BEECF8FB7F894EC912E2BAF
:101BF0002C938FBFE9CFCF92DF92EF92FF921F938A
:101C0000CF93DF936B017C01142FD22F60E080E132
:101C1000B5DF62E08EE0B2DF60E08FE0AFDF61E071
:101C200081E138DF60E081E1A9DF1111C8E0D11165
:101C3000C460C11489E0D8068DE3E806F104D0F54C
:101C400080E8C81684E8D8068EE1E806F104A0F51D
:101C500080E4C81682E4D8068FE0E806F10470F547
:101C600080E2C81681EAD80687E0E806F10440F56C
:101C700080E9C81680EDD80683E0E806F10410F587
:101C800088E4C81688EED80681E0E806F104E0F49E
:101C900087E091E08927982F96959C2B90659CBDB5
:101CA00081708DBDDF91CF911F91FF90EF90DF90FC
:101CB000CF90089580E0EDCF81E0EBCF82E0E9CFD7
:101CC00083E0E7CF84E0E5CF85E0E3CFCF92DF92FA
:101CD000EF92FF92F0E0E0E067E675E483E291E0E6
:101CE00041E2409357002491622728E030E06B01E5
:101CF0007C0151E0C522DD24EE24FF2496958795D2
:101D000077956795CD28CE28CF2841F050E26527FA
:101D100053E8752758EB85275DEE9527215031094B
:101D200031F73196E032F105E1F6FF90EF90DF9068
:101D3000CF900895682F8AE0ADCE9F92AF92BF9268
:101D4000CF92DF92EF92FF920F931F93CF93DF9387
:101D5000CDB7DEB7AE970FB6F894DEBF0FBECDBFDE
:101D6000109248041092470401DF10923E03109233
:101D70003D0310923C0310923B0304E616E0D12C85
:101D800036E1C32ECE0101967C01D701EC2D1D92C8
:101D9000EA95E9F7DB82D8019096EC91EF3F09F4E0
:101DA00043C0B5E0DB120CC0A0916506B0E0AA5FAD
:101DB000BD4F8C91823021F4809166068330A1F56D
:101DC000D80191968C918D83E23108F0E251F0E0D8
:101DD000EE5EFE4FB49061E082E18B0DCFDE90911C
:101DE0007B008B2D880F880F80729F7D892B8983C4
:101DF000EB2DE770E064EA8380913D0390913E0310
:101E00009C012F5F3F4F30933E0320933D03C89EBC
:101E1000D001C99EB00D1124A15CBC4FF7018C2DDF
:101E200001900D928A95E1F7D3940E5F1F4FB6E0B3
:101E3000DB12ABCF80916406823009F092C084E758
:101E4000C82E86E0D82E10E000E09CE0B92E27E0F6
:101E5000A22EF60161916F016F3F09F47CC081E011
:101E60000C30110538F49801285031092230310521
:101E700008F080E0F82FF1709F2E80FF05C021E070
:101E800080916806813009F020E02170402FCE015A
:101E90008396C0DD8CA5E0916506F0E0EA5FFD4F1A
:101EA0009081F6013197913009F06DC0992009F4C5
:101EB0006AC080812091920648E0249F90011124FD
:101EC0004CE0FE01B396DE01579601900D924A95C3
:101ED000E1F7D701EA2D1D92EA95E9F78B839A87FE
:101EE0009CE0FE017796DE011B9601900D929A957B
:101EF000E1F739872887823108F08251E82FF0E036
:101F0000EE5EFE4F949061E082E1890D37DE9091A4
:101F10007B00892D880F880F80729F7D892B898394
:101F2000E92DE770E064EA8320913D0330913E03A0
:101F3000C901019690933E0380933D0386E1829F01
:101F4000D001839FB00D1124A15CBC4FF70101901B
:101F50000D928A95E1F70F5F1F4F0031110509F0CF
:101F600078CFAE960FB6F894DEBF0FBECDBFDF912F
:101F7000CF911F910F91FF90EF90DF90CF90BF9086
:101F8000AF909F90089562E0811161E08081F6DD5D
:101F900080914704909148049C012F5F3F4F3093FC
:101FA000480420934704B89ED001B99EB00D112477
:101FB000A75BBB4FFE01B3968B2DC9CF90916606F0
:101FC000913021F49EEF980F923058F0909168066E
:101FD000923029F492EF980F81E0943008F080E07D
:101FE000089581E008950F931F93CF938091210569
:101FF0008823B9F009E015E0C0E08C2FDFDF811104
:1020000003C061E08C2FBADD8C2F64DD9C0191E070
:10201000232B09F490E0F80191938F01CF5FC83131
:1020200061F710923A0510922105CF911F910F91FF
:1020300084CEAAE0B3E01396ED91FC9114978081D1
:102040009C91892B8083AEEFB2E01396ED91FC91C9
:10205000149780819C91892B8083A6E1B3E013962D
:10206000ED91FC91149780819C91892B8083089538
:10207000982F817090FD80E891FD806492FD8062D0
:1020800093FD806194FD886095FD846096FD82607B
:1020900097FD816008950F931F93CF93DF93FC0109
:1020A000AB01AEE9B1E030E020E061E070E08D919D
:1020B0008F3FC1F0C081D1818B0102C0000F111F81
:1020C0008A95E2F7C8018B01022E02C0000F111F92
:1020D0000A94E2F704231523012B71F08C2B9D2B1E
:1020E000918380832F5F3F4F2031310501F7DF91CE
:1020F000CF911F910F910895809590958C239D23EA
:10210000EFCF0F931F93CF93DF93EC018B01FB0174
:1021100080818052990B880F880F1C828D8381816A
:102120008052990B880F880F1E828F83648175817E
:10213000609570957E7FCE01AEDF8091650683321B
:1021400080F0F801838181FF0CC08095807E9281B0
:1021500096959E739A31E0F4FE01E859FF4F923153
:10216000E1F088819981F801258123FD18C09064F0
:102170009983888388819981F801258125FD11C083
:10218000906899838883DF91CF911F910F91089573
:10219000FE01EC59FF4F9E3121F78083E2CF9F7BF8
:1021A000E7CF9F77EECFFC01DB018C91880F880F82
:1021B00080581482858311968C911197880F880F0F
:1021C00080581682878313962C9113972F71205174
:1021D000330B322F2227330F330F319521953109DD
:1021E0003187208714966D917C9160957095CF0111
:1021F00052CFFC01DB018C9190914902992341F16E
:102200008058990B1482858312968C91129780586E
:10221000990B1682878311968C9111978058990B90
:102220001086818713968C9113978058990B12868C
:10223000838714968C911497828315968C911597A9
:10224000838316966D917C9160957095CF0123CF15
:102250008F738052990B9583848311968C9111977B
:102260008F738052990B978386838C9190E023E043
:10227000959587952A95E1F78871992711962C9164
:10228000119730E045E0359527954A95E1F726709E
:102290003327822B932B12962C911297221F2227E1
:1022A000221F822B40979187808712968C911297DC
:1022B0008F718051990B9387828712968C91129718
:1022C00086958695887113969C911397929596950D
:1022D0009770892B828313968C9113978F718383C8
:1022E00014966D917C91B0CFDC01FB01808121813E
:1022F000229526952670982F969596959695987185
:10230000292B9281991F9927991F292B880F880FB4
:10231000805814961C92149715968C93159781816A
:10232000880F880F805816961C92169717968C93D4
:1023300017979481338190FF38C0832F90E0809568
:1023400090958F719927809619969C938E931897E4
:10235000022E000C330B828180FF2DC08FE390E0B2
:10236000821B930B1B969C938E931A978281869562
:10237000869588719381929596959770892B129680
:102380008C931297828190E0959587958F70139624
:102390008C931397648175817627672776276095DC
:1023A00070956D7C7376CD0176CE3F7180E290E0C2
:1023B000831B9109C9CF80E290E0D2CFFC01DB0101
:1023C00012968C91129790E0982F882788279F70FB
:1023D0002C91822B9583848312968C91129720E105
:1023E000829FC001112488279F7011962C9111970C
:1023F000822B9783868313968C9113978383808196
:10240000918115962C91159720FF17C090619183AB
:1024100080838081918115962C91159721FF0FC0A3
:102420009062918380838081918115962C9122FD09
:1024300008C090649183808308959F7EE8CF9F7D3C
:10244000F0CF9F7BF7CFFC01DB018D919C91119721
:102450009583848312968D919C911397978386839D
:1024600014968C9183830895FB016481758176278E
:1024700067277627609570950ECEDC01862F90E059
:10248000603100F5E0916506F0E0EA5FFD4F2081E4
:10249000213049F4693038F0FD01E80FF91FE45AA2
:1024A000FF4F8081089581E090E002C0880F991F5E
:1024B0006A95E2F72D913C9182239323892BE1F4D5
:1024C00080E0089520919006633168F0FC017097D8
:1024D000EE0FFF1FEA0FFB1F81E04081518124179F
:1024E000150670F70895FD01E80FF91F3E9781E08A
:1024F00090812917B8F3E4CF80E4F4CF7F928F92D4
:102500009F92AF92BF92CF92DF92EF92FF920F9382
:102510001F93CF93DF93EC017B01742E852E87E010
:10252000888348E0C42E47E0D42E03EA12E0912CC1
:10253000B12CF60181916F01882369F130EBA32E54
:10254000813011F420E9A22E692D872D982D95DF79
:102550008695F80190819817F1F0F60143A59589C9
:10256000F80180832B2D30E054E0B59EF00111245A
:10257000EC0FFD1F5A2D52955F705183A42AA28241
:102580009383F9013196EE0FFF1FEE0FFF1FEC0F43
:10259000FD1F8083B3940F5F1F4F939486E19812C1
:1025A000C8CFBB0CBB0CB394F701B082DF91CF91C5
:1025B0001F910F91FF90EF90DF90CF90BF90AF9061
:1025C0009F908F907F90089580E0B4DB81EE1BDABE
:1025D00081E0B0CB80E0AEDB82EE15DA81E0AACB01
:1025E00080E0A8DB80E50FDA83E70DDA81E0A2CB9B
:1025F000CF9380E09FDB8FEF06DAC82F81E09ADB74
:102600008C2FCF9108950F931F93CF93DF93EC01FD
:102610008C01060F111D8991F6D9C017D107D9F782
:10262000DF91CF911F910F910895CF93DF93D82F12
:10263000C62F80E07FDB8D2F8062E5D98C2FE3D918
:1026400081E0DF91CF9176CBFF920F931F93CF93D1
:10265000DF93D82FF92EC62F8091FD02811108C07B
:10266000C0E08C2FDF91CF911F910F91FF900895C3
:102670001092FD02BDDF282F30E035952795277099
:1026800033272730310561F360E487E0CEDFC111E5
:1026900009C080E04FDB80E6B6D980E0B4D9C82F0E
:1026A00081E048DB80E046DB81E6ADD90D2F1F2DB0
:1026B000802F8D1B8C1718F081E03CDBD2CFF80106
:1026C00081918F01A0D9F80131978083F1CFF894DF
:1026D00088E198E00FB6F894A895809360000FBE4B
:1026E00090936000FFCF1F93CF93DF93182FEB01E0
:1026F00080E020DB812F87D9888185D9888381E09C
:10270000DF91CF911F9116CBCF93DF930F92CDB76F
:10271000DEB7BE016F5F7F4FE6DF89810F90DF91EB
:10272000CF9108951F93CF93DF93182FD62FC72FE4
:1027300080E000DB812F806266D964E08D2F9C2FC2
:1027400062DF81E0DF91CF911F91F4CA85ED809324
:10275000BC008FEF9FE72091BC0024FD03C01092C6
:10276000240302C00197B9F708958093E900EBEEC6
:10277000F0E0808181608083EDEEF0E01082609374
:10278000EC0040838091EE000895CF93DF93DC014D
:10279000FA0184E1EB0188831C9211968C931197C6
:1027A00012968CE001900D928A95E1F7DF91CF911E
:1027B0000895CF93282FCB01C42F4FEF5FE7C1328D
:1027C00038F0C0E08C2FCF91089541505109C9F3E2
:1027D000309124033111F9CF31E030932403309349
:1027E00023034FEF40937F021092A1024C0F4093BE
:1027F000A0023093A2023091A202220F232B209339
:10280000A20220912203222359F110922203209147
:10281000A2022093BB002FEF3FE74091BC0043FD95
:1028200016C025EC2093BC002FEF3FE74091240316
:102830004130C1F02091A1022C1710F4C091A102E7
:102840004C2F50E060E872E00E949132BBCF2150E3
:10285000310909F4B6CF4091A2024093BB00DDCF0D
:1028600025EEE0CF2150310909F7ABCFCF93DF93AD
:10287000C82F8FEF9FE7413228F0D1E048C0019781
:1028800009F454C0D0912403D111F9CF82E0809390
:10289000240381E0809323038FEF80937F021092C3
:1028A000A1024093A00250E080E892E00E949132A1
:1028B0001092A2028091A202CC0FC82BC093A20258
:1028C00080912203882371F1109222038091A20249
:1028D0008093BB008FEF9FE72091BC0023FD1BC0BE
:1028E00085EC8093BC008FEF9FE72091240322307A
:1028F000D9F080917F028F3F51F080917F02D2E02A
:10290000803229F080917F02D3E0803379F48D2FDB
:10291000DF91CF910895019749F02091A202209371
:10292000BB00DACF85EEDDCF0197F9F6D4E0EFCF2B
:10293000EF92FF920F931F93CF93DF930F92CDB738
:10294000DEB7182F6983E42EF22E032F41E0BE017B
:102950006F5F7F4F8BDF811113C04E2D6F2D702F56
:10296000812F27DF91E0811101C090E0892F8170D4
:102970000F90DF91CF911F910F91FF90EF900895ED
:1029800080E0F5CFCF92DF92EF92FF920F931F93EB
:10299000CF93DF938C01EB017C016B01C40ED11C42
:1029A000CC15DD0549F4DF91CF911F910F91FF9078
:1029B000EF90DF90CF9008958AE50115110511F091
:1029C000F701808155DB1FD853DB8993F8E2FA9534
:1029D000F1F78FEFE81AF80AE3CF0F931F93CF9325
:1029E000DF938C01D62FE0911903F0911A039081A7
:1029F0008091160380958923808388E28A95F1F778
:102A000043E06AE472E0C801BDDF80914B028F3F72
:102A100049F4D0E0C0E00DDBCE01DF91CF911F91F2
:102A20000F91089590914C029A3511F09111F1CFC8
:102A30008F70C82FCC0FD33039F04DEF4D0F6DE4B0
:102A400072E0C80103969EDFCD5F4C2F4D1BCD1762
:102A500061F06D2F70E0CB01840F911D8197CCF652
:102A6000665B7D4F90E080E08DDFCAE4D2E0D3CF9B
:102A7000CF92DF92EF92FF920F931F93CF93DF934A
:102A800000D000D000D0CDB7DEB78D839E83062F57
:102A90000E94D40B6B017C0110E0602F8D819E8120
:102AA0009CDFFC01892B51F01F5F8D819E81815F2E
:102AB000914059F58181807F803F81F18FE19EE4D3
:102AC0000197F1F700C000000E94D40B69837A835C
:102AD0008B839C83DC01CB018C199D09AE09BF0956
:102AE0008B3F9105A105B105C0F280E026960FB697
:102AF000F894DEBF0FBECDBFDF91CF911F910F9134
:102B0000FF90EF90DF90CF9008958D819E818D5E34
:102B1000914031F48181807F803F81F281E0E6CF76
:102B20001330E0F7CBCFEF92FF920F931F93CF9329
:102B3000DF93EC0163E08AEE91E04FDFFC01892B2B
:102B400049F08181982F907F903F31F464E08DEEC1
:102B500091E08EDF80E03CC0E380F480E094F0946C
:102B600020910001AAECB1E0243011F0AAEDB1E00F
:102B70009035A9F586E08093000130E020E001E087
:102B800010E08D918F3FC9F048815981B80102C092
:102B9000660F771F8A95E2F7CB01B801022E02C0BB
:102BA000660F771F0A94E2F76E217F21672B09F4E5
:102BB00054C0842B952B998388832F5F3F4F2031FE
:102BC0003105F9F68181807D803509F44DC081E0C1
:102BD000DF91CF911F910F91FF90EF900895833275
:102BE00001F585E08093000185818058990B1C8256
:102BF0008D83888199812681213848F19064998359
:102C00008883888199812781213818F19068998378
:102C10008883888199812085213FE8F0916099839C
:102C200088838181823109F0A8CF87E080930001F9
:102C300085818058990B1C828D8326818FE790E0D7
:102C4000821B91091E828F83AFEBB1E096CF9F7BF1
:102C5000D6CF9F77DCCF9E7FE2CF8095909548239B
:102C6000592359834883A9CF85818058990B1886A9
:102C7000898726818FE790E0AC01421B51091A86B3
:102C80004B8727812058330B1C822D832085821B84
:102C900091091E828F838181893709F098CF8389BA
:102CA0008A8384898B8380910001843009F08FCFDF
:102CB000818990E099878887EE2451E0F5222FEFF3
:102CC0003FE7E29EC001E39E900DF29E900D11241D
:102CD0009B878A877CCF1F93CF93DF93182FD92FA1
:102CE000809100018830A9F5C5E0812F9D2F1BDF61
:102CF0008FEC97E00197F1F700C00000C150A9F7F1
:102D0000812F9D2F10DF882361F164E081EF91E036
:102D1000AFDE882381F163E08EEA91E05EDEFC01A4
:102D2000892B49F08381833021F18130F1F4818155
:102D3000823409F0C4E0C093000165E08AEB91E0C1
:102D400097DE69E081EB91E093DE64E08DEE91E047
:102D50008FDE812F9D2FE7DE811103C088E08093F5
:102D60000001DF91CF911F9108958C3021F7C3E0CE
:102D7000E2CFC2E0E0CF81E080930001EACFFF9292
:102D80000F931F93CF93DF930F92CDB7DEB7898355
:102D9000F62E8A0141E0BE016F5F7F4F82E566DD5E
:102DA00081110EC08DE591E00197F1F700C00000A0
:102DB0004F2DB80182E5FDDC982F81E0911101C013
:102DC00080E00F90DF91CF911F910F91FF900895B8
:102DD000CF93DF9300D000D000D0CDB7DEB7AE01E7
:102DE0004F5F5F4F66E08AEFCADFFE013196AE01AA
:102DF000495F5F4F8FEF90E02191922B82234E1716
:102E00005F07D1F7992369F08F3F59F099818E813F
:102E100026960FB6F894DEBF0FBECDBFDF91CF91DF
:102E200008958FEF9FEFF4CF8F929F92AF92BF9252
:102E3000FF920F931F93CF93DF93CDB7DEB7C656A4
:102E4000D1090FB6F894DEBF0FBECDBF8BB5882376
:102E500009F4B2C08091E9008F702091EC00922FAC
:102E6000917020FD90E8F92EF82A1092E9008091E7
:102E7000E80083FF9DC08FE497E0FC01019620915C
:102E8000F100208327E087359207B9F78091E800A9
:102E900083FF6BC02091500780914F07213009F0CC
:102EA0001DC1813A09F00BC290915107892F3091D1
:102EB0004A07332309F491C09C3308F08EC0923343
:102EC00009F48BC099832A837FDB84DB0E94D40BB7
:102ED0004B015C018DDB80FD0DC080E00E949A0EED
:102EE00089EA0E94030D62E0CE0101968CDB81E04D
:102EF0000E949A0E81E08093FD0260E08DEB92E0EB
:102F0000A3DB682F882311F08C3011F560E387E094
:102F10008CDB0E94D40BA7966CAF7DAF8EAF9FAFBA
:102F2000A797DC01CB0188199909AA09BB09853F3C
:102F30009140A105B10570F288E08093BD0246E0A2
:102F400050E06AE871E08EEB92E00E94743267E034
:102F50008091E800877F8093E8006150770B8EEBCB
:102F600092E00E94D60A0E94870B8091E80083FFBE
:102F700011C090914F0780915007853009F49CC291
:102F800008F0F6C1282F2D7F213009F45CC2882378
:102F900009F438C28091E80083FF0AC08091E800FC
:102FA000877F8093E8008091EB0080628093EB0044
:102FB0008F2D8F708093E900CA59DF4F0FB6F894B8
:102FC000DEBF0FBECDBFDF91CF911F910F91FF905C
:102FD000BF90AF909F908F90089528E02093BD02FE
:102FE0008C3328F1A92FAC53BB0B42E34A9F9001CD
:102FF0004B9F300D11240BEE10E0021B130B02331C
:10300000110510F002E310E0B9016C59794FA801E5
:103010008EEB92E00E949132B8016F5F7F4F8091FA
:10302000E800877F8093E8006150710998CF823370
:1030300011F0873309F564E871E083EC92E00E94B7
:103040007D3280E092E1AAE7B0E08093BE029093E7
:10305000BF02A093C002B093C1020E94660E6093AB
:10306000D2027093D3028093D4029093D50210922F
:10307000C20269E170E0D3CF8533A1F48091640688
:10308000813049F4809101018093BE021092BF0209
:1030900063E070E0C4CF8330D9F780910001809362
:1030A000BE02F6CF863349F4809141018093BE027F
:1030B0000E94F30F62E070E0B2CF48E050E06CE7AE
:1030C00071E08DEB92E00E947432809165068F3141
:1030D00010F41092C00268E070E0A1CF293009F02E
:1030E0000EC1813209F041CF4091550750915607EA
:1030F000109151078091E800877F8093E800CA0112
:103100009927411105C02091E8002B772093E80012
:10311000FE0133960097C9F48091E80080FD05C058
:103120008BB5882311F08530B9F7193361F11B3362
:1031300009F055C0415050E06B8170E06F5F7F4FE8
:10314000CE0104960E94B13229C02BB5222369F327
:10315000253059F32091E80023FDE7CF2091E800C6
:1031600022FFD8CF3091F3002091F200232B29F0D9
:103170002091F10021930197A9F72091E8002B7786
:103180002093E800C7CF8B8190E0415050E0BE0112
:103190006C5F7F4F8C5F994F0E9491320E94870B2A
:1031A00080914A07882309F4E0CE19831A8211E03E
:1031B0001FDA80FD79C060E387E037DA80E00E94A3
:1031C0009A0E89EA0E94030D60E2CE0101961BDA95
:1031D00081E00E949A0E81E08093FD02C6CE1333F7
:1031E00009F444C058F4103341F01133B9F687E7BD
:1031F00097E7909301088093000869DA143389F007
:103200001A3361F64BEE50E067E974E084E696E02D
:103210000E9474324BEE50E061E070E084E696E08C
:1032200091CF80914A078111B9CF80913A058111E0
:10323000B5CF8FEF809341010E94B60D42E2A42EDC
:1032400045E0B42E02E162E0802F0E94BE0D8EEEBA
:10325000800F0E94950DF501819391935F010F5F9F
:103260000E3189F781E080933A0598CF80914A0723
:10327000811194CF80912105811190CF8FEF8093A0
:1032800041010E94B60D00E0802F0E94DE0F8111E7
:1032900004C062E0802F0E94BE0D0F5F0831A1F7CD
:1032A00081E0809321057ACF1093FD0260E0CE018A
:1032B0008D5B9F4FC9D960E387E0B7D979CF813C57
:1032C00009F0E7C18091530790915407813091052F
:1032D00039F42091510730915207232B09F4CDC1C5
:1032E000019709F042CE80915107909152078115C4
:1032F000914009F03ACE64E18CE991E0C1C12032FD
:1033000009F0CCC1813C91F480915307909154070E
:10331000059709F02ACE80915107909152070297A4
:1033200009F023CE6EE880EF91E0AAC1803C09F05D
:10333000B5C18091530790915407049709F015CEB9
:1033400060E480EB91E09CC1803C09F00ECE80915E
:103350005307909154072091510730915207822BC7
:10336000932B892B09F001CE64E088E991E088C1B4
:10337000883009F44AC1893009F454C1863009F013
:1033800009CE9058923008F005CEE0915107F091A7
:103390005207BE016D5F7F4FEC3D23E0F20709F05D
:1033A000ADC083E08A838AE289834FB7F894DB015A
:1033B00020E03EE051E2E32FF0E05093570084918B
:1033C00020FF03C082958F703F5F8F708A3008F4B2
:1033D00093C0895C90E08D939D932F5F243159F7C2
:1033E0004FBF8091E800877F8093E8006AE270E039
:1033F000CE0101960E94D60A8091E8008B778093D7
:10340000E800C8CD903891F0923809F0C3CD809192
:1034100053078F70873008F0BDCD8093E90080910D
:10342000EB0085FB882780F91092E9009091E80075
:10343000977F9093E8008093F1001092F1008091C3
:10344000E8008E7721C0923009F0A4CD9091510709
:10345000911115C0909153079F702FEF290F2630BF
:1034600008F098CD9093E9002091EB0020FF07C071
:10347000833079F48091EB0080628093EB001092AE
:10348000E9008091E800877F8093E8000E94870B25
:1034900081CD8091EB0080618093EB0021E030E0F2
:1034A00001C0220F9A95EAF72093EA001092EA00F1
:1034B0008091EB008860E1CF91116CCD10915107A4
:1034C0001F778091E3008078812B8093E3008091C7
:1034D000E800877F8093E8000E94870B8091E800D6
:1034E00080FFFCCF8091E30080688093E30082E05E
:1034F000111183E08BBD4ECD805D6CCF8F2F99274E
:103500001A82198224E0DB011D922A95E9F78330A3
:10351000910509F464C0E8F48130910571F10297D6
:1035200009F038CD86E1898380914E018A8395E246
:103530009B8391E49C8399E89D8323E0873108F085
:1035400026E0AE014F5F5F4F6DEB70E088EA93E0DD
:1035500040C0829709F01ECD80914E01873108F05E
:103560003BC08EE792E069E870E02091E800277F99
:103570002093E8000E942E0B3FCF80914E018A518C
:1035800020E08830F8F498E0998390E0880F991F44
:10359000FC01EB58FB4FE491EA839C012E5F3F4F07
:1035A000FC01E958FB4FE491EB834AE04C838B59D3
:1035B0009B4FFC0184918D83F901EB59FB4FE49102
:1035C000EE8326E0AE014F5F5F4F62E170E085E879
:1035D00094E00E94F008DECC87E093E0C4CFE430B2
:1035E00070F4FF27EE0FFF1FEE55FC4F859194916D
:1035F000FC012491622F70E02111B7CFCBCCEE3EBD
:1036000009F0C8CC80E993E0F3CF903809F0C2CC40
:103610008091E800877F8093E80080913503809354
:10362000F1000DCF9111B6CC10915107123008F076
:10363000B1CC8091E800877F8093E8001093350338
:103640000E94870B112311F084E005C08091E300F4
:1036500087FDFACF81E08BBD42E261EC81E085D845
:1036600042E261EC82E081D842E260EC85E07DD804
:1036700042E261E883E079D88DCC68E080E991E0AE
:103680002091E800277F2093E80070E00E942E0B35
:103690006ACC813209F058CE60E053CE8132E1F33A
:1036A00064CCEF92FF920F931F93CF93DF9300D0E0
:1036B000CDB7DEB7082F142F732F8DB79EB79A831F
:1036C000898350E0CA010196EDB7FEB7E81BF90BFC
:1036D0000FB6F894FEBF0FBEEDBF8DB79EB7019633
:1036E0007C016183622F01960E94913241E0410F7B
:1036F000B701802FBBD8982F81E0911180E0E9813C
:10370000FA810FB6F894FEBF0FBEEDBF0F900F9079
:10371000DF91CF911F910F91FF90EF900895EF925D
:10372000FF920F931F93CF93DF930F92CDB7DEB726
:1037300080910901811109C08FEF0F90DF91CF9126
:103740001F910F91FF90EF9008951982A0910301AE
:10375000B0910401E0910501F09106018E010F5F27
:103760001F4F980141E051966C9180819ADF78015A
:10377000882311F3A0910301B0910401E0910501A8
:10378000F0910601980141E015966C91808189DFE6
:10379000882391F2A0910301B0910401E091050109
:1037A000F0910601980141E014966C91808179DFD7
:1037B000882309F4C1CFE0910301F09104016481F1
:1037C000E0910501F091060180912001882309F420
:1037D00057C08CE08983980141E0808162DF8823B3
:1037E00009F4AACF2FE788E391E021508040904070
:1037F000E1F700C0000080EC89838091090180FF1F
:1038000002C080EE8983A0910301B0910401E09190
:103810000501F0910601970141E014966C918081B9
:1038200040DF882309F488CF80910F01882331F18C
:1038300082E08983A0910301B0910401E091050128
:10384000F0910601970141E051966C91808129DF4A
:10385000882309F471CF1982A0910301B09104016A
:10386000E0910501F0910601970141E015966C91F8
:10387000808117DF91E0892781955FCF1982DACFA8
:1038800084E08983980141E080810BDF882309F47B
:1038900053CF80911001811104C08091090180FDF6
:1038A0003EC080E48983A0910301B0910401E091BE
:1038B0000501F0910601970141E014966C91808119
:1038C000F0DE882309F438CF2FE788E391E0215018
:1038D00080409040E1F700C0000080910F018823F4
:1038E00001F181E08983A0910301B0910401E0918D
:1038F0000501F0910601970141E051966C9180819C
:10390000D0DE882309F418CFA0910301B0910401FF
:10391000E0910501F09106012EE031E0A6CF80E6AE
:10392000C1CF1982E0CFCF93DF930F92CDB7DEB72F
:103930009C0180910901811105C08FEF0F90DF91EB
:10394000CF91089581E02C3B310588F482E0223646
:10395000310568F483E02A32310548F484E02431EB
:10396000310528F485E02A30310508F486E08983A2
:1039700090910A0189819817A9F0A0910301B09153
:103980000401E0910501F09106019E012F5F3F4F78
:1039900041E012966C91808184DE882371F28981E6
:1039A00080930A0180E0CACFEF92FF920F931F939A
:1039B000CF93DF9300D0CDB7DEB7FC018B017A0146
:1039C0008091090181110AC08FEF0F900F90DF9154
:1039D000CF911F910F91FF90EF9008959E2F8F2F01
:1039E0009A838983A0910501B09106019B012E0F56
:1039F000311D18968D919C9119978217930720F38A
:103A0000E0910301F09104019E012F5F3F4F42E0DE
:103A1000638D8C9146DE8823B9F2A0910301B091A9
:103A20000401E0910501F09106019701402F58969D
:103A30006C91808136DE91E089278195C6CFCF9346
:103A4000DF930F92CDB7DEB780910901811105C0D8
:103A50008FEF0F90DF91CF91089588E18983809156
:103A600007018330C1F0A0910301B0910401E091FE
:103A70000501F09106019E012F5F3F4F41E0169630
:103A80006C9180810EDE882319F389818695869555
:103A900086958093070180E0DCCFCF93DF930F9270
:103AA000CDB7DEB780910901811105C08FEF0F906E
:103AB000DF91CF9108951982809108018823C1F088
:103AC000A0910301B0910401E0910501F09106017C
:103AD0009E012F5F3F4F41E017966C918081E1DDA1
:103AE000882321F3898186958695869580930801A0
:103AF00080E0DDCF0F931F93CF93DF930F92CDB76D
:103B0000DEB780911001882309F458C0A091030109
:103B1000B0910401E0910501F09106018E010F5F63
:103B20001F4F980141E014966C9180810E94981477
:103B3000811107C08FEF0F90DF91CF911F910F91EF
:103B4000089589819091090190FF3AC0806289832C
:103B5000A0910301B0910401E0910501F0910601EB
:103B6000980141E014966C9180819BDD882311F3CC
:103B70008FE697E10197F1F700C0000080911E01E8
:103B8000882301F180E8898380911F01882319F03F
:103B9000898180638983A0910301B0910401E09140
:103BA0000501F0910601980141E057966C918081E2
:103BB00078DD882309F4BECF1092100180E0BBCFDE
:103BC0008F7DC5CF1982E0CFCF93DF930F92CDB712
:103BD000DEB769839E012F5F3F4F41E0682F82E58A
:103BE00060DD0F90DF91CF910895EF92FF920F93D8
:103BF0001F93CF93DF93CDB7DEB768970FB6F894D6
:103C0000DEBF0FBECDBF7C0180910101909102010A
:103C10008F3F980789F18B30984171F18E010F5ECB
:103C20001F4FA80166E080E0AAD8B801882321F1DF
:103C3000F801AE01475E5F4F8FEF90E02191922B2C
:103C400082234E175F07D1F79923B1F08F3FA1F080
:103C5000E0914702F0914802309709F0C7C068969A
:103C60000FB6F894DEBF0FBECDBFDF91CF911F918D
:103C70000F91FF90EF900895ABD89C0190930201B3
:103C8000809301012F3F3F4FB9F465E580EF9CDF42
:103C90009AE19A95F1F700C060E08BEF95DF2AE199
:103CA0002A95F1F700C094D8909302018093010106
:103CB0008AE18A95F1F700C080910101909102019B
:103CC00083319F4F71F461E08BEF7EDF8AE18A954B
:103CD000F1F700C065E580EF77DF9AE19A95F1F79B
:103CE00000C080910101909102019E7F019761F5D2
:103CF00063E08EEF69DF2AE12A95F1F700C0AE019B
:103D0000475F5F4F68E080E03AD88FE891E0019725
:103D1000F1F700C00000AE014F5F5F4F68E080E048
:103D20002ED848E050E0BE016F5F7F4FCE0109966C
:103D30000E948432892B31F58F859889892B91E0F7
:103D400009F490E090934902198241E0BE016F5F4F
:103D50007F4F82E50E94361480910101909102010B
:103D6000813021E09207B1F1C8F48330910559F117
:103D700080F4009791F1019769F110924802109236
:103D800047026DCF8FE891E00197F1F700C0000086
:103D9000B6CF419791F784E392E117C082312FEFBC
:103DA000920709F150F4833021E09207C9F0833083
:103DB000934019F784E791E108C083319F4FE9F6FA
:103DC00083E292E102C083ED90E1909348028093F8
:103DD000470245CF89EF90E1F8CF82E894E2F5CF32
:103DE00081E890E1F2CF8EED91E1EFCFC701099527
:103DF00036CF1F93CF93DF930F92CDB7DEB7182F37
:103E000080911F01811729F1112341F180E38983FA
:103E100080911001882319F08981826089838091C3
:103E20001E01882319F0898180688983A09103018C
:103E3000B0910401E0910501F09106019E012F5F10
:103E40003F4F41E057966C9180812BDC811110939C
:103E50001F010F90DF91CF911F9108951982D8CF44
:103E6000EF92FF921F93CF93DF930F92CDB7DEB700
:103E7000182F807719F081E0898303C01123F1F0B6
:103E80001982A0910301B0910401E0910501F09124
:103E90000601CE0101967C019C0141E055966C9192
:103EA0008081FFDB970181110BC0109209010F90F7
:103EB000DF91CF911F91FF90EF90089580E4DCCFC8
:103EC00089818F7B80930B0116FF32C0198215FD0B
:103ED00003C089818260898314FD03C08981816068
:103EE000898313FD03C0898188638983A0910301BD
:103EF000B0910401E0910501F091060141E0569670
:103F00006C918081CEDB882381F2812F877F11F035
:103F100080E06FDF10930901109212019FE728E300
:103F200081E0915020408040E1F700C00000BFCF09
:103F300084E08983CCCFCF93DF930F92CDB7DEB7E8
:103F4000909120019923E9F0882339F182E0898357
:103F5000A0910301B0910401E0910501F0910601E7
:103F60009E012F5F3F4F41E051966C91808199DB1C
:103F7000882319F0898180930F010F90DF91CF91F1
:103F80000895909109019923C1F3882331F080911C
:103F90000F018111F2CF81E0DACF1982D9CF1F93BF
:103FA000CF93DF93D82F80912001C0E081111FC0F3
:103FB000809109018823B9F010910E018D2380931F
:103FC0000E01C1E08D1301C0C0E0C19580911201C6
:103FD0008D2B59F081E0AFDFDD2349F0A0DB882392
:103FE00031F010930E01CFEF02C080E0A4DF8C2FE0
:103FF000DF91CF911F9108951F93CF93DF9300D04E
:10400000CDB7DEB7182F81111EC080E0F2DE198215
:1040100087E08A83A0910301B0910401E09105013A
:10402000F09106019E012F5F3F4F42E055966C9143
:10403000808137DB8111109212010F900F90DF9178
:10404000CF911F91089581E0D4DE80E28983113001
:1040500041F51A8285E090E066DC8A8120E4829F47
:10406000C001112487608A83A0910301B0910401EB
:10407000E0910501F09106019E012F5F3F4F42E064
:1040800055966C9180810DDB8823B9F288E080938E
:10409000090110920B0181E08093120180E07FDF23
:1040A000CCCF163018F481E08A83D4CF153128F4B0
:1040B00082E08A838AE090E0CFCF83E08A8384E144
:1040C00090E0CACF0F931F93CF93DF930F92CDB79A
:1040D000DEB78C0180910901811107C08FEF0F902D
:1040E000DF91CF911F910F9108958091200181114F
:1040F000F5CF80911201882351F0C801019788976C
:1041000020F4802F79DF80E0EACF80E075DFB8010E
:10411000093E134010F068EE73E06430710510F44E
:1041200064E070E008EE13E0C8010E94FF316150C6
:104130006983A0910301B0910401E0910501F09120
:1041400006019E012F5F3F4F41E011966C918081E7
:10415000A8DA882309F4C2CF698170E06F5F7F4FCE
:10416000C8010E94133270930D0160930C01CB01C2
:1041700096958795D8DBC7CF8F929F92AF92BF92CB
:10418000CF92DF92EF92FF920F931F93CF93DF9323
:10419000CDB7DEB7EA970FB6F894DEBF0FBECDBF3E
:1041A00089AF9AAF10926E0210926D02D0902F03D9
:1041B000ED2CF12C80912001882311F180910901CF
:1041C0008823F1F0A0910301B0910401E091050171
:1041D000F09106019E012F5D3F4F42E01C966C91CD
:1041E00080810E949814882359F009A11AA11027F0
:1041F000012710270E151F0508F09FC110926C02B1
:1042000080916D0290916E028115914009F07AC102
:1042100083E08093930660916F02709170028091A9
:104220007102909172020E94B53120E030E040E0CE
:1042300054E36FA378A789A79AA76FA178A589A54A
:104240009AA50E9480316FA378A789A79AA76FA12A
:1042500078A589A59AA50E9482316FA378A789A71E
:104260009AA7EFA1F8A5F0937002E0936F02609116
:1042700073027091740280917502909176020E948F
:10428000B53120E030E040E054E36BA37CA38DA384
:104290009EA36BA17CA18DA19EA10E9480316BA3E6
:1042A0007CA38DA39EA36BA17CA18DA19EA10E9446
:1042B00082314B01709372026093710260917702B8
:1042C000709178028091790290917A020E94B531C2
:1042D00020E030E040E054E36BA37CA38DA39EA3D9
:1042E0006BA17CA18DA19EA10E9480316BA37CA3B8
:1042F0008DA39EA36BA17CA18DA19EA10E94823162
:104300006B01709374026093730260917B027091F1
:104310007C0280917D0290917E020E94B53120E066
:1043200030E040E054E36BA37CA38DA39EA36BA17C
:104330007CA18DA19EA10E9480316BA37CA38DA343
:104340009EA36BA17CA18DA19EA10E948231462FCC
:10435000572F5093760240937502489DC001499DA6
:10436000900D589D900D11244FA158A5C49E900109
:10437000C59E300DD49E300D11245C01A21AB30AE3
:10438000B501C5010E94CD0C7C01BC010E94CD0C81
:104390008C01BC010E94CD0CD82EC92E60E670EBBA
:1043A00089EB94E40E947B30362F272FB701832FAF
:1043B000922F0E94CD0C8BAB9CAB6AE27EEE87EB1A
:1043C00093E40E947B306FA778AB89AB9AAB6EEF1A
:1043D0007AEB87E594E40E947B30362F272FB701D4
:1043E000832F922F0E94CD0C8DAB9EAB66EA79EBAA
:1043F00088E294E40E947B306BA77CA78DA79EA7E0
:1044000062E377E88AE794E40E947B30362F272F17
:10441000B701832F922F0E94CD0C8FAB98AF63E82A
:104420007EEC86EB94E40E947B306BA37CA38DA38F
:104430009EA36AEC79E989E195E40E947B30362FEE
:10444000272FB701832F922F0E94CD0C4C016AEACF
:104450007AEA8AEA95E40E947B306FA378A789A75D
:104460009AA78BA99CA9AFA5B8A98A1B9B0BB801D9
:104470000E94CD0C2DA93EA9EBA5FCA52E0F3F1F38
:104480006D2D7C2D820F931F0E94CD0C6C018FA986
:1044900098AD2BA13CA1820F931FB8010E94CD0CB7
:1044A0008C0D9D1D4FA158A5840E951EB701880D3A
:1044B000991D0E94CD0CB5010E94CD0C8A0D9B1D4B
:1044C0009195819591098A3959E195070CF412C2A9
:1044D00089E999E190936B0280936A0220916A02C4
:1044E00030916B0245E0429FC001439F900D112423
:1044F0002091940630919506820F931F90936B0242
:1045000080936A0280916A0290916B02E9ADFAADE4
:1045100093878287EA960FB6F894DEBF0FBECDBFB1
:10452000DF91CF911F910F91FF90EF90DF90CF908F
:10453000BF90AF909F908F900895E0910501F0910A
:104540000601818192819695879580179107A8F43D
:10455000A0910301B09104019E012F5D3F4F41E006
:1045600053966C9180810E949814882309F448CE58
:1045700089A184FF02C0D3D843CEA0910301B0919A
:104580000401E0910501F09106019E012F5F3F4F6C
:104590004D2D1D966C9180810E949814882309F4FA
:1045A0002FCEC801B7010E94FF31615060936C02A9
:1045B000E0912B03F0912C03CF0184719927892B73
:1045C00009F496C129813A814B815C81CA01B90104
:1045D0000E9448324B015C0180926F0290927002FF
:1045E000A0927102B09272028D819E81AF81B885D6
:1045F000BC01CD010E9448326B017C01C092730264
:10460000D0927402E0927502F092760229853A8582
:104610004B855C85CA01B9010E9448328B019C011F
:1046200000937702109378022093790230937A02F4
:104630008D859E85AF85B889BC01CD010E94483229
:10464000AB01BC0140937B0250937C0260937D02DE
:1046500070937E02C501BB2797FDB095AB2F8FA34A
:1046600098A7A9A7BAA7C701BB2797FDB095AB2FFD
:104670008BA39CA3ADA3BEA3C901BB2797FDB09597
:10468000AB2F8BA79CA7ADA7BEA7CB01BB2797FDE0
:10469000B095AB2F8FA798ABA9ABBAAB2FA138A51C
:1046A00049A55AA5CA01B9010E94F0316FA378A7A4
:1046B00089A79AA72BA13CA14DA15EA1CA01B9016E
:1046C0000E94F0316BA37CA38DA39EA3CFA0D8A49E
:1046D000E9A4FAA4C60ED71EE81EF91E2BA53CA518
:1046E0004DA55EA5CA01B9010E94F031C60ED71EC4
:1046F000E81EF91E2FA538A949A95AA9CA01B9016E
:104700000E94F0316FA378A789A79AA7C60ED71E7B
:10471000E81EF91E9FE0F91AA1E0CA16D104E104CF
:10472000A2E0FA0638F00E948F1B10926E021092DF
:104730006D0266CD80916D0290916E0291609093B2
:104740006E0280936D0280E1E6FF4DC0A1E0B0E013
:10475000AC0FBD1FA80FB11D9C9121E0280FA1E057
:10476000B0E0AC0FBD1FA20FB11D2C91392F3093BB
:1047700001002093000092E0980FA1E0B0E0AC0FA0
:10478000BD1FA90FB11D9C9123E0280FA1E0B0E04F
:10479000AC0FBD1FA20FB11D2C91392F3093030018
:1047A0002093020094E0980FA1E0B0E0AC0FBD1F91
:1047B000A90FB11D9C9125E0280FA1E0B0E0AC0F3E
:1047C000BD1FA20FB11D2C91392F309305002093EE
:1047D00004008A5F20916D0230916E022860309350
:1047E0006E0220936D029F0120783170232B09F413
:1047F0004DC0A1E0B0E0AC0FBD1FA80FB11D9C9152
:1048000021E0280FA1E0B0E0AC0FBD1FA20FB11D49
:104810002C91392F309301002093000092E0980FE3
:10482000A1E0B0E0AC0FBD1FA90FB11D9C9123E02A
:10483000280FA1E0B0E0AC0FBD1FA20FB11D2C915D
:10484000392F309303002093020094E0980FA1E0E9
:10485000B0E0AC0FBD1FA90FB11D9C9125E0280F42
:10486000A1E0B0E0AC0FBD1FA20FB11D2C91392FFC
:1048700030930500209304008A5F20916D023091EF
:104880006E02206730936E0220936D02E370FF2763
:10489000EF2B09F4B5CC01E010E00C0F1D1F080F41
:1048A000111DF801F380818180FF0FC0E091250385
:1048B000F0912603309749F06F2D67706F5F8F2D51
:1048C00086958695869587700995D80111968C9165
:1048D00083FF96CCE0912703F0912803309709F4E9
:1048E0008FCC8F2D8295869586958370099588CC7F
:1048F00080E02ACF8736A6EE9A070CF0EBCD87E64C
:1049000096EEE8CD9F92AF92BF92CF92DF92EF9258
:10491000FF920F931F93CF93DF9300D000D000D06E
:10492000CDB7DEB78D839E838B01DB018C918058E0
:10493000990BED81FE811482858312968C911297DA
:104940008058990B1682878380916B06882309F41F
:10495000D9C01596DC9015978D2D90E01396EC90AC
:104960001397F4E0EF9E900111247C0144E0F5944C
:10497000E7944A95E1F743E0E422FF24E22AF32A90
:1049800014962C9154E0259F9001112495958795BC
:104990009595879583709927822B932B9C0150E0E6
:1049A00040E029833A834B835C83CA01B9010E94AA
:1049B000B33120E030E84FEF53E469837A838B838F
:1049C0009C8369817A818B819C810E941931962E0A
:1049D000A72EB82EC92ED80112968C91B4E08B9FC9
:1049E000C0011124D294D694D69463E0D6228D29A6
:1049F0009C0150E040E029833A834B835C83CA01E9
:104A0000B9010E94B33120E030E84FEF53E46983ED
:104A10007A838B839C8369817A818B819C810E94BC
:104A20001931292D3A2D4B2D5C2D69837A838B8387
:104A30009C8369817A818B819C810E94452F20EE25
:104A40003EE245E652E469837A838B839C836981E5
:104A50007A818B819C810E94803169837A838B83E8
:104A60009C8369817A818B819C810E948231AD8196
:104A7000BE8119967C936E931897970150E040E0A1
:104A800029833A834B835C83CA01B9010E94B33105
:104A900020E030E84FEF53E469837A838B839C8373
:104AA00069817A818B819C810E941931292D3A2D4F
:104AB0004B2D5C2D69837A838B839C8369817A81FA
:104AC0008B819C810E94452F20EE3EE245E652EC10
:104AD00069837A838B839C8369817A818B819C81B2
:104AE0000E94803169837A838B839C8369817A8178
:104AF0008B819C810E948231AD81BE811B967C930B
:104B00006E931A97ED81FE8180819181D80115966F
:104B10002C9120FD21C0906191838083AD81BE8165
:104B20008D919C911197F801258121FD19C090620A
:104B30008D939C9326960FB6F894DEBF0FBECDBF23
:104B4000DF91CF911F910F91FF90EF90DF90CF9069
:104B5000BF90AF909F9008959F7EED81FE81DCCF46
:104B60009F7DAD81BE81E4CF1F920F920FB60F9251
:104B700011242F933F934F935F936F937F938F9362
:104B80009F93AF93BF93EF93FF938091E10082FFD8
:104B900009C08091E20082FF05C08091E1008B7F17
:104BA0008093E1008091DA0080FF15C08091D800E9
:104BB00080FF11C08091DA008E7F8093DA008091AF
:104BC000D90019BC80FF7FC082E089BD09B400FE16
:104BD000FDCF81E08BBD8091E10080FF16C0809108
:104BE000E20080FF12C08091E2008E7F8093E2009D
:104BF0008091E20080618093E2008091D800806221
:104C00008093D80019BC85E08BBD8091E10084FFC2
:104C100024C08091E20084FF20C019BC82E089BDDD
:104C200009B400FEFDCF8091D8008F7D8093D8001D
:104C30008091E1008F7E8093E1008091E2008F7E81
:104C40008093E2008091E20081608093E200809195
:104C500035038823D1F184E08BBD8091E10083FF8F
:104C600021C08091E20083FF1DC08091E100877F19
:104C70008093E10082E08BBD109235038091E100CA
:104C80008E7F8093E1008091E2008E7F8093E2002E
:104C90008091E20080618093E20042E360E080E086
:104CA0000E94B513FF91EF91BF91AF919F918F91AA
:104CB0007F916F915F914F913F912F910F900FBE18
:104CC0000F901F9018951BBC86CF8091E30087FD45
:104CD00002C081E0C1CF83E0BFCF1F921FB61F92F9
:104CE00011248F939F93AF93BF938091B9029091BA
:104CF000BA02A091BB02B091BC020196A11DB11DE8
:104D00008093B9029093BA02A093BB02B093BC0205
:104D1000BF91AF919F918F911F901FBE1F901895CB
:104D20001F920F920FB60F9211242F933F934F9320
:104D30005F936F937F938F939F93AF93BF93EF9303
:104D4000FF938091B900887F883309F461C0B8F57A
:104D5000803291F168F5883009F452C0A0F48823BC
:104D600009F472C0FF91EF91BF91AF919F918F9124
:104D70007F916F915F914F913F912F910F900FBE57
:104D80000F901F9018958031D9F1883159F7909183
:104D9000A1028091A002981750F5E091A10281E054
:104DA0008E0F8093A102F0E0E058FD4F80812AC071
:104DB000883269F38033B1F680937F0207C0803573
:104DC00079F138F48034C1F1883461F60E94A61379
:104DD000C9CF883539F6E091A10281E08E0F80932A
:104DE000A1028091BB00F0E0E058FD4F80838091EC
:104DF00023038111EBCF81E08093220384EA0BC06F
:104E00008091A2028093BB0085EC8093BC00AACF66
:104E100080937F0285EC8093BC0010922403A2CF84
:104E2000E091A10281E08E0F8093A1028091BB00EE
:104E3000F0E0E058FD4F80839091A1028091A002A4
:104E4000981710F385E8E1CF10927F02BFCF8F93C0
:104E500081E08093FD028F911895CDB7DEB7E4977E
:104E60000FB6F894DEBF0FBECDBF4BEE50E061E051
:104E700070E084E696E00E94A132809170069091E5
:104E80007106A0917206B09173060897A105B1054D
:104E900040F44BEE50E060E070E084E696E00E9463
:104EA000A13280916C0690916D06A0916E06B09132
:104EB0006F068531944DA24AB105C9F04BEE50E022
:104EC00067E974E084E696E00E94743210927006FE
:104ED00010927106109272061092730642E450E02E
:104EE0006BE375E088E097E00E9474320CC080911B
:104EF000700690917106A0917206B09173060297A8
:104F0000A105B10558F3809165068730E9F58FE07A
:104F1000809365068091700690917106A09172064B
:104F2000B09173060497A105B10540F448E550E03F
:104F300063EE74E080EB96E00E947432809170061C
:104F400090917106A0917206B0917306863091051A
:104F5000A105B105E8F41092670610924A0788E0AF
:104F600090E0A0E0B0E08093700690937106A0936B
:104F70007206B09373064BEE50E061E070E084E699
:104F800096E00E94B1320DC0883021F68DE0C0CF8E
:104F900086309105A105B10501F30797A105B1057B
:104FA000F1F2E0916506E0934E01F0E0EA5FFD4F1B
:104FB0008081823009F0A8C187E080934E0185B5D9
:104FC000826085BD85B5816085BD80916E00816000
:104FD00080936E0080914A07882309F49AC10E9449
:104FE000660E6AA77BA78CA79DA780914B0790911F
:104FF0004C07A0914D07B0914E078F8B988FA98FCA
:10500000BA8F8AA59BA5ACA5BDA589839A83AB83DE
:10501000BC831092FD0260E080E00E94BE0D60E063
:105020008AE00E94BE0D20E040E060E072E18AE785
:1050300090E00E94FB0D60E080E00E944A0D81E05C
:105040000E949A0EAFE0B7E21197F1F700C000009E
:1050500061EF84E00E94151362E083E00E94151363
:105060008E01095D1F4FB80186E00E9473136FA186
:10507000697F6FA386E00E9415138DE10E9484135F
:10508000F82E0E94F0128DE10E948413882341F0D3
:10509000F81202C00E94F01260E08DE10E94151328
:1050A000BE01675D7F4F86E00E94731369A5677D2F
:1050B000636069A786E00E941513B80186E00E942C
:1050C0007313B80180E00E9473136FA16C606FA32B
:1050D00080E00E9415136CE485E00E9415138DE1B9
:1050E0000E948413682F64608DE10E9415138CE187
:1050F0000E948413682F6F638CE10E9415138DE169
:105100000E948413682F66608DE10E9415138CE164
:105110000E948413682F63608CE10E9415136FE373
:1051200081E00E94151360E787E00E9415130E943A
:10513000EA120E94E41260E787E00E9415131FA2A2
:10514000B80180E00E9473138FA18C788FA360E078
:1051500080E00E944A0D6FA1636080E00E941513F9
:1051600061E080E00E944A0DBE01695E7F4F8AE0E7
:105170000E949213BE01695E7F4F80E10E949213EC
:1051800060E080E00E944A0DBE016F5F7F4F8BE0C0
:105190000E94921363E082E00E94151361E080E0B8
:1051A0000E944A0D80916900806880936900EB9AA3
:1051B00080916506823209F04DC388E699E09093AC
:1051C000F3058093F2058091D8008F7E8093D800FC
:1051D0008091D70081608093D70084E082BF81E016
:1051E000809336038091D8008E7F8093D8001092F0
:1051F000E2001092DA001092E1008091D8008F77DF
:105200008093D8008091D80080688093D8008091E6
:10521000D8008F7D8093D80019BC1BBC1092350339
:105220008091E0008B7F8093E0008091D8008160C6
:105230008093D80042E360E080E00E94B513809143
:10524000E1008E7F8093E1008091E2008160809395
:10525000E2008091E20088608093E2008091E000AB
:105260008E7F8093E0008091D80080618093D80089
:105270007894CC24C39470E8D72EE6E19E2ECE011C
:1052800001968AA79AAB0E94141780914A07882337
:1052900009F430C36CE088EF95E00E942413E0919C
:1052A000F205F091F30548EF55E068E975E089E90A
:1052B00095E009954091980550E06FE375E089E924
:1052C00095E00E948432892BF1F28091E80080FF02
:1052D000DACF0E94D40B6093F4057093F5058093A8
:1052E000F6059093F70580919905873008F05CC525
:1052F000853008F0A2C5882309F497C5843009F4E5
:1053000098C509E915E05DC5813009F058CE88E0FF
:1053100054CE80917A00846080937A0080917A00E4
:10532000826080937A0080917A008E7F80937A00E9
:1053300080917A00806880937A0080916406823040
:1053400061F0833009F43FC2813049F485EF9DE17B
:1053500090933E0580933D0502C00E949D0E809172
:105360006406833009F055C2809166068130C9F425
:105370001092240381E08093230310922203589A11
:10538000599A8091B9008E7F8093B9008091B900BD
:105390008D7F8093B9008AE08093B80085E4809384
:1053A000BC0080916606833031F4809164068130C0
:1053B00011F40E949D0EE0916506F0E0EA5FFD4F5A
:1053C0008081823009F0F8C110916606113009F031
:1053D00036C2789480E88983A0910301B0910401DA
:1053E000E0910501F09106019E012F5F3F4F41E0E2
:1053F00055966C9180810E94511B882309F46AC0E4
:10540000BFEFE4E3FCE0B150E040F040E1F700C062
:1054100000001982A0910301B0910401E0910501FF
:10542000F09106019E012F5F3F4F41E055966C9130
:1054300080810E94511B882309F44CC010921101F5
:105440008FEF809309018093070180930801809377
:105450000A012FEF3FEF30930D0120930C01809351
:105460000E018093100110930B0110931E011092F6
:105470001F011092130110921201E4E1F1E08AE0A1
:10548000DF011D928A95E9F7109220011092210107
:1054900010922301109222010E941F1D81111AC037
:1054A0000E944D1D811116C08AE290E00E94931C5B
:1054B000811110C082E390E00E94622081110AC035
:1054C0000E94CF1F811106C00E947A1D811102C067
:1054D0000E94301F88E70E94301F0E941F1D0E94FB
:1054E0004D1D88E70E94CF1F8091210181118CC042
:1054F000F12CE12CB6EFAB2EBBE0BB2E6E01B7E278
:10550000CB0ED11C85010E191F090131110510F0B8
:1055100000E110E0F701EE57FA4FDE011196CD01E0
:10552000800F911F8A179B0709F085C1AE014F5F5D
:105530005F4FB801C7010E94D41C811165C08091E2
:105540000901882309F460C09E2D8F2D98A78FA391
:10555000E0910501F091060120853185C8018E0D8D
:10556000911D2817390708F44FC0A0910301B0918D
:105570000401960142E05B966C9180810E94511B70
:10558000882309F441C0A0910301B0910401E09186
:105590000501F09106019E01295E3F4F402F58966C
:1055A0006C9180810E949814882371F1A801BE013A
:1055B000695E7F4FCE010196A7D7892B29F5E00EB2
:1055C000F11EE6EFEE16EBE0FE0608F49BCF84E05A
:1055D0008FA318A6A0910301B0910401E0910501E9
:1055E000F0910601960142E05D966C9180810E94E7
:1055F000511B882349F081E08093210188EC90E0E1
:1056000090932301809322018CE0EFE2F2E0DE012F
:10561000119601900D928A95E1F71F8A85E0888F97
:105620008E01095E1F4FA80162E070E086E192E002
:105630000E94D41C811111C0AE014F5F5F4F6CE01E
:1056400070E081EC9AE00E94D41C811106C08EE1CA
:1056500090E090932E0380932D0380912001813060
:1056600029F180912101882309F180E00E949B1F8C
:105670000E947A1D80912201909123010E94622054
:105680001982E0910501F09106019E012F5F3F4FC5
:1056900041E063E280810E94511B882339F081E060
:1056A000809320010E949B1F0E948F1B82E08983B0
:1056B0008AEC8A8383EE8B83F9E0EF2EEC82AE01D5
:1056C0004F5F5F4F64E070E088E690E00E94D41C7A
:1056D00083EA89838A838B838C838D838E838F83F4
:1056E000888789878A87AE014F5F5F4F6AE070E0E5
:1056F00087EA9AE00E94D41CA8EDFA2EF982AE0146
:105700004F5F5F4F61E070E086EB9AE00E94D41C2F
:10571000ECE3F2E0DE01579601900D92EA94E1F796
:10572000A80169E070E088EB94E00E94D41CF98243
:10573000AE014F5F5F4F61E070E080EB98E00E9448
:10574000D41CF982AE014F5F5F4F61E070E08DE3E2
:1057500097E00E94D41C44E050E06BE870E0C80180
:10576000E9D6A80164E070E088E99AE00E94D41CC0
:105770000E948F1B80E28F8B88E2888F80E3898F65
:1057800088E38A8FA80164E070E08EE99AE00E94C5
:10579000D41C0E948F1B88E190E090932C0380938F
:1057A0002B030E948F1B80E180932F038CEB90E2F0
:1057B00090933803809337038091910610923B05B4
:1057C00080933C05F5CC21E041E060EA76E881E099
:1057D00090E00E94FB0D20E040E06AE086E193E06B
:1057E0000E940A0D20E040E060E18AE093E00E9420
:1057F0000A0D20E040E06FE08EEF92E00E940A0D7B
:1058000060E08AE00E94BE0D0E9419108BE696E1CE
:105810009FCD80916806823041F420E040E060E056
:1058200079E08DE390E00E94FB0D80916406813069
:1058300009F09ACD9DCD24912D93319673CE1230DF
:1058400009F0BACF62E080918E060E94BE0D83E817
:105850009DE0AECF833218F08EE792E1B0CC843178
:1058600018F485EC93E1ABCC9CEE980F963078F46D
:1058700080919106109232038093330380919006B9
:10588000109230038093310380E39CE098CC803207
:1058900050F046E050E060E072E084E391E024D60E
:1058A00086E080933403809165068A3149F48DE067
:1058B000809327018CE08093280180ED99E07FCCD4
:1058C000982F9D7F4EE050E064E971E19C3171F0CA
:1058D0004EE050E066E871E18B3141F08D3111F01E
:1058E000803259F74EE050E068E771E186E291E0DE
:1058F000FBD5E3CF1092F9051092F805E0913D0534
:10590000F0913E05309719F088EF95E00995809168
:105910003A05882309F4D7C002E215E0F12C8F2D57
:105920000E94950DD8012D913D918D01821B930B05
:1059300097FF03C09195819591090B970CF4BEC018
:105940000E949D0E82E18F0D8093410110923A05D5
:1059500080916906882309F440C06091FC0570912C
:10596000FD0580913B0590913C0544275527481B38
:10597000590B641775074CF42091F8053091F9051F
:1059800024603093F9052093F805861797074CF4A7
:105990002091F8053091F90528603093F90520939E
:1059A000F8052091FE053091FF05241735074CF4CA
:1059B0004091F8055091F90542605093F9054093E4
:1059C000F805821793074CF48091F8059091F9053A
:1059D00081609093F9058093F80580916A06882389
:1059E00081F08091F8059091F9059C01207333278F
:1059F0002033310531F48F7C94609093F9058093C6
:105A0000F805E0916506F0E0EA5FFD4F80818230A5
:105A100071F58091000690910106181619060CF494
:105A20005EC190933A03809339038091390390913A
:105A30003A03880F991F181619060CF455C1909354
:105A40003A03809339038091390390913A039195F9
:105A5000819591099093010680930006E0913703A8
:105A6000F0913803309719F088EF95E0099580910F
:105A70006806823009F43DC10E94D40B6EA77FA74F
:105A800088AB99AB8091F4059091F505A091F6054E
:105A9000B091F7054EA55FA568A979A9481B590BD8
:105AA0006A0B7B0B8091670690E0B0E0A0E048179E
:105AB00059076A077B0708F0F2CBE5CBF394BCE00B
:105AC000FB122DCF45CF809121058823F1F002E014
:105AD00010E0802F0E94DE0F811111C0802F0E94E4
