:100000000C94E1080C94FE080C94FE080C94FE0875
:100010000C94EB2F0C94FE080C94FE080C944E2FBD
:100020000C94FE080C94FE080C946F2E0C94FE08A1
:100030000C94FE080C94FE080C94FE080C94FE0828
:100040000C94FE080C94FE080C94FE080C94FE0818
:100050000C94FE080C94FE080C94FE080C942B2FB4
:100060000C94FE080C94FE080C94FE080C94FE08F8
:100070000C94FE080C94FE080C94FE080C94FE08E8
:100080000C94FE080C94FE080C94FE080C94FE08D8
:100090000C94542F0C94FE080C94FE080C94FE084B
:1000A0000C94FE080C94FE080C94FE081203410008
:1000B000720064007700690069006E006F0014032D
:1000C000730061006E006A00610079003900300041
:1000D00030000403090400000000240027002A0067
:1000E0002D003000FF080F0C212601070000000042
:1000F0006C656F6E6172646F004552524F52000022
:10010000080000000000000082F82300143FF7FF01
:10011000FF00000000C0FFC0FF0000000000004022
:1001200000000000010400020000000000000001C7
:100130000458555342313000000000000000000018
:1001400000000000000000020457494E55534200D1
:100150000000000000000000000000000000008E11
:100160000000000001050001008400000001000003
:1001700000280044006500760069006300650049BE
:10018000006E007400650072006600610063006527
:1001900000470055004900440000004E0000007B6D
:1001A0000044004600350039003000330037004479
:1001B000002D0037004300390032002D003400319B
:1001C00000350035002D0041004300310032002D84
:1001D0000037004400370030003000410033003168
:1001E0000033004400370038007D0000000501099D
:1001F00006A1018506050719E029E7150025017507
:1002000001950881029501750881010508190129E8
:10021000059505750191029501750391011500265B
:10022000FF000507190029FF950675088100C00524
:10023000010902A10185050901A10005091901298A
:10024000041500250195047501810275049501814D
:100250000305010930093109381581257F9503759A
:10026000088106050C0A38021681FF267F009501D9
:1002700075088106C0C005010905A1011500250109
:10028000350045017501950D05091901290D8102FA
:100290009503810105012507463B0175049501651C
:1002A000140939814265009501810126FF0046FF4E
:1002B00000093009310932093575089504810206B3
:1002C00000FF0920092109220923092409250926FB
:1002D000092709280929092A092B950C81020A21D5
:1002E000269520B1020A2126910226FF0346FF032C
:1002F000092C092D092E092F751095048102C012B1
:10030000034D0053004600540031003000300020FF
:1003100000D200BE00AC000902B600050100803228
:10032000090400000203000000092101010001226C
:10033000890007058103200001070506032000014D
:100340000904010002FF5D01001121000100258266
:100350002000000000130720000007058203200092
:1003600001070507032000010904020000FFFFFF49
:100370000009040300000101000009240100010933
:100380000001040904040002010300000724010025
:1003900001410006240201010006240202020009B4
:1003A00024030103010201000924030204010101E5
:1003B00000090508022000010000052501010109CE
:1003C00005830220000100000525010103920000C1
:1003D00001200100021002822804004B070D0FBA11
:1003E00012BA12BA12BA120912AD1BAD1B120100D9
:1003F00002000000400912822883080102DC010289
:100400000F00000001010115D4A2000F000000FF41
:10041000FFFFFFFFFFFFFFFFFFFFFFFFFFFFFFFFEC
:1004200000FF00FF00FF00FF00FF0040404000B859
:100430000B04160D0E0F33280B504F525151FFFF76
:10044000FFFFFFFF00FF00FF00FF000D0080000E18
:10045000FF000010FFFF000F0000FF09FF45000034
:10046000000000000000000000000000000000008C
:10047000000000000000000000000000000000007C
:10048000000000000000000000000000000000006C
:10049000000000000000000000000000000000005C
:1004A000000000000000000000000000000000004C
:1004B000000000000000000000000000000000003C
:1004C000000000000000000000000000000000002C
:1004D000000000000000000000000000000000001C
:1004E00000000000000000000000FF00000080008D
:1004F0000000000080000000000080FF7F0000007E
:1005000080FF7F00000080FF7F00000080FF7F05EC
:1005100014000000000000000000000200000101C3
:1005200002020000000000020202010100020102BA
:100530000100020100000202020101070605040198
:1005400000080A0B0C0D09000000002300260029FA
:10055000002C002F0000000000250028002B002E9A
:10056000003100040802011040804010204080400B
:1005700080080204018040201002011080102040F9
:1005800040200404040404030405020202020403DC
:10059000020202020606060606060404020202041D
:1005A00004000070000000002400000002000300AE
:1005B0000000650054FFEF0000FA80000B1282007B
:1005C00001030C30C30E8C8CE914D5400213710F5B
:1005D0008E3883F8833000F883258EF8833000F856
:1005E00083FFFFFFFF0FFEA9D6240004001A8279C3
:1005F000A10000003CFFFF00000010000038836FE6
:10060000A2003E03304000000002CAE3093E800021
:10061000002000000000000000400000006000001A
:1006200000000C0000000C186E000006920A16C0B4
:10063000DFFFFF0256FD8CD377FFE1C496E0C5BE15
:10064000AA00000000FFFF0B2B000016570000035C
:10065000594000000000001DFA00026C1D0000005F
:10066000003FFFDFEB003EB3B6000D227800002F05
:100670003C00000000001942B5000039A20000B3A0
:1006800065D90E9FC91DCF4C3430000000500000CA
:10069000003BB67AE80064000000C80000000000DB
:1006A00000100000001000FA921000225E000D22DF
:1006B0009F0001000000320000FF46000063D400EC
:1006C000001000000004D6000004CC000004CC00A0
:1006D0000000001072000000400000000000000058
:1006E0000000060002000500070000000000640092
:1006F000000000000000000005000500640020006C
:1007000000000000000000000000004000000003A6
:100710000000000032F8980000FF650000830F0021
:1007200000FF9BFC00000000000000000000000033
:1007300000000000000000000000000000000000B9
:100740000000000000000000000000000000001099
:100750000040000000000000060000B26A00020035
:10076000000001FB830068000000D9FC007CF1FF61
:10077000830000000000650000006403E8006400DE
:1007800028000000250000000016A0000000001056
:100790000000001000002F0000000001F400001015
:1007A0000000280000FFFF4581FFFFFA72000000F3
:1007B0000000000000004400050005BAC6004778AC
:1007C000A200000001000000000000060000000080
:1007D000140000254D002F706D000005AE000C02C6
:1007E000D000000000000000000000000000000039
:1007F00000001B00000000000000000000000000DE
:10080000000064000000080000000000000000007C
:1008100000000000000000000000000000000000D8
:1008200000000000000000000000000000000000C8
:1008300000000000000000000000000000000000B8
:1008400000000000000000000000000000000000A8
:100850000000000000000000000000000000000098
:1008600000001B00000000000000000000000E005F
:100870000E00000AC70004000000000032FFFFFF66
:100880009C00000B2B000000020000000100000093
:1008900064FFE50000000000000000000000000010
:1008A0000000000001000000000001000000000046
:1008B000000001800000018000000180000024266B
:1008C000D3000000000000000000060010009600A9
:1008D0003C000000000000000000000000000000DC
:1008E000000C0A4E68CDCF770950166759C619CE4D
:1008F0008200000000000000000000000000000076
:1009000000000000000000000017D7840003000072
:10091000000000000000000000C7938F9D1E1B1CFC
:1009200019000000000000000000000000000000AE
:1009300000000000000000000002031885000040D5
:1009400000000000030000000300000000000000A1
:100950000040000000000000000000000000000057
:100960000000000000000000000000000000000087
:100970000000000000000000000000000000000077
:100980000000000000677DDF7E72902E554CF6E679
:1009900088000000000000000000000000000000CF
:1009A00000D8DCB4B8B0D8B9ABF3F8FAB3B7BB8EA3
:1009B0009EAEF132F51BF1B4B8B08097F1A9DFDF3C
:1009C000DFAADFDFDFF2AAC5CDC7A90CC92C97F1DA
:1009D000A989264666B28999A92D557DB0B08AA805
:1009E00096365676F1BAA3B4B280C0B8A89711B2C1
:1009F0008398BAA3F0240844106418B2B9B4988359
:100A0000F1A329557DBAB5B1A38393F0002850F521
:100A1000B2B6AA839328547CF1B9A3829361BAA297
:100A2000DADEDFDB819AB9AEF5606870F1DABAA27E
:100A3000DFD9BAA2FAB9A38292DB31BAA2D9BAA29B
:100A4000F8DF85A4D0C1BBAD83C2C5C7B8A2DFDFC4
:100A5000DFBAA0DFDFDFD8D8F1B8AAB38DB4980D24
:100A6000355DB2B6BAAF8C96198F9FA70E161EB41D
:100A70009AB8AA872C547CBAA4B08AB6913256761A
:100A8000B28494A4C808CDD8B8B4B0F19982A82D86
:100A9000557D98A80E161EA22C547C92A4F02C50C2
:100AA00078F184A898C4CDFCD80DDBA8FC2DF3D92F
:100AB000BAA6F8DABAA6DED8BAB2B68696A6D0F347
:100AC000C841DAA6C8F8D8B0B4B882A892F52C54B8
:100AD0008898F135D9F418D8F1A2D0F8F9A884D9BA
:100AE000C7DFF8F883C5DADF69DF83C1D8F4011402
:100AF000F1A8824EA884F311D182F5D99228978863
:100B0000F109F41C1CD884A8F3C0F9D1D99782F15B
:100B100029F40DD8F3F9F9D1D982F4C203D8DEDF74
:100B20001AD8F1A2FAF9A88498D9C7DFF8F8F8839F
:100B3000C7DADF69DFF883C3D8F40114F198A8821B
:100B40002EA884F311D182F5D992509788F109F437
:100B50001CD884A8F3C0F8F9D1D99782F149F40DD3
:100B6000D8F3F9F9D1D982F4C403D8DEDFD8F1ADD6
:100B70008898CCA809F9D98292A8F57CF1883ACF57
:100B8000944A6E98DB6931DAADF2DEF9D88795A820
:100B9000F221D1DAA5F9F417D9F1AE8ED0C0C3AEE7
:100BA00082C684C3A88595C8A588F2C0F1F4010E59
:100BB000F18E9EA8C63E56F554F18872F40115F1E7
:100BC0009845856EF58E9E0488F142985A8E9E0651
:100BD0008869F4011CF1981E1108D0F504F11E97E4
:100BE0000202983625DBF9D985A5F3C1DA85A5F38C
:100BF000DFD88595A8F309DAA5FAD88292A8F57806
:100C0000F1881A849F26889821DAF41DF3D8879FEB
:100C100039D1AFD9DFDFFBF9F40CF3D8FAD0F8DA29
:100C2000F9F9D0DFD9F9D8F40BD8F3879F39D1AFD0
:100C3000D9DFDFF41DF3D8FAFCA869F9F9AFD0DAEF
:100C4000DEFAD9F88F9FA8F1CCF398DB45D9AFDF56
:100C5000D0F8D8F18F9FA8CAF38809DAAF8FCBF804
:100C6000D8F2AD978D0CD9A5DFF9BAA6F3FAF41234
:100C7000F2D8950DD1D9BAA6F3FADAA5F2C1BAA67F
:100C8000F3DFD8F1BAB2B68696A6D0CAF349DAA68F
:100C9000CBF8D8B0B4B8D8AD84F2C0DFF18FCBC3F5
:100CA000A8B2B68696C8C1CBC3F3B0B48898A821C1
:100CB000DB718D9D71859521D9ADF2FAD88597A804
:100CC00028D9F408D8F28D29DAF405D9F285A4C21E
:100CD000F2D8A88D9401D1D9F411F2D88721D8F493
:100CE0000AD8F28498A8C801D1D9F411D8F3A4C8BD
:100CF000BBAFD0F2DEF8F8F8F8F8F8F8F8D8F1B8A9
:100D0000F6B5B9B08A95A3DE3CA3D9F8D85CA3D9CF
:100D1000F8D87CA3D9F8D8F8F9D1A5D9DFDAFAD870
:100D2000B18530F7D9DED8F830ADDADED8F2B48C40
:100D300099A32D557DA083DFDFDFB591A0F629D9DA
:100D4000FBD8A0FC29D9FAD8A0D051D9F8D8FC51A9
:100D5000D9F9D879D9FBD8A0D0FC79D9FAD8A1F99A
:100D6000F9F9F9F9A0DADFDFDFD8A1F8F8F8F8F837
:100D7000ACDEF8ADDE8393AC2C547CF1A8DFDFDF72
:100D8000F69D2CDAA0DFD9FADB2DF8D8A850DAA02E
:100D9000D0DED9D0F8F8F8DB55F8D8A878DAA0D0AA
:100DA000DFD9D0FAF8F8F8F8DB7DF8D89CA88CF5F4
:100DB00030DB38D9D0DEDFA0D0DEDFD8A848DB5862
:100DC000D9DFD0DEA0DFD0DED8A868DB70D9DFDFC6
:100DD000A0DFDFD8F1A888902C547C98A8D05C388C
:100DE000D1DAF2AE8CDFF9D8B087A8C1C1B188A83A
:100DF000C6F9F9DA36D8A8F9DA36D8A8F9DA36D841
:100E0000A8F9DA36D8A8F9DA36D8F78D9DADF818F2
:100E1000DAF2AEDFD8F7ADFA30D9A4DEF9D8F2AE07
:100E2000DEFAF983A7D9C3C5C7F1889BA77AADF7C6
:100E3000DEDFA4F8849408A797F300AEF29819A413
:100E400088C6A39488F632DFF28393DB09D9F2AA2D
:100E5000DFD8D8AEF8F9D1DAF3A4DEA7F1889B7A0F
:100E6000D8F38494AE19F9DAAAF1DFD8A881C0C307
:100E7000C5C7A39283F628ADDED9F8D8A350ADD963
:100E8000F8D8A378ADD9F8D8F8F9D1A1DADEC3C57E
:100E9000C7D8A18194F818F2B089ACC3C5C7F1D8FE
:100EA000B8B4B09786A8319B069907AB9728889B62
:100EB000F00C201440B0B4B8F0A88A9A285078B743
:100EC0009BA8295179247059446938644831F1BB91
:100ED000AB88002C547CF0B38BB8A804285078F170
:100EE000B088B49726A85998BBABB38B0226466648
:100EF000B0B8F08A9CA82951798B2951798A24703D
:100F0000598B2058718A4469388B3940688A644803
:100F1000318B30496088F1AC002C547CF08CA804F3
:100F2000285078F1889726A85998AC8C02264666F6
:100F3000F0899CA829517924705944693864483152
:100F4000A98809205970AB11384069A81931486047
:100F50008CA83C415C207C00F187981986A86E76AD
:100F60007EA999882D557DD8B1B5B9A3DFDFDFAE55
:100F7000D0DFAAD0DEF2ABF8F9D9B087C4AAF1DF8E
:100F8000DFBBAFDFDFB9D8B1F1A3978E60DFB084EC
:100F9000F2C8F8F9D9DED89385F14AB183A308B530
:100FA000839A0810B79F10D8F1B0BAAEB08AC2B217
:100FB000B68E9EF1FBD9F41DD8F9D90CF1D8F8F80A
:100FC000AD61D9AEFBD8F40CF1D8F8F8AD19D9AEB3
:100FD000FBDFD8F416F1D8F8AD8D61D9F4F4ACF597
:100FE0009C9C8DDF2BBAB6AEFAF8F40BD8F1AED0DC
:100FF000F8AD51DAAEFAF8F1D8B9B1B6A3839C08CE
:10100000B9B1839AB5AAC0FD3083B79F10B58B9351
:10101000F20202D1ABDADED8F1B080BAABC0C3B213
:1010200084C1C3D8B1B9F38BA391B609B4D9ABDEEF
:10103000B0879CB9A3DDF1B38B8B8B8B8BB087A36F
:10104000A3A3A3B28BB69BF2A3A3A3A3A3A3A3A31F
:10105000A3A3F1B087B59AA3F39BA3A3DCBAACDF3B
:10106000B9A3A3A3A3A3A3A3A3A3A3A3A3A3A3A33A
:10107000A3D8D8D8BBB3B7F1AAF9DAFFD9809AAA16
:1010800028B48098A720B79787A86688F07951F18F
:10109000902C870CA781976293F071716085940101
:1010A00029517990A5F1284C6C870C95188578A367
:1010B0008390284C6C886CD8F3A28200F210A8921E
:1010C0001980A2F2D926D8F188A84DD948D896A877
:1010D0003980D93CD89580A839A68698D92CDA874A
:1010E000A72CD8A8899519A980D938D8A88939A951
:1010F00080DA3CD8A82EA83990D90CD8A895319878
:10110000D90CD8A809D9FFD801DAFFD89539A9DABE
:1011100026FFD890A80D8999A810809821DA2ED89A
:101120008999A83180DA2ED8A886963180DA2ED80F
:10113000A8873180DA2ED8A88292F34180F1D92E87
:10114000D8A882F31980F1D92ED882ACF3C0A2803E
:1011500022F1A62EA72EA92298A829DAACDEFFD864
:10116000A2F22AF1A92E8292A8F23180A696F1D994
:1011700000AC8C9C0C30ACDED0DEFFD88C9CACD0AC
:1011800010ACDE8092A2F24C82A8F1CAF235F19640
:1011900088A6D900D8F1FF0E0C0D0F08FFFF090536
:1011A0000406070A0B0F0C0D0E08FFFF09050406C5
:1011B000070A0B0F0C0D0E0908FFFF050406070AAE
:1011C0000B0011241FBECFEFDAE0DEBFCDBF12E06F
:1011D000A0E0B1E0EEEFFAE602C005900D92AE306D
:1011E000B107D9F726E0AEE0B2E001C01D92A73307
:1011F000B207E1F70E94F12F0C947D350C940000AA
:10120000CF93DF93EC01CB013091E800377F30932F
:10121000E80060913506709136066817790760F12D
:10122000009729F43091E8003E773093E80030E0F1
:10123000E0E06BB5662309F450C0653009F44DC099
:101240006091E80063FD49C06091E80062FD40C024
:10125000009711F4EE2369F36091E80060FFE9CF95
:101260007091F3006091F200009739F160347105DC
:1012700020F5FA01A1E00DC0CB01D9CFB081B313A5
:1012800007C0A181A093F100A281A093F100A2E088
:101290003396BE2FB41BB21788F3A13031F4FE0190
:1012A000E30FF11DE491E093F100EA2FF0E08E1BD3
:1012B0009F0B6E0F7F1F3A0FD7CFE1E060347105AF
:1012C00009F0E0E06091E8006E776093E800B1CF4C
:1012D0008091E8008B778093E800DF91CF910895AB
:1012E000CF93DF93FC01DA0186E0EB01888385E090
:1012F000808315962C911597822F922F990F990B19
:1013000097FD079653E0959587955A95E1F7828367
:1013100017962C911797822F922F990F990B9195D1
:101320008195910997FD079643E0959587954A9594
:10133000E1F783831B962C911B97822F922F990F95
:10134000990B97FD079633E0959587953A95E1F7C8
:10135000848319962C911997822F922F990F990BAC
:1013600097FD079623E0959587952A95E1F7858364
:1013700011969C9111979295917081818E7F982BF7
:10138000918311968C911197829582709D7F892B04
:10139000818311969C919695969596959870877FE6
:1013A000892B8183DF91CF9108958F929F92BF9275
:1013B000CF92DF92EF92FF920F931F93CF93DF9321
:1013C000FC01DA018CE1EB01888384E08083B0903A
:1013D000CC05D090440179E2E72E71E0F72E4F0161
:1013E00090E080E041E050E0C82EE70129917E01C5
:1013F0006D917C9111972F3F09F445C0EA0102C01D
:10140000CC0FDD1F2A95E2F79E0126233723BA0170
:10141000082E02C0660F771F0A94E2F76095709558
:10142000018112810623172361E070E02115310547
:1014300011F460E070E002C0660F771FCA94E2F713
:10144000602B712B728361838B15E8F4DBE1DD1275
:1014500012C0843080F49C012C513F4FE901288157
:10146000BA0102C0660F771F2A95E2F72D913C91D1
:1014700011972623372361E0232B09F460E0262F00
:101480002195E40128870196DFEF8D1A9D0A8E30A1
:10149000910509F0A9CFCC91CF7088E0CB3020F432
:1014A000D0E0CB51DE4F888183831A962D913C91F9
:1014B0001B976BE1D61214C019968C9185958054B8
:1014C000868387E29FE12F3F3F4711F480E690EF4C
:1014D000958B848B8DE7878380E88483858370C0B8
:1014E0008DE1D81619F0C0E2DC121EC019968C915D
:1014F000199780588683818192818F7D41E050E0E9
:101500002F3F3F4711F050E040E065E0440F551F8A
:101510006A95E1F7842B952B9283818312969C9197
:10152000129780E8891B87832FE1D21619F06AE1B0
:10153000D612D2CF81E090E012962C9112972333ED
:1015400010F490E080E054E0880F991F5A95E1F77D
:10155000218132812F7E822B932B9283818321E004
:1015600030E013964C911397433310F430E020E0B1
:1015700045E0220F331F4A95E1F78F7D282B392B49
:101580003283218312968C911297848713968C91C3
:101590001397858715968C91159780588483179695
:1015A0009C9117979058958319968C91199780580C
:1015B00086831B968C91805887837AE1D71661F0D9
:1015C000DF91CF911F910F91FF90EF90DF90CF901F
:1015D000BF909F908F900895909595838095878375
:1015E000EFCFEF92FF920F931F93CF93DF93CDB77F
:1015F000DEB72C970FB6F894DEBF0FBECDBFE32F3A
:10160000F0E0E359FE4F80818F3F81F021E030E030
:1016100002C0220F331F8A95E2F780913202909127
:1016200033022823392381E0232B09F480E02C9610
:101630000FB6F894DEBF0FBECDBFDF91CF911F91E3
:101640000F91FF90EF900895EF92FF920F931F93E9
:10165000CF93DF93CDB7DEB764970FB6F894DEBFB4
:101660000FBECDBFE986FA860B871C872D873E8784
:101670004F87588B698B7A8B8B8B9C8B9F3F69F440
:10168000EA85FB8580818E2191E009F490E081E07C
:101690002C859217B9F080E015C088E0989FF00182
:1016A0001124E250FC4F88E0DE01119601900D926A
:1016B0008A95E1F74C815D8181E02E813F8124177D
:1016C000350748F764960FB6F894DEBF0FBECDBF5E
:1016D000DF91CF911F910F91FF90EF900895EF92BE
:1016E000FF920F931F93CF93DF93CDB7DEB72C9765
:1016F0000FB6F894DEBF0FBECDBFE982FA820B832E
:101700001C832D833E834F83588769877A878B8715
:101710009C8780910101883049F1893051F58DE72E
:1017200091E02E81820F911DFC0180818F3F81F01D
:1017300021E030E002C0220F331F8A95E2F780914A
:101740003402909135022823392381E0232B09F4B8
:1017500080E02C960FB6F894DEBF0FBECDBFDF91B0
:10176000CF911F910F91FF90EF9008958DE991E037
:10177000D8CF8DE891E0D5CFFC01CB012091350683
:10178000309136062617370790F0009729F42091FC
:10179000E8002E772093E80040E0009751F44111D3
:1017A00008C08091E80082FF30C080E00895C90140
:1017B000F3CF2BB52223A1F12530A1F12091E80030
:1017C00023FD2CC02091E80022FDEBCF2091E80002
:1017D00020FFE3CF3091F3002091F200009719F041
:1017E0002034310558F041E02034310509F040E063
:1017F0002091E8002E772093E800CFCF41914093CD
:10180000F10001972F5F3F4FE9CF8BB5882341F05F
:10181000853041F08091E80083FFC3CF81E00895D7
:1018200082E0089583E00895FC01CB012091350604
:10183000309136062617370790F0009729F420914B
:10184000E8002E772093E80040E0009751F4411122
:1018500008C08091E80082FF31C080E00895C9018E
:10186000F3CF2BB52223A9F12530A9F12091E8006F
:1018700023FD2DC02091E80022FDEBCF2091E80050
:1018800020FFE3CF3091F3002091F200009719F090
:101890002034310558F041E02034310509F040E0B2
:1018A0002091E8002E772093E800CFCF4491409319
:1018B000F100319601972F5F3F4FE8CF8BB588231A
:1018C00041F0853041F08091E80083FFC2CF81E094
:1018D000089582E0089583E0089580912F0687FFA0
:1018E00011C08091E80082FF06C08091E8008B77EC
:1018F0008093E80003C08BB58111F3CF08958BB5B9
:101900008823E1F38091E80080FFF9CF8091E8001F
:101910008E77EECF2091E4003091E50095E6A901A5
:101920002091EC00822F817020FF06C08091E8009A
:1019300080FF06C080E008952091E80022FD19C0D4
:101940008BB5882389F0853089F08091EB0085FD87
:101950000FC02091E4003091E5004217530701F3D6
:101960009150E9F684E0089582E0089583E00895B7
:1019700081E00895CF93DF9300D000D0CDB7DEB7DC
:101980002FB7F8948091870290918802A0918902E4
:10199000B0918A022FBF9C01AD0187E0220F331F57
:1019A000441F551F8A95D1F7CA01B9012DE730E0D0
:1019B00040E050E00E94AF34CA01B9010F900F908F
:1019C0000F900F90DF91CF910895CF93DF9300D0C8
:1019D00000D0CDB7DEB73FB7F894809187029091E1
:1019E0008802A0918902B0918A0226B5A89B05C001
:1019F0002F3F19F00196A11DB11D3FBFBA2FA92F8E
:101A0000982F8827820F911DA11DB11D9C01AD014A
:101A100062E0220F331F441F551F6A95D1F7CA0198
:101A2000B9010F900F900F900F90DF91CF91089513
:101A3000CF92DF92EF92FF920F931F93CF93DF939A
:101A4000EC016B01BA01A901F801C7012081263020
:101A5000E0F4209771F000271127041B150B601785
:101A600071073CF431962E0D3F2D311DD90113968F
:101A7000CC93C114D10449F04617570734F42081A0
:101A8000820F911DDC011396CC92DF91CF911F91B3
:101A90000F91FF90EF90DF90CF9008958F929F92DB
:101AA000AF92BF92CF92DF92EF92FF920F931F936C
:101AB000CF93DF930F92CDB7DEB76C014A0189E077
:101AC000DB018C9386E0F6018083E2EBF5E050E0E9
:101AD00040E080E061E070E091919923A1F0D401B1
:101AE000AD90BC909B01042E02C0220F331F0A94BC
:101AF000E2F72A213B21232B31F0D601A80FB11D9B
:101B000013969C938F5F4F5F5F4F4031510511F0EB
:101B1000863011F78983A090B005B090B105F4012B
:101B2000448155816091C50570E08091C4057601BE
:101B30008E010F5F1F4F950190E07ADFD40116965A
:101B40004D915C916091C70570E08091C60595014B
:101B500090E06EDFF401408551856091C90570E029
:101B60008091C805950190E063DFD4011A964D91EC
:101B70005C916091CB0570E08091CA05950190E081
:101B800057DFA090AE05B090AF05F401428150E060
:101B90006091C20570E0950190E080E049DFD401DA
:101BA00013964C9150E06091C30570E0950190E070
:101BB00080E03EDF0F90DF91CF911F910F91FF905A
:101BC000EF90DF90CF90BF90AF909F908F9008954F
:101BD0008EBD00000DB407FEFDCF8EB5089590E0D8
:101BE000FC01ED59FA4F2491FC01EE57FA4FE491B4
:101BF000EE2389F0F0E0EE0FFF1FEB5AFA4FA591AC
:101C0000B4919FB7F8948C91611106C0E22FE095D2
:101C1000E823EC939FBF0895822B8C93FBCF61E068
:101C20008FE0DDDF61E080E1DACF90E0FC01ED598B
:101C3000FA4F2491FC01EE57FA4FE491EE2359F04C
:101C4000F0E0EE0FFF1FE95BFA4FA591B491EC9124
:101C5000E22381E009F480E00895CF93DF93EC0163
:101C600080915D05E2DF91E089274FEF5FE7849F78
:101C70009001859F300D11243B872A87DF91CF91FA
:101C80000895E82FF0E0E55CFA4FE49190917B0035
:101C90008E2F880F880F80729F7D892B80937B0009
:101CA000E770E064E0937C0080917A008064809328
:101CB0007A0080917A0086FDFCCF80917800909127
:101CC0007900089580917A0086FDFCCF81E08093B1
:101CD00004010895CF93DF9390E0FC01ED59FA4F92
:101CE00024918E579A4FFC0184918823D1F090E083
:101CF000880F991FFC01EA52FF4FA591B491FC0196
:101D0000EB5AFA4FC591D491613071F49FB7F894B2
:101D10008C91209582238C938881282328839FBFD0
:101D20007894DF91CF91089562509FB7623050F45C
:101D3000F8943C91822F809583238C938881822B09
:101D40008883EDCFF8948C91822B8C93E8CFCF923F
:101D5000DF92EF92FF920F93CF93DF936B017C01A1
:101D6000C42FD22F60E080E1B5DF62E08EE0B2DF09
:101D700060E08FE0AFDF61E081E131DF60E081E1D1
:101D8000A9DFCC0FCC0FCC0FD111C4600111C06200
:101D9000C11482E1D8068AE7E806F10448F5C114C7
:101DA00089E0D8068DE3E806F10420F580E8C8163E
:101DB00084E8D8068EE1E806F104F0F480E4C81661
:101DC00082E4D8068FE0E806F104C0F484E091E0F4
:101DD0008927982F96959C2B90659CBD81708DBD11
:101DE000DF91CF910F91FF90EF90DF90CF9008950A
:101DF00080E0EDCF81E0EBCF82E0E9CF83E0E7CF79
:101E0000CF92DF92EF92FF92F0E0E0E067E675E4B8
:101E100083E291E041E2409357002491622728E059
:101E200030E06B017C0151E0C522DD24EE24FF246B
:101E30009695879577956795CD28CE28CF2841F040
:101E400050E2652753E8752758EB85275DEE952707
:101E50002150310931F73196E032F105E1F6FF907A
:101E6000EF90DF90CF900895682F8AE0B8CE982F3A
:101E70008D30D9F08230C8F080914A05882321F056
:101E80002EEF290F223080F080914905882321F020
:101E900021EF290F233040F080914805811103C0C4
:101EA00081E09E3009F080E0089581E008950F936D
:101EB0001F93CF93DF938091F702811109C0109295
:101EC00010031092F702DF91CF911F910F910895A7
:101ED0000FED12E0C0E08C2FA8DEF80181938F0196
:101EE000CF5FC831C1F7809147058F3F11F060E0A7
:101EF000F1DEC0E6D4E010E000E080912005909192
:101F0000210508171907DCF68C819B852B8121118F
:101F100003C062E09F3F09F061E0DCDE0F5F1F4F0E
:101F20002C96EBCF7F928F929F92AF92BF92CF92DF
:101F3000DF92EF92FF920F931F93CF93DF93CDB772
:101F4000DEB728970FB6F894DEBF0FBECDBF8C0169
:101F5000722E5B01842E912C18861F8294012150D1
:101F600031093A8329832F81388528153905A1F451
:101F700028960FB6F894DEBF0FBECDBFDF91CF918C
:101F80001F910F91FF90EF90DF90CF90BF90AF9097
:101F90009F908F907F9008958AE50115110529F093
:101FA000EF81F885E00FF11F808112DEF50181934A
:101FB0005F011092700209DD6B017C0129813A8179
:101FC0008F81988582179307BCF0711015C0EF813F
:101FD000F8853196F887EF83C6CFF7DC6B837C8377
:101FE0008D839E83DC01CB018C199D09AE09BF094D
:101FF000C397A105B10558F780917002882369F352
:10200000E6CFCF93DF93EC01FB0180818052990BE7
:10201000880F880F1C828D8381818052990B880FD5
:10202000880F1E828F83858124813581209530958C
:1020300090914401933260F0938191FF09C0909593
:10204000907E628166956E736A3120F5623139F156
:10205000982F96959695969561E096279170B92F51
:10206000B295BB0FB07EA0E0367D2A2B3B2B82952C
:102070008695877086278170582F550F550F550FFD
:1020800040E0242B352B3093330220933202DF9132
:10209000CF9108956E31E1F69093D702D9CF909306
:1020A000DB02D6CFFC01DB018C91880F880F8058B2
:1020B0001482858311968C911197880F880F805810
:1020C0001682878313968C9113978F718E50990B7C
:1020D00097FD20C09187808720853185C901880FB1
:1020E000991F820F931F80329105BCF491878087DE
:1020F000808591854097880F880F880F108681878B
:1021000014968D919C918095909590933302809335
:102110003202089511861086DFCF8FE190E0E6CF7E
:10212000FC01DB018C918058990B148285831296F7
:102130008C9112978058990B1682878311968C91F7
:1021400011978058990B1086818713968C9113975D
:102150008058990B1286838714968C9114978283EA
:1021600015968C911597838316968D919C918095E9
:10217000909590933302809332020895FC01DB0125
:102180008C918F738052990B9583848311968C91D7
:1021900011978F738052990B978386838C9190E06F
:1021A00023E0959587952A95E1F7887199271196EF
:1021B0002C91119730E045E0359527954A95E1F748
:1021C00026703327822B932B12962C911297221F65
:1021D0002227221F822B4097880F880F1086818725
:1021E00012968C9112978F718051990B880F880FDE
:1021F0001286838712968C911297869586958871A0
:1022000013969C911397929596959770892B82833C
:1022100013968C9113978F71838314968D919C9153
:102220008095909590933302809332020895DC015B
:10223000FB0190818181829586958670292F269554
:10224000269526952871822B2281221F2227221F64
:10225000822B990F990F905814961C9214971596EB
:102260009C9315979181990F990F905816961C92EF
:10227000169717969C9317972481938120FF3BC054
:10228000292F30E0209530952F713327205E3F4F66
:1022900019963C932E931897082E000C990B2281C7
:1022A00020FF2FC02FE330E0281B390B1B963C93F7
:1022B0002E931A978281869586958871938192953F
:1022C00096959770892B12968C931297828190E045
:1022D000959587958F7013968C9384819581982717
:1022E00089279827809590958D7C937690933302DB
:1022F0008093320208959F7120E230E0291B31095A
:10230000C7CF20E230E0D0CFCF93DF93FC01EB01C9
:102310008A8190E0982F882788279F706881862B74
:10232000958384838A8120E1829FC00111248827BC
:102330009F706981862B978386838B8183838D81B0
:1023400081FB992790F9392F3295330F330F307C69
:1023500020E0982F9695969561E096279170B92F79
:10236000B295BB0FB07EA0E02A2B3B2B8170582F7B
:102370005295507F40E0242B352B3093330220932D
:102380003202DF91CF910895FC01DB018D919C9188
:1023900011979583848312968D919C9113979783BF
:1023A000868314968C9183830895FB01808190E04D
:1023B0008095909590933302809332020895DC01CA
:1023C000862F90E06031F8F420912C06222339F01A
:1023D000693028F081539D4FFC018081089521E0F0
:1023E00030E002C0220F331F6A95E2F78D919C9175
:1023F0002823392381E0232B09F480E08295880F7C
:10240000880F807C089520916105309162056331C9
:1024100070F0FC017097EE0FFF1FEA0FFB1F81E0C9
:10242000408151812417350758F080E009C0A80F7A
:10243000B91F1E979C9181E092171306B1F3ACF37C
:1024400008957F928F929F92AF92BF92CF92DF9228
:10245000EF92FF920F931F93CF93DF93EC017B01D9
:10246000742E852E87E088834CE6C42E45E0D42E5A
:1024700001E712E0912CB12CF60181916F018823C4
:1024800069F130EBA32E813011F420E9A22E692DE1
:10249000872D982D94DF8695F80190819817F1F09B
:1024A000F60143A59589F80180832B2D30E054E097
:1024B000B59EF0011124EC0FFD1F5A2D52955F704F
:1024C0005183A42AA2829383F9013196EE0FFF1F54
:1024D000EE0FFF1FEC0FFD1F8083B3940F5F1F4FA4
:1024E000939486E19812C8CFBB0CBB0CB394F70150
:1024F000B082DF91CF911F910F91FF90EF90DF900D
:10250000CF90BF90AF909F908F907F90089580E084
:10251000ABDC81EE5DDB81E0A7CC80E0A5DC82EE68
:1025200057DB81E0A1CC80E09FDC80E551DB83E7D5
:102530004FDB81E099CCCF9380E096DC8FEF48DBD6
:10254000C82F81E091DC8C2FCF9108950F931F93BA
:10255000CF93DF93182F062FEC01899139DB8C2F55
:10256000811B8017D0F3DF91CF911F910F910895B8
:10257000CF93DF93D82FC62F80E076DC8D2F80623B
:1025800027DB8C2F25DB81E0DF91CF916DCCFF9293
:102590000F931F93CF93DF93D82FF92EC62F8091DF
:1025A000DF03811108C0C0E08C2FDF91CF911F9114
:1025B0000F91FF9008951092DF03BDDF282F30E0C8
:1025C00035952795277033272730310561F360E46F
:1025D00087E0CEDFC11109C080E046DC80E6F8DA92
:1025E00080E0F6DAC82F81E03FDC80E03DDC81E668
:1025F000EFDA0D2F1F2D802F8D1B8C1718F081E027
:1026000033DCD2CFF80181918F01E2DAF801319702
:102610008083F1CFCF93DF9300D000D0CDB7DEB76A
:10262000DB019C010E94F43469837A838B839C8351
:10263000AB01BC015F776627772781E090E0A0E0DF
:10264000B0E0411550446105710519F480E090E057
:10265000DC012EE0880F991FAA1FBB1F2A95D1F716
:1026600029813A814B815C81820F931FA41FB51F82
:102670003FE0B595A795979587953A95D1F70F9037
:102680000F900F900F90DF91CF910895F89488E10B
:1026900098E00FB6F894A895809360000FBE9093D1
:1026A0006000FFCF1F93CF93DF93182FEB0180E0E3
:1026B000DBDB812F8DDA88818BDA888381E0DF9103
:1026C000CF911F91D1CBCF93DF930F92CDB7DEB7D0
:1026D000BE016F5F7F4FE6DF89810F90DF91CF9161
:1026E00008951F93CF93DF93182FD62FC72F80E025
:1026F000BBDB812F80626CDA64E08D2F9C2F26DF9C
:1027000081E0DF91CF911F91AFCB85ED8093BC002D
:102710008FEF9FE72091BC0024FD03C01092FB03C4
:1027200002C00197B9F708958093E900EBEEF0E05D
:10273000808181608083EDEEF0E010826093EC0098
:1027400040838091EE000895CF93DF93DC01FA017E
:1027500084E1EB0188831C9211968C931197129659
:102760008CE001900D928A95E1F7DF91CF91089569
:10277000CF93282FCB01C42F4FEF5FE7C13228F052
:1027800080E045C041505109D9F33091FB0331112C
:10279000F9CF31E03093FB033093FA034FEF4093CE
:1027A0004C0210926E024C0F40936D0230936F02F8
:1027B00030916F02220F232B20936F022091F90397
:1027C000222381F11092F90320916F022093BB0024
:1027D0002FEF3FE74091BC0043FD1BC025EC209349
:1027E000BC002FEF3FE74091FB034130E9F020911F
:1027F0006E022C1710F4C0916E024C2F50E06DE465
:1028000072E00E943C3581E0CC2309F4B9CFCF912E
:1028100008952150310909F4B3CF40916F024093DC
:10282000BB00D8CF25EEDBCF21503109E1F6A8CF90
:10283000CF93C82F8FEF9FE7413220F080E03FC059
:102840000197E1F32091FB032111FACF82E08093FD
:10285000FB0381E08093FA038FEF80934C02109288
:102860006E0240936D0250E08DE492E00E943C3590
:1028700010926F0280916F02CC0FC82BC0936F0231
:102880008091F903882329F11092F90380916F0256
:102890008093BB008FEF9FE72091BC0023FD11C008
:1028A00085EC8093BC008FEF9FE72091FB032230E3
:1028B00091F090914C0281E09F3F09F0BFCFCF9102
:1028C0000895019709F4BACF20916F022093BB00BD
:1028D000E3CF85EEE6CF019741F7B0CFEF92FF92BD
:1028E0000F931F93CF93DF930F92CDB7DEB7182FBF
:1028F0006983E42EF22E032F41E0BE016F5F7F4F0C
:1029000097DF882371F04E2D6F2D702F812F30DFD0
:1029100081700F90DF91CF911F910F91FF90EF90F9
:10292000089580E0F5CFFF920F931F93CF93DF932D
:102930000F92CDB7DEB78983F62E8A0141E0BE0142
:102940006F5F7F4F82E574DF882351F08BEB92E05D
:102950000197F1F700C000004F2DB80182E508DFB4
:102960000F90DF91CF911F910F91FF9008950F93DA
:102970001F93CF93DF9300D000D000D0CDB7DEB748
:102980008E010F5F1F4F86E0F80111928A95E9F7DB
:10299000A80166E08AEFC7DF8FE193E00197F1F7C6
:1029A00000C00000F801AE01495F5F4F8FEF90E07B
:1029B0002191922B82234E175F07D1F7992379F04B
:1029C0008F3F69F099818E8126960FB6F894DEBF0D
:1029D0000FBECDBFDF91CF911F910F9108958FEF63
:1029E0009FEFF2CFEF92FF920F931F93CF93DF935E
:1029F0000F92CDB7DEB77C01062F81E08983E0918D
:102A0000EE03F091EF0390818091ED03809589238F
:102A1000808387EC90E00197F1F700C0000021E08F
:102A200041E06FE072E0CE0101967CDA21E042E005
:102A300060E172E0C70176DA109110021F3FD9F40D
:102A400010E000E0ECD8E091EE03F091EF0380811C
:102A50009091ED03892B808387EC90E00197F1F74B
:102A600000C00000C8010F90DF91CF911F910F911E
:102A7000FF90EF900895809111028A3511F0811135
:102A8000DFCF1F70110F1D5F101B4DEF400F21E0B6
:102A900062E172E0C701039645DA602F70E0CB0176
:102AA000810F911D819764F6615F7D4F20E0412F7A
:102AB00090E080E037DA0FE012E0C4CFCF92DF92EF
:102AC000EF92FF920F931F93CF93DF9300D000D02C
:102AD00000D0CDB7DEB78D839E83062F0E94BA0C3F
:102AE0006B017C0110E0602F8D819E817BDFFC01FA
:102AF000892B51F01F5F8D819E81895D914059F531
:102B00008181807F803F81F18FE39CE90197F1F71C
:102B100000C000000E94BA0C69837A838B839C8377
:102B2000DC01CB018C199D09AE09BF098B3F9105D2
:102B3000A105B105C0F280E026960FB6F894DEBF7D
:102B40000FBECDBFDF91CF911F910F91FF90EF90FE
:102B5000DF90CF9008958D819E81855C914031F406
:102B60008181807F803F81F281E0E6CF1330E0F702
:102B7000CBCFCF93DF93EC0164E081EE91E032DFC5
:102B8000FC0180E0309749F08181807F803F41F4F3
:102B900068E085EC91E092DF81E0DF91CF910895CC
:102BA000238134812095309530933502209334026F
:102BB00080910101863009F45DC068F4843091F0A1
:102BC000853089F1823071F0833031F781858A83D5
:102BD00082858B8307C0883009F463C08930D1F0C7
:102BE0008730D1F685818058990B18868987268190
:102BF0008FE790E0AC01421B51091A864B87278171
:102C00002058330B1C822D832085821B91091E8244
:102C10008F83C2CF85818058990B1C828D8326813A
:102C20008FE790E0F2CF85818058990B1C828D83CD
:102C3000868187FF05C0207F3093350220933402C0
:102C4000878187FF09C08091340290913502817F8E
:102C500090933502809334028085803F08F49CCFA6
:102C60008091340290913502857F90933502809354
:102C7000340292CF2581422F4058550B942F88273C
:102C8000368137FD09C027FF02C08FEF9FEF8058C4
:102C90009F4F9D838C8380CF2138C8F781E090E0DF
:102CA000F6CF1D821C821F821E8240858FE790E036
:102CB000841B91091886898790E080E030FF02C06C
:102CC0008FEF9FE79B878A8767CF0F931F93CF93E1
:102CD000DF93D82FC92F80913602811165C015E08E
:102CE0008D2F9C2F46DF8FE99FE00197F1F700C001
:102CF00000001150A9F78D2F9C2F3BDF811107C0D9
:102D000010923602DF91CF911F910F91089564E0E8
:102D100081EE91E067DE8C0168E089ED91E0CEDE26
:102D2000882361F064E085ED91E0C8DE68E08DEC19
:102D300091E0C4DE68E085EC91E0C0DEF8018181BD
:102D40008937C9F583E080930101F801838194817B
:102D500080959095909335028093340220912B06B4
:102D6000222349F020910101223029F487FF03C07A
:102D700088E08093010168E089ED91E09FDE88237F
:102D800081F0809101019CEF980F943010F0823017
:102D900089F568E08DEB91E091DE68E085EC91E0EB
:102DA0008DDE81E0809336028D2F9C2FE2DE88231A
:102DB00009F4A6CFA7CF982F907F903711F482E027
:102DC000C2CF903511F484E0BECF833211F485E098
:102DD000BACF903E11F486E0B6CF833611F487E087
:102DE000B2CF823111F489E0AECF903409F0ADCF8B
:102DF00081E0A9CF893021F468E085EB91E0CCCF68
:102E0000833059F668E08DEA91E0C6CFCF93DF9327
:102E1000CDB7DEB7C351D1400FB6F894DEBF0FBEB9
:102E2000CDBF43E151E06FEF73E0CE0101960E9408
:102E30001F3543E151E061E070E0CE0101960E9450
:102E40005C35CD5EDE4F0FB6F894DEBF0FBECDBF52
:102E5000DF91CF9108958F929F92AF92BF92FF9290
:102E60000F931F93CF93DF93CDB7DEB7C656D1092B
:102E70000FB6F894DEBF0FBECDBF8BB5882309F423
:102E8000ACC18091E900F090EC00F794FF24F79436
:102E90008F70F82A1092E9008091E80083FF99C1B1
:102EA0008FE296E0FC0101962091F100208326E05C
:102EB00087339207B9F78091E80083FF67C190914B
:102EC000300680912F06913009F0EBC0813A09F06D
:102ED00033C220913106822F30912A06332309F420
:102EE0005AC02E3308F057C0223309F454C0298346
:102EF0009A830DDB12DB0E94BA0C4B015C011BDBD9
:102F000080FD0DC080E00E94340F89EA0E94E80D28
:102F100062E0CE0101961ADB81E00E94340F81E06D
:102F20008093DF0360E08BE892E031DB682F882339
:102F300011F08C3011F560E387E01ADB0E94BA0CC7
:102F4000A7966CAF7DAF8EAF9FAFA797DC01CB018B
:102F500088199909AA09BB09853F9140A105B105C6
:102F600070F288E080938B0246E050E069EF70E0F9
:102F70008CE892E00E941F3567E08091E800877F2F
:102F80008093E8006150770B8CE892E00E94BC0BC4
:102F90000E946D0CFBC098E090938B028E33E8F09A
:102FA000A22FAE53BB0B22E32A9FB0012B9F700DC3
:102FB000112403E111E0061B170B0233110514F075
:102FC00002E310E0A80155276F5F7F4F8CE892E085
:102FD0000E944C3561E0600FD0CF823311F087330F
:102FE00001F560EF70E081E992E00E94283580E011
:102FF00094E2A4EFB0E080938C0290938D02A093B2
:103000008E02B0938F020E94000F6093AF02709304
:10301000B0028093B1029093B2021092900268E2E3
:10302000ACCF8C3359F48CE0EBECF2E0ACE8B2E0DE
:1030300001900D928A95E1F76DE09FCF8533B9F449
:1030400060912D06613051F480910201909103014D
:1030500090938D0280938C0263E08FCF6330E1F711
:103060008091010180938C0210928D0286CF86336D
:1030700041F48091050180938C020E94570F62E019
:103080007CCF48E050E068EE70E08CE892E00E946F
:103090001F35809144018F3110F410928F0269E046
:1030A0006CCF993009F019C3813209F080C1409189
:1030B0003506509136068091310689831A829091A7
:1030C000E800977F9093E8009A013327411105C0EB
:1030D0009091E8009B779093E800FE0133961FC023
:1030E0009BB5992341F1953031F19091E80093FD22
:1030F00022C09091E80092FF12C09091F30060917D
:10310000F200792F672B31F09091F10091932150CB
:10311000310999F79091E8009B779093E800211589
:103120003105F1F69091E80090FD05C09BB599231B
:1031300011F09530B9F78B3309F460C08D3391F0FD
:10314000893309F068C08B81ECE18E9FC0011124A6
:10315000415050E0BE016C5F7F4F8F5E9C4F0E94DC
:103160003C350DC0415050E06B81BCE16B9FB0011C
:1031700011246F5F7F4FCE0104960E945C350E9440
:103180006D0C80912A0611E08111BFC08091E8008A
:1031900083FF11C080912F0620913006253009F45D
:1031A000B7C108F011C1922F9D7F913009F477C10A
:1031B000222309F453C18091E80083FF0AC0809163
:1031C000E800877F8093E8008091EB008062809325
:1031D000EB008F2D8F708093E900CA59DF4F0FB637
:1031E000F894DEBF0FBECDBFDF91CF911F910F913D
:1031F000FF90BF90AF909F908F9008959C81809199
:1032000047058F3F09F4BBCF61E0911101C060E039
:103210000E94EF0DB4CF833309F43FC060F48033D4
:1032200049F0813309F0ABCF87E797E79093010826
:10323000809300082BDA843329F08A3309F09FCF7A
:10324000E5DD9DCF80912A06811199CF80911003F1
:10325000811195CF8FEF809305010E94620E28EFB8
:10326000A22E22E0B22E12E163E0812F0E946A0EAC
:103270008FE891E00197F1F700C000008EEE810F1A
:103280000E94410ED5018D939D935D011F5F1E31FC
:1032900059F781E08093100372CF80912A06811143
:1032A0006ECF8091F70281116ACF8FEF8093050175
:1032B0000E94620E10E000E0802F0E94370F811103
:1032C00011C062E0802F0E946A0EEFE8F1E03197B2
:1032D000F1F700C00000802F0E94150EF801E152A6
:1032E000FD4F80830F5F1F4F0831110529F781E0E3
:1032F0008093F70244CF1093DF0360E0CE018D5B33
:103300009F4F45D960E387E033D915D980FDF3CFCE
:1033100060E387E02DD980E00E94340F89EA0E94A3
:10332000E80D60E2CE01019611D981E00E94340FD0
:1033300081E08093DF032ACF813C51F580913306F1
:10334000909134068130910539F420913106309105
:103350003206232B09F4B1C1019709F017CF8091F0
:103360003106909132068115914009F00FCF64E14A
:103370008BE091E0A5C1803CD1F48091330690911F
:103380003406049709F002CF60E48FE191E098C120
:10339000803C69F420913306309134064091310627
:1033A00050913206242B352B232B09F492C18F77B1
:1033B000813209F0EBCE9A3009F4E8CE8091E80032
:1033C000877F8093E800E4CD283009F442C129309A
:1033D00009F44CC1263009F0EECE8058823008F056
:1033E000EACEE0913106F0913206BE016D5F7F4F6B
:1033F000EC3D43E0F40709F0ADC083E08A838AE244
:1034000089834FB7F894DB0120E03EE051E2E32FDF
:10341000F0E050935700849120FF03C082958F7095
:103420003F5F8F708A3008F493C0895C90E08D9381
:103430009D932F5F243159F74FBF8091E800877F1C
:103440008093E8006AE270E0CE0101960E94BC0B16
:103450008091E8008B778093E800ADCE803891F0C2
:10346000823809F0A8CE809133068F70873008F03B
:10347000A2CE8093E9002091EB0025FB222720F9C2
:103480001092E9008091E800877F8093E800209304
:10349000F1001092F1008091E8008E7721C0823017
:1034A00009F089CE80913106811115C080913306D3
:1034B0008F709FEF980F963008F07DCE8093E900D3
:1034C0009091EB0090FF07C0233079F48091EB00DE
:1034D00080628093EB001092E9008091E800877F82
:1034E0008093E8000E946D0C66CE9091EB00906195
:1034F0009093EB0021E030E001C0220F8A95EAF7BB
:103500002093EA001092EA008091EB008860E1CFFE
:10351000811151CE109131061F778091E3008078A0
:10352000812B8093E3008091E800877F8093E800FF
:103530000E946D0C8091E80080FFFCCF8091E30039
:1035400080688093E30082E0111183E08BBD33CE6D
:10355000805D6CCF8F2F99271A82198234E0DB01AE
:103560001D923A95E9F78330910509F45CC0B0F4F7
:103570008130910539F1029709F01DCE86E38983E8
:10358000809143018A8385E28B8323E0AE014F5F04
:103590005F4F66EB70E087E193E03DC0829709F0F2
:1035A0000ACE809143018A3108F03AC08DEE91E055
:1035B00069E870E02091E800277F2093E8000E94EE
:1035C000140C46CF809143018A51883038F598E039
:1035D0009983880F90E0FC01E352FC4FE491EA8369
:1035E000AC014F5F5F4FFC01E252FC4FE491EB8373
:1035F0003AE03C8383539C4FFC0184918D83FA0114
:10360000E353FC4FE491EE83AE014F5F5F4F62E105
:1036100070E08DEE93E00E940009CDCD20E0F4CF64
:1036200086E792E0C5CFE43070F4FF27EE0FFF1F6E
:10363000EF5EFC4F85919491FC012491622F70E024
:103640002111B8CFB8CDEE3E09F0B5CD8FEF92E0A5
:10365000F3CF803809F0AFCD8091E800877F809369
:10366000E800809128068093F10015CF8111A3CD49
:1036700010913106123008F09ECD8091E800877FCE
:103680008093E800109328060E946D0C112311F01E
:1036900084E005C08091E30087FDFACF81E08BBD17
:1036A00042E261EC82E040D842E261EC81E03CD849
:1036B00042E261E883E038D87ECD68E08FEF90E0A9
:1036C0002091E800277F2093E80070E00E94140C0E
:1036D0005FCC64E087E091E0F3CF903209F067CEF1
:1036E000813C09F048CE20913306309134062530D4
:1036F000310509F05CCE209131063091320622303E
:10370000310509F054CE6EE88FE591E0D9CFEF9204
:10371000FF920F931F93CF93DF9300D0CDB7DEB707
:10372000082F142F732F8DB79EB79A83898350E08B
:10373000CA010196EDB7FEB7E81BF90B0FB6F89476
:10374000FEBF0FBEEDBF8DB79EB701967C016183B2
:10375000622F01960E943C3541E0410FB701802F56
:1037600067D8E981FA810FB6F894FEBF0FBEEDBFAE
:103770000F900F90DF91CF911F910F91FF90EF90DD
:103780000895EF92FF920F931F93CF93DF930F92C1
:10379000CDB7DEB780910C01811109C08FEF0F907A
:1037A000DF91CF911F910F91FF90EF9008951982B3
:1037B000A0910601B0910701E0910801F091090183
:1037C0008E010F5F1F4F980141E051966C918081EF
:1037D0009EDF7801882311F3A0910601B0910701C3
:1037E000E0910801F0910901980141E015966C9172
:1037F00080818DDF882391F2A0910601B0910701AD
:10380000E0910801F0910901980141E014966C9152
:1038100080817DDF882309F4C1CFE0910601F0911A
:1038200007016481E0910801F09109018091230171
:10383000882309F455C08CE08983980141E0808198
:1038400066DF882309F4AACF2FEF80E792E02150AA
:1038500080409040E1F700C0000080EC89838091B7
:103860000C0180FF02C080EE8983A0910601B09117
:103870000701E0910801F0910901970141E01496D8
:103880006C91808144DF882309F488CF81E0909196
:103890001201911101C080E0880F8983A091060177
:1038A000B0910701E0910801F0910901970141E011
:1038B00051966C9180812BDF882309F46FCF198298
:1038C000A0910601B0910701E0910801F091090172
:1038D000970141E015966C91808119DF81505FCF8F
:1038E00084E08983980141E0808111DF882309F415
:1038F00055CF80911301811143C080910C0180FF4D
:103900003FC080E68983A0910601B0910701E09154
:103910000801F0910901970141E014966C918081B2
:10392000F6DE882309F43ACF2FEF80E792E02150AA
:1039300080409040E1F700C0000081E090911201CA
:10394000911101C080E08983A0910601B091070127
:10395000E0910801F0910901970141E051966C91C5
:103960008081D5DE882309F419CFA0910601B0919A
:103970000701E0910801F091090121E131E0A9CFAF
:1039800080E4C0CFCF93DF930F92CDB7DEB79C0119
:1039900080910C01811105C08FEF0F90DF91CF91C5
:1039A000089581E02C3B310588F482E02236310510
:1039B00068F483E02A32310548F484E0243131058B
:1039C00028F485E02A30310508F486E08983909157
:1039D0000D019817A9F0A0910601B0910701E0919F
:1039E0000801F09109019E012F5F3F4F41E01296BF
:1039F0006C9180818CDE882379F2898180930D011E
:103A000080E0CBCFEF92FF920F931F93CF93DF9382
:103A100000D0CDB7DEB7FC018B017A0180910C019B
:103A200081110AC08FEF0F900F90DF91CF911F91FE
:103A30000F91FF90EF9008959E2F8F2F9A83898387
:103A4000A0910801B09109019B012E0F311D18961C
:103A50008D919C9119978217930720F3E0910601AD
:103A6000F09107019E012F5F3F4F42E0638D8C91E3
:103A70004EDE8823B9F2A0910601B0910701E091D2
:103A80000801F09109019701402F58966C918081AF
:103A90003EDE8150C8CFCF93DF930F92CDB7DEB714
:103AA00080910C01811105C08FEF0F90DF91CF91B4
:103AB000089588E1898380910A018330C1F0A09143
:103AC0000601B0910701E0910801F09109019E0102
:103AD0002F5F3F4F41E016966C91808118DE88235E
:103AE00019F3898186958695869580930A0180E0F1
:103AF000DCCFCF93DF930F92CDB7DEB780910C016F
:103B0000811105C08FEF0F90DF91CF910895198239
:103B100080910B018823C1F0A0910601B0910701AB
:103B2000E0910801F09109019E012F5F3F4F41E0B4
:103B300017966C918081EBDD882321F3898186952E
:103B40008695869580930B0180E0DDCF0F931F93C0
:103B5000CF93DF930F92CDB7DEB780911301882307
:103B600009F45BC0A0910601B0910701E091080142
:103B7000F09109018E010F5F1F4F980141E01496EB
:103B80006C9180810E946E14811107C08FEF0F909D
:103B9000DF91CF911F910F910895898190910C0130
:103BA00090FF3DC080628983A0910601B09107011A
:103BB000E0910801F0910901980141E014966C919F
:103BC0008081A5DD882311F38FED9EE20197F1F747
:103BD00000C0000081E090912101911101C080E0BE
:103BE000879588278795898390912201992311F0E1
:103BF00080638983A0910601B0910701E0910801DB
:103C0000F0910901980141E057966C9180817FDD28
:103C1000882309F4BBCF1092130180E0B8CF8F7DC9
:103C2000C2CFCF93DF930F92CDB7DEB769839E01EA
:103C30002F5F3F4F41E0682F82E569DD0F90DF91F4
:103C4000CF910895CF92DF92EF92FF920F931F933F
:103C5000CF93DF93CDB7DEB72E970FB6F894DEBFC4
:103C60000FBECDBF7C018E010F5F1F4F88E0F801B2
:103C700011928A95E9F78091020190910301680100
:103C80008F3F9807A9F18B30984191F1A80160917D
:103C90000001809131020E949314882349F1F801B8
:103CA00080910001A801480F511D8FEF90E0E417AB
:103CB000F507D1F49923E1F08F3FD1F0E0912F0285
:103CC000F0913002309709F0DBC02E960FB6F894D1
:103CD000DEBF0FBECDBFDF91CF911F910F91FF903F
:103CE000EF90DF90CF9008952191922B8223DFCF28
:103CF0000E94B7149C0190930301809302012F3F0F
:103D00003F4FC1F465E580EF8CDF95E39A95F1F7BD
:103D1000000060E08BEF85DFE5E3EA95F1F7000056
:103D20000E94B7149093030180930201F5E3FA9582
:103D3000F1F70000809102019091030183319F4FC0
:103D400071F461E08BEF6DDF85E38A95F1F7000098
:103D500065E580EF66DF95E39A95F1F70000109234
:103D6000310280910201909103018130E1E09E07D0
:103D700009F440C008F583309105A9F180F400975B
:103D800009F475C00197B1F18BE098E190930301BC
:103D9000809302011092300210922F0296CF419729
:103DA00099F785ED91E19093300280932F0285E0A1
:103DB0008093310281E050C082312FEF920709F4E5
:103DC0005CC058F48330F1E09F0709F453C083309E
:103DD0009340D1F687E191E108C083319F4FA1F66E
:103DE00084EC91E102C082E590E1909330028093EF
:103DF0002F026BCF63E08EEF14DF8FE193E001972A
:103E0000F1F700C0000063E08EEF0BDFEFE1F3E0BD
:103E10003197F1F700C0000063E08EEF02DF8FE121
:103E200093E00197F1F700C00000AE01475F5F4FDC
:103E300066E08AEF0E949314EFE1F3E03197F1F727
:103E400000C000008D85833051F480E990E19093AB
:103E5000300280932F0288E08093000136CF8EEBF2
:103E600090E19093300280932F0286E0F5CF8CEEA4
:103E70009DE2BBCF81E090E1B8CF84E891E1B5CF7E
:103E8000B601C701099521CF1F93CF93DF930F92FE
:103E9000CDB7DEB7182F80912201811721F180E084
:103EA000111180E3898390911301992311F08260AD
:103EB000898380912101882319F089818068898311
:103EC000A0910601B0910701E0910801F09109016C
:103ED0009E012F5F3F4F41E057966C91808117DC28
:103EE0008111109322010F90DF91CF911F910895BE
:103EF000EF92FF921F93CF93DF930F92CDB7DEB770
:103F0000182F807729F581E0111180E08295880FC4
:103F1000880F807C8983A0910601B0910701E09110
:103F20000801F0910901CE0101967C019C0141E05C
:103F300055966C918081EBDB970181110BC010923B
:103F40000C010F90DF91CF911F91FF90EF9008959A
:103F500081E0E0CF89818F7B80930E0116FF32C014
:103F6000198215FD03C089818260898314FD03C015
:103F700089818160898313FD03C089818863898376
:103F8000A0910601B0910701E0910801F0910901AB
:103F900041E056966C918081BADB882381F2812FB3
:103FA000877F11F080E070DF10930C0110921501F3
:103FB0009FEF20E782E0915020408040E1F700C071
:103FC0000000BFCF84E08983CCCFCF93DF930F92E3
:103FD000CDB7DEB7909123019923F9F091E08111DB
:103FE00001C090E0990F9983A0910601B09107015B
:103FF000E0910801F09109019E012F5F3F4F41E0E0
:1040000051966C91808183DB882319F0898180939C
:1040100012010F90DF91CF91089590910C01992397
:10402000C1F3882321F0909112019111F2CF89837D
:10403000DBCF1F93CF93DF93D82F80912301C0E074
:1040400081111FC080910C018823B9F010911101DA
:104050008D2380931101C1E08D1301C0C0E0C19593
:10406000809115018D2B59F081E0AFDFDD2349F000
:1040700088DB882331F010931101CFEF02C080E07C
:10408000A4DF8C2FDF91CF911F9108951F93CF93C1
:10409000DF9300D0CDB7DEB7182F81111EC080E0AE
:1040A000F3DE198287E08A83A0910601B0910701AF
:1040B000E0910801F09109019E012F5F3F4F42E01E
:1040C00055966C91808123DB8111109215010F9020
:1040D0000F90DF91CF911F91089581E0D5DE80E2AE
:1040E0008983113041F51A8285E090E04BDC8A81AA
:1040F00020E4829FC001112487608A83A091060179
:10410000B0910701E0910801F09109019E012F5F34
:104110003F4F42E055966C918081F9DA8823B9F2DD
:1041200088E080930C0110920E0181E080931501CC
:1041300080E07FDFCCCF163018F481E08A83D4CFC3
:10414000153128F482E08A838AE090E0CFCF83E0C3
:104150008A8384E190E0CACF0F931F93CF93DF93BC
:104160000F92CDB7DEB78C0180910C01811107C091
:104170008FEF0F90DF91CF911F910F910895809154
:1041800023018111F5CF80911501882351F0C801D9
:104190000197889720F4802F79DF80E0EACF80E0D4
:1041A00075DFB801093E134010F068EE73E064302B
:1041B000710510F464E070E008EE13E0C8010E949D
:1041C000883461506983A0910601B0910701E091A4
:1041D0000801F09109019E012F5F3F4F41E01196C8
:1041E0006C91808194DA882309F4C2CF698170E0F0
:1041F0006F5F7F4FC8010E949C34709310016093E1
:104200000F01CB0196958795BDDBC7CF7F928F922B
:104210009F92AF92BF92CF92DF92EF92FF920F9355
:104220001F93CF93DF93CDB7DEB7CB53D1400FB6FB
:10423000F894DEBF0FBECDBF43E151E061E070E016
:10424000CE0101967C010E944C358D859E85AF85FF
:10425000B889DE2C1F2D0897A105B10538F443E17C
:1042600051E060E070E0C7010E944C3589859A8575
:10427000AB85BC858531944DA24AB105B1F043E1CF
:1042800051E06FEF73E08D2D912F0E941F351D8639
:104290001E861F86188A42E450E063EA74E0CE016D
:1042A0008B559F4F0E941F3508C08D859E85AF8519
:1042B000B8890297A105B10570F38A81873009F0AA
:1042C00040C08FE08A838D859E85AF85B88904972D
:1042D000A105B10548F448E550E06BE474E0CE0177
:1042E000835B9F4F0E941F358D859E85AF85B88962
:1042F00086309105A105B10548F51C82C951DF4FF3
:104300001882C75ED040EA81F0E0EE5EFA4FE49199
:10431000E23021F48AA591E089278AA743E050E0A2
:104320006FE075E0CE018F5E9E4F0E941F3544E224
:1043300050E06BEE74E0CE0183519F4F0E941F3519
:1043400013C0883009F0BFCF8DE0BCCF8630910517
:10435000A105B10599F289309105A105B10598F241
:104360000D97A105B105D0F28D859E85AF85B889E1
:104370008E309105A105B10520F588A9843028F477
:104380008230E8F081E088AB04C08450823008F4C9
:1043900018AACD5EDE4F1882C351D1408FE090E065
:1043A000A0E0B0E08D879E87AF87B88B43E151E0F6
:1043B00061E070E08D2D912F0E945C3506C082E097
:1043C000E2CF0E97A105B10521F38A8180934401C4
:1043D000809343019C8190932E06998190932D06A2
:1043E000E82FF0E0EE5EFA4F949121E0913009F071
:1043F00020E020932C06E49121E0E23009F020E057
:1044000020932B06E23009F0D2C1843140F487E0DA
:1044100080934301913019F488E08093430185B57E
:10442000826085BD85B5816085BD80916E008160AB
:1044300080936E00C951DF4F8881C75ED0408823CA
:1044400009F4BCC10E94000FC95CDE4F6883798308
:104450008A839B83C753D1407E01FCEDEF1AFEEFA8
:10446000FF0AC851DF4F88819981AA81BB81C85E4C
:10447000D040F70180839183A283B383C95CDE4F70
:1044800088819981AA81BB81C753D140CC5EDE4F20
:1044900088839983AA83BB83C451D1401092DF03E0
:1044A00060E080E00E946A0E60E08AE00E946A0E8E
:1044B00000E020E040E060E074E284EF90E00E94E1
:1044C000A70E60E080E00E94EF0D81E00E94340FB3
:1044D000AFE1BEE41197F1F700C0000061EF84E0A6
:1044E0000E94B81262E083E00E94B812BE016C5CC8
:1044F0007E4F86E00E945213CC5CDE4F6881C4532D
:10450000D140697FCC5CDE4F6883C453D14086E0E4
:104510000E94B8128DE10E946313182F0E9493121B
:104520008DE10E9463130E2D882341F0181302C001
:104530000E94931260E08DE10E94B812BE016A5C95
:104540007E4F86E00E945213CA5CDE4F6881C653DC
:10455000D140677D6360CA5CDE4F6883C653D1403B
:1045600086E00E94B812BE016C5C7E4F86E00E941D
:104570005213BE016C5C7E4F80E00E945213CC5CF3
:10458000DE4F6881C453D1406C60CC5CDE4F6883E1
:10459000C453D14080E00E94B8126CE485E00E94D0
:1045A000B8128DE10E946313682F64608DE10E9450
:1045B000B8128CE10E946313682F6F638CE10E9434
:1045C000B8128DE10E946313682F66608DE10E942E
:1045D000B8128CE10E946313682F63608CE10E9423
:1045E000B8126FE381E00E94B81260E787E00E9492
:1045F000B8120E948D120E94871260E787E00E9425
:10460000B812CC5CDE4F1882C453D140BE016C5C42
:104610007E4F80E00E945213CC5CDE4F1881C45361
:10462000D1401C7860E080E00E94EF0D612F636054
:1046300080E00E94B81261E080E00E94EF0D602FE0
:104640007F2D8AE00E947113602F7F2D80E10E94F0
:10465000711360E080E00E94EF0DBE016C5E7E4F42
:104660008BE00E94711363E082E00E94B81261E067
:1046700080E00E94EF0D809169008068809369005E
:10468000EB9A81E080932A0680914401823209F4FA
:1046900025C608F4D1C582E4FE01EB55FF4FACE618
:1046A000B5E001900D928A95E1F781E292E1909355
:1046B000CE058093CD0581E09D81923009F480E0A4
:1046C0008093270688E5FE01E35BFF4FAFECB5E082
:1046D00001900D928A95E1F78091D8008F7E8093AA
:1046E000D8008091D70081608093D70084E082BF9A
:1046F00081E0809329068091D8008E7F8093D80036
:104700001092E2001092DA001092E1008091D8003D
:104710008F778093D8008091D80080688093D800EC
:104720008091D8008F7D8093D80019BC1BBC10925B
:1047300028068091E0008B7F8093E0008091D80074
:1047400081608093D80042E360E080E00E9494138F
:104750008091E1008E7F8093E1008091E200816092
:104760008093E2008091E20088608093E200809173
:10477000E0008E7F8093E0008091D800806180937C
:10478000D8007894C55CDE4F0FB6F894DEBF0FBE3C
:10479000CDBFDF91CF911F910F91FF90EF90DF90F0
:1047A000CF90BF90AF909F908F907F900895913061
:1047B00009F035CE843108F032CE2ECE8E81809332
:1047C0006B058F8180936A0580912B06882309F4FD
:1047D00031C4CD5EDE4F8881C351D140817080935A
:1047E000690580917A00846080937A0080917A00D4
:1047F000826080937A0080917A00816080937A0051
:1048000080917A00806880937A008981823009F4EF
:1048100013C4833009F413C4813079F488858093FC
:10482000E00382E29EE1909368058093670581EF43
:104830009AE090936605809365058981833009F03D
:104840008AC48B818130C9F41092FB0381E080938C
:10485000FA031092F903589A599A8091B9008E7F01
:104860008093B9008091B9008D7F8093B9008AE070
:104870008093B80085E48093BC002B81998181E00E
:10488000213019F0913009F080E0817080934A0561
:104890008D81823009F470C481E0933009F080E0AA
:1048A00081708093490581E0933009F480E0809322
:1048B0004805C451DF4F8881CC5ED04080934705C6
:1048C0002093460584E2FE01E351FF4FA2E2B5E0EA
:1048D00001900D928A95E1F7109221051092200522
:1048E0000E94620E10925F0410925E041092FD030B
:1048F0001092FC03ED2CF12E6701B12C75E0972E80
:1049000004E111E00C0F1D1F0D5F1F4FD801E92DB1
:104910001D92EA95E9F7CC5EDE4FB882C451D140D2
:10492000D60190968C90A0902B06BFEF8B16C1F10C
:10493000E5E0BE1205C0AA2019F08B81833081F515
:10494000D60191967C9061E0882D0E946A0ECA5E25
:10495000DE4F7882C651D140EEEEE80DF0E0E55C26
:10496000FA4FE491CB5EDE4FE883C551D140A09170
:104970005E04B0915F04CD01019690935F04809333
:104980005E0463E0AA0FBB1F6A95E1F7A250BC4F1B
:1049900088E0FE01EC5EFE4F01900D928A95E1F7F2
:1049A000B394B2E0CB0ED11CE6E0BE12AFCFC4513F
:1049B000DF4F8881CC5ED0408F3F19F060E00E94CD
:1049C0006A0E10E000E05CE0852E8981823009F0FB
:1049D000E6C3D7015096BC90BFEFBB1609F4B0C038
:1049E00081E00C30110538F498012850310922304B
:1049F000310508F080E0382F317080FF04C021E0DD
:104A00008D81813009F020E0C55CDE4F0883CB53F7
:104A1000D1408B2D90E0FC01EE57FA4F4491FC0100
:104A2000ED59FA4F7490E42FF0E0EE0FFF1FE95BB1
:104A3000FA4FC590D490E22FE170C95CDE4FE88355
:104A4000C753D140CF5EDE4F9880C151D140809195
:104A50002C06882309F492C3332309F48FC3F1E1B0
:104A6000FB1508F08BC38FA528E0829FC00111249D
:104A7000CA5EDE4F188219821A82C651D140CC5EBE
:104A8000DE4FB882C451D14021E0C55EDE4F28839D
:104A9000CB51D140C75EDE4F99838883C951D14045
:104AA00061E08B2D0E946A0EEEEEEB0DF0E0E55C0E
:104AB000FA4FE491A0915E04B0915F042A2FCB5E7F
:104AC000DE4FE883C551D140CD01019690935F043C
:104AD00080935E0433E0AA0FBB1F3A95E1F7A25022
:104AE000BC4F88E0FE01EC5EFE4F01900D928A956E
:104AF000E1F74091200550912105CA01019690935C
:104B0000210580932005849EF001859EF00D1124DF
:104B1000E05AFB4F7082D282C182C95CDE4F88812D
:104B2000C753D1408383B482C55CDE4F9881CB5399
:104B3000D14095831682178210861186928623872C
:104B40000F5F1F4F8FEFE81AF80A0031110509F0C7
:104B50003CCFAA2009F462C21B81113009F060C366
:104B600088A980936005789480E8CC5EDE4F8883C6
:104B7000C451D140A0910601B0910701E091080114
:104B8000F09109019E012C5E3E4F41E055966C91DB
:104B900080810E94871B882309F46BC09FEFA9E6E0
:104BA000B8E19150A040B040E1F700C00000CC5EF9
:104BB000DE4F1882C451D140A0910601B091070187
:104BC000E0910801F09109019E012C5E3E4F41E009
:104BD00055966C9180810E94871B882309F449C0F7
:104BE000109214018FEF80930C0180930A0180933F
:104BF0000B0180930D012FEF3FEF309310012093B5
:104C00000F01809311018093130110930E011093F3
:104C10002101109222011092160110921501E7E174
:104C2000F1E08AE0DF011D928A95E9F710922301F5
:104C30001092240110922601109225010E944B1D12
:104C4000811117C00E94791D811113C08AE290E082
:104C50000E94C21C81110DC082E390E07DDA8111B7
:104C600008C0E7D9811105C00E94A61D811101C0AD
:104C70003FD988E73DD90E944B1D0E94791D88E7E6
:104C8000D8D98091240181119BC0F12CE12C86EFB1
:104C9000C82E8BE0D82E86010E191F09013111058F
:104CA00010F000E110E0F701EF55FA4FDE01AC5EC5
:104CB000BE4FCD01800F911FA817B90709F0ACC2F4
:104CC000AE014C5E5E4FB801C7010E94021D81110A
:104CD00077C080910C01882309F472C09E2D8F2D1E
:104CE000CC5CDE4F99838883C453D140E0910801A6
:104CF000F091090120853185C8018E0D911D28177D
:104D0000390708F45DC0A0910601B09107019E012A
:104D10002C5C3E4F42E05B966C9180810E94871B29
:104D2000882309F44DC0A0910601B0910701E091DC
:104D30000801F09109019E012C5D3E4F402F5896CD
:104D40006C9180810E946E148823D1F1A801BE016C
:104D50006C5D7E4FCE018C5E9E4F0E942F35892B5D
:104D600079F5E00EF11EB6EFEB16BBE0FB0608F49A
:104D700092CF84E0CC5CDE4F8883C453D140CB5CBF
:104D8000DE4F1882C553D140A0910601B0910701B2
:104D9000E0910801F09109019E012C5C3E4F42E038
:104DA0005D966C9180810E94871B882349F081E089
:104DB0008093240188EC90E0909326018093250154
:104DC0008CE0E6EFF1E0DE01AC5EBE4F01900D92AB
:104DD0008A95E1F7CC5DDE4F1882C452D14085E060
:104DE000CB5DDE4F8883C552D140AE014C5D5E4F36
:104DF00062E070E086E192E00E94021D811111C024
:104E0000AE014C5E5E4F6CE070E081EC9AE00E9477
:104E1000021D811106C08EE190E0909354058093AD
:104E2000530580912301813031F180912401882341
:104E300011F180E0CAD80E94A61D809125019091B1
:104E400026018AD9CC5EDE4F1882C451D140E09150
:104E50000801F09109019E012C5E3E4F41E063E2A2
:104E600080810E94871B882331F081E08093230199
:104E7000ACD80E94C11B82E0CC5EDE4F8883C45157
:104E8000D1408AECCB5EDE4F8883C551D14083EEA2
:104E9000CA5EDE4F8883C651D14019E0C95EDE4F3D
:104EA0001883C751D140AE014C5E5E4F64E070E0A4
:104EB00088E690E00E94021D83EACC5EDE4F888384
:104EC000C451D140CB5EDE4F8883C551D140CA5E0C
:104ED000DE4F8883C651D140C95EDE4F8883C751FB
:104EE000D140C85EDE4F8883C851D140C75EDE4FD7
:104EF0008883C951D140C65EDE4F8883CA51D140F4
:104F0000C55EDE4F8883CB51D140C45EDE4F8883BF
:104F1000CC51D140C35EDE4F8883CD51D140AE012C
:104F20004C5E5E4F6AE070E087EA9AE00E94021DE4
:104F300088EDCC5EDE4F8883C451D140AE014C5E1B
:104F40005E4F61E070E086EB9AE00E94021DE3E0B4
:104F5000F2E0DE01AC5DBE4F01900D921A95E1F7D3
:104F6000AE014C5D5E4F69E070E088EB94E00E941A
:104F7000021D44E050E06BE870E0CE018C5D9E4F76
:104F80000E944535AE014C5D5E4F64E070E088E9FB
:104F90009AE00E94021D0E94C11B80E2CC5DDE4FA0
:104FA0008883C452D14088E2CB5DDE4F8883C552EE
:104FB000D14080E3CA5DDE4F8883C652D14088E38A
:104FC000C95DDE4F8883C752D140AE014C5D5E4F54
:104FD00064E070E08EE99AE00E94021D0E94C11B0D
:104FE00088E190E090935205809351050E94C11B87
:104FF00080E18093550581E79AE290935F05809365
:105000005E0586E0FE01E55FFE4FA7E5B5E0019095
:105010000D928A95E1F78CA5809356058EA5109286
:105020006305809364058DA590E09093620580935D
:1050300061052ACB80E0D2CB84E29BE0FACB01E091
:1050400021E041E060E271EA87E090E00E94A70E73
:10505000ECE8F5E08491EDE6F5E09491E82FF0E0DE
:10506000EE0FFF1FEB5AFA4F45915491CF5EDE4F82
:105070003881C151D1409093ED035093EF03409399
:10508000EE031092F0038AE08093F1031092F20392
:105090001092F3031092F4031092F5031092F603AA
:1050A0003093F7032FEF2093F803E9E8F5E08491BC
:1050B000EAE6F5E09491E82FF0E0EE0FFF1FE95BE0
:1050C000FA4F459154919093E1035093E303409339
:1050D000E20381E08093E40387E08093E50310928C
:1050E000E6031092E7031092E8031092E90310928E
:1050F000EA033093EB032093EC0360E08AE00E9424
:105100006A0E61E087E00E946A0EF894809169005F
:10511000806380936900EE9A78940E940F0EE0916C
:10512000EE03F091EF0380819091ED03892B808352
:10513000E7ECF0E03197F1F700C000008FE69BE06C
:10514000909366058093650585E696E190936805E2
:105150008093670572CB8D81823049F400E021E0B5
:1051600041E060E072E18AE790E00E94A70E898149
:10517000813009F066CB68CB81E092CB62E0621BA4
:105180008B2D0E946A0EAA2041F00230110528F4EE
:10519000CE5EDE4F9880C251D1402FEFAACC702F47
:1051A000E2E8F5E08491E3E6F5E06491E82FF0E0D1
:1051B000EE0FFF1FE95BFA4F85919491CF5EDE4FB2
:1051C000A881C151D140AA2041F00230110528F434
:1051D000CE5EDE4FA881C251D14040912005509152
:1051E00021059A012F5F3F4F309321052093200521
:1051F000849EF001859EF00D1124E05AFB4F6083E0
:10520000928381831382148275831682178210869B
:105210001186A2872FEF93CC24912D9331964CCDFC
:10522000123009F0EECE8BA580935D0562E00E94FE
:105230006A0E8DE29EE0E1CE843108F452C09CEE0D
:10524000980F9630B0F48AE1FE01F396A2EBB5E038
:1052500001900D928A95E1F78EA51092B00580938A
:10526000B1058DA51092AE058093AF058EE49DE04B
:105270001ECA803258F046E050E060EF71E087E3EC
:1052800091E00E941F3586E08093CC058091440117
:105290008A3149F48DE080932A018CE080932B01C0
:1052A00085ED99E004CA982F9D7F4EE050E063EBB6
:1052B00071E19C3171F04EE050E065EA71E18B31B3
:1052C00041F08D3111F0803259F74EE050E067E93E
:1052D00071E189E291E00E941F35E2CF80E799E019
:1052E000E6C984EA93E1E3C9CF93DF9300D000D00D
:1052F000CDB7DEB720E030E040E057E469837A8341
:105300008B839C8369817A818B819C810E94EE339F
:1053100069837A838B839C8369817A818B819C8169
:105320000E948B33CB010F900F900F900F90DF9165
:10533000CF9108958F929F92AF92BF92CF92DF92BA
:10534000EF92FF920F931F93CF93DF93CDB7DEB70A
:1053500028970FB6F894DEBF0FBECDBF8C016F83C8
:1053600078872F8138852817390771F480E090E21B
:10537000121613060CF471C090E080E0232B09F4A0
:105380006CC080E090EA69C0990F880B982F8095D7
:105390009095980128273927A901481B590B5E834E
:1053A0004D838F819885990F880B982F80959095C4
:1053B0002F81388528273927B901681B790B7A8313
:1053C000698364EE77EF81EB9DE38EDFD82EC92EE3
:1053D00069EF7DE78CEA9EE387DF7C018F8198850A
:1053E0009C01990F440B550B4801012E000CAA0893
:1053F000BB08A981BA816D817E81A617B7070CF021
:105400003FC0D501C4016FE0880F991FAA1FBB1FC1
:105410006A95D1F789839A83AB83BC83BC01CD01A4
:105420000E94D1344901C901990F880B982F8095AA
:105430009095BC0162277925681B790B8D2D9C2DD9
:105440000E940A13B4018E0D9F1D0E940A13AF81A2
:10545000B8851A161B060CF0905828960FB6F894CB
:10546000DEBF0FBECDBFDF91CF911F910F91FF9097
:10547000EF90DF90CF90BF90AF909F908F90089566
:10548000CA01B9012FE0660F771F881F991F2A955F
:10549000D1F769837A838B839C83A50194010E9451
:1054A000D1344901C901990F880B982F80959095A7
:1054B000BC0168257925681B790B8D2D9C2D0E94D8
:1054C0000A13B4018E0D9F1D0E940A139C0180E0F7
:1054D00090E41016110614F080E090EC821B930B00
:1054E000BCCF8F929F92AF92BF92CF92DF92EF92FA
:1054F000FF920F931F93CF93DF93CDB7DEB7EA9759
:105500000FB6F894DEBF0FBECDBF89AF9AAF109231
:105510003B0210923A02D0905505ED2CF12C80916F
:105520002301882311F180910C018823F1F0A091CF
:105530000601B0910701E0910801F09109019E0177
:105540002F5D3F4F42E01C966C9180810E946E144B
:10555000882359F009A11AA11027012710270E1539
:105560001F0508F08FC01092390280913A02909185
:105570003B028115914009F0B6C2C0903C02D09028
:105580003D02E0903E02F0903F0277E1F594E7940F
:10559000D794C7947A95D1F7D0923D02C0923C023D
:1055A0008090400290904102A0904202B09043024D
:1055B000E7E1B594A79497948794EA95D1F79092F0
:1055C0003F0280923E024091440250914502609118
:1055D000460270914702F7E1759567955795479593
:1055E000FA95D1F75093410240934002009148024E
:1055F0001091490220914A0230914B02A7E1359562
:10560000279517950795AA95D1F710934302009314
:10561000420280916005009FF001019FF00DF00DA6
:105620001124813009F4A8C1823009F4AFC281117C
:1056300036C2449FC001459F900D900D11248E0FDE
:105640009F1F880F991FE0E0F0E8E81BF90B489DC9
:10565000D001499DB00D589DB00D11240C9DC00185
:105660000D9D900D1C9D900D11249D01281B390B43
:10567000C901BF01880F991F5DDE909338028093A6
:1056800037020DC2A0910801B0910901E091060115
:10569000F09107018C9111962D913C9136952795AB
:1056A0002017310780F49E012F5D3F4F41E0638951
:1056B0000E946E14882309F458CF89A184FF03C087
:1056C0000E94C11B52CFA0910601B0910701E09149
:1056D0000801F09109019E012F5F3F4F4D2D1D964E
:1056E0006C9180810E946E14882309F43ECFC8011A
:1056F000B7010E948834615060933902E0915105EE
:10570000F0915205CF0184719927892B09F432C198
:1057100029813A814B815C81CA01B9010E94ED3433
:105720004B015C0180923C0290923D02A0923E02AD
:10573000B0923F028D819E81AF81B885BC01CD01C1
:105740000E94ED346B017C01C0924002D092410274
:10575000E0924202F092430229853A854B855C85AE
:10576000CA01B9010E94ED348B019C0100934402EF
:105770001093450220934602309347028D859E8503
:10578000AF85B889BC01CD010E94ED34AB01BC01ED
:10579000409348025093490260934A0270934B022F
:1057A000C501BB2797FDB095AB2F8BA39CA3ADA3E1
:1057B000BEA3C701BB2797FDB095AB2F8FA398A7BA
:1057C000A9A7BAA7C901BB2797FDB095AB2F8BA797
:1057D0009CA7ADA7BEA7CB01BB2797FDB095AB2F6C
:1057E0008FA798ABA9ABBAAB2BA13CA14DA15EA1F1
:1057F000CA01B9010E9479346BA37CA38DA39EA337
:105800002FA138A549A55AA5CA01B9010E9479342A
:105810006FA378A789A79AA7CBA0DCA0EDA0FEA0D4
:10582000C60ED71EE81EF91E2BA53CA54DA55EA5EC
:10583000CA01B9010E947934C60ED71EE81EF91EAE
:105840002FA538A949A95AA9CA01B9010E947934DA
:105850006BA37CA38DA39EA3C60ED71EE81EF91EC4
:105860009FE0F91AA1E0CA16D104E104A2E0FA0609
:1058700038F00E94C11B10923B0210923A0275CE82
:1058800080913A0290913B02916090933B02809309
:105890003A0280E1E6FF39C0282F30E0A1E0B0E015
:1058A000AC0FBD1FA20FB31F9C91DE01A20FB31F4F
:1058B00012964C91592F5093010040930000DE0145
:1058C000A20FB31F13969C91DE01A20FB31F149673
:1058D0004C91592F5093030040930200DE01A20F18
:1058E000B31F15969C91159716962C91392F3093CE
:1058F0000500209304008A5F20913A0230913B0218
:10590000286030933B0220933A02E078F170EF2B4D
:1059100009F42BCE90E0E1E0F0E0EC0FFD1FE80F82
:10592000F91F3081FE01E80FF91F22813093010039
:1059300020930000FE01E80FF91F3381FE01E80FFC
:10594000F91F24813093030020930200FE01E80F29
:10595000F91F25818681922F909305008093040082
:1059600080913A0290913B02806790933B02809332
:105970003A02FBCD80E08ECF089DC001099D900DBD
:10598000189D900D11244C9D90014D9D300D5C9DF6
:10599000300D11247C01E21AF30AB701C7010E94FD
:1059A0000A138C01BC010E940A135C01BC010E9415
:1059B0000A136C0160E670EB89E39DE395DCB801A6
:1059C0000E940A138BA39CA36AE27EEE87E39CE30A
:1059D0008BDC8FA398A76EEF7AEB87ED9CE384DCDA
:1059E000B8010E940A138BA79CA766EA79EB88EAA4
:1059F0009CE37ADC8FA798AB62E377E88AEF9CE3BD
:105A000073DCB8010E940A138BAB9CAB63E87EEC9D
:105A100086E39DE369DC8DAB9EAB6AEC79E989E9AD
:105A20009DE362DCB8010E940A138FAB98AF6AEA6B
:105A30007AEA8AE29EE358DC4C01B5018BA19CA175
:105A40004FA158A5841B950B0E940A132BA53CA5BA
:105A5000AFA5B8A92A0F3B1FB601820F931F0E9462
:105A60000A136C01B5018BA99CA9EDA9FEA98E0FA3
:105A70009F1F0E940A138C0D9D1D2FA938AD820E09
:105A8000931EB801880D991D0E940A13B7010E9448
:105A90000A13E80EF91EF0923802E0923702809164
:105AA0003702909138028A3939E193070CF48DC09E
:105AB00089E999E190933802809337022091370267
:105AC0003091380245E0429FC001439F900D112460
:105AD00020915605222319F0919581959109909373
