:10000000EEC0000007C1000005C1000003C10000F0
:1000100001C10000FFC00000FDC00000FBC00000E7
:10002000F9C00000F7C00000F5C00000D3CA00000E
:10003000F1C00000EFC00000EDC00000EBC0000008
:10004000E9C00000E7C00000E5C00000E3C0000018
:10005000E1C00000DFC00000DDC0000077CB000081
:10006000D9C00000D7C00000D5C00000D3C0000038
:10007000D1C000000800040806070508020103FFBC
:10008000080F0C0F0C0D0EFFFF0809050406070AE8
:100090000B28000000000104000100000000000027
:1000A00000000458555342313000000000000000A9
:1000B00000000000000000000005010906A1010584
:1000C0000719E029E71500250175019508810295BA
:1000D000017508810105081901290595057501912A
:1000E00002950175039101150026FF00050719000F
:1000F00029FF950675088100C0020103000E0D005E
:10010000030102FFFF08090F0D0C0E05010905A1EF
:100110000115002501350045017501950D050919E9
:1001200001290D81029503810105012507463B0147
:1001300075049501651409398142650095018101B5
:1001400026FF0046FF0009300931093209357508DC
:10015000950481020600FF092009210922092309CB
:100160002409250926092709280929092A092B957F
:100170000C81020A21269508B1020A212691022645
:10018000FF0346FF03092C092D092E092F75109531
:10019000048102C012034D00530046005400310098
:1001A000300030002000080331002E003200000033
:1001B00012034100720064007700690069006E005C
:1001C0006F0000001403730061006E006A0061009C
:1001D00079003900300030000000040309041124C4
:1001E0001FBECFEFD2E0DEBFCDBF11E0A0E0B1E097
:1001F000E4E7FEE102C005900D92A83CB107D9F7F3
:1002000022E0A8ECB1E001C01D92A837B207E1F7E7
:10021000E7DA2ECEF5CE80916902843019F08FEFA7
:100220009FEF08958091A9019091AA01A091AB013F
:10023000B091AC01892B8A2B8B2B89F380919B0188
:100240008F708093E9008091E80082FFE8CF809171
:10025000F200882369F08091F10090E02091F20093
:10026000211105C02091E8002B772093E800089524
:100270008FEF9FEFF3CF9B01FC018FB7F894718351
:1002800060837383628375836483205F3F4F37830A
:10029000268320E130E031872087138612868FBFC6
:1002A00008952091E4003091E50095E6A9012091A0
:1002B000EC00822F817020FF06C08091E80080FF53
:1002C00006C080E008952091E80022FD1AC08091C8
:1002D0006902882389F0853089F08091EB0085FDE3
:1002E0000FC02091E4003091E50042175307F9F266
:1002F0009150E1F684E0089582E0089583E0089546
:1003000081E0089580916902843081F58091A9018E
:100310009091AA01A091AB01B091AC01892B8A2BDD
:100320008B2B21F1809196018F708093E900909141
:10033000E80090FF1BC0909169029430B9F480935B
:10034000E9008091F200882389F09091E800809183
:10035000E8008E778093E80095FD08C0A2DF811148
:1003600005C08091E8008E778093E8000895CF93D0
:10037000C62F80916902843019F58091A90190916E
:10038000AA01A091AB01B091AC01892B8A2B8B2BD8
:10039000B9F0809196018F708093E9008091E80018
:1003A00085FF05C0C093F10080E0CF910895809152
:1003B000E8008E778093E80074DF882399F3F5CF07
:1003C00082E0F3CF8091700287FF13C08091E80034
:1003D00082FF06C08091E8008B778093E80004C01C
:1003E000809169028111F2CF08958091690288237A
:1003F000D9F38091E80080FFF8CF8091E8008E77F4
:10040000ECCF982F953020F08093E90081E008959B
:100410009093E900242F762F50E0981731F07091D7
:10042000EC002091ED005091F00021FD02C09F5F93
:10043000E9CF3091EB003E7F3093EB003091ED003F
:100440003D7F3093ED003091EB0031603093EB0055
:100450007093EC002093ED005093F0002091EE009B
:1004600027FDE5CF80E00895FC012081222311F1D2
:10047000822F8F70853000F5948142E0923008F031
:1004800046E0A181B28168E070E090E06A177B07E6
:1004900068F09295907F492B63816295660F660F95
:1004A000607C221F2227221F622BABCF9F5F660F2B
:1004B000771FECCF81E0089580E00895FC01CB0127
:1004C00020917602309177022617370790F0009737
:1004D00029F42091E8002E772093E80060E000974F
:1004E00051F4611108C08091E80082FF34C080E0BF
:1004F0000895C901F3CF209169022223C1F125306B
:10050000C1F12091E80023FD30C02091E80022FDD8
:10051000EACF2091E80020FFE2CF2091F20030E006
:100520004091940150E0009719F02417350758F0D6
:1005300061E02417350709F060E02091E8002E778C
:100540002093E800CCCF44914093F100319601977D
:100550002F5F3F4FE5CF80916902882341F08530BE
:1005600041F08091E80083FFBECF81E0089582E0F2
:10057000089583E00895FC01CB012091760230912B
:1005800077022617370790F0009729F42091E800AA
:100590002E772093E80060E0009751F4611108C0C5
:1005A0008091E80082FF33C080E00895C901F3CF55
:1005B000209169022223B9F12530B9F12091E80098
:1005C00023FD2FC02091E80022FDEACF2091E80012
:1005D00020FFE2CF2091F20030E04091940150E002
:1005E000009719F02417350758F061E024173507F4
:1005F00009F060E02091E8002E772093E800CCCF4E
:1006000041914093F10001972F5F3F4FE6CF8091DA
:100610006902882341F0853041F08091E80083FF32
:10062000BFCF81E0089582E0089583E00895FC0142
:10063000A281B3818D91B383A28326813781A217D2
:10064000B30721F424813581338322839FB7F89443
:100650002285338521503109338722879FBF089532
:10066000FC01A081B1816C9380819181019691837D
:100670008083268137818217930721F484819581B5
:10068000918380832FB7F894828593850196938711
:1006900082872FBF0895FC012FB7F8948285938538
:1006A0002FBF0895CF92DF92EF92FF920F931F9387
:1006B000CF93DF93D901E80130E020E041E050E042
:1006C000F901ED57FF4FE491EF3FE9F00D911C91D7
:1006D0001197CA01022E02C0880F991F0A94E2F7EF
:1006E000BA0102C0660F771FEA95E2F7E091F801C0
:1006F000F091F9016E237F23672BC9F1802B912B99
:1007000011969C938E932F5F3F4F2E303105C1F68B
:10071000809108028531D1F48D919C91119720919F
:10072000F8013091F90134FF27C0826011969C9343
:100730008E938D919C9111972091F8013091F90140
:1007400035FF1CC0846011969C938E933091C80134
:10075000E090C901F090CA018091F8019091F901EF
:10076000D090080250E040E001E010E039C08095F0
:10077000909580239123C4CF8D7FD8CF8B7FE3CFFB
:10078000F701E40FF51FE491EF3F41F1B80102C01A
:10079000660F771FEA95E2F76823792321E0672B3C
:1007A00009F420E067E1D61214C063E06C1588F00C
:1007B000FA01E158FF4FE491B80102C0660F771FBC
:1007C000EA95E2F768237923622B21E0672B09F48D
:1007D00020E0FD01E40FF51F219527834F5F5F4F58
:1007E000C42E431768F28F70E8E08B3028F4E82FAE
:1007F000F0E0EC58FF4FE4911296EC9312972091A1
:1008000002023091030280910802873101F5809144
:100810000102805815968C9315972F3F3F47A1F4FE
:1008200084E891E054969C938E9353978D919C917C
:1008300011972091F8013091F90130FFADC080612E
:1008400011969C938E9337C087EF91E0EBCF883160
:1008500061F59091010280E8891B15968C9315979C
:100860008D919C9111972F3F3F4709F08FC0806277
:1008700011969C938E938D919C9111972091F801E4
:100880003091F90136FF84C0816011969C938E935C
:100890008D919C9111972091F8013091F90137FFCA
:1008A00079C0886011969C938E938091080287513D
:1008B000823008F4BBCF8091080289518230D0F495
:1008C0008D919C9111972091F8013091F90130FFA1
:1008D00065C0806211969C938E938D919C91119727
:1008E0002091F8013091F90131FF5AC080611196D1
:1008F0009C938E93809108028551823008F056C0F7
:100900008D919C9111972091FA01233308F44AC0EC
:10091000806111969C938E938D919C91119720915B
:10092000FB01233308F440C0806211969C938E93A0
:100930008091FA011B968C931B978091FB011C966A
:100940008C931C978091FD01805813968C9313977C
:100950008091FF01805814968C9314978091010226
:10096000805815968C93159780910302805816969F
:100970008C938BE190E099838883DF91CF911F91D5
:100980000F91FF90EF90DF90CF9008958F7D70CF03
:100990008E7F7BCF877F86CF8F7E52CF8F7D9ACF02
:1009A0008F7EA5CF8F7EB5CF8F7DBFCF80E813968A
:1009B0008C93139714968C9314978DE7D8CFEF925E
:1009C000FF920F931F93CF93DF93EC01CB01BA01FA
:1009D000A901F8019701A081A630C8F4209769F019
:1009E00000271127041B150B6017710734F431968B
:1009F000AE0DBF2DB11D1296CC93009741F0461756
:100A000057072CF49081290F311DF9018283DF9162
:100A1000CF911F910F91FF90EF900895AF92BF92E9
:100A2000CF92DF92EF92FF920F931F93CF93DF93BA
:100A30000F92CDB7DEB7690158016091F80170914E
:100A4000F901E8E3F2E030E020E080E001E010E0CE
:100A50009191992391F0A801022E02C0440F551FD5
:100A60000A94E2F746235723452B39F0A601480F95
:100A7000511DDA0112969C938F5F2F5F3F4F2031FB
:100A8000310509F06CC0898320913502309136021E
:100A90004091FC015091FD0160914B0270E080910A
:100AA0004A0276018E010F5F1F4F90E088DF209190
:100AB0003502309136024091FE015091FF01609164
:100AC0004D0270E080914C0290E079DF2091350278
:100AD00030913602409100025091010260914F0224
:100AE00070E080914E0290E06ADF209135023091F3
:100AF000360240910202509103026091510270E06F
:100B00008091500290E05BDF2091330230913402FB
:100B10004091FA0150E06091480270E090E080E07E
:100B20004EDF20913302309134024091FB0150E0BE
:100B30006091490270E090E080E041DF88E090E061
:100B4000F501918380830F90DF91CF911F910F91D9
:100B5000FF90EF90DF90CF90BF90AF9008958630D8
:100B600009F076CF90CFF89488E198E00FB6F8942A
:100B7000A895809360000FBE90936000FFCF0F9305
:100B80001F93D901F80184E190E09183808311964D
:100B90008C93119712968CE0E8EFF1E001900D92A2
:100BA0008A95E1F71F910F910895EF92FF920F93AD
:100BB0001F93CF93DF9300D000D000D00F92CDB71A
:100BC000DEB72DB73EB73F832E838091E80083FFC9
:100BD00017C02091B001809174029091750228177E
:100BE000190671F480917102893009F491C0E0F422
:100BF000823009F417C1833009F4E0C0813061F11B
:100C00002E813F810FB6F8943EBF0FBE2DBF2796B1
:100C10000FB6F894DEBF0FBECDBFDF91CF911F910D
:100C20000F91FF90EF9008958A3009F4E0C08B3067
:100C300039F780917002813219F78091E800877F3F
:100C40008093E800BFDB9091720281E0911101C0B6
:100C500080E08093B901D4CF80917002813A81F60F
:100C60008DB79EB79D838C831A8219828091720200
:100C7000109173028B838091B801482F50E02DB7FB
:100C80003EB7241B350B0FB6F8943EBF0FBE2DBFE9
:100C90008DB79EB701967C0170E060E00E94130F53
:100CA0004FEF410FE0916C02F0916D028E010F5FEA
:100CB0001F4F9701BE016D5F7F4F80EB91E009955B
:100CC0008091B6019091B701009731F04091B80141
:100CD00050E0B7010E94F90E1092E9008091E800FF
:100CE000877F8093E8008B8181118093F100698177
:100CF0007A81C70140DC8091E8008B778093E8001F
:100D00002C813D810FB6F8943EBF0FBE2DBF78CF2A
:100D100080917002813209F073CF8DB79EB79D83A9
:100D20008C8380917602909177022DB73EB7281B75
:100D3000390B0FB6F8943EBF0FBE2DBFEDB7FEB70F
:100D400031962091E800277F2093E800009729F44E
:100D50002091E8002B772093E8000097B9F4809168
:100D6000E80080FD06C080916902882311F085307B
:100D7000B1F78091E8008E778093E8008C819D81A7
:100D80000FB6F8949EBF0FBE8DBF3ACF2091690277
:100D9000222379F3253069F32091E80023FDE9CF80
:100DA0002091E80022FFD9CF2091F200222381F286
:100DB0002091F10021930197B9F7CACF8091700279
:100DC000813A09F01DCF8091E800877F8093E80089
:100DD0008091E80080FFFCCF8091B9018093F10001
:100DE0008091E8008E778093E800ECDA09CF80915B
:100DF0007002813209F004CF8091E800877F8093F0
:100E0000E800E0DA809172029091730236E09695E4
:100E100087953A95E1F78C7F93709093BD0180930D
:100E2000BC01EECE80917002813A09F0E9CE80914A
:100E3000E800877F8093E8008091E80080FFFCCF86
:100E40008091BC019091BD01969587959695879567
:100E5000C5CF809171028032D9F480917002807E7A
:100E6000803CB1F48091740290917502049781F4F2
:100E70008091E800877F8093E80068E270E081E974
:100E800090E01CDB8091E8008B778093E800089568
:100E900080EB91E08ACE80910802853149F1209162
:100EA000B00180917402909175022817190601F51E
:100EB00080917002813AE1F4809171028130C1F435
:100EC0008091E800877F8093E8008091E80080FFB0
:100ED000FCCFE0E0F1E081918093F10081E0E83027
:100EE000F807C9F78091E8008E778093E8006ACA16
:100EF00080EB91E05ACECF92DF92EF92FF920F9368
:100F00001F93CF93DF93CDB7DEB7AE970FB6F894AC
:100F1000DEBF0FBECDBF80916902882309F463C094
:100F20001091E9001F709091EC00892F817090FD65
:100F300080E8182B1092E9008091E80083FF50C0F0
:100F400080E792E0FC0101962091F100208322E0ED
:100F500088379207B9F7E0916A02F0916B023097F7
:100F600009F450C009958091E80083FF16C02091D4
:100F7000950180917402909175022817190669F401
:100F800000917102023209F41BC108F03FC0003227
:100F900009F483C0013209F444C08091E80083FF62
:100FA00011C08091700290917102953009F4D0C106
:100FB00008F030C1292F2D7F213009F496C19923E3
:100FC00009F46BC18091E80083FF0AC08091E800BA
:100FD000877F8093E8008091EB0080628093EB0034
:100FE0001F701093E900AE960FB6F894DEBF0FBEE7
:100FF000CDBFDF91CF911F910F91FF90EF90DF90C8
:10100000CF90089580EB91E0D0DDADCF033229F68B
:1010100080917002813209F0C0CF8091E800877F13
:1010200038C080917002813A09F0B7CF8091E80012
:10103000877F8093E8008091E80080FFFCCF80915B
:10104000A9019091AA01A091AB01B091AC0180934C
:10105000F100492F5A2F6B2F77274093F100AD01F4
:10106000662777274093F1008B2F9927AA27BB2764
:101070008093F1008091AD018093F1008091AE01E9
:101080008093F1008091AF018093F1008091E8009E
:101090008E778093E80096D980CF8091700281325C
:1010A00009F07BCF8091E800877F8093E8008091F2
:1010B000E80082FF75C03091F1002091F10090911D
:1010C000F1008091F1003093A9012093AA0190933F
:1010D000AB018093AC018091F1008093AD018091D0
:1010E000F1008093AE018091F1008093AF01809177
:1010F000E8008B778093E80065D9809161028823AE
:1011000009F44BCF8091AE01813009F44EC082309A
:1011100009F04DC08091AD01823009F408608091E2
:10112000AF01873009F445C0883009F444C08630E7
:1011300009F402601092C9001092C8001092CA000F
:101140002091A9013091AA014091AB015091AC01CD
:10115000211581EE38074105510579F169017A01C0
:10116000F694E794D794C794D701C60180589B475B
:10117000A14EBF4F8BA79CA7ADA7BEA7BC01CD01B9
:1011800016D6215031093093CD002093CC00009326
:10119000CA0082E08093C80088E98093C900FDCE30
:1011A00080916902811183CFF8CE00E3B3CF00E0D4
:1011B000B1CF0460BFCF0660BDCF20E130E0E3CF08
:1011C00080917002813209F0E8CE8091E800877F3B
:1011D0008093E800F7D88091720290917302809317
:1011E000A5019093A6014091A9015091AA01609197
:1011F000AB017091AC014115514E6105710509F4C7
:10120000CCCE80FF02C05F98C8CE5F9A81E0809309
:101210006102C3CE983009F436C1993009F440C157
:10122000963009F0CFCE8058823008F0CBCE209196
:101230007202309173022C3DA3E03A0709F0AAC074
:1012400083E08A838AE289834FB7F894DE0113969C
:1012500020E03EE051E2E32FF0E050935700E491AC
:1012600020FF03C0E295EF703F5FEF708E2F90E09C
:10127000EA3008F48DC0C7968D939D932F5F24317B
:1012800051F74FBF8091E800877F8093E8006AE2C2
:1012900070E0CE0101966FD99DC0803899F08238F8
:1012A00009F090CE809174028F70853008F08ACE5C
:1012B0008093E9008091EB0085FB882780F91092EC
:1012C000E90006C0809162029091630291118260F0
:1012D0009091E800977F9093E8008093F10010923E
:1012E000F1008091E8008E7743C1882309F430C172
:1012F000823009F067CE80917202811134C18091F1
:1013000074028F702FEF280F243008F05BCE80938B
:10131000E9002091EB0020FF26C1933031F4809149
:10132000EB0080628093EB001EC19091EB00906116
:101330009093EB0021E030E001C0220F8A95EAF79C
:101340002093EA001092EA008091EB008860EACFD7
:10135000811138CE009172020F778091E30080787E
:10136000802B8093E3008091E800877F8093E800E2
:1013700029D88091E80080FFFCCF8091E30080684D
:101380008093E30082E0011183E0809369021ACE2A
:10139000C09672CF832F99278330910571F100F5A4
:1013A0008130910509F469C0029709F00BCE609174
:1013B00025017091260122E083E291E0611571051B
:1013C00009F400CE3091E800377F3093E800211116
:1013D00062CF74D88091E8008B778093E800F2CDDB
:1013E000829709F0EFCD809166029091670260913B
:1013F00064027091650220E0E1CFC9019927223093
:1014000051F18330910570F40097E1F0019709F0F4
:10141000D9CDE4ECF1E0E4916E2F70E020E084ECB3
:1014200091E0CCCF83309105F9F08E3E910509F023
:10143000C9CDE4E9F1E0E4916E2F70E020E084E9A9
:1014400091E0BCCFEAEDF1E0E4916E2F70E020E096
:101450008AED91E0B3CFE0EBF1E0E4916E2F70E024
:1014600020E080EB91E0AACFE6EAF1E0E4916E2F74
:1014700070E020E086EA91E0A1CF62E170E081E1D6
:1014800091E022E09FCF803809F09CCD8091E80068
:10149000877F8093E800809168028093F10021CFDC
:1014A000811190CD00917202023008F08BCD8091B5
:1014B000E800877F8093E800009368020E94E201C1
:1014C000002311F084E005C08091E30087FDFACF8E
:1014D00081E080936902EAEBF1E086E0DF011D9292
:1014E0008A95E9F781E08093B90184EF91E09093C8
:1014F000BD018093BC0103E00093B40181EB91E056
:101500000E9434028091E20084608093E200E5EA68
:10151000F1E08BE0DF011D928A95E9F782E080938C
:10152000990180939E010093A30186E991E00E94B6
:101530003402882309F446CD8BE991E00E943402FD
:10154000882309F43FCD80EA91E00E9434023ACD2D
:1015500080917202813009F035CD81E0933009F03D
:1015600080E0809363021092E9008091E800877F19
:101570008093E8000E94E20125CDEF92FF920F9345
:101580001F93CF937C018B010E945101C82F8823A8
:1015900071F08C2FCF911F910F91FF90EF900895D4
:1015A000F70181917F018093F1000150110901152C
:1015B000110579F38091E80085FDF2CF8091E80074
:1015C0008E778093E80097DC0E945101882379F39D
:1015D000C82FDFCF1F920F920FB60F9211242F93B7
:1015E0003F934F935F936F937F938F939F93AF93AB
:1015F000BF93EF93FF938091E10082FF14C080912D
:10160000E20082FF10C08091E1008B7F8093E100B7
:101610008091BE019091BF01009729F001979093AE
:10162000BF018093BE018091E10080FF16C08091D0
:10163000E20080FF12C08091E2008E7F8093E20082
:101640008091E20080618093E2008091D800806206
:101650008093D80019BC109269028091E10084FF48
:1016600027C08091E20084FF23C084E089BD86E02A
:1016700089BD09B400FEFDCF8091D8008F7D809395
:10168000D8008091E1008F7E8093E1008091E2009C
:101690008F7E8093E2008091E20081608093E2007F
:1016A00080916802882309F445C084E08093690230
:1016B0008091E10083FF2DC08091E20083FF29C06B
:1016C0008091E100877F8093E10082E0809369024E
:1016D000109268028091E1008E7F8093E1008091FA
:1016E000E2008E7F8093E2008091E200806180932F
:1016F000E2002091940130E088E090E040E0821721
:10170000930700F14295407F426060E080E00E94D4
:101710000102FF91EF91BF91AF919F918F917F91C6
:101720006F915F914F913F912F910F900FBE0F904E
:101730001F9018958091E30087FD02C081E0B6CF2D
:1017400083E0B4CF4F5F880F991FD9CF1F920F92BC
:101750000FB60F9211242F933F934F935F936F9384
:101760007F938F939F93AF93BF93EF93FF9360917A
:10177000CE00809161028823A9F085E592E00E9465
:101780003003FF91EF91BF91AF919F918F917F9126
:101790006F915F914F913F912F910F900FBE0F90DE
:1017A0001F90189580915402882371F0813091F038
:1017B000803140F4E0915202F0915302E80FF11DA4
:1017C000329760838F5F03C081E06D36D1F68093DE
:1017D0005402D7CF82E06136D1F310925402D1CFB8
:1017E00000D000D00F92CDB7DEB74CE450E060E0FF
:1017F00070E086E092E01ED380E190E09093CD000F
:101800008093CC0082E08093C80088E98093C9006F
:1018100086E08093CA00579A5F9A5F98E6E0F2E00C
:101820008091C80085FFFCCF81918093CE0082E03B
:10183000E235F807A9F780910A0280938C01809124
:101840000802843108F441C1843109F0DCC08EE023
:1018500095E090936D0280936C0289EB90E09093F9
:1018600067028093660280E490E090936502809323
:1018700064024EE050E066E871E08BE791E0C2D28E
:1018800080912501909126010B97909326018093DA
:1018900025018091640290916502909310018093DC
:1018A0000F0189E0E8E0F1E0A2E7B1E001900D92DC
:1018B0008A95E1F783E080936E0110926F01109298
:1018C0007001809163008E7F8093630081E080933C
:1018D000CB011092E2001092E1008091D8008F7746
:1018E0008093D8008091D80080688093D800809140
:1018F000D8008F7D8093D80084E089BD86E089BDC3
:1019000009B400FEFDCF1092690210926802109295
:10191000630210926202809118018093940190E01A
:1019200028E030E040E02817390708F4DDC0429590
:10193000407F426060E080E064D58091E1008E7F6E
:101940008093E1008091E20081608093E2008091C9
:10195000E20088608093E2008091E0008E7F8093B7
:10196000E000789488EF91E09093530280935202C4
:1019700084E085BD40E150E06CED71E08CEE91E0DB
:101980007AD440E150E06CEC71E085E592E073D4EC
:1019900080916102882309F4CBC08CEE91E00E9413
:1019A0004B032091F4013091F5018217930751F018
:1019B00085E991E030D4BC0197FD04C08CEE91E044
:1019C0000E94300385E592E00E944B039C01892B25
:1019D00009F08EC08091C80085FF10C08CEE91E0A8
:1019E0000E944B03892B51F08CEE91E00E9417036B
:1019F0009091C80095FFFCCF8093CE0085E991E0DF
:101A000081D479DAC5CF22E533E030936D0220939B
:101A10006C022BE437E030936B0220936A022BE0D8
:101A200031E0309367022093660229E830E030937A
:101A3000650220936402853169F48DE09FE0909304
:101A40001A018093190182E990E090931C01809320
:101A50001B010FCF2FEF30E03093CA012093C90153
:101A60009CE09093C801863109F403CF2AEB32E160
:101A700030931A012093190129EF30E03093CA0105
:101A80002093C90196E09093C80120E031E08731AE
:101A900079F0883149F480E092E090931C018093C2
:101AA0001B0110920301E5CE893149F420E231E0B7
:101AB00030931C0120931B0190930301DACE8A31ED
:101AC00009F0D7CE80E192E0E8CF2FEB35E03093FC
:101AD0006D0220936C0229E237E030936B02209371
:101AE0006A0280937601EDCE4F5F220F331F1BCF2A
:101AF000809196018F708093E9008091E80080FFCB
:101B000069CF2031310510F02FE030E0122FE09145
:101B10005702F0915802608185E991E028D4115074
:101B2000811158CF85E592E082D51111F0CF52CFC7
:101B300085E991E070D39C018C36910509F410C1C0
:101B40000CF0C5C08436910509F4FBC00CF09AC0B6
:101B50008236910509F41FC16EE070E088EF91E0D4
:101B60002336310509F499C06BE070E08DE292E014
:101B70002136310509F491C085E991E0C3D3BBD981
:101B800080915402803108F403CFA89580916902B6
:101B9000843009F074C08091E4009091E5002091B8
:101BA000BA013091BB012817390709F468C0809148
:101BB000B1018F708093E9008091E80085FF5FC0DC
:101BC0008DB79EB79D838C834091B80150E0841BF4
:101BD000950B0FB6F8949EBF0FBE8DBF01967C018A
:101BE0001B821A82198270E060E01DD1E0916C02C4
:101BF000F0916D028E010F5F1F4F970140E0BE0113
:101C00006D5F7F4F80EB91E009958091B6019091D7
:101C1000B701009729F04091B80150E0B701E9D031
:101C200089819A81892BE1F08091BC019091BD015D
:101C30009093BF018093BE018091B1018F7080931A
:101C4000E9008B8181118093F10069817A8150E0F4
:101C500040E0C70192DC8091E8008E778093E80035
:101C60008091E4009091E5009093BB018093BA01CC
:101C70008C819D810FB6F8949EBF0FBE8DBF1092D0
:101C8000540286CE86369105E9F16AE170E088E378
:101C900092E02B36310509F06FCF20916902243094
:101CA00009F06ACF0091A9011091AA012091AB011E
:101CB0003091AC01012B022B032B09F45DCF209155
:101CC00096012F702093E90050E040E038C08F3635
:101CD000910509F466C06CF48D369105B9F18E3624
:101CE000910509F049CF81E1C82ED12C86E092E020
:101CF0003CC08037910579F18237910509F03CCFDE
:101D00000E94B30580916902843009F035CF80913B
:101D1000A9019091AA01A091AB01B091AC01892BCE
:101D20008A2B8B2B09F428CF809196018F7080939A
:101D3000E90050E040E067E070E080EC91E01DDCFD
:101D40001BCF61E085E991E012D316CF61E170E02D
:101D500086E092E0A2CF66E170E087E192E09DCF5D
:101D60003AE1C32ED12C88E392E086509240F12CC8
:101D7000E12C8C010050104085E991E04CD2682F95
:101D8000C8018E0D9F1D66D09FEFE91AF90ACE1487
:101D9000DF0491F7B5CF2BE0C22ED12C8DE292E07B
:101DA000E4CF96E1C92ED12C87E192E0DECFA1E20B
:101DB0001A2EAA1BBB1BFD010DC0AA1FBB1FEE1FC5
:101DC000FF1FA217B307E407F50720F0A21BB30B10
:101DD000E40BF50B661F771F881F991F1A9469F78C
:101DE00060957095809590959B01AC01BD01CF01E8
:101DF0000895FB01DC0102C001900D92415050405A
:101E0000D8F708956817790768F4FB01DC01E40F3F
:101E1000F51FA40FB51F02C002900E924150504012
:101E2000D8F70895E6CFDC0101C06D9341505040D2
:101E3000E0F70895DC01CB01FC01F999FECF06C063
:101E4000F2BDE1BDF89A319600B40D924150504078
:101E5000B8F70895262FF999FECF1FBA92BD81BD1C
:101E600020BD0FB6F894FA9AF99A0FBE019608951C
:041E7000F894FFCF14
:101E740021260107000000000921110100012200B0
:101E84000012010002000000200912822822310100
:101E940002030109027100030100207D080B010205
:101EA40002020100090401000102020100052400EC
:101EB4001001042402060524060102070582030812
:101EC40000FF09040200020A0000000705040210D2
:101ED4000005070583021000050904000002FF5DE8
:101EE40001001421100100258114030303041302CB
:101EF4000803030000000705810320000107050211
:101F040003200001080183100000010410000001F7
:101F14008208000001000000000000000000000032
:101F240000812000000100001B00000000000000F0
:081F3400756E6F2D75736200DC
:00000001FF
