:100000000FC700000C94C22628C7000026C70000B6
:1000100024C7000022C7000020C700001EC7000040
:100020001CC700001AC7000018C7000016C7000050
:1000300014C7000012C7000010C700000EC7000060
:100040000C9408260AC700000C94AB250C94D32509
:1000500004C7000002C7000000C70000FEC6000081
:100060000C942B26FAC60000000000002400270094
:100070002A00FF080F0C2126010700000000756E02
:100080006F004552524F5200020F00000001010163
:1000900015D4A2000F000000FFFFFFFFFFFFFFFFCE
:1000A000FFFFFFFFFFFFFFFFFF00FF00FF00FF005C
:1000B000FF00FF0040404000B80B04160D0E0F3348
:1000C000280B504F525151FFFFFFFFFFFF00FF0071
:1000D000FF00FF000D0080000EFF000010FFFF007A
:1000E0000F0000FF09FF45000000000000000000B5
:1000F0000000000000000000000000000000000000
:1001000000000000000000000000000000000000EF
:1001100000000000000000000000000000000000DF
:1001200000000000000000000000000000000000CF
:1001300000000000000000000000000000000000BF
:1001400000000000000000000000000000000000AF
:10015000000000000000000000000000000000009F
:10016000000000000000000000000000000000008F
:10017000000000FF00000080000000000080000080
:1001800000000080FF7F00000080FF7F00000080F3
:10019000FF7F00000080FF7F0514000000000000CA
:1001A0000000000002000001010202000000000047
:1001B000020202010100020102010002010000022C
:1001C00002020101000000002300260029000000B7
:1001D0000000250028002B000102040810204080A8
:1001E0000102040810200102040810200404040481
:1001F00004040404020202020202030303030303D1
:100200000000700000000024000000020003000055
:1002100000650054FFEF0000FA80000B128200011D
:10022000030C30C30E8C8CE914D5400213710F8E71
:100230003883F8833000F883258EF8833000F88304
:10024000FFFFFFFF0FFEA9D6240004001A8279A148
:100250000000003CFFFF00000010000038836FA288
:10026000003E03304000000002CAE3093E80000067
:1002700020000000000000004000000060000000BE
:10028000000C0000000C186E000006920A16C0DF79
:10029000FFFF0256FD8CD377FFE1C496E0C5BEAAEE
:1002A00000000000FFFF0B2B000016570000035951
:1002B0004000000000001DFA00026C1D000000005C
:1002C0003FFFDFEB003EB3B6000D227800002F3C6D
:1002D00000000000001942B5000039A20000B3651B
:1002E000D90E9FC91DCF4C343000000050000000D3
:1002F0003BB67AE80064000000C80000000000007F
:10030000100000001000FA921000225E000D229FE3
:100310000001000000320000FF46000063D400002E
:100320001000000004D6000004CC000004CC000043
:1003300000001072000000400000000000000000FB
:100340000006000200050007000000000064000035
:10035000000000000000000500050064002000000F
:10036000000000000000000000004000000003004A
:1003700000000032F8980000FF650000830F0000C5
:10038000FF9BFC00000000000000000000000000D7
:10039000000000000000000000000000000000005D
:1003A000000000000000000000000000000010003D
:1003B00040000000000000060000B26A00020000D9
:1003C0000001FB830068000000D9FC007CF1FF8382
:1003D0000000000000650000006403E800640028DD
:1003E000000000250000000016A000000000100022
:1003F00000001000002F0000000001F400001000B9
:1004000000280000FFFF4581FFFFFA720000000096
:1004100000000000004400050005BAC6004778A2AD
:1004200000000001000000000000060000000014B1
:100430000000254D002F706D000005AE000C02D0AD
:1004400000000000000000000000000000000000AC
:10045000001B000000000000000000000000000081
:100460000064000000080000000000000000000020
:10047000000000000000000000000000000000007C
:10048000000000000000000000000000000000006C
:10049000000000000000000000000000000000005C
:1004A000000000000000000000000000000000004C
:1004B000000000000000000000000000000000003C
:1004C000001B00000000000000000000000E000EF5
:1004D00000000AC70004000000000032FFFFFF9C7C
:1004E00000000B2B0000000200000001000000646F
:1004F000FFE5000000000000000000000000000018
:1005000000000001000000000001000000000000E9
:10051000000180000001800000018000002426D33B
:100520000000000000000000000600100096003CE3
:1005300000000000000000000000000000000000BB
:100540000C0A4E68CDCF770950166759C619CE826E
:10055000000000000000000000000000000000009B
:10056000000000000000000017D784000300000016
:100570000000000000000000C7938F9D1E1B1C1987
:10058000000000000000000000000000000000006B
:100590000000000000000000020318850000400079
:1005A0000000000300000003000000000000000045
:1005B00040000000000000000000000000000000FB
:1005C000000000000000000000000000000000002B
:1005D000000000000000000000000000000000001B
:1005E00000000000677DDF7E72902E554CF6E68895
:1005F00000000000000000000000000000000000FB
:10060000D8DCB4B8B0D8B9ABF3F8FAB3B7BB8E9EA8
:10061000AEF132F51BF1B4B8B08097F1A9DFDFDF9E
:10062000AADFDFDFF2AAC5CDC7A90CC92C97F1A9B3
:1006300089264666B28999A92D557DB0B08AA896BB
:10064000365676F1BAA3B4B280C0B8A89711B28377
:1006500098BAA3F0240844106418B2B9B49883F18E
:10066000A329557DBAB5B1A38393F0002850F5B204
:10067000B6AA839328547CF1B9A3829361BAA2DA13
:10068000DEDFDB819AB9AEF5606870F1DABAA2DF1D
:10069000D9BAA2FAB9A38292DB31BAA2D9BAA2F826
:1006A000DF85A4D0C1BBAD83C2C5C7B8A2DFDFDF81
:1006B000BAA0DFDFDFD8D8F1B8AAB38DB4980D3572
:1006C0005DB2B6BAAF8C96198F9FA70E161EB49A5C
:1006D000B8AA872C547CBAA4B08AB691325676B2A6
:1006E0008494A4C808CDD8B8B4B0F19982A82D5587
:1006F0007D98A80E161EA22C547C92A4F02C507843
:10070000F184A898C4CDFCD80DDBA8FC2DF3D9BA90
:10071000A6F8DABAA6DED8BAB2B68696A6D0F3C8DC
:1007200041DAA6C8F8D8B0B4B882A892F52C54889B
:1007300098F135D9F418D8F1A2D0F8F9A884D9C71E
:10074000DFF8F883C5DADF69DF83C1D8F40114F17B
:10075000A8824EA884F311D182F5D992289788F106
:1007600009F41C1CD884A8F3C0F9D1D99782F129C7
:10077000F40DD8F3F9F9D1D982F4C203D8DEDF1A27
:10078000D8F1A2FAF9A88498D9C7DFF8F8F883C796
:10079000DADF69DFF883C3D8F40114F198A8822E58
:1007A000A884F311D182F5D992509788F109F41CED
:1007B000D884A8F3C0F8F9D1D99782F149F40DD8BB
:1007C000F3F9F9D1D982F4C403D8DEDFD8F1AD88CA
:1007D00098CCA809F9D98292A8F57CF1883ACF94EF
:1007E0004A6E98DB6931DAADF2DEF9D88795A8F266
:1007F00021D1DAA5F9F417D9F1AE8ED0C0C3AE82FB
:10080000C684C3A88595C8A588F2C0F1F4010EF18D
:100810008E9EA8C63E56F554F18872F40115F198E3
:1008200045856EF58E9E0488F142985A8E9E068804
:1008300069F4011CF1981E1108D0F504F11E97020D
:1008400002983625DBF9D985A5F3C1DA85A5F3DF52
:10085000D88595A8F309DAA5FAD88292A8F578F197
:10086000881A849F26889821DAF41DF3D8879F3947
:10087000D1AFD9DFDFFBF9F40CF3D8FAD0F8DAF90D
:10088000F9D0DFD9F9D8F40BD8F3879F39D1AFD994
:10089000DFDFF41DF3D8FAFCA869F9F9AFD0DADE8E
:1008A000FAD9F88F9FA8F1CCF398DB45D9AFDFD008
:1008B000F8D8F18F9FA8CAF38809DAAF8FCBF8D8A0
:1008C000F2AD978D0CD9A5DFF9BAA6F3FAF412F2BE
:1008D000D8950DD1D9BAA6F3FADAA5F2C1BAA6F322
:1008E000DFD8F1BAB2B68696A6D0CAF349DAA6CB5B
:1008F000F8D8B0B4B8D8AD84F2C0DFF18FCBC3A8BC
:10090000B2B68696C8C1CBC3F3B0B48898A821DB31
:10091000718D9D71859521D9ADF2FAD88597A8285A
:10092000D9F408D8F28D29DAF405D9F285A4C2F2F7
:10093000D8A88D9401D1D9F411F2D88721D8F40A1E
:10094000D8F28498A8C801D1D9F411D8F3A4C8BBAF
:10095000AFD0F2DEF8F8F8F8F8F8F8F8D8F1B8F611
:10096000B5B9B08A95A3DE3CA3D9F8D85CA3D9F871
:10097000D87CA3D9F8D8F8F9D1A5D9DFDAFAD8B15B
:100980008530F7D9DED8F830ADDADED8F2B48C99FC
:10099000A32D557DA083DFDFDFB591A0F629D9FB1C
:1009A000D8A0FC29D9FAD8A0D051D9F8D8FC51D96F
:1009B000F9D879D9FBD8A0D0FC79D9FAD8A1F9F91E
:1009C000F9F9F9A0DADFDFDFD8A1F8F8F8F8F8AC28
:1009D000DEF8ADDE8393AC2C547CF1A8DFDFDFF6CC
:1009E0009D2CDAA0DFD9FADB2DF8D8A850DAA0D0F8
:1009F000DED9D0F8F8F8DB55F8D8A878DAA0D0DF3F
:100A0000D9D0FAF8F8F8F8DB7DF8D89CA88CF53046
:100A1000DB38D9D0DEDFA0D0DEDFD8A848DB58D95C
:100A2000DFD0DEA0DFD0DED8A868DB70D9DFDFA0A2
:100A3000DFDFD8F1A888902C547C98A8D05C38D1FE
:100A4000DAF2AE8CDFF9D8B087A8C1C1B188A8C6E8
:100A5000F9F9DA36D8A8F9DA36D8A8F9DA36D8A802
:100A6000F9DA36D8A8F9DA36D8F78D9DADF818DA64
:100A7000F2AEDFD8F7ADFA30D9A4DEF9D8F2AEDEA7
:100A8000FAF983A7D9C3C5C7F1889BA77AADF7DE6A
:100A9000DFA4F8849408A797F300AEF29819A4880D
:100AA000C6A39488F632DFF28393DB09D9F2AADF7A
:100AB000D8D8AEF8F9D1DAF3A4DEA7F1889B7AD8BA
:100AC000F38494AE19F9DAAAF1DFD8A881C0C3C5BE
:100AD000C7A39283F628ADDED9F8D8A350ADD9F8D4
:100AE000D8A378ADD9F8D8F8F9D1A1DADEC3C5C753
:100AF000D8A18194F818F2B089ACC3C5C7F1D8B8B1
:100B0000B4B09786A8319B069907AB9728889BF0CD
:100B10000C201440B0B4B8F0A88A9A285078B79B3B
:100B2000A8295179247059446938644831F1BBAB24
:100B300088002C547CF0B38BB8A804285078F1B00E
:100B400088B49726A85998BBABB38B02264666B0EB
:100B5000B8F08A9CA82951798B2951798A24705937
:100B60008B2058718A4469388B3940688A644831CF
:100B70008B30496088F1AC002C547CF08CA80428A0
:100B80005078F1889726A85998AC8C02264666F0D2
:100B9000899CA8295179247059446938644831A93D
:100BA0008809205970AB11384069A8193148608C08
:100BB000A83C415C207C00F187981986A86E767E5F
:100BC000A999882D557DD8B1B5B9A3DFDFDFAED0A7
:100BD000DFAAD0DEF2ABF8F9D9B087C4AAF1DFDF23
:100BE000BBAFDFDFB9D8B1F1A3978E60DFB084F27D
:100BF000C8F8F9D9DED89385F14AB183A308B58343
:100C00009A0810B79F10D8F1B0BAAEB08AC2B2B687
:100C10008E9EF1FBD9F41DD8F9D90CF1D8F8F8ADB6
:100C200061D9AEFBD8F40CF1D8F8F8AD19D9AEFB08
:100C3000DFD8F416F1D8F8AD8D61D9F4F4ACF59C99
:100C40009C8DDF2BBAB6AEFAF8F40BD8F1AED0F823
:100C5000AD51DAAEFAF8F1D8B9B1B6A3839C08B9B0
:100C6000B1839AB5AAC0FD3083B79F10B58B93F2BC
:100C70000202D1ABDADED8F1B080BAABC0C3B28425
:100C8000C1C3D8B1B9F38BA391B609B4D9ABDEB067
:100C9000879CB9A3DDF1B38B8B8B8B8BB087A3A320
:100CA000A3A3B28BB69BF2A3A3A3A3A3A3A3A3A3C3
:100CB000A3F1B087B59AA3F39BA3A3DCBAACDFB9C9
:100CC000A3A3A3A3A3A3A3A3A3A3A3A3A3A3A3A3F4
:100CD000D8D8D8BBB3B7F1AAF9DAFFD9809AAA2835
:100CE000B48098A720B79787A86688F07951F190CB
:100CF0002C870CA781976293F0717160859401290C
:100D0000517990A5F1284C6C870C95188578A383B0
:100D100090284C6C886CD8F3A28200F210A892192B
:100D200080A2F2D926D8F188A84DD948D896A839FA
:100D300080D93CD89580A839A68698D92CDA87A77F
:100D40002CD8A8899519A980D938D8A88939A9801B
:100D5000DA3CD8A82EA83990D90CD8A8953198D9C2
:100D60000CD8A809D9FFD801DAFFD89539A9DA2615
:100D7000FFD890A80D8999A810809821DA2ED889DB
:100D800099A83180DA2ED8A886963180DA2ED8A894
:100D9000873180DA2ED8A88292F34180F1D92ED8FB
:100DA000A882F31980F1D92ED882ACF3C0A2802298
:100DB000F1A62EA72EA92298A829DAACDEFFD8A288
:100DC000F22AF1A92E8292A8F23180A696F1D900DA
:100DD000AC8C9C0C30ACDED0DEFFD88C9CACD01040
:100DE000ACDE8092A2F24C82A8F1CAF235F196886C
:100DF000A6D900D8F1FF0E0C0D0F08FFFF0905045E
:100E000006070A0B0F0C0D0E08FFFF090504060765
:100E10000A0B0F0C0D0E0908FFFF050406070A0B4D
:100E200011241FBECFEFD8E0DEBFCDBF11E0A0E0A0
:100E3000B1E0E8E4FDE502C005900D92AE3EB107D9
:100E4000D9F726E0AEEEB1E001C01D92A639B20797
:100E5000E1F70E94C8260C94A22ED2C89B01FC0187
:100E60008FB7F8947183608373836283758364831F
:100E7000240F351F378326835187408713861286B8
:100E80008FBF0895FC01A081B1816C938081918115
:100E9000019691838083268137818217930721F4FD
:100EA00084819581918380832FB7F894828593857F
:100EB0000196938782872FBF0895FC01A281B38199
:100EC0008D91B383A28326813781A217B30721F4C2
:100ED00024813581338322839FB7F894228533851B
:100EE00021503109338722879FBF08950F931F93A5
:100EF000CF93DF93EC018C01060F111DC017D107B2
:100F000041F488EB8093C100DF91CF911F910F9145
:100F1000089569918AE896E0B5DFF0CFCF93DF932B
:100F2000FC01DA0186E0EB01888385E08083159679
:100F30002C911597822F922F990F990B97FD079659
:100F400053E0959587955A95E1F7828317962C91F2
:100F50001797822F922F990F990B9195819591094F
:100F600097FD079643E0959587954A95E1F783832A
:100F70001B962C911B97822F922F990F990B97FDFF
:100F8000079633E0959587953A95E1F7848319960E
:100F90002C911997822F922F990F990B97FD0796F5
:100FA00023E0959587952A95E1F7858311969C9185
:100FB00011979295917081818E7F982B91831196D4
:100FC0008C911197829582709D7F892B81831196D8
:100FD0009C919695969596959870877F892B81839D
:100FE000DF91CF9108959F92AF92BF92CF92DF92FF
:100FF000EF92FF920F931F93CF93DF9300D000D017
:10100000CDB7DEB7FC014B835C838CE1DB018C93B5
:1010100084E0808390902806B09089067AE2C72EFB
:1010200071E0D72EFA83E98390E080E061E070E020
:10103000A82ED6012D916D01AB81BC814D915C91A3
:101040002F3F09F44AC0DB0102C0AA0FBB1F2A953B
:10105000E2F79D012423352341E02115310509F4F0
:1010600040E08B010A2C02C0000F111F0A94E2F726
:1010700000951095E180F280E022F12250E08A0193
:1010800002C0000F111FAA94E2F70E291F29128334
:101090000183891510F5BBE1BB1215C0843098F4AB
:1010A0009C012E583F4FD9012C918B0102C0000F9B
:1010B000111F2A95E2F7AB81BC812D913C91202331
:1010C0003123242B352B41E0232B09F440E0242F3E
:1010D0002195A981BA8118962C93019629813A818C
:1010E0002F5F3F4F3A8329838E30910509F0A0CFBF
:1010F000AB81BC812C912F7088E02B3028F430E03C
:101100002B533E4FD9018C918383AB81BC811A96BE
:101110002D913C91BBE1BB1216C0AB81BC811996ED
:101120008C9185958054868387E29FE12F3F3F47CE
:1011300011F480E690EF958B848B8DE7878380E8B0
:101140008483858376C06DE1B61619F080E2B8120B
:1011500020C0AB81BC8119968C9180588683818197
:1011600092818F7D41E050E02F3F3F4711F050E0EA
:1011700040E065E0440F551F6A95E1F7842B952BFD
:1011800092838183AB81BC8112969C9180E8891BFC
:101190008783BFE1BB1619F02AE1B212D0CF81E0FC
:1011A00090E0AB81BC8112962C91233310F490E037
:1011B00080E054E0880F991F5A95E1F72181328130
:1011C0002F7E822B932B9283818321E030E0AB81B1
:1011D000BC8113964C91433310F430E020E045E09D
:1011E000220F331F4A95E1F78F7D282B392B32834D
:1011F0002183AB81BC8112968C91129784871396C0
:101200008C911397858715968C91159780588483B8
:1012100017969C9117979058958319968C911997CA
:10122000805886831B968C9180588783BAE1BB16C1
:1012300081F00F900F900F900F90DF91CF911F9141
:101240000F91FF90EF90DF90CF90BF90AF909F9065
:1012500008959095958380958783EBCFEF92FF92C9
:101260000F931F93CF93DF93CDB7DEB72C970FB6B5
:10127000F894DEBF0FBECDBFE32FF0E0E459FE4F80
:1012800080818F3F81F021E030E002C0220F331FC8
:101290008A95E2F78091F1019091F2012823392398
:1012A00081E0232B09F480E02C960FB6F894DEBF82
:1012B0000FBECDBFDF91CF911F910F91FF90EF90A7
:1012C0000895EF92FF920F931F93CF93DF93CDB7C3
:1012D000DEB764970FB6F894DEBF0FBECDBFE986C8
:1012E000FA860B871C872D873E874F87588B698B23
:1012F0007A8B8B8B9C8B9F3F69F4EA85FB85808181
:101300008E2191E009F490E081E02C859217B9F0EC
:1013100080E015C088E0989FF0011124E657FB4F4C
:1013200088E0DE01119601900D928A95E1F74C81DB
:101330005D8181E02E813F812417350748F764964F
:101340000FB6F894DEBF0FBECDBFDF91CF911F91D6
:101350000F91FF90EF900895EF92FF920F931F93DC
:10136000CF93DF93CDB7DEB72C970FB6F894DEBFDF
:101370000FBECDBFE982FA820B831C832D833E838F
:101380004F83588769877A878B879C878091010173
:10139000843049F1893051F58CE791E02E81820F3C
:1013A000911DFC0180818F3F81F021E030E002C07F
:1013B000220F331F8A95E2F78091F3019091F40197
:1013C0002823392381E0232B09F480E02C960FB6E3
:1013D000F894DEBF0FBECDBFDF91CF911F910F916B
:1013E000FF90EF9008958CE991E0D8CF8CE891E0E0
:1013F000D5CFCF93DF9300D000D0CDB7DEB72FB7D6
:10140000F8948091640290916502A0916602B09177
:1014100067022FBF9C01AD0187E0220F331F441FDD
:10142000551F8A95D1F7CA01B9012DE730E040E098
:1014300050E00E94D42DCA01B9010F900F900F9077
:101440000F90DF91CF910895CF92DF92EF92FF92AC
:101450000F931F93CF93DF93EC016B01BA01A901A6
:10146000F801C70120812630E0F4209771F00027B1
:101470001127041B150B601771073CF431962E0DD4
:101480003F2D311DD9011396CC93C114D10449F0DD
:101490004617570734F42081820F911DDC01139603
:1014A000CC92DF91CF911F910F91FF90EF90DF9041
:1014B000CF9008958F929F92AF92BF92CF92DF927A
:1014C000EF92FF920F931F93CF93DF930F92CDB7BD
:1014D000DEB76C014A0189E0DB018C9386E0F601FE
:1014E0008083EEE0F6E050E040E080E061E070E014
:1014F00091919923A1F0D401AD90BC909B01042E51
:1015000002C0220F331F0A94E2F72A213B21232B2A
:1015100031F0D601A80FB11D13969C938F5F4F5FDA
:101520005F4F4031510511F0863011F78983A0904B
:101530000C06B0900D06F40144815581609121069E
:1015400070E08091200676018E010F5F1F4F95019C
:1015500090E07ADFD40116964D915C91609123065C
:1015600070E080912206950190E06EDFF4014085E5
:1015700051856091250670E080912406950190E0E8
:1015800063DFD4011A964D915C916091270670E05B
:1015900080912606950190E057DFA0900A06B09052
:1015A0000B06F401428150E060911E0670E0950147
:1015B00090E080E049DFD40113964C9150E06091B7
:1015C0001F0670E0950190E080E03EDF0F90DF9114
:1015D000CF911F910F91FF90EF90DF90CF90BF9030
:1015E000AF909F908F9008958EBD00000DB407FEC0
:1015F000FDCF8EB5089590E0FC01E852FE4F249196
:10160000FC01E451FE4FE491EE2389F0F0E0EE0F8F
:10161000FF1FE253FE4FA591B4919FB7F8948C91B0
:10162000611106C0E22FE095E823EC939FBF089577
:10163000822B8C93FBCF61E08DE0DDDF61E08BE0FE
:10164000DACF90E0FC01E852FE4F2491FC01E45116
:10165000FE4FE491EE2359F0F0E0EE0FFF1FEC5344
:10166000FE4FA591B491EC91E22381E009F480E072
:101670000895CF93DF93EC018091B905E2DF91E00B
:1016800089274FEF5FE7849F9001859F300D1124DC
:101690003B872A87DF91CF910895806480937C00F7
:1016A00080917A00806480937A0080917A0086FD30
:1016B000FCCF8091780090917900089580917A0014
:1016C00086FDFCCF81E0809304010895CF93DF93E2
:1016D00090E0FC01E852FE4F249184519E4FFC01A2
:1016E00084918823D1F090E0880F991FFC01E8597C
:1016F000FF4FA591B491FC01E253FE4FC591D491E7
:10170000613071F49FB7F8948C91209582238C936B
:101710008881282328839FBF7894DF91CF910895F3
:1017200062509FB7623050F4F8943C91822F8095BC
:1017300083238C938881822B8883EDCFF8948C91BE
:10174000822B8C93E8CFCF92DF92EF92FF920F9390
:101750001F93CF93DF936B017C01142FD22F60E096
:101760008BE0B4DF62E08CE0B1DF60E08DE0AEDF03
:1017700061E08AE040DF60E08AE0A8DF1111C8E0A4
:10178000D111C4600111C062C11482E1D8068AE798
:10179000E806F104D0F5C11489E0D8068DE3E80627
:1017A000F104A8F580E8C81684E8D8068EE1E806BA
:1017B000F10478F580E4C81682E4D8068FE0E806E4
:1017C000F10448F580E2C81681EAD80687E0E80609
:1017D000F10418F580E9C81680EDD80683E0E80624
:1017E000F104E8F487E091E08927982F96959C2BE7
:1017F00090659CBD81708DBDDF91CF911F910F9140
:10180000FF90EF90DF90CF90089580E0ECCF81E0E3
:10181000EACF82E0E8CF83E0E6CF84E0E4CF85E062
:10182000E2CFCF92DF92EF92FF92F0E0E0E067E646
:1018300075E483E291E041E24093570024916227EE
:1018400028E030E06B017C0151E0C522DD24EE246C
:10185000FF249695879577956795CD28CE28CF2834
:1018600041F050E2652753E8752758EB85275DEE78
:1018700095272150310931F73196E032F105E1F633
:10188000FF90EF90DF90CF900895682F8AE0B3CE5D
:10189000982F8D30D9F08230C8F08091A60588232A
:1018A00021F02EEE290F223080F08091A5058823AB
:1018B00021F026EF290F223040F08091A4058111FC
:1018C00003C081E09C3009F080E0089581E0089534
:1018D0000F931F93CF93DF938091D002811109C0A2
:1018E0001092DD021092D002DF91CF911F910F91E3
:1018F00008950CEB12E0C0E08C2FA3DEF801819379
:101900008F01CF5FC431C1F78091A3058F3F11F0E4
:1019100060E0DCDECCEBD4E010E000E080917C0500
:1019200090917D0508171907DCF68C819B852B812A
:10193000211103C062E09F3F09F061E0C7DE0F5F45
:101940001F4F2C96EBCFCF93DF93EC01FB018081EF
:101950008052990B880F880F1C828D838181805261
:10196000990B880F880F1E828F8385812481358192
:101970002095309590918906933260F0938191FF84
:1019800009C09095907E628166956E736A3120F5EC
:10199000623139F1982F96959695969561E0962744
:1019A0009170B92FB295BB0FB07EA0E0367D2A2B87
:1019B0003B2B82958695877086278170582F550F0F
:1019C000550F550F40E0242B352B3093F201209317
:1019D000F101DF91CF9108956E31E1F69093B40259
:1019E000D9CF9093B802D6CFFC01DB018C91880F40
:1019F000880F80581482858311968C911197880FD7
:101A0000880F80581682878313968C9113978F7155
:101A10008E50990B97FD20C0918780872085318556
:101A2000C901880F991F820F931F80329105BCF462
:101A300091878087808591854097880F880F880FD0
:101A40001086818714968D919C91809590959093A6
:101A5000F2018093F101089511861086DFCF8FE1A6
:101A600090E0E6CFFC01DB018C918058990B148249
:101A7000858312968C9112978058990B16828783D2
:101A800011968C9111978058990B10868187139627
:101A90008C9113978058990B1286838714968C919A
:101AA0001497828315968C911597838316968D9142
:101AB0009C91809590959093F2018093F101089507
:101AC000FC01DB018C918F738052990B9583848389
:101AD00011968C9111978F738052990B97838683FF
:101AE0008C9190E023E0959587952A95E1F7887190
:101AF000992711962C91119730E045E0359527955F
:101B00004A95E1F726703327822B932B12962C915E
:101B10001297221F2227221F822B409791878087AE
:101B200012968C9112978F718051990B93878287AF
:101B300012968C91129786958695887113969C9132
:101B40001397929596959770892B828313968C9113
:101B500013978F71838314968D919C9180959095A6
:101B60009093F2018093F1010895DC01FB019081D3
:101B70008181829586958670292F269526952695B2
:101B80002871822B2281221F2227221F822B990F4C
:101B9000990F905814961C92149715969C9315972C
:101BA0009181990F990F905816961C921697179637
:101BB0009C9317972481938120FF3BC0292F30E00D
:101BC000209530952F713327205E3F4F19963C9317
:101BD0002E931897082E000C990B228120FF2FC0FE
:101BE0002FE330E0281B390B1B963C932E931A975A
:101BF0008281869586958871938192959695977046
:101C0000892B12968C931297828190E095958795F7
:101C10008F7013968C9384819581982789279827B4
:101C2000809590958D7C93769093F2018093F1014D
:101C300008959F7120E230E0291B3109C7CF20E2CF
:101C400030E0D0CFCF93DF93FC01EB018A8190E0AD
:101C5000982F882788279F706881862B9583848397
:101C60008A8120E1829FC001112488279F706981A9
:101C7000862B978386838B8183838D8181FB992734
:101C800090F9392F3295330F330F307C20E0982FA5
:101C90009695969561E096279170B92FB295BB0FF6
:101CA000B07EA0E02A2B3B2B8170582F5295507F9D
:101CB00040E0242B352B3093F2012093F101DF918A
:101CC000CF910895FC01DB018D919C911197958333
:101CD000848312968D919C91139797838683149693
:101CE0008C9183830895FB018481958198278927AE
:101CF0009827809590959093F2018093F101089533
:101D0000DC01862F90E06031F8F4209186062223D2
:101D100039F0693028F084559D4FFC018081089589
:101D200021E030E002C0220F331F6A95E2F78D9167
:101D30009C912823392381E0232B09F480E08295AC
:101D4000880F880F807C08952091BD053091BE05D5
:101D5000633170F0FC017097EE0FFF1FEA0FFB1F5D
:101D600081E0408151812417350758F080E009C097
:101D7000A80FB91F1E979C9181E092171306B1F32B
:101D8000ACF308957F928F929F92AF92BF92CF92C1
:101D9000DF92EF92FF920F931F93CF93DF93EC01AB
:101DA0007B01742E852E87E0888348ECC42E45E0A5
:101DB000D42E0EE412E0912CB12CF60181916F012A
:101DC000882369F130EBA32E813011F420E9A22E93
:101DD000692D872D982D94DF8695F80190819817AD
:101DE000F1F0F60143A59589F80180832B2D30E0B1
:101DF00054E0B59EF0011124EC0FFD1F5A2D5295B1
:101E00005F705183A42AA2829383F9013196EE0F69
:101E1000FF1FEE0FFF1FEC0FFD1F8083B3940F5FBA
:101E20001F4F939486E19812C8CFBB0CBB0CB394A0
:101E3000F701B082DF91CF911F910F91FF90EF904A
:101E4000DF90CF90BF90AF909F908F907F9008953C
:101E500080E01BDD81EEC8DB81E017CD80E015DD81
:101E600082EEC2DB81E011CD80E00FDD80E5BCDBDE
:101E700083E7BADB81E009CD0F931F93CF93DF9304
:101E8000182F062FEC018991AFDB8C2F811B801757
:101E9000D0F3DF91CF911F910F910895CF93DF93EE
:101EA000D82FC62F80E0F1DC8D2F80629DDB8C2F38
:101EB0009BDB81E0DF91CF91E8CCEF92FF920F9313
:101EC0001F93CF93DF93F82EE92EC62F80917704CE
:101ED000811109C0C0E08C2FDF91CF911F910F912C
:101EE000FF90EF9008951092770480E0CEDC8FEFA2
:101EF0007BDBD82F81E0C9DC2D2F30E0359527958D
:101F0000277033272730310529F360E487E0C6DFE7
:101F1000C11109C080E0B9DC80E666DB80E064DBEB
:101F2000C82F81E0B2DC80E0B0DC81E65DDB0F2D04
:101F30001E2D802F8F198C1718F081E0A6DCCBCFD7
:101F4000F80181918F0150DBF80131978083F1CF47
:101F5000CF93DF9300D000D0CDB7DEB7DB019C017B
:101F60000E94192E69837A838B839C83AB01BC0109
:101F70005F776627772781E090E0A0E0B0E0411529
:101F800050446105710519F480E090E0DC012EE019
:101F9000880F991FAA1FBB1F2A95D1F729813A8163
:101FA0004B815C81820F931FA41FB51F3FE0B59545
:101FB000A795979587953A95D1F70F900F900F9029
:101FC0000F90DF91CF910895F89488E198E00FB6D3
:101FD000F894A895809360000FBE90936000FFCFA7
:101FE0001F93CF93DF93182FEB0180E04EDC812FFE
:101FF000FBDA8881F9DA888381E0DF91CF911F9144
:1020000044CCCF93DF930F92CDB7DEB7BE016F5FA5
:102010007F4FE6DF89810F90DF91CF9108951F9365
:10202000CF93DF93182FD62FC72F80E02EDC812F80
:102030008062DADA64E08D2F9C2F1EDF81E0DF9171
:10204000CF911F9122CC85ED8093BC008FEF9FE74D
:102050002091BC0024FD03C01092870402C00197A8
:10206000B9F70895CF93DF93DC01FA0184E1EB0126
:1020700088831C9211968C93119712968CE0019094
:102080000D928A95E1F7DF91CF910895CF93282F94
:10209000CB01C42F4FEF5FE7C13228F080E045C08D
:1020A00041505109D9F3309187043111F9CF31E012
:1020B00030938704309386044FEF40932A021092A6
:1020C0004C024C0F40934B0230934D0230914D0225
:1020D000220F232B20934D0220918504222381F18E
:1020E0001092850420914D022093BB002FEF3FE713
:1020F0004091BC0043FD1BC025EC2093BC002FEF9A
:102100003FE7409187044130E9F020914C022C17C1
:1021100010F4C0914C024C2F50E06BE272E00E9430
:10212000612E81E0CC2309F4B9CFCF9108952150DD
:10213000310909F4B3CF40914D024093BB00D8CF91
:1021400025EEDBCF21503109E1F6A8CFCF93C82F80
:102150008FEF9FE7413220F080E03FC00197E1F32D
:10216000209187042111FACF82E08093870481E0D7
:10217000809386048FEF80932A0210924C02409342
:102180004B0250E08BE292E00E94612E10924D02D1
:1021900080914D02CC0FC82BC0934D0280918504D5
:1021A000882329F11092850480914D028093BB0011
:1021B0008FEF9FE72091BC0023FD11C085EC809339
:1021C000BC008FEF9FE720918704223091F090911F
:1021D0002A0281E09F3F09F0BFCFCF910895019778
:1021E00009F4BACF20914D022093BB00E3CF85EED6
:1021F000E6CF019741F7B0CFEF92FF920F931F9375
:10220000CF93DF930F92CDB7DEB7182F6983E42EFB
:10221000F22E032F41E0BE016F5F7F4F97DF8823CF
:1022200071F04E2D6F2D702F812F30DF81700F9048
:10223000DF91CF911F910F91FF90EF90089580E073
:10224000F5CFCF92DF92EF92FF920F931F93CF9330
:10225000DF938C01EB016C017B01E40EF11CCE15C8
:10226000DF0549F4DF91CF911F910F91FF90EF901F
:10227000DF90CF9008958AE50115110511F0F60160
:102280008081B2D98993F0E5FA95F1F78FEFC81AFA
:10229000D80AE5CF0F931F93CF93DF938C01D62FEE
:1022A000E0917A04F0917B0490818091790480958B
:1022B0008923808360E08DE09ED960E08BE09BD92C
:1022C00080E58A95F1F743E065EF71E0C801B9DF79
:1022D0008091F6018F3FA9F4D0E0C0E0ACD9E09145
:1022E0007A04F0917B04808190917904892B80831A
:1022F00080E58A95F1F7CE01DF91CF911F910F9183
:1023000008959091F7019A3511F09111E5CF8F70F2
:10231000C82FCC0FD33039F04DEF4D0F68EF71E07F
:10232000C80103968EDFCD5F4C2F4D1BCD1761F09A
:102330006D2F70E0CB01840F911D81976CF66B506F
:102340007E4F90E080E07DDFC5EFD1E0C7CFFF9208
:102350000F931F93CF93DF930F92CDB7DEB789838F
:10236000F62E8A0141E0BE016F5F7F4F82E5EEDE0F
:10237000882351F08FEC92E00197F1F700C0000044
:102380004F2DB80182E582DE0F90DF91CF911F9132
:102390000F91FF900895CF93DF9300D000D000D02D
:1023A000CDB7DEB7AE014F5F5F4F66E08AEFCFDF9C
:1023B000FE013196AE01495F5F4F8FEF90E02191B2
:1023C000922B82234E175F07D1F7992369F08F3F35
:1023D00059F099818E8126960FB6F894DEBF0FBE14
:1023E000CDBFDF91CF9108958FEF9FEFF4CFCF92C4
:1023F000DF92EF92FF920F931F93CF93DF9300D062
:1024000000D000D0CDB7DEB78D839E83062F0E940B
:10241000F9096B017C0110E0602F8D819E813ADF0C
:10242000FC01892B51F01F5F8D819E818A5B914059
:10243000E1F48181807F803F09F18FE39CE901977E
:10244000F1F700C000000E94F90969837A838B8349
:102450009C83DC01CB018C199D09AE09BF098B3F20
:102460009105A105B105C0F209C08D819E818E5BE9
:10247000914099F48181807F803FF9F226960FB6D2
:10248000F894DEBF0FBECDBFDF91CF911F910F91AA
:10249000FF90EF90DF90CF900895133078F7CDCF75
:1024A000CF93DF93EC0163E082EC91E0F3DEFC017B
:1024B00080E0309751F08181982F907F903F41F4D8
:1024C00064E08EEB91E093DF81E0DF91CF9108959E
:1024D00023813481209530953093F4012093F301CA
:1024E000903509F053C088E08093010181818231E9
:1024F00079F489E08093010185818058990B1C82D1
:102500008D8346818FE790E0841B91091E828F8323
:102510008181807D8035C1F685818058990B188630
:10252000898746818FE790E0BC01641B71091A8698
:102530006B8747814058550B1C824D834085841B17
:1025400091091E828F8380918506882399F084E00B
:10255000809301011D821C821F821E82808580580B
:10256000990B898790E080E030FF02C08FEF9FE7F2
:102570009B878A878181893709F05CC083898A8338
:1025800084898B8382E0809301019ECF8332A9F5F9
:1025900085E08093010185818058990B1C828D8391
:1025A00041E08681813808F440E080E0942F9295E4
:1025B000990F990F907C488159815F7B482B592B4B
:1025C0005983488361E08781813808F460E080E0C6
:1025D000962F9795992797955F77842B952B9983BD
:1025E000888361E04085413F08F460E040E0562F79
:1025F0009E7F482B592B598348838181807F803E61
:1026000009F074CF86E080930101858190E09D837D
:102610008C839681858197FD09C0803808F08FE70B
:1026200090E080589F4F9D838C8360CF8138C0F7A6
:1026300081E8F6CF807F803509F446CF81E0809332
:10264000010143CF1F93CF93DF93D82FC92F8091E0
:1026500001018A3009F515E08D2F9C2F21DF8FE9CC
:102660009FE00197F1F700C000001150A9F78D2FEE
:102670009C2F16DF8823C1F064E08AEB91E0B7DE7F
:1026800065E085EB91E0B3DE69E08CEA91E0AFDED6
:1026900064E08EEB91E0ABDE8D2F9C2F01DF81118A
:1026A00003C08AE080930101DF91CF911F910895CB
:1026B000CF93DF93CDB7DEB7C351D1400FB6F894B7
:1026C000DEBF0FBECDBF43E151E068E870E0CE0150
:1026D00001960E94442E43E151E061E070E0CE019A
:1026E00001960E94812ECD5EDE4F0FB6F894DEBFBC
:1026F0000FBECDBFDF91CF910895EF92FF920F9360
:102700001F93CF93DF9300D0CDB7DEB7082F142FE0
:10271000732F8DB79EB79A83898350E0CA010196C3
:10272000EDB7FEB7E81BF90B0FB6F894FEBF0FBE6E
:10273000EDBF8DB79EB701967C016183622F019634
:102740000E94612E41E0410FB701802FFFDCE9813B
:10275000FA810FB6F894FEBF0FBEEDBF0F900F9039
:10276000DF91CF911F910F91FF90EF900895EF921D
:10277000FF920F931F93CF93DF930F92CDB7DEB7E6
:1027800080910D01811109C08FEF0F90DF91CF91E2
:102790001F910F91FF90EF9008951982A09107016A
:1027A000B0910801E0910901F0910A018E010F5FDB
:1027B0001F4F980141E051966C9180819EDF780116
:1027C000882311F3A0910701B0910801E09109015C
:1027D000F0910A01980141E015966C9180818DDF9E
:1027E000882391F2A0910701B0910801E0910901BD
:1027F000F0910A01980141E014966C9180817DDF8F
:10280000882309F4C1CFE0910701F09108016481A8
:10281000E0910901F0910A0180912401882309F4D3
:1028200055C08CE08983980141E0808166DF882370
:1028300009F4AACF2FEF80E792E02150804090402A
:10284000E1F700C0000080EC898380910D0180FFDA
:1028500002C080EE8983A0910701B0910801E09148
:102860000901F0910A01970141E014966C91808171
:1028700044DF882309F488CF81E0909113019111FE
:1028800001C080E0880F8983A0910701B091080101
:10289000E0910901F0910A01970141E051966C9194
:1028A00080812BDF882309F46FCF1982A091070163
:1028B000B0910801E0910901F0910A01970141E00E
:1028C00015966C91808119DF81505FCF84E08983F8
:1028D000980141E0808111DF882309F455CF809170
:1028E0001401811143C080910D0180FF3FC080E63B
:1028F0008983A0910701B0910801E0910901F0914D
:102900000A01970141E014966C918081F6DE8823DC
:1029100009F43ACF2FEF80E792E0215080409040B9
:10292000E1F700C0000081E090911301911101C016
:1029300080E08983A0910701B0910801E09109012D
:10294000F0910A01970141E051966C918081D5DEAA
:10295000882309F419CFA0910701B0910801E091F3
:102960000901F0910A0122E131E0A9CF80E4C0CF52
:10297000CF93DF930F92CDB7DEB79C0180910D010D
:10298000811105C08FEF0F90DF91CF91089581E005
:102990002C3B310588F482E02236310568F483E06F
:1029A0002A32310548F484E02431310528F485E0E9
:1029B0002A30310508F486E0898390910E0198173A
:1029C000A9F0A0910701B0910801E0910901F091EF
:1029D0000A019E012F5F3F4F41E012966C9180816A
:1029E0008CDE882379F2898180930E0180E0CBCF41
:1029F000EF92FF920F931F93CF93DF9300D0CDB749
:102A0000DEB7FC018B017A0180910D0181110AC0B2
:102A10008FEF0F900F90DF91CF911F910F91FF904B
:102A2000EF9008959E2F8F2F9A838983A09109019B
:102A3000B0910A019B012E0F311D18968D919C912A
:102A400019978217930720F3E0910701F09108018D
:102A50009E012F5F3F4F42E0638D8C914EDE8823B5
:102A6000B9F2A0910701B0910801E0910901F0913C
:102A70000A019701402F58966C9180813EDE81506B
:102A8000C8CFCF93DF930F92CDB7DEB780910D0102
:102A9000811105C08FEF0F90DF91CF91089588E1EC
:102AA000898380910B018330C1F0A0910701B0911F
:102AB0000801E0910901F0910A019E012F5F3F4F4B
:102AC00041E016966C91808118DE882319F3898184
:102AD00086958695869580930B0180E0DCCFCF9319
:102AE000DF930F92CDB7DEB780910D01811105C044
:102AF0008FEF0F90DF91CF910895198280910C0193
:102B00008823C1F0A0910701B0910801E09109016B
:102B1000F0910A019E012F5F3F4F41E017966C91A3
:102B20008081EBDD882321F38981869586958695C2
:102B300080930C0180E0DDCF0F931F93CF93DF9341
:102B40000F92CDB7DEB780911401882309F45AC0E3
:102B5000A0910701B0910801E0910901F0910A01EB
:102B60008E010F5F1F4F980141E014966C91808198
:102B700043DB811107C08FEF0F90DF91CF911F9141
:102B80000F910895898190910D0190FF3DC0806261
:102B90008983A0910701B0910801E0910901F091AA
:102BA0000A01980141E014966C918081A6DD88238A
:102BB00011F38FED9EE20197F1F700C0000081E074
:102BC00090912201911101C080E087958827879517
:102BD000898390912301992311F080638983A091C7
:102BE0000701B0910801E0910901F0910A019801F3
:102BF00041E057966C91808180DD882309F4BBCF3A
:102C00001092140180E0B8CF8F7DC2CFCF93DF93B5
:102C10000F92CDB7DEB769839E012F5F3F4F41E032
:102C2000682F82E56ADD0F90DF91CF910895EF92D2
:102C3000FF920F931F93CF93DF93CDB7DEB76897C3
:102C40000FB6F894DEBF0FBECDBF7C0180910201AC
:102C5000909103018F3F980709F091C09CDB9C0184
:102C600090930301809302012F3F3F4FB9F465E534
:102C700080EFCCDF85E38A95F1F7000060E08BEF11
:102C8000C5DF95E39A95F1F7000085DB909303018A
:102C90008093020125E32A95F1F70000809102015B
:102CA0009091030183319F4F71F461E08BEFAEDFB0
:102CB00085E38A95F1F7000065E580EFA7DF95E3EE
:102CC0009A95F1F7000080910201909103019E7F97
:102CD000019799F563E08EEF99DF25E32A95F1F7E7
:102CE0000000AE01475F5F4F68E080E030DB8FE1BE
:102CF00093E00197F1F700C00000AE014F5F5F4F16
:102D000068E080E024DB48E050E0BE016F5F7F4F69
:102D1000CE0109960E94542E892B09F05DC08F8543
:102D20009889892B09F05EC020E63DE086E030936B
:102D3000F0012093EF0180930001809102019091B6
:102D40000301813021E0920709F473C008F054C0F8
:102D50008330910509F467C008F048C0009709F472
:102D600075C0019709F465C08BE098E19093030169
:102D7000809302011092F0011092EF015AC08B3043
:102D8000984109F46BCF8E010F5E1F4FA80160912F
:102D9000000180E0DCDAB801882389F0F801809135
:102DA0000001A801480F511D8FEF90E04E175F07FB
:102DB00079F4992309F452CF8F3F09F44FCFE09172
:102DC000EF01F091F0013097A1F1C701099531C0F1
:102DD0002191922B8223EACF8FE193E00197F1F7C3
:102DE00000C07ECF22E33DE088E0A1CF419709F00B
:102DF000BBCF83E79EE019C082312FEF920761F1CC
:102E000058F4833021E0920721F18330934009F098
:102E1000ABCF85EB9DE009C083319F4F09F0A4CF74
:102E200082E69EE002C084EF9CE09093F0018093E4
:102E3000EF0168960FB6F894DEBF0FBECDBFDF91ED
:102E4000CF911F910F91FF90EF90089588E295E246
:102E5000ECCF83EA9CE0E9CF82E29EE0E6CF1F93CD
:102E6000CF93DF930F92CDB7DEB7182F8091230158
:102E7000811721F180E0111180E389839091140181
:102E8000992311F08260898380912201882319F0AF
:102E9000898180688983A0910701B0910801E09140
:102EA0000901F0910A019E012F5F3F4F41E05796C3
:102EB0006C91808122DC8111109323010F90DF91AE
:102EC000CF911F910895EF92FF921F93CF93DF93BD
:102ED0000F92CDB7DEB7182F807729F581E0111159
:102EE00080E08295880F880F807C8983A0910701FC
:102EF000B0910801E0910901F0910A01CE0101961B
:102F00007C019C0141E055966C918081F6DB970134
:102F100081110BC010920D010F90DF91CF911F9185
:102F2000FF90EF90089581E0E0CF89818F7B8093BF
:102F30000F0116FF32C0198215FD03C0898182601E
:102F4000898314FD03C089818160898313FD03C0D7
:102F5000898188638983A0910701B0910801E0917C
:102F60000901F0910A0141E056966C918081C5DB20
:102F7000882381F2812F877F11F080E070DF10932A
:102F80000D01109216019FEF20E782E09150204042
:102F90008040E1F700C00000BFCF84E08983CCCF40
:102FA000CF93DF930F92CDB7DEB790912401992391
:102FB000F9F091E0811101C090E0990F9983A091FF
:102FC0000701B0910801E0910901F0910A019E0109
:102FD0002F5F3F4F41E051966C9180818EDB8823BB
:102FE00019F08981809313010F90DF91CF9108959B
:102FF00090910D019923C1F3882321F09091130141
:103000009111F2CF8983DBCF1F93CF93DF93D82F1A
:1030100080912401C0E081111FC080910D0188239F
:10302000B9F0109112018D2380931201C1E08D132C
:1030300001C0C0E0C195809116018D2B59F081E04F
:10304000AFDFDD2349F093DB882331F010931201C9
:10305000CFEF02C080E0A4DF8C2FDF91CF911F91D2
:1030600008951F93CF93DF9300D0CDB7DEB7182F0D
:1030700081111EC080E0F3DE198287E08A83A0916F
:103080000701B0910801E0910901F0910A019E0148
:103090002F5F3F4F42E055966C9180812EDB81116E
:1030A000109216010F900F90DF91CF911F9108950C
:1030B00081E0D5DE80E28983113041F51A8285E016
:1030C00090E056DC8A8120E4829FC0011124876051
:1030D0008A83A0910701B0910801E0910901F09164
:1030E0000A019E012F5F3F4F42E055966C9180810F
:1030F00004DB8823B9F288E080930D0110920F0160
:1031000081E08093160180E07FDFCCCF163018F489
:1031100081E08A83D4CF153128F482E08A838AE063
:1031200090E0CFCF83E08A8384E190E0CACF0F9311
:103130001F93CF93DF930F92CDB7DEB78C018091B1
:103140000D01811107C08FEF0F90DF91CF911F917B
:103150000F910895809124018111F5CF809116017E
:10316000882351F0C8010197889720F4802F79DFD8
:1031700080E0EACF80E075DFB801093E134010F02F
:1031800068EE73E06430710510F464E070E008EEFE
:1031900013E0C8010E94AD2D61506983A091070121
:1031A000B0910801E0910901F0910A019E012F5FA1
:1031B0003F4F41E011966C9180819FDA882309F49A
:1031C000C2CF698170E06F5F7F4FC8010E94C12D3F
:1031D0007093110160931001CB0196958795C8DB20
:1031E000C7CF7F928F929F92AF92BF92CF92DF9282
:1031F000EF92FF920F931F93CF93DF93CDB7DEB77C
:10320000CB53D1400FB6F894DEBF0FBECDBF43E124
:1032100051E061E070E0CE0101967C010E94712EC8
:103220008D859E85AF85B889DE2C1F2D0897A10559
:10323000B10538F443E151E060E070E0C7010E945D
:10324000712E89859A85AB85BC858531944DA24ABE
:10325000B105B1F043E151E068E870E08D2D912FA8
:103260000E94442E1D861E861F86188A42E450E066
:103270006CE271E0CE018B559F4F0E94442E08C036
:103280008D859E85AF85B8890297A105B10570F33C
:103290008A81873009F040C08FE08A838D859E85C2
:1032A000AF85B8890497A105B10548F448E550E019
:1032B00064ED70E0CE01835B9F4F0E94442E8D85AC
:1032C0009E85AF85B88986309105A105B10548F581
:1032D0001C82C951DF4F1882C75ED040EA81F0E0FE
:1032E000E556FE4FE491E23021F48AA591E089276A
:1032F0008AA743E050E068E971E0CE018F5E9E4FFF
:103300000E94442E44E250E064E771E0CE01835114
:103310009F4F0E94442E13C0883009F0BFCF8DE02C
:10332000BCCF86309105A105B10599F28930910590
:10333000A105B10598F20D97A105B105D0F28D85D3
:103340009E85AF85B8898E309105A105B10520F520
:1033500088A9843028F48230E8F081E088AB04C08A
:103360008450823008F418AACD5EDE4F1882C35113
:10337000D1408FE090E0A0E0B0E08D879E87AF87DE
:10338000B88B43E151E061E070E08D2D912F0E94F8
:10339000812E06C082E0E2CF0E97A105B10521F390
:1033A000EA81E09389068C818093880689818093E5
:1033B0008706F0E0E556FE4F949181E0913009F0E8
:1033C00080E080938606E49181E0E23009F080E0BD
:1033D0008093850685B5826085BD85B5816085BD94
:1033E00080916E00816080936E00C951DF4F8881AB
:1033F000C75ED040882309F45FC10E94110CC95CEC
:10340000DE4F688379838A839B83C753D1407E01D3
:10341000FCEDEF1AFEEFFF0AC851DF4F888199815A
:10342000AA81BB81C85ED040F70180839183A283CB
:10343000B383C95CDE4F88819981AA81BB81C75360
:10344000D140CC5EDE4F88839983AA83BB83C4516D
:10345000D1401092770460E088E00E94660B60E043
:103460008AE00E94660B00E020E040E060E074E249
:1034700084EF90E00E94A30B60E088E00E94FB0ACA
:1034800081E00E94450CAFE1BEE41197F1F700C066
:10349000000061EF84E00E944E0F62E083E00E9432
:1034A0004E0FBE016C5C7E4F86E00E94F00FCC5C3C
:1034B000DE4F6881C453D140697FCC5CDE4F6883A6
:1034C000C453D14086E00E944E0F8DE10E9401104E
:1034D000182F0E94340F8DE10E9401100E2D8823B9
:1034E00041F0181302C00E94340F60E08DE10E9489
:1034F0004E0FBE016A5C7E4F86E00E94F00FCA5CF0
:10350000DE4F6881C653D140677D6360CA5CDE4F81
:103510006883C653D14086E00E944E0FBE016C5CAA
:103520007E4F86E00E94F00FBE016C5C7E4F80E013
:103530000E94F00FCC5CDE4F6881C453D1406C60B8
:10354000CC5CDE4F6883C453D14080E00E944E0FB4
:103550006CE485E00E944E0F8DE10E940110682FFF
:1035600064608DE10E944E0F8CE10E940110682F73
:103570006F638CE10E944E0F8DE10E940110682F55
:1035800066608DE10E944E0F8CE10E940110682F51
:1035900063608CE10E944E0F6FE381E00E944E0F4A
:1035A00060E787E00E944E0F0E942E0F0E94280FB6
:1035B00060E787E00E944E0FCC5CDE4F1882C45358
:1035C000D140BE016C5C7E4F80E00E94F00FCC5C6D
:1035D000DE4F1881C453D1401C7860E088E00E941F
:1035E000FB0A612F636080E00E944E0F61E088E07B
:1035F0000E94FB0A602F7F2D8AE00E940F10602F2F
:103600007F2D80E10E940F1060E088E00E94FB0A9D
:10361000BE016C5E7E4F8BE00E940F1063E082E083
:103620000E944E0F61E088E00E94FB0A80916900D1
:10363000826080936900E89A81E08093840680919B
:103640008906823209F484C508F430C582E4FE019B
:10365000EB55FF4FA8ECB5E001900D928A95E1F78C
:1036600082EC9EE090932A068093290681E09D815A
:10367000923009F480E08093830688E5FE01E35BE5
:10368000FF4FABE2B6E001900D928A95E1F7C55C81
:10369000DE4F0FB6F894DEBF0FBECDBFDF91CF91E6
:1036A0001F910F91FF90EF90DF90CF90BF90AF9060
:1036B0009F908F907F9008958E818093C7058F8112
:1036C0008093C60580918506882309F429C4CD5EC0
:1036D000DE4F8881C351D14081708093C5058091B0
:1036E0007A00846080937A0080917A00826080936F
:1036F0007A0080917A00816080937A0080917A00CC
:10370000806880937A008981823009F40BC4833009
:1037100009F40BC4813079F488858093780487E1BB
:1037200096E19093C4058093C3058EE299E090934F
:10373000C2058093C1058981833009F046C48B811D
:103740008130C9F41092870481E08093860410923E
:103750008504449A459A8091B9008E7F8093B90080
:103760008091B9008D7F8093B90088E08093B80084
:1037700085E48093BC002B81998181E0213019F090
:10378000913009F080E081708093A6058D818230B0
:1037900009F42CC481E0933009F080E081708093BB
:1037A000A50581E0933009F480E08093A405C4511D
:1037B000DF4F8881CC5ED0408093A3052093A20583
:1037C00084E2FE01E351FF4FAEE7B5E001900D92B8
:1037D0008A95E1F710927D0510927C050E945E0BA0
:1037E0001092BB041092BA041092890410928804BB
:1037F000ED2CF12E6701B12C75E0972E04E111E05C
:103800000C0F1D1F0D5F1F4FD801E92D1D92EA956A
:10381000E9F7CC5EDE4FB882C451D140D601909614
:103820008C90A0908506BFEF8B16A1F1E5E0BE124B
:1038300005C0AA2019F08B81833061F5D6019196DD
:103840007C9061E0882D0E94660BCA5EDE4F788214
:10385000C651D14082EF880DCB5EDE4F8883C551C3
:10386000D140A091BA04B091BB04CD0101969093D0
:10387000BB048093BA0463E0AA0FBB1F6A95E1F70B
:10388000A657BB4F88E0FE01EC5EFE4F01900D9203
:103890008A95E1F7B394B2E0CB0ED11CE6E0BE12FC
:1038A000B3CFC451DF4F8881CC5ED0408F3F19F039
:1038B00060E00E94660B10E000E05CE0852E8981EC
:1038C000823009F0A6C3D7015096BC90BFEFBB165B
:1038D00009F4ACC081E00C30110538F4980128508F
:1038E00031092230310508F080E0382F317080FF37
:1038F00004C021E08D81813009F020E0C55CDE4FFD
:103900000883CB53D1408B2D90E0FC01E451FE4F56
:103910004491FC01E852FE4F7490E42FF0E0EE0F6A
:10392000FF1FEC53FE4FC590D490E22FE170C95CAD
:10393000DE4FE883C753D140CF5EDE4F9880C15140
:10394000D14080918606882309F452C3332309F4B9
:103950004FC3FDE0FB1508F04BC38FA528E0829F05
:10396000C0011124CA5EDE4F188219821A82C65124
:10397000D140CC5EDE4FB882C451D14021E0C55E5B
:10398000DE4F2883CB51D140C75EDE4F99838883B9
:10399000C951D14061E08B2D0E94660BA091BA0401
:1039A000B091BB042A2F82EF8B0DCB5EDE4F888354
:1039B000C551D140CD0101969093BB048093BA04C8
:1039C00033E0AA0FBB1F3A95E1F7A657BB4F88E03B
:1039D000FE01EC5EFE4F01900D928A95E1F7409159
:1039E0007C0550917D05CA01019690937D058093D9
:1039F0007C05849EF001859EF00D1124E454FB4F5C
:103A00007082D282C182C95CDE4F8881C753D140A7
:103A10008383B482C55CDE4F9881CB53D1409583BC
:103A20001682178210861186928623870F5F1F4F9A
:103A30008FEFE81AF80A0031110509F040CFAA20EB
:103A400009F462C21B81113009F024C388A9809354
:103A5000BC05789480E8CC5EDE4F8883C451D140A9
:103A6000A0910701B0910801E0910901F0910A01CC
:103A70009E012C5E3E4F41E055966C9180810E94E4
:103A80007D13882309F46BC09FEFA9E6B8E191503C
:103A9000A040B040E1F700C00000CC5EDE4F1882CD
:103AA000C451D140A0910701B0910801E0910901F2
:103AB000F0910A019E012C5E3E4F41E055966C91BB
:103AC00080810E947D13882309F449C0109215015A
:103AD0008FEF80930D0180930B0180930C018093F5
:103AE0000E012FEF3FEF30931101209310018093CF
:103AF00012018093140110930F0110932201109270
:103B000023011092170110921601E8E1F1E08AE01A
:103B1000DF011D928A95E9F7109224011092250188
:103B200010922701109226010E944115811117C0A1
:103B30000E946F15811113C08AE290E00E94B814B0
:103B400081110DC082E390E0F2DA811108C05CDAE5
:103B5000811105C00E949C15811101C0B4D988E76C
:103B6000B2D90E9441150E946F1588E74DDA809105
:103B7000250181119BC0F12CE12C86EFC82E8BE032
:103B8000D82E86010E191F090131110510F000E130
:103B900010E0F701E050FE4FDE01AC5EBE4FCD01FC
:103BA000800F911F8A179B0709F070C2AE014C5E0F
:103BB0005E4FB801C7010E94F814811177C080914F
:103BC0000D01882309F472C09E2D8F2DCC5CDE4F31
:103BD00099838883C453D140E0910901F0910A018F
:103BE00020853185C8018E0D911D2817390708F4ED
:103BF0005DC0A0910701B09108019E012C5C3E4F71
:103C000042E05B966C9180810E947D13882309F4C9
:103C10004DC0A0910701B0910801E0910901F09118
:103C20000A019E012C5D3E4F402F58966C91808179
:103C30000E94FC108823D1F1A801BE016C5D7E4F6B
:103C4000CE018C5E9E4F0E94542E892B79F5E00E9A
:103C5000F11EB6EFEB16BBE0FB0608F492CF84E052
:103C6000CC5CDE4F8883C453D140CB5CDE4F1882DE
:103C7000C553D140A0910701B0910801E09109011D
:103C8000F0910A019E012C5C3E4F42E05D966C91E2
:103C900080810E947D13882349F081E08093250173
:103CA00088EC90E090932701809326018CE0E6ED6C
:103CB000F1E0DE01AC5EBE4F01900D928A95E1F716
:103CC000CC5DDE4F1882C452D14085E0CB5DDE4F23
:103CD0008883C552D140AE014C5D5E4F62E070E01A
:103CE00086E192E00E94F814811111C0AE014C5E91
:103CF0005E4F6CE070E081EC9AE00E94F814811154
:103D000006C08EE190E09093B0058093AF0580915E
:103D10002401813031F180912501882311F180E067
:103D20003FD90E949C158091260190912701FFD9CF
:103D3000CC5EDE4F1882C451D140E0910901F09170
:103D40000A019E012C5E3E4F41E063E280810E94A9
:103D50007D13882331F081E08093240121D90E94D2
:103D6000B71382E0CC5EDE4F8883C451D1408AEC29
:103D7000CB5EDE4F8883C551D14083EECA5EDE4FF5
:103D80008883C651D14019E0C95EDE4F1883C75100
:103D9000D140AE014C5E5E4F64E070E088E690E09A
:103DA0000E94F81483EACC5EDE4F8883C451D14070
:103DB000CB5EDE4F8883C551D140CA5EDE4F88831B
:103DC000C651D140C95EDE4F8883C751D140C85E1D
:103DD000DE4F8883C851D140C75EDE4F8883C9510A
:103DE000D140C65EDE4F8883CA51D140C55EDE4FEA
:103DF0008883CB51D140C45EDE4F8883CC51D14003
:103E0000C35EDE4F8883CD51D140AE014C5E5E4F24
:103E10006AE070E087EA9AE00E94F81488EDCC5ED0
:103E2000DE4F8883C451D140AE014C5E5E4F61E0ED
:103E300070E086EB9AE00E94F814E3EEF1E0DE0118
:103E4000AC5DBE4F01900D921A95E1F7AE014C5D4D
:103E50005E4F69E070E088EB94E00E94F81444E063
:103E600050E06BE870E0CE018C5D9E4F0E946A2EA0
:103E7000AE014C5D5E4F64E070E088E99AE00E941C
:103E8000F8140E94B71380E2CC5DDE4F8883C452E1
:103E9000D14088E2CB5DDE4F8883C552D14080E3BC
:103EA000CA5DDE4F8883C652D14088E3C95DDE4FCC
:103EB0008883C752D140AE014C5D5E4F64E070E034
:103EC0008EE99AE00E94F8140E94B71388E190E00E
:103ED0009093AE058093AD050E94B71380E1809367
:103EE000B1058BEA91E29093BB058093BA0586E019
:103EF000FE01E55FFE4FA3EBB5E001900D928A95C0
:103F0000E1F78CA58093B2058EA51092BF05809332
:103F1000C0058DA590E09093BE058093BD058FCB25
:103F200080E0DACB81E699E002CC01E021E041E0DB
:103F300060EA76E881E090E00E94A30BE6EFF1E012
:103F40008491E2EEF1E00491E82FF0E0EE0FFF1F24
:103F5000E253FE4FE590F490CF5EDE4F8881C15171
:103F6000D14000937904F0927B04E0927A0410929D
:103F70007C049AE090937D0410927E0410927F045A
:103F80001092800410928104109282048093830422
:103F90008FEF8093840460E08AE00E94660B0E94A9
:103FA0001B0BF7018081082B0083F0E5FA95F1F7F0
:103FB0008CEA99E09093C2058093C10582E293E177
:103FC0009093C4058093C305B6CB8D81823049F4AC
:103FD00000E021E041E060E072E18AE790E00E94C9
:103FE000A30B8981813009F0AACBACCB81E0D6CB81
:103FF00062E0621B8B2D0E94660BAA2041F002300A
:10400000110528F4CE5EDE4F9880C251D1402FEFCB
:10401000E6CC702FECEEF1E08491E8EDF1E06491F4
:10402000E82FF0E0EE0FFF1FEC53FE4F85919491C7
:10403000CF5EDE4FA881C151D140AA2041F00230AD
:10404000110528F4CE5EDE4FA881C251D1404091C7
:104050007C0550917D059A012F5F3F4F30937D0580
:1040600020937C05849EF001859EF00D1124E4547C
:10407000FB4F60839283818313821482758316823F
:10408000178210861186A2872FEFCFCC24912D9313
:10409000319688CD123009F02ACF8BA58093B905CF
:1040A00062E00E94660B89E39BE01DCF843108F437
:1040B00052C09CEE980F9630B0F48AE1FE01F39660
:1040C000AEE0B6E001900D928A95E1F78EA51092D0
:1040D0000C0680930D068DA510920A0680930B06A0
:1040E0008AE59AE0BFCA803258F046E050E060EDC1
:1040F00071E088E391E00E94442E86E080932806D8
:10410000809189068A3149F48DE080932B018CE0FF
:1041100080932C0183EF97E0A5CA982F9D7F4EE0F6
:1041200050E062E17EE09C3171F04EE050E064E0EE
:104130007EE08B3141F08D3111F0803259F74EE045
:1041400050E066EF7DE08AE291E00E94442EE2CFEB
:104150008EE897E087CA82E390E184CACF93DF9329
:1041600000D000D0CDB7DEB720E030E040E057E42B
:1041700069837A838B839C8369817A818B819C811B
:104180000E94132D69837A838B839C8369817A8152
:104190008B819C810E94B02CCB010F900F900F90CF
:1041A0000F90DF91CF9108958F929F92AF92BF921F
:1041B000CF92DF92EF92FF920F931F93CF93DF93F3
:1041C000CDB7DEB728970FB6F894DEBF0FBECDBFD0
:1041D0008C016F8378872F8138852817390771F410
:1041E00080E090E2121613060CF471C090E080E0BB
:1041F000232B09F46CC080E090EA69C0990F880B0A
:10420000982F80959095980128273927A901481B58
:10421000590B5E834D838F819885990F880B982F5A
:10422000809590952F81388528273927B901681BFB
:10423000790B7A83698364EE77EF81EB9DE38EDF00
:10424000D82EC92E69EF7DE78CEA9EE387DF7C01DB
:104250008F8198859C01990F440B550B4801012EC5
:10426000000CAA08BB08A981BA816D817E81A617BE
:10427000B7070CF03FC0D501C4016FE0880F991F4C
:10428000AA1FBB1F6A95D1F789839A83AB83BC832E
:10429000BC01CD010E94F62D4901C901990F880B7F
:1042A000982F80959095BC0162277925681B790B22
:1042B0008D2D9C2D0E94A80FB4018E0D9F1D0E9474
:1042C000A80FAF81B8851A161B060CF090582896D7
:1042D0000FB6F894DEBF0FBECDBFDF91CF911F9117
:1042E0000F91FF90EF90DF90CF90BF90AF909F9095
:1042F0008F900895CA01B9012FE0660F771F881FBC
:10430000991F2A95D1F769837A838B839C83A501B2
:1043100094010E94F62D4901C901990F880B982F2D
:1043200080959095BC0168257925681B790B8D2DAA
:104330009C2D0E94A80FB4018E0D9F1D0E94A80FF6
:104340009C0180E090E41016110614F080E090ECDF
:10435000821B930BBCCF8F929F92AF92BF92CF9252
:10436000DF92EF92FF920F931F93CF93DF93CDB71E
:10437000DEB7EA970FB6F894DEBF0FBECDBF89AFA8
:104380009AAF1092190210921802D090B105ED2C3C
:10439000F12C80912401882311F180910D01882353
:1043A000F1F0A0910701B0910801E0910901F091AD
:1043B0000A019E012F5D3F4F42E01C966C91808167
:1043C0000E94FC10882359F009A11AA11027012787
:1043D00010270E151F0508F08FC01092170280914C
:1043E0001802909119028115914009F0B6C2C0904F
:1043F0001A02D0901B02E0901C02F0901D0277E19F
:10440000F594E794D794C7947A95D1F7D0921B028C
:10441000C0921A0280901E0290901F02A09020026B
:10442000B0902102E7E1B594A79497948794EA9518
:10443000D1F790921D0280921C024091220250916D
:1044400023026091240270912502F7E1759567952A
:1044500057954795FA95D1F750931F0240931E0246
:104460000091260210912702209128023091290202
:10447000A7E13595279517950795AA95D1F710933C
:104480002102009320028091BC05009FF001019F52
:10449000F00DF00D1124813009F4A8C1823009F427
:1044A000B1C2811136C2449FC001459F900D900D4D
:1044B00011248E0F9F1F880F991FE0E0F0E8E81B82
:1044C000F90B489DD001499DB00D589DB00D1124A8
:1044D0000C9DC0010D9D900D1C9D900D11249D0102
:1044E000281B390BC901BF01880F991F5DDE90930E
:1044F0001602809315020DC2A0910901B0910A0124
:10450000E0910701F09108018C9111962D913C9159
:10451000369527952017310780F49E012F5D3F4F78
:1045200041E063890E94FC10882309F458CF89A1D7
:1045300084FF03C00E94B71352CFA0910701B0912E
:104540000801E0910901F0910A019E012F5F3F4FA0
:104550004D2D1D966C9180810E94FC10882309F4DA
:104560003ECFC801B7010E94AD2D61506093170284
:10457000E091AD05F091AE05CF0184719927892BAB
:1045800009F432C129813A814B815C81CA01B901A8
:104590000E94122E4B015C0180921A0290921B0223
:1045A000A0921C02B0921D028D819E81AF81B885C0
:1045B000BC01CD010E94122E6B017C01C0921E0233
:1045C000D0921F02E0922002F092210229853A85C2
:1045D0004B855C85CA01B9010E94122E8B019C019A
:1045E0000093220210932302209324023093250289
:1045F0008D859E85AF85B889BC01CD010E94122EA4
:10460000AB01BC014093260250932702609328021D
:1046100070932902C501BB2797FDB095AB2F8BA3E3
:104620009CA3ADA3BEA3C701BB2797FDB095AB2F3D
:104630008FA398A7A9A7BAA7C901BB2797FDB095D3
:10464000AB2F8BA79CA7ADA7BEA7CB01BB2797FD20
:10465000B095AB2F8FA798ABA9ABBAAB2BA13CA160
:104660004DA15EA1CA01B9010E949E2D6BA37CA33E
:104670008DA39EA32FA138A549A55AA5CA01B901AA
:104680000E949E2D6FA378A789A79AA7CBA0DCA034
:10469000EDA0FEA0C60ED71EE81EF91E2BA53CA558
:1046A0004DA55EA5CA01B9010E949E2DC60ED71E5A
:1046B000E81EF91E2FA538A949A95AA9CA01B901AE
:1046C0000E949E2D6BA37CA38DA39EA3C60ED71E16
:1046D000E81EF91E9FE0F91AA1E0CA16D104E10410
:1046E000A2E0FA0638F00E94B71310921902109255
:1046F000180275CE809118029091190291609093E2
:1047000019028093180280E1E6FF39C0282F30E0BB
:10471000A1E0B0E0AC0FBD1FA20FB31F9C91DE0162
:10472000A20FB31F12964C91592F50930100409342
:104730000000DE01A20FB31F13969C91DE01A20FB1
:10474000B31F14964C91592F5093030040930200CD
:10475000DE01A20FB31F15969C91159716962C910A
:10476000392F30930500209304008A5F20911802AE
:104770003091190228603093190220931802E078D2
:10478000F170EF2B09F42BCE90E0E1E0F0E0EC0FBC
:10479000FD1FE80FF91F3081FE01E80FF91F22818C
:1047A0003093010020930000FE01E80FF91F3381D0
:1047B000FE01E80FF91F24813093030020930200CB
:1047C000FE01E80FF91F25818681922F9093050045
:1047D0008093040080911802909119028067909351
:1047E000190280931802FBCD80E08ECF089DC00196
:1047F000099D900D189D900D11244C9D90014D9D8B
:10480000300D5C9D300D11247C01E21AF30AB701D2
:10481000C7010E94A80F8C01BC010E94A80F5C0177
:10482000BC010E94A80F6C0160E670EB89E39DE378
:1048300095DCB8010E94A80F8BA39CA36AE27EEED0
:1048400087E39CE38BDC8FA398A76EEF7AEB87ED71
:104850009CE384DCB8010E94A80F8BA79CA766EAA2
:1048600079EB88EA9CE37ADC8FA798AB62E377E880
:104870008AEF9CE373DCB8010E94A80F8BAB9CAB62
:1048800063E87EEC86E39DE369DC8DAB9EAB6AEC6E
:1048900079E989E99DE362DCB8010E94A80F8FAB3A
:1048A00098AF6AEA7AEA8AE29EE358DC4C01B501E5
:1048B0008BA19CA14FA158A5841B950B0E94A80F0A
:1048C0002BA53CA5AFA5B8A92A0F3B1FB601820FA7
:1048D000931F0E94A80F6C01B5018BA99CA9EDA99B
:1048E000FEA98E0F9F1F0E94A80F8C0D9D1D2FA942
:1048F00038AD820E931EB801880D991D0E94A80F35
:10490000B7010E94A80FE80EF91EF0921602E0927D
:10491000150280911502909116028A3939E19307A8
:104920000CF48FC089E999E19093160280931502E7
:10493000209115023091160245E0429FC001439F2D
:10494000900D11242091B205222319F091958195A3
:1049500091099093160280931502209115023091CF
:1049600016023093B3022093B202032E000C440BC4
:10497000550B8091B5059091B605092E000CAA0B38
:10498000BB0B281B390B4A0B5B0BA091B305B091F5
:10499000B4050E943E2E20E034E040E050E00E944A
:1049A000F62DDA01C9019058A109B109811550E825
:1049B00095075FEFA507B50724F480E090E8AFEF17
:1049C000BFEF8115E0E89E07A105B10524F08FEF48
:1049D0009FE7A0E0B0E0E9ADFAAD93878287EA9661
:1049E0000FB6F894DEBF0FBECDBFDF91CF911F9100
:1049F0000F91FF90EF90DF90CF90BF90AF909F907E
:104A00008F900895CC9CC001CD9C900D900D1124E9
:104A10008E0F9F1F880F991FE0E0F0E8E81BF90B4D
:104A20008C9CD0018D9CB00D9C9CB00D1124049FDA
:104A3000C001059F900D149F900D11248A0F9B1F9C
:104A400052CD8736964E0CF073CF87E696EE6CCF3C
:104A50008F929F92AF92BF92CF92DF92EF92FF928E
:104A60000F931F93CF93DF938C01EB0188818058C4
:104A7000990BF8011482858389818058990B1682DD
:104A8000878380917804882309F43EC02D81822F8A
:104A900090E0CB80F4E0CF9E60011124AC0134E0C3
:104AA000559547953A95E1F743705527C42AD52A7D
:104AB0003FEFC31A31E0D30AEC80E4E0EE9E7001D0
:104AC0001124959587959595879583709927E82A60
:104AD000F92AFFEFEF1AF1E0FF0A8A8134E0839FA1
:104AE000C00111242295269526952370822BB701AB
:104AF0008F5F914059DBF80191878087B701C6012C
:104B000053DBF801938782878D81982F9095917060
:104B1000B92EB29490EFB922A12C869591E0892705
:104B20008170982E9294990C990C20EC9222812CF1
:104B3000A828B928B092F201A092F101DF91CF919B
:104B40001F910F91FF90EF90DF90CF90BF90AF90AB
:104B50009F908F9008951F920F920FB60F9211247D
:104B60002F933F934F935F936F937F938F939F9375
:104B7000AF93BF93EF93FF936091C6008BE694E0F1
:104B80000E944207FF91EF91BF91AF919F918F914A
:104B90007F916F915F914F913F912F910F900FBE39
:104BA0000F901F9018951F920F920FB60F9211241D
:104BB0002F933F934F935F936F937F938F939F9325
:104BC000AF93BF93EF93FF932FB7F8948091940620
:104BD000909195062FBF892BB9F08AE896E00E9444
:104BE0005D078093C600FF91EF91BF91AF919F91B8
:104BF0008F917F916F915F914F913F912F910F9086
:104C00000FBE0F901F90189588E98093C100EBCFDD
:104C10001F921FB61F9211248F939F93AF93BF9340
:104C20008091640290916502A0916602B091670242
:104C30000196A11DB11D8093640290936502A0931B
:104C40006602B0936702BF91AF919F918F911F90C1
:104C50001FBE1F9018951F920F920FB60F9211242E
:104C60002F933F934F935F936F937F938F939F9374
:104C7000AF93BF93EF93FF938091B900887F883300
:104C800009F461C0B8F5803291F168F5883009F413
:104C900052C0A0F4882309F472C0FF91EF91BF9134
:104CA000AF919F918F917F916F915F914F913F91C4
:104CB0002F910F900FBE0F901F9018958031D9F152
:104CC000883159F790914C0280914B02981750F51A
:104CD000E0914C0281E08E0F80934C02F0E0E55DA4
:104CE000FD4F80812AC0883269F38033B1F680930A
:104CF0002A0207C0803579F138F48034C1F1883454
:104D000061F60E942310C9CF883539F6E0914C0234
:104D100081E08E0F80934C028091BB00F0E0E55D56
:104D2000FD4F8083809186048111EBCF81E08093D9
:104D3000850484EA0BC080914D028093BB0085EC12
:104D40008093BC00AACF80932A0285EC8093BC009C
:104D500010928704A2CFE0914C0281E08E0F8093E5
:104D60004C028091BB00F0E0E55DFD4F80839091A7
:104D70004C0280914B02981710F385E8E1CF109216
:104D80002A02BFCF8F9381E0809377048F9118958B
:104D9000CDB7DEB7AF970FB6F894DEBF0FBECDBF6D
:104DA0000E94F11881E090E09093C5008093C400C8
:104DB00086E08093C20082E08093C00088E98093FF
:104DC000C100539A5A9A40E450E06BE274E08BE6DB
:104DD00094E00E942E0740E850E06BEA73E08AE816
:104DE00096E00E942E07789418A6B12C712C8FB7EC
:104DF000F894A09075048FBFAA2009F46AC2FF241A
:104E0000F3945CE1E52E8BE694E00E945D07682F49
:104E1000B11011C08E3709F483C18D3709F483C1F5
:104E2000873711F4F0920601AA94A110ECCF47E065
:104E3000B412DDCF44C121E0B21609F477C132E0EB
:104E4000B31203C180918406882309F46BC06E33CA
:104E500008F068C0623309F465C0698381E08A8321
:104E60000E94280F0E942E0F0E94F9096B017C01FD
:104E700080E00E94450C8FEF0E94F40A182F81E019
:104E80000E94450C10FD0EC080E00E94450C89EA8E
:104E90000E94F40A62E0CE0101960E943C0F81E07C
:104EA0000E94450C81E08093770460E088E692E000
:104EB0000E945D0F882311F08C3001F560E387E0DC
:104EC0000E944E0F0E94F9096F8F78A389A39AA3BD
:104ED000DC01CB018C199D09AE09BF09853F9140CA
:104EE000A105B10528F288E08093680246E050E011
:104EF00062E870E089E692E0C7D687E08E8F88E7A7
:104F00008D8F61E0CE014D960E94760761E0CE0163
:104F10004E960E9476076E8D88E692E00E94760794
:104F2000B12C65CF88E0809368026E3358F1A62FCC
:104F3000AE53BB0B22E32A9FB0012B9F700D1124AF
:104F400003E111E0061B170B0233110514F002E315
:104F500010E0A80155276F5F7F4F89E692E0C1D628
:104F6000BB24B394B00EBD8E88E7898361E0CE0187
:104F700001960E94760761E0CE014D960E94760769
:104F80006D8DCACF623311F0673301F56EE770E0C3
:104F90008EE692E082D680E094E2A4EFB0E08093C7
:104FA000690290936A02A0936B02B0936C020E9414
:104FB000110C60937D0270937E0280937F02909328
:104FC000800210926D0249E1B42ECDCF6C3361F4B2
:104FD0008CE0E8EAF2E0A9E6B2E001900D928A9551
:104FE000E1F73DE0B32EBFCF6533B1F4B090870653
:104FF000B1E0BB1209C08091020180936902109256
:105000006A0223E0B22EAFCFE3E0BE12FACF809166
:10501000010180936902A7CF663339F480910501BD
:10502000809369020E94680C9ECF48E050E066E7DA
:1050300070E089E692E028D6809189068F3110F4DD
:1050400010926C0299E0B92E8ECFF3E0BF1211C01E
:105050008D3361F0893309F06DC023E533E03DA362
:105060002CA37A946BA384E0B82EDECE31E038A76F
:10507000F8CF44E0B4120FC08E9DC00111249FA34D
:105080008EA3ACA1BDA1A80FB91FBDA3ACA36FA7F0
:10509000B5E0BB2EC9CEB5E0BB12C6CE7A94E8A56A
:1050A000EE2329F10EA11FA10F5F1F4F8EA19FA11B
:1050B0008F5F9F4F35D61FA30EA37110B5CE809181
:1050C00084068E010F5F1F4FDD24D394811141C0F0
:1050D0009BA1903309F08DC0AFEFB1EEE4E0A15099
:1050E000B040E040E1F700C000000E94E40F2CA1B6
:1050F0003DA12115310529F0F9018193FDA3ECA310
:10510000DCCF3BA13B33C9F68091A3058F3FA9F2C9
:1051100091E0611101C090E0692F0E94FB0ACDCFA0
:10512000BB24B39481CE02E0B02E7ECE782E13E065
:10513000B12E7ACE8BA31DA21CA2AACFD092770447
:1051400060E08CA19DA10E945D0F60E387E00E945A
:105150004E0FB80187E10E94F00F8981780184FF2A
:10516000EDCF60E387E00E944E0F80E00E94450C87
:1051700089EA0E94F40A8BA10E94F40A80E00E944E
:10518000F40A8BA18B7F893391F48FA50E94F40AD6
:1051900088A58823E1F04CE150E06EA17FA16F5F0C
:1051A0007F4FC8019ED56CE1C8010E943C0F81E091
:1051B0000E94450C81E08093770411E0B70187E1FC
:1051C0000E94F00F898184FF08C018A681CF6CE18E
:1051D0008EA19FA18D5A9C4FE8CF1093770460E079
:1051E0008CA19DA10E945D0F60E387E00E944E0F9D
:1051F000E5CFFBA1F433A1F060F4F333E1F1F13337
:1052000009F08ECE87E797E7909301088093000816
:105210006CCF2BA12A3309F083CE0E94581380CE85
:105220008091840681117CCE8091DD02811178CE3F
:105230008FEF809305010E945E0B01ED12E0AEE05E
:10524000FA2E63E08F2D0E94660B8FE891E00197A4
:10525000F1F700C0000082EF8F0D0E944D0BD801C6
:105260008D939D938D01F394B4E1FB12EACF81E01D
:105270008093DD0255CE80918406811151CE8091BC
:10528000D00281114DCE8FEF809305010E945E0BFD
:1052900010E000E0802F0E94480C811111C062E0F4
:1052A000802F0E94660BEFE8F1E03197F1F700C024
:1052B0000000802F0E94210BF801E454FD4F8083F1
:1052C0000F5F1F4F0431110529F781E08093D00251
:1052D00027CE0E94F9096F8F78A389A39AA3209102
:1052E000840680914F0390915003A0915103B09197
:1052F00052034F8D58A169A17AA1481B590B6A0B23
:105300007B0B8091880690E0B0E0A0E084179507C1
:10531000A607B70708F44AC0222309F468CD6CE059
:1053200083E493E00E945D0F4CE050E063E473E09F
:1053300087E393E0B9D4892B09F459CD8091060114
:10534000882309F454CDE0912906F0912A0643E41C
:1053500053E0BE01635E7F4F8EED92E009950E949F
:10536000F90960934F037093500380935103909316
:1053700052031092060188E7898361E0CE0101960D
:105380000E94760761E0CE014D960E9476076D8DF2
:105390008EED92E00E9476078CE0E3E4F3E0A7E371
:1053A000B3E001900D928A95E1F721CD2111B7CF9D
:1053B000E091C305F091C405309719F083E493E0C0
:1053C00009958091DD02882309F4E7C001ED12E020
:1053D000F12C8F2D0E944D0BD8012D913D918D0107
:1053E000821B930B97FF03C09195819591090B97B1
:1053F0000CF4CEC08EE08F0D809305011092DD027B
:105400002A2D30E038A32F8F80917C0590917D0567
:10541000281739070CF4FCC18091C705882309F4CB
:1054200040C060914703709148038091BF059091FF
:10543000C00544275527481B590B641775074CF4C2
:10544000209143033091440324603093440320931C
:105450004303861797074CF420914303309144038C
:1054600028603093440320934303209149033091F3
:105470004A03241735074CF44091430350914403E9
:1054800042605093440340934303821793074CF4C4
:1054900080914303909144038160909344038093EF
:1054A00043038091C605882381F080914303909146
:1054B00044039C01207333272033310531F48F7C62
:1054C00094609093440380934303809185068823DE
:1054D00049F0E091BA05F091BB05309719F083E4EB
:1054E00093E009958091830681111ECF0E94F40AF2
:1054F00080E00E94F40A80E00E94F40A80E00E94AA
:10550000F40A8BE2E82E86E0F82E03E513E0D12CB6
:10551000C12CD7016C911196BC91B9A7F701F2810A
:10552000FDA7D7011396BC91BEA7F801A180828088
:10553000F381FF8FD8019C90962A09F40DC2F111D6
:1055400012C0A11010C081100EC0662361F061501E
:1055500083E493E00E94800EA82E882321F0BEA54C
:10556000BF8F8DA4A9A48FEF0E94F40A8F8D0E9493
:10557000F40A882D0E94F40A8A2D0E94F40AEFEFA3
:10558000CE1ADE0AF4E0EF0EF11C0C5F1F4FC1CF04
:10559000F394B6E0FB121DCF33CF8091D002882365
:1055A000E9F010E000E0802F0E94480C811110C04B
:1055B000802F0E94210BF801E454FD4F9081891740
:1055C00039F00E94680C009305011092D00218CFA8
:1055D0000F5F1F4F0431110531F712CF6091BA04EC
:1055E0007091BB046115710509F452C080910401EA
:1055F000811130C080917A0086FD4AC08091780088
:10560000909179002091880430918904A901F3E0F8
:10561000440F551FFA95E1F7FA01E657FB4FA781B2
:10562000A11104C0E281E1115AC09250E6E0880F56
:10563000991FEA95E1F746575B4FFA0194838383FC
:105640002F5F3F4F6217730709F450C030938904EE
:105650002093880410920401E0918804F091890459
:1056600043E0EE0FFF1F4A95E1F7E657FB4F88E056
:10567000DE01119601900D928A95E1F78A8187707B
:10568000806480937C0080917A00806480937A00AB
:1056900010E0E12F012E000CFF0B8091BA049091D5
:1056A000BB04E817F9070CF0ABCE33E0EE0FFF1F99
:1056B0003A95E1F7E657FB4F88E0DE01119601903D
:1056C0000D928A95E1F788858823A9F08C819D81C8
:1056D000E981F0E0E455FD4F80831F5FDACFE0E021
:1056E000F2E0DF01A81BB90BCD01A0CF1092890415
:1056F00010928804AFCF153041F48091850688233D
:1057000021F08091A205823041F30981E02EF12C35
:105710008C819D816701CC0CDD1CF601E855FD4FA5
:105720009183808326E02E9DF0012F9DF00D1124A2
:10573000E258FA4F848095802C813D81032E000C25
:10574000440B550B82819381092E000CAA0BBB0BD5
:10575000281B390B4A0B5B0BA081B1818FD26F8F55
:1057600078A389A39AA320E034E040E050E03ED241
:10577000BA01A901505861097109411530E8530770
:105780003FEF6307730724F440E050E86FEF7FEFCB
:10579000411580E858076105710524F04FEF5FE778
:1057A00060E070E0C401092C000CAA0BBB0B0230B6
:1057B00030F020918506222371F0043061F44817FF
:1057C00059076A077B070CF10230C8F4F701ED5B5B
:1057D000FC4F528382CF481759076A077B077CF436
:1057E0008827992788199909092E000CAA0BBB0B49
:1057F00084179507A607B70714F440E050E0F601B8
:10580000ED5BFC4F5183408368CF40E050E8DCCF34
:10581000ACE0AA9EC0011124FC01E454FB4F6F01CF
:105820008091C505882329F098EC892E94E0992E63
:10583000A11046010E94F90969A77AA78BA79CA726
:10584000F40186819781A085B18549A55AA56BA5EC
:105850007CA5481B590B6A0B7B0B828590E0B0E05E
:10586000A0E084179507A607B70708F06EC0E0917F
:10587000C105F091C205D601EC901196FC901197EC
:1058800012960C91129713961C91139714962C91C3
:10589000149715963C91159716964C911697179656
:1058A0005C91179718966C91189719967C91199797
:1058B0001A968C911A971B969C910995082F10E0C7
:1058C0002CE0EF8DF8A12E9FC0012F9F900D112489
:1058D000DC01A454BB4F7D0115968C91E1E0F0E012
:1058E00002C0EE0FFF1F8A95E2F7CF01209143031C
:1058F00030914403822393230817190731F10E9442
:10590000F909D40116966D937D938D939C93199705
:10591000F701458121E030E0042E02C0220F331F41
:105920000A94E2F7209530958091430390914403C7
:105930008223932302C0000F111F4A95E2F7802BA8
:10594000912B9093440380934303A39459CD8FEFFD
:105950000E94F40A20E1920E9C141D04C4F3E4CCCE
:1059600041D0A8F19E57A8F1985160F039F19830D4
:1059700070F5092E9927660F771F881F991F0A94C3
:10598000D1F71CC0BB27993F4CF4B111B1E0B62B45
:10599000672F782F8827985FB1F708C0869577958D
:1059A0006795B79508F4B1609395C1F7BB0F30F4D4
:1059B00011F460FF03C06F5F7F4F8F4F3EF49095EF
:1059C0008095709561957F4F8F4F9F4F0895689494
:1059D00024C022C057FD9058440F551F59F05F3F17
:1059E00071F04795880F97FB991F61F09F3F79F001
:1059F00087950895121613061406551FF2CF469583
:105A0000F1DF08C0161617061806991FF1CF869504
:105A10007105610508940895E894BB2766277727E8
:105A2000CB0197F908950BD078C069D028F06ED0DB
:105A300018F0952309F05AC05FC01124EECFCADFD9
:105A4000A0F3959FD1F3950F50E0551F629FF00191
:105A5000729FBB27F00DB11D639FAA27F00DB11DEA
:105A6000AA1F649F6627B00DA11D661F829F222773
:105A7000B00DA11D621F739FB00DA11D621F839FFA
:105A8000A00D611D221F749F3327A00D611D231FD0
:105A9000849F600D211D822F762F6A2F11249F571E
:105AA00050408AF0E1F088234AF0EE0FFF1FBB1F41
:105AB000661F771F881F91505040A9F79E3F5105E0
:105AC00070F014C0AACF5F3FECF3983EDCF38695EC
:105AD00077956795B795F795E7959F5FC1F7FE2B8B
