:100000000C94DF080C94FC080C94FC080C94FC087D
:100010000C94652F0C94FC080C94FC080C94FC08C0
:100020000C94FC080C94FC080C94EF2D0C94FC0828
:100030000C94FC080C94FC080C94FC080C94FC0830
:100040000C94FC080C94FC080C94FC080C94FC0820
:100050000C94FC080C94FC080C94FC080C94AB2E3B
:100060000C94FC080C94FC080C94FC080C94FC0800
:100070000C94FC080C94FC080C94FC080C94FC08F0
:100080000C94FC080C94FC080C94FC080C94FC08E0
:100090000C94CE2E0C94FC080C94FC080C94FC08D8
:1000A0000C94FC080C94FC080C94FC08120341000E
:1000B000720064007700690069006E006F0014032D
:1000C000730061006E006A00610079003900300041
:1000D00030000403090400000000240027002A0067
:1000E0002D003000FF080F0C212601070000000042
:1000F0006D6963726F004552524F52000008000054
:10010000000000000082F82300143FF7FFFF00000A
:100110000000C0FFC0FF0000000000004000000021
:100120000001040002000000000000000104585516
:1001300053423130000000000000000000000000C9
:1001400000000000020457494E55534200000000D1
:100150000000000000000000000000008E00000011
:1001600000010500010084000000010000002800DB
:1001700044006500760069006300650049006E0078
:10018000740065007200660061006300650047004E
:1001900055004900440000004E0000007B00440070
:1001A00046003500390030003300370044002D0090
:1001B00037004300390032002D0034003100350093
:1001C00035002D0041004300310032002D00370082
:1001D000440037003000300041003300310033006C
:1001E0004400370038007D00000005010906A10128
:1001F0008506050719E029E7150025017501950811
:1002000081029501750881010508190129059505E7
:1002100075019102950175039101150026FF0005F6
:1002200007190029FF950675088100C0050109021C
:10023000A10185050901A10005091901290415007D
:10024000250195047501810275049501810305015D
:100250000930093109381581257F95037508810614
:10026000050C0A38021681FF267F0095017508816A
:1002700006C0C005010905A101150025013500458D
:10028000017501950D05091901290D81029503815B
:100290000105012507463B017504950165140939DF
:1002A000814265009501810126FF0046FF0009306B
:1002B0000931093209357508950481020600FF09E4
:1002C00020092109220923092409250926092709CA
:1002D000280929092A092B950C81020A2126952033
:1002E000B1020A2126910226FF0346FF03092C09C9
:1002F0002D092E092F751095048102C012034D009F
:100300005300460054003100300030002000D2007D
:10031000BE00AC000902B6000501008032090400ED
:1003200000020300000009210101000122890007E9
:1003300005810320000107050603200001090401CF
:100340000002FF5D01001121000100258220000054
:1003500000001307200000070582032000010705A5
:1003600007032000010904020000FFFFFF00090449
:10037000030000010100000924010001090001043B
:1003800009040400020103000007240100014100E8
:1003900006240201010006240202020009240301CE
:1003A00003010201000924030204010101000905FF
:1003B0000802200001000005250101010905830252
:1003C0002000010000052501010392000001200129
:1003D00000021002822804004B070D0FBA12BA1255
:1003E000BA12BA120912AD1BAD1B120100020000B5
:1003F00000400912822837080102DC01020F0000C8
:100400000001010115D4A2000F000000FFFFFFFF53
:10041000FFFFFFFFFFFFFFFFFFFFFFFFFF00FF00EA
:10042000FF00FF00FF00FF0040404000B80B041633
:100430000D0E0F33280B504F525151FFFFFFFFFF9E
:10044000FF00FF00FF00FF000D0080000EFF000016
:1004500010FFFF000F0000FF09FF45000000000033
:10046000000000000000000000000000000000008C
:10047000000000000000000000000000000000007C
:10048000000000000000000000000000000000006C
:10049000000000000000000000000000000000005C
:1004A000000000000000000000000000000000004C
:1004B000000000000000000000000000000000003C
:1004C000000000000000000000000000000000002C
:1004D000000000000000000000000000000000001C
:1004E00000000000000000FF01000080008001000B
:1004F00000800080010000800000010000800000FA
:1005000001000080000001000080000005140000D0
:1005100000000000000000000200000101020200D3
:1005200000000000020202010100020102010002BB
:100530000100000202020101070605040100080A89
:100540000B0C0D09000000002300260029002C00E0
:100550002F0000000000250028002B002E00310095
:1005600004080201104080401020408040800802B2
:10057000040180402010020110801020404020041F
:10058000040404040304050202020204030202023A
:10059000020606060606060404020202040400001F
:1005A000700000000024000000020003000000654D
:1005B0000054FFEF0000FA80000B12820001030CD0
:1005C00030C30E8C8CE914D5400213710F8E388322
:1005D000F8833000F883258EF8833000F883FFFF1E
:1005E000FFFF0FFEA9D6240004001A8279A10000A3
:1005F000003CFFFF00000010000038836FA2003EA7
:1006000003304000000002CAE3093E8000002000E1
:100610000000000000004000000060000000000C2E
:100620000000000C186E000006920A16C0DFFFFFE3
:100630000256FD8CD377FFE1C496E0C5BEAA000048
:100640000000FFFF0B2B000016570000035940006D
:10065000000000001DFA00026C1D000000003FFFBA
:10066000DFEB003EB3B6000D227800002F3C000007
:100670000000001942B5000039A20000B365D90E90
:100680009FC91DCF4C3430000000500000003BB625
:100690007AE80064000000C80000000000001000BC
:1006A00000001000FA921000225E000D229F00014F
:1006B000000000320000FF46000063D4000010007C
:1006C000000004D6000004CC000004CC00000000B0
:1006D0001072000000400000000000000000000652
:1006E0000002000500070000000000640000000098
:1006F000000000000005000500640020000000006C
:1007000000000000000000004000000003000000A6
:100710000032F8980000FF650000830F0000FF9B87
:10072000FC000000000000000000000000000000CD
:1007300000000000000000000000000000000000B9
:100740000000000000000000000000001000400059
:100750000000000000060000B26A00020000000174
:10076000FB830068000000D9FC007CF1FF830000DF
:10077000000000650000006403E800640028000039
:1007800000250000000016A000000000100000007E
:100790001000002F0000000001F4000010000028ED
:1007A0000000FFFF4581FFFFFA720000000000001B
:1007B0000000004400050005BAC6004778A200000A
:1007C000000100000000000006000000001400000E
:1007D000254D002F706D000005AE000C02D000000A
:1007E0000000000000000000000000000000001BEE
:1007F0000000000000000000000000000000006495
:1008000000000008000000000000000000000000E0
:1008100000000000000000000000000000000000D8
:1008200000000000000000000000000000000000C8
:1008300000000000000000000000000000000000B8
:1008400000000000000000000000000000000000A8
:100850000000000000000000000000000000001B7D
:1008600000000000000000000000000E000E00006C
:100870000AC70004000000000032FFFFFF9C0000D8
:100880000B2B000000020000000100000064FFE5E7
:100890000000000000000000000000000000000058
:1008A0000001000000000001000000000000000145
:1008B00080000001800000018000002426D3000099
:1008C000000000000000000600100096003C000040
:1008D00000000000000000000000000000000C0A02
:1008E0004E68CDCF770950166759C619CE820000E1
:1008F00000000000000000000000000000000000F8
:1009000000000000000017D7840003000000000072
:10091000000000000000C7938F9D1E1B1C190000E3
:1009200000000000000000000000000000000000C7
:1009300000000000000002031885000040000000D5
:100940000003000000030000000000000000400061
:100950000000000000000000000000000000000097
:100960000000000000000000000000000000000087
:100970000000000000000000000000000000000077
:100980000000677DDF7E72902E554CF6E6880000F1
:100990000000000000000000000000000000D8DCA3
:1009A000B4B8B0D8B9ABF3F8FAB3B7BB8E9EAEF11A
:1009B00032F51BF1B4B8B08097F1A9DFDFDFAADF11
:1009C000DFDFF2AAC5CDC7A90CC92C97F1A98926EA
:1009D0004666B28999A92D557DB0B08AA89636563B
:1009E00076F1BAA3B4B280C0B8A89711B28398BA0E
:1009F000A3F0240844106418B2B9B49883F1A32971
:100A0000557DBAB5B1A38393F0002850F5B2B6AACC
:100A1000839328547CF1B9A3829361BAA2DADEDF12
:100A2000DB819AB9AEF5606870F1DABAA2DFD9BAA3
:100A3000A2FAB9A38292DB31BAA2D9BAA2F8DF85B1
:100A4000A4D0C1BBAD83C2C5C7B8A2DFDFDFBAA0E7
:100A5000DFDFDFD8D8F1B8AAB38DB4980D355DB219
:100A6000B6BAAF8C96198F9FA70E161EB49AB8AA65
:100A7000872C547CBAA4B08AB691325676B284944C
:100A8000A4C808CDD8B8B4B0F19982A82D557D98E6
:100A9000A80E161EA22C547C92A4F02C5078F1843F
:100AA000A898C4CDFCD80DDBA8FC2DF3D9BAA6F8C4
:100AB000DABAA6DED8BAB2B68696A6D0F3C841DABC
:100AC000A6C8F8D8B0B4B882A892F52C548898F18A
:100AD00035D9F418D8F1A2D0F8F9A884D9C7DFF82D
:100AE000F883C5DADF69DF83C1D8F40114F1A88285
:100AF0004EA884F311D182F5D992289788F109F490
:100B00001C1CD884A8F3C0F9D1D99782F129F40D1F
:100B1000D8F3F9F9D1D982F4C203D8DEDF1AD8F1BB
:100B2000A2FAF9A88498D9C7DFF8F8F883C7DADF02
:100B300069DFF883C3D8F40114F198A8822EA88441
:100B4000F311D182F5D992509788F109F41CD88419
:100B5000A8F3C0F8F9D1D99782F149F40DD8F3F987
:100B6000F9D1D982F4C403D8DEDFD8F1AD8898CCAE
:100B7000A809F9D98292A8F57CF1883ACF944A6EF7
:100B800098DB6931DAADF2DEF9D88795A8F221D188
:100B9000DAA5F9F417D9F1AE8ED0C0C3AE82C684FF
:100BA000C3A88595C8A588F2C0F1F4010EF18E9E08
:100BB000A8C63E56F554F18872F40115F1984585A2
:100BC0006EF58E9E0488F142985A8E9E068869F4CE
:100BD000011CF1981E1108D0F504F11E970202982D
:100BE0003625DBF9D985A5F3C1DA85A5F3DFD885EC
:100BF00095A8F309DAA5FAD88292A8F578F1881AAF
:100C0000849F26889821DAF41DF3D8879F39D1AFC5
:100C1000D9DFDFFBF9F40CF3D8FAD0F8DAF9F9D020
:100C2000DFD9F9D8F40BD8F3879F39D1AFD9DFDFFB
:100C3000F41DF3D8FAFCA869F9F9AFD0DADEFAD9D5
:100C4000F88F9FA8F1CCF398DB45D9AFDFD0F8D867
:100C5000F18F9FA8CAF38809DAAF8FCBF8D8F2AD2D
:100C6000978D0CD9A5DFF9BAA6F3FAF412F2D8954C
:100C70000DD1D9BAA6F3FADAA5F2C1BAA6F3DFD834
:100C8000F1BAB2B68696A6D0CAF349DAA6CBF8D89E
:100C9000B0B4B8D8AD84F2C0DFF18FCBC3A8B2B680
:100CA0008696C8C1CBC3F3B0B48898A821DB718DF8
:100CB0009D71859521D9ADF2FAD88597A828D9F4E8
:100CC00008D8F28D29DAF405D9F285A4C2F2D8A8A1
:100CD0008D9401D1D9F411F2D88721D8F40AD8F231
:100CE0008498A8C801D1D9F411D8F3A4C8BBAFD057
:100CF000F2DEF8F8F8F8F8F8F8F8D8F1B8F6B5B97F
:100D0000B08A95A3DE3CA3D9F8D85CA3D9F8D87CE7
:100D1000A3D9F8D8F8F9D1A5D9DFDAFAD8B1853056
:100D2000F7D9DED8F830ADDADED8F2B48C99A32D3D
:100D3000557DA083DFDFDFB591A0F629D9FBD8A0D0
:100D4000FC29D9FAD8A0D051D9F8D8FC51D9F9D872
:100D500079D9FBD8A0D0FC79D9FAD8A1F9F9F9F959
:100D6000F9A0DADFDFDFD8A1F8F8F8F8F8ACDEF8A0
:100D7000ADDE8393AC2C547CF1A8DFDFDFF69D2C35
:100D8000DAA0DFD9FADB2DF8D8A850DAA0D0DED966
:100D9000D0F8F8F8DB55F8D8A878DAA0D0DFD9D0A9
:100DA000FAF8F8F8F8DB7DF8D89CA88CF530DB3839
:100DB000D9D0DEDFA0D0DEDFD8A848DB58D9DFD01D
:100DC000DEA0DFD0DED8A868DB70D9DFDFA0DFDFF0
:100DD000D8F1A888902C547C98A8D05C38D1DAF24D
:100DE000AE8CDFF9D8B087A8C1C1B188A8C6F9F91F
:100DF000DA36D8A8F9DA36D8A8F9DA36D8A8F9DA7E
:100E000036D8A8F9DA36D8F78D9DADF818DAF2AEF3
:100E1000DFD8F7ADFA30D9A4DEF9D8F2AEDEFAF9B0
:100E200083A7D9C3C5C7F1889BA77AADF7DEDFA436
:100E3000F8849408A797F300AEF29819A488C6A383
:100E40009488F632DFF28393DB09D9F2AADFD8D88F
:100E5000AEF8F9D1DAF3A4DEA7F1889B7AD8F3844F
:100E600094AE19F9DAAAF1DFD8A881C0C3C5C7A327
:100E70009283F628ADDED9F8D8A350ADD9F8D8A31F
:100E800078ADD9F8D8F8F9D1A1DADEC3C5C7D8A1B1
:100E90008194F818F2B089ACC3C5C7F1D8B8B4B022
:100EA0009786A8319B069907AB9728889BF00C2062
:100EB0001440B0B4B8F0A88A9A285078B79BA829F3
:100EC0005179247059446938644831F1BBAB8800CA
:100ED0002C547CF0B38BB8A804285078F1B088B4B7
:100EE0009726A85998BBABB38B02264666B0B8F0DC
:100EF0008A9CA82951798B2951798A2470598B2091
:100F000058718A4469388B3940688A6448318B301B
:100F1000496088F1AC002C547CF08CA804285078EF
:100F2000F1889726A85998AC8C02264666F0899CD1
:100F3000A8295179247059446938644831A988092D
:100F4000205970AB11384069A8193148608CA83C11
:100F5000415C207C00F187981986A86E767EA9995D
:100F6000882D557DD8B1B5B9A3DFDFDFAED0DFAABC
:100F7000D0DEF2ABF8F9D9B087C4AAF1DFDFBBAF9E
:100F8000DFDFB9D8B1F1A3978E60DFB084F2C8F883
:100F9000F9D9DED89385F14AB183A308B5839A08BD
:100FA00010B79F10D8F1B0BAAEB08AC2B2B68E9E5A
:100FB000F1FBD9F41DD8F9D90CF1D8F8F8AD61D905
:100FC000AEFBD8F40CF1D8F8F8AD19D9AEFBDFD8E8
:100FD000F416F1D8F8AD8D61D9F4F4ACF59C9C8D84
:100FE000DF2BBAB6AEFAF8F40BD8F1AED0F8AD51AB
:100FF000DAAEFAF8F1D8B9B1B6A3839C08B9B183D7
:101000009AB5AAC0FD3083B79F10B58B93F2020248
:10101000D1ABDADED8F1B080BAABC0C3B284C1C301
:10102000D8B1B9F38BA391B609B4D9ABDEB0879C24
:10103000B9A3DDF1B38B8B8B8B8BB087A3A3A3A359
:10104000B28BB69BF2A3A3A3A3A3A3A3A3A3A3F1D1
:10105000B087B59AA3F39BA3A3DCBAACDFB9A3A373
:10106000A3A3A3A3A3A3A3A3A3A3A3A3A3A3D8D8E6
:10107000D8BBB3B7F1AAF9DAFFD9809AAA28B4800D
:1010800098A720B79787A86688F07951F1902C87A8
:101090000CA781976293F071716085940129517951
:1010A00090A5F1284C6C870C95188578A38390281F
:1010B0004C6C886CD8F3A28200F210A8921980A21E
:1010C000F2D926D8F188A84DD948D896A83980D920
:1010D0003CD89580A839A68698D92CDA87A72CD831
:1010E000A8899519A980D938D8A88939A980DA3C66
:1010F000D8A82EA83990D90CD8A8953198D90CD851
:10110000A809D9FFD801DAFFD89539A9DA26FFD87E
:1011100090A80D8999A810809821DA2ED88999A8CD
:101120003180DA2ED8A886963180DA2ED8A8873179
:1011300080DA2ED8A88292F34180F1D92ED8A882E5
:10114000F31980F1D92ED882ACF3C0A28022F1A687
:101150002EA72EA92298A829DAACDEFFD8A2F22A5F
:10116000F1A92E8292A8F23180A696F1D900AC8C1A
:101170009C0C30ACDED0DEFFD88C9CACD010ACDE4A
:101180008092A2F24C82A8F1CAF235F19688A6D9D3
:1011900000D8F1FF0E0C0D0F08FFFF09050406072C
:1011A0000A0B0F0C0D0E08FFFF09050406070A0BBA
:1011B0000F0C0D0E0908FFFF050406070A0B11248A
:1011C0001FBECFEFDAE0DEBFCDBF11E0A0E0B1E09F
:1011D000E6EEF9E602C005900D92AE3EB107D9F7F2
:1011E00026E0AEEEB1E001C01D92AF31B207E1F7EB
:1011F0000E946B2F0C94F1340C940000CF93DF937A
:10120000EC01CB013091E800377F3093E80060912A
:101210001D0670911E066817790760F1009729F482
:101220003091E8003E773093E80030E0E0E06BB5C5
:10123000662309F450C0653009F44DC06091E800A0
:1012400063FD49C06091E80062FD40C0009711F461
:10125000EE2369F36091E80060FFE9CF7091F3003D
:101260006091F200009739F16034710520F5FA01C0
:10127000A1E00DC0CB01D9CFB081B31307C0A181CC
:10128000A093F100A281A093F100A2E03396BE2FBB
:10129000B41BB21788F3A13031F4FE01E30FF11D46
:1012A000E491E093F100EA2FF0E08E1B9F0B6E0FAC
:1012B0007F1F3A0FD7CFE1E06034710509F0E0E01D
:1012C0006091E8006E776093E800B1CF8091E8000C
:1012D0008B778093E800DF91CF910895CF93DF93D0
:1012E000FC01DA0186E0EB01888385E080831596B6
:1012F0002C911597822F922F990F990B97FD079696
:1013000053E0959587955A95E1F7828317962C912E
:101310001797822F922F990F990B9195819591098B
:1013200097FD079643E0959587954A95E1F7838366
:101330001B962C911B97822F922F990F990B97FD3B
:10134000079633E0959587953A95E1F7848319964A
:101350002C911997822F922F990F990B97FD079631
:1013600023E0959587952A95E1F7858311969C91C1
:1013700011979295917081818E7F982B9183119610
:101380008C911197829582709D7F892B8183119614
:101390009C919695969596959870877F892B8183D9
:1013A000DF91CF9108959F92AF92BF92CF92DF923B
:1013B000EF92FF920F931F93CF93DF9300D000D053
:1013C000CDB7DEB7FC014B835C838CE1DB018C93F2
:1013D00084E080839090B405B090440189E2C82EE7
:1013E00081E0D82EFA83E98390E080E061E070E04C
:1013F000A82ED6012D916D012F3F09F44DC0AB01F0
:1014000002C0440F551F2A95E2F7AB81BC812D9194
:101410003C912423352341E02115310509F440E0B6
:101420008B010A2C02C0000F111F0A94E2F70095ED
:101430001095E180F280E022F12250E08A0102C0A2
:10144000000F111FAA94E2F70E291F2912830183AE
:10145000891510F5BBE1BB1215C0843098F49C01CE
:101460002C513F4FD9012C918B0102C0000F111F4D
:101470002A95E2F7AB81BC812D913C912023312349
:10148000242B352B41E0232B09F440E0242F219518
:10149000A981BA8118962C93019629813A812F5FF0
:1014A0003F4F3A8329838E30910509F0A1CFAB815C
:1014B000BC812C912F7088E02B3028F430E02A5327
:1014C0003E4FD9018C918383AB81BC811A962D91BB
:1014D0003C91BBE1BB1216C0AB81BC8119968C91CB
:1014E00085958054868387E29FE12F3F3F4711F423
:1014F00080E690EF958B848B8DE7878380E88483EB
:10150000858363C04DE1B41619F080E2B8121AC0A9
:10151000AB81BC8119968C918058868381819281A0
:101520008F7D2F3F3F4709F460C030E020E0822BE1
:10153000932B92838183AB81BC8112969C9180E82E
:10154000891B8783BFE1BB1619F02AE1B212D6CFFF
:10155000818192818F7EAB81BC8112962C91233345
:1015600008F046C030E020E0822B932B92838183E9
:101570008F7DAB81BC8113962C912333E0F530E055
:1015800020E0822B932B92838183AB81BC811296C6
:101590008C911297848713968C9113978587159653
:1015A0008C9115978058848317969C911797905823
:1015B000958319968C911997805886831B968C91E8
:1015C00080588783BAE1BB16C9F00F900F900F9037
:1015D0000F90DF91CF911F910F91FF90EF90DF90CF
:1015E000CF90BF90AF909F90089520E230E09FCFC2
:1015F00020E130E0B9CF20E230E0C3CF9095958371
:1016000080958783E2CFEF92FF920F931F93CF9342
:10161000DF93CDB7DEB72C970FB6F894DEBF0FBEC1
:10162000CDBFE32FF0E0E359FE4F80818F3F81F083
:1016300021E030E002C0220F331F8A95E2F780914B
:10164000F1019091F2012823392381E0232B09F441
:1016500080E02C960FB6F894DEBF0FBECDBFDF91B1
:10166000CF911F910F91FF90EF900895EF92FF920D
:101670000F931F93CF93DF93CDB7DEB764970FB669
:10168000F894DEBF0FBECDBFE986FA860B871C87B4
:101690002D873E874F87588B698B7A8B8B8B9C8BE2
:1016A0009F3F69F4EA85FB8580818E2191E009F4F2
:1016B00090E081E02C859217B9F080E015C088E0B9
:1016C000989FF0011124E951FC4F88E0DE0111964A
:1016D00001900D928A95E1F74C815D8181E02E8128
:1016E0003F812417350748F764960FB6F894DEBF9C
:1016F0000FBECDBFDF91CF911F910F91FF90EF9063
:101700000895EF92FF920F931F93CF93DF93CDB77E
:10171000DEB72C970FB6F894DEBF0FBECDBFE982BF
:10172000FA820B831C832D833E834F8358876987FE
:101730007A878B879C8780910101843049F18930B9
:1017400051F58DE791E02E81820F911DFC01808182
:101750008F3F81F021E030E002C0220F331F8A95D5
:10176000E2F78091F3019091F4012823392381E07D
:10177000232B09F480E02C960FB6F894DEBF0FBE41
:10178000CDBFDF91CF911F910F91FF90EF90089502
:101790008DE991E0D8CF8DE891E0D5CFFC01CB0168
:1017A00020911D0630911E062617370790F00097EE
:1017B00029F42091E8002E772093E80040E000977C
:1017C00051F4411108C08091E80082FF30C080E0F0
:1017D0000895C901F3CF2BB52223A1F12530A1F142
:1017E0002091E80023FD2CC02091E80022FDEBCFE2
:1017F0002091E80020FFE3CF3091F3002091F20028
:10180000009719F02034310558F041E020343105BB
:1018100009F040E02091E8002E772093E800CFCF38
:1018200041914093F10001972F5F3F4FE9CF8BB576
:10183000882341F0853041F08091E80083FFC3CFD9
:1018400081E0089582E0089583E00895FC01CB01D2
:1018500020911D0630911E062617370790F000973D
:1018600029F42091E8002E772093E80040E00097CB
:1018700051F4411108C08091E80082FF31C080E03E
:101880000895C901F3CF2BB52223A9F12530A9F181
:101890002091E80023FD2DC02091E80022FDEBCF30
:1018A0002091E80020FFE3CF3091F3002091F20077
:1018B000009719F02034310558F041E0203431050B
:1018C00009F040E02091E8002E772093E800CFCF88
:1018D00044914093F100319601972F5F3F4FE8CF3D
:1018E0008BB5882341F0853041F08091E80083FF7B
:1018F000C2CF81E0089582E0089583E00895809149
:10190000170687FF11C08091E80082FF06C0809112
:10191000E8008B778093E80003C08BB58111F3CF8B
:1019200008958BB58823E1F38091E80080FFF9CF1B
:101930008091E8008E77EECF2091E4003091E500B1
:1019400095E6A9012091EC00822F817020FF06C04E
:101950008091E80080FF06C080E008952091E800B3
:1019600022FD19C08BB5882389F0853089F08091DC
:10197000EB0085FD0FC02091E4003091E500421797
:10198000530701F39150E9F684E0089582E0089549
:1019900083E0089581E00895CF93DF9300D000D0D5
:1019A000CDB7DEB72FB7F8948091640290916502AD
:1019B000A0916602B09167022FBF9C01AD0187E044
:1019C000220F331F441F551F8A95D1F7CA01B90151
:1019D0002DE730E040E050E00E942334CA01B90115
:1019E0000F900F900F900F90DF91CF910895CF92AD
:1019F000DF92EF92FF920F931F93CF93DF93EC014F
:101A00006B01BA01A901F801C70120812630E0F479
:101A1000209771F000271127041B150B6017710721
:101A20003CF431962E0D3F2D311DD9011396CC93E8
:101A3000C114D10449F04617570734F42081820FAE
:101A4000911DDC011396CC92DF91CF911F910F91E4
:101A5000FF90EF90DF90CF9008958F929F92AF927A
:101A6000BF92CF92DF92EF92FF920F931F93CF938B
:101A7000DF930F92CDB7DEB76C014A0189E0DB013D
:101A80008C9386E0F6018083EAE9F5E050E040E0DF
:101A900080E061E070E091919923A1F0D401AD90D4
:101AA000BC909B01042E02C0220F331F0A94E2F760
:101AB0002A213B21232B31F0D601A80FB11D13960B
:101AC0009C938F5F4F5F5F4F4031510509F05EC0BF
:101AD0008983A0909805B0909905F40144815581BF
:101AE0006091AD0570E08091AC0576018E010F5FCD
:101AF0001F4F950190E07BDFD40116964D915C91CC
:101B00006091AF0570E08091AE05950190E06FDFC8
:101B1000F401408551856091B10570E08091B00578
:101B2000950190E064DFD4011A964D915C9160912B
:101B3000B30570E08091B205950190E058DFA09068
:101B40009605B0909705F401428150E06091AA0596
:101B500070E0950190E080E04ADFD40113964C914B
:101B600050E06091AB0570E0950190E080E03FDFD0
:101B70000F90DF91CF911F910F91FF90EF90DF9029
:101B8000CF90BF90AF909F908F900895863009F0CE
:101B900082CF9ECF8EBD00000DB407FEFDCF8EB567
:101BA000089590E0FC01E05AFA4F2491FC01E158BD
:101BB000FA4FE491EE2389F0F0E0EE0FFF1FEE5AAA
:101BC000FA4FA591B4918FB7F894611107C09C9119
:101BD000E22FE095E923EC938FBF0895EC91E22B7F
:101BE000FACF90E0FC01E05AFA4F2491FC01E15851
:101BF000FA4FE491EE2359F0F0E0EE0FFF1FEC5B9B
:101C0000FA4FA591B491EC91E22381E009F480E0D0
:101C10000895CF93DF93EC0180914505E2DF91E0D9
:101C200089274FEF5FE7849F9001859F300D112436
:101C30003B872A87DF91CF910895E82FF0E0E85C99
:101C4000FA4FE49190917B008E2F880F880F80725D
:101C50009F7D892B80937B00E770E064E0937C009C
:101C600080917A00806480937A0080917A0086FD6A
:101C7000FCCF8091780090917900089580917A004E
:101C800086FDFCCF81E0809304010895CF93DF931C
:101C900090E0FC01E05AFA4F249181589A4FFC01E0
:101CA00084918823D1F090E0880F991FFC01EA52BB
:101CB000FF4FA591B491FC01EE5AFA4FC591D49112
:101CC000613071F49FB7F8948C91209582238C93A6
:101CD0008881282328839FBF7894DF91CF9108952E
:101CE000623051F49FB7F8943C91822F8095832302
:101CF0008C93E8812E2BEECF8FB7F894EC912E2B9E
:101D00002C938FBFE9CFCF92DF92EF92FF920F9388
:101D10001F93CF93DF936B017C01142FD22F60E0D0
:101D200080E1B4DF62E08EE0B1DF60E08FE0AEDF43
:101D300061E081E136DF60E081E1A8DF1111C8E0F8
:101D4000D111C4600111C062C11482E1D8068AE7D2
:101D5000E806F104D0F5C11489E0D8068DE3E80661
:101D6000F104A8F580E8C81684E8D8068EE1E806F4
:101D7000F10478F580E4C81682E4D8068FE0E8061E
:101D8000F10448F580E2C81681EAD80687E0E80643
:101D9000F10418F580E9C81680EDD80683E0E8065E
:101DA000F104E8F487E091E08927982F96959C2B21
:101DB00090659CBD81708DBDDF91CF911F910F917A
:101DC000FF90EF90DF90CF90089580E0ECCF81E01E
:101DD000EACF82E0E8CF83E0E6CF84E0E4CF85E09D
:101DE000E2CFCF92DF92EF92FF92F0E0E0E067E681
:101DF00075E483E291E041E2409357002491622729
:101E000028E030E06B017C0151E0C522DD24EE24A6
:101E1000FF249695879577956795CD28CE28CF286E
:101E200041F050E2652753E8752758EB85275DEEB2
:101E300095272150310931F73196E032F105E1F66D
:101E4000FF90EF90DF90CF900895682F8AE0A9CEA1
:101E5000982F8D30A1F0823090F080913205882348
:101E600021F02EEF290F223058F080913105882380
:101E700039F09E5081E0943018F080E0089581E0C0
:101E800008950F931F93CF938091D402882391F0EC
:101E90000CEB12E0C0E08C2FDBDF811103C061E0AE
:101EA0008C2FF4DE8C2F9DDEF80181938F01CF5FA4
:101EB000C83189F71092ED021092D402CF911F9190
:101EC0000F910895CF93DF93EC01FB018081805245
:101ED000990B880F880F1C828D8381818052990B0A
:101EE000880F880F1E828F838581248135812095FC
:101EF000309590914401933260F0938191FF09C035
:101F00009095907E628166956E736A3120F562319C
:101F100039F1982F96959695969561E09627917050
:101F2000B92FB295BB0FB07EA0E0367D2A2B3B2B9C
:101F300082958695877086278170582F550F550F8B
:101F4000550F40E0242B352B3093F2012093F10103
:101F5000DF91CF9108956E31E1F69093B402D9CF1D
:101F60009093B802D6CFFC01DB018C91880F880FCB
:101F700080581482858311968C911197880F880F51
:101F800080581682878313968C9113978F718E5089
:101F9000990B97FD20C09187808720853185C901E5
:101FA000880F991F820F931F80329105BCF491878F
:101FB0008087808591854097880F880F880F1086CD
:101FC000818714968D919C91809590959093F201C4
:101FD0008093F101089511861086DFCF8FE190E0A4
:101FE000E6CFFC01DB018C918058990B148285832C
:101FF00012968C9112978058990B168287831196AE
:102000008C9111978058990B1086818713968C912B
:1020100013978058990B1286838714968C91149786
:10202000828315968C911597838316968D919C913A
:10203000809590959093F2018093F1010895FC01B1
:10204000DB018C918F738052990B95838483119659
:102050008C9111978F738052990B978386838C9103
:1020600090E023E0959587952A95E1F78871992767
:1020700011962C91119730E045E0359527954A95BA
:10208000E1F726703327822B932B12962C9112970F
:10209000221F2227221F822B40979187808712962A
:1020A0008C9112978F718051990B9387828712962A
:1020B0008C91129786958695887113969C911397AB
:1020C000929596959770892B828313968C9113978E
:1020D0008F71838314968D919C91809590959093A8
:1020E000F2018093F1010895DC01FB01908181816F
:1020F000829586958670292F269526952695287196
:10210000822B2281221F2227221F822B990F990FB7
:10211000905814961C92149715969C93159791813C
:10212000990F990F905816961C92169717969C9394
:1021300017979481238190FF3AC030E02095309525
:102140002F713327205E3F4F19963C932E9318979B
:10215000082E000C990B228120FF30C02FE330E0C5
:10216000281B390B1B963C932E931A9782818695D8
:10217000869588719381929596959770892B129682
:102180008C931297828190E0959587958F70139626
:102190008C9384819581982789279827809590959D
:1021A0008D7C93769093F2018093F1010895922FA4
:1021B0009F7120E230E0291B3109C6CF20E230E0D8
:1021C000CFCFCF93DF93FC01EB018A8190E0982F72
:1021D000882788279F706881862B958384838A81CE
:1021E00020E1829FC001112488279F706981862B7E
:1021F000978386838B8183838D8181FB992790F9D7
:10220000392F3295330F330F307C20E0982F96957D
:10221000969561E096279170B92FB295BB0FB07E6D
:10222000A0E02A2B3B2B8170582F5295507F422FD4
:10223000532B5093F2014093F101DF91CF91089518
:10224000FC01DB018D919C911197958384831296FB
:102250008D919C9113979783868314968C91838399
:102260000895FB0184819581982789279827809577
:1022700090959093F2018093F1010895DC01E62F8F
:10228000F0E06031C8F420911406222331F0693067
:1022900020F0E455FD4F8081089581E090E002C078
:1022A000880F991F6A95E2F72D913C918223932321
:1022B000892BF1F480E008952091490530914A0579
:1022C000633160F07097EE0FFF1FEA0FFB1F81E094
:1022D000408151812417350768F70895E80FF91FE9
:1022E0003E97908181E09217130609F0B4F7E2CF90
:1022F00080E4F3CF7F928F929F92AF92BF92CF9262
:10230000DF92EF92FF920F931F93CF93DF93EC0135
:102310007B01742E852E87E0888344E5C42E45E03A
:10232000D42E0EE412E0912CB12CF60181916F01B4
:10233000882369F130EBA32E813011F420E9A22E1D
:10234000692D872D982D9ADF8695F8019081981731
:10235000F1F0F60143A59589F80180832B2D30E03B
:1023600054E0B59EF0011124EC0FFD1F5A2D52953B
:102370005F705183A42AA2829383F9013196EE0FF4
:10238000FF1FEE0FFF1FEC0FFD1F8083B3940F5F45
:102390001F4F939486E19812C8CFBB0CBB0CB3942B
:1023A000F701B082DF91CF911F910F91FF90EF90D5
:1023B000DF90CF90BF90AF909F908F907F900895C7
:1023C00080E043DD81EEE6DB81E03FCD80E03DDD76
:1023D00082EEE0DB81E039CD80E037DD80E5DADBDD
:1023E00083E7D8DB81E031CDCF9380E02EDD8FEF26
:1023F000D1DBC82F81E029DD8C2FCF9108950F9379
:102400001F93CF93DF93EC018C01060F111D89916F
:10241000C1DBC017D107D9F7DF91CF911F910F9181
:102420000895CF93DF93D82FC62F80E00EDD8D2F38
:102430008062B0DB8C2FAEDB81E0DF91CF9105CDE8
:10244000FF920F931F93CF93DF93D82FF92EC62FB0
:102450008091BC03811108C0C0E08C2FDF91CF9127
:102460001F910F91FF9008951092BC03BDDF282F9C
:1024700030E035952795277033272730310561F3F4
:1024800060E487E0CEDFC11109C080E0DEDC80E6D9
:1024900081DB80E07FDBC82F81E0D7DC80E0D5DC0A
:1024A00081E678DB0D2F1F2D802F8D1B8C1718F0E8
:1024B00081E0CBDCD2CFF80181918F016BDBF80199
:1024C00031978083F1CFCF93DF9300D000D0CDB789
:1024D000DEB7DB019C010E94683469837A838B83B9
:1024E0009C83DC01CB019F77AA27BB2781159044F1
:1024F000A105B105D1F080E090E4A0E0B0E0298131
:102500003A814B815C81820F931FA41FB51F2FE07E
:10251000B595A795979587952A95D1F70F900F9028
:102520000F900F90DF91CF91089580E090E0DC0153
:10253000E6CFF89488E198E00FB6F894A8958093D8
:1025400060000FBE90936000FFCF1F93CF93DF9387
:10255000182FEB0180E079DC812F1CDB88811ADBEE
:10256000888381E0DF91CF911F916FCCCF93DF9370
:102570000F92CDB7DEB7BE016F5F7F4FE6DF898177
:102580000F90DF91CF9108951F93CF93DF93182F72
:10259000D62FC72F80E059DC812F8062FBDA64E000
:1025A0008D2F9C2F2CDF81E0DF91CF911F914DCC9F
:1025B00085ED8093BC008FEF9FE72091BC0024FD48
:1025C00003C01092E40302C00197B9F70895809305
:1025D000E900EBEEF0E0808181608083EDEEF0E0D9
:1025E00010826093EC0040838091EE000895CF93B9
:1025F000DF93DC01FA0184E1EB0188831C921196E0
:102600008C93119712968CE001900D928A95E1F7C8
:10261000DF91CF910895CF93282FCB01C42F4FEF97
:102620005FE7C13228F080E045C041505109D9F33D
:102630003091E4033111F9CF31E03093E40330936A
:10264000E3034FEF40932A0210924C024C0F409349
:102650004B0230934D0230914D02220F232B2093D9
:102660004D022091E203222381F11092E203209196
:102670004D022093BB002FEF3FE74091BC0043FD8C
:102680001BC025EC2093BC002FEF3FE74091E403F3
:102690004130E9F020914C022C1710F4C0914C020B
:1026A0004C2F50E06BE272E00E94B03481E0CC230A
:1026B00009F4B9CFCF9108952150310909F4B3CF6E
:1026C00040914D024093BB00D8CF25EEDBCF215087
:1026D0003109E1F6A8CFCF93C82F8FEF9FE74132A2
:1026E00020F080E03FC00197E1F32091E403211145
:1026F000FACF82E08093E40381E08093E3038FEFDD
:1027000080932A0210924C0240934B0250E08BE2DD
:1027100092E00E94B03410924D0280914D02CC0F95
:10272000C82BC0934D028091E203882329F11092B7
:10273000E20380914D028093BB008FEF9FE72091D1
:10274000BC0023FD11C085EC8093BC008FEF9FE798
:102750002091E403223091F090912A0281E09F3F82
:1027600009F0BFCFCF910895019709F4BACF209116
:102770004D022093BB00E3CF85EEE6CF019741F7F2
:10278000B0CFEF92FF920F931F93CF93DF930F92EF
:10279000CDB7DEB7182F6983E42EF22E032F41E068
:1027A000BE016F5F7F4F97DF882371F04E2D6F2D35
:1027B000702F812F30DF81700F90DF91CF911F91AB
:1027C0000F91FF90EF90089580E0F5CFAAECB3E071
:1027D0001196ED91FC91129780819C91892B8083B9
:1027E000AEEBB3E01196ED91FC91129780819C9134
:1027F000892B8083A6EDB3E01196ED91FC911297A1
:1028000080819C91892B808380E58A95F1F70895DA
:10281000CF92DF92EF92FF920F931F93CF93DF93AC
:102820008C01EB016C017B01E40EF11CCE15DF0580
:1028300049F4DF91CF911F910F91FF90EF90DF90BE
:10284000CF9008958AE50115110511F0F6018081F8
:10285000A1D98993F0E5FA95F1F78FEFC81AD80A54
:10286000E5CF0F931F93CF93DF938C01C62FE09199
:10287000D703F091D80390818091D6038095892366
:102880008083E091BF03F091C00390818091BE03EB
:10289000809589238083E091CB03F091CC039081D4
:1028A0008091CA0380958923808380E58A95F1F71A
:1028B00043E065EF71E0C801ABDF8091F6018F3F27
:1028C00049F4D0E0C0E082DFCE01DF91CF911F91CB
:1028D0000F9108959091F7019A3511F09111F1CF70
:1028E0008F70D82FDD0FC33039F04DEF4C0F68EFEC
:1028F00071E0C80103968CDFDD5F4D2F4C1BDC17A8
:1029000061F06C2F70E0CB01840F911D8197CCF6A4
:102910006B507E4F90E080E07BDFC5EFD1E0D3CFFE
:10292000CF92DF92EF92FF920F931F93CF93DF939B
:1029300000D000D000D0CDB7DEB78D839E83062FA8
:102940002BD86B017C0110E0602F8D819E8189DF87
:10295000FC01892B51F01F5F8D819E81825C91402B
:1029600051F58181807F803F79F18FE39CE9019768
:10297000F1F700C0000010D869837A838B839C83B1
:10298000DC01CB018C199D09AE09BF098B3F910574
:10299000A105B105C8F280E026960FB6F894DEBF17
:1029A0000FBECDBFDF91CF911F910F91FF90EF90A0
:1029B000DF90CF9008958D819E818E5B914031F4A0
:1029C0008181807F803F89F281E0E6CF1330E0F79C
:1029D000CCCFCF93DF93EC0163E08BEB91E041DF51
:1029E000FC0180E0309751F08181982F907F903FDB
:1029F00041F464E08EEB91E093DF81E0DF91CF91D1
:102A0000089523813481209530953093F4012093EB
:102A1000F301903509F053C088E080930101818172
:102A2000823179F489E08093010185818058990B86
:102A30001C828D8346818FE790E0841B91091E8262
:102A40008F838181807D8035C1F685818058990B87
:102A50001886898746818FE790E0BC01641B710965
:102A60001A866B8747814058550B1C824D834085E1
:102A7000841B91091E828F8380911306882399F00D
:102A800084E0809301011D821C821F821E8280854A
:102A90008058990B898790E080E030FF02C08FEF6B
:102AA0009FE79B878A878181893709F05BC083898B
:102AB0008A8384898B8382E0809301019ECF833255
:102AC00041F585E08093010185818058990B1C8236
:102AD0008D83888199819F7B46814138B0F550E094
:102AE00040E0842B952B998388839F7747814138D9
:102AF00078F550E040E0842B952B998388839E7F66
:102B00004085413F40F550E040E0842B952B998370
:102B100088838181807F803E09F081CF86E0809329
:102B20000101858190E09D838C839681858197FD4D
:102B300015C087FD8FE790E09D838C838C819D81FC
:102B400080589F4F9D838C836ACF40E050E4C9CF6B
:102B500040E050E8D0CF40E051E0D7CF813858F77F
:102B600081E8E9CF807F803509F447CF81E0809309
:102B7000010144CF1F93CF93DF93D82FC92F8091AA
:102B800001018A3019F515E08D2F9C2F22DF8FE986
:102B90009FE00197F1F700C000001150A9F78D2FB9
:102BA0009C2F17DF8823D1F064E082EC91E0B8DE3F
:102BB0008823C1F065E086EB91E0B2DE69E08DEA42
:102BC00091E0AEDE64E08EEB91E0AADE8D2F9C2FCB
:102BD00000DF811103C08AE080930101DF91CF9172
:102BE0001F91089581E080930101F0CFFF920F9330
:102BF0001F93CF93DF930F92CDB7DEB78983F62E65
:102C00008A0141E0BE016F5F7F4F82E564DD88236A
:102C100051F08FEC92E00197F1F700C000004F2DCA
:102C2000B80182E5F8DC0F90DF91CF911F910F91F1
:102C3000FF900895CF93DF9300D000D000D0CDB7A0
:102C4000DEB7AE014F5F5F4F66E08AEFCFDFFE0178
:102C50003196AE01495F5F4F8FEF90E02191922B4B
:102C600082234E175F07D1F7992369F08F3F59F000
:102C700099818E8126960FB6F894DEBF0FBECDBF28
:102C8000DF91CF9108958FEF9FEFF4CFCF93DF9334
:102C9000CDB7DEB7C351D1400FB6F894DEBF0FBE3B
:102CA000CDBF43E151E06CEF73E0CE0101960E948D
:102CB000933443E151E061E070E0CE0101960E945F
:102CC000D034CD5EDE4F0FB6F894DEBF0FBECDBF61
:102CD000DF91CF9108958F929F92AF92BF92FF9212
:102CE0000F931F93CF93DF93CDB7DEB7C656D109AD
:102CF0000FB6F894DEBF0FBECDBF8BB5882309F4A5
:102D0000A8C18091E9008F702091EC00922F917002
:102D100020FD90E8F92EF82A1092E9008091E80051
:102D200083FF93C187E196E0FC0101962091F100B9
:102D3000208326E08F319207B9F78091E80083FF66
:102D400061C19091180680911706913009F0E5C095
:102D5000813A09F02DC220911906822F3091120676
:102D6000332309F458C02E3308F055C0223309F438
:102D700052C029839A8324DB29DB0E94CC0C4B01AF
:102D80005C0132DB80FD0BC080E05FD889EA0E94E5
:102D9000CA0D62E0CE01019632DB81E056D881E0B7
:102DA0008093BC0360E088E692E04ADB682F8823CA
:102DB00011F08C3011F560E387E033DB0E94CC0C1E
:102DC000A7966CAF7DAF8EAF9FAFA797DC01CB010D
:102DD00088199909AA09BB09853F9140A105B10548
:102DE00080F288E08093680246E050E066EF70E091
:102DF00089E692E00E94933467E08091E800877F43
:102E00008093E8006150770B89E692E00E94CE0B38
:102E10000E947F0CF7C098E0909368028E33E8F030
:102E2000A22FAE53BB0B22E32A9FB0012B9F700D44
:102E3000112403E111E0061B170B0233110514F0F6
:102E400002E310E0A80155276F5F7F4F89E692E00B
:102E50000E94C03461E0600FD0CF823311F087331D
:102E600001F560EF70E08EE692E00E949C3480E015
:102E700094E2A4EFB0E08093690290936A02A09379
:102E80006B02B0936C020E94F10E60937D0270930E
:102E90007E0280937F029093800210926D0269E11E
:102EA000ACCF8C3359F48CE0E8EAF2E0A9E6B2E06A
:102EB00001900D928A95E1F76DE09FCF853399F4EB
:102EC00060911506613041F480910201809369029E
:102ED00010926A0263E091CF6330E1F780910101C3
:102EE000809369028ACF863341F4809105018093F3
:102EF00069020E94410F62E080CF48E050E068EE36
:102F000070E089E692E00E949334809144018F3111
:102F100010F410926C0269E070CF993009F019C377
:102F2000813209F080C140911D0650911E068091AA
:102F3000190689831A829091E800977F9093E800A0
:102F40009A013327411105C09091E8009B77909337
:102F5000E800FE0133962115310501F59091E80056
:102F600090FD05C09BB5992311F09530B9F78B33CF
:102F700009F480C08D3391F1893309F088C08B81C9
:102F8000ECE18E9FC0011124415050E0BE016C5F06
:102F90007F4F82519D4F0E94B0342DC09BB5992325
:102FA00031F3953021F39091E80093FDE0CF9091BB
:102FB000E80092FFD0CF9091F3006091F200792F5A
:102FC000672B31F09091F10091932150310999F7DD
:102FD0009091E8009B779093E800BDCF415050E07E
:102FE0006B81BCE16B9FB00111246F5F7F4FCE01FD
:102FF00004960E94D0340E947F0C8091120611E04A
:103000008111BFC08091E80083FF11C08091170635
:1030100020911806253009F4B7C108F011C1922F8C
:103020009D7F913009F477C1222309F453C1809127
:10303000E80083FF0AC08091E800877F8093E80062
:103040008091EB0080628093EB008F2D8F708093D6
:10305000E900CA59DF4F0FB6F894DEBF0FBECDBFEF
:10306000DF91CF911F910F91FF90BF90AF909F90F4
:103070008F900895809130058F3F09F4BCCF61E0B7
:103080009C81911101C060E00E94D10DB4CF8333C7
:1030900009F43FC060F4803349F0813309F0ABCFCD
:1030A00087E797E7909301088093000842DA84331A
:1030B00029F08A3309F09FCFE9DD9DCF8091120678
:1030C000811199CF8091ED02811195CF8FEF80937F
:1030D00005010E943E0E25EDA22E22E0B22E12E145
:1030E00062E0812F0E94460E8FE891E00197F1F790
:1030F00000C000008EEE810F0E941D0ED5018D9341
:103100009D935D011F5F1E3159F781E08093ED02B1
:1031100072CF8091120681116ECF8091D4028111FD
:103120006ACF8FEF809305010E943E0E10E000E011
:10313000802F0E94280F811111C062E0802F0E9411
:10314000460EEFE8F1E03197F1F700C00000802F64
:103150000E94F10DF801E454FD4F80830F5F1F4F73
:103160000831110529F781E08093D40244CF1093F0
:10317000BC0360E0CE018D5B9F4F62D960E387E0C6
:1031800050D932D980FDF3CF60E387E04AD980E09F
:103190000E94250F89EA0E94CA0D60E2CE010196C5
:1031A0002ED981E00E94250F81E08093BC032ACFB5
:1031B000813C51F580911B0690911C068130910550
:1031C00039F42091190630911A06232B09F4B1C164
:1031D000019709F017CF8091190690911A06811571
:1031E000914009F00FCF64E188E091E0A5C1803CF7
:1031F000D1F480911B0690911C06049709F002CF30
:1032000060E48CE191E098C1803C69F420911B0658
:1032100030911C064091190650911A06242B352B2B
:10322000232B09F492C18F77813209F0EBCE9A30CB
:1032300009F4E8CE8091E800877F8093E800E8CD2C
:10324000283009F442C1293009F44CC1263009F074
:10325000EECE8058823008F0EACEE0911906F09167
:103260001A06BE016D5F7F4FEC3D43E0F40709F0A5
:10327000ADC083E08A838AE289834FB7F894DB018B
:1032800020E03EE051E2E32FF0E0509357008491BC
:1032900020FF03C082958F703F5F8F708A3008F4E3
:1032A00093C0895C90E08D939D932F5F243159F7F3
:1032B0004FBF8091E800877F8093E8006AE270E06A
:1032C000CE0101960E94CE0B8091E8008B7780930F
:1032D000E800ADCE803891F0823809F0A8CE809118
:1032E0001B068F70873008F0A2CE8093E9002091F2
:1032F000EB0025FB222720F91092E9008091E800DD
:10330000877F8093E8002093F1001092F100809174
:10331000E8008E7721C0823009F089CE80911906AD
:10332000811115C080911B068F709FEF980F96300A
:1033300008F07DCE8093E9009091EB0090FF07C0EC
:10334000233079F48091EB0080628093EB0010923F
:10335000E9008091E800877F8093E8000E947F0C5D
:1033600066CE9091EB0090619093EB0021E030E00D
:1033700001C0220F8A95EAF72093EA001092EA0032
:103380008091EB008860E1CF811151CE1091190638
:103390001F778091E3008078812B8093E3008091F8
:1033A000E800877F8093E8000E947F0C8091E8000E
:1033B00080FFFCCF8091E30080688093E30082E08F
:1033C000111183E08BBD33CE805D6CCF8F2F992799
:1033D0001A82198234E0DB011D923A95E9F78330B5
:1033E000910509F45CC0B0F48130910539F1029780
:1033F00009F01DCE86E38983809143018A8385E2AB
:103400008B8323E0AE014F5F5F4F66EB70E084E19A
:1034100093E03DC0829709F00ACE809143018A3142
:1034200008F03AC08AEE91E069E870E02091E80087
:10343000277F2093E8000E94260C46CF809143010D
:103440008A51883038F5880F98E09983482F50E0EA
:10345000FA01E652FC4FE491EA838F5F90E0FC01B1
:10346000E652FC4FE491EB833AE03C83FA01E653E9
:10347000FC4FE491ED83FC01E653FC4FE491EE83B5
:10348000AE014F5F5F4F62E170E08AEE93E00E9411
:10349000FE08CDCD20E0F4CF83E792E0C5CFE43045
:1034A00070F4FF27EE0FFF1FE25FFC4F85919491B0
:1034B000FC012491622F70E02111B8CFB8CDEE3E0F
:1034C00009F0B5CD8CEF92E0F3CF803809F0AFCDA5
:1034D0008091E800877F8093E800809110068093B8
:1034E000F10015CF8111A3CD10911906123008F00B
:1034F0009ECD8091E800877F8093E80010931006AE
:103500000E947F0C112311F084E005C08091E3003C
:1035100087FDFACF81E08BBD42E261EC82E057D8B3
:1035200042E261EC81E053D842E261E883E04FD8A7
:103530007ECD68E08CEF90E02091E800277F20931B
:10354000E80070E00E94260C63CC64E084E091E027
:10355000F3CF903209F067CE813C09F048CE20913C
:103560001B0630911C062530310509F05CCE2091F8
:10357000190630911A062230310509F054CE6EE852
:103580008CE591E0D9CFEF92FF920F931F93CF93E9
:10359000DF9300D0CDB7DEB7082F142F732F8DB770
:1035A0009EB79A83898350E0CA010196EDB7FEB7B2
:1035B000E81BF90B0FB6F894FEBF0FBEEDBF8DB739
:1035C0009EB701967C016183622F01960E94B03400
:1035D00041E0410FB701802F7ED8E981FA810FB613
:1035E000F894FEBF0FBEEDBF0F900F90DF91CF910B
:1035F0001F910F91FF90EF900895EF92FF920F931C
:103600001F93CF93DF930F92CDB7DEB780910C015C
:10361000811109C08FEF0F90DF91CF911F910F9112
:10362000FF90EF9008951982A0910601B0910701D3
:10363000E0910801F09109018E010F5F1F4F980181
:1036400041E051966C9180819EDF7801882311F3CF
:10365000A0910601B0910701E0910801F0910901E4
:10366000980141E015966C9180818DDF882391F25D
:10367000A0910601B0910701E0910801F0910901C4
:10368000980141E014966C9180817DDF882309F4D4
:10369000C1CFE0910601F09107016481E09108013A
:1036A000F091090180912301882309F457C08CE02F
:1036B0008983980141E0808166DF882309F4AACFDD
:1036C0002FEF80E792E0215080409040E1F700C06A
:1036D000000080EC898380910C0180FF02C080EEA5
:1036E0008983A0910601B0910701E0910801F09152
:1036F0000901970141E014966C91808144DF882391
:1037000009F488CF80911201882331F182E0898306
:10371000A0910601B0910701E0910801F091090123
:10372000970141E051966C9180812DDF882309F447
:1037300071CF1982A0910601B0910701E0910801B3
:10374000F0910901970141E015966C9180811BDF92
:1037500091E0892781955FCF1982DACF84E0898350
:10376000980141E080810FDF882309F453CF8091D5
:103770001301811104C080910C0180FD3EC080E4E2
:103780008983A0910601B0910701E0910801F091B1
:103790000901970141E014966C918081F4DE882341
:1037A00009F438CF2FEF80E792E02150804090401D
:1037B000E1F700C0000080911201882301F181E04F
:1037C0008983A0910601B0910701E0910801F09171
:1037D0000901970141E051966C918081D4DE8823E4
:1037E00009F418CFA0910601B0910701E0910801FA
:1037F000F091090121E131E0A6CF80E6C1CF198225
:10380000E0CFCF93DF930F92CDB7DEB79C018091CD
:103810000C01811105C08FEF0F90DF91CF910895BA
:1038200081E02C3B310588F482E02236310568F4D2
:1038300083E02A32310548F484E02431310528F44C
:1038400085E02A30310508F486E0898390910D01E6
:1038500089819817A9F0A0910601B0910701E09124
:103860000801F09109019E012F5F3F4F41E0129640
:103870006C91808188DE882371F2898180930D01AB
:1038800080E0CACFEF92FF920F931F93CF93DF9305
:1038900000D0CDB7DEB7FC018B017A0180910C011D
:1038A00081110AC08FEF0F900F90DF91CF911F9180
:1038B0000F91FF90EF9008959E2F8F2F9A83898309
:1038C000A0910801B09109019B012E0F311D18969E
:1038D0008D919C9119978217930720F3E09106012F
:1038E000F09107019E012F5F3F4F42E0638D8C9165
:1038F0004ADE8823B9F2A0910601B0910701E09158
:103900000801F09109019701402F58966C91808130
:103910003ADE91E089278195C6CFCF93DF930F924E
:10392000CDB7DEB780910C01811105C08FEF0F90EC
:10393000DF91CF91089588E1898380910A018330D6
:10394000C1F0A0910601B0910701E0910801F0914A
:1039500009019E012F5F3F4F41E016966C918081D7
:1039600012DE882319F38981869586958695809342
:103970000A0180E0DCCFCF93DF930F92CDB7DEB7A3
:1039800080910C01811105C08FEF0F90DF91CF91D5
:103990000895198280910B018823C1F0A09106013E
:1039A000B0910701E0910801F09109019E012F5F9C
:1039B0003F4F41E017966C918081E5DD882321F32C
:1039C000898186958695869580930B0180E0DDCF71
:1039D0000F931F93CF93DF930F92CDB7DEB78091F4
:1039E0001301882309F458C0A0910601B091070182
:1039F000E0910801F09109018E010F5F1F4F9801BE
:103A000041E014966C9180810E94C113811107C01E
:103A10008FEF0F90DF91CF911F910F9108958981C2
:103A200090910C0190FF3AC080628983A0910601B9
:103A3000B0910701E0910801F0910901980141E07E
:103A400014966C9180819FDD882311F38FED9EE2A7
:103A50000197F1F700C0000080912101882301F156
:103A600080E8898380912201882319F0898180630D
:103A70008983A0910601B0910701E0910801F091BE
:103A80000901980141E057966C9180817CDD882383
:103A900009F4BECF1092130180E0BBCF8F7DC5CF5C
:103AA0001982E0CFCF93DF930F92CDB7DEB7698352
:103AB0009E012F5F3F4F41E0682F82E564DD0F904C
:103AC000DF91CF910895EF92FF920F931F93CF93C1
:103AD000DF93CDB7DEB768970FB6F894DEBF0FBEA1
:103AE000CDBF7C0180910201909103018F3F980727
:103AF00009F06EC09FD89C0190930301809302014E
:103B00002F3F3F4FB9F465E580EFCCDF85E38A9521
:103B1000F1F7000060E08BEFC5DF95E39A95F1F7D0
:103B2000000088D8909303018093020125E32A9531
:103B3000F1F70000809102019091030183319F4FC2
:103B400071F461E08BEFAEDF85E38A95F1F7000059
:103B500065E580EFA7DF95E39A95F1F70000809186
:103B60000201909103019E7F019709F0A5C063E0D7
:103B70008EEF98DF25E32A95F1F70000AE01475F4D
:103B80005F4F68E080E032D88FE193E00197F1F772
:103B900000C00000AE014F5F5F4F68E080E026D8B4
:103BA00048E050E0BE016F5F7F4FCE0109960E9452
:103BB000A334892BD1F58F859889892B09F073C09F
:103BC0008FE190E19093F0018093EF0186E072C065
:103BD0008B30984109F48ECF8E010F5E1F4FA801E4
:103BE0006091000180E002D8B801882389F0F801D3
:103BF00080910001A801480F511D8FEF90E04E17F2
:103C00005F0779F4992309F475CF8F3F09F472CFD8
:103C1000E091EF01F091F001309779F1C70109953A
:103C20002CC02191922B8223EACF8FE193E0019760
:103C3000F1F700C0A2CF419709F051C081E391E1B3
:103C400018C082312FEF920759F158F4833021E0E8
:103C5000920719F18330934009F041C084E790E165
:103C600008C083319F4FD9F580E291E102C083EB18
:103C70009FE09093F0018093EF0168960FB6F8945F
:103C8000DEBF0FBECDBFDF91CF911F910F91FF908F
:103C9000EF9008958CE69DE2ECCF82E69FE0E9CFBD
:103CA00081EE90E1E6CF81EF9FE09093F001809369
:103CB000EF0188E08093000180910201909103015F
:103CC000813021E09207C9F208F0BBCF8330910523
:103CD00071F208F0B0CF0097E9F2019771F28BE032
:103CE00098E190930301809302011092F0011092E9
:103CF000EF01C3CF1F93CF93DF930F92CDB7DEB702
:103D0000182F80912201811729F1112341F180E3BD
:103D1000898380911301882319F0898182608983C6
:103D200080912101882319F0898180688983A0917D
:103D30000601B0910701E0910801F09109019E018F
:103D40002F5F3F4F41E057966C9180811CDC8111C1
:103D5000109322010F90DF91CF911F910895198246
:103D6000D8CFEF92FF921F93CF93DF930F92CDB7EF
:103D7000DEB7182F807719F081E0898303C0112303
:103D8000F1F01982A0910601B0910701E0910801BC
:103D9000F0910901CE0101967C019C0141E055960C
:103DA0006C918081F0DB970181110BC010920C01A6
:103DB0000F90DF91CF911F91FF90EF90089580E4D5
:103DC000DCCF89818F7B80930E0116FF32C0198270
:103DD00015FD03C089818260898314FD03C0898138
:103DE0008160898313FD03C0898188638983A091E1
:103DF0000601B0910701E0910801F091090141E04D
:103E000056966C918081BFDB882381F2812F877F5A
:103E100011F080E06FDF10930C01109215019FEFFD
:103E200020E782E0915020408040E1F700C0000090
:103E3000BFCF84E08983CCCFCF93DF930F92CDB7F0
:103E4000DEB7909123019923E9F0882339F182E0CC
:103E50008983A0910601B0910701E0910801F091DA
:103E600009019E012F5F3F4F41E051966C91808187
:103E70008ADB882319F08981809312010F90DF91EA
:103E8000CF91089590910C019923C1F3882331F0CB
:103E9000809112018111F2CF81E0DACF1982D9CF5E
:103EA0001F93CF93DF93D82F80912301C0E081111E
:103EB0001FC080910C018823B9F0109111018D234E
:103EC00080931101C1E08D1301C0C0E0C1958091C4
:103ED00015018D2B59F081E0AFDFDD2349F08DDB3B
:103EE000882331F010931101CFEF02C080E0A4DFEE
:103EF0008C2FDF91CF911F9108951F93CF93DF9364
:103F000000D0CDB7DEB7182F81111EC080E0F2DEE1
:103F1000198287E08A83A0910601B0910701E091A0
:103F20000801F09109019E012F5F3F4F42E0559635
:103F30006C91808128DB8111109215010F900F90F8
:103F4000DF91CF911F91089581E0D4DE80E28983D3
:103F5000113041F51A8285E090E053DC8A8120E43B
:103F6000829FC001112487608A83A0910601B091CD
:103F70000701E0910801F09109019E012F5F3F4F79
:103F800042E055966C918081FEDA8823B9F288E090
:103F900080930C0110920E0181E08093150180E066
:103FA0007FDFCCCF163018F481E08A83D4CF15316F
:103FB00028F482E08A838AE090E0CFCF83E08A838E
:103FC00084E190E0CACF0F931F93CF93DF930F92BA
:103FD000CDB7DEB78C0180910C01811107C08FEF46
:103FE0000F90DF91CF911F910F9108958091230140
:103FF0008111F5CF80911501882351F0C8010197F7
:10400000889720F4802F79DF80E0EACF80E075DFA9
:10401000B801093E134010F068EE73E0643071059A
:1040200010F464E070E008EE13E0C8010E94FC3375
:1040300061506983A0910601B0910701E0910801E8
:10404000F09109019E012F5F3F4F41E011966C9165
:10405000808199DA882309F4C2CF698170E06F5FAB
:104060007F4FC8010E9410347093100160930F01BC
:10407000CB0196958795C5DBC7CF7F928F929F9294
:10408000AF92BF92CF92DF92EF92FF920F931F9366
:10409000CF93DF93CDB7DEB7CE53D2400FB6F894AF
:1040A000DEBF0FBECDBF43E151E061E070E0CE0165
:1040B00001960E94C0348D859E85AF85B88908978A
:1040C000A105B10540F443E151E060E070E0CE01AC
:1040D00001960E94C03489859A85AB85BC8585315F
:1040E000944DA24AB105B1F043E151E06CEF73E0A9
:1040F000CE0101960E9493341D861E861F86188A63
:1041000042E450E060EA74E0CE018B559F4F0E947C
:10411000933408C08D859E85AF85B8890297A10527
:10412000B10570F38A81873009F040C08FE08A833F
:104130008D859E85AF85B8890497A105B10548F4A2
:1041400048E550E068E474E0CE01835B9F4F0E9435
:1041500093348D859E85AF85B88986309105A105FC
:10416000B10548F51C82C951DF4F1882C75ED040A7
:10417000EA81F0E0E15FFA4FE491E23021F48AA5B0
:1041800091E089278AA743E050E06CE075E0CE011A
:104190008F5E9E4F0E94933444E250E068EE74E0DC
:1041A000CE0183519F4F0E94933413C0883009F091
:1041B000BFCF8DE0BCCF86309105A105B10599F246
:1041C00089309105A105B10598F20D97A105B105BA
:1041D000D0F28D859E85AF85B8898E309105A10579
:1041E000B10520F588A9843028F48230E8F081E018
:1041F00088AB04C08450823008F418AACD5EDE4F2C
:104200001882C351D1408FE090E0A0E0B0E08D87EC
:104210009E87AF87B88B43E151E061E070E0CE014B
:1042200001960E94D03406C082E0E2CF0E97A1052D
:10423000B10521F383E191E0FE013196DE01AC5E30
:10424000BE4F01900D920197E1F7CB5EDE4F888162
:10425000C551D1408093440180934301C95EDE4F34
:104260009881C751D14090931606CC5EDE4F98815D
:10427000C451D14090931506E82FF0E0E15FFA4F6A
:10428000949121E0913009F020E020931406E4910C
:1042900021E0E23009F020E020931306E23009F03B
:1042A000D0C1843140F487E080934301913019F408
:1042B00088E08093430185B5826085BD85B58160C6
:1042C00085BD80916E00816080936E00C650DE4F88
:1042D0008881CA5FD140882309F4BAC10E94F10ED7
:1042E000C65CDD4F688379838A839B83CA53D2403F
:1042F0007E0189EDE81A8DEFF80AC550DE4F8881FE
:104300009981AA81BB81CB5FD140F70180839183E2
:10431000A283B383C65CDD4F88819981AA81BB816A
:10432000CA53D24089839A83AB83BC831092BC0367
:1043300060E080E00E94460E60E08AE00E94460E47
:1043400000E020E040E060E074E284EF90E00E9452
:10435000830E60E080E00E94D10D81E00E94250F75
:10436000AFE1BEE41197F1F700C0000061EF84E017
:104370000E94111262E083E00E941112BE01695C8A
:104380007D4F86E00E94A512C95CDD4F6881C7534E
:10439000D240697FC95CDD4F6883C753D24086E055
:1043A0000E9411128DE10E94B612D82E0E94EC11CB
:1043B0008DE10E94B6121E2D0F2D882341F0D812D8
:1043C00002C00E94EC1160E08DE10E941112BE015A
:1043D000675C7D4F86E00E94A512C75CDD4F688157
:1043E000C953D240677D6360C75CDD4F6883C953A2
:1043F000D24086E00E941112BE01695C7D4F86E0CA
:104400000E94A512BE01695C7D4F80E00E94A5124A
:10441000C95CDD4F6881C753D2406C60C95CDD4F19
:104420006883C753D24080E00E9411126CE485E09B
:104430000E9411128DE10E94B612682F64608DE116
:104440000E9411128CE10E94B612682F6F638CE1FA
:104450000E9411128DE10E94B612682F66608DE1F4
:104460000E9411128CE10E94B612682F63608CE1E9
:104470000E9411126FE381E00E94111260E787E051
:104480000E9411120E94E6110E94E01160E787E08D
:104490000E941112C95CDD4F1882C753D240BE0181
:1044A000695C7D4F80E00E94A512C95CDD4F888168
:1044B000C753D2408C78C95CDD4F8883C753D24044
:1044C00060E080E00E94D10DC95CDD4F6881C75378
:1044D000D240636080E00E94111261E080E00E949F
:1044E000D10D612F702F8AE00E94C412612F702FAE
:1044F00080E10E94C41260E080E00E94D10DBE0104
:104500006F5F7F4F8BE00E94C41263E082E00E94E5
:10451000111261E080E00E94D10D809169008068F5
:1045200080936900EB9A81E08093120680914401A8
:10453000823209F0BCC58EE699E09093B60580936F
:10454000B50581E0C85EDE4F9881C851D1409230F8
:1045500009F480E080930F0688E5FE01E05AFE4FE3
:10456000A7EBB5E001900D928A95E1F78091D80014
:104570008F7E8093D8008091D70081608093D70090
:1045800084E082BF81E0809311068091D8008E7F05
:104590008093D8001092E2001092DA001092E100AD
:1045A0008091D8008F778093D8008091D800806860
:1045B0008093D8008091D8008F7D8093D80019BC5B
:1045C0001BBC109210068091E0008B7F8093E0006E
:1045D0008091D80081608093D80042E360E080E061
:1045E0000E94E7128091E1008E7F8093E10080912C
:1045F000E20081608093E2008091E2008860809315
:10460000E2008091E0008E7F8093E0008091D800EE
:1046100080618093D8007894C25CDD4F0FB6F89427
:10462000DEBF0FBECDBFDF91CF911F910F91FF90E5
:10463000EF90DF90CF90BF90AF909F908F907F9042
:104640000895913009F037CE843108F034CE30CE61
:10465000C75EDE4F8881C951D14080935305C65E45
:10466000DE4F8881CA51D140809352058091130654
:10467000882309F403C4CA5DDD4F8881C652D24045
:1046800081708093510580917A00846080937A00D4
:1046900080917A00826080937A0080917A008160B4
:1046A00080937A0080917A00806880937A00CC5E53
:1046B000DE4F8881C451D140823009F4E1C3833098
:1046C00009F4E1C3813099F4C55EDE4F8881CB5196
:1046D000D1408093BD0383E69DE190935005809384
:1046E0004F0583E09BE090934E0580934D05CC5E93
:1046F000DE4F8881C451D140833009F05BC4CA5E6B
:10470000DE4F8881C651D1408130C9F41092E40354
:1047100081E08093E3031092E203589A599A8091C2
:10472000B9008E7F8093B9008091B9008D7F80930E
:10473000B9008AE08093B80085E48093BC00CA5E2B
:10474000DE4F9881C651D14081E0913041F0CC5E7E
:10475000DE4F2881C451D140213009F080E08170C2
:1047600080933205C85EDE4F8881C851D1408230C7
:1047700009F439C481E0CC5EDE4F2881C451D140B8
:10478000233009F080E0817080933105C150DE4F05
:104790008881CF5FD1408093300590932F0584E2CC
:1047A000FE01FE5FABE0B5E001900D928A95E1F766
:1047B00010920A05109209050E943E0E10924804BC
:1047C000109247041092E6031092E503FE01EC5E9E
:1047D000FE4F7F016F01B12C75E0A72E8E010C5F9B
:1047E0001F4FD801EA2D1D92EA95E9F7B982D6014B
:1047F00090968C9090901306BFEF8B1699F1E5E0A0
:10480000BE1209C0992039F0CA5EDE4F8881C651B8
:10481000D140833039F5D60191967C9061E0882DA6
:104820000E94460E7B82EEEEE80DF0E0E85CFA4F67
:10483000E491EA83A0914704B0914804CD01019628
:10484000909348048093470463E0AA0FBB1F6A95C6
:10485000E1F7A951BC4F88E0FE01319601900D921D
:104860008A95E1F7B394B2E0CB0ED11CE6E0BE121C
:10487000B8CFC150DE4F8881CF5FD1408F3F19F054
:1048800060E00E94460E10E000E05CE0752ECC5E19
:10489000DE4F6881C451D140623009F0B7C3D701FF
:1048A0005096BC90BFEFBB1609F4A5C081E00C3058
:1048B000110538F49801285031092230310508F0EB
:1048C00080E0282F217080FF09C0AA24A394C85E2D
:1048D000DE4F8881C851D140813009F0A12CEA2DEA
:1048E000E170AE2EC25CDD4F0883CE53D2408B2DDB
:1048F00090E0FC01E158FA4F3491FC01E05AFA4F84
:104900008491C65CDD4F8883CA53D240E32FF0E028
:10491000EE0FFF1FEC5BFA4FC590D490CC5DDD4FDE
:104920008880C452D24080911406882309F45DC364
:10493000222309F45AC391E19B1508F056C3CE5BBC
:10494000DE4F8881C254D140A8E08A9FC001112463
:104950001B821C821D82B98221E028879F838E835F
:1049600061E08B2D0E94460EEEEEEB0DF0E0E85C70
:10497000FA4FE491A0914704B09148042A2FEA83AA
:10498000CD010196909348048093470433E0AA0F29
:10499000BB1F3A95E1F7A951BC4F88E0FE01319663
:1049A00001900D928A95E1F74091090550910A0511
:1049B000CA01019690930A0580930905749EF0013F
:1049C000759EF00D1124E75BFB4FC65CDD4FB8818F
:1049D000CA53D240B083D282C182A382B482C25C65
:1049E000DD4F8881CE53D240858316821782108690
:1049F0001186828623870F5F1F4F8FEFE81AF80A10
:104A00000031110509F043CF992009F423C2CA5E91
:104A1000DE4F1881C651D140113009F038C3CD5B4B
:104A2000DE4F8881C354D14080934805789480E854
:104A30008983A0910601B0910701E0910801F091EE
:104A400009019E012F5F3F4F41E055966C91808197
:104A50000E94C31A882309F467C09FEFA9E6B8E152
:104A60009150A040B040E1F700C000001982A09131
:104A70000601B0910701E0910801F09109019E0142
:104A80002F5F3F4F41E055966C9180810E94C31A81
:104A9000882309F449C0109214018FEF80930C0110
:104AA00080930A0180930B0180930D012FEF3FEF5C
:104AB0003093100120930F01809311018093130113
:104AC00010930E01109321011092220110921601F1
:104AD00010921501E7E1F1E08AE0DF011D928A956D
:104AE000E9F71092230110922401109226011092EE
:104AF00025010E948D1C811117C00E94BB1C8111D1
:104B000013C08AE290E00E94011C81110DC082E373
:104B100090E059DA811108C0C3D9811105C00E9403
:104B2000E81C811101C01DD988E71BD90E948D1C8A
:104B30000E94BB1C88E7B4D980912401811199C0DF
:104B4000F12CE12C86EFC82E8BE0D82E86010E19B1
:104B50001F090131110510F000E110E0F701E256E4
:104B6000FA4FDE011196CD01800F911FA817B907EA
:104B700009F089C2AE014F5F5F4FB801C7010E94C3
:104B8000421C811176C080910C01882309F471C008
:104B90009E2D8F2DC95CDD4F99838883C753D240EA
:104BA000E0910801F091090120853185C8018E0D41
:104BB000911D2817390708F45CC0A0910601B09137
:104BC00007019E01295C3D4F42E05B966C9180811C
:104BD0000E94C31A882309F44CC0A0910601B09129
:104BE0000701E0910801F09109019E01295D3D4F07
:104BF000402F58966C9180810E94C1138823C9F17F
:104C0000A801BE01695D7D4FCE0101960E94A334CB
:104C1000892B79F5E00EF11EB6EFEB16BBE0FB0633
:104C200008F494CF84E0C95CDD4F8883C753D24039
:104C3000C85CDD4F1882C853D240A0910601B091E4
:104C40000701E0910801F09109019E01295C3D4FA7
:104C500042E05D966C9180810E94C31A882349F0DE
:104C600081E08093240188EC90E09093260180936A
:104C700025018CE0E7EDF1E0DE01119601900D9247
:104C80008A95E1F7C95DDD4F1882C752D24085E0B1
:104C9000C85DDD4F8883C852D240AE01495D5D4F8B
:104CA00062E070E086E192E00E94421C811111C036
:104CB000AE014F5F5F4F6CE070E081EC9AE00E94C4
:104CC000421C811106C08EE190E090933C058093D8
:104CD0003B0580912301813011F1809124018823CB
:104CE000F1F080E0A9D80E94E81C80912501909104
:104CF000260169D91982E0910801F09109019E010C
:104D00002F5F3F4F41E063E280810E94C31A8823F6
:104D100031F081E0809323018FD80E94FD1A82E058
:104D200089838AEC8A8383EE8B8319E01C83AE012E
:104D30004F5F5F4F64E070E088E690E00E94421CA5
:104D400083EA89838A838B838C838D838E838F838D
:104D5000888789878A87AE014F5F5F4F6AE070E07E
:104D600087EA9AE00E94421C88ED8983AE014F5F7A
:104D70005F4F61E070E086EB9AE00E94421CE4EE37
:104D8000F1E0DE01A95DBD4F01900D921A95E1F7AA
:104D9000AE01495D5D4F69E070E088EB94E00E94F0
:104DA000421C44E050E06BE870E0CE01895D9D4F0D
:104DB0000E94B934AE01495D5D4F64E070E088E95E
:104DC0009AE00E94421C0E94FD1A80E2C95DDD4FFC
:104DD0008883C752D24088E2C85DDD4F8883C852BD
:104DE000D24080E3C75DDD4F8883C952D24088E35B
:104DF000C65DDD4F8883CA52D240AE01495D5D4F2A
:104E000064E070E08EE99AE00E94421C0E94FD1A64
:104E100088E190E090933A05809339050E94FD1A4D
:104E200080E180933D0582EC99E290934705809361
:104E3000460586E0FE01E25EFD4FAFE3B5E001907E
:104E40000D928A95E1F7C15CDE4F8881CF53D14046
:104E500080933E05CF5BDE4F8881C154D1401092D4
:104E60004B0580934C05C05CDE4F8881C054D14017
:104E700090E090934A058093490558CB80E000CCA0
:104E800086E39BE030CC01E021E041E060EA76E897
:104E900081E090E00E94830EE9E8F5E08491EAE683
:104EA000F5E09491E82FF0E0EE0FFF1FEE5AFA4F75
:104EB00045915491CC5DDD4F2881C452D2409093EE
:104EC000D6035093D8034093D7031092D9038AE0B6
:104ED0008093DA031092DB031092DC031092DD035F
:104EE0001092DE031092DF032093E0039FEF909374
:104EF000E103EFE8F5E08491E0E7F5E03491E82F95
:104F0000F0E0EE0FFF1FEE5AFA4F459154913093A7
:104F1000CA035093CC034093CB031092CD0380E19E
:104F20008093CE031092CF031092D0031092D1033E
:104F30001092D2031092D3032093D4039093D503FD
:104F4000EEE8F5E08491EFE6F5E03491E82FF0E04B
:104F5000EE0FFF1FEE5AFA4F459154913093BE0366
:104F60005093C0034093BF031092C1038FE080931E
:104F7000C2031092C3031092C4031092C50310928F
:104F8000C6031092C7032093C8039093C90360E03F
:104F90008AE00E94460E0E94E61381E89BE090930F
:104FA0004E0580934D058AEB95E1909350058093D3
:104FB0004F059DCBC85EDE4F8881C851D1408230FD
:104FC00049F400E021E041E060E072E18AE790E02E
:104FD0000E94830ECC5EDE4F8881C451D140813067
:104FE00009F08DCB93CB81E0CECBA11061E08B2D6E
:104FF0000E94460E992041F00230110528F4CB5D45
:10500000DD4F8880C552D2402FEFCECC702FEFE716
:10501000F5E08491E0E6F5E06491E82FF0E0EE0F32
:10502000FF1FEC5BFA4F85919491CC5DDD4FA88119
:10503000C452D240992041F00230110528F4CB5DD2
:10504000DD4FA881C552D2404091090550910A0513
:105050009A012F5F3F4F30930A0520930905749EF4
:10506000F001759EF00D1124E75BFB4F6083928386
:1050700081831382148275831682178210861186AB
:10508000A2872FEFB7CC24912D9331966FCD12309C
:1050900009F0CFCEC25CDE4F8881CE53D1408093E1
:1050A000450562E00E94460E89E09EE0BECE833256
:1050B00068F082E4FE01E854FE4FA4E5B5E00190FB
:1050C0000D928A95E1F78AE791E137CA843118F4A5
:1050D00087EF92E132CA9CEE980F963008F58AE18C
:1050E000E4E1F1E0EC0FFD1FF296AAE9B5E00190D2
:1050F0000D928A95E1F7CF5BDE4F8881C154D14094
:105100001092980580939905C05CDE4F8881C05449
:10511000D14010929605809397058DE29DE00DCACF
:10512000803258F046E050E061ED71E087E391E0B5
:105130000E94933486E08093B405809144018A31C3
:1051400049F48DE080932A018CE080932B0183ED5C
:1051500099E0F3C9982F9D7F4EE050E060EB71E13C
:105160009C3171F04EE050E062EA71E18B3141F028
:105170008D3111F0803259F74EE050E064E971E171
:1051800089E291E00E949334E2CFCF93DF9300D085
:1051900000D0CDB7DEB720E030E040E057E46983CF
:1051A0007A838B839C8369817A818B819C810E9425
:1051B000623369837A838B839C8369817A818B8153
:1051C0009C810E94FF32CB010F900F900F900F90A7
:1051D000DF91CF9108958F929F92AF92BF92CF921D
:1051E000DF92EF92FF920F931F93CF93DF93CDB790
:1051F000DEB728970FB6F894DEBF0FBECDBF8C0187
:105200006F8378872F8138852817390771F480E0FC
:1052100090E2121613060CF471C090E080E0232B8C
:1052200009F46CC080E090EA69C0990F880B982F50
:1052300080959095980128273927A901481B590B7B
:105240005E834D838F819885990F880B982F809569
:1052500090952F81388528273927B901681B790B4C
:105260007A83698364EE77EF81EB9DE38EDFD82E3E
:10527000C92E69EF7DE78CEA9EE387DF7C018F8191
:1052800098859C01990F440B550B4801012E000C89
:10529000AA08BB08A981BA816D817E81A617B707CC
:1052A0000CF03FC0D501C4016FE0880F991FAA1F01
:1052B000BB1F6A95D1F789839A83AB83BC83BC01FA
:1052C000CD010E9445344901C901990F880B982FDF
:1052D00080959095BC0162277925681B790B8D2DEF
:1052E0009C2D0E946312B4018E0D9F1D0E946312BB
:1052F000AF81B8851A161B060CF0905828960FB689
:10530000F894DEBF0FBECDBFDF91CF911F910F91FB
:10531000FF90EF90DF90CF90BF90AF909F908F90D5
:105320000895CA01B9012FE0660F771F881F991FE2
:105330002A95D1F769837A838B839C83A501940195
:105340000E9445344901C901990F880B982F809517
:105350009095BC0168257925681B790B8D2D9C2DB6
:105360000E946312B4018E0D9F1D0E9463129C0166
:1053700080E090E41016110614F080E090EC821B9F
:10538000930BBCCF8F929F92AF92BF92CF92DF923E
:10539000EF92FF920F931F93CF93DF93CDB7DEB7BA
:1053A000EA970FB6F894DEBF0FBECDBF89AF9AAFB4
:1053B0001092190210921802D0903D05ED2CF12C9C
:1053C00080912301882311F180910C018823F1F051
:1053D000A0910601B0910701E0910801F091090147
:1053E0009E012F5D3F4F42E01C966C9180810E9490
:1053F000C113882359F009A11AA1102701271027EA
:105400000E151F0508F08FC0109217028091180228
:10541000909119028115914009F0E5C2C0901A02DD
:10542000D0901B02E0901C02F0901D0277E1F594F1
:10543000E794D794C7947A95D1F7D0921B02C09283
:105440001A0280901E0290901F02A0902002B0903D
:105450002102E7E1B594A79497948794EA95D1F750
:1054600090921D0280921C024091220250912302D0
:105470006091240270912502F7E175956795579523
:105480004795FA95D1F750931F0240931E02009161
:105490002602109127022091280230912902A7E1CB
:1054A0003595279517950795AA95D1F71093210261
:1054B0000093200280914805009FF001019FF00DAC
:1054C000F00D1124813009F4D7C1823009F4DEC215
:1054D000811165C2449FC001459F900D900D11241C
:1054E0008E0F9F1F880F991FE0E0F0E8E81BF90B73
:1054F000489DD001499DB00D589DB00D11240C9DC3
:10550000C0010D9D900D1C9D900D11249D01281B27
:10551000390BC901BF01880F991F5DDE90931602F8
:10552000809315023CC2E0910801F091090181814C
:1055300092819695879580179107B0F4A091060106
:10554000B09107019E012F5D3F4F41E053966C9152
:1055500080810E94C113882309F458CF89A184FF58
:1055600003C00E94FD1A52CFA0910601B09107011D
:10557000E0910801F09109019E012F5F3F4F4D2DF1
:105580001D966C9180810E94C113882309F43ECF3F
:10559000C801B7010E94FC33615060931702E0918B
:1055A0003905F0913A05CF0184719927892B09F4C7
:1055B00061C129813A814B815C81CA01B9010E9494
:1055C00061344B015C0180921A0290921B02A092FE
:1055D0001C02B0921D028D819E81AF81B885BC01F5
:1055E000CD010E9461346B017C01C0921E02D092F9
:1055F0001F02E0922002F092210229853A854B8514
:105600005C85CA01B9010E9461348B019C01009341
:1056100022021093230220932402309325028D85C9
:105620009E85AF85B889BC01CD010E946134AB0174
:10563000BC01409326025093270260932802709386
:105640002902C501BB2797FDB095AB2F8BA39CA367
:10565000ADA3BEA3C701BB2797FDB095AB2F8FA30A
:1056600098A7A9A7BAA7C901BB2797FDB095AB2FEB
:105670008BA79CA7ADA7BEA7CB01BB2797FDB09575
:10568000AB2F8FA798ABA9ABBAAB2BA13CA14DA177
:105690005EA1CA01B9010E94ED336BA37CA38DA367
:1056A0009EA32FA138A549A55AA5CA01B9010E94F8
:1056B000ED336FA378A789A79AA7CBA0DCA0EDA0B4
:1056C000FEA0C60ED71EE81EF91E2BA53CA54DA5B3
:1056D0005EA5CA01B9010E94ED33C60ED71EE81EB1
:1056E000F91E2FA538A949A95AA9CA01B9010E94D2
:1056F000ED336BA37CA38DA39EA3C60ED71EE81E1D
:10570000F91E9FE0F91AA1E0CA16D104E104A2E053
:10571000FA0638F00E94FD1A10921902109218022F
:1057200075CE8091180290911902916090931902A0
:105730008093180280E1E6FF4DC0A1E0B0E0AC0F1D
:10574000BD1FA80FB11D9C9121E0280FA1E0B0E082
:10575000AC0FBD1FA20FB11D2C91392F309301004A
:105760002093000092E0980FA1E0B0E0AC0FBD1FC5
:10577000A90FB11D9C9123E0280FA1E0B0E0AC0F70
:10578000BD1FA20FB11D2C91392F30930300209320
:10579000020094E0980FA1E0B0E0AC0FBD1FA90F8C
:1057A000B11D9C9125E0280FA1E0B0E0AC0FBD1F1A
:1057B000A20FB11D2C91392F3093050020930400C6
:1057C0008A5F2091180230911902286030931902E3
:1057D00020931802E078F170EF2B09F417CEE1E086
:1057E000F0E0EC0FFD1FE80FF11D908121E0280F84
:1057F000E1E0F0E0EC0FFD1FE20FF11D2081392FF9
:10580000309301002093000092E0980FE1E0F0E077
:10581000EC0FFD1FE90FF11D908123E0280FE1E05F
:10582000F0E0EC0FFD1FE20FF11D2081392F3093C6
:1058300003002093020094E0980FE1E0F0E0EC0F09
:10584000FD1FE90FF11D90818B5FE1E0F0E0EC0FAF
:10585000FD1FE80FF11D80819093050080930400E7
:105860008091180290911902806790931902809399
:105870001802CCCD80E05FCF089DC001099D900D3E
:10588000189D900D11244C9D90014D9D300D5C9DF7
:10589000300D11247C01E21AF30AB701C7010E94FE
:1058A00063128C01BC010E9463125C01BC010E9466
:1058B00063126C0160E670EB89E39DE366DCB8017E
:1058C0000E9463128BA39CA36AE27EEE87E39CE3B3
:1058D0005CDC8FA398A76EEF7AEB87ED9CE355DC39
:1058E000B8010E9463128BA79CA766EA79EB88EA4D
:1058F0009CE34BDC8FA798AB62E377E88AEF9CE3ED
:1059000044DCB8010E9463128BAB9CAB63E87EEC75
:1059100086E39DE33ADC8DAB9EAB6AEC79E989E9DD
:105920009DE333DCB8010E9463128FAB98AF6AEA43
:105930007AEA8AE29EE329DC4C01B5018BA19CA1A5
:105940004FA158A5841B950B0E9463122BA53CA563
:10595000AFA5B8A92A0F3B1FB601820F931F0E9463
:1059600063126C01B5018BA99CA9EDA9FEA98E0F4C
:105970009F1F0E9463128C0D9D1D2FA938AD820EB2
:10598000931EB801880D991D0E946312B7010E94F1
:105990006312E80EF91EF0921602E0921502809151
:1059A0001502909116028A3939E193070CF48DC0E3
:1059B00089E999E1909316028093150220911502CE
:1059C0003091160245E0429FC001439F900D112483
:1059D00020913E05222319F091958195910990938C
:1059E0001602809315022091150230911602309311
:1059F000B3022093B202032E000C440B550B80918E
:105A0000410590914205092E000CAA0BBB0B281BE7
:105A1000390B4A0B5B0BA0913F05B09140057DD738
:105A200020E034E040E050E030D7DA01C90190587E
:105A3000A109B109811550E895075FEFA507B507E2
:105A400024F480E090E8AFEFBFEF8115E0E89E0717
:105A5000A105B10524F08FEF9FE7A0E0B0E0E9AD2C
:105A6000FAAD93878287EA960FB6F894DEBF0FBE31
:105A7000CDBFDF91CF911F910F91FF90EF90DF90FD
:105A8000CF90BF90AF909F908F900895CC9CC00115
:105A9000CD9C900D900D11248E0F9F1F880F991F84
:105AA000E0E0F0E8E81BF90B8C9CD0018D9CB00D78
:105AB0009C9CB00D1124049FC001059F900D149F64
:105AC000900D11248A0F9B1F25CD8736964E0CF022
:105AD00075CF87E696EE6ECF8F929F92AF92BF9270
