:1000000010C700002BC700000C94581F27C7000022
:1000100025C7000023C7000021C700001FC700003C
:100020001DC700001BC7000019C7000017C700004C
:1000300015C7000013C7000011C700000FC700005C
:100040000C94AA1F0BC7000009C7000007C70000D7
:1000500005C7000003C7000001C70000FFC600007D
:100060000C94CD1FFBC600000000000024002700F8
:100070002A000000000023002600290000000000E4
:10008000250028002B0001020408102040800102F6
:1000900004081020010204081020040404040404CD
:1000A0000404020202020202030303030303020F19
:1000B00000000001010115D4A20011000000FFFFA3
:1000C000FFFFFFFFFFFFFFFFFFFFFFFFFFFFFF003F
:1000D000FF00FF00FF00FF00FF0040404000B80BA2
:1000E00004160D0E0F33280B504F525151FFFFFFD6
:1000F000FFFFFF00FF00FF00FF000D0080000EFF6C
:10010000000010FFFF000F0000FF09FF4500000086
:1001100000000000000000000000000000000000DF
:1001200000000000000000000000000000000000CF
:1001300000000000000000000000000000000000BF
:1001400000000000000000000000000000000000AF
:10015000000000000000000000000000000000009F
:10016000000000000000000000000000000000008F
:10017000000000000000000000000000000000007F
:10018000000000000000000000000000000000006F
:10019000000000000000000000FF000000800000E0
:1001A00000000080000000000080FF7F0000008051
:1001B000FF7F00000080FF7F00000080FF7F0514AC
:1001C000000000000000000000000000000000022D
:1001D0000000010102020000000000000003000214
:1001E00002020101000201020100030002010000FD
:1001F0000002020201010000700000000024000063
:1002000000020003000000650054FFEF0000FA80C8
:10021000000B12820001030C30C30E8C8CE914D544
:10022000400213710F8E3883F8833000F883258ED7
:10023000F8833000F883FFFFFFFF0FFEA9D62400EC
:1002400004001A8279A10000003CFFFF00000010AA
:10025000000038836FA2003E03304000000002CA55
:10026000E3093E8000002000000000000000400084
:10027000000060000000000C0000000C186E000080
:1002800006920A16C0DFFFFF0256FD8CD377FFE10E
:10029000C496E0C5BEAA00000000FFFF0B2B0000C3
:1002A0001657000003594000000000001DFA00022C
:1002B0006C1D000000003FFFDFEB003EB3B6000DF9
:1002C000227800002F3C00000000001942B5000019
:1002D00039A20000B365D90E9FC91DCF4C34300040
:1002E0000000500000003BB67AE80064000000C83F
:1002F000000000000000100000001000FA92100042
:10030000225E000D229F0001000000320000FF4627
:10031000000063D400001000000004D6000004CCEC
:10032000000004CC0000000010720000004000003B
:1003300000000000000000060002000500070000A9
:10034000000000640000000000000000000500053F
:100350000064002000000000000000000000000019
:1003600040000000030000000032F8980000FF6524
:100370000000830F0000FF9BFC0000000000000055
:10038000000000000000000000000000000000006D
:10039000000000000000000000000000000000005D
:1003A00000000000100040000000000000060000F7
:1003B000B26A000200000001FB830068000000D95F
:1003C000FC007CF1FF830000000000650000006479
:1003D00003E800640028000000250000000016A0CB
:1003E00000000000100000001000002F00000000BE
:1003F00001F40000100000280000FFFF4581FFFF0E
:10040000FA72000000000000000000440005000532
:10041000BAC6004778A200000001000000000000FA
:100420000600000000140000254D002F706D000034
:1004300005AE000C02D0000000000000000000002B
:10044000000000000000001B000000000000000091
:100450000000000000000064000000080000000030
:10046000000000000000000000000000000000008C
:10047000000000000000000000000000000000007C
:10048000000000000000000000000000000000006C
:10049000000000000000000000000000000000005C
:1004A000000000000000000000000000000000004C
:1004B000000000000000001B000000000000000021
:1004C0000000000E000E00000AC70004000000003B
:1004D0000032FFFFFF9C00000B2B00000002000019
:1004E000000100000064FFE50000000000000000C3
:1004F00000000000000000000001000000000001FA
:1005000000000000000000018000000180000001E8
:100510008000002426D30000000000000000000638
:1005200000100096003C00000000000000000000E9
:100530000000000000000C0A4E68CDCF770950166D
:100540006759C619CE8200000000000000000000BC
:10055000000000000000000000000000000017D7AD
:100560008400030000000000000000000000C793AA
:100570008F9D1E1B1C1900000000000000000000E1
:100580000000000000000000000000000000020366
:100590001885000040000000000300000003000078
:1005A000000000000000400000000000000000000B
:1005B000000000000000000000000000000000003B
:1005C000000000000000000000000000000000002B
:1005D00000000000000000000000677DDF7E7290D8
:1005E0002E554CF6E68800000000000000000000D8
:1005F000000000000000D8DCB4B8B0D8B9ABF3F804
:10060000FAB3B7BB8E9EAEF132F51BF1B4B8B08031
:1006100097F1A9DFDFDFAADFDFDFF2AAC5CDC7A927
:100620000CC92C97F1A989264666B28999A92D553E
:100630007DB0B08AA896365676F1BAA3B4B280C01F
:10064000B8A89711B28398BAA3F02408441064188C
:10065000B2B9B49883F1A329557DBAB5B1A38393F8
:10066000F0002850F5B2B6AA839328547CF1B9A3C0
:10067000829361BAA2DADEDFDB819AB9AEF56068F7
:1006800070F1DABAA2DFD9BAA2FAB9A38292DB3149
:10069000BAA2D9BAA2F8DF85A4D0C1BBAD83C2C5C6
:1006A000C7B8A2DFDFDFBAA0DFDFDFD8D8F1B8AA92
:1006B000B38DB4980D355DB2B6BAAF8C96198F9FD5
:1006C000A70E161EB49AB8AA872C547CBAA4B08A76
:1006D000B691325676B28494A4C808CDD8B8B4B0D6
:1006E000F19982A82D557D98A80E161EA22C547C37
:1006F00092A4F02C5078F184A898C4CDFCD80DDBDE
:10070000A8FC2DF3D9BAA6F8DABAA6DED8BAB2B6E2
:100710008696A6D0F3C841DAA6C8F8D8B0B4B88295
:10072000A892F52C548898F135D9F418D8F1A2D0B4
:10073000F8F9A884D9C7DFF8F883C5DADF69DF8361
:10074000C1D8F40114F1A8824EA884F311D182F526
:10075000D992289788F109F41C1CD884A8F3C0F911
:10076000D1D99782F129F40DD8F3F9F9D1D982F4CE
:10077000C203D8DEDF1AD8F1A2FAF9A88498D9C743
:10078000DFF8F8F883C7DADF69DFF883C3D8F4014C
:1007900014F198A8822EA884F311D182F5D9925031
:1007A0009788F109F41CD884A8F3C0F8F9D1D99737
:1007B00082F149F40DD8F3F9F9D1D982F4C403D800
:1007C000DEDFD8F1AD8898CCA809F9D98292A8F5D6
:1007D0007CF1883ACF944A6E98DB6931DAADF2DE6B
:1007E000F9D88795A8F221D1DAA5F9F417D9F1AE95
:1007F0008ED0C0C3AE82C684C3A88595C8A588F232
:10080000C0F1F4010EF18E9EA8C63E56F554F18853
:1008100072F40115F19845856EF58E9E0488F142BB
:10082000985A8E9E068869F4011CF1981E1108D012
:10083000F504F11E970202983625DBF9D985A5F358
:10084000C1DA85A5F3DFD88595A8F309DAA5FAD82A
:100850008292A8F578F1881A849F26889821DAF484
:100860001DF3D8879F39D1AFD9DFDFFBF9F40CF343
:10087000D8FAD0F8DAF9F9D0DFD9F9D8F40BD8F3EF
:10088000879F39D1AFD9DFDFF41DF3D8FAFCA8690F
:10089000F9F9AFD0DADEFAD9F88F9FA8F1CCF39846
:1008A000DB45D9AFDFD0F8D8F18F9FA8CAF388090C
:1008B000DAAF8FCBF8D8F2AD978D0CD9A5DFF9BAA6
:1008C000A6F3FAF412F2D8950DD1D9BAA6F3FADA52
:1008D000A5F2C1BAA6F3DFD8F1BAB2B68696A6D011
:1008E000CAF349DAA6CBF8D8B0B4B8D8AD84F2C010
:1008F000DFF18FCBC3A8B2B68696C8C1CBC3F3B025
:10090000B48898A821DB718D9D71859521D9ADF2B0
:10091000FAD88597A828D9F408D8F28D29DAF405F1
:10092000D9F285A4C2F2D8A88D9401D1D9F411F2DC
:10093000D88721D8F40AD8F28498A8C801D1D9F46C
:1009400011D8F3A4C8BBAFD0F2DEF8F8F8F8F8F885
:10095000F8F8D8F1B8F6B5B9B08A95A3DE3CA3D9BA
:10096000F8D85CA3D9F8D87CA3D9F8D8F8F9D1A5E0
:10097000D9DFDAFAD8B18530F7D9DED8F830ADDA78
:10098000DED8F2B48C99A32D557DA083DFDFDFB5CF
:1009900091A0F629D9FBD8A0FC29D9FAD8A0D0512A
:1009A000D9F8D8FC51D9F9D879D9FBD8A0D0FC799D
:1009B000D9FAD8A1F9F9F9F9F9A0DADFDFDFD8A17E
:1009C000F8F8F8F8F8ACDEF8ADDE8393AC2C547C84
:1009D000F1A8DFDFDFF69D2CDAA0DFD9FADB2DF8F6
:1009E000D8A850DAA0D0DED9D0F8F8F8DB55F8D87E
:1009F000A878DAA0D0DFD9D0FAF8F8F8F8DB7DF8DB
:100A0000D89CA88CF530DB38D9D0DEDFA0D0DEDF73
:100A1000D8A848DB58D9DFD0DEA0DFD0DED8A86860
:100A2000DB70D9DFDFA0DFDFD8F1A888902C547C01
:100A300098A8D05C38D1DAF2AE8CDFF9D8B087A8AC
:100A4000C1C1B188A8C6F9F9DA36D8A8F9DA36D81A
:100A5000A8F9DA36D8A8F9DA36D8A8F9DA36D8F704
:100A60008D9DADF818DAF2AEDFD8F7ADFA30D9A423
:100A7000DEF9D8F2AEDEFAF983A7D9C3C5C7F1888B
:100A80009BA77AADF7DEDFA4F8849408A797F3005C
:100A9000AEF29819A488C6A39488F632DFF2839345
:100AA000DB09D9F2AADFD8D8AEF8F9D1DAF3A4DE9F
:100AB000A7F1889B7AD8F38494AE19F9DAAAF1DF0A
:100AC000D8A881C0C3C5C7A39283F628ADDED9F8E4
:100AD000D8A350ADD9F8D8A378ADD9F8D8F8F9D1C2
:100AE000A1DADEC3C5C7D8A18194F818F2B089ACE9
:100AF000C3C5C7F1D8B8B4B09786A8319B0699078B
:100B0000AB9728889BF00C201440B0B4B8F0A88AAA
:100B10009A285078B79BA82951792470594469388C
:100B2000644831F1BBAB88002C547CF0B38BB8A87F
:100B300004285078F1B088B49726A85998BBABB375
:100B40008B02264666B0B8F08A9CA82951798B2979
:100B500051798A2470598B2058718A4469388B39AD
:100B600040688A6448318B30496088F1AC002C546D
:100B70007CF08CA804285078F1889726A85998AC66
:100B80008C02264666F0899CA82951792470594424
:100B90006938644831A98809205970AB1138406917
:100BA000A8193148608CA83C415C207C00F18798F2
:100BB0001986A86E767EA999882D557DD8B1B5B9CC
:100BC000A3DFDFDFAED0DFAAD0DEF2ABF8F9D9B019
:100BD00087C4AAF1DFDFBBAFDFDFB9D8B1F1A397DC
:100BE0008E60DFB084F2C8F8F9D9DED89385F14A77
:100BF000B183A308B5839A0810B79F10D8F1B0BA93
:100C0000AEB08AC2B2B68E9EF1FBD9F41DD8F9D926
:100C10000CF1D8F8F8AD61D9AEFBD8F40CF1D8F8E6
:100C2000F8AD19D9AEFBDFD8F416F1D8F8AD8D6167
:100C3000D9F4F4ACF59C9C8DDF2BBAB6AEFAF8F47F
:100C40000BD8F1AED0F8AD51DAAEFAF8F1D8B9B1AF
:100C5000B6A3839C08B9B1839AB5AAC0FD3083B707
:100C60009F10B58B93F20202D1ABDADED8F1B080DF
:100C7000BAABC0C3B284C1C3D8B1B9F38BA391B628
:100C800009B4D9ABDEB0879CB9A3DDF1B38B8B8BF4
:100C90008B8BB087A3A3A3A3B28BB69BF2A3A3A312
:100CA000A3A3A3A3A3A3A3F1B087B59AA3F39BA384
:100CB000A3DCBAACDFB9A3A3A3A3A3A3A3A3A3A359
:100CC000A3A3A3A3A3A3D8D8D8BBB3B7F1AAF9DA37
:100CD000FFD9809AAA28B48098A720B79787A866DA
:100CE00088F07951F1902C870CA781976293F0716D
:100CF000716085940129517990A5F1284C6C870C7D
:100D000095188578A38390284C6C886CD8F3A282C0
:100D100000F210A8921980A2F2D926D8F188A84D25
:100D2000D948D896A83980D93CD89580A839A686C4
:100D300098D92CDA87A72CD8A8899519A980D938F1
:100D4000D8A88939A980DA3CD8A82EA83990D90C1E
:100D5000D8A8953198D90CD8A809D9FFD801DAFFBD
:100D6000D89539A9DA26FFD890A80D8999A81080BE
:100D70009821DA2ED88999A83180DA2ED8A88696BB
:100D80003180DA2ED8A8873180DA2ED8A88292F363
:100D90004180F1D92ED8A882F31980F1D92ED882BA
:100DA000ACF3C0A28022F1A62EA72EA92298A829D2
:100DB000DAACDEFFD8A2F22AF1A92E8292A8F23193
:100DC00080A696F1D900AC8C9C0C30ACDED0DEFF56
:100DD000D88C9CACD010ACDE8092A2F24C82A8F1F0
:100DE000CAF235F19688A6D900D8F1FF0E0C0D0F86
:100DF00008FFFF09050406070A0B0F0C0D0E08FF7C
:100E0000FF09050406070A0B0F0C0D0E0908FFFF6A
:100E1000050406070A0B2126010700000000756E75
:100E20006F0011241FBECFEFD8E0DEBFCDBF12E0B0
:100E3000A0E0B1E0E2EFFEE502C005900D92AC311A
:100E4000B107D9F725E0ACE1B2E001C01D92A231B3
:100E5000B207E1F70E9464200C94772FD1C8CF939A
:100E6000DF93FC01DA0186E0EB01888385E0808373
:100E700015962C911597822F922F990F990B97FD0C
:100E8000079653E0959587955A95E1F782831796D3
:100E90002C911797822F922F990F990B91958195ED
:100EA000910997FD079643E0959587954A95E1F757
:100EB00083831B962C911B97822F922F990F990B4E
:100EC00097FD079633E0959587953A95E1F78483EA
:100ED00019962C911997822F922F990F990B97FDA4
:100EE000079623E0959587952A95E1F785831196D6
:100EF0009C9111979295917081818E7F982B91830F
:100F000011968C911197829582709D7F892B818398
:100F100011969C919695969596959870877F892BBA
:100F20008183DF91CF9108950F931F93CF93DF9328
:100F3000FC01DA018CE1EB01888384E08083C4E268
:100F4000D1E040E050E061E070E0242F09910F3FD4
:100F500049F1CB0102C0880F991F0A95E2F78C0175
:100F60008D919C9111970823192381E090E0012B2A
:100F700011F480E090E0022E02C0880F991F0A94BD
:100F8000E2F78B0102C0000F111F2A95E2F79801CA
:100F9000209530950181128120233123822B932BC0
:100FA000928381834F5F5F4F4E30510571F6CC9134
:100FB000CF7088E0CB3020F4D0E0CC50DE4F888179
:100FC00083831A966D917C911B97809184048F3155
:100FD00029F0853219F0883209F07BC019969C916E
:100FE00019979595905496831A962D913C911B973D
:100FF00076E0359527957A95E1F728523109358BBA
:10100000248B9DE79783833219F08E3109F082C0DB
:1010100021E030E012969C911297933310F420E077
:1010200030E044E0220F331F4A95E1F741815281BD
:101030004F7E242B352B3283218341E050E01396E1
:101040009C911397933310F440E050E095E0440FE7
:10105000551F9A95E1F72F7D422B532B52834183E5
:1010600012969C911297948713969C91139795874B
:1010700015969C9115979058948317962C911797D5
:101080002058258319969C911997905896831B9602
:101090009C911B9790589783843209F041C0159614
:1010A0008C9115978058868317968C911797805846
:1010B000878314968D919C911597958B848B1696AA
:1010C0008D919C91978B868BDF91CF911F910F9182
:1010D0000895813219F0863209F095CF19969C91C6
:1010E000199790589683218132812F7D41E050E0FD
:1010F0006F3F7F4711F040E050E065E0440F551F1F
:101100006A95E1F7242B352B3283218312969C912B
:10111000129778CF90E8948395838432A9F6BFCF55
:101120008E3191F62095258390959783CDCFDC0164
:101130001596EC91F0E0E558FE4F80818F3F81F0ED
:1011400021E030E002C0220F331F8A95E2F7809140
:101150004002909141022823392381E0232B09F496
:1011600080E00895CF93DF93CDB7DEB728970FB611
:10117000F894DEBF0FBECDBFDC011B96EC911B9730
:10118000EF3F91F41196ED91FC91129780819C9123
:10119000892391E0811101C090E081E013962C91A8
:1011A0009217B9F080E015C088E0E89FF0011124A3
:1011B000EB58FC4F88E0DE01119601900D928A9564
:1011C000E1F74C815D8181E02E813F812417350755
:1011D00048F728960FB6F894DEBF0FBECDBFDF915B
:1011E000CF910895FC0180913F018830E9F089306A
:1011F000F1F08BE991E0E581E80FF92FF11D808195
:101200008F3F81F021E030E002C0220F331F8A952A
:10121000E2F780914202909143022823392381E032
:10122000232B09F480E008958BEA91E0E4CF8BE86A
:1012300091E0E1CFCF93DF93EC018FEC92E092DF6E
:10124000882339F08FEF9FE79B878A87DF91CF91C3
:10125000089580E090E0F8CFCF93DF9300D000D0E6
:10126000CDB7DEB72FB7F89480919A0290919B0288
:10127000A0919C02B0919D022FBF9C01AD0187E01F
:10128000220F331F441F551F8A95D1F7CA01B90198
:101290002DE730E040E050E00E94A92E29833A83F8
:1012A0004B835C83CA01B9010F900F900F900F9090
:1012B000DF91CF910895CF93DF9300D000D0CDB7C9
:1012C000DEB73FB7F89480919A0290919B02A0916B
:1012D0009C02B0919D0226B5A89B05C02F3F19F036
:1012E0000196A11DB11D3FBFBA2FA92F982F8827A6
:1012F000820F911DA11DB11D9C01AD0162E0220F65
:10130000331F441F551F6A95D1F729833A834B83B6
:101310005C83CA01B9010F900F900F900F90DF917D
:10132000CF910895CF92DF92EF92FF920F931F9388
:10133000CF93DF93EC016B01BA01A901F801C7015A
:1013400020812630E0F4209771F000271127041B3C
:10135000150B601771073CF431962E0D3F2D311D92
:10136000D9011396CC93C114D10449F046175707FD
:1013700034F42081820F911DDC011396CC92DF9111
:10138000CF911F910F91FF90EF90DF90CF90089534
:101390007F928F929F92AF92BF92CF92DF92EF9205
:1013A000FF920F931F93CF93DF9300D000D000D014
:1013B000CDB7DEB78D839E8369837A83DA0187E0B8
:1013C000ED81FE818083A090DC02B090DD02D090A0
:1013D0003E034EED52E084E892E09C838B83BD0196
:1013E0006052710920E030E0F12CFA018191AF01E7
:1013F000882309F441C000E9E02E813011F010EBA0
:10140000E12E203108F076C0DD2009F45CC02930DF
:1014100008F459C0C9018B599C4FFC018081869505
:10142000EB81FC819081981739F1FA0193A5C58869
:10143000EB81FC8180838F2C912CF4E0FF9E800156
:101440001124ED81FE810E0F1F1F7E2C7294EFE0A0
:101450007E22F80171829E299283C38284010F5FEC
:101460001F4F000F111F000F111FED81FE810E0F86
:101470001F1FF8018083F3942F5F3F4F8B819C8166
:1014800001969C838B836E5F7F4F2631310509F077
:10149000ACCFFF0CFF0CF394E981FA81F0820F903E
:1014A0000F900F900F900F900F90DF91CF911F91A1
:1014B0000F91FF90EF90DF90CF90BF90AF909F90F3
:1014C0008F907F9008950D911C91119781E090E08D
:1014D000022E02C0880F991F0A94E2F780239123FD
:1014E00011E0892B09F410E0812F8295880F880F75
:1014F000807C95CF233150F081E0FB010081118188
:10150000A016B10608F48BCF80E089CFC9010E97F1
:101510008A0F9B1FFC01008110E081E0A016B1063C
:101520000CF47DCFF1CF8EBD00000DB407FEFDCFD2
:101530008EB50895EF92FF920F93DC01CB01642FDB
:1015400070E0FB01E656FF4F34916A577F4FFB0175
:101550006491E32FF0E0EE0FFF1FEE2049F1E45815
:10156000FF4FE590F49015962C93159714964C9395
:1015700014976C931196EC9211971296FC92129715
:1015800013960C931397FC01E05FFE4F80811A962F
:101590008C931A978FEF1B968C931B9716961D9220
:1015A0001D921D921C9219970F91FF90EF90089534
:1015B000EE58FF4FD6CF90E0FC01EA57FF4F249141
:1015C000FC01E656FF4FE491EE2389F0F0E0EE0FC8
:1015D000FF1FE458FF4FA591B4919FB7F8948C91E9
:1015E000611106C0E22FE095E823EC939FBF0895B8
:1015F000822B8C93FBCF90E0FC01EA57FF4F2491A4
:10160000FC01E656FF4FE491EE2361F0F0E0EE0FAF
:10161000FF1FEE58FF4FA591B491EC91E22381E0BA
:10162000E11101C080E00895806480937C00809186
:101630007A00806480937A0080917A0086FDFCCFE6
:101640008091780090917900089580917A0086FDCC
:10165000FCCF81E080933E010895CF93DF9390E02B
:10166000FC01EA57FF4F249186569F4FFC0184915D
:101670008823D1F090E0880F991FFC01E859FF4FB3
:10168000A591B491FC01E458FF4FC591D49161300C
:1016900071F49FB7F8948C91209582238C93888164
:1016A000282328839FBF7894DF91CF9108956250BB
:1016B0009FB7623050F4F8943C91822F8095832339
:1016C0008C938881822B8883EDCFF8948C91822B28
:1016D0008C93E8CFCF92DF92EF92FF920F93CF934C
:1016E000DF936B017C01C42FD22F60E08BE0B5DF6C
:1016F00062E08CE0B2DF60E08DE0AFDF61E08AE0C5
:101700005ADF60E08AE0A9DFCC0FCC0FCC0FD111FB
:10171000C4600111C062C11482E1D8068AE7E806FC
:10172000F10448F5C11489E0D8068DE3E806F10418
:1017300020F580E8C81684E8D8068EE1E806F104B2
:10174000F0F480E4C81682E4D8068FE0E806F104DD
:10175000C0F083E091E08927982F96959C2B9065A7
:101760009CBD81708DBDDF91CF910F91FF90EF9067
:10177000DF90CF90089580E0EDCF81E0EBCF82E065
:10178000E9CF84E0E7CFEAE7F0E0808184608083FE
:101790008081826080838081816080838081806895
:1017A00080830895682F8AE006CF982F8D30A9F0A6
:1017B000823098F08091BC02882321F02EEE290F10
:1017C000223068F086EF890F843038F081E098305D
:1017D00031F0923021F080E0089581E0089508957D
:1017E0000F931F93CF93DF938091F404811109C06D
:1017F0001092DF041092F404DF91CF911F910F91AA
:10180000089500EE14E0C0E08C2FF5DEF80181931E
:101810008F01CF5FC431C1F78091BB028F3F11F0C0
:1018200060E01BDFC2ECD3E000E010E08091A90390
:101830009091AA0308171907DCF68C819B852B81F0
:10184000211103C062E09F3F09F061E006DF0F5FF6
:101850001F4F2C96EBCF8F929F92AF92BF92CF9259
:10186000DF92EF92FF920F931F93CF93DF9300D0FD
:1018700000D000D0CDB7DEB75C016D837E838C01D4
:101880008D809E80840E911C8D819E818815990586
:1018900099F40F900F900F900F900F900F90DF9191
:1018A000CF911F910F91FF90EF90DF90CF90BF905D
:1018B000AF909F908F9008958AE5A114B10411F024
:1018C000F801808130DEED81FE818193FE83ED831E
:1018D00010924A02F0DC6B017C0180914A02811176
:1018E0000FC0E9DC69837A838B839C83DC01CB01A5
:1018F0008C199D09AE09BF09C397A105B10568F30D
:101900000F5F1F4FC1CF0F931F93CF93DF93AC0196
:10191000FB0180818052990B880F880FDA011496A1
:101920001C92149715968C93159781818052990B70
:10193000880F880F16961C92169717968C938481A1
:10194000958180959095409184044A3278F0438146
:1019500041FF0CC04095407E528156955E735231D6
:1019600009F449C05E3011F440936E034581542F51
:1019700056955695569561E056275170D52FD295BC
:10198000DD0FD07EB0E0CB2F967D8C2B9D2B542F7E
:1019900052955695577056275170152F110F110FEC
:1019A000110F00E0802B912B9B7FE42F042E000C65
:1019B000FF0BE095F0955F2F551F5527551FE0E071
:1019C000F0E0F52FFF0FFF0F8E2B9F2B9F77469593
:1019D000469546274170342F37953327379520E0B9
:1019E000822B932B9093410280934002DF91CF9101
:1019F0001F910F91089540937103B8CFFC01DB0153
:101A00008C91880F880F80581482858311968C9151
:101A10001197880F880F80581682878313962C9110
:101A200013972F712E50330B37FF02C020E030E0A8
:101A300031872087C901880F991F820F931F803239
:101A4000910514F08FE190E04097880F880F880F80
:101A50001086818714968D919C911597809590950D
:101A6000909341028093400220919E02222371F0C4
:101A70001296EC91EF71EE50E695F0E0E559FE4FCD
:101A80002081922B90934102809340020895FC01A3
:101A9000DB018C918058990B1482858312968C916E
:101AA00012978058990B1682878311968C91119703
:101AB0008058990B1086818713968C9113978058C4
:101AC000990B1286838714968C91149782831596AE
:101AD0008C911597838316968D919C918095909506
:101AE00090934102809340020895FC01DB018C91A8
:101AF0008F738052990B9583848311968C911197E3
:101B00008F738052990B978386838C9190E023E0AA
:101B1000959587952A95E1F78871992711962C91CB
:101B2000119730E045E0359527954A95E1F7267005
:101B30003327822B932B12962C911297221F222748
:101B4000221F822B4097880F880F1086818712965C
:101B50008C9112978F718051990B880F880F128684
:101B6000838712969C9112979695969598711396E5
:101B70008C911397829586958770892B8283139613
:101B80008C9113978F71838314968D919C9180957E
:101B9000909590934102809340020895FC01DB01EF
:101BA00012963C91129711968C9111978295869579
:101BB00086709C919695969596959871892B932F02
:101BC000991F9927991F892B13966C911397149637
:101BD0009C91149790FF33C0262F20952F71205E83
:101BE000432F50E09FE330FF90E2981B892F30E0B5
:101BF0003583248390E097838683CA0195958795E2
:101C0000959587958871629566956770682B70E0E9
:101C100071876087559547954F7050E0538742878D
:101C200014968D919C919827892798278095909557
:101C30008D7C937690934102809340020895962F75
:101C40009F7120E2291BCCCFCF93DF93DC01EB0106
:101C50008A8190E0982F882788279F706881862B3B
:101C600015969C938E9314978A8120E1829FC001E0
:101C7000112488279F706981862B17969C938E93D9
:101C800016978B8113968C938D8181FB992790F900
:101C9000592F5295550F550F507C40E0982F917059
:101CA000F92FF295F07FE0E04E2B5F2B869586951D
:101CB00091E089278170382F3295330F307E20E0F4
:101CC000422B532B5093410240934002DF91CF911E
:101CD0000895FC01DB018D919C911197958384837C
:101CE00012968D919C9113979783868314968C916D
:101CF00083830895FB01808190E080959095909377
:101D0000410280934002089580E04CDD81EE0BDCBF
:101D100081E048CD80E046DD82EE05DC81E042CD09
:101D200080E040DD80E5FFDB83E7FDDB81E03ACD4D
:101D3000CF9380E037DD8FEFF6DBC82F81E032DD17
:101D40008C2FCF9108950F931F93CF93DF93EC01C6
:101D50008C01060F111DC017D10729F4DF91CF9117
:101D60001F910F9108958991DEDBF5CFCF93DF931B
:101D7000D82FC62F80E016DD8D2F8062D4DB8C2F0C
:101D8000D2DB81E0DF91CF910DCDCF93DF9300D0F7
:101D900000D0CDB7DEB79C01DB010E94EE2E698337
:101DA0007A838B839C83AB01BC015F77662777279F
:101DB00081E090E0A0E0B0E041155044610571057C
:101DC00019F480E090E0DC012EE0880F991FAA1F33
:101DD000BB1F2A95D1F729813A814B815C81820F03
:101DE000931FA41FB51F3FE0B595A79597958795BD
:101DF0003A95D1F70F900F900F900F90DF91CF9100
:101E00000895F89488E198E00FB6F894A895809327
:101E100060000FBE90936000FFCF1F93CF93DF93BE
:101E2000182FD62FC72F80E0BDDC812F80627BDB8F
:101E300064E08D2F9C2F87DF81E0DF91CF911F9190
:101E4000B1CC1F93CF93DF93182FEB0180E0AADC76
:101E5000812F69DB888167DB888381E0DF91CF9107
:101E60001F91A0CCCF93DF930F92CDB7DEB7BE0109
:101E70006F5F7F4FE6DF89810F90DF91CF910895EB
:101E8000FF920F931F93CF93DF93082FF92E60E4F7
:101E900087E06CDF80E086DC80E645DB80E043DBCA
:101EA000182F81E07FDC80E07DDC81E63CDBC02F09
:101EB000DF2D8C2F801B811750F081E073DC812F88
:101EC00090E0DF91CF911F910F91FF90089589913C
:101ED0002ADBFE0131978083ECCFFF920F931F9393
:101EE000CF93DF93D82FC92FF62E072F142F1092E0
:101EF000D2041EDF282F30E0359527952770332731
:101F0000232BE1F48F2D902FBBDF60E487E02EDFE1
:101F100001E060E387E02ADF80E044DC80EA03DB65
:101F2000612F8D2F9C2F0FDF81E03CDC802F90E014
:101F3000DF91CF911F910F91FF90089500E0E9CFBD
:101F400085ED8093BC008FEF9FE72091BC0024FDBE
:101F500003C01092BA0203C001970097B1F7089529
:101F600061E08DE028DB61E08BE025DBACEAB2E0EC
:101F70001196ED91FC91129780819C91892B808321
:101F800087EC90E00197F1F700C000000895EF9210
:101F9000FF920F931F93CF93DF930F92CDB7DEB7CE
:101FA0007C01062F81E08983E091AD02F091AE02C1
:101FB00090818091AC0280958923808387EC90E0AA
:101FC0000197F1F700C0000041E06DE172E0CE0141
:101FD000019641DC42E06EE172E0C7013CDC109109
:101FE0001E021F3F61F400E010E0BADFC8010F904D
:101FF000DF91CF911F910F91FF90EF900895809105
:102000001F028A3511F08111EECF1F701F5F110F73
:10201000101B4EEF400F60E272E0C70102961BDC1E
:10202000112369F0602F70E0CB01810F911D819722
:10203000D4F6635E7D4F412F80E090E00CDC0DE133
:1020400012E0D3CFCF92DF92EF92FF920F931F93C4
:10205000CF93DF9300D000D000D0CDB7DEB78D8313
:102060009E83062FF9D86B017C0110E0602F8D81D3
:102070009E818DDFFC01892BA9F01F5F8D819E81E0
:102080008C5E914031F48181807F803F59F481E002
:1020900020C08D819E81875D914051F58181807F37
:1020A000803FA9F78FE39CE90197F1F700C000009A
:1020B000D3D869837A838B839C83DC01CB018C1911
:1020C0009D09AE09BF098B3F9105A105B10570F2CD
:1020D00080E00F900F900F900F900F900F90DF9176
:1020E000CF911F910F91FF90EF90DF90CF900895C7
:1020F0001330C0F2CCCFCF93DF93EC0180913F013E
:102100008830A1F468E087ED91E041DFFC0180E0D8
:10211000309749F08181807F803F61F468E087EDEE
:1021200091E090DF81E0DF91CF91089564E083ED4D
:1021300091E0EBCF23813481209530953093430299
:102140002093420280913F01863009F45DC068F41B
:10215000843091F0853089F1823071F0833011F74D
:1021600081858A8382858B8307C0883009F463C0A8
:102170008930D1F08730B1F685818058990B188667
:10218000898726818FE790E0AC01421B51091A86AE
:102190004B8727812058330B1C822D832085821B7F
:1021A00091091E828F83BECF85818058990B1C8236
:1021B0008D8326818FE790E0F2CF85818058990B3F
:1021C0001C828D83868187FF05C0207F3093430268
:1021D00020934202878187FF09C08091420290913B
:1021E0004302817F90934302809342028085803F27
:1021F00008F498CF8091420290914302857F90939A
:102200004302809342028ECF2581422F4058550BC6
:10221000942F8827368137FD09C027FF02C08FEF32
:102220009FEF80589F4F9D838C837CCF2138C8F7C8
:1022300081E090E0F6CF1D821C821F821E824085C5
:102240008FE790E0841B9109188689878FEF9FE7BD
:1022500030FD02C080E090E09B878A8763CF0F93B8
:102260001F93CF93DF9300D000D000D0CDB7DEB75F
:102270008E839D8380913F018830E1F01CD860936C
:1022800046027093470280934802909349028091DE
:10229000440215E08823C9F18E819D812CDF8111D4
:1022A000B8C0809145028F5F80934502853008F069
:1022B0003DC020C000D869837A838B839C83809142
:1022C000460290914702A0914802B09149022981AB
:1022D0003A814B815C81281B390B4A0B5B0BDA017D
:1022E000C90188389341A105B10540F680914502A6
:1022F0008111C4CF0F900F900F900F900F900F90FF
:10230000DF91CF911F910F9108958E819D81F3DE12
:102310008FE99FE00197F1F700C000001150111103
:10232000F4CF8E819D81E7DE811103C010924402BB
:10233000E1CF68E08CEE91E085DE882361F065E016
:1023400087EE91E07FDE68E08FED91E07BDE68E074
:1023500087ED91E077DE64E083ED91E018DE8C019B
:10236000DC0111968C91893709F583E080933F0158
:1023700068E08CEE91E066DE882391F080913F0169
:10238000823091F5F801838194818095909587FF43
:1023900003C088E080933F0168E087ED91E052DE62
:1023A00081E0809344021092450276CF982F907F6F
:1023B000903711F482E0DACF903511F484E0D6CF73
:1023C000833211F485E0D2CF903E11F486E0CECF77
:1023D000833611F487E0CACF823111F489E0C6CF89
:1023E000903431F681E0C2CF9CEF980F943028F4FE
:1023F00068E08BEC91E026DECFCF893021F468E0F5
:1024000083EC91E0F8CF833039F668E08BEB91E014
:10241000F2CF109245026ECFFF920F931F93CF938E
:10242000DF93CDB7DEB72A970FB6F894DEBF0FBEA5
:10243000CDBF6B837C838D839E832F8338874987B1
:102440005A8781E08093D20460E088E006D960E09A
:102450008AE003D900E020E040E060E074E284EF2D
:1024600090E038D960E088E0A6D881E09BD98FE180
:102470009EE40197F1F700C0000061EF84E076DC94
:1024800062E083E073DC8E010F5F1F4FB80186E0CE
:10249000D8DC6981697F86E069DC8DE1E3DCF82EB8
:1024A0003FDC8DE1DFDC882331F0F81201C038DC3D
:1024B00060E08DE15BDCBE016E5F7F4F86E0C1DCDA
:1024C0006A81677D636086E051DCB80186E0B9DC33
:1024D000B80180E0B6DC69816C6080E047DC6CE4C8
:1024E00085E044DC8DE1BEDC682F64608DE13EDC7C
:1024F0008CE1B8DC682F6F638CE138DC8DE1B2DCF5
:10250000682F66608DE132DC8CE1ACDC682F6360A3
:102510008CE12CDC6FE381E029DC60E787E026DCDE
:10252000F9DBF2DB1982B80180E08BDC19811C78C1
:1025300060E088E040D8612F626080E017DC61E0F5
:1025400088E039D8BE016D5F7F4F8AE066DCBE014E
:102550006D5F7F4F80E161DC60E088E02CD8BE01D8
:10256000695F7F4F8BE059DC63E082E0FFDB61E075
:1025700088E021D880916900826080936900E89AA0
:102580002A960FB6F894DEBF0FBECDBFDF91CF9174
:102590001F910F91FF900895CF93DF93CDB7DEB7D2
:1025A000C851D1400FB6F894DEBF0FBECDBF48E191
:1025B00051E06EEA70E0CE0101960E94192F48E1C9
:1025C00051E061E070E0CE0101960E94562FC85E96
:1025D000DE4F0FB6F894DEBF0FBECDBFDF91CF91B7
:1025E0000895CF93DF93DC01FA0184E1EB01888346
:1025F0001C9211968C93119712968CE001900D927B
:102600008A95E1F7DF91CF910895CF93282FCB01E1
:10261000C42F4FEF5FE7C13238F080E047C0415030
:10262000510941155105C9F33091BA023111F7CF63
:1026300031E03093BA023093B9024FEF4093600219
:10264000109282024C0F40938102309383023091AA
:102650008302220F232B209383022091B80222238E
:1026600091F11092B802209183022093BB002FEFCA
:102670003FE74091BC0043FD1BC025EC2093BC000C
:102680002FEF3FE74091BA024130F9F020918202EA
:102690002C1710F4C09182024C2F50E061E672E0DA
:1026A0000E94362F81E0CC2309F4B7CFCF91089553
:1026B000215031092115310509F4AFCF4091830232
:1026C0004093BB00D6CF25EED9CF2150310921153B
:1026D0003105C1F6A2CFCF93C82F8FEF9FE74132CC
:1026E00028F080E040C001970097D9F32091BA020A
:1026F0002111F9CF82E08093BA0281E08093B90280
:102700008FEF80936002109282024093810250E02A
:1027100081E692E00E94362F10928302809183021C
:10272000CC0FC82BC09383028091B802882331F16B
:102730001092B802809183028093BB008FEF9FE7D5
:102740002091BC0023FD11C085EC8093BC008FEF6D
:102750009FE72091BA02223099F09091600281E0C7
:102760009F3F09F0BECFCF9108950197009709F4DC
:10277000B8CF209183022093BB00E2CF85EEE5CF56
:102780000197009731F7ADCFEF92FF920F931F9310
:10279000CF93DF930F92CDB7DEB7182F6983E42E66
:1027A000F22E032F41E0BE016F5F7F4F94DF88233D
:1027B00071F04E2D6F2D702F812F27DF81700F90BC
:1027C000DF91CF911F910F91FF90EF90089580E0DE
:1027D00090E0F4CFFF920F931F93CF93DF930F926C
:1027E000CDB7DEB78983F62E8A0141E0BE016F5F67
:1027F0007F4F82E570DF882351F08FEC92E00197E4
:10280000F1F700C000004F2DB80182E5FEDE0F9009
:10281000DF91CF911F910F91FF9008958F929F921A
:10282000AF92BF92CF92DF92EF92FF920F931F93DE
:10283000CF93DF930F92CDB7DEB76C014A0189E0E9
:10284000DB018C93F601319688E0DF011D928A95B9
:10285000E9F786E0F6018083A4E2B3E080E090E04F
:10286000A12C41E050E0BD909C012F5F3F4FB11083
:1028700069C0C90120313105B1F76A2D6983A09083
:102880002203B0902303D40114964D915C91609182
:10289000370370E08091360376018E010F5F1F4F82
:1028A000950190E00E949209F40146815781609160
:1028B000390370E080913803950190E00E949209FD
:1028C000D40118964D915C9160913B0370E080912A
:1028D0003A03950190E00E949209F40142855385E4
:1028E00060913D0370E080913C03950190E00E946F
:1028F0009209A0902003B0902103D40112964C912C
:1029000050E06091340370E0950180E090E00E9417
:102910009209F401438150E06091350370E0950124
:1029200080E090E00E9492090F90DF91CF911F917B
:102930000F91FF90EF90DF90CF90BF90AF909F905E
:102940008F900895BA0102C0660F771F8A95E2F74B
:10295000CB01F4016081718186239723892B09F4CF
:1029600088CF61E06A0DF601EA0DF11DB382C9015D
:102970002031310509F482CF663009F47FCFA62ECD
:1029800072CF0F931F93CF93DF9300D000D000D06E
:10299000CDB7DEB78E010F5F1F4F86E0F8011192B1
:1029A0008A95E9F7A80166E08AEF14DF8FE193E0EA
:1029B0000197F1F700C00000F801AE01495F5F4FD9
:1029C0008FEF90E02191922B8223E417F507D1F746
:1029D000992379F08F3F69F099818E810F900F9044
:1029E0000F900F900F900F90DF91CF911F910F914B
:1029F00008958FEF9FEFF2CFEF92FF920F931F9307
:102A0000CF93DF9300D0CDB7DEB7082F142F732FED
:102A10008DB79EB79A83898350E0CA010196EDB7BE
:102A2000FEB7E81BF90B0FB6F894FEBF0FBEEDBF63
:102A30008DB79EB701967C016183622F01960E943B
:102A4000362F41E0410FB701802F45DEE981FA8141
:102A50000FB6F894FEBF0FBEEDBF0F900F90DF9141
:102A6000CF911F910F91FF90EF900895EF92FF92F9
:102A70000F931F93CF93DF930F92CDB7DEB7809163
:102A80000701811109C08FEF0F90DF91CF911F9146
:102A90000F91FF90EF9008951982A0910101B091DC
:102AA0000201E0910301F09104018E010F5F1F4FBD
:102AB000980141E051966C9180819EDF78018823D6
:102AC00011F3A0910101B0910201E0910301F09195
:102AD0000401980141E015966C9180818DDF882377
:102AE00091F2A0910101B0910201E0910301F091F6
:102AF0000401980141E014966C9180817DDF882368
:102B000009F4C1CFE0910101F09102016481E091EB
:102B10000301F091040180911E01882309F455C03E
:102B20008CE08983980141E0808166DF882309F485
:102B3000AACF2FEF80E792E0215080409040E1F74C
:102B400000C0000080EC89838091070180FF02C0F3
:102B500080EE8983A0910101B0910201E09103010F
:102B6000F0910401970141E014966C91808144DF5B
:102B7000882309F488CF81E090910D01911101C063
:102B800080E0880F8983A0910101B0910201E0915A
:102B90000301F0910401970141E051966C9180810D
:102BA0002BDF882309F46FCF1982A0910101B09126
:102BB0000201E0910301F0910401970141E01596B3
:102BC0006C91808119DF81505FCF84E08983980107
:102BD00041E0808111DF882309F455CF80910E01F7
:102BE000811104C08091070180FD3FC080E489838A
:102BF000A0910101B0910201E0910301F091040163
:102C0000970141E014966C918081F6DE882309F4E7
:102C10003ACF2FEF80E792E0215080409040E1F7DB
:102C200000C0000081E090910D01911101C080E091
:102C30008983A0910101B0910201E0910301F0911B
:102C40000401970141E051966C918081D5DE882383
:102C500009F419CFA0910101B0910201E0910301A3
:102C6000F09104012CE031E0A9CF80E6C0CFCF93F2
:102C7000DF930F92CDB7DEB79C01809107018111E0
:102C800005C08FEF0F90DF91CF91089581E02C3B2D
:102C9000310588F482E02236310568F483E02A3277
:102CA000310548F484E02431310528F486E02A30E7
:102CB000310508F085E08983909108019817A9F003
:102CC000A0910101B0910201E0910301F091040192
:102CD0009E012F5F3F4F41E012966C9180818CDE08
:102CE000882379F289818093080180E0CBCFEF922D
:102CF000FF920F931F93CF93DF9300D0CDB7DEB732
:102D0000FC018B017A018091070181110AC08FEFCC
:102D10000F900F90DF91CF911F910F91FF90EF9047
:102D200008959E2F8F2F9A838983A0910301B091DC
:102D300004019B012E0F311D18968D919C911997BE
:102D40008217930720F3E0910101F09102019E01A7
:102D50002F5F3F4F42E0638D8C914EDE8823B9F2A6
:102D6000A0910101B0910201E0910301F0910401F1
:102D70009701402F58966C9180813EDE8150C8CFDC
:102D8000CF93DF930F92CDB7DEB78091070181110A
:102D900005C08FEF0F90DF91CF91089588E189836F
:102DA000809105018330C1F0A0910101B091020131
:102DB000E0910301F09104019E012F5F3F4F41E03C
:102DC00016966C91808118DE882319F38981869587
:102DD000869586958093050180E0DCCFCF93DF93C5
:102DE0000F92CDB7DEB780910701811105C08FEF3B
:102DF0000F90DF91CF910895198280910601882369
:102E0000C1F0A0910101B0910201E0910301F091A4
:102E100004019E012F5F3F4F41E017966C91808126
:102E2000EBDD882321F389818695869586958093AD
:102E3000060180E0DDCF0F931F93CF93DF930F92B6
:102E4000CDB7DEB780910E01882309F45AC0A09156
:102E50000101B0910201E0910301F09104018E01A2
:102E60000F5F1F4F980141E014966C9180818CDCBC
:102E7000811107C08FEF0F90DF91CF911F910F91BC
:102E8000089589819091070190FF3DC080628983F8
:102E9000A0910101B0910201E0910301F0910401C0
:102EA000980141E014966C918081A6DD882311F38E
:102EB0008FED9EE20197F1F700C0000081E0909154
:102EC0001C01911101C080E087958827879589832F
:102ED00090911D01992311F080638983A0910101D4
:102EE000B0910201E0910301F0910401980141E0E9
:102EF00057966C91808180DD882309F4BBCF1092B6
:102F00000E0180E0B8CF8F7DC2CFCF93DF930F92B9
:102F1000CDB7DEB769839E012F5F3F4F41E0682F39
:102F200082E56ADD0F90DF91CF910895CF92DF9215
:102F3000EF92FF920F931F93CF93DF93CDB7DEB73E
:102F40002E970FB6F894DEBF0FBECDBF7C018E0169
:102F50000F5F1F4F88E0F80111928A95E9F7809181
:102F600040019091410168018F3F9807A1F18B309A
:102F7000984189F1A8016091000180913F022ADC0B
:102F8000882349F1F80120910001200F312F311DD4
:102F90008FEF90E0E217F307D1F49923E1F08F3F30
:102FA000D1F0E0913D02F0913E02309709F0CDC0A2
:102FB0002E960FB6F894DEBF0FBECDBFDF91CF9136
:102FC0001F910F91FF90EF90DF90CF900895419166
:102FD000942B8423DFCFD5DC9C0190934101809317
:102FE00040012F3F3F4FB9F465E580EF8EDF95E359
:102FF0009A95F1F7000060E08BEF87DFE5E3EA9553
:10300000F1F70000BEDC9093410180934001F5E3AD
:10301000FA95F1F7000080914001909141018331D0
:103020009F4F71F461E08BEF70DF85E38A95F1F7D4
:10303000000065E580EF69DF95E39A95F1F7000000
:1030400010923F028091400190914101833091059F
:1030500039F48EEF9CE090933E0280933D02A8CF1E
:103060009C013E7F21303105C1F563E08EEF4DDFDD
:10307000EFE1F3E03197F1F700C0000063E08EEF7D
:1030800044DF8FE193E00197F1F700C0000063E0B7
:103090008EEF3BDFEFE1F3E03197F1F700C0000086
:1030A000AE01475F5F4F66E08AEF94DB8FE193E00C
:1030B0000197F1F700C000008D85833051F025E7BE
:1030C0003DE086E030933E0220933D028093000174
:1030D0006FCF27E43DE088E0F5CF009719F488ED45
:1030E0009EE1B9CF8330E1E09E0719F483E89CE0CC
:1030F000B2CF8231FFEF9F0719F484E29EE0ABCF9D
:1031000083312FEF920719F489E69EE0A4CF833034
:10311000980719F48EEC9DE09ECF419759F48AE709
:103120009EE090933E0280933D0285E080933F02B3
:1031300081E0CCCF8BE098E19093410180934001F6
:1031400010923E0210923D0233CFB601C70109959D
:103150002FCF1F93CF93DF930F92CDB7DEB7182FEA
:1031600080911D01811721F180E0111180E3898395
:1031700090910E01992311F08260898380911C0146
:10318000882319F0898180688983A0910101B09119
:103190000201E0910301F09104019E012F5F3F4F76
:1031A00041E057966C91808127DC811110931D01BD
:1031B0000F90DF91CF911F910895EF92FF921F938F
:1031C000CF93DF930F92CDB7DEB7182F80778111A1
:1031D00025C081E0111180E08295880F880F807CE6
:1031E0008983A0910101B0910201E0910301F09166
:1031F0000401CE0101967C019C0141E055966C9141
:103200008081FADB970181110BC0109207010F90AA
:10321000DF91CF911F91FF90EF90089581E0E0CF73
:1032200089818F7B8093090116FB882780F991E0C3
:103230008927880F880F898315FD02C082608983E2
:1032400014FD03C089818160898313FD03C08981D6
:1032500088638983A0910101B0910201E09103018B
:10326000F091040141E056966C918081C5DB882382
:1032700061F2812F877F882311F080E06ADF10934D
:103280000701109210019FEF20E782E0915020404B
:103290008040E1F700C00000BACFCF93DF930F92D8
:1032A000CDB7DEB790911E019923F9F091E081111D
:1032B00001C090E0990F9983A0910101B0910201A2
:1032C000E0910301F09104019E012F5F3F4F41E027
:1032D00051966C91808190DB882319F089818093CD
:1032E0000D010F90DF91CF910895909107019923DF
:1032F000C1F3882321F090910D019111F2CF8983C0
:10330000DBCF1F93CF93DF93D82F80911E018111C4
:1033100026C0C0910701CC2301F110910C01CD23EF
:10332000C0930C01DD2371F081E0B7DF9FDB8111D9
:1033300012C081E0CD1301C080E08195DF91CF9173
:103340001F91089580911001882319F081E0A5DF75
:10335000F0CF80E0FCCF10930C018FEFEFCF80E037
:10336000EDCF0F931F93CF93DF9300D0CDB7DEB790
:103370008C0180910701811108C08FEF0F900F9091
:10338000DF91CF911F910F91089580911E018111BE
:10339000F4CF80911001882309F45DC0C801019722
:1033A000889708F040C081E0D4DE80E28983013054
:1033B00049F51A8285E090E05ADC8A8120E4829FF8
:1033C000C001112487608A83A0910101B09102019C
:1033D000E0910301F09104019E012F5F3F4F42E015
:1033E00055966C91808108DB882351F088E08093AA
:1033F00007011092090181E08093100180E081DFD4
:1034000080E0BCCF063018F481E08A83D3CF053149
:1034100028F482E08A838AE090E0CECF83E08A833A
:1034200084E190E0C9CF80E094DE198287E08A834E
:10343000A0910101B0910201E0910301F09104011A
:103440009E012F5F3F4F42E055966C918081D4DA08
:10345000811110921001B801093E83E0180760F154
:1034600068EE73E008EE13E0C8010E94822E6150FE
:103470006983A0910101B0910201E0910301F091F3
:1034800004019E012F5F3F4F41E011966C918081B6
:10349000B3DA882309F471CF698170E06F5F7F4FE1
:1034A000C8010E94962E70930B0160930A01CB0114
:1034B00096958795DCDBA4CF0430110598F664E07F
:1034C00070E0D0CFCF93DF9300D000D0CDB7DEB780
:1034D00020E030E040E057E469837A838B839C836B
:1034E00069817A818B819C810E94E82D69837A832E
:1034F0008B839C8369817A818B819C810E94852D3D
:10350000CB010F900F900F900F90DF91CF91089506
:103510007F928F929F92AF92BF92CF92DF92EF9263
:10352000FF920F931F93CF93DF9300D000D000D072
:103530000F92CDB7DEB78C016E837F832E813F81E2
:103540002817390771F480E090E2121613060CF484
:103550006DC080E090EA232B09F068C080E090E025
:1035600065C0990F880B982F809590956801C826A3
:10357000D926C81AD90A8E819F81990F880B982F56
:10358000809590952E813F8128273927A901481BD6
:10359000590B5A83498364EE77EF81EB9DE392DF09
:1035A0008D83792E69EF7DE78CEA9EE38BDF7C01CA
:1035B0008E819F819C01990F440B550B4801012E70
:1035C000000CAA08BB08A981BA81AC15BD050CF096
:1035D00041C0D501C4016FE0880F991FAA1FBB1F0E
:1035E0006A95D1F789839A83AB83BC83BC01CD01F3
:1035F0000E94CB2E49015A01C901990F880B982FBF
:1036000080959095BC0162277327681B790B8D818B
:10361000972D0E94C50EB4018E0D9F1D0E94C50EF0
:10362000AE81BF811A161B060CF0905827960FB674
:10363000F894DEBF0FBECDBFDF91CF911F910F91E8
:10364000FF90EF90DF90CF90BF90AF909F908F90C2
:103650007F900895DA01C9012FE0880F991FAA1FF2
:10366000BB1F2A95D1F789839A83AB83BC83BC01A6
:10367000CD01A50194010E94CB2E49015A01C90137
:10368000990F880B982F80959095BC016825792516
:10369000681B790B8D81972D0E94C50EB4018E0D8C
:1036A0009F1D0E94C50E9C0180E090E4101611063B
:1036B00014F080E090EC821B930BB8CF7F928F9236
:1036C0009F92AF92BF92CF92DF92EF92FF920F93B1
:1036D0001F93CF93DF93CDB7DEB7EC970FB6F89477
:1036E000DEBF0FBECDBF89AF9AAF10924F021092CE
:1036F0004E02D090C702ED2CF12C80911E01882340
:1037000009F1809107018823E9F0A0910101B091AE
:103710000201E0910301F09104019E012F5D3F4FF2
:1037200042E01C966C9180812FD8882359F009A122
:103730001AA11027012710270E151F0508F087C0B2
:1037400010924D02C0905002D0905102E09052026F
:10375000F090530277E1F594E794D794C7947A9563
:10376000D1F7D0925102C0925002809054029090B2
:103770005502A0905602B0905702E7E1B594A79485
:1037800097948794EA95D1F79092530280925202CF
:10379000409158025091590260915A0270915B0217
:1037A000F7E17595679557954795FA95D1F7509339
:1037B00055024093540200915C0210915D022091E9
:1037C0005E0230915F02A7E1359527951795079521
:1037D000AA95D1F710935702009356028091DB020D
:1037E000009FF001019FF00DF00D1124813009F4CC
:1037F000A6C1823009F4AAC2811137C2449FC00118
:10380000459F900D900D11248E0F9F1F880F991FBB
:10381000E0E0F0E8E81BF90B489DD001499DB00DB0
:10382000589DB00D11240C9DC0010D9D900D1C9D47
:10383000900D11249D01281B390BC901BF01880F70
:10384000991F66DE90934C0280934B020EC2A091AA
:103850000301B0910401E0910101F09102018C910A
:1038600011962D913C91369527952017310778F4C4
:103870009E012F5D3F4F41E063890E94C41388235E
:1038800009F460CF89A184FF02C0F0D85BCFA0917A
:103890000101B0910201E0910301F09104019E0148
:1038A0002F5F3F4F4D2D1D966C9180810E94C41358
:1038B000882309F447CFC801B7010E94822E6150C6
:1038C00060934D02E091C302F091C402CF01847174
:1038D0009927892B09F431C189819A81AB81BC81F7
:1038E000BC01CD010E94E72E4B015C018092500289
:1038F00090925102A0925202B09253028D819E8109
:10390000AF81B885BC01CD010E94E72E6B017C011F
:10391000C0925402D0925502E0925602F0925702A1
:1039200089859A85AB85BC85BC01CD010E94E72EB7
:103930008B019C01009358021093590220935A0264
:1039400030935B028D859E85AF85B889BC01CD0122
:103950000E94E72EAB01BC0140935C0250935D02D4
:1039600060935E0270935F02C501BB2797FDB0951F
:10397000AB2F8BA39CA3ADA3BEA3C701BB2797FD11
:10398000B095AB2F8FA398A7A9A7BAA7C901BB274A
:1039900097FDB095AB2F8BA79CA7ADA7BEA7CB017A
:1039A000BB2797FDB095AB2F8FA798ABA9ABBAAB50
:1039B0002BA13CA14DA15EA1CA01B9010E94732EA9
:1039C0006BA37CA38DA39EA32FA138A549A55AA5BF
:1039D000CA01B9010E94732E6FA378A789A79AA77D
:1039E000CBA0DCA0EDA0FEA0C60ED71EE81EF91EDF
:1039F0002BA53CA54DA55EA5CA01B9010E94732E59
:103A0000C60ED71EE81EF91E2FA538A949A95AA926
:103A1000CA01B9010E94732E6BA37CA38DA39EA340
:103A2000C60ED71EE81EF91E9FE0F91AA1E0CA16BD
:103A3000D104E104A2E0FA0630F018D810924F0247
:103A400010924E027FCE80914E0290914F02916073
:103A500090934F0280934E0280E1E6FF39C0282FF9
:103A600030E0A1E0B0E0AC0FBD1FA20FB31F9C91EE
:103A7000DE01A20FB31F12964C91592F50930100F3
:103A800040930000DE01A20FB31F13969C91DE014C
:103A9000A20FB31F14964C91592F509303004093DB
:103AA0000200DE01A20FB31F15969C911597169682
:103AB0002C91392F30930500209304008A5F2091C8
:103AC0004E0230914F02286030934F0220934E02F5
:103AD000E078F170EF2B09F435CE90E0E1E0F0E012
:103AE000EC0FFD1FE80FF91F3081FE01E80FF91FF1
:103AF00022813093010020930000FE01E80FF91F9E
:103B00003381FE01E80FF91F2481309303002093D5
:103B10000200FE01E80FF91F25818681922F909304
:103B200005008093040080914E0290914F028067BF
:103B300090934F0280934E0205CE80E08ECF089D79
:103B4000C001099D900D189D900D11244C9D900170
:103B50004D9D300D5C9D300D11244C01821A930A4D
:103B6000B401C4010E94C50E8BA39FA3BC010E9497
:103B7000C50E8BA7792E682F792F0E94C50E8BAFAB
:103B80009CAF60E670EB89E39DE39CDC6BA17FA1B9
:103B90000E94C50E8FA798AB6AE27EEE87E39CE396
:103BA00091DC8BAB9CAB6EEF7AEB87ED9CE38ADC10
:103BB0006BA17FA10E94C50E8DAB9EAB66EA79EB2F
:103BC00088EA9CE37FDC7C0162E377E88AEF9CE390
:103BD00079DC6BA17FA10E94C50E8FAB98AF63E823
:103BE0007EEC86E39DE36EDC5C016AEC79E989E9B1
:103BF0009DE368DC6BA17FA10E94C50E8C016AEA7F
:103C00007AEA8AE29EE35EDC6C016BA5772D8FA5D4
:103C100098A9ABA9BCA98A1B9B0B0E94C50E2DA914
:103C20003EA92E0D3F1D6BAD7CAD820F931F0E94F0
:103C3000C50E7C016BA5772D8FA998AD8A0D9B1DB4
:103C40000E94C50E8E0D9F1DC00ED11E6BA17FA1BF
:103C50008C0D9D1D0E94C50EB4010E94C50E880EDC
:103C6000991E90924C0280924B0280914B0290914F
:103C70004C028A39B9E19B070CF487C089E999E1C4
:103C800090934C0280934B0280914B0290914C0296
:103C900045E0489F9001499F300D11248091C80252
:103CA000882319F031952195310930934C022093E6
:103CB0004B023093910420939004032E000C440B8C
:103CC000550B8091CB029091CC02092E000CAA0BCF
:103CD000BB0B281B390B4A0B5B0BA091C902B0919F
:103CE000CA020E94132F6BA37CA38DA39EA320E086
:103CF00034E040E050E00E94CB2EDA01C901905838
:103D0000A109B1098115F0E89F07FFEFAF07BF07D1
:103D10000CF042C080E090E8AFEFBFEFE9ADFAAD44
:103D200093878287EC960FB6F894DEBF0FBECDBFA7
:103D3000DF91CF911F910F91FF90EF90DF90CF9087
:103D4000BF90AF909F908F907F900895CC9CC001C2
:103D5000CD9C900D900D11248E0F9F1F880F991FE1
:103D6000E0E0F0E8E81BF90B8C9CD0018D9CB00DD5
:103D70009C9CB00D1124049FC001059F900D149FC1
:103D8000900D11248A0F9B1F59CD8736964E0CF04B
:103D90007BCF87E696EE74CF811520E89207A105C8
:103DA000B1050CF4BBCF8FEF9FE7A0E0B0E0B6CF3A
:103DB0008F929F92AF92BF92CF92DF92EF92FF923B
:103DC0000F931F93CF93DF936C01EB018881805891
:103DD000990BF6011482858389818058990B16828C
:103DE000878380919F028823E1F12D81822F90E0CB
:103DF000EB80F4E0EF9E70011124AC0134E05595A6
:103E000047953A95E1F743705527E42AF52A3FEFA5
:103E1000E31A31E0F30A0C81E4E00E9F80011124E3
:103E2000959587959595879583709927082B192BDC
:103E30000F5F11408A81F4E08F9FC0011124229509
:103E4000269526952370822BB8018F5F914060DB09
:103E5000F60191878087B801C7015ADBF601938785
:103E600082878D81982F90959170B92EB29490EFA2
:103E7000B922A12C869591E089278170982E929481
:103E8000990C990C20EC9222812CA828B928B09288
:103E90004102A0924002DF91CF911F910F91FF90BC
:103EA000EF90DF90CF90BF90AF909F908F9008954C
:103EB0001F920F920FB60F9211242F933F934F939F
:103EC0005F936F937F938F939F93AF93BF93EF9382
:103ED000FF93CF93DF9300D000D0CDB7DEB783B789
:103EE0008E7F83BFE4E6F0E08081807180830E9452
:103EF000C30BE4E0FBE72591359145915491E0E057
:103F0000FBE785919591A591B49189839A83AB83C1
:103F1000BC83BC01CD010E940C12E9E6F0E0808177
:103F2000877F8083E9980F900F900F900F90DF911B
:103F3000CF91FF91EF91BF91AF919F918F917F9121
:103F40006F915F914F913F912F910F900FBE0F9006
:103F50001F9018951F921FB61F9211248F939F9345
:103F6000AF93BF9380919A0290919B02A0919C0283
:103F7000B0919D020196A11DB11D80939A0290936C
:103F80009B02A0939C02B0939D02BF91AF919F9121
:103F90008F911F901FBE1F9018951F920F920FB602
:103FA0000F9211242F933F934F935F936F937F93BF
:103FB0008F939F93AF93BF93EF93FF938091B9003B
:103FC000887F883309F461C0B8F5803291F168F5D3
:103FD000883009F452C0A0F4882309F472C0FF911C
:103FE000EF91BF91AF919F918F917F916F915F9171
:103FF0004F913F912F910F900FBE0F901F901895EA
:104000008031D9F1883159F79091820280918102F3
:10401000981750F5E091820281E08E0F8093820222
:10402000F0E0EF59FD4F80812AC0883269F3803378
:10403000B1F68093600207C0803579F138F480349E
:10404000C1F1883461F60E94A00FC9CF883539F6D6
:10405000E091820281E08E0F809382028091BB000A
:10406000F0E0EF59FD4F80838091B9028111EBCFD1
:1040700081E08093B80284EA0BC080918302809330
:10408000BB0085EC8093BC00AACF8093600285ECD6
:104090008093BC001092BA02A2CFE091820281E02C
:1040A0008E0F809382028091BB00F0E0EF59FD4FAC
:1040B00080839091820280918102981710F385E8A5
:1040C000E1CF10926002BFCFCDB7DEB7CE55D14061
:1040D0000FB6F894DEBF0FBECDBF48E151E061E0FE
:1040E00070E08E010F5F1F4FC8010E94462F8D8523
:1040F0009E85AF85B889CD5ADE4F0883C355D14020
:10410000CC5ADE4F1883C455D1400897A105B1059C
:1041100038F448E151E060E070E0C8010E94462FA9
:1041200089859A85AB85BC858531944DA24AB105B8
:10413000F1F048E151E06EEA70E0CD5ADE4F88813F
:10414000C355D140CC5ADE4F9881C455D1400E940E
:10415000192F1D861E861F86188A42E450E062E5EC
:1041600071E0CE018B559F4F0E94192F08C08D859D
:104170009E85AF85B8890297A105B10570F38A8144
:10418000873009F040C08FE08A838D859E85AF859A
:10419000B8890497A105B10548F448E550E06AEFF5
:1041A00070E0CE01835B9F4F0E94192F8D859E8505
:1041B000AF85B88986309105A105B10548F51C8207
:1041C000C951DF4F1882C75ED040EA81F0E0EA5360
:1041D000FE4FE491E23021F48AA591E089278AA775
:1041E00043E050E06EEB71E0CE018F5E9E4F0E9487
:1041F000192F44E250E06AE971E0CE0183519F4FEC
:104200000E94192F13C0883009F0BFCF8DE0BCCFBA
:1042100086309105A105B10599F289309105A10576
:10422000B10598F20D97A105B105D0F28D859E8557
:10423000AF85B8898E309105A105B10508F04FC052
:1042400088A9843030F4823008F447C081E088AB1C
:1042500004C08450823008F418AACD5EDE4F188264
:10426000C351D140CB5EDE4F1882C551D140CA5EEA
:10427000DE4F1882C651D140CC5EDE4F1882C45149
:10428000D140C95EDE4F1882C751D140C85EDE4FB3
:104290001882C851D1408A81843130F094E0980F5F
:1042A000943208F027C69A8381E190E0A0E0B0E064
:1042B0008D879E87AF87B88B48E151E061E070E061
:1042C000CD5ADE4F8881C355D140CC5ADE4F9881FC
:1042D000C455D1400E94562F12C082E0B8CF8E3014
:1042E0009105A105B10509F4B8CF8F309105A1055D
:1042F000B10509F4B7CF4097A105B10561F2C951E5
:10430000DF4F1882C75ED0408A81809384048093F7
:104310003F039C8190930D05998190938504E82F2C
:10432000F0E0EA53FE4F949121E0913009F020E053
:1043300020933E03249131E0223009F030E03093A5
:104340006C03E49131E0E33009F030E03093B703DF
:10435000223009F0D2C5883140F487E080933F03D2
:10436000913019F488E080933F0385B5826085BD64
:1043700085B5816085BD80916E00816080936E00FF
:104380008E818093A8038F818093BC0380916C03FE
:10439000882309F4B9C5CD5EDE4F8881C351D14071
:1043A00081708093C1030E94C30B8981823009F41C
:1043B000AEC5833009F4AEC58130B1F4C95EDE4FBD
:1043C0008881C751D140988590939F0280939E0227
:1043D00086E997E1909383048093820487E998E0CB
:1043E0009093BE038093BD038981833061F08D81FA
:1043F000823049F400E021E041E060E072E18AE7C8
:1044000090E00E946A0B2091B703CB5EDE4F88815B
:10441000C551D1402111CBC59981913009F4C7C54F
:104420009B81913009F4C3C58111E5C5CA5EDE4F99
:104430008881C651D1408111BCC52B81213009F43E
:10444000E2C58981813009F4DEC58091B7038170AE
:104450008093BC02C451DF4F8881CC5ED0408093F2
:10446000BB0220936B0384E2FE01E351FF4FA7E4FC
:10447000B3E001900D928A95E1F71092AA03109291
:10448000A9030E94250B1092460310924503109237
:10449000440310924303CD5ADE4F8880C355D14068
:1044A000CC5ADE4F9880C455D1406401F12C95E080
:1044B000A92E09E111E00C0F1D1F0D5F1F4FD80140
:1044C000EA2D1D92EA95E9F7C75EDE4FF882C951E1
:1044D000D140D6019096BC9070906C03BFEFBB1694
:1044E00099F1F601E1A0F5E0FF1205C0772019F07F
:1044F0008B81833081F561E08B2D0E942D0BC55E91
:10450000DE4FE882CB51D14082EF8B0DC65EDE4F8D
:104510008883CA51D140A0914503B0914603CD0193
:104520000196909346038093450383E0AA0FBB1F37
:104530008A95E1F7AB58BC4F88E0FE01E75EFE4F7D
:1045400001900D928A95E1F7F39422E0C20ED11CFE
:1045500036E0F312B4CFC451DF4F8881CC5ED04037
:104560008F3F19F060E00E942D0BC12CD12C0CE084
:10457000F02EA090A903B090AA03FA9CC001FB9C66
:10458000900D11248E539C4F2981223009F059C57A
:10459000D40150961C911F3F09F482C095012F5FF2
:1045A0003F4F3093AA032093A903BCE0CB16D1045C
:1045B00008F02CC5A601485051094230510508F4B5
:1045C00025C5C55BDE4F1882CB54D14000E0017099
:1045D000E12C2C2D412FCD5ADE4F6881C355D1409F
:1045E000CC5ADE4F7881C455D1400E949A0A8091FE
:1045F0003E03882309F416C5C55BDE4FF881CB5412
:10460000D140FF2309F40EC51E3008F40BC58FA559
:1046100028E0829FC0011124C55EDE4F18821982F6
:104620001A82CB51D140C75EDE4F1883C951D140A9
:1046300021E0C05EDE4F2883C052D140C25EDE4F13
:1046400099838883CE51D14061E0812F0E942D0B48
:10465000A0914503B09146038CE08A9DF0018B9DAB
:10466000F00D1124EE53FC4FA3871E50C65EDE4FA3
:104670001883CA51D140CD0101969093460380938F
:10468000450313E0AA0FBB1F1A95E1F7AB58BC4FC7
:1046900088E0FE01E75EFE4F01900D928A95E1F7FA
:1046A000772081F0FA9CF001FB9CF00D1124EE5371
:1046B000FC4F8581823030F4CE5EDE4F8881C2515E
:1046C000D14082874FEFC41AD40A5FEF851A950A4A
:1046D00080E1C816D10409F04CCF772009F4E5C178
:1046E0001B81113009F061C588A98093DB027894A1
:1046F00080E8C75EDE4F8883C951D140A091010197
:10470000B0910201E0910301F09104019E01275E46
:104710003E4F41E055966C9180810E94FC148823A5
:1047200009F46EC09FEFA9E6B8E19150A040B040F7
:10473000E1F700C00000C75EDE4F1882C951D140CA
:10474000A0910101B0910201E0910301F0910401F7
:104750009E01275E3E4F41E055966C9180810E94FC
:10476000FC14882309F44CC010920F018FEF809342
:1047700007018093050180930601809308012FEFC4
:104780003FEF30930B0120930A0180930C0180933B
:104790000E011093090110931C0110921D0110923B
:1047A000110110921001E2E1F1E08AE0DF011D92B7
:1047B0008A95E9F710921E0110921F0110922101B3
:1047C000109220010E94C01681111AC00E94EE169C
:1047D000811116C08AE290E00E943716811110C044
:1047E00082E390E00E94B11981110AC00E948119F0
:1047F000811106C00E941B17811102C00E94DD18A2
:1048000088E70E94DD180E94C0160E94EE1688E715
:104810000E94811980911F0100E010E0B6EFEB2E9D
:10482000BBE0FB2E882309F424C48CE0E5E0F2E031
:10483000DE01A75EBE4F01900D928A95E1F7C75C3D
:10484000DE4F1882C953D14085E0C65CDE4F8883B5
:10485000CA53D140AE01475C5E4F62E070E086E132
:1048600092E00E947716811111C0AE01475E5E4F43
:104870006CE070E081EC9AE00E947716811106C02E
:104880008EE190E09093C6028093C50280911E0154
:10489000813049F180911F01882329F180E00E9435
:1048A0004D190E941B1780912001909121010E94B7
:1048B000B119C75EDE4F1882C951D140E0910301A2
:1048C000F09104019E01275E3E4F41E063E280814A
:1048D0000E94FC14882339F081E080931E010E941D
:1048E0004D190E94361582E0C75EDE4F8883C9519C
:1048F000D1408AECC65EDE4F8883CA51D14083EE38
:10490000C55EDE4F8883CB51D14019E0C45EDE4FD7
:104910001883CC51D140AE01475E5E4F64E070E039
:1049200088E690E00E94771683EAC75EDE4F8883B0
:10493000C951D140C65EDE4F8883CA51D140C55EA1
:10494000DE4F8883CB51D140C45EDE4F8883CC518B
:10495000D140C35EDE4F8883CD51D140C25EDE4F71
:104960008883CE51D140C15EDE4F8883CF51D14084
:10497000C05EDE4F8883C052D140CF5DDE4F88835A
:10498000C152D140CE5DDE4F8883C252D140AE01CC
:10499000475E5E4F6AE070E087EA9AE00E94771611
:1049A00088EDC75EDE4F8883C951D140AE01475EB6
:1049B0005E4F61E070E086EB9AE00E947716E2E1DC
:1049C000F2E0DE01A75CBE4F01900D921A95E1F76F
:1049D000AE01475C5E4F69E070E088EB94E00E94B6
:1049E000771644E050E06BE870E0CE01875C9E4FA4
:1049F0000E943F2FAE01475C5E4F64E070E088E9A3
:104A00009AE00E9477160E94361580E2C75CDE4F5E
:104A10008883C953D14088E2C65CDE4F8883CA537D
:104A2000D14080E3C55CDE4F8883CB53D14088E31F
:104A3000C45CDE4F8883CC53D140AE01475C5E4FEF
:104A400064E070E08EE99AE00E9477160E943615C5
:104A500088E190E09093C4028093C3020E943615CF
:104A600080E18093C7028EE59BE1909341038093A0
:104A70004003CB5EDE4F8881C551D1408111B2C366
:104A8000CA5EDE4F8881C651D14081708093420357
:104A900086E0FE01E55FFE4FA9ECB2E001900D92C9
:104AA0008A95E1F78CA58093C802AEA41092A60364
:104AB000A092A7039DA4892D90E09093DD0280939E
:104AC000DC027090B7032091A9033091AA03D09023
:104AD000BC034091B803C55BDE4F4883CB54D14043
:104AE0001091B9037091BA036091BB038090C10328
:104AF000C090BF03B090C00340E05CE0E42EF12C16
:104B0000E216F3060CF471C33093AA032093A903B1
:104B1000C55BDE4F2881CB54D1402093B80310935E
:104B2000B9037093BA036093BB03C092BF03B09202
:104B3000C00381E09A819D3009F080E08093A50355
:104B400080918404893261F008F499C382E4FE0103
:104B5000EB55FF4FAEEDB2E001900D928A95E1F773
:104B60007894E4E0FBE72591359145915491E0E09C
:104B7000FBE785919591A591B491BC01CD010E946F
:104B80000C120E942C09C55BDE4F6883CB54D140C8
:104B9000C45BDE4F7883CC54D140C35BDE4F888347
:104BA000CD54D140C25BDE4F9883CE54D140CB5A16
:104BB000DE4F188219821A821B82C555D140A9E1A5
:104BC000B1E0AC0FBD1F1396C35ADE4FB983A88363
:104BD000CD55D1400E942C09C15BDE4F688379839B
:104BE0008A839B83CF54D140DC01CB01C55BDE4F70
:104BF000288139814A815B81CB54D140821B930B40
:104C0000A40BB50B813C9742A940B10508F446C0FE
:104C10000E942C09C55BDE4F6883CB54D140C45B36
:104C2000DE4F7883CC54D140C35BDE4F8883CD54B4
:104C3000D140C25BDE4F9883CE54D14010927A00AF
:104C400060E088E00E94DB0A1982CD5ADE4F68815D
:104C5000C355D140CC5ADE4F7881C455D14080E055
:104C60000E94210F69816D7F80E00E94B60E8091C5
:104C700064008F6E8093640083B7817F846083BFFC
:104C8000F89482E08CBB8091690088608093690011
:104C9000E99A83B7816083BF789488950E942C0934
:104CA000C15BDE4F688379838A839B83CF54D14075
:104CB00080910E0590910F05A0911005B0911105FE
:104CC000C15BDE4F488159816A817B81CF54D140DD
:104CD000481B590B6A0B7B0B80910D0590E0A0E0FF
:104CE000B0E084179507A607B70708F0BEC5E091A6
:104CF0008204F0918304309719F081E095E00995E2
:104D00008091DF04882309F407C303ED14E0F12C3C
:104D10008F2D0E94140BD8012D913D918D01821B86
:104D2000930B97FF03C09195819591094F970CF4D0
:104D3000EEC28EE08F0D809342011092DF04B12C01
:104D40001CE0A12EEE24E394F12CCB2CD12C8091ED
:104D5000A9039091AA03C816D9060CF431C4809116
:104D6000A803882309F445C08091010590910205AC
:104D7000837F9093020580930105609105057091F2
:104D800006052091A6033091A70344275527421B0F
:104D9000530B641775072CF484609093020580937D
:104DA0000105261737074CF4809101059091020503
:104DB000886090930205809301058091070590918A
:104DC0000805841795074CF44091010550910205A0
:104DD00042605093020540930105281739074CF4AF
:104DE0008091010590910205816090930205809366
:104DF000010580916C03882311F18091420388237F
:104E0000A9F09E012F5F3F4F42E062E18DE00E94DA
:104E1000C413882359F080910105909102059E707A
:104E20002981922B9093020580930105E091400324
:104E3000F0914103309719F081E095E00995809158
:104E4000B703811192C48091A5038111E0C44CE0A5
:104E500050E065EF74E081E095E0FBD7892B09F421
:104E6000E0C40E942C0960930E0570930F05809397
:104E70001005909311054CE0BE01675E7E4F81E006
:104E800095E00E946D0F892B09F000C58CE0E1E0F0
:104E9000F5E0A5EFB4E001900D928A95E1F78090DE
:104EA000010590900205A12CB12CCB5ADE4F288130
:104EB00039814A815B81C555D14082169306A4068B
:104EC000B50609F4DAC40E942C09C55BDE4F68837D
:104ED000CB54D140C45BDE4F7883CC54D140C35B0C
:104EE000DE4F8883CD54D140C25BDE4F9883CE54D1
:104EF000D140C3C48B5F8A83D7C9913009F035CACA
:104F0000883108F42FCA31CA80E090E049CA82EBA8
:104F100098E066CA01E021E041E060E271EA87E0E2
:104F200090E00E946A0BEE24E39400E020E04AE067
:104F3000CD5ADE4F6881C355D140CC5ADE4F7881BF
:104F4000C455D1408CEA92E00E949A0AE12C01E01B
:104F500020E042E0CD5ADE4F6881C355D140CC5AA3
:104F6000DE4F7881C455D14080EA92E00E949A0ACF
:104F700060E08AE00E942D0B61E082E00E942D0B30
:104F8000F89480916900836080936900E89A78942E
:104F90000E94B00F82EF98E09093BE038093BD0310
:104FA0008FE291E190938304809382041DCA811162
:104FB00022C0CA5EDE4F8881C651D1401092BA022B
:104FC00091E09093B9021092B802449A459A909158
:104FD000B9009E7F9093B9009091B9009D7F909306
:104FE000B9008170882351F088E48093B80085E48B
:104FF0008093BC0022CA81E090E0E0CF88E12111DB
:10500000F4CF82E1F2CF81E090E021CA01E02D816E
:10501000213009F000E0E1E0C55BDE4FE883CB54CE
:10502000D140D5CAFA9CF001FB9CF00D1124EE533F
:10503000FC4F638132E0361B632F812F0E942D0BC2
:105040002FCB95012F5F3F4F3093AA032093A903E5
:10505000E12C00E02C2D40E0CD5ADE4F6881C35595
:10506000D140CC5ADE4F7881C455D1400E949A0A73
:1050700017CBF801EA50FE4FDE01A75EBE4FCD010F
:105080008C0D9D1D24912D9331968A179B07D1F786
:10509000AE01475E5E4FB601C8010E9477168111CE
:1050A000C4CB80910701882309F4BFCB902F812FB7
:1050B000C75BDE4F99838883C954D140E0910301D7
:1050C000F091040120853185C601800F911D2817BC
:1050D000390708F4AACBA0910101B09102019E0109
:1050E000275B3E4F42E05B966C9180810E94FC14EE
:1050F000882309F49ACBA0910101B0910201E091BB
:105100000301F09104019E01275C3E4F4C2D5896FF
:105110006C9180810E94C413882309F486CBA60178
:10512000BE01675C7E4FCE01875E9E4F92D6892B73
:1051300009F07BCB0C0D1D1D063FBBE01B0760F487
:105140006701C01AD10AE1E1CE16D10408F491CF6B
:10515000A0E1CA2ED12C8DCF84E0C75BDE4F8883BF
:10516000C954D140C65BDE4F1882CA54D140A091C9
:105170000101B0910201E0910301F09104019E014F
:10518000275B3E4F42E05D966C9180810E94FC144B
:10519000882309F44ACB81E080931F0188EC90E0DA
:1051A000909321018093200140CB123009F061CC13
:1051B000E12C00E020E04BA5CD5ADE4F6881C355BD
:1051C000D140CC5ADE4F7881C455D1408FEC92E06B
:1051D0000E949A0A62E08091D3020E942D0B8AE11C
:1051E00099E043CC81E090E050CC5E9DC0015F9D92
:1051F000900D11248E539C4FDC011596EC91E630F6
:10520000E1F47720D1F00CE0FC01ABEAB3E00190CF
:105210000D920A95E1F721503109E216F30669F083
:10522000529FF001539FF00D1124EE53FC4F0CE000
:10523000DC0101900D920A95E1F75E9DF0015F9D02
:10524000F00D1124EE53FC4FE581E13031F488205C
:1052500011F0C82EB92E4F5F51CCE43029F4DD2077
:10526000D1F3782F692FF7CFE530A9F7DD2099F337
:10527000C55BDE4F8883CB54D140192FECCF8831EA
:1052800008F46ECC98EE980F963090F48AE1FE0107
:10529000F396A4E2B3E001900D928A95E1F71092A3
:1052A0002203A0922303109220039092210358CC52
:1052B000843238F046E050E06FEF71E082E391E035
:1052C000B8D5809184048E3139F48DE08093250126
:1052D0008CE08093260144CC982F9D7F4EE050E0D7
:1052E00068E07EE0903279F04EE050E06AEF7DE0D9
:1052F0008F3149F0813219F0863209F031CC4EE01D
:1053000050E06CEE7DE084E291E093D529CCF394FB
:10531000B6E0FB12FDCC13CD8091F4048823E9F0B4
:1053200000E010E0802F0E94D50B811110C0802F6B
:105330000E94FB0AF801E052FB4F9081891739F077
:105340000E94F00B009342011092F404F8CC0F5F1E
:105350001F4F0431110531F7F2CC60914503709174
:1053600046036115710509F451C080913E01811118
:105370002FC080917A0086FD49C08091780090917D
:1053800079002091430330914403A901F3E0440FD5
:10539000551FFA95E1F7FA01EB58FC4FA781A111CF
:1053A00004C0E281E1113CC09250E6E0880F991FF1
:1053B000EA95E1F74B585C4FFA01948383832F5FA2
:1053C0003F4F6217730799F13093440320934303CF
:1053D00010923E01E0914303F091440363E0EE0F2D
:1053E000FF1F6A95E1F7EB58FC4F88E0DE0111964C
:1053F00001900D928A95E1F78A818770806480938D
:105400007C0080917A00806480937A0080904503CC
:1054100090904603A0906C03F12C86E0E82E26C005
:10542000E0E0F2E0DF01A81BB90BCD01BECF109286
:10543000440310924303CCCF53E0880F991F5A9531
:10544000E1F7FC01EB58FC4F88E0DE01119601907A
:105450000D928A95E1F78885882381F08C819D8162
:10546000E981F0E0EB59FC4F8083F3948F2D0F2CF2
:10547000000C990B88159905FCF261CCF5E0FF1240
:1054800006C0AA2021F080916B03823071F3B980AD
:10549000CB2CD12C8C819D819601220F331FC15BB7
:1054A000DE4F39832883CF54D140F901EA57FB4FAF
:1054B00091838083EC9CF001ED9CF00D1124E95B5D
:1054C000FC4F048115812C813D81032E000C440B7F
:1054D000550B82819381092E000CAA0BBB0B281B54
:1054E000390B4A0B5B0BA081B1819DD4C75ADE4FAB
:1054F000688379838A839B83C955D14020E034E057
:1055000040E050E048D4DA01C9019058A109B1093E
:10551000811530E893073FEFA307B3072CF580E030
:1055200090E8AFEFBFEFA801012E000C660B770BE0
:10553000E1E0EB1520F5AA2061F1F4E0BF1229C0EB
:1055400084179507A607B70724F480E090E8AFEF2B
:10555000BFEFC15BDE4FE881F981CF54D140EF5FEF
:10556000FA4F9183808381CF811540E89407A1058C
:10557000B105CCF28FEF9FE7A0E0B0E0D4CF841765
:105580009507A607B707D4F0F601EF5FFA4F9283AD
:105590006CCF84179507A607B707DCF61195019520
:1055A0001109012E000C220B330B081719072A07CB
:1055B0003B077CF680E090E0DC01CBCF90E8E4CFC5
:1055C000AC9C8001AD9C100D11240E531C4F80919A
:1055D000C103882341F0D80115968C918090BF03B8
:1055E0009090C003811148010E942C09C15BDE4FDD
:1055F000688379838A839B83CF54D140F401868169
:105600009781A085B185C15BDE4F488159816A8150
:105610007B81CF54D140481B590B6A0B7B0B828591
:1056200090E0A0E0B0E084179507A607B70708F060
:1056300090C0E091BD03F091BE03C8010995082F09
:105640008091BC03882369F1AC9CF001AD9CF00D06
:105650001124EE53FC4F85818450823010F5E09187
:10566000BD03F091BE038091BA039091BB030995ED
:10567000882309F470C0E091BD03F091BE038091CE
:10568000B8039091B9030995882309F464C0809107
:1056900001059091020594609093020580930105A5
:1056A00000E08091B703882391F0AC9CF001AD9CA1
:1056B000F00D1124EE53FC4F85818F3041F4E091C1
:1056C000BD03F091BE038BEA93E00995082B10E02F
:1056D000AC9CC001AD9C900D11249C012E533C4FFD
:1056E0006901D90115968C91F70102C0EE0FFF1FD9
:1056F0008A95E2F7CF0120910105309102058223BE
:1057000093230817190729F10E942C09D401169632
:105710006D937D938D939C931997F6014581970125
:10572000042E02C0220F331F0A94E2F72095309511
:1057300080910105909102058223932302C0000FFE
:10574000111F4A95E2F7802B912B909302058093CD
:105750000105B394FACA80910105909102059B7FDF
:1057600090930205809301059CCF8E010F5F1F4F20
:10577000980143E062E18EE00E94C41398014091D9
:105780000105509102058823A1F18A81882379F1CE
:105790008981582B516050930205409301058B81FC
:1057A000F0E28F02C0011124909306058093050555
:1057B00043E062E18DE00E94C41320910105309125
:1057C00002058823F1F08A818823C9F08981382B6A
:1057D000326030930205209301058B8120E2820222
:1057E000C001112490930805809307052CCB5E7FA0
:1057F000D2CF5E7F5093020540930105D9CF3D7F04
:10580000E8CF3D7F30930205209301051CCB8091AA
:105810000105909102058064909302058093010533
:1058200016CB0E942C09C15BDE4F688379838A8383
:105830009B83CF54D14080910E0590910F05A0918C
:105840001005B0911105C15BDE4F288139814A8175
:105850005B81CF54D140281B390B4A0B5B0B25369B
:1058600031054105510508F0FCCACB5ADE4F88804E
:105870009980AA80BB80C555D140CB5ADE4F888223
:105880009982AA82BB82C555D140A4C9C75EDE4FAA
:105890008881C951D140C65EDE4F9881CA51D1403E
:1058A000992309F4B2C098E0909392048E3310F1DA
:1058B0008E53990B22E3289FB001299F700D11246C
:1058C00008E111E0061B170B0233110514F002E387
:1058D00010E0A80155276F5F7F4F83E994E0D6D28F
:1058E00041E0400FBE016F5F7F4F82E994E00E946C
:1058F0006D0FCCCA823319F0873309F047C06EE1CF
:105900007EE088E994E09ED280E094E2A4EFB0E0EB
:105910008093930490939404A0939504B093960479
:1059200047E655E463E271E0E0E0F0E0A1E2A09335
:1059300057008491482788E090E08A019B0101701C
:105940001127222733277695679557954795012B81
:10595000022B032B41F030E2432733E8532738EB87
:1059600063273DEE73270197009739F73196E032B0
:10597000F105E9F64093B6045093B7046093B80478
:105980007093B9041092970448E2ACCF8C3359F469
:105990008CE0E6E8F4E0A3E9B4E001900D928A958A
:1059A000E1F74DE09FCF8533B9F4809185048130D4
:1059B00051F480914001909141019093940480931F
:1059C000930443E08FCF8330E1F780913F018093D0
:1059D000930410929404F5CF863341F480914201F0
:1059E000809393040E94F00B42E07CCF48E050E0AB
:1059F00066E17EE083E994E01CD2809184048332E6
:105A000010F41092960449E06DCF8D33A9F4C55E71
:105A1000DE4F6881CB51D1404CE1649FB00111242D
:105A20006F5F7F4F4DE150E0C35ADE4F888199810F
:105A3000CD55D1403BD22ACA8333E9F168F4803393
:105A400049F0813309F022CA87E797E7909301086C
:105A5000809300080E94010F843331F08A3309F0EB
:105A600015CA0E94CC1212CA8091DF0481110ECA9D
:105A70008FEF809342010E94250B03ED14E08EE02E
:105A8000F82E63E08F2D0E942D0B8FE891E0019797
:105A9000F1F700C0000082EF8F0D0E94140BD801B7
:105AA0008D939D938D01F394B4E1FB12EACF81E0D5
:105AB0008093DF04EBC98091F4048111E7C98FEF73
:105AC000809342010E94250B00E010E0802F0E948D
:105AD000D50B811111C062E0802F0E942D0BEFE8E1
